:020000040800F2
:10800000687A0120B5840008BD840008BF84000898
:10801000C1840008C3840008C58400080000000073
:108020000000000000000000000000009D83000828
:10803000C9840008000000003D840008A1840008F5
:10804000CF840008CF840008CF840008CF840008C4
:10805000CF840008CF840008CF840008CF840008B4
:10806000CF840008CF840008CF840008CF840008A4
:10807000CF840008CF840008CF840008CF84000894
:10808000CF840008CF840008CF8400080FA6000822
:1080900089A50008CF84000809A60008CF8400083D
:1080A000CF840008CF840008CF840008CF84000864
:1080B000CF840008CF840008CF840008CF84000854
:1080C000CF840008CF840008CF840008CF84000844
:1080D000CF840008CF840008CF840008CF84000834
:1080E000CF840008CF840008CF840008CF84000824
:1080F000CF840008CF840008CF840008CF84000814
:10810000CF840008CF840008CF840008CF84000803
:10811000CF840008CF840008CF840008CF840008F3
:10812000CF840008CF840008CF840008CF840008E3
:10813000CF84000871AB0008CF8400089BA600081C
:1081400015A60008CF84000895A60008CF84000873
:10815000CF840008CF840008CF840008CF840008B3
:10816000CF840008CF840008CF840008CF840008A3
:10817000CF840008CF840008CF840008CF84000893
:10818000CF840008CF84000800F002F800F0B6F8B1
:108190000AA090E8000C82448344AAF10107DA4562
:1081A00001D100F0ABF8AFF2090EBAE80F0013F0FE
:1081B000010F18BFFB1A43F00103184710690100B3
:1081C000306901000023002400250026103A28BF52
:1081D00078C1FBD8520728BF30C148BF0B60704739
:1081E000642901F07F82782901F0B882732901F0B7
:1081F000FE860020704710B510BD00007047704724
:1082000002010216E0B7EB3900800008008001008F
:1082100000000020C0FF010000000000000000007E
:108220000165557064617465720000000000000013
:108230000101000000010100455854000000000049
:108240004E6F7620313120323031362031353A359B
:10825000313A303100000000000000000000000052
:10826000000000000000000000000000000000000E
:1082700000000000000000000000000000000000FE
:108280000A444FF0000C10F8013B13F0070408BF3C
:1082900010F8014B1D1108BF10F8015B641E05D0DA
:1082A00010F8016B641E01F8016BF9D113F0080F8F
:1082B0001EBF10F8014BAD1C0C1B09D16D1E58BF21
:1082C00001F801CBFAD505E014F8016B01F8016B58
:1082D0006D1EF9D59142D6D370471FB515F010FC2D
:1082E0009DE8030001F074FD02F027F9040000206E
:1082F000002115F059F9401C60601FBD02F0B3F871
:108300001146FFF7EAFF0BF0DDFC02F0D9F803B4E9
:10831000FFF771FF03BC02F009F900000048704745
:10832000003000000048704700A00000401EFDD152
:108330007047000080F309887047EFF309807047A9
:10834000684680F3098804480078C00714BF0220FB
:10835000032080F31488704798030020DFF818C0CA
:10836000EFF305831B0618BF6047EFF31483DB07A9
:1083700008BF604700DF7047695D0108DFF818C07B
:10838000EFF305831B0618BF6047EFF31483DB0789
:1083900008BF604700DF7047E15D0108EFF3098027
:1083A000816911F8021C99BB90E80F1010B5E047E5
:1083B000BDE81040EFF3098C8CE807001C4B93E8F4
:1083C0000600914208BF704781B11EF0100F06BF32
:1083D0002CED108A0120002081F838002CE9F00FE4
:1083E000C1F83CC00CB40FF0C1F80CBC1A60D2F854
:1083F0003CC0BCE8F00F92F8380000281ABFBCEC73
:10840000108A6FF0120E6FF0020E8CF3098870471D
:1084100010B5084A1268914209D8074C54F8214017
:1084200090E80F10A047EFF3098C8CE80F0010BD07
:10843000A802002084A5000884A5000810B50EF04D
:108440008FFFBDE81040154B93E80600914208BF2E
:108450007047EFF3098C1EF0100F06BF2CED108A49
:108460000120002081F838002CE9F00FC1F83CC051
:108470000CB40FF07BF80CBC1A60D2F83CC0BCE81E
:10848000F00F92F8380000281ABFBCEC108A6FF089
:10849000120E6FF0020E8CF309887047A8020020BC
:1084A00010B50FF087F8CCE710B50CF05BFA0FF0C1
:1084B00081F8C6E70948804709480047FEE7FEE71C
:1084C000FEE7FEE7FEE7FEE7FEE7FEE7FEE7FEE784
:1084D00004480549054A064B70470000ADB3000843
:1084E0008981000868AA0020687A0120684A012072
:1084F000684A0120F7B514466E46002914BF0125CD
:10850000002588480078E8B100F07AFA294630461C
:1085100003F034F9C5B2012C0DD183480099834C86
:10852000C0F82610014620684022001D01F02AFBF9
:10853000206800F03DFE00F06DFA012D02BF002022
:1085400003B0F0BD4FF0FF3003B0F0BD38B56C465E
:108550000090002914BF012500257248007860B101
:1085600000F04EFA2946204603F008F9C4B200F0A4
:1085700051FA012C04BF002038BD4FF0FF3038BD48
:108580002DE9F34767480D46E94600784FF0FF377D
:10859000F0B1674E3088D8B100F032FA308800244C
:1085A000002888BFDFF88C810FD900BFC4EBC4005E
:1085B00008EB4000042249460A3001F0B7FA60B1E6
:1085C000601CC4B230888442F0D300F023FA11E07A
:1085D00002B04FF0FF30BDE8F087C4EBC40008EBF9
:1085E0004000041D00F016FA00271DB12068286025
:1085F000A088A88002B03846BDE8F0872DE9F14395
:108600004848E8464FF0FF360078E8B1484D2888E2
:10861000D0B100F0F5F928880024002888BF454F24
:108620000FD900BFC4EBC40007EB40000422414651
:108630000A3001F07BFA58B1601CC4B22888844229
:10864000F0D300F0E7F919E04FF0FF30BDE8F88310
:10865000C4EBC40007EB4000041D00F0DBF9062268
:108660003549204601F062FA58B1062233492046C6
:1086700001F05CFA002818BF002602D03046BDE8A1
:10868000F8834FF0FF36F9E700207047002070476D
:1086900010B5254CFF21204602F0C0FE28484FF4BB
:1086A000C1634FF0080C0169C4F80610828A628128
:1086B000A3814FF48073E381A4F810C04FF0060C3F
:1086C00084F812C04FF0040C84F813C0A382C4F8DD
:1086D000161062838069E06104F1200002F09AFEC6
:1086E0000020C4F82600C4F82A00C4F82E00C4F8FC
:1086F0003200C4F836000D4AC4F83A00E08704F1AD
:10870000400111602A220A80488010BD90F8201094
:10871000202984BF4FF0FF30704710B500F0F3FC04
:10872000002010BD00020020488A0020F80100202F
:108730005E020020988D0020F0E10108F6E10108BA
:10874000D08A0020B84A126F02B11047FEE770B518
:108750000C46B8B10546FFF797FF0646284600F0DD
:1087600091FC0644284600F029FA0644284600F009
:108770006CFA0644284600F067FC3044002C18BF11
:10878000206070BDE120A84AA8A1126F12B19047E5
:10879000002070BDFEE710B5A34C606F002808BF35
:1087A00010BD80470028AB49086018BF10BDE0200D
:1087B000226FA9A112B1BDE810401047FEE770B5C5
:1087C000A44D416F81B1816F974C00291FBFC16FCC
:1087D0000029D0F8800000280DD0606F002818D044
:1087E0008047286080B114E000218167C167C0F82C
:1087F000801029600DE0226FE320A7A11AB19047F5
:108800004FF0FF3070BDFEE7226FE02092A112B161
:108810009047002070BDFEE710B5D821824801F0D6
:1088200052FA8C490020086010BD2DE9F0417E4CC1
:108830008846050007D02A6F2267287850B1E420C7
:10884000A0A132B12EE0226FE120ABA1002A29D1F4
:10885000FEE7FEE7B1480078012804D02846FFF77C
:1088600055FF20B11AE0E020ADA1DAB9FEE7D8212A
:108870006D4801F028FA774F002628463E6000F048
:108880001EFC58B9284600F09FF938B9284600F078
:10889000E2F918B9284600F0DDFB40B1AA49226F81
:1088A000E3205AB190474FF0FF30BDE8F0814146D8
:1088B0002846FFF7EBFE002875D100E0FEE72846CA
:1088C000FFF7E2FE20F0030080444146284600F016
:1088D000DBFB002867D1284600F0D4FB20F0030022
:1088E00080444146284600F06BF900285BD12846B9
:1088F00000F064F920F0030080444146284600F06F
:10890000A6F900284FD1284600F09FF920F0030077
:1089100000EB0801284600F099FB002843D12846C7
:1089200000F092FBD82229463F4801F070F93E4DF5
:108930002846FFF7ADFE002835D1686F60B1A96FFA
:1089400000291FBFE96F0029D5F88010002909D040
:108950008047386068B111E0AE67EE67C5F88060A7
:108960003E600BE0226FE3204BA10AB190471AE072
:10897000FEE7226FE02038A12AB19047284600F098
:1089800085FB80B900E0FEE7284600F01BF950B9EE
:10899000284600F05EF930B9284600F059FB00285F
:1089A00008BFBDE8F0814FF0FF30BDE8F08170B541
:1089B00004000D4616D0FFF767FE0646204600F07D
:1089C00061FB0644204600F0F9F80644204600F01A
:1089D0003CF90644204600F037FB3044002D18BF18
:1089E000286070BDE120104A10A1126F12B19047AB
:1089F000002070BDFEE718E7002070470020704798
:108A000014480068002808BF7047074AD2F8801051
:108A1000926F10470F480068002808BF704702494E
:108A2000C96F084700687047D08A00206970616C80
:108A30005F626173655F6D656D6F72795F676574A5
:108A400073697A652829206E6565647320612063E7
:108A500066670000FC0100206970616C5F626173F1
:108A6000655F6869645F7468726561647361666597
:108A700074795F696E697428293A2063616E6E6F3C
:108A80007420616C6C6F6361746520746865206D1F
:108A900075746578000000006970616C5F626173D5
:108AA000655F696E697469616C6973652829206EF8
:108AB00065656473206F73616C2066756E6374699D
:108AC0006F6E73006970616C5F626173655F696E80
:108AD000697469616C69736528293A20756E7375CC
:108AE00070706F72746564207463702F6970207386
:108AF0007461636B000000006970616C5F62617398
:108B0000655F696E697469616C69736528293A20CB
:108B10006D697373696E67206366670000020020E9
:108B20006970616C5F626173655F696E69746961C8
:108B30006C69736528293A20616C726561647920DB
:108B40007374617274656400ACE9010831B524483E
:108B50006C46007838B1234890F82C0018B19DF885
:108B60000000EF2802D04FF0FF3038BDFFF748FF7C
:108B700020460AF0F5FB002814BF00244FF0FF3414
:108B8000FFF748FF204638BD31B515486C460078E0
:108B900088B1144890F82C0068B1FFF731FF2046E7
:108BA0000AF006FC00280CBF4FF0FF340024FFF74A
:108BB00031FF204638BD4FF0FF3038BD00207047F0
:108BC000002070470020704790F82D10062984BFC0
:108BD0004FF0FF30704710B500F016FB002010BDBD
:108BE00000020020D08A0020224810B5406848B119
:108BF0002148017801290CD0012101700AF048FEBA
:108C0000002010BD1DA1E120FFF79CFD4FF0FF30BB
:108C100010BD24A1E020FFF795FD4FF0FF3010BDFF
:108C200010B5FFF7EDFE0BF06BF8BDE81040FFF755
:108C3000F1BE10B5FFF7E4FE14F0A0FABDE8104055
:108C4000FFF7E8BE0B4840687047002070470020DF
:108C50007047002070470189B1F5C05F84BF4FF0B5
:108C6000FF30704710B50021034A117000F024FB5B
:108C7000002010BDD08A0020000200206970616CC5
:108C80005F7379735F737461727428293A206D6918
:108C90007373696E6720636F6E666967757261745E
:108CA000696F6E006970616C5F7379735F73746173
:108CB000727428293A2063616E6E6F742073746138
:108CC000727420616761696E0000000008B10628B7
:108CD00001D900207047F0B515460A46E64900EB79
:108CE000400085B001EBC000A0F1180450F8080C5A
:108CF0000A9F1E4698B11046FFF794FE0346E068AF
:108D000020B1984204BF2089A84208D10396ADF84B
:108D100008700095D4E904C002AA2146E04705B0D6
:108D20000020F0BD4107090EC0F3C00241EA021164
:108D3000C0F3001210B541EAC201C0F3401041EA8D
:108D40008004CE480078002808BF10BDFFF758FE09
:108D5000CB4A0121204614F035FAC0B1C64900EBD8
:108D6000400201EBC20404F8180C002024F8160C91
:108D700044F8140C24F8100C44F80C0C44F8080CBB
:108D800044F8040CFFF746FEA4F1180010BDFFF7ED
:108D900041FE002010BD70B504001CBF20780028E3
:108DA00021D0FFF72DFE6088002518B1207814F03F
:108DB000EBF96580207814F067FA06462078AE4912
:108DC00000EB400001EBC00000F8185C25706580E6
:108DD00065602581E56025616561FFF71BFE002E5A
:108DE0001CBF002070BD4FF0FF3070BD70B5154640
:108DF0000E4604001DBF20780028002D4FF0FF30E4
:108E000008BF70BDFFF7FCFD608820B1207814F02A
:108E1000BBF9002060809849002000BF00EB4002B1
:108E200001EBC2025288AA4210D0401CC0B20628F0
:108E3000F4D32078294614F0E9F910F0FF0F05D09B
:108E400065806660FFF7E6FD002070BDFFF7E2FD7C
:108E50004FF0FF3070BD2DE9F04790460F460400FB
:108E600019BF207800284FF0FF30BDE8F087FFF7EA
:108E7000C7FD608850BB207800264546002818BFF3
:108E8000002D2DD0FFF7BCFD60884FF0000920B108
:108E9000207814F079F9A4F802907749002000BFF7
:108EA00000EB400201EBC2025288AA4216D0401CDD
:108EB000C0B20628F4D32078294614F0A7F910F0A0
:108EC000FF0F0BD065806660FFF7A4FDA4F8088053
:108ED000E760FFF79FFD0020BDE8F087FFF79AFDF0
:108EE000FFF798FD4FF0FF30BDE8F08710B50400A4
:108EF00019BF207800284FF0FF3010BDFFF780FD2C
:108F000000202081E060FFF785FD002010BD2DE9E5
:108F1000FF4182B098460C46050004AF1CBF28787C
:108F2000002828D06888002818BF002C23D060684B
:108F300000281CBF208800281DD0FFF761FD208875
:108F400014F038F906001BD02288616800F01AFE80
:108F500020880090287833464246394614F0ACF910
:108F600000280CBF4FF0FF340024FFF753FD06B07C
:108F70002046BDE8F08106B04FF0FF30BDE8F0813B
:108F8000FFF748FD06B04FF0FF30BDE8F0812DE956
:108F9000F04383B00C4605001CBF688800283CD015
:108FA000E86800281CBF2889002836D0FFF728FD74
:108FB000E86801902878B5F808900DF104084FF0A2
:108FC000FF3600281CBF6888002820D0002C1FBF57
:108FD000606800282088002819D0FFF711FD20883C
:108FE00014F0E8F8070010D02288616800F0CAFD8C
:108FF0002088009028783B464A46414614F05CF9A8
:1090000000280CBF4FF0FF360026FFF703FDFFF7E7
:1090100001FD03B03046BDE8F08303B04FF0FF30F0
:10902000BDE8F083002812BF00294FF0FF307047E1
:1090300070B516460D460446FFF7E2FCC4E9045637
:10904000FFF7E8FC002070BD00207047002070474B
:109050000020704710B5044690F83000062884BF01
:109060004FF0FF3010BD9021034800F02CFE204649
:1090700000F087F9002010BDA88B0020000200201E
:10908000CD8C0008002070470020704710B5D0F844
:109090008C1000291CBFD0F89010002908D0D0F8FF
:1090A000941000291FBFD0F898000028002010BDA0
:1090B00005A1E120FFF746FB4FF0FF3010BD10B5D2
:1090C00000F093F8002010BD6970616C5F657468F2
:1090D0005F6869645F696E697428293A206D6973F5
:1090E00073696E67206574682066756E6374696F56
:1090F0006E730000A94890F82200012818BF70473D
:10910000002002F05DBC10B504464FF4E071A448A5
:1091100000F0D9FDA34894F82010C180A249626AEA
:10912000B2FBF1F2028194F821200270A26AB2FB34
:10913000F1F14170002010BD9848D0F89C00002843
:1091400008BF7047004700291CBF0020704706F089
:1091500085BA10B5954A84B09069D2E90812CDE974
:1091600002128E4A0090907A8DF80000904801908B
:10917000904890F803C081884FEA1C230B43817804
:109180004FEA0C6C4CEA014C4478007843EA1141F8
:109190004CEA042C41EA14614CEA0000CDE90201DA
:1091A000D2F88C10684688477E49487104B010BDDB
:1091B0007A49D1F89810084710B5784CD4F8900047
:1091C0008047D4F88800002808BF10BDBDE81040D3
:1091D000004710B5714CD4F88400002818BF8047B0
:1091E000D4F89400BDE8104000476E4902694A6116
:1091F000808A088300207047684991F82C10012963
:1092000018BF70470CF0BEBC654A0021664BC2F81F
:10921000C011C2F8C411C2F8C811C2F8CC11C2F80A
:10922000D011C2F8D411C2F8D811C2F8DC11C2F8BA
:10923000E01142685B49B3FBF2F290F82D004881DF
:1092400092B24CF6CD405043800C8870002070479D
:10925000062806D2584901EB4011F030C0B2FFF7A2
:1092600071BA56A1E020FFF76DBA10B50AF040FBC5
:109270004A4C94F82C00012808BF0AF04BFB94F8E4
:109280002F00012808BF0AF06DFB94F82200012886
:1092900018BF10BD0020BDE8104002F091BB10B512
:1092A0000EF0ACFA3D4890F82C00012818BF10BD14
:1092B000BDE810400EF0FABA2DE9F041384D002615
:1092C0000446C5F8E461C5F8E861C5F8EC61C5F885
:1092D000F061C5F8F461C5F8F861C5F8FC61C5F83E
:1092E0000062C5F80462C5F80862C5F80C62C5F8EA
:1092F0001062C5F81462C5F818624FF4C05105F544
:109300000870C5F81C6200F0DEFC05F5C057254862
:10931000C7F82862C7F82C62C681A169C5F8E411B4
:10932000E169C5F8EC1105F5F271C0220A73A823B2
:109330004B738E734FF0FE0C81F80FC00A744B74A0
:109340008E7481F813C00A714B71184A8E7181F8BE
:1093500007C0D2E90012C7E988120121C170218932
:109360000161114A6168B2FBF1F181810020BDE821
:10937000F0810A4991F82F10012918BF70470CF0AD
:1093800041BC10B504464821124800F09CFC054839
:1093900094F830100171002010BD0000D08A002028
:1093A000988D00205802002040420F0008E3010879
:1093B00010E301086C02002030E30108756E6B6E4B
:1093C0006F776E2073797374656D206572726F723A
:1093D00000000000C8A700200048704704AA002031
:1093E00070B5A0FB0140B4F1805170F1000024BFC2
:1093F000002070BD204600F05FFD05001CBF214627
:1094000000F03FFC284670BD70B516460D46041F9F
:10941000002808BF70BD002E1CBF05F10C00AFF383
:1094200000802B465868002818BFA04238BF03466A
:10943000F8D31968CA18A24218BF5C6003D1226829
:109440001C461144196021680A19824218BF6060E5
:1094500004D142686260006808442060002E1CBF8E
:1094600005F10C00AFF3008070BD10B5044600F0AC
:1094700094FC01682046BDE810400122C4E70B308F
:1094800020F0070070472DE9F0410F460546041F04
:1094900000F083FC0668F7B1384615B3FFF7EFFF1D
:1094A000B84205463CBF0020BDE8F08106F10C0043
:1094B000AFF300802268AA4238BF314615D3511B52
:1094C000082931D36019002240F8041B3146256079
:1094D000FFF79AFF28E02846FFF7C7FF0020BDE806
:1094E000F081BDE8F04100F0E7BC4868002818BFF3
:1094F000A04238BF0146F8D3131983421BD1036839
:109500001A44954217D8531B082B0AD34368621993
:109510005360236800681844401B106025604A604F
:1095200002E022604068486006F10C00AFF3008062
:10953000201DBDE8F08100223146281F00F07BFC91
:1095400005000AD02068211D021F284600F05FFB9D
:1095500000223146201DFFF757FF06F10C00AFF344
:1095600000802846BDE8F08153EA020C00F06980D3
:109570002DE9F04B4FF00006002B1FBFB3FA83F527
:1095800003FA05F424FA05F65E4012BF1643B2FA58
:1095900082F502FA05F4C5F120051EBF22FA05FC8A
:1095A00044EA0C04203556EA044C4FEA144418BF30
:1095B000641C4FF000084FF00009904271EB030C5F
:1095C00039D3002919BFB1FA81F701FA07F6B0FAC9
:1095D00080F700FA07F6C7F120071EBF20FA07FC44
:1095E00046EA0C062037B6FBF4FCA7EB0507103F54
:1095F00007F01F0BCBF120060CFA0BFB2CFA06F63A
:1096000044BFB3460026202FA4BF5E464FF0000B98
:109610005BEA060C08BF4FF0010B19EB0B09ABFB23
:10962000027C48EB0608C01B06FB02CC0BFB03CCFC
:1096300071EB0C01C1E70B46024641464846BDE8C6
:10964000F08B13B54FF000004FF00001AFF3008036
:10965000BDE81C40704700000FB47CB50C0009AA9F
:10966000009001D02044401E084B7B446946019085
:10967000089800F08AFC05461CB10020694600F0FD
:1096800097FC28467CBC5DF814FB00004D090000E7
:1096900070B50C460546012A05D02878800600D50D
:1096A000EA69002302E0012305E05B1C934202D239
:1096B000E05C0028F9D1A869E618C01AA861286AF8
:1096C000184428622846AFF3008004E0D5E9012160
:1096D00014F8010B9047B442F8D32846AFF300804A
:1096E00070BD00002DE9F041064600241068752980
:1096F000314616A510D0AFF30080002802DA4042B0
:1097000013A507E031688A0701D512A502E04907D1
:1097100004D511A5012401E0AFF3008000210A2245
:1097200006F1240709E0B0FBF2FCB0FBF2F302FB08
:109730001C00303078541846491C0028F3D12346C9
:109740002A463046BDE8F04100F0C0BB00000000F2
:109750002D0000002B0000002000000070B5044622
:109760000D4621461068AFF300802188090502D517
:109770000F4A7A4402E00E4A7A440E32002104F184
:10978000240305E000F00F060009965D5E54491CB5
:109790000028F7D120780023000704D5702D02D0CF
:1097A00009B1022311322046BDE8704000F08EBBA3
:1097B000185001002DE9F0474FF0000A8946044691
:1097C000C0F820A02046E1688847002876D02528E8
:1097D00006D0D4E901219047206A401C2062F1E7BD
:1097E000E168204600258847C4F81CA006460027EB
:1097F000C4F818A02A2E09D0304601F03BFE38B339
:1098000004EB8708303EC8F8186019E059F8041BCB
:10981000204604EB87029161E1688847012F0646E4
:1098200018D1E069002820DA25F020051DE0D8F8DD
:10983000180000EB800006EB40003038C8F8180034
:109840002046E1688847064601F014FE0028EED164
:10985000012F0AD02E2E08D12046E16888477F1CB0
:109860000646022F45F02005C4DBA069002803DA74
:10987000404245F00105A061E80701D025F0100540
:10988000B6B1A6F14100192802D8203645F400658A
:109890004A463146204625604D46FEF7A1FC58B1A8
:1098A000012806D0ED1D25F0070000F1080989E721
:1098B00004E005F1040985E730468AE7206ABDE83F
:1098C000F08700000FB400B58DB010A90990009189
:1098D0000B904FF0FF300A9000200C90064878441F
:1098E0000690064878446A4607900F9909A800F048
:1098F00097FB0DB05DF814FB5F07000077070000D1
:109900002DE9FF5F1D464FF0FF3B91464FF00008E9
:109910005F46D5E90146A96901987F1C8847296AF5
:10992000824688470028F6D1BAF1FF3F0CD0002EBE
:1099300024F4C06419DD600614D5BAF12B0F09D0E8
:10994000BAF12D0F0ED103E0584604B0BDE8F09FE8
:1099500044F48064A96901987F1C8847761E82467A
:10996000002E02DDBAF1300F03D0B9F1000F26D07E
:1099700032E0A969761E01987F1C44F40074884780
:10998000002E824605DDBAF1780F06D0BAF1580FE5
:1099900003D0B9F1000F10D01EE0B9F1000F02D0D2
:1099A000B9F1100F18D1A969761E01987F1C24F413
:1099B000007488478246102002E0082000E00A2058
:1099C000814609E0A96908FB0908761E01987F1CF9
:1099D00044F4007488478246002E05DD494650460F
:1099E00000F009FB0028EDDAE96901988847A00535
:1099F00002D46FF00100A8E7E00725D1600613D577
:109A0000600502D5C8F1000000E0404629680A1D43
:109A10002A600968220501D5087015E0220701D5E2
:109A2000088011E008600FE02868011D29600068C7
:109A3000210502D580F8008006E0210702D5A0F8B4
:109A4000008001E0C0F8008038467EE72DE9FF5F26
:109A50004FF000089946144646469169D2E901A79D
:109A6000DDF838B001988847054659EA0B0005D063
:109A700009E0A1690198761C88470546216A2846B5
:109A800088470028F5D1681C03D05FEACA7005D06A
:109A900015E04FF0FF3004B0BDE8F09F2068011DD5
:109AA0002160D0F800800AE05FEACA7001D108F8AE
:109AB000015BA169761C01987F1E88470546002F2F
:109AC0001ADD681C18D0B9F1000F0DD0E81705EBAE
:109AD000D060421120F01F0059F822102A1A0120EC
:109AE00090400142E0D107E0BBF1000FDCD12846F5
:109AF000216A88470028D7D0E16901988847BBF1DF
:109B0000000F07D1002E05DD5FEACA7002D10021E7
:109B100088F80010A068B84203DDBBF1000F03D045
:109B200017B16FF00100B6E73046B4E740EA010331
:109B300010B59B070FD1042A0DD310C808C9121FF6
:109B40009C42F8D020BA19BA884201D9012010BD30
:109B50004FF0FF3010BD1AB1D30703D0521C07E0FD
:109B6000002010BD10F8013B11F8014B1B1B07D161
:109B700010F8013B11F8014B1B1B01D1921EF1D1D2
:109B8000184610BD032A40F2308010F0030C00F09C
:109B9000158011F8013BBCF1020F624498BF11F827
:109BA00001CB00F8013B38BF11F8013BA2F10402E0
:109BB00098BF00F801CB38BF00F8013B11F0030358
:109BC00000F02580083AC0F0088051F8043B083ABC
:109BD00051F804CBA0E80810F5E7121D5CBF51F85E
:109BE000043B40F8043BAFF30080D20724BF11F8D8
:109BF000013B11F801CB48BF11F8012B24BF00F83D
:109C0000013B00F801CB48BF00F8012B704710B5AD
:109C1000203AC0F00B80B1E81850203AA0E8185064
:109C2000B1E81850A0E81850BFF4F5AF5FEA027C25
:109C300024BFB1E81850A0E8185044BF18C918C094
:109C4000BDE810405FEA827C24BF51F8043B40F835
:109C5000043B08BF7047D20728BF31F8023B48BF1A
:109C600011F8012B28BF20F8023B48BF00F8012B58
:109C7000704702F0FF0343EA032242EA024200F087
:109C800002B84FF000020429C0F0128010F0030C5B
:109C900000F01B80CCF1040CBCF1020F18BF00F8DF
:109CA000012BA8BF20F8022BA1EB0C0100F00DB88E
:109CB0005FEAC17C24BF00F8012B00F8012B48BFEC
:109CC00000F8012B70474FF0000200B51346944690
:109CD0009646203922BFA0E80C50A0E80C50B1F104
:109CE0002001BFF4F7AF090728BFA0E80C5048BF18
:109CF0000CC05DF804EB890028BF40F8042B08BFB6
:109D0000704748BF20F8022B11F0804F18BF00F8B1
:109D1000012B70474FF0013C50F8042B51F8043BE5
:109D20009A4221D1A2EB0C03934313EACC1317D12F
:109D300050F8042B51F8043B9A4215D1A2EB0C03C6
:109D4000934313EACC130BD150F8042B51F8043B86
:109D50009A4209D1A2EB0C03934313EACC13DBD054
:109D60004FF00000704700BFD01A01BAB1FA81F17C
:109D700001F0180122FA01F0CB40C1F12001DBB261
:109D8000C0B2C01A2CFA01F3D11A914311EAC311DF
:109D9000E6D1704770477047704710B5FFF71CFB5E
:109DA000083010BD7047704738B504460A46002099
:109DB0006946AFF30080002808BF38BD024600990D
:109DC000204600F066F9012038BD012000F044BBB8
:109DD000F8B5AFF30080054600200C46102000BF08
:109DE0000646A819A0420DD9324669460020AFF3B5
:109DF0000080070008BF00F02FFB0098A04218BFAA
:109E00000546C419FFF7C9FF05600746F01D20F09D
:109E100007004619284600F033F9B44208BFF8BDE0
:109E2000A21B31463868BDE8F84000F032B90B306B
:109E300020F0070070472DE9F04117460E46044612
:109E4000FFF7F5FFA042054633D9002F1CBF06F1EE
:109E50000C00AFF3008030467468F4B12168A94269
:109E600017D305F1080291423CBF6168416007D3F6
:109E7000626861194A602268521B0A60416025606D
:109E8000002F1CBF06F10C00AFF30080201DBDE8C1
:109E9000F08120466468002CE0D129463046FFF767
:109EA00083FF0028D7D1002F1CBF06F10C00AFF3B1
:109EB00000800020BDE8F08110B50446FFF76DFF7B
:109EC00001682046BDE810400122B4E72DE9F047C3
:109ED0000D4699469246044600F12408016888061A
:109EE00004D5E06921F01001216000E00120A842C2
:109EF00001DD471B00E00027A1697A1902EB090088
:109F0000081AA0612078C00602D42046AFF3008072
:109F1000002608E0D4E901211AF806009047206ADB
:109F2000401C761C20624E45F4DB2078C0060AD522
:109F30002046AFF3008006E0D4E9012130209047AD
:109F4000206A401C2062381EA7F10107F4DC07E0FC
:109F5000D4E9012118F805009047206A401C2062CE
:109F6000281EA5F10105F3DC2046AFF30080207820
:109F7000000602D50220BDE8F0870120FBE70000C3
:109F800001694A1C02610878704700B58FB0CDE9BD
:109F900001310021059105497944CDE903101146AD
:109FA0006846FFF707FC0FB000BD0000E5FFFFFFAC
:109FB0000A6802F8010B0A607047D1E900239A424F
:109FC00002D2531C0B601070704710B5436913B177
:109FD000AFF3008001E0FFF75BFB012010BD1278BA
:109FE00000F124010A7000224A700122EDE7116895
:109FF0004FF0FF32E9E73A2800D2303820F0200253
:10A00000412A01D3A2F13700884201D34FF0FF303B
:10A0100070470000026811441378016018467047C9
:10A02000D1600549794451610449794411620021A4
:10A030001161114600F056B8EDFFFFFFA3000000CC
:10A04000426842B1016811F8013B23B1521EC0E9D8
:10A050000012184670470121C160881E704742688F
:10A060005AB1C368016843B983688B4205D0491E61
:10A07000521CC0E90012002070474FF0FF307047BB
:10A0800000210160C0E901100C3001F0FAB9102084
:10A09000704730B404468C464368002B18BF6345B4
:10A0A00038BF1846F8D303681844604507D0C81C69
:10A0B00020F0070000F1040CACEB0100121A21465D
:10A0C000CCF8002030BC00220CF10400FFF79CB952
:10A0D00010B5044600F0ECF90068005D00F00100E6
:10A0E00010BD00002DE9F34F4FF0000A0C46564614
:10A0F0008DB001200C9001F10C000B9062690B985F
:10A1000001219047051E2DD0252D2CD0216A88478E
:10A11000C0B162690B9801219047216A88470028E5
:10A12000F7D16269411E0B98904700E0761CA16947
:10A130000D988847216A88470028F7D1E1690D9872
:10A140008847DBE7A1690D988847A842074601D1F7
:10A15000761CD3E7E1690D9888477F1C02D1BAF1DC
:10A16000000F6FD06BE162690B9800273D463946BE
:10A1700090472A2804D162690B9801219047012554
:10A18000DFF8D08262690B9801219047A0F130017D
:10A190000A290AD24745E5DC07EB870100EB4107B6
:10A1A000303FDFD445F01005ECE7E90601D46FF04D
:10A1B00000476C280AD04C2814D0682815D06A288B
:10A1C0000DD074281CD07A281AD01DE062690B9833
:10A1D000012190476C2802D045F0040514E045F0B9
:10A1E00002050DE045F020050AE062690B980121A7
:10A1F0009047682802D045F0080505E045F4006561
:10A2000062690B9801219047C4E9015765283DD048
:10A2100019DC58287AD00CDC452837D004DC2528F6
:10A2200026D041289ED131E046282FD0472899D109
:10A230002CE05B2877D0612828D063287CD0642864
:10A2400023D15AE0F6E06F2848D008DC66281DD0FC
:10A2500067281BD0692821D06E2816D127E07028E6
:10A2600045D0732868D0752847D078280DD14DE0A7
:10A27000A1690D988847252805463FF469AFE16933
:10A280000D9888476D1C3FF46AAFD8E00D992346BE
:10A290006A466FF00100AFF30080C5E045F0400072
:10A2A00023464FF000026060A80736D43EE0E8077E
:10A2B0007FF447AF2068011D21600068290501D5A2
:10A2C00006701BE7290701D5068017E7A90703D504
:10A2D000F117C0E9006111E706600FE745F04000A3
:10A2E00023464FF008026060A80716D41EE040F62F
:10A2F0000E0125EA0100606016E045F040002346AB
:10A300004FF00A026060A80707D40FE045F0400054
:10A310006060A80708D5234610220D996FF0010050
:10A32000AFF3008080E007E0102223460D996FF024
:10A330000100FFF7E5FA77E04FF0000963284F4688
:10A34000C8464B46CB4602D05B2806D038E0E8062C
:10A3500001D40120A060012732E06269D4F80CB07A
:10A360000B98012190475E2807D14FF0010949461B
:10A370006269D4F80CB00B989047216939B9002173
:10A380000A4603AB43F82120491C0829FADBD8B35D
:10A39000216949B308F1010862690B9801219047CE
:10A3A0005D28F4D1B9F1000F09D0002003A951F8BC
:10A3B0002020D24341F82020401C0828F7DB03ABC3
:10A3C0002069002820794FEA40701ED05B46224663
:10A3D000CDF80080CDE901970D9900286FF00100BC
:10A3E00020DAAFF300801FE0C11703AA00EBD161B0
:10A3F0004B1121F01F0102EB8302411A1368012067
:10A40000884003431360C7E719E00D9922460028EE
:10A410006FF00100009702DAAFF3008004E0FFF76D
:10A4200015FB01E0AFF3008000280ADA401C06D1DA
:10A430000C9820B14FF0FF300FB0BDE8F08F5046C0
:10A44000FAE7E90701D10AF1010A064400200C905D
:10A4500054E60000CCCCCC0C10B500F03FF8BDE8C1
:10A46000104000F036B87546FEF7B6FFAE46050060
:10A470006946534620F00700854618B020B5FEF720
:10A4800027F8BDE820404FF000064FF000074FF0DE
:10A4900000084FF0000B21F00701AC46ACE8C00902
:10A4A000ACE8C009ACE8C009ACE8C0098D4670470B
:10A4B00010B500F042F8001D10BD00BFED300100E6
:10A4C00010B50446AFF300802046BDE81040FDF70C
:10A4D0001EBF002801D000F029B8704710B5012830
:10A4E00005D0002103A000F02DF8012010BD09A126
:10A4F000F8E7000053494752544D454D3A204F75F7
:10A5000074206F662068656170206D656D6F72796B
:10A51000000000003A2048656170206D656D6F7223
:10A520007920636F72727570746564000149182038
:10A53000ABBEFEE726000200704710B5FEF74CFFE9
:10A54000203010BD70B505460C460A2000E06D1C99
:10A5500000F011F835B128780028F8D102E0641C29
:10A5600000F009F814B120780028F8D1BDE8704057
:10A570000A20AFF3008008B569468DF8000003207B
:10A58000ABBE08BD00000000F0B589B00026009603
:10A590000196029603961A481A4D4468E868A76A1D
:10A5A00010F0100F1CBF30460FF078FD384608F051
:10A5B0001AF8012808D1384608F0B6F8012084F8C6
:10A5C0002E0030460FF06AFD284604AA002100F054
:10A5D000C8F9049800909DF81A008DF80600DDF87F
:10A5E0001B000290DDF81F0003906946384608F012
:10A5F000A2F8616800291CBFA068884709B0F0BDB7
:10A60000F8A800200064004000200FF047BD0020A3
:10A610000FF080BD70B58AB001200021009101913A
:10A620000291039119491A4D8C68E968A66A11F0E4
:10A63000100F18BF0FF032FD304607F0D4FF01288D
:10A6400007D1304608F070F8012084F82E000FF092
:10A6500025FD284604AA002100F083F90498009003
:10A660009DF81A008DF80600DDF81B000290DDF859
:10A670001F0003906946304608F05DF861680029C4
:10A680001CBFA06888470AB070BD0000F8A8002071
:10A690000068004001200FF001BD01200FF03ABD1D
:10A6A00010B4082304224FF0100CB1F5007F40D005
:10A6B00021DC202902BF036110BC704710DC012996
:10A6C00001BF1D49816010BC7047042902BFC360EF
:10A6D00010BC7047082908BFC0F80CC010BC7047F8
:10A6E000402902BFC0F810C010BC7047B1F5807F90
:10A6F0001FD010BC70470024B1F5004F08D00BDC10
:10A70000B1F5806F15D0B1F5006F1CBF10BC70475C
:10A710008461426010BC7047B1F5803F02BF436066
:10A7200010BC7047B1F5003F08BFC0F804C010BCB2
:10A730007047426010BC704701010100A0F18041E8
:10A7400010B5B1F5C8414FF0010109D0880600F0FD
:10A750000DFDBDE8104000214FF0806000F006BD07
:10A760004FF0007000F002FDBDE8104000214FF0F6
:10A77000007000F0FBBC000030B4817A354B012240
:10A7800002FA01F11A6842F001021A60DFF8C8C04B
:10A79000DCF800208A43CCF80020047B2F4AD4B98F
:10A7A00014688C4314604488C58844EA0544857A5B
:10A7B000ED0005F1804505F5C045C5F84046048823
:10A7C000858844EA0544857AED0005F1804505F564
:10A7D000C045C5F84446047B012C18D114680C43CD
:10A7E0001460847A0268E40004F1804404F5C044F3
:10A7F0004FEA3242C4F84026847A4268E40004F109
:10A80000804404F5C0444FEA3242C4F84426C47A76
:10A81000134A002C14680CBF8C430C431460048949
:10A82000104A14B914688C4314600489012C02D1B5
:10A8300014680C431460407B012804D1DCF800004C
:10A840000843CCF80000186820F00100186030BC04
:10A8500070470000006600401C6600400C66004027
:10A860000466004014660040002A426914BF114388
:10A8700022EA0101416170470268002322F00202CE
:10A880000260026842F0010202604FF6FF7200BFF0
:10A89000D0F804C01CF0010F03D1934218BF5B1C19
:10A8A000F6D1436813F0010F59D08B79012B03685F
:10A8B0000CBF43F0800323F080030360CB79012BAE
:10A8C00003680CBF43F0400323F0400303600B7A9E
:10A8D000012B03680CBF43F0200323F02003036027
:10A8E0004B7A012B03680CBF43F0100323F01003D5
:10A8F00003608B7A012B03680CBF43F0080323F03D
:10A9000008030360CB7A012B03680CBF43F00403F8
:10A9100023F0040303608B7891F803C09B0743EA9C
:10A920000C6391F804C043EA0C4391F805C0098810
:10A9300043EA0C53491E1943C161016821F001012A
:10A9400001600021436813F0010F1CBF9142491CB4
:10A95000F8D1406810F0010F04BF012070470020BB
:10A96000704700EB0113D3F8B0C11CF0040C82F85F
:10A9700008C0D3F8B0C107BF4FEA5C5CC2F800C0A2
:10A980004FEADC0CC2F804C0D3F8B0C10CF0020CE2
:10A9900082F809C0D3F8B4C10CF00F0C82F80AC0D9
:10A9A000D3F8B4C14FEA1C2C82F813C0D3F8B8C155
:10A9B00082F80BC0D3F8B8C14FEA1C2C82F80CC047
:10A9C000D3F8B8C14FEA1C4C82F80DC0D3F8B8C117
:10A9D0004FEA1C6C82F80EC0D3F8BCC182F80FC0DD
:10A9E000D3F8BCC14FEA1C2C82F810C0D3F8BCC10C
:10A9F0004FEA1C4C82F811C0D3F8BC311B0E937483
:10AA000021B1016941F0200101617047C16841F045
:10AA10002001C1607047000009490A6842F0010244
:10AA20000A600A6822F4877222F478520A600A687F
:10AA300042EA00200860086820F0010008607047C2
:10AA40000066004000218171C17101724172817202
:10AA5000C1728170C1700321017102214171012114
:10AA60000180704710B402460020936813F0806F95
:10AA70003FD000BF02EB0012D2F8803103F0010397
:10AA8000C2F880310B7A002B42D0D2F880C14C68DA
:10AA90004CEA030391F809C04CEAC40C43EA0C03E6
:10AAA000C2F880318B7A03F00F038B72D2F88431B5
:10AAB00023F00F03C2F88431D2F8843191F80AC030
:10AAC00043EA0C03C2F88431CB7AD1F80CC043EAD4
:10AAD0000C23C2F88831CB7B096943EA0121C2F813
:10AAE0008C11D2F8801141F00101C2F8801110BC24
:10AAF0007047906810F0006F18BF0120BAD19068BD
:10AB000010F0805F14BF02200420B3D110BC704746
:10AB1000D2F8803191F809C043EA0C03B1F800C0C3
:10AB200043EA4C53BCE700B5002200F007F8C043ED
:10AB300080B2010241EA102080B200BD05E000BFF2
:10AB400030F8023B891E5BBA1A440129F8DC11B1C6
:10AB5000007802EB002290B200EB124000EB1040B4
:10AB600080B27047084400EB104080B2704700008C
:10AB70002DE9F04F43484FF0000B93B046685F4615
:10AB800049F21A08357C4FF4407A4FF00049706959
:10AB900000EB05100168C1F30D410C1F016811EABB
:10ABA000080F18BF012734D100683AEA000018BF27
:10ABB00002272ED140F2EA50844288BF032728D8CA
:10ABC00044F0004007F006F944F0004100900028EE
:10ABD00008BF04271DD00820726900EB0510E31C94
:10ABE000105820F003020098001D9C0806D000BFFA
:10ABF00052F8043B40F8043B641EF9D12248026835
:10AC000012B10098001D9047009807F061FB4FF0CB
:10AC1000010B706900EB0510C0F8009077B1022FAE
:10AC200008BF4FF0FF343B4618A2402102A8009411
:10AC3000FEF712FD02A9F02008F0F4FAF07A6D1C7C
:10AC4000854208BF00253574706900EB0510006867
:10AC500010F0004F9BD0184C6069184D10F0800F19
:10AC600006D065610020A06015A1F02008F0DAFA96
:10AC70006561BBF1000F18BF07F07CF813B0BDE8A9
:10AC8000F08F0000D0020020C80200204554485F29
:10AC900049525148616E646C657228293A20657288
:10ACA000726F7220256420666F72206672616D6516
:10ACB0005B25645D0000000000900240C080010040
:10ACC0004554485F49525148616E646C6572282949
:10ACD0003A206572726F72203500000001490860E9
:10ACE000704700000C3C024030B50546002451B1CD
:10ACF000012908BF4FF4807405D002290CBF4FF41E
:10AD000000744FF4407400F079F8092818BF30BD82
:10AD10000F4B186820F440701860186820431860C2
:10AD2000186820F0F8001860186845F00201084320
:10AD30001860186840F48030186000F05FF81968F7
:10AD400021F002011960196821F0F801196030BD85
:10AD5000103C024030B50C46054600F04FF809287B
:10AD600018BF30BD0A4B186820F44070186018688E
:10AD700040F480701860186840F0010018602C8062
:10AD800000F03CF8196821F00101196030BD0000A5
:10AD9000103C024030B50C46054600F02FF809285B
:10ADA00018BF30BD0A4B186820F44070186018684E
:10ADB00040F400701860186840F0010018602C60C2
:10ADC00000F01CF8196821F00101196030BD000085
:10ADD000103C02400548006810F0004F08BF704763
:10ADE000034904480160044901607047103C024077
:10ADF00023016745043C0240AB89EFCD81B00920B7
:10AE00008DF8000001462648026812F4803F18BF02
:10AE1000012116D1026812F0100F18BF062110D1BF
:10AE2000026812F4807F18BF02210AD1026812F072
:10AE3000EF0F18BF072104D1026812F0020F18BFEC
:10AE400008218DF800109DF80010012923D1026817
:10AE5000092112F4803F18BF012116D1026812F0B7
:10AE6000100F18BF062110D1026812F4807F18BF9E
:10AE700002210AD1026812F0EF0F18BF072104D196
:10AE8000026812F0020F18BF08218DF800109DF81B
:10AE900000100129DBD09DF8000001B070470000D0
:10AEA0000C3C02402DE9F001002201255FF0030671
:10AEB000D1F800C005FA02F30CEA030C9C4533D12B
:10AEC00007684FEA420C06FA0CF4A74307600F79B3
:10AED000D0F8008007FA0CF747EA080707600F79F7
:10AEE000012F18BF022F14D18768A74387604F79BD
:10AEF000D0F8088007FA0CF747EA08078760476828
:10AF000027EA0303436043688F799740BFB23B430E
:10AF10004360C368A343C360CB7903FA0CF3D0F852
:10AF20000CC043EA0C03C360521C102AC0D3BDE816
:10AF3000F00170474B07DB0E9A40C90800EB810017
:10AF4000016A4FF00F0C0CFA03F399430162016A96
:10AF50001143016270470246002012690A4218BF7D
:10AF6000012070470246002052690A4218BF0120A2
:10AF700070474269514041617047002A14BF018304
:10AF8000418370470029018814BF41F4806121F496
:10AF9000806101807047838A0022008B43EA004071
:10AFA00020F07F4031EA000008BF012210467047C0
:10AFB000C943818270470029018814BF41F0010113
:10AFC00021F00101018070470029018814BF41F47C
:10AFD000807121F48071018070470029018814BFBD
:10AFE00041F4007121F400710180704782B0024683
:10AFF000002000920A0F21F07F41019208BF090C46
:10B00000009A14BF14321832009212680A4218BF14
:10B01000012002B07047818A008B41EA004020F095
:10B020007F40704770B50446808884B00D4620F09C
:10B030003F06684600F0B2F829490298B0FBF1F1EA
:10B0400089B246EA0102A280228822F0010222800F
:10B05000244B2A689A421DD85200B0FBF2F080B20D
:10B06000042838BF0420491C2184A083208840F094
:10B07000010020802088A9886A8920F00A0020F435
:10B080008060114308432080A889298908432081D2
:10B0900004B070BDEB88A3F53F4CBCF1FF0C19D098
:10B0A00002EBC20303EB0212B0FBF2F080B240F4F9
:10B0B00080400205120D08BF40F0010040F400403E
:10B0C0004FF4967251434FF47A72B1FBF2F1491C7E
:10B0D0002184CAE702EB4202B0FBF2F080B2E8E75B
:10B0E00040420F00A0860100002A14BF41F0010178
:10B0F00001F0FE010182704701827047034940F070
:10B10000FD7040F080600860704700000CED00E0CA
:10B1100021F07F0121F06041084301490860704738
:10B1200008ED00E0044A0029116814BF084321EA31
:10B13000000010607047000030380240044A0029C7
:10B14000116814BF084321EA000010607047000036
:10B1500010380240044A0029116814BF084321EA4C
:10B16000000010607047000040380240044A002987
:10B17000116814BF084321EA000010607047000006
:10B1800020380240044A0029116814BF084321EA0C
:10B19000000010607047000044380240254A30B477
:10B1A0001168254B11F00C0106D0244C042908BF6E
:10B1B000046002D008291ED0036011680F2303EA3F
:10B1C00011111F4B595CD0F800C02CFA01F14160FD
:10B1D000D2F800C0072404EA9C2C13F80CC021FA12
:10B1E0000CFCC0F808C0126804EA52329A5CD140E4
:10B1F000C16030BC70471349D1F800C0CCF3805512
:10B20000D1F800C0002D0CF03F0C14BFB4FBFCF3D0
:10B21000B3FBFCF3D1F800C00968CCF3881C03FB36
:10B220000CF3C1F30141491C4900B3FBF1F101608A
:10B23000C3E70000083802400024F40080F0FA025E
:10B24000A4030020043802400149C1F8DC00704723
:10B250000000274282B0002229490192009208682A
:10B2600040F480200860086840F480300860086876
:10B2700000F4003000900198401C0190009818B92B
:10B280000198B0F5A04FF2D1086810F4003F02BF5A
:10B29000009202B07047012000901A48026842F004
:10B2A000805202601848026842F440420260174827
:10B2B00002680260026842F400420260026842F4DE
:10B2C000A0520260031F124A1A600A6842F080729C
:10B2D0000A600A6812F0007FFBD00E4A40F2057146
:10B2E0001160016821F003010160016841F0020171
:10B2F0000160016801F00C010829FAD102B0704721
:10B3000000380240403802400070004008380240D7
:10B3100032544007003C0240010241EA102080B252
:10B3200070470000DFF86CC030B4DCF800001A4B46
:10B3300010F00C01194806D0194C042908BF04600C
:10B3400002D008290CD00360DCF80010154AC1F3C4
:10B350000311515C026822FA01F1016030BC7047B0
:10B3600011490A68C2F380550A68002D02F03F02B5
:10B3700014BFB4FBF2F2B3FBF2F20B680968C3F33B
:10B3800088135A43C1F30141491C4900B2FBF1F152
:10B390000160D9E7083802400024F4002C020020A4
:10B3A00080F0FA0200E2010804380240134810B5A8
:10B3B000016841F4700101601148016841F0010128
:10B3C0000160104A00211160026822F4102222F06C
:10B3D00080720260031D0C4A1A60026822F4802207
:10B3E00002600A48016007F075FFFFF733FF084964
:10B3F0004FF000600860FFF795FF10BD88ED00E09A
:10B400000038024008380240103000240C38024056
:10B4100008ED00E00021016081807047C9B241EA77
:10B42000012141EA014101608180704712F0004F23
:10B430001FBF22F00042D21D22F00703102202BFDC
:10B44000D21C22F003030C221BB103EB020C8C452F
:10B4500001D901207047024401448360C0E9002102
:10B46000C91AD01888429CBF10600246F9D9002042
:10B470001060704730380A2801D201207047002040
:10B48000704710B50446204609F06EFA10BD000062
:10B490002DE9F0470027DFF8909000280CDA2349C7
:10B4A000D9F8002020F000400968024401EB410176
:10B4B000B2EB910F18D8012705460F3020F0030694
:10B4C0000FB9FDF786FE1A4CD4E90002011B891A58
:10B4D000B1420CD2044600680028F5D127B9FDF727
:10B4E0006BFE0020FDF7B4FE0020BDE8F08772B1CE
:10B4F000101921680160206000F10808C0F804609C
:10B50000D9F800103144C9F8001027B105E004F162
:10B5100008086660F4E7FDF74FFEA8F80050002029
:10B52000A8F802004046E0E7F4020020680200208C
:10B53000B88F00202DE9F04707468946904600263F
:10B54000284C294D0BE0207838B10422394604F10B
:10B550000A0008F0F3FB012835D00E34761C288849
:10B560008642F0DB2149384608F006FBD0B91F4877
:10B5700004220021001D08F007FC10B10020BDE8E6
:10B58000F0870026174C0AE0207830B106224946A1
:10B59000201D08F0D3FB01281AD00E34761C288811
:10B5A0008642F1DB404600F027F80028E7D00D493D
:10B5B000C0EBC00001EB40040E3C0422394604F10C
:10B5C0000A0008F0CBFB06224946201D08F0C6FB06
:10B5D00007480088E07007480078A07003202070BA
:10B5E0000120CCE7988D00205E0200205C8D0020B9
:10B5F0006002002058020020F0B5054601211648DF
:10B600000E46164A03E0037853B10E30491C1388E6
:10B610009942F8DD1248104B0488002001210DE00A
:10B62000067045700846F0BD5F78012F04D1DF78C1
:10B63000A74201D83C4608460E33491C1788B94238
:10B64000F2DD0028EFD0044AC0EBC00102EB41015B
:10B6500001F80E6D4D70F0BD988D00205E02002047
:10B66000600200202DE9F04781460F4600253D4C41
:10B670003D4E0BE0207838B10422494604F10A001F
:10B6800008F05CFB012815D00E346D1C3088854213
:10B69000F0DB3649484608F06FFADFF8C880334DD2
:10B6A00001284FF0040209D00021281D08F06CFB8E
:10B6B000E8BB1DE0207803284ED350E04946281D02
:10B6C00008F03CFB012806D104220021281D08F0C7
:10B6D0005BFB00B900273846FFF78EFF06003CD021
:10B6E000C6EBC60108EB41040E3C042249461DE0AE
:10B6F00000271C4C0BE0207838B10422291D04F1EE
:10B700000A0008F01BFB0128D4D00E347F1C3088BF
:10B710008742F0DB0020FFF76FFF06001DD0C6EB6D
:10B72000C60108EB41040E3C0422291D00E013E091
:10B7300004F10A0008F012FB06220D49201D08F052
:10B740000DFB0C480078A0700B480078E070304684
:10B7500000F036F9022020700020BDE8F087204676
:10B76000FBE70000988D00205E0200205C8D002029
:10B7700004E70108580200205902002070B50D4668
:10B78000064604220E4908F0D9FA012814D03046A2
:10B7900008F004FA01280FD029463046FFF762FF6F
:10B7A000040008D00422314604F10A0008F0C6FA69
:10B7B000012802D002E0002070BD6570012070BD3C
:10B7C00000E701082DE9F0470026DFF8D480DFF814
:10B7D000D490B246344F5DE0B9F80050691C89B28C
:10B7E000A9F800103A88914201D3A9F800A02F4986
:10B7F000C5EBC50001EB40042078C8B3E07820B168
:10B80000401E10F0FF00E07043D1607801280AD19B
:10B810000422274904F10A0008F090FA012806D012
:10B820006078012818D010F0FF0F02D031E084F8C2
:10B8300001A004221F4904F10A0008F07FFA012840
:10B8400017D02078032818D0A07800B3401E10F03D
:10B85000FF00A0701BD012E02078032817D0A0783A
:10B86000A8B1401E10F0FF00A07010D0022005E02B
:10B870000FE011480088E0700BE00420207098F879
:10B880000000E070681CBDE8F04700F099B884F84B
:10B8900000A0761C388886429EDBBDE8F087000059
:10B8A00059020020480200205E020020988D0020EE
:10B8B000608D002000E70108600200202DE9F041C2
:10B8C00006460025134C00F10E08134F0DE02078BA
:10B8D00048B1012807D0042204F10A01404608F0CB
:10B8E0002DFA012806D00E346D1C38888542EEDB17
:10B8F000BDE8F081062206F10801201D08F02EFAAD
:10B9000006480088E07006480078A0700320207088
:10B91000EEE70000988D00205E020020600200200B
:10B92000580200202DE9F04105460E462A20FFF777
:10B93000AFFD044605F1080106220F46001D08F080
:10B940000DFA06221C4904F10A0008F007FA4FF428
:10B95000C16020824FF4807060820820A08206209F
:10B96000A0750420E075268304F1240006223946E0
:10B97000064608F0F3F905F10E0104F12A0004224D
:10B98000054608F0EBF906220B4904F11A0008F00D
:10B99000E5F90422094904F1200008F0DFF9012249
:10B9A00031462846FFF7C6FD2046FDF701FC20463C
:10B9B000BDE8F04103F09ABF6C0200205C8D0020CE
:10B9C00070B505462A20FFF763FD04460622234989
:10B9D000001D08F0C3F90622214904F10A0008F00D
:10B9E000BDF94FF4C16020824FF48071618208205C
:10B9F000A0820620A0750420E07521830622184944
:10BA000004F11A0008F0AAF90422164904F12000F2
:10BA100008F0A4F94FF0060265B1002104F12400FA
:10BA200008F0AAF91049C5EBC50001EB400104225A
:10BA3000091F06E0094904F1240008F08FF90949BB
:10BA4000042204F12A0008F089F92046FDF7B0FB32
:10BA50002046BDE8704003F049BF000004E701083C
:10BA60006C0200205C8D0020988D002010B5002015
:10BA700004F08AF8012004F087F810BD00B589B001
:10BA800013480078012801D109B000BD01201049F8
:10BA9000087020220F4901A8FEF7B9F807208DF899
:10BAA000060008208DF807000B48039001A900202C
:10BAB00004F09CF809208DF806000A208DF8070094
:10BAC0000648039001A9012004F090F800BFDBE7CD
:10BAD00078000020A0DB0108ADA90108C1A9010878
:10BAE0007CB50020019000906A4601A919480068C1
:10BAF00001F0A9F9019C2F2020700220A0700020E5
:10BB00006070E07004211348006801F0DBF903F075
:10BB10000DFE054610480068A84219D00F4800687D
:10BB20004FF47A7100FB01F20D480168284601F0DC
:10BB300079FF01280CD140F60652294605480068D5
:10BB400001F02FF9034801680548006801F0CAFCBC
:10BB50007CBD00005000002080DD01085CDD010894
:10BB60005C00002010B50748006890F8200000B97C
:10BB700010BD0448406803224168022009F05EF9C4
:10BB800000BFF5E73884002001B50098C0F303300A
:10BB90000C2802DD0448006808BD0098C0F303309B
:10BBA000014951F82000F7E7C4010020F0B5014633
:10BBB0000124632509B9A01EF0BD002006465040AF
:10BBC0005E40304302D142F2222200236FF07F46D2
:10BBD00002EA06000026360646EA10264FF0020C5E
:10BBE0004CEA0060C1E90006034888606FF07F40BE
:10BBF000C8600020E0E700000A00016310B50446B9
:10BC000014B94FF0FF3010BD05A104F13800FEF764
:10BC100081F808B90020F6E74FF0FF30F3E70000A5
:10BC20004558540010B50446204610F0D2FD10BD12
:10BC300010B50446204610F0DFFD10BD10B50446D7
:10BC4000204610F023FE10BD10B50446204610F02B
:10BC500031FE10BD70B504460D462946204610F051
:10BC60007DFE70BD70B504460D462946204610F095
:10BC7000B7FE70BD10B5044604B91C4C40221C49E7
:10BC80001C4810F02AFD1A480FF0FEFB012809D0CD
:10BC900040221949174810F054FD40221449154814
:10BCA00010F01BFD207910F091FC38B1206810B124
:10BCB0002068804702E04FF0FF3010BD10F013FF06
:10BCC00038B1206810B12068804702E04FF0FF30A3
:10BCD000F3E710F0DFFE38B1206810B1206880472C
:10BCE00002E04FF0FF30E8E70020E6E78CE00108D3
:10BCF0007C85002094E001089CE0010810B510F05C
:10BD000075FC10BD10B50446204610F07DFC10BD3A
:10BD100010B50446204610F08FFC10BD10B5044647
:10BD2000204610F097FC10BD002070470048704777
:10BD30009CE0010870B504460D462946204610F0E7
:10BD400014FF70BD10B50446204610F01CFF10BD56
:10BD500010B50446204610F027FF10BD70B504460C
:10BD60000D462946204610F02FFF70BD10B5044641
:10BD7000204610F068FF10BD10B50446204610F0B4
:10BD800073FF10BD10B50446204610F07DFF10BDB6
:10BD900070B504460D462946204610F085FF70BD5B
:10BDA00010B540220649074810F097FC04480FF0F0
:10BDB0006BFB012801D1002010BD4FF0FF30FBE7E5
:10BDC0007C85002094E0010810B540220249034818
:10BDD00010F083FC004810BD7C85002094E0010831
:10BDE00010B50446204610F0E1FC10BD10B510F06F
:10BDF000E8FC10BD70B504460D462946204610F0FB
:10BE000039FC70BD014611B96FF001007047002088
:10BE1000087000BFFAE730B5024602B111B96FF001
:10BE2000010030BD91E8390082E839000020F8E7D0
:10BE3000FEB505460C4600200290461E284600F03E
:10BE400088F8012804D0022811D0032839D11EE037
:10BE50000020019002AA01A9284600F050F802989B
:10BE600020B1DDE9011003F0D5FA06462AE00020F2
:10BE7000019002AA01A9284600F056F8029828B1BC
:10BE80002246DDE9011003F0B1FA06461AE000206F
:10BE90000190009002AB6A4601A9284600F015F80F
:10BEA000019868B1029838B12346DDE90021029873
:10BEB00003F086FA064603E00026DDE90001884724
:10BEC00000E000BF00BF3046FEBD10B5044614B10F
:10BED00009B102B113B96FF0010010BD2078032839
:10BEE00005D00020086018601060401EF5E760680B
:10BEF0000860E0681860A06810600020EDE7034665
:10BF00000BB101B112B96FF0010070471878012828
:10BF100004D0002008601060401EF6E758680860F2
:10BF2000986810600020F0E703460BB101B112B928
:10BF30006FF0010070471878022804D000200860D4
:10BF40001060401EF6E7586808609868106000208E
:10BF5000F0E7014609B9002070470878FCE770B5A2
:10BF6000002400F069FD054601231022042100F0A1
:10BF70006DFD044600202070204670BD10B50446BB
:10BF800014B96FF0010010BD032020706160A26041
:10BF9000E3600020F7E7034613B96FF00100704734
:10BFA0000120187059609A600020F8E7034613B921
:10BFB0006FF0010070470220187059609A600020ED
:10BFC000F8E700000348006808B102487047002005
:10BFD000FCE70000AC010020F8B504460D4611480E
:10BFE0000068E0B900F050FA06460F4800900CB126
:10BFF000012000E0002001460C4B0DA2304600F06D
:10C0000002FA294620460CF0EFF81348134B144A65
:10C0100014490090144802F051FD0249086001489B
:10C02000F8BD0000AC010020C8DE010859E001089D
:10C03000656F5F61726D656E765F496E6974696187
:10C040006C69736528293A204E554C4C206D6F64FD
:10C05000696E666F00000000D9810108BD82010889
:10C0600045830108C9810108C18301080048704760
:10C070007CDB01082DE9F0418AB006460C464FF002
:10C08000000800270025002E5BD0002009900890B2
:10C09000079006900590049004A805A906AA09AB8C
:10C0A000CDE90032CDE9021007AB08AA26A130463F
:10C0B000FDF708FC0998B0F5006F03DB00200AB01B
:10C0C000BDE8F08101250AE0244850F8251008A8B1
:10C0D000FDF720FE08B92F4603E0681CC5B20D2D00
:10C0E000F2DB00BF0FB90020E9E7079810B107980D
:10C0F0001F2801DD0020E2E70698182801DD002056
:10C10000DDE705983C2801DD0020D8E70999206883
:10C1100061F30B002060206867F30F3020600799FF
:10C12000206861F3144020600699206861F359503B
:10C1300020600599206861F39F6020604FF001083E
:10C1400000BF4046BBE7000025732025642025641E
:10C150002025643A25643A2564000000A0000020F0
:10C16000024602EA0100884201D101207047002006
:10C17000FCE701460A460AB9002070471068FCE750
:10C18000FEB504460D4616466DB1200EC4F30741B8
:10C19000C4F30722E3B2CDE90021029002A23146A6
:10C1A0002846FDF759FAFEBD25642E25642E256428
:10C1B0002E25640001460A46121F1068704701468A
:10C1C00009B9002070470889FCE710B50146002234
:10C1D000002309B9002010BD088808B90020FAE73B
:10C1E000CA684888CC8800FB04231846F3E7014658
:10C1F00009B90120704708880A89904201D10120BD
:10C20000F8E70020F6E700002DE9FE4F05460E4650
:10C21000174698460024002002908246814601205D
:10C22000019000F009FC834601232022042100F044
:10C230000DFC0446002020806080A08000F024F9DE
:10C240008346354800900DB1012000E000200146F2
:10C25000324B33A2584600F0D6F800F015F9834669
:10C260002D4800900EB1012000E0002001462B4B2C
:10C2700032A2584600F0C7F8E58065812681276123
:10C28000C4F814800C98A0610D98E061012D02D1D2
:10C290000120019019E0022D02D10220019014E04A
:10C2A000042D03DC0420019060810EE00820019041
:10C2B000E81DC11700EB5171C1F3CF0161816089A5
:10C2C0004FF6FF7101EAC000608100F0B5FB8346C4
:10C2D00033462A46019900F0B9FBE060E06802901D
:10C2E0004FF0000912E0029809FB050A1FB1414610
:10C2F0005046B84706E000BFE1885046FDF7C1FC54
:10C3000000BF00BF09F101001FFA80F9B145EADB67
:10C310002046BDE8FE8F0000C8DE010884DE01086B
:10C32000656F5F64657175655F4E657728293A2092
:10C3300030206974656D5F73697A6500656F5F644D
:10C34000657175655F4E657728293A2030206361F5
:10C35000706163697479000070B504460025002699
:10C3600004B970BD208800B9FBE7E5686088E18802
:10C3700000FB0156E06918B13046E169884702E0E8
:10C3800000BF00BF00BF6088401C218990FBF1F214
:10C3900001FB120060802088401E208000BFE0E783
:10C3A0002DE9F04104460D460026002704B10DB9E1
:10C3B000BDE8F08120892188884200D1F8E7E6684D
:10C3C000A088E18800FB0167A06920B129463846B2
:10C3D000A269904704E02246294638460CF00CF941
:10C3E000A088401C218990FBF1F201FB1200A08083
:10C3F0002088401C208000BFDAE7014609B90020F0
:10C4000070470888FCE72DE9F84305460C461646B8
:10C410001F46DDF820803CB93B46324605212846C0
:10C42000CDF8008000F002F8BDE8F8832DE9FC4764
:10C4300082460C4615461E46DDF82880002700205F
:10C4400000900190019602F0F7FD814602F0FEFD9A
:10C4500007461FB902208DF8000004E0384602F0BC
:10C46000F9FE8DF8000043466A46294620460CF046
:10C47000CDF8BDE8FC8700000246024800EBC10091
:10C4800070470000E400002000487047E0000020F2
:10C49000F8B507460C4615461E462B462246012196
:10C4A00038460096FFF7C2FFF8BD0000014601B90B
:10C4B000024903480A68026070470000A0DE0108D4
:10C4C000E00000202DE9FC4180460E461446002580
:10C4D000002000900190019402F0AEFD074602F0AA
:10C4E000B5FD05461DB902208DF8000004E0284680
:10C4F00002F0B0FE8DF8000000236A46314618466F
:10C500000CF084F8BDE8FC812DE9F04104460D46AD
:10C5100016464FF0FF3714B97800BDE8F081606827
:10C5200028B92068FFF74BFE288000270FE031462E
:10C53000606802F0CFFC40B92068FFF740FE288019
:10C54000606802F0B9FC002701E06FF0020738468E
:10C55000E3E72DE9F04104460D4616464FF0FF375C
:10C5600004B11DB96FF00100BDE8F081606850B9F9
:10C570002068FFF72AFE2860286808B1002717E026
:10C580006FF0040714E03146606802F0A3FC68B95C
:10C590002068FFF71AFE2860606802F08DFC2868AA
:10C5A00008B1002704E06FF0040701E06FF0020714
:10C5B0003846D9E72DE9FC5F05460E4617469846F2
:10C5C000DDE90C9A002400F037FA834601230822A3
:10C5D000042100F03BFA0446FFF756FF8346144857
:10C5E00000900DB1012000E000200146114B12A285
:10C5F0005846FFF708FFFFF747FF83460C480090B7
:10C600000EB1012000E0002001460A4B11A258465D
:10C61000FFF7F9FE43463A4631462846CDE9009AEF
:10C62000FFF7F2FD20600E9860602046BDE8FC9F99
:10C63000C8DE01088CDE0108656F5F6669666F5FA2
:10C640004E657728293A2030206974656D5F7369DB
:10C650007A650000656F5F6669666F5F4E65772873
:10C66000293A2030206361706163697479000000A9
:10C670002DE9F04104460E4615464FF0FF3714B938
:10C680007800BDE8F081606860B92068FFF7AFFD11
:10C6900028B931462068FFF783FE002719E06FF0C4
:10C6A000050716E02946606802F014FC78B9206896
:10C6B000FFF79DFD28B931462068FFF771FE00277E
:10C6C00001E06FF00507606802F0F6FB01E06FF033
:10C6D00002073846D5E770B504460D464FF0FF36E1
:10C6E0000CB9700070BD606820B92068FFF734FE97
:10C6F00000260EE02946606802F0ECFB38B920689D
:10C70000FFF72AFE606802F0D7FB002601E06FF019
:10C7100002063046E6E72DE9F04104460D4616468E
:10C720004FF0FF3724B900202880801EBDE8F0813B
:10C73000606828B92068FFF760FE288000270FE0B6
:10C740003146606802F0C6FB40B92068FFF755FE2D
:10C750002880606802F0B0FB002701E06FF002075C
:10C760003846E3E770B504460D46002604B105B926
:10C7700070BD2946204600F04AF800B9F8E7204687
:10C780000BF09BFF064676B1294620460CF023F8B5
:10C79000294620460CF000F82089401E208120897F
:10C7A00008B90020606000BFE2E72DE9F0410446CF
:10C7B0000D4600262F46B04604B115B90020BDE84D
:10C7C000F08120460BF079FF06460FE03146204607
:10C7D0000BF076FF8046A28939464046FDF7A6F960
:10C7E00000B905E030460BF074FF0646002EEDD18F
:10C7F00000BF3046E3E7014609B901207047488988
:10C800000A89904201D10120F8E70020F6E770B5CF
:10C8100006460C46002506B10CB9002070BD304616
:10C820000BF04BFF054607E0AC4201D10120F5E7D4
:10C8300028460BF04EFF0546002DF5D10020EDE710
:10C840002DE9FC5F06460D4617469846DDF830A0F8
:10C850000024A14600F0F0F883460123242204219D
:10C8600000F0F4F804460020206060602081FFF7AB
:10C870000BFE83462A4800900EB1012000E0002004
:10C880000146284B28A25846FFF7BDFDFFF7FCFDE7
:10C890008346234800900DB1012000E000200146AE
:10C8A000204B28A25846FFF7AEFD6581A68127617F
:10C8B000C4F81480C4F818A00D98E06160894FF6A0
:10C8C000FF71884217D100F0B7F8009000F056FAD7
:10C8D00008B9012000E000208346FFF7D5FD019054
:10C8E0001F48104B1F4A594600900198FFF78BFDD7
:10C8F0000020206211E04FF000090CE020460BF010
:10C90000EEFE83465946206A0BF05DFF206209F176
:10C9100001001FFA80F9A945F0DB2046BDE8FC9F25
:10C92000C8DE010893DE0108656F5F6C6973745F90
:10C930004E657728293A2030206974656D5F7369E8
:10C940007A650000656F5F6C6973745F4E65772868
:10C95000293A2030206361706163697479000000B6
:10C96000D8DE01083CE8010870B504460D460026F3
:10C9700004B105B970BD60892189884200D1F9E709
:10C9800020460BF0F5FE06467EB12A46314620468B
:10C990000BF070FE208900B96660314620680BF00C
:10C9A00012FF20602089401C208100BFE2E70000C8
:10C9B000F8B506460C4604B9F8BD0E48007958B1E2
:10C9C000FFF762FD05460C480C4B0DA203210090B9
:10C9D0002846FFF72BFDEFE72046FFF7EBFB054965
:10C9E000C96C081A0349C86408464169204688474B
:10C9F00000BFE1E714010020D8DE010820DF0108B4
:10CA0000656F5F6D656D706F6F6C5F44656C6574AD
:10CA10006528293A206F6E6C7920772F20656F5F2B
:10CA20006D656D706F6F6C5F616C6C6F635F647967
:10CA30006E616D696300000003480078012801D130
:10CA4000014870470020FCE7140100202DE9F04F59
:10CA500087B006460F4614461D464FF000080020DA
:10CA6000069081464F4890F804A004B1E5B9002033
:10CA70000290039004900590022002900020ADF8EF
:10CA80000E008DF80C008DF80D00FFF7FDFC8346BD
:10CA900002A8454B45A2032100905846FFF7C6FC6B
:10CAA000002007B0BDE8F08FDEB9002002900390AF
:10CAB00004900590032002900020ADF80E008DF840
:10CAC0000C008DF80D00FFF7DFFC834602A8364B03
:10CAD00040A2012100905846FFF7A8FC4FF0000A41
:10CAE00000BFBAF1000F06D0BAF1010F25D0BAF19C
:10CAF000020F2AD10AE005FB04F02A4AD1688847D0
:10CB000080464046FFF756FB81461EE096F8380007
:10CB1000384050B905FB04F0224AD1688847804666
:10CB20004046FFF747FB814606E006AB2A46214612
:10CB300038460BF08DFE804607E006AB2A462146BC
:10CB400038460BF085FE804600BF00BFB8F1000FED
:10CB50001CD10020029003900490059004200290C4
:10CB600005FB04F080B2ADF80E0000208DF80C003B
:10CB70008DF80D00FFF788FC834602A80A4B22A21D
:10CB8000052100905846FFF751FC00BF0548006D95
:10CB90000699014403480165C06C48440149C864D2
:10CBA00040467EE71401002020DF0108656F5F6DBD
:10CBB000656D706F6F6C5F4765744D656D6F7279F1
:10CBC00028292069732061736B65642030206279A5
:10CBD00074657300656F5F6D656D706F6F6C5F4737
:10CBE00065744D656D6F72792829206E6F742069A8
:10CBF0006E697474656420757365732064796E2042
:10CC0000616C6C6F63000000656F5F6D656D706FC8
:10CC10006F6C5F4765744D656D6F72792829206E62
:10CC20006F206D6F7265206D656D6F727900000009
:10CC300038B5054640480078012801D13E4838BD46
:10CC400001203D4908700020C86400213A48016570
:10CC500005B93A4D3848D5E90012C0E901122878E3
:10CC600020B1012811D002284FD10FE0686858B1D7
:10CC7000686800683049C860686841682E4801618A
:10CC8000686881682C48416140E000BF686878B3FB
:10CC9000294C1834202220466968FCF7B8FF206828
:10CCA00038B194F8200040F0010084F82000002101
:10CCB0006184A06838B194F8200040F0020084F844
:10CCC00020000021A184206938B194F8200040F0B0
:10CCD000040084F820000021E184A06938B194F8B0
:10CCE000200040F0080084F82000002121850BE09E
:10CCF000FFE7FFF7C9FB04461148124B12A20521BA
:10CD000000902046FFF792FB00E000BF00BF0A48FA
:10CD1000C06810B916480849C8600748006910B9CA
:10CD20001449054801610448406910B91249024894
:10CD30004161014883E700001401002018DF010869
:10CD4000C8DE010820DF0108656F5F6D656D706FDB
:10CD50006F6C5F496E697469616C69736528293A03
:10CD600020706F6F6C73206E6565646564000000F1
:10CD70000DAC010827AC01081BAC010801460148B5
:10CD8000007970471401002003460BB101B112B9BC
:10CD90006FF00100704718680860988810800020C4
:10CDA000F8E7034613B96FF00100704719609A80E5
:10CDB0000020FAE7024602B111B96FF00100704796
:10CDC000508908800020FAE730B50446039D04B17D
:10CDD00015B96FF0010030BDE079012802D04FF0A5
:10CDE000FF30F8E72160A2800020A07123816381D9
:10CDF000A381E081256100BFEDE770B50546002401
:10CE0000FFF71AFE0646012314220421FFF71EFE37
:10CE1000044600202060A080A07120816581A0814F
:10CE2000E08105B907E0FFF707FE064601232A4621
:10CE30001946FFF70BFE20610DB9012000E000202C
:10CE4000E071204670BD03460BB101B112B96FF01D
:10CE5000010070471889D881186908601889108006
:10CE60000020F6E72DE9F04104460E4615464FF046
:10CE7000FF3704B11EB96FF00100BDE8F081E07921
:10CE800010B14FF0FF30F8E76089A8420ADB2A466C
:10CE900031462069FCF776FE2581A5810020E081DE
:10CEA00000270DE0628931462069FCF76BFE60893E
:10CEB00020816089A0810020E0810120A0710027ED
:10CEC0003846DAE702464FF0FF330AB95800704798
:10CED0005089884205DB118191810020D081002397
:10CEE00008E050891081508990810020D081012074
:10CEF000907100231846EAE701460A4600201060B8
:10CF00009080907110819081D08170472DE9F0411F
:10CF100005460E462C46374638682060B888A08003
:10CF200060893989884201DC012000E00020A0717D
:10CF3000A07908B9388900E0608920812089A08122
:10CF40000020E08161892069FCF79BFE2289396914
:10CF50002069FCF717FE0020BDE8F0812DE9F041C3
:10CF600004460E46254600202860A880A871288126
:10CF7000A881E8816E8106B907E0FFF75DFD0746ED
:10CF8000B3B201221146FFF761FD28610EB90120FD
:10CF900000E00020E8710020BDE8F081014609B9F9
:10CFA00000207047C868FCE7F8B504460025FFF785
:10CFB0006BFA06460D4800900CB1012000E00020FD
:10CFC00001460B4B0BA23046FFF71DFAFFF734FD6D
:10CFD0000646012310220421FFF738FD05462146AD
:10CFE00028460BF02BFD2846F8BD0000C8DE0108DE
:10CFF0009ADE0108656F5F736D5F4E657728293A89
:10D00000204E554C4C206366670000002DE9F04728
:10D0100004460D464FF0000900260027B04614B91B
:10D02000B01EBDE8F08720688078A84202DC4FF08F
:10D03000FF30F6E7207910B9204600F049F8617911
:10D04000A06800EBC1090120A840D9F800100140F8
:10D0500011B96FF00400E4E7A5712068C068D9F841
:10D060000410495D00EBC10820688068617900EB1D
:10D0700001162068806898F8011000EB0117BE4285
:10D0800004D0F06810B12046F1688847D8F8040051
:10D0900018B12046D8F80410884798F8010060714C
:10D0A000BE4204D0B86810B12046B9688847002055
:10D0B000B7E710B504462068C07860710020207181
:10D0C0002068406918B1206841692046884710BD32
:10D0D00070B5044600250CB9A81E70BD207970B942
:10D0E00001202071FF20A071206880682168C97824
:10D0F00000EB0115A86810B12046A96888470020F8
:10D10000EBE770B50024FFF797FC054601231822D2
:10D110000421FFF79BFC0446FEF721FFA060FEF709
:10D120001EFFE060A068FEF76DFEE068FEF76AFE95
:10D13000FF202070002060806060207403206074F5
:10D140000020A0746061204670BD70B50546284679
:10D15000FFF70FF804460CB9002070BD6068FCE7CB
:10D1600070B505462846FFF704F804460CB9FF20C1
:10D1700070BD2078FCE72DE9F05F81460E4617462A
:10D180001D46DDE90BABDDF828804846FEF7F1FFD0
:10D1900004461CB96FF00100BDE8F09F267067805F
:10D1A00000206060207484F811A084F812B025B1CA
:10D1B0002946A068FEF72FFE02E0A068FEF722FED7
:10D1C000B8F1000F04D04146E068FEF724FE02E00B
:10D1D000E068FEF717FE0020DEE72DE9F041044687
:10D1E0000D4616464FF0FF3714B97800BDE8F081C0
:10D1F00015B94FF0FF30F9E701F06EFD8046324679
:10D20000294601F073FD07463846EFE72DE9F8435C
:10D2100004460E46174600200090451E14B9801E95
:10D22000BDE8F8832046FFF790FF2068407C012886
:10D2300001D1801EF4E72068807C01280BD101F029
:10D240004BFD80463A46214601F060FD054615B18A
:10D250006FF00200E4E76946E2686068FFF779F979
:10D26000054645B930460099FFF750FE034960680E
:10D270000968FFF730FA2846D2E7000070DD0108A0
:10D280002DE9FE4F05460F4690461E46DDE90C9AF5
:10D290000024FFF7D1FB8346012330220421FFF74E
:10D2A000D5FB0446FFF7F0F8834600200090A8194C
:10D2B00008B1012000E000200146214B21A2584680
:10D2C000FFF7A1F8FFF71DFF20600DB900200AE06D
:10D2D000284829493B46294ACDE9010800912946B9
:10D2E0001420FFF767F960600EB900200AE02148BA
:10D2F00021494B46214ACDE9010A009131461420CB
:10D30000FFF758F9A0601E480068E06000F068F977
:10D3100020611C4B0FCB18340FC4283CFEF71FFEB6
:10D32000A06201F03BFB029001F042FB83465B46AA
:10D3300022461549A06AFEF721FE2046BDE8FE8F71
:10D3400038E00108656F5F736F636B6574647467C1
:10D350005F4E65772829206E6565647320617420AF
:10D360006C65617374206F6E6520706B74207175CD
:10D3700065756500F9CE00080DCF00085DCF000887
:10D3800070DD010828E001085D8B01082DE9FE4FE2
:10D390000446894615461E46DDF830A04FF0FF3B97
:10D3A0001CB96FF00100BDE8FE8F012D01D0032DE7
:10D3B0000CD1A06850B9FFF767F807460020304B42
:10D3C00030A2052100903846FFF730F8022D01D039
:10D3D000032D0CD1606850B9FFF756F807460020BE
:10D3E000274B33A2052100903846FFF71FF86068ED
:10D3F00060B9012E0AD1FFF747F807460020204BFD
:10D40000364A052100903846FFF710F8BAF1000FB0
:10D4100008D0DAE90213DAE90020C4E90813C4E904
:10D42000062004E02E4B0FCB04F118070FC720682D
:10D43000007C10BB0E988DE861004A460021204612
:10D440000D9BFFF798FE01F047FC0746214601F0CF
:10D4500035FC8346BBF1000F0FD12420005D01286D
:10D460000BD10122216AA06ACDE900120290D4E911
:10D4700006733A46206900F01BF9584693E700000E
:10D4800038E00108656F5F736F636B657464746780
:10D490005F4F70656E2829206E6565647320616E2C
:10D4A000206F757470757420717565756500000066
:10D4B000656F5F736F636B65746474675F4F7065EE
:10D4C0006E2829206E6565647320616E20696E7018
:10D4D00075742071756575650000000064E90108C8
:10D4E00028E001082DE9FE4304460E464FF0FF35C3
:10D4F00014B96800BDE8FE832046FFF726FE10B988
:10D500004FF0FF30F6E72068407C022801D1C01EB2
:10D51000F0E73146D4E90202FFF7AAF805460DB15B
:10D520002846E7E71748D4E90632D0E90010594009
:10D53000504001430AD1206A40B901F0CDFB0746B3
:10D540001022214601F0A6FB054618E02420005DCC
:10D55000A0B9206900F032F8012801D1851E0EE043
:10D560000022216AA06ACDE900120290D4E9067374
:10D570003A46206900F09CF8054600E00025284660
:10D58000B8E7000078DD010870B504460D464FF09D
:10D59000FF3604B115B96FF0010070BD2068407C02
:10D5A000012803D100202880401EF6E72946E268C2
:10D5B0006068FFF7B0F806463046EEE70146002007
:10D5C000002211B10B7E03F003020AB9002304E02C
:10D5D000012A01D1012300E0022318467047000010
:10D5E000F8B500240025661EFFF726FA074601233A
:10D5F00030220421FFF72AFA04460021204600F0D9
:10D60000F5F801F027FF054655B9FEF73DFF07463F
:10D610000D480E4B0EA2042100903846FEF706FF7F
:10D620002146284601F020FF064656B1FEF72CFFA2
:10D6300007460548054B12A2042100903846FEF724
:10D64000F5FE2046F8BD0000E8DE010830DF0108E5
:10D65000656F5F74696D65725F4E657728293A2042
:10D66000656F765F74696D65726D616E5F47657435
:10D6700048616E646C652829206661696C730000DE
:10D68000656F5F74696D65725F4E657728293A2012
:10D69000656F765F74696D65726D616E5F4F6E4E1A
:10D6A000657754696D65722829206661696C73001D
:10D6B0002DE9F84F044615461E46DDE90B890A9F01
:10D6C0006FF0050B4FF0000A01F0C4FE8246BAF17C
:10D6D000000F02D0B9F1000F03D16FF00100BDE8D7
:10D6E000F88F294903C968407140084303D017B92E
:10D6F0004FF0FF30F3E725480168504601F0DAFEAD
:10D7000010F1030F01D15846E9E71F4903C96840EA
:10D710007140084313D0B8F1000F10D101F08CFC18
:10D72000009001F09BFCEB1946F10002C01A9141F8
:10D7300005D3504601F0A6FE4FF0FF30CFE720465C
:10D74000FFF73CFF01281AD0207E20F0030020764E
:10D75000B8F1000F01D0012000E00020217E60F32D
:10D7600082012176C4E90056A76099E80F001C34B5
:10D770000FC42C3C2146504601F05EFE83465046C5
:10D7800001F080FE5846AAE778DD010870DD010847
:10D7900070B504466FF00506002501F05BFE0546F6
:10D7A00005B114B96FF0010070BD0F48016828463B
:10D7B00001F080FE10F1030F01D13046F4E720465E
:10D7C000FFF7FCFE012805D12146284601F064FE42
:10D7D000064604E00021204600F038F800262846DE
:10D7E00001F050FE3046DFE770DD010810B509B9E1
:10D7F000002304E0012901D1012300E002231A469D
:10D8000008B3114B18CBC0E9003400238360C36018
:10D81000037E62F301030376037E23F004030376A1
:10D82000037E23F0080308330376037E23F0F0031E
:10D83000037600230361002404614461C361036231
:10D8400043628362037710BD78DD010810B509B922
:10D85000002304E0012901D1012300E002231A463C
:10D86000E0B1037E62F301030376037E23F0040339
:10D870000376037E23F0080308330376037E23F048
:10D88000F0030376064B18CBC0E900340023836015
:10D89000C360C361036243628362037710BD00000B
:10D8A00078DD01080348406808B900207047014846
:10D8B000FCE7000074010020014609B90020704710
:10D8C00001484068FBE700007401002030B587B0D4
:10D8D00004462A48406810B1284807B030BD04B952
:10D8E000274CFEF7D1FD054626480090207908B167
:10D8F000012000E000200146234B24A22846FEF729
:10D9000082FDFEF7C1FD05461E480090608808B103
:10D91000012000E0002001461B4B27A22846FEF70D
:10D9200072FDFEF7B1FD054616480090207808B15B
:10D93000012000E000200146134B2AA22846FEF7F2
:10D9400062FD32A033490022334B1B68CDE902321D
:10D95000CDE9041020793149CDE9001062882178A1
:10D960000023042000F06CFC04494860084641682C
:10D970002B4801F023F80148AFE7000074010020B4
:10D9800088DF0108C8DE01088EDF0108656F6D5F62
:10D9900063616C6C6261636B6D616E5F496E69742B
:10D9A00069616C69736528293A2030207175657545
:10D9B0006573697A65000000656F6D5F63616C6C0B
:10D9C0006261636B6D616E5F496E697469616C69F8
:10D9D000736528293A203020737461636B73697A08
:10D9E00065000000656F6D5F63616C6C6261636B05
:10D9F0006D616E5F496E697469616C697365282930
:10DA00002030207072696F726974790063626B6D87
:10DA1000616E00004BD1010870DD01089D8B01088B
:10DA2000718B010870B504460D4616461148007802
:10DA300018B111480068844211D00F4804600020DA
:10DA40000C490870324621462846FFF7C6FB18B934
:10DA500001200849087002E00020064908700548C6
:10DA60000078012802D1002003F026F80148007850
:10DA700070BD00001C0000202000002010B50446EE
:10DA800014B96FF0010010BD0249086801F0F2F806
:10DA9000F9E70000388400202DE9F041ACB00446DD
:10DAA0000F4615461E469A48006818B198482CB093
:10DAB000BDE8F081142107A8FCF705F9142207A995
:10DAC000A868FEF75DFB07AB92A280210CA8FBF7CC
:10DAD000C3FDFEF7D9FC8046974A0CA9FEF7F2FC7D
