:020000040801F1
:1080000000F80020B9830108C1830108C383010877
:10801000C5830108C7830108C98301080000000067
:10802000000000000000000000000000F1820108D4
:10803000CD8301080000000069830108A5830108C1
:108040006DA90108D3830108D3830108D3830108F4
:10805000D3830108D3830108D3830108D3830108A4
:10806000D3830108D3830108D3830108D383010894
:10807000D3830108D3830108D3830108D383010884
:10808000D3830108D3830108D3830108739A0108BD
:10809000F1990108D38301086D9A0108D38301087F
:1080A000D383010885A60108D3830108D38301087F
:1080B0009DA60108B1A60108C9A60108D38301083D
:1080C000D3830108D3830108D383010869A401087D
:1080D0006FA40108D3830108D3830108D383010867
:1080E000D3830108D3830108D38301080000000073
:1080F0000000000000000000000000000000000080
:108100000000000000000000E1A6010875A40108BD
:10811000D3830108D3830108F9A6010811A7010838
:10812000D3830108D3830108D3830108D3830108D3
:10813000D3830108599D0108D3830108F79A0108E8
:10814000799A0108D3830108F19A0108D3830108C1
:1081500000F002F800F088F80AA090E8000C8244D1
:108160008344AAF10107DA4501D100F07DF8AFF2AE
:10817000090EBAE80F0013F0010F18BFFB1A43F005
:1081800001031847F4010100140201000A444FF0F2
:10819000000C10F8013B13F0070408BF10F8014B66
:1081A0001D1108BF10F8015B641E05D010F8016BAB
:1081B000641E01F8016BF9D113F0080F1EBF10F80F
:1081C000014BAD1C0C1B09D16D1E58BF01F801CB32
:1081D000FAD505E014F8016B01F8016B6D1EF9D5B5
:1081E0009142D6D37047642901F0BC80782901F010
:1081F000F580732901F045830020704710B510BD4C
:1082000002020202DE374D020080010800800200F7
:1082100000000020C0FF000000000000000000007F
:1082200001454F4D654170706C4261736963000098
:10823000000100000000000000000000000000003D
:108240000023002400250026103A28BF78C1FBD85F
:10825000520728BF30C148BF0B6070471FB59DE86B
:10826000030001F0FDF91FBD01F03FFB1146FFF7D0
:10827000F5FF08F0BFFC01F05DFB03B4FFF7BEFFA4
:1082800003BC01F08BFB000080F309887047EFF31B
:1082900009807047684680F3098804480078C00761
:1082A00014BF0220032080F3148870475C03002071
:1082B000DFF818C0EFF305831B0618BF6047EFF324
:1082C0001483DB0708BF604700DF704739290208C5
:1082D000DFF818C0EFF305831B0618BF6047EFF304
:1082E0001483DB0708BF604700DF7047B12902082D
:1082F000EFF30980816911F8021CF1B990E80F10C1
:10830000E047EFF3098C8CE80700144B93E8060074
:1083100091420FD039B12CE9F00FC1F83CC00CB438
:108320000BF028FE0CBC1A60D2F83CC0BCE8F00F81
:108330008CF309886FF0020E704710B5084A126876
:10834000914209D8074C54F8214090E80F10A047FB
:10835000EFF3098C8CE80F0010BD000070020020C4
:10836000EC990108EC9901080BF00AFD0C4B93E81D
:108370000600914210D0EFF3098C2CE9F00FC1F800
:108380003CC00CB40BF0F6FD0CBC1A60D2F83CC03B
:10839000BCE8F00F8CF309886FF0020E7047000004
:1083A000700200200BF00AFEE0E7000009F08CF9F3
:1083B0000BF004FEDAE7000009488047094800474F
:1083C000FEE7FEE7FEE7FEE7FEE7FEE7FEE7FEE785
:1083D000FEE7FEE704480549054A064B70470000E2
:1083E00021A60108518101080028002000F8002082
:1083F00000C8002000C8002073B56D46002914BFD6
:10840000012400241348007868B100F084F9214663
:10841000284602F05FFCC4B200F087F9012C02BFCD
:10842000002002B070BD4FF0FF3002B070BD0020E0
:108430007047002070470020704790F820100C29EA
:1084400084BF4FF0FF30704710B500F0E8FC00200B
:1084500010BD00008C010020B94A126F02B1104714
:10846000FEE770B50C46B8B10546FFF7E0FF0646DB
:10847000284600F093FC0644284600F02BFA0644F8
:10848000284600F06EFA0644284600F069FC3044A5
:10849000002C18BF206070BDE120A94AA9A1126F6D
:1084A00012B19047002070BDFEE710B5A44C606F7C
:1084B000002808BF10BD80470028AC49086018BFDD
:1084C00010BDE020226FAAA112B1BDE810401047F4
:1084D000FEE770B5A54D416F81B1816F984C0029C1
:1084E0001FBFC16F0029D0F8800000280DD0606F39
:1084F000002818D08047286080B114E000218167EF
:10850000C167C0F8801029600DE0226FE320A8A1A8
:108510001AB190474FF0FF3070BDFEE7226FE020A8
:1085200093A112B19047002070BDFEE710B5D8218D
:10853000834801F04EF88D490020086010BD2DE9F8
:10854000F0417F4C8846050007D02A6F22672878C3
:1085500050B1E420A1A132B12EE0226FE120ACA104
:10856000002A29D1FEE7FEE7B2480078012804D0AE
:108570002846FFF762FF20B11AE0E020AEA1DAB989
:10858000FEE7D8216E4801F024F8784F00262846EF
:108590003E6000F020FC58B9284600F0A1F938B937
:1085A000284600F0E4F918B9284600F0DFFB40B196
:1085B000AB49226FE3205AB190474FF0FF30BDE83E
:1085C000F08141462846FFF734FF002876D100E0CD
:1085D000FEE72846FFF72BFF20F0030000EB080121
:1085E0008846284600F0DCFB002867D1284600F0CA
:1085F000D5FB20F0030080444146284600F06CF98A
:1086000000285BD1284600F065F920F00300804483
:108610004146284600F0A7F900284FD1284600F02F
:10862000A0F920F0030000EB0801284600F09AFBB7
:10863000002843D1284600F093FBD8222946404821
:1086400000F06BFF3E4D2846FFF7F5FE002835D1C0
:10865000686F60B1A96F00291FBFE96F0029D5F8C5
:108660008010002909D08047386068B111E0AE67FA
:10867000EE67C5F880603E600BE0226FE3204CA1FE
:108680000AB190471AE0FEE7226FE02038A12AB134
:108690009047284600F086FB80B900E0FEE72846B8
:1086A00000F01CF950B9284600F05FF930B92846AF
:1086B00000F05AFB002808BFBDE8F0814FF0FF3002
:1086C000BDE8F08170B504000D4616D0FFF7AFFE8F
:1086D0000646204600F062FB0644204600F0FAF809
:1086E0000644204600F03DF90644204600F038FBE1
:1086F0003044002D18BF286070BDE120104A11A140
:10870000126F12B19047002070BDFEE717E70020FE
:1087100070470020704715480068002808BF704760
:10872000074AD2F88010926F10471048006800285E
:1087300008BF70470249C96F0847006870470000CA
:10874000C80A00206970616C5F626173655F6D6566
:108750006D6F72795F67657473697A652829206E19
:1087600065656473206120636667000088010020EE
:108770006970616C5F626173655F6869645F74688A
:10878000726561647361666574795F696E69742886
:10879000293A2063616E6E6F7420616C6C6F636147
:1087A000746520746865206D75746578000000003C
:1087B0006970616C5F626173655F696E697469613C
:1087C0006C6973652829206E65656473206F736119
:1087D0006C2066756E6374696F6E73006970616C8E
:1087E0005F626173655F696E697469616C69736505
:1087F00028293A20756E737570706F7274656420E5
:108800007463702F697020737461636B00000000E3
:108810006970616C5F626173655F696E69746961DB
:108820006C69736528293A206D697373696E6720D6
:10883000636667008C0100206970616C5F62617320
:10884000655F696E697469616C69736528293A208E
:10885000616C72656164792073746172746564001F
:10886000C480020831B524486C46007838B12348EA
:1088700090F82C0018B19DF80000EF2802D04FF0BE
:10888000FF3038BDFFF747FF204607F01FFD0028E7
:108890000CBF4FF0FF340024FFF747FF204638BDE0
:1088A00031B515486C46007888B1144890F82C0012
:1088B00068B1FFF730FF204607F030FD00280CBFFD
:1088C0004FF0FF340024FFF730FF204638BD4FF053
:1088D000FF3038BD002070470020704700207047EF
:1088E00090F82D10062984BF4FF0FF30704710B567
:1088F00000F015FB002010BD8C010020C80A0020EC
:10890000224810B5406848B12148017801290CD0AF
:108910000121017007F066FF002010BD1DA1E120BC
:10892000FFF79AFD4FF0FF3010BD24A1E020FFF7C4
:1089300093FD4FF0FF3010BD10B5FFF7ECFE08F0CF
:1089400077F9BDE81040FFF7F0BE10B5FFF7E3FE82
:108950000EF080FBBDE81040FFF7E7BE0B48406813
:108960007047002070470020704700207047018941
:10897000B1F5C05F84BF4FF0FF30704710B50021E4
:10898000034A117000F023FB002010BDC80A00202C
:108990008C0100206970616C5F7379735F7374611F
:1089A000727428293A206D697373696E6720636F4A
:1089B0006E66696775726174696F6E006970616C6B
:1089C0005F7379735F737461727428293A206361ED
:1089D0006E6E6F7420737461727420616761696E6A
:1089E0000000000008B1062801D900207047F0B54A
:1089F00015460A46E64900EB400085B001EBC00091
:108A0000A0F1180450F8080C0A9F1E4698B11046B1
:108A1000FFF793FE0346E06820B198420BD120890E
:108A2000A84208D10396ADF808700095D4E904C0B7
:108A300002AA2146E04705B00020F0BD4107090E1B
:108A4000C0F3C00241EA0211C0F3001210B541EABE
:108A5000C201C0F3401041EA8004CE4800780028EB
:108A600008BF10BDFFF757FECB4A012120460EF08C
:108A700015FBC0B1C64900EB400201EBC20404F88B
:108A8000180C002024F8160C44F8140C24F8100CD0
:108A900044F80C0C44F8080C44F8040CFFF745FEAD
:108AA000A4F1180010BDFFF740FE002010BD70B506
:108AB00004001CBF2078002821D0FFF72CFE60881E
:108AC000002518B120780EF0CBFA658020780EF0E2
:108AD00047FB06462078AE4900EB400001EBC000A2
:108AE00000F8185C2570658065602581E56025616A
:108AF0006561FFF71AFE002E1CBF002070BD4FF00D
:108B0000FF3070BD70B515460E4604001DBF2078BD
:108B10000028002D4FF0FF3008BF70BDFFF7FBFDB0
:108B2000608820B120780EF09BFA00206080984980
:108B3000002000BF00EB400201EBC2025288AA42B3
:108B400010D0401CC0B20628F4D3207829460EF07D
:108B5000C9FA10F0FF0F05D065806660FFF7E5FDEC
:108B6000002070BDFFF7E1FD4FF0FF3070BD2DE933
:108B7000F04790460F46040019BF207800284FF0B8
:108B8000FF30BDE8F087FFF7C6FD608850BB207856
:108B900000264546002818BF002D2DD0FFF7BBFD4D
:108BA00060884FF0000920B120780EF059FAA4F83F
:108BB00002907749002000BF00EB400201EBC202A7
:108BC0005288AA4216D0401CC0B20628F4D320789E
:108BD00029460EF087FA10F0FF0F0BD06580666013
:108BE000FFF7A3FDA4F80880E760FFF79EFD0020D3
:108BF000BDE8F087FFF799FDFFF797FD4FF0FF30D5
:108C0000BDE8F08710B5040019BF207800284FF0A8
:108C1000FF3010BDFFF77FFD00202081E060FFF7EF
:108C200084FD002010BD2DE9FF4182B098460C461E
:108C3000050004AF1CBF2878002828D068880028C9
:108C400018BF002C23D0606800281CBF2088002893
:108C50001DD0FFF760FD20880EF018FA06001BD02B
:108C60002288616800F014FC208800902878334640
:108C7000424639460EF08CFA00280CBF4FF0FF3404
:108C80000024FFF752FD06B02046BDE8F08106B093
:108C90004FF0FF30BDE8F081FFF747FD06B04FF021
:108CA000FF30BDE8F0812DE9F04383B00C460500AC
:108CB0001CBF688800283CD0E86800281CBF2889B1
:108CC000002836D0FFF727FDE86801902878B5F82E
:108CD00008800DF104094FF0FF3600281CBF68889A
:108CE000002820D0002C1FBF6068002820880028A2
:108CF00019D0FFF710FD20880EF0C8F9070010D03A
:108D00002288616800F0C4FB2088009028783B46E8
:108D1000424649460EF03CFA00280CBF4FF0FF36A1
:108D20000026FFF702FDFFF700FD03B03046BDE867
:108D3000F08303B04FF0FF30BDE8F083002812BF8E
:108D400000294FF0FF30704770B516460D460446B7
:108D5000FFF7E1FCC4E90456FFF7E7FC002070BD13
:108D600000207047002070470020704710B504466F
:108D700090F83000062884BF4FF0FF3010BD9021DE
:108D8000034800F026FC204600F080F9002010BDCA
:108D9000A00B00208C010020E5890108002070470D
:108DA0000020704710B5D0F88C1000291CBFD0F8F7
:108DB0009010002908D0D0F8941000291FBFD0F8D7
:108DC00098000028002010BD05A1E120FFF744FB1A
:108DD0004FF0FF3010BD10B500F092F8002010BD2C
:108DE0006970616C5F6574685F6869645F696E690A
:108DF0007428293A206D697373696E6720657468F9
:108E00002066756E6374696F6E730000A54890F8F4
:108E10002200012818BF7047002002F07DB810B56D
:108E20000446A821A04800F0D4FBA04894F82010E4
:108E3000C1809F49626AB2FBF1F2028194F821205D
:108E40000270A26AB2FBF1F14170002010BD95489A
:108E5000D0F89C00002808BF7047004700291CBFBD
:108E60000020704705F0FAB810B5924A84B09069B6
:108E7000D2E90812CDE902128A4A0090907A8DF860
:108E800000008D4801908D4890F803C081884FEA1A
:108E90001C230B4381784FEA0C6C4CEA014C44785C
:108EA000007843EA11414CEA042C41EA14614CEA8F
:108EB0000000CDE90201D2F88C10684688477B4952
:108EC000487104B010BD7749D1F89810084710B523
:108ED000744CD4F890008047D4F88800002808BF6C
:108EE00010BDBDE81040004710B56E4CD4F88400AA
:108EF000002818BF8047D4F89400BDE81040004710
:108F00006A4902694A61808A08830020704765497E
:108F100091F82C10012918BF704709F01BBC624959
:108F20000022C1F8A820C1F8AC20C1F8B020C1F8D7
:108F3000B420C1F8B820C1F8BC20C1F8C020C1F8E5
:108F4000C420C1F8C8205A4A4168B2FBF1F190F838
:108F50002D20564889B242814CF6CD425143890CAE
:108F6000817000207047062806D2554901EB401158
:108F7000F030C0B2FFF770BA52A1E020FFF76CBA30
:108F800010B507F05FFC474C94F82C00012808BF8F
:108F900007F06AFC94F82F00012808BF07F08CFC4A
:108FA00094F82200012818BF10BD0020BDE8104031
:108FB00001F0B2BF10B50BF007F93A4890F82C0059
:108FC000012818BF10BDBDE810400BF055B970B5B1
:108FD000354D00260446C5F8CC60C5F8D060C5F80C
:108FE000D460C5F8D860C5F8DC60C5F8E060C5F8A5
:108FF000E460C5F8E860C5F8EC60C5F8F060C5F855
:10900000F460C5F8F860C5F8FC60C5F800614FF47D
:10901000C05105F58470C5F8046100F0DAFA05F571
:10902000C05C05F1CC01CCF81061CCF81461A069EA
:10903000C5F8CC00E069C5F8D400C0200873A822A8
:109040004A738E73FE23CB7308744A748E74CB7488
:1090500008714A718E71CB711649154AD1E9000128
:10906000CCE9420111480121C17021890161616887
:10907000B2FBF1F18181C681002070BD094991F8F0
:109080002F10012918BF704709F0A4BB10B5044682
:109090004821124800F09DFA044994F83000087104
:1090A000002010BDC80A0020480D002088020020C2
:1090B00040420F0028820208308202089C020020F1
:1090C00050820208756E6B6E6F776E2073797374C1
:1090D000656D206572726F720000000060260020CE
:1090E000004870479C27002070B5A0FB0140B4F1F8
:1090F000805170F1000024BF002070BD204600F0B8
:1091000023FB05001CBF214600F041FA284670BD34
:1091100070B516460D46041F002808BF70BD002E0E
:109120001CBF05F10C00AFF300802B4658680028E7
:1091300018BF844288BF0346F8D81968CA18A242EB
:1091400018BF5C6003D122681C4611441960216875
:109150000A19824218BF606004D1426862600068E8
:1091600008442060002E1CBF05F10C00AFF3008006
:1091700070BD10B5044600F056FA01682046BDE8FF
:1091800010400122C4E753EA020C00F069802DE987
:10919000F04B4FF00006002B1FBFB3FA83F503FA24
:1091A00005F424FA05F65E4012BF1643B2FA82F5C2
:1091B00002FA05F4C5F120051EBF22FA05FC44EAB7
:1091C0000C04203556EA044C4FEA144418BF641CC2
:1091D0004FF000084FF00009904271EB030C39D3B7
:1091E000002919BFB1FA81F701FA07F6B0FA80F742
:1091F00000FA07F6C7F120071EBF20FA07FC46EA6F
:109200000C062037B6FBF4FCA7EB0507103F07F070
:109210001F0BCBF120060CFA0BFB2CFA06F644BF11
:10922000B3460026202FA4BF5E464FF0000B5BEA3A
:10923000060C08BF4FF0010B19EB0B09ABFB027CCE
:1092400048EB0608C01B06FB02CC0BFB03CC71EB02
:109250000C01C1E70B46024641464846BDE8F08B8B
:1092600013B54FF000004FF00001AFF30080BDE8F0
:109270001C4070470FB41CB50C0007AA009001D029
:109280002044401E074B7B4469460190069800F03D
:10929000C6FA002C03D06946002000F0D3FA1CBCAB
:1092A0005DF814FBC50500002DE9F04104460E46AB
:1092B000002020622046E168884738B3252806D080
:1092C000D4E901219047206A401C2062F2E7E1685E
:1092D000204600278847050018D0A5F1410019282D
:1092E00002D820354FF400673246294620462760D1
:1092F000FEF779FF40B1012804D0F61D26F00706DD
:109300000836D7E7361DD5E72846D9E7206ABDE8F5
:10931000F08170B50C460546012A05D028788006F4
:1093200000D5EA69002302E0012305E05B1C9342BB
:1093300002D2E05C0028F9D1A869E618C01AA86139
:10934000286A184428622846AFF3008004E0D5E973
:10935000012114F8010B9047B442F8D32846AFF32B
:10936000008070BD2DE9F041064600241068752983
:10937000314616A511D0AFF30080002803DAC0F102
:10938000000013A507E031688A0701D511A502E0A6
:10939000490704D510A5012401E0AFF300800021A6
:1093A0000A2306F1240707E0B0FBF3F203FB1200E7
:1093B000303078541046491C0028F5D123462A46FF
:1093C0003046BDE8F04100F0C9B9000000000000DF
:1093D0002D0000002B0000002000000070B50446A6
:1093E0000D4621461068AFF300802188090502D59B
:1093F000104A7A4402E00F4A7A440E32002104F106
:10940000240307E000F00F064FEA1010965D5E544B
:1094100001F101010028F5D103462078000704D5A9
:10942000702D02D009B1113202232046BDE87040F0
:1094300000F094B957EF000040EA010310B59B0714
:109440000FD1042A0DD310C808C9121F9C42F8D0AE
:1094500020BA19BA884201D9012010BD4FF0FF305F
:1094600010BD1AB1D30703D0521C07E0002010BD75
:1094700010F8013B11F8014B1B1B07D110F8013B01
:1094800011F8014B1B1B01D1921EF1D1184610BDE2
:10949000032A40F2308010F0030C00F0158011F820
:1094A000013BBCF1020F624498BF11F801CB00F8F8
:1094B000013B38BF11F8013BA2F1040298BF00F84C
:1094C00001CB38BF00F8013B11F0030300F0258009
:1094D000083AC0F0088051F8043B083A51F804CB30
:1094E000A0E80810F5E7121D5CBF51F8043B40F8F6
:1094F000043BAFF30080D20724BF11F8013B11F801
:1095000001CB48BF11F8012B24BF00F8013B00F844
:1095100001CB48BF00F8012B704710B5203AC0F0CE
:109520000B80B1E81850203AA0E81850B1E8185064
:10953000A0E81850BFF4F5AF5FEA027C24BFB1E8A1
:109540001850A0E8185044BF18C918C0BDE8104012
:109550005FEA827C24BF51F8043B40F8043B08BF1B
:109560007047D20728BF31F8023B48BF11F8012BE2
:1095700028BF20F8023B48BF00F8012B704702F0DB
:10958000FF0343EA032242EA024200F002B84FF02E
:1095900000020429C0F0128010F0030C00F01B80C0
:1095A000CCF1040CBCF1020F18BF00F8012BA8BFCE
:1095B00020F8022BA1EB0C0100F00DB85FEAC17C92
:1095C00024BF00F8012B00F8012B48BF00F8012B45
:1095D00070474FF0000200B5134694469646203976
:1095E00022BFA0E80C50A0E80C50B1F12001BFF45C
:1095F000F7AF090728BFA0E80C5048BF0CC05DF8C2
:1096000004EB890028BF40F8042B08BF704748BF0F
:1096100020F8022B11F0804F18BF00F8012B704783
:1096200070477047704710B5FFF75AFD083010BDFE
:10963000704770477047704738B504460A460020A7
:109640006946AFF30080002808BF38BD0246009984
:10965000204600F023F9012038BD012000F03EB97A
:10966000F8B5AFF30080054600200C46102000BF7F
:109670000646A819A0420DD9324669460020AFF32C
:109680000080070008BF00F029F90098A04218BF29
:109690000546C419FFF7C7FF05600746F01D20F017
:1096A00007004619284600F0F0F8B44208BFF8BD9C
:1096B000A21B31463868BDE8F84000F0EFB80B3027
:1096C00020F0070070472DE9F04117460E4604468A
:1096D000FFF7F5FFA042054633D9002F1CBF06F166
:1096E0000C00AFF3008030467468F4B12168A942E1
:1096F00017D305F1080291423CBF6168416007D36E
:10970000626861194A602268521B0A6041602560E4
:10971000002F1CBF06F10C00AFF30080201DBDE838
:10972000F08120466468002CE0D129463046FFF7DE
:1097300083FF0028D7D1002F1CBF06F10C00AFF328
:1097400000800020BDE8F08110B50446FFF76BFFF4
:1097500001682046BDE810400122B4E72DE9F0473A
:109760000D4699469246044600F124080168880691
:1097700004D5E06921F01001216000E00120A84239
:1097800002DDA0EB050700E00027A16907EB050259
:1097900002EB0900A1EB0000A0612078C00602D412
:1097A0002046AFF30080002608E0D4E901211AF832
:1097B00006009047206A401C761C20624E45F4DB70
:1097C0002078C0060AD52046AFF3008006E0D4E931
:1097D000012130209047206A401C2062381EA7F1EA
:1097E0000107F4DC07E0D4E9012118F805009047EF
:1097F000206A401C2062281EA5F10105F3DC2046EA
:10980000AFF300802078000602D50220BDE8F08783
:109810000120FBE701694A1C02610878704700B526
:109820008FB0CDE901310021059105497944CDE999
:10983000031011466846FFF737FD0FB000BD00006A
:10984000E5FFFFFF0A6802F8010B0A607047D1E9E3
:1098500000239A4202D2531C0B601070704710B55F
:10986000436913B1AFF3008001E0FFF752FD01201F
:1098700010BD127800F124010A7000224A70012202
:10988000EDE711684FF0FF32E9E700210160C0E920
:1098900001100C3001F0A1B81020704730B404461C
:1098A0008C464368002B18BF9C4584BF18465B68F4
:1098B000F8D803681844604507D0C81C20F007009A
:1098C00000F1040CACEB0100121A2146CCF8002088
:1098D00030BC00220CF10400FFF71ABC10B500F0F8
:1098E00035F8BDE8104000F02BB87546FFF7F8FBDF
:1098F000AE4605006946534620F00700854618B07D
:1099000020B5FEF767FDBDE820404FF000064FF0A0
:1099100000074FF000084FF0000B21F00701AC46A4
:10992000ACE8C009ACE8C009ACE8C009ACE8C009C3
:109930008D4670470446AFF300802046FEF79DFC3D
:10994000002801D000F02AB87047000010B50128A7
:1099500005D0002103A000F028F8012010BD09A1C6
:10996000F8E7000053494752544D454D3A204F7592
:1099700074206F662068656170206D656D6F727907
:10998000000000003A2048656170206D656D6F72BF
:109990007920636F727275707465640001491820D4
:1099A000ABBEFEE726000200704770B505460C46C8
:1099B0000A2000E06D1C00F011F835B1287800286D
:1099C000F8D102E0641C00F009F814B120780028F6
:1099D000F8D1BDE870400A20AFF3008008B56946B1
:1099E0008DF800000320ABBE08BD000000000000A1
:1099F000F0B51C481C4E85B00468F068002710F0D4
:109A0000100F1CBF38460CF0E3F904F11C0005F000
:109A10002DF805000ED104F11C0005F058F804F1F2
:109A20001C0005F023F80546012084F82D00384677
:109A30000CF0CEF930466A46002100F0ADF80098EF
:109A400028609DF80A00A871DDF80F10DDF80B0002
:109A5000C5E90201616800291CBFA068884705B0FC
:109A6000F0BD00002C0200200064004000200CF03B
:109A7000AFB900200CF0E6B970B51B491B4E86B09B
:109A80004C68F168012011F0100F18BF0CF0A0F91C
:109A900004F11C0004F0EAFF05000DD104F11C00E4
:109AA00005F015F804F11C0004F0E0FF0546012064
:109AB00084F82D000CF08CF930466A46002100F045
:109AC0006BF8009828609DF80A00A871DDF80F1067
:109AD000DDF80B00C5E90201616800291CBFA06820
:109AE000884706B070BD00002C02002000680040CE
:109AF00001200CF06DB901200CF0A4B910B40823BA
:109B000004224FF0100CB1F5007F40D021DC202959
:109B100002BF036110BC704710DC012901BF1D4961
:109B2000816010BC7047042902BFC36010BC70473D
:109B3000082908BFC0F80CC010BC7047402902BFFC
:109B4000C0F810C010BC7047B1F5807F1FD010BCAA
:109B500070470024B1F5004F08D00BDCB1F5806FE1
:109B600015D0B1F5006F1CBF10BC70478461426016
:109B700010BC7047B1F5803F02BF436010BC704716
:109B8000B1F5003F08BFC0F804C010BC7047426088
:109B900010BC70470101010000EB0113D3F8B0C104
:109BA0001CF0040C82F808C0D3F8B0C107BF4FEA1C
:109BB0005C5CC2F800C04FEADC0CC2F804C0D3F809
:109BC000B0C10CF0020C82F809C0D3F8B4C10CF09B
:109BD0000F0C82F80AC0D3F8B4C14FEA1C2C82F8EB
:109BE00013C0D3F8B8C182F80BC0D3F8B8C14FEA9C
:109BF0001C2C82F80CC0D3F8B8C14FEA1C4C82F878
:109C00000DC0D3F8B8C14FEA1C6C82F80EC0D3F86F
:109C1000BCC182F80FC0D3F8BCC14FEA1C2C82F83B
:109C200010C0D3F8BCC14FEA1C4C82F811C0D3F865
:109C3000BC311B0E937421B1016941F02001016117
:109C40007047C16841F02001C160704710B40246FE
:109C50000020936813F0806F3FD000BF02EB00122A
:109C6000D2F8803103F00103C2F880310B7A002B67
:109C700042D0D2F880C14C684CEA030391F809C085
:109C80004CEAC40C43EA0C03C2F880318B7A03F02F
:109C90000F038B72D2F8843123F00F03C2F88431A2
:109CA000D2F8843191F80AC043EA0C03C2F8843137
:109CB000CB7AD1F80CC043EA0C23C2F88831CB7BB5
:109CC000096943EA0121C2F88C11D2F8801141F0F0
:109CD0000101C2F8801110BC7047906810F0006F4D
:109CE00018BF0120BAD1906810F0805F14BF022025
:109CF0000420B3D110BC7047D2F8803191F809C06C
:109D000043EA0C03B1F800C043EA4C53BCE700B58A
:109D1000002200F007F8C04380B2010241EA10209F
:109D200080B200BD05E000BF30F8023B891E5BBA7F
:109D30001A440129F8DC11B1007802EB002290B23C
:109D400000EB124000EB104080B27047084400EB7B
:109D5000104080B2704700002DE9F04F484D4FF0A1
:109D60000008DFF820B12E7893B0474649F21A096F
:109D70004FF0004A286900EB06100168C1F30D415D
:109D80000C1F016811EA090F18BF012735D10168BE
:109D90004FF44070884318BF02272ED140F2EA509A
:109DA000844288BF032728D8374944F00040096817
:109DB000884744F000410090002808BF04271CD0C9
:109DC000286900EB0610806820F003020098001D4F
:109DD000E31C9C0806D000BF52F8043B40F8043B4B
:109DE000641EF9D16A6812B10098001D9047264898
:109DF0004168009888474FF00108286900EB061079
:109E0000C0F800A077B1022F08BF4FF0FF343B46E7
:109E10001EA2402102A80094FFF72CFA02A9F0200C
:109E200004F0B6F99BF81300761C864208BF0026A2
:109E3000286900EB0610006810F0004F9AD01E4C05
:109E40002E70606910F0800F07D01C486061002000
:109E5000A0601BA1F02004F09BF920486061B8F1DC
:109E6000000F04BF13B0BDE8F08F074880680028DA
:109E700004BF13B0BDE8F08F13B0BDE8F04F00474A
:109E800030010020C0090020F00900204554485F3F
:109E900049525148616E646C657228293A20657296
:109EA000726F7220256420666F72206672616D6524
:109EB0005B25645D0000000000900240C08001004E
:109EC0004554485F49525148616E646C6572282957
:109ED0003A206572726F7220350000004000010068
:109EE0000149C860704700000020024030B50546B7
:109EF0004FF4302000F066F8042818BF30BD0A4C3B
:109F0000206940F0020020616561206940F0400056
:109F100020614FF4302000F055F8216941F6FD72C0
:109F20001140216130BD00000020024070B506469E
:109F30000D464FF4005000F045F8042818BF70BDDE
:109F4000074C206940F00100206135804FF400503B
:109F500000F038F8216941F6FE721140216170BDB0
:109F600000200240F0B506460D464FF4005000F0C8
:109F700029F8042818BFF0BD0B4C206940F00100FF
:109F8000206135804FF4005000F01CF841F6FE7758
:109F9000042804D1280C7080B81C00F013F8216943
:109FA00039402161F0BD0000002002400348024911
:109FB000416003494160704723016745002002402A
:109FC000AB89EFCD174902460420CB6813F0010F8F
:109FD00025D1CB6813F0040F18BF02201AD1C9682D
:109FE00011F0100F18BF032014E0CB68042013F009
:109FF000010F18BF01200AD1CB6813F0040F18BF5E
:10A00000022004D1CB6813F0100F18BF0320521E9A
:10A01000012804D0002A18BF704705207047002A85
:10A02000E3D1FAE7002002402DE9F001CB780022CD
:10A0300003F00F0C13F0100F1CBF8B7843EA0C0CCD
:10A040000B780F260125002B18BF04681AD000BF1B
:10A050000F8805FA02F31F409F420FD1970006FABE
:10A0600007F824EA08040CFA07F73C43CF78282FB6
:10A0700008BF436102D0482F08BF0361521C082A61
:10A08000E6D304600A88FF2A87BF44680022BDE83F
:10A09000F001704702F108030F8805FA03F31F402F
:10A0A0009F420FD1970006FA07F824EA08040CFA39
:10A0B00007F73C43CF78282F08BF4361CF78482F5C
:10A0C00008BF0361521C082AE4D34460BDE8F001D4
:10A0D00070470246002092680A4218BF012070476C
:10A0E000002A14BF0161416170470029018814BF33
:10A0F00041F4806121F4806101807047838A0022ED
:10A10000008B43EA004020F07F4031EA000008BFA6
:10A11000012210467047C943818270470029018897
:10A1200014BF41F0010121F0010101807047A0F14D
:10A13000804110B5B1F5A8414FF0010109D14805A2
:10A1400000F0CCF8BDE8104000214FF4001000F002
:10A15000C5B84FF4800000F0C1F8BDE81040002100
:10A160004FF4800000F0BAB80029018814BF41F410
:10A17000807121F48071018070470029018814BF2B
:10A1800041F4007121F400710180704700220B0F2F
:10A1900021F07F4112BF1430090C183000680842CA
:10A1A00018BF012210467047818A008B41EA0040A7
:10A1B00020F07F407047000070B50446808886B06C
:10A1C0000D4620F03F06684600F0ACF82949029899
:10A1D000B0FBF1F189B246EA0102A280228822F0A6
:10A1E00001022280244B2A689A421DD85200B0FBFB
:10A1F000F2F080B2042838BF0420491C2184A083D7
:10A20000208840F0010020802088A9886A8920F0F9
:10A210000A0020F48060114308432080A88929891E
:10A220000843208106B070BDEB88A3F53F4CBCF11C
:10A23000FF0C05D102EB4202B0FBF2F080B208E065
:10A2400002EBC20303EB0212B0FBF2F080B240F467
:10A2500080400205120D08BF40F0010040F40040AC
:10A260004FF4967251434FF47A72B1FBF2F1491CEC
:10A270002184C4E740420F00A0860100405A704785
:10A28000008AC0B27047002A14BF41F0010101F0FA
:10A29000FE0101827047018270470000034940F0CF
:10A2A000FD7040F080600860704700000CED00E039
:10A2B00021F07F0121F060410843014908607047A7
:10A2C00008ED00E0044A0029D16914BF084321EADF
:10A2D0000000D0617047000000100240044A0029CD
:10A2E000116914BF084321EA0000106170470000A3
:10A2F00000100240044A0029916914BF084321EA72
:10A30000000090617047000000100240044A0029DC
:10A31000D16814BF084321EA0000D06070470000F4
:10A3200000100240334930B44A68334B12F00C023B
:10A3300008D0DFF8C8C0042A08BFC0F800C02CD07D
:10A34000082A01D0036028E04A684B6802F47012C2
:10A35000920C03F480330D2A14BF921C0622002BAA
:10A3600004BF274B5A4317D0CB6A13F4803FCB6A04
:10A3700003F00F0303F101030BD0CC6ACD6AC4F3E1
:10A380000314641CBCFBF4FCC5F30325AD1C0CFBDF
:10A3900005FCBCFBF3F35A4302604A6802F0F0028A
:10A3A0001309184AD35CD0F800C02CFA03F34360B9
:10A3B000D1F804C00CF4E06C4FEA1C2C12F80CC06D
:10A3C00023FA0CFCC0F808C0D1F804C00CF4605C9F
:10A3D0004FEADC2C12F80C2023FA02F2C260496822
:10A3E000094B01F44041890B595CB2FBF1F1016169
:10A3F00030BC70470010024000127A0040787D01A6
:10A4000000093D00A6020020A2020020002243090C
:10A410000949012B08BF096803D0022B0CBF096A48
:10A42000496A00F01F00012303FA00F0084218BF38
:10A430000122104670470000001002400149C87117
:10A440007047000000100240014908677047000093
:10A45000000042420349CA6A22F470421043C862B3
:10A46000704700000010024000200BF07DBD01206D
:10A470000BF07ABD02200BF077BD02460020128956
:10A480000A4218BF012070470909012303FA01F1AC
:10A49000002A828889B214BF114322EA0101818017
:10A4A0007047808970478181704700002C480021E7
:10A4B000026842F480320260026801F1010112F484
:10A4C000003F02D1B1F5A06FF6D1016811F4003F51
:10A4D00008BF704723490A6842F010020A600A6800
:10A4E00022F003020A600A6842F002020A60416830
:10A4F000416041684160416841F480614160C16AE6
:10A50000194A1140C162C16A41F4117141F48231AA
:10A51000C162016841F080610160016811F0006F63
:10A52000FBD0416821F47C114160416841F4E8119D
:10A530004160016841F080710160016811F0007FA5
:10A54000FBD0416821F003014160416841F0020104
:10A550004160416801F00C010829FAD17047000000
:10A56000001002400020024000F0FEFF010241EA1C
:10A57000102080B270470000234830B44168234B5C
:10A5800011F00C02224908D0DFF888C0042A08BF65
:10A59000C1F800C02CD0082A01D00B6028E0426826
:10A5A000436802F47012920C03F480340D2A14BF35
:10A5B000931C0623002C04BF174A5A4317D0C26AC3
:10A5C00012F4803FC26A02F00F0202F101020BD0C6
:10A5D000C46AC56AC4F30314641CBCFBF4FCC5F371
:10A5E0000325AD1C0CFB05FCBCFBF2F25A430A60D0
:10A5F00040680A4AC0F30310105C0A6822FA00F0AF
:10A60000086030BC704700000010024000127A0061
:10A610001401002040787D0100093D00B87E020849
:10A62000154810B5016841F0010101604168134A05
:10A6300011404160016821F4102121F08071016016
:10A64000016821F480210160416821F4FE0141602C
:10A65000016821F0A05101604FF47F018160002169
:10A66000C16205F00FFEFFF721FF05494FF00060C2
:10A670000860FFF781FF10BD001002400000FFF0EE
:10A6800008ED00E010B50121034800F04DF8BDE8E9
:10A69000104000200BF0E8BC002C014010B5012157
:10A6A000880700F041F8BDE8104001200BF0DCBC49
:10A6B00010B50121034800F037F8BDE81040022032
:10A6C0000BF0D2BC0004004010B50121034800F09B
:10A6D0002BF8BDE8104003200BF0C6BC000800407A
:10A6E00010B50121034800F01FF8BDE81040042018
:10A6F0000BF0BABC000C004010B50121034800F07B
:10A7000013F8BDE8104005200BF0AEBC001000406F
:10A7100010B50121034800F007F8BDE810400620FD
:10A720000BF0A2BC00140040C9430182704700290D
:10A73000018814BF41F0010121F00101018070473F
:10A7400010B5A0F18041B1F596310AD10121C802BE
:10A75000FFF7DCFDBDE8104000214FF40060FFF77B
:10A76000D5BDB0F1804F0ED0A0F18041B1F5806130
:10A7700013D101210220FFF7B1FD0021BDE81040F7
:10A780000220FFF7ABBD01210846FFF7A7FD00211E
:10A79000BDE810400120FFF7A1BDA0F18041B1F557
:10A7A000006109D101210420FFF798FD0021BDE8D7
:10A7B00010400420FFF792BDA0F18041B1F5406147
:10A7C00009D101210820FFF789FD0021BDE81040D3
:10A7D0000820FFF783BDA0F18041B1F5805109D178
:10A7E00001211020FFF77AFD0021BDE81040102064
:10A7F000FFF774BDA0F18041B1F5A05109D101214D
:10A800002020FFF76BFD0021BDE810402020FFF75E
:10A8100065BDA0F18041B1F59A310AD1012148030B
:10A82000FFF774FDBDE8104000214FF40050FFF722
:10A830006DBDA0F18041B1F5A6310AD10121C80456
:10A84000FFF764FDBDE8104000214FF40020FFF742
:10A850005DBDA0F18041B1F5A8310AD10121080503
:10A86000FFF754FDBDE8104000214FF48010FFF7C2
:10A870004DBDA0F18041B1F5AA310AD101214805B1
:10A88000FFF744FDBDE8104000214FF40010FFF732
:10A890003DBDA0F18041B1F5C05109D10121402059
:10A8A000FFF71CFD0021BDE810404020FFF716BD5A
:10A8B000A0F18041B1F5E05109D101218020FFF7DD
:10A8C0000DFD0021BDE810408020FFF707BDA0F17D
:10A8D0008041B1F500510AD101210802FFF7FEFCC9
:10A8E000BDE8104000214FF48070FFF7F7BCA0F1E5
:10A8F0008041B1F5A0310AD101210804FFF706FD1E
:10A90000BDE8104000214FF48030FFF7FFBCA0F1FC
:10A910008041B1F5A2310AD101214804FFF7F6FCCC
:10A92000BDE8104000214FF40030FFF7EFBCA0F16C
:10A930008041B1F5A43118BF10BD01218804FFF793
:10A94000E5FCBDE8104000214FF48020FFF7DEBC9D
:10A95000002A828914BF114322EA010181817047D4
:10A960000149002008607047082C004010B5054CD4
:10A97000FFF7F6FFA168002908BF10BDE068BDE839
:10A9800010400847940C00204FF000010160416026
:10A99000704712F0004F1FBF22F00042D21D22F07C
:10A9A0000703102202BFD21C22F003030C221BB1AA
:10A9B00003EB020C8C4501D901207047024401448D
:10A9C0008360C0E90021C91AD01888429CBF10607A
:10A9D0000246F9D900201060704710B504462046A1
:10A9E00006F074FE10BD00002DE9F0470027DFF8E7
:10A9F000909000280CDA2349D9F8002020F000407C
:10AA00000968024401EB4101B2EB910F18D801270C
:10AA100005460F3020F003060FB9FEF765FA1A4C11
:10AA2000D4E90002011B891AB1420CD20446006825
:10AA30000028F5D127B9FEF74AFA0020FEF793FA6D
:10AA40000020BDE8F08772B1101921680160206014
:10AA500000F10808C0F80460D9F800103144C9F8C2
:10AA6000001027B105E004F108086660F4E7FEF77E
:10AA70002EFAA8F800500020A8F802004046E0E7AF
:10AA80007403002098020020500E00202DE9F047AA
:10AA90000746894690460026284C294D0BE0207831
:10AAA00038B10422394604F10A0006F0DFF8012823
:10AAB00035D00E34761C28888642F0DB2149384692
:10AAC00006F004F8D0B91F4804220021001D06F04A
:10AAD000F3F810B10020BDE8F0870026174C0AE01B
:10AAE000207830B106224946201D06F0BFF8012823
:10AAF0001AD00E34761C28888642F1DB404600F0DE
:10AB000027F80028E7D00D49C0EBC00001EB400456
:10AB10000E3C0422394604F10A0006F0B7F806227A
:10AB20004946201D06F0B2F807480088E070074843
:10AB30000078A070032020700120CCE7480D002091
:10AB40008E0200200C0D00209002002088020020C0
:10AB5000F0B50546012116480E46164A03E0037873
:10AB600053B10E30491C13889942F8DD1248104B3E
:10AB70000488002001210DE0067045700846F0BDF4
:10AB80005F78012F04D1DF78A74201D83C46084600
:10AB90000E33491C1788B942F2DD0028EFD0044A71
:10ABA000C0EBC00102EB410101F80E6D4D70F0BD2C
:10ABB000480D00208E020020900200202DE9F04771
:10ABC00081460F4600253D4C3D4E0BE0207838B1C4
:10ABD0000422494604F10A0006F048F8012815D07D
:10ABE0000E346D1C30888542F0DB3649484605F04E
:10ABF0006DFFDFF8C880334D01284FF0040209D003
:10AC00000021281D06F058F8E8BB1DE02078032835
:10AC10004ED350E04946281D06F028F8012806D1F9
:10AC200004220021281D06F047F800B90027384605
:10AC3000FFF78EFF06003CD0C6EBC60108EB4104CF
:10AC40000E3C042249461DE000271C4C0BE02078F6
:10AC500038B10422291D04F10A0006F007F8012882
:10AC6000D4D00E347F1C30888742F0DB0020FFF701
:10AC70006FFF06001DD0C6EBC60108EB41040E3C79
:10AC80000422291D00E013E004F10A0005F0FEFF94
:10AC900006220D49201D05F0F9FF0C480078A07030
:10ACA0000B480078E070304600F036F90220207042
:10ACB0000020BDE8F0872046FBE70000480D00209B
:10ACC0008E0200200C0D002047830208880200201D
:10ACD0008902002070B50D46064604220E4905F093
:10ACE000C5FF012814D0304605F002FF01280FD01F
:10ACF00029463046FFF762FF040008D0042231469F
:10AD000004F10A0005F0B2FF012802D002E00020A1
:10AD100070BD6570012070BD438302082DE9F047C6
:10AD20000026DFF8D480DFF8D490B246344F5DE0DF
:10AD3000B9F80050691C89B2A9F800103A8891420C
:10AD400001D3A9F800A02F49C5EBC50001EB4004D1
:10AD50002078C8B3E07820B1401E10F0FF00E0700A
:10AD600043D1607801280AD10422274904F10A005E
:10AD700005F07CFF012806D06078012818D010F07B
:10AD8000FF0F02D031E084F801A004221F4904F132
:10AD90000A0005F06BFF012817D02078032818D08F
:10ADA000A07800B3401E10F0FF00A0701BD012E08E
:10ADB0002078032817D0A078A8B1401E10F0FF001B
:10ADC000A07010D0022005E00FE011480088E0706C
:10ADD0000BE00420207098F80000E070681CBDE8CB
:10ADE000F04700F099B884F800A0761C38888642B5
:10ADF0009EDBBDE8F0870000890200207802002079
:10AE00008E020020480D0020100D00204383020810
:10AE1000900200202DE9F04106460025134C00F178
:10AE20000E08134F0DE0207848B1012807D0042206
:10AE300004F10A01404605F019FF012806D00E343E
:10AE40006D1C38888542EEDBBDE8F081062206F1F4
:10AE50000801201D05F01AFF06480088E07006482A
:10AE60000078A07003202070EEE70000480D00205D
:10AE70008E02002090020020880200202DE9F0417F
:10AE800005460E462A20FFF7AFFD044605F10801EE
:10AE900006220F46001D05F0F9FE06221C4904F1AA
:10AEA0000A0005F0F3FE4FF4C16020824FF4807079
:10AEB00060820820A0820620A0750420E075268309
:10AEC00004F1240006223946064605F0DFFE05F1AE
:10AED0000E0104F12A000422054605F0D7FE0622E1
:10AEE0000B4904F11A0005F0D1FE0422094904F1CE
:10AEF000200005F0CBFE012231462846FFF7C6FDB3
:10AF00002046FDF7E0FF2046BDE8F04103F0F2B82F
:10AF10009C0200200C0D002070B505462A20FFF78A
:10AF200063FD044606222349001D05F0AFFE0622FC
:10AF3000214904F10A0005F0A9FE4FF4C160208206
:10AF40004FF4807161820820A0820620A075042041
:10AF5000E07521830622184904F11A0005F096FED7
:10AF60000422164904F1200005F090FE4FF006027D
:10AF700065B1002104F1240005F096FE1049C5EBEF
:10AF8000C50001EB40010422091F06E0094904F154
:10AF9000240005F07BFE0949042204F12A0005F093
:10AFA00075FE2046FDF78FFF2046BDE8704003F098
:10AFB000A1B80000478302089C0200200C0D00206D
:10AFC000480D002010B50748006890F8200000B92F
:10AFD00010BD0448406803224168022006F0E6FDE7
:10AFE00000BFF5E7C8030020F0B501460124632542
:10AFF00009B9A01EF0BD0020064650405E40304317
:10B0000002D142F2222200236FF07F4602EA0600BC
:10B010000026360646EA10264FF0020C4CEA006085
:10B02000C1E90006034888606FF07F40C8600020D7
:10B03000E0E700000A00016310B5044620460BF06B
:10B04000F9FC10BD10B5044620460BF03DFD10BDC7
:10B0500010B5044604B91C4C40221C491C480BF096
:10B0600082FC1A480BF080FB012809D040221949C4
:10B0700017480BF0ABFC4022144915480BF073FC49
:10B0800020790BF05EFC38B1206810B12068804751
:10B0900002E04FF0FF3010BD0BF052FD38B12068D8
:10B0A00010B12068804702E04FF0FF30F3E70BF06B
:10B0B0001EFD38B1206810B12068804702E04FF0D3
:10B0C000FF30E8E70020E6E7587D0208F40400209E
:10B0D000607D0208687D02080020704770B5044654
:10B0E0000D46294620460BF095FD70BD014611B96D
:10B0F0006FF0010070470020087000BFFAE730B51C
:10B10000024602B111B96FF0010030BD91E839007B
:10B1100082E839000020F8E7FEB505460C4600201D
:10B120000290461E284600F088F8012804D0022824
:10B1300011D0032839D11EE00020019002AA01A9F4
:10B14000284600F050F8029820B1DDE9011002F025
:10B15000BFFE06462AE00020019002AA01A9284667
:10B1600000F056F8029828B12246DDE9011002F0FD
:10B170009BFE06461AE000200190009002AB6A4652
:10B1800001A9284600F015F8019868B1029838B175
:10B190002346DDE90021029802F070FE064603E036
:10B1A0000026DDE90001884700E000BF00BF30460F
:10B1B000FEBD10B5044614B109B102B113B96FF068
:10B1C000010010BD2078032805D000200860186019
:10B1D0001060401EF5E760680860E0681860A068CD
:10B1E00010600020EDE703460BB101B112B96FF01A
:10B1F000010070471878012804D000200860106012
:10B20000401EF6E758680860986810600020F0E774
:10B2100003460BB101B112B96FF001007047187805
:10B22000022804D0002008601060401EF6E758682D
:10B230000860986810600020F0E7014609B9002016
:10B2400070470878FCE770B5002400F0B1FC0546B3
:10B2500001231022042100F0B5FC044600202070D8
:10B26000204670BD10B5044614B96FF0010010BD42
:10B27000032020706160A260E3600020F7E70346CE
:10B2800013B96FF0010070470120187059609A607F
:10B290000020F8E70348006808B102487047002022
:10B2A000FCE70000FC000020F8B504460D461048FD
:10B2B0000068D0B900F06CF906460CB1012000E03E
:10B2C000002001460BA3104A304600F032F929460F
:10B2D000204609F0C9FA0D480D4B0E4A0E49009060
:10B2E0000E4802F051FA024908600148F8BD00001A
:10B2F000FC0000206D6F64756C65696E666F206977
:10B3000073204E554C4C0000257D02085948020818
:10B31000054902086149020849480208B149020882
:10B3200001460A460AB9002070471068FCE701464A
:10B3300009B9002070470889FCE70146002209B9D5
:10B3400000207047088808B91046FAE7CA6848889C
:10B35000CB8800FB03221046F3E7014609B9012020
:10B36000704708880A89904201D10120F8E700203F
:10B37000F6E700002DE9FE4F05460E4617469846B3
:10B380000024002002900190814682460120009016
:10B3900000F00EFC834601231822042100F012FC69
:10B3A0000446002020806080A08000F0F1F88346F1
:10B3B0000DB1012000E00020014629A32D4A584686
:10B3C00000F0B7F800F0E4F883460EB1012000E089
:10B3D0000020014628A3274A584600F0AAF8E58035
:10B3E00026810C9820610D986061012D02D1012009
:10B3F000009006E0022D02D10220009001E004201E
:10B40000009000F0D5FB834633462A46009900F0B1
:10B41000D9FBE060CFB1E06802904FF00009CA4666
:10B4200010E0029809FB0500019041460198B847D9
:10B4300009F10100B0FBF6F106FB11090AF1010068
:10B440001FFA80FAB245ECDB06E02289E38802FBB2
:10B4500003F1E068FEF79BF82046BDE8FE8F000090
:10B460006974656D5F73697A65206973207A6572A6
:10B470006F000000847A0208636170616369747907
:10B48000206973207A65726F0000000070B5044671
:10B49000002504B970BD208800B9FBE7E568608825
:10B4A000E18800FB0155606918B128466169884749
:10B4B00002E0E08800BF00BF6088401C218990FB4B
:10B4C000F1F201FB120060802088401E208000BF46
:10B4D000E0E770B504460D46002604B105B970BD1D
:10B4E00020892188884200D1F9E7E668A088E188B0
:10B4F00000FB0166206920B1294630462269904749
:10B5000004E0E28829463046FDF7C2FFA088401CCF
:10B51000218990FBF1F201FB1200A0802088401CE1
:10B52000208000BFDBE7014609B90020704708888A
:10B53000FCE72DE9F04105460C4616461F462CB99E
:10B540003B4632460321284600F002F8BDE8F08170
:10B550002DE9F04782460C4616461F46002502F0AC
:10B560000BFB814602F012FB05464FF0000815B9AF
:10B570004FF0020803E0284602F0CAFB80463B4633
:10B5800032464146204609F0B9FABDE8F08700008E
:10B59000004870474800002070B506460C46154626
:10B5A0002B46224600213046FFF7D2FF70BD000037
:10B5B000014601B9024903480A6802607047000069
:10B5C0009C7A0208480000202DE9F04104460D460F
:10B5D00016464FF0FF3714B97800BDE8F081606877
:10B5E00028B92068FFF7A3FE288000270FE0314626
:10B5F000606802F067FA40B92068FFF798FE28807B
:10B60000606802F051FA002701E06FF00207384647
:10B61000E3E72DE9F04104460D4616464FF0FF37AB
:10B6200004B11DB96FF00100BDE8F081606850B948
:10B630002068FFF782FE2860286808B1002717E01D
:10B640006FF0040714E03146606802F03BFA68B915
:10B650002068FFF772FE2860606802F025FA28680B
:10B6600008B1002704E06FF0040701E06FF0020763
:10B670003846D9E72DE9FC5F05460E461746984641
:10B68000DDE90C9A002400F093FA83460123082296
:10B69000042100F097FA0446FFF77AFF83460DB1C4
:10B6A000012000E0002001460FA3144A5846FFF78E
:10B6B00040FFFFF76DFF83460EB1012000E0002040
:10B6C00001460FA30D4A5846FFF733FF43463A465B
:10B6D00031462846CDE9009AFFF74CFE20600E98CF
:10B6E00060602046BDE8FC9F6974656D5F73697A90
:10B6F00065206973207A65726F0000008C7A0208F9
:10B700006361706163697479206973207A65726F0F
:10B71000000000002DE9F04104460E4615464FF0AA
:10B72000FF3714B97800BDE8F081606860B920681F
:10B73000FFF713FE28B931462068FFF7CAFE00273D
:10B7400019E06FF0050716E02946606802F0BAF9C3
:10B7500078B92068FFF701FE28B931462068FFF765
:10B76000B8FE002701E06FF00507606802F09CF961
:10B7700001E06FF002073846D5E770B504460D4684
:10B780004FF0FF360CB9700070BD606820B92068BA
:10B79000FFF77CFE00260EE02946606802F092F971
:10B7A00038B92068FFF772FE606802F07DF9002664
:10B7B00001E06FF002063046E6E72DE9F04104466D
:10B7C0000D4616464FF0FF3724B900202880801E12
:10B7D000BDE8F081606828B92068FFF7A4FE2880E2
:10B7E00000270FE03146606802F06CF940B920682C
:10B7F000FFF799FE2880606802F056F9002701E003
:10B800006FF002073846E3E7024808B1183870477E
:10B810000020FCE7A00000202DE9F04104462C4860
:10B8200090F8480010B12A48BDE8F08104B9294CCD
:10B83000207838B1606828B1A06818B1E06808B114
:10B84000206908B90020EFE7142221462048FDF7BF
:10B8500064FE1F48002101638186002500BF1DE0B2
:10B860000120A840C6B220783040B0420FD100F08D
:10B87000EFFD1749183141F82500154800214268AD
:10B8800068B290471248C16868B2884704E0002156
:10B890000F48183040F82510681CC5B2062DDFDBB4
:10B8A000FFF7D1FC0A49486101F000FF074601F0AB
:10B8B00007FF064606493346002248690649FFF756
:10B8C000D1FC0120024981F848000846ACE700009D
:10B8D000880000201C7C0208414B02082DE9FE4331
:10B8E00006460C4617461D460EB9BDE8FE83FF2CE2
:10B8F00003D0214850F8240000B9F6E71E4951F85A
:10B90000240000F093FD012804D11B4951F82400C4
:10B9100000F09CFE35B94FF0FF311748183040F861
:10B92000241004E069001448183040F8241012482C
:10B930001838816860B2884701F0B8FE814601F08E
:10B94000BFFE80460C4918394346224648690B49D8
:10B95000FFF788FC08481838406901227908CDE9CA
:10B9600000120290044951F8240005490CC900F066
:10B97000D5FD00BFB9E70000A0000020414B020840
:10B98000787A020870B504460D46002604B105B960
:10B9900070BD2946204600F04FF800B9F8E7204670
:10B9A00009F036F906469EB12946204609F04AF9C3
:10B9B0002946204609F002F92946A06909F03AF91A
:10B9C000A0612089401E2081208908B90020606084
:10B9D00000BFDDE72DE9F04104460D4600262F4665
:10B9E000B04604B115B90020BDE8F081204609F049
:10B9F0000FF906460FE03146204609F00CF9804663
:10BA0000A28939464046FDF717FD00B905E03046EA
:10BA100009F00AF90646002EEDD100BF3046E3E7F3
:10BA2000014609B90120704748890A89904201D12D
:10BA30000120F8E70020F6E770B506460C46002521
:10BA400006B10CB9002070BD304609F0E1F805469A
:10BA500007E0AC4201D10120F5E7284609F0E4F8FF
:10BA60000546002DF5D10020EDE700002DE9F05F3F
:10BA700005460F46164699460024A246A04600F009
:10BA800097F8834601231C22042100F09BF804460A
:10BA90000020206060602081FFF77AFD83460DB1B1
:10BAA000012000E00020014624A3294A5846FFF760
:10BAB00040FDFFF76DFD83460FB1012000E000203F
:10BAC000014624A3224A5846FFF733FD6781A5812A
:10BAD0000A9820610B9860614FF0000A28E000F09E
:10BAE00067F8834601231C22042100F06BF880468E
:10BAF000042D0FD900F05CF8834601232A46042167
:10BB000000F060F8C8F808004EB14946D8F80800BF
:10BB1000B04704E01EB1494608F10800B04741466D
:10BB2000A06909F087F8A0610AF101001FFA80FA04
:10BB3000BA45D4DB2046BDE8F09F00006974656D0E
:10BB40005F73697A65206973207A65726F000000FF
:10BB5000937A020863617061636974792069732064
:10BB60007A65726F0000000070B504460D4600262D
:10BB700004B105B970BD60892189884200D1F9E717
:10BB8000A6699EB1A06909F08CF8A0612A463146E9
:10BB9000204609F025F8208900B966603146206802
:10BBA00009F048F820602089401C208100BFE1E7AF
:10BBB0000348807C012801D1014870470020FCE740
:10BBC0004C0000202DE9F04707460E4614461D465E
:10BBD0004FF0000804B155B9FFF7DAFC814644A3E1
:10BBE000494A0121FFF7B4FC0020BDE8F087012E8F
:10BBF00006D0022E05D0042E0BD0082E19D110E04D
:10BC000017E0601C84B264104FF6FF7000EA440431
:10BC10000FE0E01C84B2A4104FF6FF7000EA840429
:10BC200007E0E01D84B2E4104FF6FF7000EAC404A0
:10BC300000BF00BF07BBFFF7ABFC814633A3324A0E
:10BC40000121FFF785FC05FB04F0394A516888475C
:10BC50008046B8F1000F07D1FFF79AFC814635A363
:10BC6000294A0321FFF774FC3148C06905FB040031
:10BC70002F49C8614046B8E72D48007CE0B1012853
:10BC800002D002281FD106E005FB04F0284A5168C3
:10BC90008847804617E0787C304206D02A46214605
:10BCA000304609F00DF8804605E005FB04F0204A17
:10BCB00051688847804606E02A462146304608F00B
:10BCC000FFFF804600BF00BFB8F1000F07D1FFF7AC
:10BCD0005FFC81461EA30C4A0321FFF739FC144880
:10BCE000C06905FB04001249C86140467DE70000B9
:10BCF000726571756573746564207A65726F206D05
:10BD0000656D6F7279000000C87A02086E6F74204A
:10BD1000696E697469616C69736564207965742EF4
:10BD2000207573696E672063616C6C6F63282900EE
:10BD30004C0000206E6F20616E796D6F7265206D12
:10BD4000656D6F72792066726F6D20686561700035
:10BD50006E6F206D656D6F727920616E796D6F7297
:10BD6000652066726F6D20686561700001462C4821
:10BD7000807C00284BD10120294A90740020D0619A
:10BD800031B92848106001201074274850603EE007
:10BD9000234801600878224A1074486810B1486846
:10BDA000506002E020481E4A50601D48007C012877
:10BDB0002DD0886838B11A48407C40F00100184AFC
:10BDC000507408899082086948B11548407C40F059
:10BDD0000200134A50740869C0F34F00D08288698A
:10BDE00048B10F48407C40F004000D4A5074886907
:10BDF000C0F38F001083086A48B10948407C40F0C6
:10BE00000800074A5074086AC0F3CF005083044802
:10BE1000406810B90448024A506001487047000069
:10BE20004C000020A07A02085161020803460BB1C1
:10BE300001B112B96FF00100704718680860988866
:10BE400010800020F8E7034613B96FF00100704737
:10BE500019609A800020FAE730B50446039D04B1CA
:10BE600015B96FF0010030BDE079012802D04FF024
:10BE7000FF30F8E72160A2800020A0712381638158
:10BE8000A381E081256100BFEDE770B50546002480
:10BE9000FFF78EFE0646012314220421FFF792FECF
:10BEA000044600202060A080A07120816581A081CF
:10BEB000E08105B907E0FFF77BFE064601232A462D
:10BEC0001946FFF77FFE20610DB9012000E0002038
:10BED000E071204670BD02464FF0FF330AB95800AA
:10BEE00070475089884205DB118191810020D08103
:10BEF000002308E050891081508990810020D08172
:10BF00000120907100231846EAE701460A46002006
:10BF100010609080907110819081D08170472DE9E0
:10BF2000F04105460E462C46374638682060B888F2
:10BF3000A08060893989884201DC012000E000206E
:10BF4000A071A07908B9388900E060892081208932
:10BF5000A0810020E081228939692069FDF798FAE3
:10BF60000020BDE8F0812DE9F04104460E4625464B
:10BF700000202860A880A8712881A881E8816E81AE
:10BF800006B907E0FFF714FE0746B3B201221146D7
:10BF9000FFF718FE28610EB9012000E00020E871CB
:10BFA0000020BDE8F08170B50024FFF701FE0546D2
:10BFB000012318220421FFF705FE0446FFF743F989
:10BFC000A060FFF740F9E060A068FFF78FF8E06835
:10BFD000FFF78CF8FF2020700020608060602074E4
:10BFE000032060740020A0746061204670BD70B5AD
:10BFF00005462846FFF794F904460CB9002070BDA9
:10C000006068FCE770B505462846FFF789F90446E5
:10C010000CB9FF2070BD2078FCE72DE9F05F814668
:10C020000E4617461D46DDE90BABDDF82880484675
:10C03000FFF776F904461CB96FF00100BDE8F09FE8
:10C040002670678000206060207484F811A084F856
:10C0500012B025B12946A068FFF751F802E0A068A8
:10C06000FFF744F8B8F1000F04D04146E068FFF74D
:10C0700046F802E0E068FFF739F80020DEE72DE936
:10C08000F04104460D4616464FF0FF3714B97800CC
:10C09000BDE8F08115B94FF0FF30F9E701F040FC41
:10C0A00080463246294601F045FC07463846EFE710
:10C0B0002DE9F84304460E46174600200090451E21
:10C0C00014B9801EBDE8F8832046FFF790FF206872
:10C0D000407C012801D1801EF4E72068807C012883
:10C0E0000BD101F01DFC80463A46214601F032FC9E
:10C0F000054615B16FF00200E4E76946E268606842
:10C10000FFF787FA054645B930460099FFF707FF64
:10C11000034960680968FFF730FB2846D2E7000052
:10C12000707A02082DE9FE4F05460F4690461E46DE
:10C13000DDE90C9A0024FFF73BFD83460123302202
:10C140000421FFF73FFD0446FFF722FA8346A819B2
:10C1500001D0012000E00020014621A3264A5846D4
:10C16000FFF7E7F9FFF71FFF20600DB900200AE095
:10C17000224823493B46234ACDE90108009129463C
:10C180001420FFF777FA60600EB900200AE01B4820
:10C190001B494B461B4ACDE9010A00913146142048
:10C1A000FFF768FAA06018480068E06000F050F9F6
:10C1B0002061164B0FCB18340FC4283CFFF743F80F
:10C1C000A06201F073FA029001F07AFA83465B46AE
:10C1D00022460F49A06AFFF745F82046BDE8FE8FCA
:10C1E0006174206C65617374206F6E6520706B7470
:10C1F0002071756575650000C07C02080BBF0108E1
:10C200001FBF010867BF0108707A0208B07C0208EE
:10C210005D4E02082DE9FE4F0446894615461E462E
:10C22000DDF830A04FF0FF3B1CB96FF00100BDE816
:10C23000FE8F012D01D0032D09D1A06838B9FFF779
:10C24000A7F907462AA3354A0021FFF772F9022D04
:10C2500001D0032D09D1606838B9FFF799F9074675
:10C260002FA32E4A0021FFF764F9606848B9012E18
:10C2700007D1FFF78DF90746344B284A0021FFF715
:10C2800058F9BAF1000F05D09AE80F0004F1180729
:10C290000FC704E02E4B0FCB04F118070FC720681F
:10C2A000007C10BB0E988DE861004A4600212046B4
:10C2B0000D9BFFF7B2FE01F033FB0746214601F06C
:10C2C00021FB8346BBF1000F0FD12420005D012824
:10C2D0000BD10122216AA06ACDE900120290D4E9B3
:10C2E00006733A46206900F019F958469FE70000A6
:10C2F000656F5F736F636B65746474675F4F7065C0
:10C300006E2829206E6565647320616E206F7574D8
:10C31000707574207175657565000000C07C020839
:10C32000656F5F736F636B65746474675F4F70658F
:10C330006E2829206E6565647320616E20696E70B9
:10C34000757420717565756500000000D47C020865
:10C35000B07C02082DE9FE4304460E464FF0FF353F
:10C3600014B96800BDE8FE832046FFF740FE10B90F
:10C370004FF0FF30F6E72068407C022801D1C01E54
:10C38000F0E73146D4E90202FFF7C4F905460DB1E2
:10C390002846E7E71748D4E90632D0E900105940AB
:10C3A000504001430AD1206A40B901F0B9FA07466A
:10C3B0001022214601F092FA054618E02420005D83
:10C3C000A0B9206900F032F8012801D1851E0EE0E5
:10C3D0000022216AA06ACDE900120290D4E9067316
:10C3E0003A46206900F09AF8054600E00025284604
:10C3F000B8E70000787A020870B504460D464FF0A1
:10C40000FF3604B115B96FF0010070BD2068407CA3
:10C41000012803D100202880401EF6E72946E26863
:10C420006068FFF7CAF906463046EEE7014600208D
:10C43000002211B10B7E03F003020AB9002304E0CD
:10C44000012A01D1012300E00223184670470000B1
:10C450002DE9F04100240025661EFFF7A9FB0746E1
:10C46000012330220421FFF7ADFB044600212046C2
:10C4700000F01AF901F04CFD05463DB9FFF788F8C8
:10C4800007460BA3154A0021FFF753F8214628461B
:10C4900001F048FD06463EB1FFF77AF8074610A3C3
:10C4A0000E4A0021FFF745F82046BDE8F081000064
:10C4B000656F5F74696D65725F4E657728292063CB
:10C4C000616E6E6F7420676574207468652074698E
:10C4D0006D6572206D616E6167657200D87A0208C1
:10C4E000696E20656F5F74696D65725F4E65772850
:10C4F00029207468652074696D6572206D616E61B4
:10C500006765722063616E6E6F7420696E69742056
:10C510007468652074696D65720000002DE9F84F3C
:10C52000044615461E46DDE90B890A9F6FF0050B90
:10C530004FF0000A01F0ECFC8246BAF1000F02D085
:10C54000B9F1000F07D1FFF723F82FA33B4A0021D1
:10C550000090FEF7EEFF3A4903C968407140084376
:10C5600008D03FB9FFF714F8364B344A0021009049
:10C57000FEF7DFFF34480168504601F0F9FC10F186
:10C58000030F02D15846BDE8F88F2D4903C9684012
:10C590007140084313D0B8F1000F10D101F0ECFA4C
:10C5A000009001F0FBFAEB1946F10002C01A91412C
:10C5B00005D3504601F0C4FC4FF0FF30E3E72046BE
:10C5C000FFF734FF01281AD0207E20F003002076E8
:10C5D000B8F1000F01D0012000E00020217E60F3BF
:10C5E00082012176C4E90056A76099E80F001C3447
:10C5F0000FC42C3C2146504601F07CFC834650463B
:10C6000001F09EFC5846BEE7656F5F74696D657208
:10C610005F5374617274282920666F756E6420619F
:10C62000204E554C4C20706F696E7465722061739A
:10C6300020617267756D656E74000000D87A02081B
:10C64000787A0208E07A0208707A020870B5044627
:10C650006FF00506002501F05BFC054605B114B935
:10C660006FF0010070BD0F480168284601F080FCA2
:10C6700010F1030F01D13046F4E72046FFF7D6FE54
:10C68000012805D12146284601F064FC064604E055
:10C690000021204600F034F80026284601F050FC26
:10C6A0003046DFE7707A020810B509B9002304E0CC
:10C6B000012901D1012300E002231A46E0B10F4B0A
:10C6C00018CBC0E9003400238360C360037E62F3AB
:10C6D00001030376037E23F004030376037E23F035
:10C6E000F803037600230361002404614461C361FD
:10C6F000036243628362037710BD0000787A020808
:10C7000010B509B9002304E0012901D1012300E09B
:10C7100002231A46B8B1037E62F301030376037E57
:10C7200023F004030376037E23F0F8030376064B1D
:10C7300018CBC0E9003400238360C360C361036287
:10C7400043628362037710BD787A020810B54FF414
:10C750000070FFF79AFB064908604FF40071044827
:10C760000068FFF7B8FB034800F02CF810BD00008C
:10C7700030000020714E020810B504460D480078C4
:10C7800018B10D480068844210D00C482146026858
:10C790000B480068FFF773FC28B9074804600120C4
:10C7A0000449087002E0002002490870014800783E
:10C7B00010BD00002000002024000020687A02083C
:10C7C0000C00002001490860704700001C00002098
:10C7D00030B58BB0FFF7BAFF0021084602F02CFFFE
:10C7E0000021012002F028FF0021022002F024FF96
:10C7F0000021032002F020FF0021042002F01CFF92
:10C80000FFF726FE22490860FEF71DFD214908605A
:10C8100000F0D2F8054600F0D9F80446234600227D
:10C820001D491C480068FEF71DFD1A4800680121DB
:10C830001A4ACDE90021029019480CC81448006832
:10C84000FFF76CFE1422174906A8FCF766FE06A83F
:10C85000FEF7E2FFFEF7D8FF04460023124A052147
:10C86000FFF73CF811A014490022144B1B68CDE9D6
:10C870000232CDE9041012491346CDE900124FF4FB
:10C8800000626421052000F01DFC0BB030BD0000EB
:10C8900000000020040000209D67020820A107007E
:10C8A000787A02080878020880841E007065726930
:10C8B0006F646963000000003D700208687A020836
:10C8C0003D62020810B504460848046048F235226B
:10C8D0000748016805480068FFF7B5FA0348016892
:10C8E00004480068FFF736FD10BD0000140000206A
:10C8F000240000200C00002010B586B00021FF208D
:10C9000005F0DCFB17490860002017490870FEF7A6
:10C910003FFE04461348006808B1012000E00020F3
:10C92000014612A316A22046FEF703FE1AA01D49D7
:10C9300000221D4B1B68CDE90232CDE90410062010
:10C940001A491B4B4FF40062CDE90010642101200D
:10C9500000F0B8FB1749086008460068086006B098
:10C9600010BD0000080000202000002073656D61EC
:10C9700070686F7265206973204E554C4C00000042
:10C980006170706C62617369635F73706563696124
:10C990006C6973650000000075647073657276657C
:10C9A0007200000049700208707A0208F5670208F8
:10C9B0005D680208180000200348406808B900209C
:10C9C00070470148FCE7000078000020014609B9E3
:10C9D0000020704701484068FBE700007800002015
:10C9E00030B587B004462748406810B1254807B0E5
:10C9F00030BD04B9244CFEF7CBFD0546207908B1C3
:10CA0000012000E00020014620A3274A2846FEF727
:10CA100090FDFEF7BDFD0546608808B1012000E0ED
:10CA20000020014621A3204A2846FEF782FDFEF79A
:10CA3000AFFD0546207808B1012000E00020014646
:10CA400021A3194A2846FEF774FD26A02749002293
:10CA5000274B1B68CDE90232CDE904102079254926
:10CA6000CDE90010628821780023042000F02AFB21
:10CA700004494860084641681F4800F027FE014805
:10CA8000B5E7000078000020767B020863626B6DDA
:10CA9000616E6366672D3E717565756573697A654C
:10CAA00020697320300000007C7B020863626B6D9C
:10CAB000616E6366672D3E737461636B73697A653B
:10CAC000206973203000000063626B6D616E6366E5
:10CAD000672D3E7072696F726974792069732030B6
:10CAE0000000000063626B6D616E0000257002083B
:10CAF000707A0208594F02082D4F020810B50446FB
:10CB000014B96FF0010010BD0249086800F0D6FEAC
:10CB1000F9E70000C80300202DE9F04186B0044683
:10CB20000F4615461E467F48006818B17D4806B07E
:10CB3000BDE8F08104B97C4CFEF72AFD80460FB1B8
:10CB4000012000E00020014678A37C4A4046FEF721
:10CB5000F0FCFEF71DFD8046606808B1012000E092
:10CB60000020014676A3754A4046FEF7E2FCFEF738
:10CB70000FFD8046608808B1012000E000200146DA
:10CB800077A36E4A4046FEF7D4FCFEF701FD8046CF
:10CB9000207808B1012000E00020014678A3674A10
:10CBA0004046FEF7C6FC06B97C4EFEF7F1FC804617
:10CBB000707808B9307808B9012000E000200146FB
:10CBC000774B5E4A4046FEF7B4FC76487649774A92
:10CBD000CDE9002102903078754B764A002100F0B3
:10CBE000CDFE504908600021022005F067FA4D494A
:10CBF0000862FEF7CDFC80464A48006A08B1012071
:10CC000000E0002001466CA34C4A4046FEF791FC30
:10CC100005F07AF94349C860FEF7BAFC80464148FE
:10CC2000C06808B1012000E00020014668A3434A23
:10CC30004046FEF77EFCFFF70BFC3A494862FEF7E0
:10CC400002FB384988627078A0B1707805F0A0F8CE
:10CC500034494863FEF79CFC80463248406B08B17B
:10CC6000012000E0002001465FA3344A4046FEF761
:10CC700060FC02E000202B494863D822394629484D
:10CC80003830FCF74AFCB5B100210846D5E900323E
:10CC900059405040014304D02248D5E90021C0E961
:10CCA0001221A86810B11F48A9680165E86810B191
:10CCB0001C48E96841650020FFF7E7F81949C86298
:10CCC0004F4800680863207A81F810010846FFF792
:10CCD00015FF4CA14E4A00236068CDE9033205914F
:10CCE00002904C49CDE90013628821784A4B01201B
:10CCF00000F0E8F90B49486048A14B4A0023094875
:10CD0000C06BCDE90332059102904849CDE900138B
:10CD10006289617A052000F0D5F9024988600846E9
:10CD200005E70000C8030020307C020869706366D4
:10CD300067206973204E554C4C000000507C02085F
:10CD400069706E65746366672D3E70726F636D61A6
:10CD50007869646C6574696D6520697320300000C2
:10CD600069706E65746366672D3E70726F6373746D
:10CD700061636B73697A652069732030000000007D
:10CD800069706E65746366672D3E70726F63707252
:10CD9000696F726974792069732030003C7C0208E5
:10CDA000607C0208C1520208794F0208F14F020864
:10CDB000515102089D5002086F73616C2063616ECF
:10CDC0006E6F74206769766520612073656D000061
:10CDD0006F73616C2063616E6E6F74206769766536
:10CDE0002061206D747800006F73616C2063616E48
:10CDF0006E6F7420676976652061206D7100000098
:10CE0000707A020869706E65742E70726F6300002C
:10CE100031CE0108195802088958020869706E65F8
:10CE2000742E7469636B00003DCE010895580208AA
:10CE300010B50446204600F083FB10BD10B5044633
:10CE4000204600F07DFB10BD70B50024FEF7B0FE5B
:10CE50000546012308220421FEF7B4FE044600F033
:10CE600043FE20600B4A0C49206800F04DFE05F09F
:10CE70004BF86060FEF78CFB0546606808B1012046
:10CE800000E00020014605A30B4A2846FEF751FBAF
:10CE9000204670BDA1580208AF5802086F73616C3C
:10CEA0002063616E6E6F7420676976652061206D06
:10CEB0007574657800000000647B020810B50446B4
:10CEC00014B96FF0010010BD204608F0E9FCFAE744
:10CED00070B504460D4614B96FF0010070BD2946C7
:10CEE000204608F0E4FCF9E70348006808B9002090
:10CEF00070470148FCE70000A00300202DE9F04F37
:10CF000087B004460D4616461F46DDF840900020C7
:10CF1000069082463F48006818B13E4807B0BDE819
:10CF2000F08FFEF735FB83460CB1012000E00020B6
:10CF3000014639A33C4A5846FEF7FBFAFEF728FBA8
:10CF40008346606808B1012000E00020014637A355
:10CF5000354A5846FEF7EDFAFEF71AFB8346A068FD
:10CF600008B1012000E00020014636A32E4A5846B1
:10CF7000FEF7DFFA39483A493A4A3B4BCDE90032ED
:10CF8000CDE90210394B3A4A3146284600F01AFEE4
:10CF90002049086060684860A06888600846C760EB
:10CFA000C0F8109000200590804605A9606801F047
:10CFB000FFF9059850B1FEF7FBFD8346059882B254
:10CFC000012304215846FEF7FDFD80464146606876
:10CFD00001F0E6F802F02CFD206810B1206802F0A4
:10CFE00043FD0C49886806A904F038FD069850B145
:10CFF000FEF7DEFD8346069882B2012308215846DB
:10D00000FEF7E0FD824603498868514604F08CFB38
:10D01000004883E7A0030020737973636667206983
:10D0200073204E554C4C0000947B02087379736357
:10D0300066672D3E68616C636667206973204E5594
:10D040004C4C00007379736366672D3E6F73616C9F
:10D05000636667206973204E554C4C00CDF901087A
:10D0600079210208D1220208752102085F4F0208C7
:10D07000C158020870B504460D46FEF789FA064607
:10D080000CB1012000E00020014604A30C4A304608
:10D09000FEF74FFA284608F013FC70BD656F6D5F10
:10D0A0007379735F53746172742829207573657383
:10D0B0002061204E554C4C2068616E646C65000008
:10D0C000947B02082DE9F04F9BB080460D46164632
:10D0D0009A46DDE924B9269F002400200790FEF738
:10D0E00057FA0690BBF1000F01D0012000E00020AC
:10D0F0000146CAA3CE4A0698FEF71BFAFEF748FA85
:10D1000006900EB1012000E000200146C9A3C84AE4
:10D110000698FEF70EFAFEF74BFD012324220421A8
:10D120000690FEF74FFD044600F000FE20602798B1
:10D130002062B8F1060F74D2DFE808F003244567D7
:10D14000A1E90020A074C04860610020A061E061F6
:10D150002074A060E060BD48002102910391CDE9F8
:10D1600004100846BA49CDE90010BA4B5A46514658
:10D17000206800F00DFEB8A3BAA2092108A8FCF7A8
:10D1800079F8ECE00120A074B7486061A761002045
:10D19000E0612074A060E060AC480021029103913E
:10D1A000CDE904100846AA49CDE90010A94B5A461A
:10D1B0005146206800F0ECFDACA3AAA2092108A802
:10D1C000FCF758F8CBE00220A074AB486061A7617F
:10D1D000C4F81C9000202074A060E0609B480021EF
:10D1E00002910391CDE9041008469949CDE9001058
:10D1F000984B5A465146206800F0CAFD9BA399A25D
:10D20000092108A8FCF736F8A9E00320A0749B4880
:10D210006061A7610020E061B9F1000F02D1012037
:10D2200001E093E048462074207C04F0B1FDA0604A
:10D230000020E060FEF7ACF90690A06808B101207C
:10D2400000E0002001468EA3794A0698FEF771F9A6
:10D250007E480021934BCDE90231CDE9041092487C
:10D26000CDE900100B465A465146206800F090FD6B
:10D270008EA37CA2092108A8FBF7FCFF6FE0042025
:10D28000A0748D486061A7610020E061B9F1000FD2
:10D2900001D1012000E048462074207C04F078FD94
:10D2A000A060207C04F074FDE060FEF771F9069048
:10D2B000A06808B1012000E00020014670A35C4A8C
:10D2C0000698FEF736F9FEF763F90690E06808B1B4
:10D2D000012000E00020014669A3554A0698FEF7A8
:10D2E00028F95A487549764A0023CDE9023200935D
:10D2F0000193CDE904105A465146206800F048FDDC
:10D3000070A358A2092108A8FBF7B4FF27E0052065
:10D31000A0746F486061A7610020E0612074A06084
:10D32000E0604A48002102910391CDE90410009188
:10D3300001910B465A465146206800F029FD65A32D
:10D3400048A2092108A8FBF795FF08E0FEF720F99D
:10D3500063A3374A03210690FEF7FAF800BF00BF27
:10D36000FB2D03DA022D01DD657405E0022D01DAE3
:10D37000022000E0FB206074F01DC11700EB51712A
:10D38000CE104FF6FF7000EAC606289858B1627CAE
:10D3900033462146289804F0FBFF60602146606810
:10D3A00004F0B6FF0AE0627C33462146606904F06F
:10D3B000EFFF60602146606804F0AAFFFEF7E8F81E
:10D3C0000690606808B1012000E0002001464AA3F1
:10D3D000174A0698FEF7ADF84D480078401C4C49B6
:10D3E000087007A9606804F0BCFF08A99DF81C201C
:10D3F00029988DE8250003914548037845A23F21EF
:10D400000BA8FBF737FFFEF7C3F80BAA08490690F5
:10D41000FEF7C2F820461BB0BDE8F08F72756E5F54
:10D42000666E2829206973204E554C4C0000000080
:10D430006D7B0208737461636B2073697A65206980
:10D4400073207A65726F00000D5B02089359020821
:10D45000F95A0208155A0208757365722D646566DB
:10D460000000000025730000235902086576742D22
:10D470006472766E00000000DD580208295A020826
:10D480006F73616C2063616E6E6F7420676976657F
:10D490002061206D657373616765207175657565C1
:10D4A00000000000D35A0208F55902086D73672D79
:10D4B0006472766E000000004D590208875A020817
:10D4C000AB590208616374762D6472766E000000B9
:10D4D0005B5A0208706572696F646963000000003E
:10D4E000756E737570706F72746564207461736BA0
:10D4F00020747970650000006F73616C2063616E49
:10D500006E6F7420676976652061207461736B00AB
:10D51000740000202325643A2025732C20696420A0
:10D5200025642C2070722025642C202573000000B7
:10D5300070B504460D462946204600F0C9FC70BD72
:10D5400010B5044614B120466169884710BD70B516
:10D5500004460D462946204600F06CFC70BD70B5AF
:10D5600004460D462946204600F076FC70BD0000BA
:10D5700030B587B004462A48006810B1284807B083
:10D5800030BD04B9274CFEF703F80546207908B1F1
:10D59000012000E00020014623A32C4A2846FDF785
:10D5A000C8FFFDF7F5FF0546608808B1012000E0DF
:10D5B0000020014626A3254A2846FDF7BAFFFDF7BD
:10D5C000E7FF0546207808B1012000E00020014671
:10D5D00026A31E4A2846FDF7ACFFFFF735FC05469B
:10D5E0002B46294A29492A4800F0CEFC0C490860FC
:10D5F00028A02B4900222B4B1B68CDE90232CDE934
:10D60000041020792849CDE9001062882178002390
:10D610000320FFF757FD024948600846AFE70000C6
:10D6200080000020007C0208746D726D616E63667C
:10D63000672D3E6D6573736167657175657565739B
:10D64000697A65206973203000000000067C0208BA
:10D65000746D726D616E6366672D3E737461636B8A
:10D6600073697A652069732030000000746D726DF3
:10D67000616E6366672D3E7072696F72697479209E
:10D680006973203000000000415D0208E15B020880
:10D69000B15C020874696D65726D616E0000000016
:10D6A00031700208707A0208815D02080348006840
:10D6B00008B9002070470148FCE700006C0000201A
:10D6C000014609B9002070474868FCE770B5044678
:10D6D0000D461248006808B1104870BDFDF758FFAC
:10D6E00006460CB1012000E0002001460CA3124ABE
:10D6F0003046FDF71EFFFDF74BFF06460DB101203A
:10D7000000E0002001460DA30B4A3046FDF711FF53
:10D7100002480460456000BFDFE700006C000020A5
:10D72000657865637574655F666E28292069732066
:10D730004E554C4C000000002E7B02087461736B48
:10D74000206973204E554C4C000000002DE9F0413B
:10D7500005460E462846FDF7E3FD070002D1801E70
:10D76000BDE8F081BC6831462846A047F8E770B5AF
:10D7700005462846FDF7D4FD060001D1801E70BD88
:10D7800034682846A047FAE72DE9F04704460D46DD
:10D7900016461F46DDF820802848006810B127484B
:10D7A000BDE8F087FDF7F4FE81460CB1012000E0F2
:10D7B0000020014622A3294A4846FDF7BAFEFDF79C
:10D7C000E7FE81460DB1012000E00020014624A3C0
:10D7D000224A4846FDF7ADFEFDF7DAFE81460EB15E
:10D7E000012000E00020014624A31C4A4846FDF722
:10D7F000A0FEFDF7CDFE81460FB1012000E0002024
:10D80000014623A3154A4846FDF793FEFDF7C0FEE7
:10D810008146B8F1000F01D0012000E00020014650
:10D8200021A30E4A4846FDF784FE04480460456083
:10D830008660C760C0F8108000BFB1E7E004002038
:10D84000736861726564646174615F73796E632883
:10D8500029206973204E554C4C000000447D02087D
:10D8600070726F635F6F66667365745F6765742857
:10D8700029206973204E554C4C00000069706E657C
:10D88000745F6765742829206973204E554C4C00DD
:10D8900063616E6E65745F67657428292069732003
:10D8A0004E554C4C000000006570726F635F6765F9
:10D8B000742829206973204E554C4C0010B504463D
:10D8C00014B96FF0010010BD012084F8200001227E
:10D8D0002146204600F002F80020F4E72DE9F0414F
:10D8E00004460E4617461CB96FF00100BDE8F081F2
:10D8F000A56815B94FF0FF30F8E73A4631462046A3
:10D90000A847F3E770B504460D4604B115B96FF0AA
:10D91000010070BD266829462046B047F9E700009F
:10D920000348006808B9002070470148FCE7000080
:10D93000D80000202DE9F04104460E4617461CB9D8
:10D940006FF00100BDE8F081E5683A4631462046B7
:10D95000A847F7E72DE9F04104460E4617461CB9E3
:10D960006FF00100BDE8F081256915B94FF0FF3077
:10D97000F8E73A4631462046A847F3E72DE9FC5F31
:10D9800004460E4615461F46DDE90D8ADDF8309047
:10D990002A48006810B12948BDE8FC9F34B9FDF75A
:10D9A000F7FD834626A23049FDF7F6FDFDF7F0FDB1
:10D9B00083460DB1012000E0002001462BA32A4A36
:10D9C0005846FDF7B6FDFDF7E3FD83460DB1012096
:10D9D00000E0002001462AA3234A5846FDF7A9FD8E
:10D9E000FDF7D6FD8346B8F1000F01D0012000E01D
:10D9F0000020014627A31C4A5846FDF79AFD0F4810
:10DA000005604760C0F80890C0F80C80C0F810A00E
:10DA10000CB9002008E00020009003460246214691
:10DA200001900420FEF722F8044988610846C66187
:10DA3000012081F820000846AEE70000D800002051
:10DA40002E2E2E205A45524F20454F736F636B6523
:10DA500074446174616772616D2061726520696EE2
:10DA60006974746564000000167D02086174746155
:10DA700063685F666E2829206973204E554C4C0000
:10DA80006465746163685F666E2829206973204E3F
:10DA9000554C4C006172705F666E282920697320B6
:10DAA0004E554C4C0000000070B506463046FDF760
:10DAB00037FC044614B96FF0010070BD656830464C
:10DAC000A847FAE72DE9F04106460F463046FDF734
:10DAD00027FC04461CB96FF00100BDE8F081256801
