:020000040802F0
:10000000D8690120B5040208BD040208BF04020833
:10001000C1040208C3040208C5040208000000006D
:100020000000000000000000000000009D03020826
:10003000C9040208000000003D040208A1040208EF
:10004000CF040208CF040208CF040208CF0402083C
:10005000CF040208CF040208CF040208CF0402082C
:10006000CF040208CF040208CF040208CF0402081C
:10007000CF040208CF040208CF040208CF0402080C
:10008000CF040208CF040208CF040208CF040208FC
:10009000CF040208CF040208CF040208CF040208EC
:1000A000CF040208CF040208CF040208CF040208DC
:1000B000CF040208CF040208CF040208CF040208CC
:1000C000CF040208CF040208CF040208CF040208BC
:1000D000CF040208CF040208CF040208CF040208AC
:1000E000CF040208CF040208CF040208CF0402089C
:1000F000CF040208CF040208CF040208CF0402088C
:10010000CF040208CF040208CF040208CF0402087B
:10011000CF040208CF040208CF040208CF0402086B
:10012000CF040208CF040208CF040208CF0402085B
:10013000CF040208D5250208CF040208CF04020824
:10014000CF040208CF040208CF040208CF0402083B
:10015000CF040208CF040208CF040208CF0402082B
:10016000CF040208CF040208CF040208CF0402081B
:10017000CF040208CF040208CF040208CF0402080B
:10018000CF040208CF04020800F002F800F0B6F82D
:100190000AA090E8000C82448344AAF10107DA45E2
:1001A00001D100F0ABF8AFF2090EBAE80F0013F07E
:1001B000010F18BFFB1A43F0010318479C340100DC
:1001C000BC3401000023002400250026103A28BF7B
:1001D00078C1FBD8520728BF30C148BF0B607047B9
:1001E000642901F07F82782901F0B882732901F037
:1001F000FE860020704710B510BD000070477047A4
:1002000002020217E0C7CD29000002080000060024
:1002100000000020C0FF01000000000000000000FE
:1002200001654170706C50524F4775706461740085
:1002300000010000000000004558540000000000CC
:1002400044656320313320323031362031343A3046
:10025000323A3334000000000000000000000000CB
:10026000000000000000000000000000000000008E
:10027000000000000000000000000000000000007E
:100280000A444FF0000C10F8013B13F0070408BFBC
:1002900010F8014B1D1108BF10F8015B641E05D05A
:1002A00010F8016B641E01F8016BF9D113F0080F0F
:1002B0001EBF10F8014BAD1C0C1B09D16D1E58BFA1
:1002C00001F801CBFAD505E014F8016B01F8016BD8
:1002D0006D1EF9D59142D6D370471FB512F052FB6F
:1002E0009DE8030001F074FD02F027F904000020EE
:1002F000002112F09BF8401C60601FBD02F0B3F8B3
:100300001146FFF7EAFF09F079FF02F0D9F803B4CC
:10031000FFF771FF03BC02F009F9000000487047C5
:10032000002000000048704700A00000401EFDD1E2
:100330007047000080F309887047EFF30980704729
:10034000684680F3098804480078C00714BF02207B
:10035000032080F31488704748030020DFF818C09A
:10036000EFF305831B0618BF6047EFF31483DB0729
:1003700008BF604700DF704765C20208DFF818C099
:10038000EFF305831B0618BF6047EFF31483DB0709
:1003900008BF604700DF7047DDC20208EFF3098045
:1003A000816911F8021C99BB90E80F1010B5E04765
:1003B000BDE81040EFF3098C8CE807001C4B93E874
:1003C0000600914208BF704781B11EF0100F06BFB2
:1003D0002CED108A0120002081F838002CE9F00F64
:1003E000C1F83CC00CB40DF03DFB0CBC1A60D2F857
:1003F0003CC0BCE8F00F92F8380000281ABFBCECF3
:10040000108A6FF0120E6FF0020E8CF3098870479D
:1004100010B5084A1268914209D8074C54F8214097
:1004200090E80F10A047EFF3098C8CE80F0010BD87
:1004300058020020842502088425020810B50DF01A
:100440000BFABDE81040154B93E80600914208BF37
:100450007047EFF3098C1EF0100F06BF2CED108AC9
:100460000120002081F838002CE9F00FC1F83CC0D1
:100470000CB40DF0F7FA0CBC1A60D2F83CC0BCE822
:10048000F00F92F8380000281ABFBCEC108A6FF009
:10049000120E6FF0020E8CF309887047580200208C
:1004A00010B50DF003FBCCE710B50AF0EDFC0DF034
:1004B000FDFAC6E70948804709480047FEE7FEE71E
:1004C000FEE7FEE7FEE7FEE7FEE7FEE7FEE7FEE704
:1004D00004480549054A064B70470000F52D0208FF
:1004E00089010208D8A90020D8690120D849012033
:1004F000D8490120F7B514466E46002914BF0125DE
:10050000002588480078E8B100F07AFA294630469C
:1005100002F05CFEC5B2012C0DD183480099834CDA
:10052000C0F82610014620684022001D01F02AFB79
:10053000206800F03DFE00F06DFA012D02BF0020A2
:1005400003B0F0BD4FF0FF3003B0F0BD38B56C46DE
:100550000090002914BF012500257248007860B181
:1005600000F04EFA2946204602F030FEC4B200F0F8
:1005700051FA012C04BF002038BD4FF0FF3038BDC8
:100580002DE9F34767480D46E94600784FF0FF37FD
:10059000F0B1674E3088D8B100F032FA30880024CC
:1005A000002888BFDFF88C810FD900BFC4EBC400DE
:1005B00008EB4000042249460A3001F0B7FA60B166
:1005C000601CC4B230888442F0D300F023FA11E0FA
:1005D00002B04FF0FF30BDE8F087C4EBC40008EB79
:1005E0004000041D00F016FA00271DB120682860A5
:1005F000A088A88002B03846BDE8F0872DE9F14315
:100600004848E8464FF0FF360078E8B1484D288862
:10061000D0B100F0F5F928880024002888BF454FA4
:100620000FD900BFC4EBC40007EB400004224146D1
:100630000A3001F07BFA58B1601CC4B228888442A9
:10064000F0D300F0E7F919E04FF0FF30BDE8F88390
:10065000C4EBC40007EB4000041D00F0DBF90622E8
:100660003549204601F062FA58B106223349204646
:1006700001F05CFA002818BF002602D03046BDE821
:10068000F8834FF0FF36F9E70020704700207047ED
:1006900010B5254CFF21204602F0E4FB28484FF41A
:1006A000C1634FF0080C0169C4F80610828A6281A8
:1006B000A3814FF48073E381A4F810C04FF0060CBF
:1006C00084F812C04FF0040C84F813C0A382C4F85D
:1006D000161062838069E06104F1200002F0BEFB25
:1006E0000020C4F82600C4F82A00C4F82E00C4F87C
:1006F0003200C4F836000D4AC4F83A00E08704F12D
:10070000400111602A220A80488010BD90F8201014
:10071000202984BF4FF0FF30704710B500F0F3FC84
:10072000002010BDB8010020F8890020B001002091
:1007300012020020308D0020302E0308362E0308D0
:10074000808A0020B84A126F02B11047FEE770B5E8
:100750000C46B8B10546FFF797FF0646284600F05D
:1007600091FC0644284600F029FA0644284600F089
:100770006CFA0644284600F067FC3044002C18BF91
:10078000206070BDE120A84AA8A1126F12B1904765
:10079000002070BDFEE710B5A34C606F002808BFB5
:1007A00010BD80470028AB49086018BF10BDE0208D
:1007B000226FA9A112B1BDE810401047FEE770B545
:1007C000A44D416F81B1816F974C00291FBFC16F4C
:1007D0000029D0F8800000280DD0606F002818D0C4
:1007E0008047286080B114E000218167C167C0F8AC
:1007F000801029600DE0226FE320A7A11AB1904775
:100800004FF0FF3070BDFEE7226FE02092A112B1E1
:100810009047002070BDFEE710B5D821824801F056
:1008200052FA8C490020086010BD2DE9F0417E4C41
:100830008846050007D02A6F2267287850B1E42047
:10084000A0A132B12EE0226FE120ABA1002A29D174
:10085000FEE7FEE7B1480078012804D02846FFF7FC
:1008600055FF20B11AE0E020ADA1DAB9FEE7D821AA
:100870006D4801F028FA774F002628463E6000F0C8
:100880001EFC58B9284600F09FF938B9284600F0F8
:10089000E2F918B9284600F0DDFB40B1AA49226F01
:1008A000E3205AB190474FF0FF30BDE8F081414658
:1008B0002846FFF7EBFE002875D100E0FEE728464A
:1008C000FFF7E2FE20F0030080444146284600F096
:1008D000DBFB002867D1284600F0D4FB20F00300A2
:1008E00080444146284600F06BF900285BD1284639
:1008F00000F064F920F0030080444146284600F0EF
:10090000A6F900284FD1284600F09FF920F00300F7
:1009100000EB0801284600F099FB002843D1284647
:1009200000F092FBD82229463F4801F070F93E4D75
:100930002846FFF7ADFE002835D1686F60B1A96F7A
:1009400000291FBFE96F0029D5F88010002909D0C0
:100950008047386068B111E0AE67EE67C5F8806027
:100960003E600BE0226FE3204BA10AB190471AE0F2
:10097000FEE7226FE02038A12AB19047284600F018
:1009800085FB80B900E0FEE7284600F01BF950B96E
:10099000284600F05EF930B9284600F059FB0028DF
:1009A00008BFBDE8F0814FF0FF30BDE8F08170B5C1
:1009B00004000D4616D0FFF767FE0646204600F0FD
:1009C00061FB0644204600F0F9F80644204600F09A
:1009D0003CF90644204600F037FB3044002D18BF98
:1009E000286070BDE120104A10A1126F12B190472B
:1009F000002070BDFEE718E7002070470020704718
:100A000014480068002808BF7047074AD2F88010D1
:100A1000926F10470F480068002808BF70470249CE
:100A2000C96F084700687047808A00206970616C50
:100A30005F626173655F6D656D6F72795F67657425
:100A400073697A652829206E656564732061206367
:100A500066670000B40100206970616C5F626173B9
:100A6000655F6869645F7468726561647361666517
:100A700074795F696E697428293A2063616E6E6FBC
:100A80007420616C6C6F6361746520746865206D9F
:100A900075746578000000006970616C5F62617355
:100AA000655F696E697469616C6973652829206E78
:100AB00065656473206F73616C2066756E6374691D
:100AC0006F6E73006970616C5F626173655F696E00
:100AD000697469616C69736528293A20756E73754C
:100AE00070706F72746564207463702F6970207306
:100AF0007461636B000000006970616C5F62617318
:100B0000655F696E697469616C69736528293A204B
:100B10006D697373696E672063666700B8010020B2
:100B20006970616C5F626173655F696E6974696148
:100B30006C69736528293A20616C7265616479205B
:100B400073746172746564003835030831B52448E4
:100B50006C46007838B1234890F82C0018B19DF805
:100B60000000EF2802D04FF0FF3038BDFFF748FFFC
:100B7000204608F091FE002814BF00244FF0FF34F7
:100B8000FFF748FF204638BD31B515486C46007860
:100B900088B1144890F82C0068B1FFF731FF204667
:100BA00008F0A2FE00280CBF4FF0FF340024FFF72E
:100BB00031FF204638BD4FF0FF3038BD0020704770
:100BC000002070470020704790F82D10062984BF40
:100BD0004FF0FF30704710B500F016FB002010BD3D
:100BE000B8010020808A0020224810B5406848B132
:100BF0002148017801290CD00121017009F0E4F8A5
:100C0000002010BD1DA1E120FFF79CFD4FF0FF303B
:100C100010BD24A1E020FFF795FD4FF0FF3010BD7F
:100C200010B5FFF7EDFE09F007FBBDE81040FFF738
:100C3000F1BE10B5FFF7E4FE11F010FABDE8104068
:100C4000FFF7E8BE0B48406870470020704700205F
:100C50007047002070470189B1F5C05F84BF4FF035
:100C6000FF30704710B50021034A117000F024FBDB
:100C7000002010BD808A0020B80100206970616CDE
:100C80005F7379735F737461727428293A206D6998
:100C90007373696E6720636F6E66696775726174DE
:100CA000696F6E006970616C5F7379735F737461F3
:100CB000727428293A2063616E6E6F7420737461B8
:100CC000727420616761696E0000000008B1062837
:100CD00001D900207047F0B515460A46E64900EBF9
:100CE000400085B001EBC000A0F1180450F8080CDA
:100CF0000A9F1E4698B11046FFF794FE0346E0682F
:100D000020B1984204BF2089A84208D10396ADF8CB
:100D100008700095D4E904C002AA2146E04705B056
:100D20000020F0BD4107090EC0F3C00241EA0211E4
:100D3000C0F3001210B541EAC201C0F3401041EA0D
:100D40008004CE480078002808BF10BDFFF758FE89
:100D5000CB4A0121204611F0A5F9C0B1C64900EBEC
:100D6000400201EBC20404F8180C002024F8160C11
:100D700044F8140C24F8100C44F80C0C44F8080C3B
:100D800044F8040CFFF746FEA4F1180010BDFFF76D
:100D900041FE002010BD70B504001CBF2078002863
:100DA00021D0FFF72DFE6088002518B1207811F0C2
:100DB0005BF96580207811F0D7F906462078AE49B6
:100DC00000EB400001EBC00000F8185C2570658066
:100DD00065602581E56025616561FFF71BFE002EDA
:100DE0001CBF002070BD4FF0FF3070BD70B51546C0
:100DF0000E4604001DBF20780028002D4FF0FF3064
:100E000008BF70BDFFF7FCFD608820B1207811F0AD
:100E10002BF9002060809849002000BF00EB4002C1
:100E200001EBC2025288AA4210D0401CC0B2062870
:100E3000F4D32078294611F059F910F0FF0F05D0AE
:100E400065806660FFF7E6FD002070BDFFF7E2FDFC
:100E50004FF0FF3070BD2DE9F04790460F4604007B
:100E600019BF207800284FF0FF30BDE8F087FFF76A
:100E7000C7FD608850BB207800264546002818BF73
:100E8000002D2DD0FFF7BCFD60884FF0000920B188
:100E9000207811F0E9F8A4F802907749002000BF0B
:100EA00000EB400201EBC2025288AA4216D0401C5D
:100EB000C0B20628F4D32078294611F017F910F0B3
:100EC000FF0F0BD065806660FFF7A4FDA4F80880D3
:100ED000E760FFF79FFD0020BDE8F087FFF79AFD70
:100EE000FFF798FD4FF0FF30BDE8F08710B5040024
:100EF00019BF207800284FF0FF3010BDFFF780FDAC
:100F000000202081E060FFF785FD002010BD2DE965
:100F1000FF4182B098460C46050004AF1CBF2878FC
:100F2000002828D06888002818BF002C23D06068CB
:100F300000281CBF208800281DD0FFF761FD2088F5
:100F400011F0A8F806001BD02288616800F01AFE94
:100F500020880090287833464246394611F01CF923
:100F600000280CBF4FF0FF340024FFF753FD06B0FC
:100F70002046BDE8F08106B04FF0FF30BDE8F081BB
:100F8000FFF748FD06B04FF0FF30BDE8F0812DE9D6
:100F9000F04383B00C4605001CBF688800283CD095
:100FA000E86800281CBF2889002836D0FFF728FDF4
:100FB000E86801902878B5F808900DF104084FF022
:100FC000FF3600281CBF6888002820D0002C1FBFD7
:100FD000606800282088002819D0FFF711FD2088BC
:100FE00011F058F8070010D02288616800F0CAFD9F
:100FF0002088009028783B464A46414611F0CCF8BC
:1010000000280CBF4FF0FF360026FFF703FDFFF767
:1010100001FD03B03046BDE8F08303B04FF0FF3070
:10102000BDE8F083002812BF00294FF0FF30704761
:1010300070B516460D460446FFF7E2FCC4E90456B7
:10104000FFF7E8FC002070BD0020704700207047CB
:101050000020704710B5044690F83000062884BF81
:101060004FF0FF3010BD9021034800F02CFE2046C9
:1010700000F087F9002010BD588B0020B801002037
:10108000CD0C0208002070470020704710B5D0F842
:101090008C1000291CBFD0F89010002908D0D0F87F
:1010A000941000291FBFD0F898000028002010BD20
:1010B00005A1E120FFF746FB4FF0FF3010BD10B552
:1010C00000F093F8002010BD6970616C5F65746872
:1010D0005F6869645F696E697428293A206D697375
:1010E00073696E67206574682066756E6374696FD6
:1010F0006E730000A94890F82200012818BF7047BD
:10110000002002F085B910B504464FF4E071A44800
:1011100000F0D9FDA34894F82010C180A249626A6A
:10112000B2FBF1F2028194F821200270A26AB2FBB4
:10113000F1F14170002010BD9848D0F89C000028C3
:1011400008BF7047004700291CBF0020704705F00A
:101150007FBB10B5954A84B09069D2E90812CDE9F9
:1011600002128E4A0090907A8DF80000904801900B
:10117000904890F803C081884FEA1C230B43817884
:101180004FEA0C6C4CEA014C4478007843EA114178
:101190004CEA042C41EA14614CEA0000CDE902015A
:1011A000D2F88C10684688477E49487104B010BD5B
:1011B0007A49D1F89810084710B5784CD4F89000C7
:1011C0008047D4F88800002808BF10BDBDE8104053
:1011D000004710B5714CD4F88400002818BF804730
:1011E000D4F89400BDE8104000476E4902694A6196
:1011F000808A088300207047684991F82C100129E3
:1012000018BF70470AF03CBF654A0021664BC2F820
:10121000C011C2F8C411C2F8C811C2F8CC11C2F88A
:10122000D011C2F8D411C2F8D811C2F8DC11C2F83A
:10123000E01142685B49B3FBF2F290F82D0048815F
:1012400092B24CF6CD405043800C8870002070471D
:10125000062806D2584901EB4011F030C0B2FFF722
:1012600071BA56A1E020FFF76DBA10B508F0DCFDA9
:101270004A4C94F82C00012808BF08F0E7FD94F8C8
:101280002F00012808BF08F009FE94F82200012869
:1012900018BF10BD0020BDE8104002F0B9B810B56D
:1012A0000CF028FD3D4890F82C00012818BF10BD17
:1012B000BDE810400CF076BD2DE9F041384D002618
:1012C0000446C5F8E461C5F8E861C5F8EC61C5F805
:1012D000F061C5F8F461C5F8F861C5F8FC61C5F8BE
:1012E0000062C5F80462C5F80862C5F80C62C5F86A
:1012F0001062C5F81462C5F818624FF4C05105F5C4
:101300000870C5F81C6200F0DEFC05F5C0572548E2
:10131000C7F82862C7F82C62C681A169C5F8E41134
:10132000E169C5F8EC1105F5F271C0220A73A82332
:101330004B738E734FF0FE0C81F80FC00A744B7420
:101340008E7481F813C00A714B71184A8E7181F83E
:1013500007C0D2E90012C7E988120121C1702189B2
:101360000161114A6168B2FBF1F181810020BDE8A1
:10137000F0810A4991F82F10012918BF70470AF02F
:10138000BFBE10B504464821124800F09CFC054839
:1013900094F830100171002010BD0000808A0020F8
:1013A000308D00200C02002040420F00182F03084F
:1013B000202F030820020020402F0308756E6B6E5B
:1013C0006F776E2073797374656D206572726F72BA
:1013D0000000000060A700200048704774A90020AA
:1013E00070B5A0FB0140B4F1805170F1000024BF42
:1013F000002070BD204600F05FFD05001CBF2146A7
:1014000000F03FFC284670BD70B516460D46041F1F
:10141000002808BF70BD002E1CBF05F10C00AFF303
:1014200000802B465868002818BFA04238BF0346EA
:10143000F8D31968CA18A24218BF5C6003D12268A9
:101440001C461144196021680A19824218BF606065
:1014500004D142686260006808442060002E1CBF0E
:1014600005F10C00AFF3008070BD10B5044600F02C
:1014700094FC01682046BDE810400122C4E70B300F
:1014800020F0070070472DE9F0410F460546041F84
:1014900000F083FC0668F7B1384615B3FFF7EFFF9D
:1014A000B84205463CBF0020BDE8F08106F10C00C3
:1014B000AFF300802268AA4238BF314615D3511BD2
:1014C000082931D36019002240F8041B31462560F9
:1014D000FFF79AFF28E02846FFF7C7FF0020BDE886
:1014E000F081BDE8F04100F0E7BC4868002818BF73
:1014F000A04238BF0146F8D3131983421BD10368B9
:101500001A44954217D8531B082B0AD34368621913
:101510005360236800681844401B106025604A60CF
:1015200002E022604068486006F10C00AFF30080E2
:10153000201DBDE8F08100223146281F00F07BFC11
:1015400005000AD02068211D021F284600F05FFB1D
:1015500000223146201DFFF757FF06F10C00AFF3C4
:1015600000802846BDE8F08153EA020C00F0698053
:101570002DE9F04B4FF00006002B1FBFB3FA83F5A7
:1015800003FA05F424FA05F65E4012BF1643B2FAD8
:1015900082F502FA05F4C5F120051EBF22FA05FC0A
:1015A00044EA0C04203556EA044C4FEA144418BFB0
:1015B000641C4FF000084FF00009904271EB030CDF
:1015C00039D3002919BFB1FA81F701FA07F6B0FA49
:1015D00080F700FA07F6C7F120071EBF20FA07FCC4
:1015E00046EA0C062037B6FBF4FCA7EB0507103FD4
:1015F00007F01F0BCBF120060CFA0BFB2CFA06F6BA
:1016000044BFB3460026202FA4BF5E464FF0000B18
:101610005BEA060C08BF4FF0010B19EB0B09ABFBA3
:10162000027C48EB0608C01B06FB02CC0BFB03CC7C
:1016300071EB0C01C1E70B46024641464846BDE846
:10164000F08B13B54FF000004FF00001AFF30080B6
:10165000BDE81C40704700000FB47CB50C0009AA1F
:10166000009001D02044401E084B7B446946019005
:10167000089800F08AFC05461CB10020694600F07D
:1016800097FC28467CBC5DF814FB00004D09000067
:1016900070B50C460546012A05D02878800600D58D
:1016A000EA69002302E0012305E05B1C934202D2B9
:1016B000E05C0028F9D1A869E618C01AA861286A78
:1016C000184428622846AFF3008004E0D5E90121E0
:1016D00014F8010B9047B442F8D32846AFF30080CA
:1016E00070BD00002DE9F041064600241068752900
:1016F000314616A510D0AFF30080002802DA404230
:1017000013A507E031688A0701D512A502E0490751
:1017100004D511A5012401E0AFF3008000210A22C5
:1017200006F1240709E0B0FBF2FCB0FBF2F302FB88
:101730001C00303078541846491C0028F3D1234649
:101740002A463046BDE8F04100F0C0BB0000000072
:101750002D0000002B0000002000000070B50446A2
:101760000D4621461068AFF300802188090502D597
:101770000F4A7A4402E00E4A7A440E32002104F104
:10178000240305E000F00F060009965D5E54491C35
:101790000028F7D120780023000704D5702D02D04F
:1017A00009B1022311322046BDE8704000F08EBB23
:1017B000A41B01002DE9F0474FF0000A89460446BA
:1017C000C0F820A02046E1688847002876D0252868
:1017D00006D0D4E901219047206A401C2062F1E73D
:1017E000E168204600258847C4F81CA0064600276B
:1017F000C4F818A02A2E09D0304601F067FB38B390
:1018000004EB8708303EC8F8186019E059F8041B4B
:10181000204604EB87029161E1688847012F064664
:1018200018D1E069002820DA25F020051DE0D8F85D
:10183000180000EB800006EB40003038C8F81800B4
:101840002046E1688847064601F040FB0028EED1BB
:10185000012F0AD02E2E08D12046E16888477F1C30
:101860000646022F45F02005C4DBA069002803DAF4
:10187000404245F00105A061E80701D025F01005C0
:10188000B6B1A6F14100192802D8203645F400650A
:101890004A463146204625604D46FEF7A1FC58B128
:1018A000012806D0ED1D25F0070000F1080989E7A1
:1018B00004E005F1040985E730468AE7206ABDE8BF
:1018C000F08700000FB400B58DB010A90990009109
:1018D0000B904FF0FF300A9000200C90064878449F
:1018E0000690064878446A4607900F9909A800F0C8
:1018F00097FB0DB05DF814FB5F0700007707000051
:101900002DE9FF5F1D464FF0FF3B91464FF0000869
:101910005F46D5E90146A96901987F1C8847296A75
:10192000824688470028F6D1BAF1FF3F0CD0002E3E
:1019300024F4C06419DD600614D5BAF12B0F09D068
:10194000BAF12D0F0ED103E0584604B0BDE8F09F68
:1019500044F48064A96901987F1C8847761E8246FA
:10196000002E02DDBAF1300F03D0B9F1000F26D0FE
:1019700032E0A969761E01987F1C44F40074884700
:10198000002E824605DDBAF1780F06D0BAF1580F65
:1019900003D0B9F1000F10D01EE0B9F1000F02D052
:1019A000B9F1100F18D1A969761E01987F1C24F493
:1019B000007488478246102002E0082000E00A20D8
:1019C000814609E0A96908FB0908761E01987F1C79
:1019D00044F4007488478246002E05DD494650468F
:1019E00000F009FB0028EDDAE96901988847A005B5
:1019F00002D46FF00100A8E7E00725D1600613D5F7
:101A0000600502D5C8F1000000E0404629680A1DC3
:101A10002A600968220501D5087015E0220701D562
:101A2000088011E008600FE02868011D2960006847
:101A3000210502D580F8008006E0210702D5A0F834
:101A4000008001E0C0F8008038467EE72DE9FF5FA6
:101A50004FF000089946144646469169D2E901A71D
:101A6000DDF838B001988847054659EA0B0005D0E3
:101A700009E0A1690198761C88470546216A284635
:101A800088470028F5D1681C03D05FEACA7005D0EA
:101A900015E04FF0FF3004B0BDE8F09F2068011D55
:101AA0002160D0F800800AE05FEACA7001D108F82E
:101AB000015BA169761C01987F1E88470546002FAF
:101AC0001ADD681C18D0B9F1000F0DD0E81705EB2E
:101AD000D060421120F01F0059F822102A1A01206C
:101AE00090400142E0D107E0BBF1000FDCD1284675
:101AF000216A88470028D7D0E16901988847BBF15F
:101B0000000F07D1002E05DD5FEACA7002D1002167
:101B100088F80010A068B84203DDBBF1000F03D0C5
:101B200017B16FF00100B6E73046B4E740EA0103B1
:101B300010B59B070FD1042A0DD310C808C9121F76
:101B40009C42F8D020BA19BA884201D9012010BDB0
:101B50004FF0FF3010BD1AB1D30703D0521C07E07D
:101B6000002010BD10F8013B11F8014B1B1B07D1E1
:101B700010F8013B11F8014B1B1B01D1921EF1D152
:101B8000184610BD032A40F2308010F0030C00F01C
:101B9000158011F8013BBCF1020F624498BF11F8A7
:101BA00001CB00F8013B38BF11F8013BA2F1040260
:101BB00098BF00F801CB38BF00F8013B11F00303D8
:101BC00000F02580083AC0F0088051F8043B083A3C
:101BD00051F804CBA0E80810F5E7121D5CBF51F8DE
:101BE000043B40F8043BAFF30080D20724BF11F858
:101BF000013B11F801CB48BF11F8012B24BF00F8BD
:101C0000013B00F801CB48BF00F8012B704710B52D
:101C1000203AC0F00B80B1E81850203AA0E81850E4
:101C2000B1E81850A0E81850BFF4F5AF5FEA027CA5
:101C300024BFB1E81850A0E8185044BF18C918C014
:101C4000BDE810405FEA827C24BF51F8043B40F8B5
:101C5000043B08BF7047D20728BF31F8023B48BF9A
:101C600011F8012B28BF20F8023B48BF00F8012BD8
:101C7000704702F0FF0343EA032242EA024200F007
:101C800002B84FF000020429C0F0128010F0030CDB
:101C900000F01B80CCF1040CBCF1020F18BF00F85F
:101CA000012BA8BF20F8022BA1EB0C0100F00DB80E
:101CB0005FEAC17C24BF00F8012B00F8012B48BF6C
:101CC00000F8012B70474FF0000200B51346944610
:101CD0009646203922BFA0E80C50A0E80C50B1F184
:101CE0002001BFF4F7AF090728BFA0E80C5048BF98
:101CF0000CC05DF804EB890028BF40F8042B08BF36
:101D0000704748BF20F8022B11F0804F18BF00F831
:101D1000012B70474FF0013C50F8042B51F8043B65
:101D20009A4221D1A2EB0C03934313EACC1317D1AF
:101D300050F8042B51F8043B9A4215D1A2EB0C0346
:101D4000934313EACC130BD150F8042B51F8043B06
:101D50009A4209D1A2EB0C03934313EACC13DBD0D4
:101D60004FF00000704700BFD01A01BAB1FA81F1FC
:101D700001F0180122FA01F0CB40C1F12001DBB2E1
:101D8000C0B2C01A2CFA01F3D11A914311EAC3115F
:101D9000E6D1704770477047704710B5FFF71CFBDE
:101DA000083010BD7047704738B504460A46002019
:101DB0006946AFF30080002808BF38BD024600998D
:101DC000204600F066F9012038BD012000F044BB38
:101DD000F8B5AFF30080054600200C46102000BF88
:101DE0000646A819A0420DD9324669460020AFF335
:101DF0000080070008BF00F02FFB0098A04218BF2A
:101E00000546C419FFF7C9FF05600746F01D20F01D
:101E100007004619284600F033F9B44208BFF8BD60
:101E2000A21B31463868BDE8F84000F032B90B30EB
:101E300020F0070070472DE9F04117460E46044692
:101E4000FFF7F5FFA042054633D9002F1CBF06F16E
:101E50000C00AFF3008030467468F4B12168A942E9
:101E600017D305F1080291423CBF6168416007D376
:101E7000626861194A602268521B0A6041602560ED
:101E8000002F1CBF06F10C00AFF30080201DBDE841
:101E9000F08120466468002CE0D129463046FFF7E7
:101EA00083FF0028D7D1002F1CBF06F10C00AFF331
:101EB00000800020BDE8F08110B50446FFF76DFFFB
:101EC00001682046BDE810400122B4E72DE9F04743
:101ED0000D4699469246044600F12408016888069A
:101EE00004D5E06921F01001216000E00120A84242
:101EF00001DD471B00E00027A1697A1902EB090008
:101F0000081AA0612078C00602D42046AFF30080F2
:101F1000002608E0D4E901211AF806009047206A5B
:101F2000401C761C20624E45F4DB2078C0060AD5A2
:101F30002046AFF3008006E0D4E90121302090472D
:101F4000206A401C2062381EA7F10107F4DC07E07C
:101F5000D4E9012118F805009047206A401C20624E
:101F6000281EA5F10105F3DC2046AFF300802078A0
:101F7000000602D50220BDE8F0870120FBE7000043
:101F800001694A1C02610878704700B58FB0CDE93D
:101F900001310021059105497944CDE9031011462D
:101FA0006846FFF707FC0FB000BD0000E5FFFFFF2C
:101FB0000A6802F8010B0A607047D1E900239A42CF
:101FC00002D2531C0B601070704710B5436913B1F7
:101FD000AFF3008001E0FFF75BFB012010BD12783A
:101FE00000F124010A7000224A700122EDE7116815
:101FF0004FF0FF32E9E73A2800D2303820F02002D3
:10200000412A01D3A2F13700884201D34FF0FF30BB
:102010007047000002681144137801601846704749
:10202000D160054979445161044979441162002124
:102030001161114600F056B8EDFFFFFFA30000004C
:10204000426842B1016811F8013B23B1521EC0E958
:102050000012184670470121C160881E704742680F
:102060005AB1C368016843B983688B4205D0491EE1
:10207000521CC0E90012002070474FF0FF3070473B
:1020800000210160C0E901100C3000F026BF1020D3
:10209000704730B404468C464368002B18BF634534
:1020A00038BF1846F8D303681844604507D0C81CE9
:1020B00020F0070000F1040CACEB0100121A2146DD
:1020C000CCF8002030BC00220CF10400FFF79CB9D2
:1020D00010B5044600F0ECF90068005D00F0010066
:1020E00010BD00002DE9F34F4FF0000A0C46564694
:1020F0008DB001200C9001F10C000B9062690B98DF
:1021000001219047051E2DD0252D2CD0216A88470E
:10211000C0B162690B9801219047216A8847002865
:10212000F7D16269411E0B98904700E0761CA169C7
:102130000D988847216A88470028F7D1E1690D98F2
:102140008847DBE7A1690D988847A842074601D177
:10215000761CD3E7E1690D9888477F1C02D1BAF15C
:10216000000F6FD06BE162690B9800273D4639463E
:1021700090472A2804D162690B98012190470125D4
:10218000DFF8D08262690B9801219047A0F13001FD
:102190000A290AD24745E5DC07EB870100EB410736
:1021A000303FDFD445F01005ECE7E90601D46FF0CD
:1021B00000476C280AD04C2814D0682815D06A280B
:1021C0000DD074281CD07A281AD01DE062690B98B3
:1021D000012190476C2802D045F0040514E045F039
:1021E00002050DE045F020050AE062690B98012127
:1021F0009047682802D045F0080505E045F40065E1
:1022000062690B9801219047C4E9015765283DD0C8
:1022100019DC58287AD00CDC452837D004DC252876
:1022200026D041289ED131E046282FD0472899D189
:102230002CE05B2877D0612828D063287CD06428E4
:1022400023D15AE0F6E06F2848D008DC66281DD07C
:1022500067281BD0692821D06E2816D127E0702866
:1022600045D0732868D0752847D078280DD14DE027
:10227000A1690D988847252805463FF469AFE169B3
:102280000D9888476D1C3FF46AAFD8E00D9923463E
:102290006A466FF00100AFF30080C5E045F04000F2
:1022A00023464FF000026060A80736D43EE0E807FE
:1022B0007FF447AF2068011D21600068290501D522
:1022C00006701BE7290701D5068017E7A90703D584
:1022D000F117C0E9006111E706600FE745F0400023
:1022E00023464FF008026060A80716D41EE040F6AF
:1022F0000E0125EA0100606016E045F0400023462B
:102300004FF00A026060A80707D40FE045F04000D4
:102310006060A80708D5234610220D996FF00100D0
:10232000AFF3008080E007E0102223460D996FF0A4
:102330000100FFF7E5FA77E04FF0000963284F4608
:10234000C8464B46CB4602D05B2806D038E0E806AC
:1023500001D40120A060012732E06269D4F80CB0FA
:102360000B98012190475E2807D14FF0010949469B
:102370006269D4F80CB00B989047216939B90021F3
:102380000A4603AB43F82120491C0829FADBD8B3DD
:10239000216949B308F1010862690B98012190474E
:1023A0005D28F4D1B9F1000F09D0002003A951F83C
:1023B0002020D24341F82020401C0828F7DB03AB43
:1023C0002069002820794FEA40701ED05B462246E3
:1023D000CDF80080CDE901970D9900286FF001003C
:1023E00020DAAFF300801FE0C11703AA00EBD16130
:1023F0004B1121F01F0102EB8302411A13680120E7
:10240000884003431360C7E719E00D99224600286E
:102410006FF00100009702DAAFF3008004E0FFF7ED
:1024200015FB01E0AFF3008000280ADA401C06D15A
:102430000C9820B14FF0FF300FB0BDE8F08F504640
:10244000FAE7E90701D10AF1010A064400200C90DD
:1024500054E60000CCCCCC0C10B500F03FF8BDE841
:10246000104000F036B87546FEF7B6FFAE460500E0
:102470006946534620F00700854618B020B5FEF7A0
:1024800027F8BDE820404FF000064FF000074FF05E
:1024900000084FF0000B21F00701AC46ACE8C00982
:1024A000ACE8C009ACE8C009ACE8C0098D4670478B
:1024B00010B500F042F8001D10BD00BF71FF000014
:1024C00010B50446AFF300802046BDE81040FDF78C
:1024D0001EBF002801D000F029B8704710B50128B0
:1024E00005D0002103A000F02DF8012010BD09A1A6
:1024F000F8E7000053494752544D454D3A204F7577
:1025000074206F662068656170206D656D6F7279EB
:10251000000000003A2048656170206D656D6F72A3
:102520007920636F727275707465640001491820B8
:10253000ABBEFEE726000200704710B5FEF74CFF69
:10254000203010BD70B505460C460A2000E06D1C19
:1025500000F011F835B128780028F8D102E0641CA9
:1025600000F009F814B120780028F8D1BDE87040D7
:102570000A20AFF3008008B569468DF800000320FB
:10258000ABBE08BD0000000000B5002200F008F856
:10259000C04380B2010241EA102080B200BD0000B9
:1025A00005E000BF30F8023B891E5BBA1A440129DE
:1025B000F8DC11B1007802EB002290B200EB12407F
:1025C00000EB104080B27047084400EB104080B22E
:1025D000704700002DE9F04F43484FF0000B93B0D7
:1025E00046685F4649F21A08357C4FF4407A4FF04E
:1025F0000049706900EB05100168C1F30D410C1F23
:10260000016811EA080F18BF012734D100683AEABF
:10261000000018BF02272ED140F2EA50844288BF42
:10262000032728D844F0004005F090FF44F0004113
:102630000090002808BF04271DD00820726900EB15
:102640000510E31C105820F003020098001D9C08A0
:1026500006D000BF52F8043B40F8043B641EF9D199
:102660002248026812B10098001D9047009806F0B9
:10267000EBF94FF0010B706900EB0510C0F800900A
:1026800077B1022F08BF4FF0FF343B4618A240211C
:1026900002A80094FEF7E0FF02A9F02007F05EF820
:1026A000F07A6D1C854208BF00253574706900EB17
:1026B0000510006810F0004F9BD0184C6069184D51
:1026C00010F0800F06D065610020A06015A1F020F9
:1026D00007F044F86561BBF1000F18BF05F006FF75
:1026E00013B0BDE8F08F00008002002078020020C7
:1026F0004554485F49525148616E646C657228299F
:102700003A206572726F7220256420666F722066AF
:1027100072616D655B25645D000000000090024001
:10272000C08001004554485F49525148616E646C55
:10273000657228293A206572726F72203500000098
:1027400001490860704700000C3C024030B5054666
:10275000002451B1012908BF4FF4807405D002292B
:102760000CBF4FF400744FF4407400F079F809285E
:1027700018BF30BD0F4B186820F4407018601868FF
:1027800020431860186820F0F8001860186845F0B9
:10279000020108431860186840F48030186000F0A7
:1027A0005FF8196821F002011960196821F0F80139
:1027B000196030BD103C024030B50C46054600F0B3
:1027C0004FF8092818BF30BD0A4B186820F4407034
:1027D0001860186840F480701860186840F00100B4
:1027E00018602C8000F03CF8196821F00101196094
:1027F00030BD0000103C024030B50C46054600F0EC
:102800002FF8092818BF30BD0A4B186820F4407013
:102810001860186840F400701860186840F00100F3
:1028200018602C6000F01CF8196821F00101196093
:1028300030BD0000103C02400548006810F0004F19
:1028400008BF7047034904480160044901607047AC
:10285000103C024023016745043C0240AB89EFCDA8
:1028600081B009208DF8000001462648026812F464
:10287000803F18BF012116D1026812F0100F18BF57
:10288000062110D1026812F4807F18BF02210AD1FC
:10289000026812F0EF0F18BF072104D1026812F08E
:1028A000020F18BF08218DF800109DF800100129B3
:1028B00023D10268092112F4803F18BF012116D1EB
:1028C000026812F0100F18BF062110D1026812F42E
:1028D000807F18BF02210AD1026812F0EF0F18BFE3
:1028E000072104D1026812F0020F18BF08218DF8E9
:1028F00000109DF800100129DBD09DF8000001B008
:10290000704700000C3C02402DE9F0010022012537
:102910005FF00306D1F800C005FA02F30CEA030CDD
:102920009C4533D107684FEA420C06FA0CF4A743E2
:1029300007600F79D0F8008007FA0CF747EA08071C
:1029400007600F79012F18BF022F14D18768A743A2
:1029500087604F79D0F8088007FA0CF747EA080734
:102960008760476827EA0303436043688F7997408D
:10297000BFB23B434360C368A343C360CB7903FA50
:102980000CF3D0F80CC043EA0C03C360521C102AAD
:10299000C0D3BDE8F00170474B07DB0E9A40C90871
:1029A00000EB8100016A4FF00F0C0CFA03F399431E
:1029B0000162016A114301627047426951404161FD
:1029C0007047002A14BF01834183704700290188A2
:1029D00014BF41F4806121F4806101807047838AD3
:1029E0000022008B43EA004020F07F4031EA0000E3
:1029F00008BF012210467047C943818270470029F1
:102A0000018814BF41F0010121F0010101807047EC
:102A10000029018814BF41F4807121F48071018084
:102A200070470029018814BF41F4007121F400713E
:102A30000180704782B00246002000920A0F21F008
:102A40007F41019208BF090C009A14BF143218325A
:102A5000009212680A4218BF012002B07047818AB2
:102A6000008B41EA004020F07F40704770B504467B
:102A7000808884B00D4620F03F06684600F0B2F82A
:102A800029490298B0FBF1F189B246EA0102A2801D
:102A9000228822F001022280244B2A689A421DD803
:102AA0005200B0FBF2F080B2042838BF0420491C69
:102AB0002184A083208840F0010020802088A988FC
:102AC0006A8920F00A0020F48060114308432080C6
:102AD000A88929890843208104B070BDEB88A3F53B
:102AE0003F4CBCF1FF0C19D002EBC20303EB021206
:102AF000B0FBF2F080B240F480400205120D08BF36
:102B000040F0010040F400404FF4967251434FF4FE
:102B10007A72B1FBF2F1491C2184CAE702EB42024E
:102B2000B0FBF2F080B2E8E740420F00A08601005F
:102B3000002A14BF41F0010101F0FE01018270473B
:102B400001827047034940F0FD7040F080600860EA
:102B5000704700000CED00E021F07F0121F06041A2
:102B6000084301490860704708ED00E0044A002965
:102B7000116814BF084321EA00001060704700008C
:102B800030380240044A0029116814BF084321EA82
:102B9000000010607047000010380240044A00290D
:102BA000116814BF084321EA00001060704700005C
:102BB00040380240044A0029116814BF084321EA42
:102BC000000010607047000020380240044A0029CD
:102BD000116814BF084321EA00001060704700002C
:102BE00044380240254A30B41168254B11F00C01DD
:102BF00006D0244C042908BF046002D008291ED046
:102C0000036011680F2303EA11111F4B595CD0F8C0
:102C100000C02CFA01F14160D2F800C0072404EA98
:102C20009C2C13F80CC021FA0CFCC0F808C01268E8
:102C300004EA52329A5CD140C16030BC70471349FB
:102C4000D1F800C0CCF38055D1F800C0002D0CF0B5
:102C50003F0C14BFB4FBFCF3B3FBFCF3D1F800C092
:102C60000968CCF3881C03FB0CF3C1F30141491C38
:102C70004900B3FBF1F10160C3E7000008380240EE
:102C80000024F40080F0FA025403002004380240CB
:102C90000149C1F8DC0070470000274282B00022E1
:102CA000294901920092086840F480200860086871
:102CB00040F480300860086800F40030009001980B
:102CC000401C0190009818B90198B0F5A04FF2D1BE
:102CD000086810F4003F02BF009202B07047012064
:102CE00000901A48026842F0805202601848026858
:102CF00042F440420260174802680260026842F4EF
:102D000000420260026842F4A0520260031F124AAD
:102D10001A600A6842F080720A600A6812F0007F46
:102D2000FBD00E4A40F205711160016821F00301E9
:102D30000160016841F002010160016801F00C01CD
:102D40000829FAD102B070470038024040380240EA
:102D5000007000400838024032544007003C0240F6
:102D6000010241EA102080B270470000DFF86CC019
:102D700030B4DCF800001A4B10F00C01194806D0F2
:102D8000194C042908BF046002D008290CD0036044
:102D9000DCF80010154AC1F30311515C026822FAF5
:102DA00001F1016030BC704711490A68C2F38055D7
:102DB0000A68002D02F03F0214BFB4FBF2F2B3FB2D
:102DC000F2F20B680968C3F388135A43C1F3014157
:102DD000491C4900B2FBF1F10160D9E70838024013
:102DE0000024F400E401002080F0FA02402E0308E1
:102DF00004380240134810B5016841F470010160C5
:102E00001148016841F001010160104A0021116080
:102E1000026822F4102222F080720260031D0C4A24
:102E20001A60026822F4802202600A48016006F0FB
:102E3000EDFCFFF733FF08494FF000600860FFF733
:102E400095FF10BD88ED00E00038024008380240D0
:102E5000103000240C38024008ED00E00021016031
:102E600081807047C9B241EA012141EA0141016014
:102E700081807047C9B241EA012141EA0141016004
:102E80004160704712F0004F1FBF22F00042D21D78
:102E900022F00703102202BFD21C22F003030C22EF
:102EA0001BB103EB020C8C4501D901207047024491
:102EB00001448360C0E90021C91AD01888429CBF30
:102EC00010600246F9D900201060704730380A2897
:102ED00001D2012070470020704707F0D7BF0000E3
:102EE0002DE9F0470027DFF8909000280CDA2349FD
:102EF000D9F8002020F000400968024401EB4101AC
:102F0000B2EB910F18D8012705460F3020F00306C9
:102F10000FB9FEF75EF91A4CD4E90002011B891AB9
:102F2000B1420CD2044600680028F5D127B9FEF75B
:102F300043F90020FEF78CF90020BDE8F08772B15C
:102F4000101921680160206000F10808C0F80460D1
:102F5000D9F800103144C9F8001027B105E004F198
:102F600008086660F4E7FEF727F9A8F8005000208B
:102F7000A8F802004046E0E7A40200201C0200205E
:102F8000508F00202DE9F0470746894690460026DD
:102F9000284C294D0BE0207838B10422394604F141
:102FA0000A0007F067F9012835D00E34761C28880E
:102FB0008642F0DB2149384607F07AF8D0B91F483D
:102FC00004220021001D07F07BF910B10020BDE8AC
:102FD000F0870026174C0AE0207830B106224946D7
:102FE000201D07F047F901281AD00E34761C2888D6
:102FF0008642F1DB404600F027F80028E7D00D4973
:10300000C0EBC00001EB40040E3C0422394604F141
:103010000A0007F03FF906224946201D07F03AF959
:1030200007480088E07007480078A07003202070EF
:103030000120CCE7308D002012020020F48C00200B
:10304000140200200C020020F0B5054601211648AC
:103050000E46164A03E0037853B10E30491C13881C
:103060009942F8DD1248104B0488002001210DE040
:10307000067045700846F0BD5F78012F04D1DF78F7
:10308000A74201D83C4608460E33491C1788B9426E
:10309000F2DD0028EFD0044AC0EBC00102EB410191
:1030A00001F80E6D4D70F0BD308D00201202002031
:1030B000140200202DE9F04781460F4600253D4CC3
:1030C0003D4E0BE0207838B10422494604F10A0055
:1030D00007F0D0F8012815D00E346D1C30888542D9
:1030E000F0DB3649484606F0E3FFDFF8C880334D91
:1030F00001284FF0040209D00021281D07F0E0F854
:10310000E8BB1DE0207803284ED350E04946281D37
:1031100007F0B0F8012806D104220021281D07F08D
:10312000CFF800B900273846FFF78EFF06003CD0E5
:10313000C6EBC60108EB41040E3C042249461DE0E3
:1031400000271C4C0BE0207838B10422291D04F123
:103150000A0007F08FF80128D4D00E347F1C308885
:103160008742F0DB0020FFF76FFF06001DD0C6EBA3
:10317000C60108EB41040E3C0422291D00E013E0C7
:1031800004F10A0007F086F806220D49201D07F019
:1031900081F80C480078A0700B480078E070304649
:1031A00000F036F9022020700020BDE8F0872046AC
:1031B000FBE70000308D002012020020F48C00207C
:1031C000903203080C0200200D02002070B50D465D
:1031D000064604220E4907F04DF8012814D0304667
:1031E00006F078FF01280FD029463046FFF762FF2E
:1031F000040008D00422314604F10A0007F03AF82E
:10320000012802D002E0002070BD6570012070BD71
:103210008C3203082DE9F0470026DFF8D480DFF870
:10322000D490B246344F5DE0B9F80050691C89B2C1
:10323000A9F800103A88914201D3A9F800A02F49BB
:10324000C5EBC50001EB40042078C8B3E07820B19D
:10325000401E10F0FF00E07043D1607801280AD1D1
:103260000422274904F10A0007F004F8012806D0D7
:103270006078012818D010F0FF0F02D031E084F8F8
:1032800001A004221F4904F10A0006F0F3FF0128FF
:1032900017D02078032818D0A07800B3401E10F073
:1032A000FF00A0701BD012E02078032817D0A07870
:1032B000A8B1401E10F0FF00A07010D0022005E061
:1032C0000FE011480088E0700BE00420207098F8AF
:1032D0000000E070681CBDE8F04700F099B884F881
:1032E00000A0761C388886429EDBBDE8F08700008F
:1032F0000D020020FC01002012020020308D002071
:10330000F88C00208C320308140200202DE9F041D3
:1033100006460025134C00F10E08134F0DE02078EF
:1033200048B1012807D0042204F10A01404606F002
:10333000A1FF012806D00E346D1C38888542EEDBD3
:10334000BDE8F081062206F10801201D06F0A2FF6B
:1033500006480088E07006480078A07003202070BE
:10336000EEE70000308D0020120200201402002041
:103370000C0200202DE9F04105460E462A20FFF7F9
:10338000AFFD044605F1080106220F46001D06F0B8
:1033900081FF06221C4904F10A0006F07BFF4FF46E
:1033A000C16020824FF4807060820820A0820620D5
:1033B000A0750420E075268304F124000622394616
:1033C000064606F067FF05F10E0104F12A0004220B
:1033D000054606F05FFF06220B4904F11A0006F0CD
:1033E00059FF0422094904F1200006F053FF01228D
:1033F00031462846FFF7C6FD2046FDF7D9FE204698
:10340000BDE8F04103F070BB20020020F48C0020E6
:1034100070B505462A20FFF763FD044606222349BE
:10342000001D06F037FF0622214904F10A0006F0CC
:1034300031FF4FF4C16020824FF480716182082017
:10344000A0820620A0750420E07521830622184979
:1034500004F11A0006F01EFF0422164904F12000B0
:1034600006F018FF4FF0060265B1002104F12400B8
:1034700006F01EFF1049C5EBC50001EB4001042218
:10348000091F06E0094904F1240006F003FF094979
:10349000042204F12A0006F0FDFE2046FDF788FE16
:1034A0002046BDE8704003F01FBB000090320308C7
:1034B00020020020F48C0020308D00200648016896
:1034C00091F82010002908BF704740680322416826
:1034D000022007F045BF0000E8830020C0F303305E
:1034E00003490C288CBF086851F820007047000081
:1034F0007C010020002804BF4FF0FF30704752EAE3
:10350000030108BF42F2222222F07F42110A120672
:1035100042F00202C0E90021034981606FF07F415F
:10352000C1600020704700000A000163002804BF4A
:103530004FF0FF30704710B5383004A1FEF7EAFBBA
:10354000002818BF4FF0FF3010BD00004558540050
:103550000DF0B4BE0DF0D8BE0DF054BF0DF07ABF23
:103560000EF056B80EF0A4B810B5040008BF1D4CFC
:1035700040221D491D480DF013FE1B481C4990F9BF
:10358000002091F900309A4209D190F9012091F977
:1035900001309A4203D18978807881420AD0144957
:1035A0004022A1F108000DF037FE40220E490F48DD
:1035B0000DF0F6FD20790DF035FD10B1206870B1E9
:1035C00080470EF03BF910B1206840B180470EF003
:1035D000C7F810B1206810B18047002010BD4FF02F
:1035E000FF3010BDD02C03082C850020D82C0308F8
:1035F000E02C03080DF04CBD0DF060BD0DF076BD64
:103600000020704700487047E02C03080EF0A2B974
:103610000EF0BCB90EF0D6B90EF0F8B90EF070BAD3
:103620000EF08ABA0EF0ACBA10B540220D490E4821
:103630000DF0B6FD0B480D4990F9002091F90030CE
:103640009A420BD190F9012091F901309A4205D1AB
:1036500089788078814204BF002010BD4FF0FF3090
:1036600010BD00002C850020D82C0308E02C030896
:1036700010B54022024903480DF092FD004810BDEC
:103680002C850020D82C03080DF008BE0DF00EBECE
:103690000DF048BD002804BF6FF001007047002105
:1036A000017008467047002812BF00296FF0010022
:1036B000704791E80E1080E80E104FF00000704740
:1036C00010B50A464FF0FF3458B30178012907D0EE
:1036D00002290FD0032904BF0178032913D023E066
:1036E0000178012920D1D0E90110D0B102F0B9FF51
:1036F000044619E00178022916D1D0E9011080B101
:1037000002F09DFF0CE0D0F80CC04168806841B128
:10371000BCF1000F06D013460246604602F078FF67
:10372000044601E000248847204610BD002818BF49
:103730000078704710B500F079FD012310220421B4
:1037400000F07EFD0021017010BD002804BF6FF065
:10375000010070474FF0030C80F800C0C360C0E95F
:10376000011200207047002804BF6FF0010070476D
:1037700001230370C0E9011200207047002804BF34
:103780006FF00100704702230370C0E901120020AE
:103790007047000002480068002818BF00487047C2
:1037A000640100202DE9F843264C05460F462068A9
:1037B000002841D100F048FA23490091002D14BFA0
:1037C00001210021214B22A200F0FEF928786E7819
:1037D000DFF8A480022803D1FF2E18BF656008D14E
:1037E00000F032FA194B25A20521CDF8008000F037
:1037F000F7F9A7602675002E04BF0020206112D0C3
:10380000012E08BF4FF4004019D0022E08BF4FF41C
:10381000003014D000F018FA0C4B22A20521CDF88C
:10382000008000F0DDF929480090294B294A2A49F7
:103830002A4802F0D7FA20600248BDE8F8832061E8
:10384000F1E7000064010020482B0308A82C0308BE
:10385000656F5F61726D656E765F496E69746961EF
:103860006C69736528293A204E554C4C206D6F6465
:10387000696E666F00000000682B0308735F656F58
:103880005F61726D656E765F7072657061726528DA
:10389000293A2077726F6E67206D6F64696E666F6C
:1038A00000000000735F656F5F61726D656E765F2B
:1038B0007072657061726528293A20756E73757033
:1038C000706F727465642070726F63009DE302080C
:1038D000ADE302082DE402088DE30208A1E402082A
:1038E00070B55FEA000C8AB00D464FF0000004BFCF
:1038F0000AB070BD002004900790089005900690D3
:10390000099009AB06AA05A907A88DE80F0004AB2A
:1039100008AA1DA16046FDF7D5FF0798B0F5006F16
:10392000BCBF01241D4E16DA56F8241008A8FEF775
:10393000F1F920B1601CC4B20D2CF5D30BE0002CC2
:103940001CBF0498002806D01F28DFBF0598182840
:1039500006983C2802DD0AB0002070BD079928684F
:1039600061F30B0064F30F302860049961F3144095
:103970002860059961F359502860069961F39F60AA
:1039800028600AB0012070BD2573202564202564BD
:103990002025643A25643A25640000005800002080
:1039A000002818BF00687047002908BF704730B56D
:1039B00083B08C46C0F30743C0F30721CDE9001361
:1039C0001546040EC3B2029403A229466046FDF7D1
:1039D00043FE03B030BD000025642E25642E25640F
:1039E0002E25640050F8040C7047002818BF008989
:1039F0007047002808BF70470188002904BF0020D5
:103A000070474288C168C08802FB0010704728B127
:103A10000188008981421CBF002070470120704747
:103A20002DE9FF4F81B091460E46054600274FF025
:103A30000108DDF838B000F0F9FB01232022042151
:103A400000F0FEFB0021018041800446818000F0EF
:103A5000FBF8DFF8ACA0CDF800A0002D14BF0121C9
:103A60000021284B28A200F0AFF800F0EDF8CDF8C7
:103A700000A0002E14BF01210021224B29A200F03A
:103A8000A3F8E58065812681C4F810900498C4E904
:103A9000050B0F98E061012D13D0022D08BF4FF0E8
:103AA00002080ED0042D9CBF4FF00408404607D9F1
:103AB000E81DC0084FF6FF714FF0080801EAC0008A
:103AC000608100F0B3FB33462A46414600F0B8FB64
:103AD0008046E060002E0ED907FB0580B9F1000F8B
:103AE00002D00499C84702E0E188FEF7CAF8781CC2
:103AF00087B2B742F0D305B02046BDE8F08F000092
:103B0000482B0308282B0308656F5F646571756592
:103B10005F4E657728293A2030206974656D5F73A0
:103B2000697A6500656F5F64657175655F4E65777D
:103B300028293A203020636170616369747900003C
:103B4000002808BF704710B504460088002808BF49
:103B500010BD6188E288E06801FB0200E16900298C
:103B600018BF884760882189401CB0FBF1F201FB37
:103B7000120060802088401E208010BD002814BFE5
:103B80000029704710B5044600892288904208BF7A
:103B900010BDA388E288E06803FB0200A3690BB1B3
:103BA000984701E0FDF7EEFFA0882189401CB0FB9B
:103BB000F1F201FB1200A0802088401C208010BD83
:103BC000002818BF00887047002918BF704708B543
:103BD0000521DDF808C0CDF800C000F001F808BDEF
:103BE00070B582B00020069ECDE9000314460D4654
:103BF00002F06CFB02F072FB00280CBF022002F006
:103C000057FC8DF80000DFF82CC028462146DCF870
:103C100000C06A463346BCF1000F02D0E04702B054
:103C200070BD042D9CBF02B070BD02F04FFB02F0CE
:103C300061FBFEE798000020024800EBC100001D78
:103C4000704700009800002000487047980000204E
:103C500008B5009313460A460121FFF7C1FF08BDCE
:103C6000002808BF024803490068086008467047FA
:103C7000402B03089800002010B582B00020CDE949
:103C800000020C4602F022FB02F028FB00280CBFC9
:103C9000022002F00DFC8DF80000DFF81CC00020AF
:103CA0002146DCF800C06A460346BCF1000F18BF8D
:103CB000E04702B010BD000098000020002804BFBB
:103CC0006FF00100704770B5044640680D4680B142
:103CD000114602F057FA00281CBF6FF0020070BDB9
:103CE0002068FFF782FE2880606802F03DFA00201D
:103CF00070BD2068FFF779FE2880F8E7002812BF22
:103D000000296FF00100704770B5044640680D4609
:103D100088B1114602F036FA00281CBF6FF002008D
:103D200070BD2068FFF765FE2860606802F01CFA2D
:103D3000286838B104E02068FFF75BFE286008B10E
:103D4000002070BD6FF0040070BD00002DE9FF4F32
:103D500083B09B46DDE911980E460746DDF840A08A
:103D600000F064FA01230822042100F069FA0446F5
:103D7000FFF76AFF114D0095002F14BF01210021AC
:103D80000F4B10A2FFF720FFFFF75EFF0095002EFC
:103D900014BF012100210A4B11A2FFF715FFCDE945
:103DA00000A95B4631463846059AFFF739FEC4E95B
:103DB000000807B02046BDE8F08F0000482B03083C
:103DC000302B0308656F5F6669666F5F4E65772805
:103DD000293A2030206974656D5F73697A65000047
:103DE000656F5F6669666F5F4E657728293A203098
:103DF000206361706163697479000000002804BF6A
:103E00006FF00100704770B5044640680D4648B138
:103E1000114602F0B7F9002818BF6FF002050FD065
:103E2000284670BD2068FFF7F2FD002818BF6FF02C
:103E30000505F5D129462068FFF7A0FE0025EFE72C
:103E40002068FFF7E4FD002818BF6FF0050503D0D8
:103E5000606802F089F9E3E729462068FFF78EFEE3
:103E60000025F5E7002804BF6FF00100704710B58A
:103E70000446406870B102F085F900281CBF6FF05D
:103E8000020010BD2068FFF75BFE606802F06CF96D
:103E9000002010BD2068FFF753FEF9E770B50D460E
:103EA000040012D06068A0B1114602F06BF900283E
:103EB0001CBF6FF0020070BD2068FFF781FE2880F4
:103EC000606802F051F9002070BD00200880801E5B
:103ED00070BD2068FFF774FE2880F4E7002814BF47
:103EE0000029704770B5054600684FF000060200D3
:103EF00008BF70BD0B4691420DD1002808BF70BDB0
:103F000009B3024688420CD15068002814BF0660ED
:103F10003046286017E0002A1CBF5268002AE9D109
:103F200070BD68681A46884207D100281DBF006826
:103F3000002846603046686005E0086852684260C4
:103F4000D1E900021060A8890C4604288CBFA06843
:103F500004F10800E969002918BF88476889A0F5BD
:103F60007F41FF390ED0286AC4E90060002818BFDD
:103F700004602C622889401E0004000C288108BFC0
:103F80006E6070BDA889042804D900F04FF9A168BB
:103F900000F00CF926606660A66000F047F9214643
:103FA00000F004F9E6E770B505000E4612BF002EDA
:103FB000002070BD2C6874B1AA89042A8CBFA06847
:103FC00004F108003146FDF7B1FD00281EBF002CAA
:103FD0006468002CF0D1204670BD28B14189008969
:103FE00081421CBF00207047012070472DE9FF4F20
:103FF00081B00E46DDE90EA90546002700F016F94E
:1040000001232422042100F01BF9B846C0F80080E7
:10401000C0F804800446A0F80880FFF715FEDFF81A
:10402000E4B0CDF800B0002D14BF01210021364BC3
:1040300036A2FFF7C9FDFFF707FECDF800B0002E4E
:1040400014BF01210021304B37A2FFF7BDFD66816F
:10405000A581039820610498C4F81C90C4E9050A5E
:10406000A6F57F40FF381BD0002E2CD900F0DEF8DB
:1040700001230C22042100F0E3F8A189054604295C
:1040800029D900F0D3F8A2890123042100F0D8F83F
:10409000A8602269002A18BF616918D0904725E0FE
:1040A00000F0C4F800F01EFA002814BF0025012516
:1040B000FFF7CAFD23490091134B234A2946FFF716
:1040C00083FDC4F8208005B02046BDE8F08FA189AB
:1040D000FDF7D7FD0AE02269002A1CBF05F10800A0
:1040E0006169DBD105F10800FDF7EDFD206AC5E946
:1040F0000080002818BF0560781C87B22562B7428F
:10410000B4D3E0E7482B0308372B0308656F5F6CD7
:104110006973745F4E657728293A20302069746589
:104120006D5F73697A650000656F5F6C6973745FBA
:104130004E657728293A2030206361706163697485
:1041400079000000582B0308C8330308002814BF67
:104150000029704770B505460E4640892989884276
:1041600008BF70BD28460AF09DFA040008BF70BD64
:104170003146AA89042A94BF04F10800A068AB69FB
:104180000BB1984701E0FDF7FDFC2889002808BF26
:104190006C6000212868C4E90010002818BF046082
:1041A0002C602889401C288170BD0000002908BFB0
:1041B000704738B50C4C0D46207948B1FFF744FDE7
:1041C0000A4900910A4B0BA20321FFF709FD38BDF4
:1041D0000846FFF707FCE16C081AE064616901B06A
:1041E0002846BDE830400847CC000020582B030883
:1041F000802B0308656F5F6D656D706F6F6C5F443A
:10420000656C65746528293A206F6E6C7920772F6C
:1042100020656F5F6D656D706F6F6C5F616C6C6F4B
:10422000635F64796E616D69630000000348007824
:1042300001280CBF0148002070470000CC0000207E
:104240002DE9F04786B04FF000073C4E8A460197B3
:1042500031799C465FEA02093C46B84618BFBCF17A
:10426000000F09D00CFB09F5F0B1002936D0012967
:104270003CD002292DD041E00394ADF80E4002203D
:104280008DF80C400494059402908DF80D40FFF7D2
:10429000DBFC02A900912A4B2AA20321FFF7A0FC14
:1042A00006B00020BDE8F0870394ADF80E4003206F
:1042B0008DF80C400494059402908DF80D40FFF7A2
:1042C000C3FC02A900911E4B28A20121FFF788FC24
:1042D00004E090F8380010EA0A0F07D1F168284688
:1042E00088470746FFF77EFB804606E001AB624643
:1042F000494650460AF016FA07469FB90394ADF8AE
:104300000E5004208DF80C400494059402908DF812
:104310000D40FFF799FC02A90091094B20A205214D
:10432000FFF75EFC306D019908443065F06C404445
:10433000F06406B03846BDE8F0870000CC000020ED
:10434000802B0308656F5F6D656D706F6F6C5F47E5
:1043500065744D656D6F72792829206973206173CA
:104360006B6564203020627974657300656F5F6DE2
:10437000656D706F6F6C5F4765744D656D6F7279B9
:104380002829206E6F7420696E69747465642075C5
:104390007365732064796E20616C6C6F630000003C
:1043A000656F5F6D656D706F6F6C5F4765744D65B0
:1043B0006D6F72792829206E6F206D6F7265206D88
:1043C000656D6F72790000002DE9F843344C217857
:1043D000012962D0012121700021E16421650028BA
:1043E00008BF3048D0E90023C4E90123027822B194
:1043F000012A18BF022A0CD040E0416800293DD0B4
:104400000968E160416849682161406880686061CD
:1044100034E042684AB392E8EC1304F1180080E8F3
:10442000EC1332B190F8202042F0010280F82020F5
:104430004184826832B190F8202042F0020280F874
:1044400020208184026932B190F8202042F00402D9
:1044500080F82020C184826982B190F8202042F047
:10446000080280F82020018508E0FFF7EDFB0E49E7
:1044700000910E4B0EA20521FFF7B2FBE068002869
:1044800004BF1548E0602069002804BF134820617C
:104490006069002804BF124860610148BDE8F883E4
:1044A000CC000020782B0308482B0308802B03083E
:1044B000656F5F6D656D706F6F6C5F496E69746974
:1044C000616C69736528293A20706F6F6C73206E78
:1044D0006565646564000000E9000308F3000308F3
:1044E000EF0003080148007970470000CC0000206D
:1044F000002819BF0029002A6FF0010070470368E7
:104500000B60808810804FF000007047002804BFC7
:104510006FF0010070470160828000207047002822
:1045200012BF00296FF001007047408908804FF0EA
:104530000000704710B40028DDF804C011BFBCF1C2
:10454000000F6FF0010010BC7047C479012C1EBF32
:104550004FF0FF3010BC70470160828000218171F4
:10456000038143818381C181C0F810C010BC08461B
:10457000704770B50546FFF759FE01231422042148
:10458000FFF75EFE044600202060A080A07120811D
:104590006581A081E081002D04BF2061012008D049
:1045A000FFF744FE01232A461946FFF749FE206122
:1045B0000020E071204670BD002819BF0029002AA4
:1045C0006FF0010070470389C38103690B600089A4
:1045D00010804FF000007047002812BF00296FF0D4
:1045E0000100704770B50446C079154600281CBF0D
:1045F0004FF0FF3070BD628900262069AA4206D3C1
:104600002A46FDF7BFFA2581A581E68107E0FDF77F
:10461000B9FA60892081A081E6810120A071002083
:1046200070BD002101608180817101818181C18122
:104630000846704770B50446086820608888A080E6
:104640000D4660890989884294BF01200020A0712D
:1046500000280CBF288960892081A0810020E0818A
:1046600061892069FDF70DFB228929692069FDF721
:1046700089FA002070BD70B504464FF0000020603C
:10468000A080A0712081A0810D00E081658104BF20
:104690002061012008D0FFF7C9FD0122ABB211460D
:1046A000FFF7CEFD20610020E071002070BD10B545
:1046B000FFF7BCFD012318220421FFF7C1FD0446CA
:1046C000FFF738F8A060FFF735F8E060A068FEF764
:1046D000E1FFE068FEF7DEFFFF202070002161802F
:1046E0006160217403206074A1742046616110BD73
:1046F00010B5FFF755F9002818BF406810BD10B578
:10470000FFF74EF900280CBFFF20007810BD2DE9FF
:10471000F0471D46DDE9086A17468846DDF828900F
:10472000FFF73EF9040004BF6FF00100BDE8F08719
:1047300084F80080678000206060207484F811A0F5
:1047400084F81290A0681DB12946FEF7ACFF01E085
:10475000FEF7A0FFE0681EB13146FEF7A4FF01E0BE
:10476000FEF798FF0020BDE8F087002804BF6FF037
:1047700001007047002904BF4FF0FF30704770B54B
:1047800015460C4601F020FC2A462146BDE8704043
:1047900001F022BCF8B504004FF0000015460E46AB
:1047A000009004BF6FF00100F8BD2046FFF7A0FFA6
:1047B0002068417C012904BF4FF0FF30F8BD807CA8
:1047C00001280AD101F000FC2A46214601F00BFC29
:1047D00000281CBF6FF00200F8BD6946E2686068FF
:1047E000FFF78CFA050008D130460099FFF722FF49
:1047F000034960680968FFF735FB2846F8BD0000EB
:104800001C2B03082DE9FF4F83B01D46DDE910BACC
:1048100091460646FFF70AFD012330220421FFF7E7
:104820000FFD0446FFF710FA00210091711918BF1F
:104830000121224B22A2FFF7C7F9FFF738FF2C4FC7
:10484000DFF8B0802060002E08BF002009D0CDE93D
:104850000087CDF80890284A31461420049BFFF7C2
:1048600075FA6060002D08BF002009D0CDE90087EF
:104870005B46214A29461420CDF808A0FFF766FAC6
:10488000A0601E480068E06000F044F920611C4808
:1048900004F118050FC885E80F00FEF74BFFA06272
:1048A00001F01CFA01F022FA034622461549A06ADB
:1048B000FEF74BFF07B02046BDE8F08F802C0308C1
:1048C000656F5F736F636B65746474675F4E657764
:1048D0002829206E65656473206174206C6561739E
:1048E00074206F6E6520706B74207175657565003E
:1048F0002346020835460208774602081C2B0308A7
:10490000702C0308ADE802082DE9FF4F83B01F4665
:10491000DDE9109BDDF848A0154604004FF0FF3696
:1049200002BF6FF0010007B0BDE8F08F4FF0000844
:10493000012D12BF032DA068002808D1FFF784F9CC
:104940002D4B2EA20521CDF80080FFF749F9022D4D
:1049500018BF032D0AD16068B0B9FFF775F9264B6F
:1049600031A20521CDF80080FFF73AF960680028F0
:1049700008BF012F08D1FFF767F91F4B354A052102
:10498000CDF80080FFF72CF9B9F1000F06D099E8B7
:104990000F0004F1180888E80F0005E02E4B04F121
:1049A00018080FCB88E80F002068007C00BBCDF80A
:1049B00000A0CDE901575B4600212046049AFFF78D
:1049C000A6FE01F001FB214601F0F5FA060004BF46
:1049D00094F8240001280BD1A26A206A4FF001014B
:1049E0000292CDE90001D4E90623206900F006F91E
:1049F00007B03046BDE8F08F802C0308656F5F7309
:104A00006F636B65746474675F4F70656E282920EF
:104A10006E6565647320616E206F757470757420A7
:104A20007175657565000000656F5F736F636B6519
:104A3000746474675F4F70656E2829206E656564C5
:104A40007320616E20696E7075742071756575656F
:104A500000000000F0340308702C0308002804BF95
:104A60006FF00100704730B583B00D460446FFF784
:104A70003FFE00283BD02068407C022837D0D4E994
:104A800002022946FFF7BAF900281CBF03B030BD67
:104A9000DFF864C0D4E90612DCE9003C59408CEA36
:104AA0000202114304BF216A002917D094F8241090
:104AB00000291CBF03B030BD206900F01FF8012899
:104AC00015D0A26A206A00210292CDE90001D4E942
:104AD0000623206900F092F803B030BD01F074FAAB
:104AE00003B02146BDE83040102201F058BA03B0AF
:104AF0004FF0FF3030BD0000202B0308002819BF05
:104B0000007E10F0030000207047012818BF02202B
:104B100070470000F8B5FFF789FB0123302204211C
:104B2000FFF78EFB041E17D01949D1E90021C0E917
:104B3000002100218160C160027E61F3010222F048
:104B4000F40242F0080202760161C1610162416231
:104B50008162C0E90411217701F09CFD0D4E050032
:104B600007D1FFF771F80C4B0CA204210096FFF758
:104B700037F82146284601F095FD38B1FFF764F873
:104B8000054B12A204210096FFF72AF82046F8BD33
:104B9000202B0308682B0308902B0308656F5F74B4
:104BA000696D65725F4E657728293A20656F765F7B
:104BB00074696D65726D616E5F47657448616E649E
:104BC0006C652829206661696C730000656F5F74ED
:104BD000696D65725F4E657728293A20656F765F4B
:104BE00074696D65726D616E5F4F6E4E6577546965
:104BF0006D65722829206661696C73002DE9F84F94
:104C00001546DDE90A7A1E4604466FF00508DDF810
:104C1000309001F03FFD0090002812BFB9F1000F65
:104C20006FF00100BDE8F88FDFF8B8B0DBE90001F4
:104C300080EA050081EA0601084305D0002F04BF81
:104C40004FF0FF30BDE8F88F27480168009801F069
:104C50003FFD10F1030F04BF4046BDE8F88FDBE9CC
:104C6000000168407140084314D0BAF1000F11D11F
:104C700001F02CFB01F037FBEB1946F10002C01AE2
:104C800071EB020006D3009801F014FD4FF0FF30E5
:104C9000BDE8F88F002C1CBF207E10F0030001D06F
:104CA000012818D0207EBAF1000F20F003002076F2
:104CB00014BF40F0040020F004002076A760E4E870
:104CC000075699E80F0084E80F00A4F11C01009832
:104CD00001F0D7FC8046009801F0ECFC4046BDE8AE
:104CE000F88F0000202B03081C2B030870B5044626
:104CF0006FF0050601F0CEFC050012BF002C6FF02E
:104D0000010070BD18480168284601F0E1FC10F16F
:104D1000030F04BF304670BD207E10F0030101D0A8
:104D200001291AD0002161F3010020F0F40040F0C5
:104D3000080020760D48D0E90010C4E900100020DA
:104D4000A060E060E06120626062A06220770446BB
:104D5000284601F0AFFC204670BD2146284601F0F0
:104D6000AFFC0446F4E700001C2B0308202B0308CB
:104D7000002908BF002203D001290CBF0122022212
:104D8000002808BF7047017E62F3010121F0F401A1
:104D900041F0080101760749D1E90021C0E900216D
:104DA00000218160C160C16101624162816201775D
:104DB00070470000202B030802484068002818BFF5
:104DC000004870472C01002000281CBF01484068A3
:104DD000704700002C01002070B5244E044686B0B8
:104DE000706800281EBF214806B070BD002C08BFA7
:104DF0001F4CFEF729FF1F4D00952179002918BF90
:104E000001211D4B1DA2FEF7DFFEFEF71DFF0095E1
:104E10006188002918BF0121174B23A2FEF7D4FE99
:104E2000FEF712FF00952178002918BF0121124BCF
:104E300028A2FEF7C9FE344802AD30A30068314A0B
:104E4000002185E80F0021793048CDE90001628812
:104E500021780023042000F007FC014670602C48F4
:104E600000F048FF06B0014870BD00002C01002092
:104E7000E82B0308482B0308EE2B0308656F6D5FD2
:104E800063616C6C6261636B6D616E5F496E6974C6
:104E900069616C69736528293A20302071756575E0
:104EA0006573697A65000000656F6D5F63616C6CA6
:104EB0006261636B6D616E5F496E697469616C6993
:104EC000736528293A203020737461636B73697AA3
:104ED00065000000656F6D5F63616C6C6261636BA0
:104EE0006D616E5F496E697469616C6973652829CB
:104EF0002030207072696F726974790063626B6D23
:104F0000616E00004F2003081C2B0308D9E802083B
:104F1000C1E802082DE9F0479B4D0446ACB0286873
:104F2000984691468A4600281EBF97482CB0BDE897
:104F3000F087002626962796289629962A961422E8
:104F400026A9D9F80800FEF72FFD26AB8FA28021F5
:104F500006A8FCF781FBFEF777FE954A06A9FEF747
:104F60008BFE002C08BF934CFEF76EFE924F00970D
:104F7000BAF1000F14BF012100218D4B8FA2FEF763
:104F800023FEFEF761FE00976168002918BF01212A
:104F9000874B93A2FEF718FEFEF756FE0097618836
:104FA000002918BF0121824B98A2FEF70DFEFEF7E3
:104FB0004BFE00972178002918BF01217C4B9DA250
:104FC000FEF702FEB8F1000F08BFDFF89082FEF78F
:104FD0003BFE009798F80110002940F0D28098F825
:104FE0000010002918BF002100F0CB80704B9CA25C
:104FF000FEF7EAFDA849A74AA8480292CDE90001B8
:1050000098F80000A64BA74A002100F0F9FF28609D
:105010000021022006F046FC6863FEF715FEA24F51
:105020000097696B002918BF0121614B9FA2FEF711
:10503000CBFD06F02DFB2861FEF706FE00972969DF
:10504000002918BF01215A4BA7A2FEF7BDFDFFF7AB
:1050500061FDA863FEF76EFBE86398F80100002885
:1050600008BFAE640DD006F01FFAA864FEF7ECFD91
:105070000097A96C002918BF01214D4BA7A2FEF78C
:10508000A3FDD822514605F15000FCF7C0FDB9F14F
:10509000000F10D0D9E9000150EA010218BFC5E99C
:1050A0001801D9F80800002818BFA866D9F80C0024
:1050B000002818BFE8660020FFF75BFA2864A748BD
:1050C00000686864207A85F82801286800F056FF97
:1050D0006068A3A1A54ACDE90206CDE90421A44850
:1050E000CDE9000662882178A24B012000F0BCFACD
:1050F0006860686DA0A1A34ACDE90206CDE904214C
:10510000A148CDE900066289617AA04B052000F034
:10511000ABFAA8600024694605F15000FBF717FBC5
:10512000009840B1FFF782F8009901238AB2042168
:10513000FFF786F8044695F82801012806BF944831
:10514000C5F8EC00C5F8EC60214605F15000FBF70E
:105150006CFBFBF749FDFEF777FD154A8DA1FEF7C5
:105160008BFD26AB93A2802106A8FCF775FAFEF70B
:105170006BFD0F4A06A9FEF77FFD2CB00248BDE883
:10518000F087012132E70000E88300205F496E6963
:105190007469616C69736528292065786563757425
:1051A000696E6720666F722049503A2025730000AF
:1051B000642C0308582C0308482B0308656F6D5FA7
:1051C00069706E65745F496E697469616C69736555
:1051D00028293A204E554C4C2069706366670000C0
:1051E000656F6D5F69706E65745F496E6974696142
:1051F0006C69736528293A20302070726F636D6185
:105200007869646C6574696D65000000656F6D5F39
:1052100069706E65745F496E697469616C69736504
:1052200028293A20302070726F63737461636B7346
:10523000697A6500656F6D5F69706E65745F496E50
:10524000697469616C69736528293A2070726F63AB
:105250007072696F7269747900000000552C030840
:10526000656F6D5F69706E65745F496E69746961C1
:105270006C69736528293A2030206D617864617407
:10528000616772616D656E717565756564696E746F
:10529000780000001DEE02083DEA0208B5EA0208A7
:1052A0007DEC020855EB0208682B0308656F6D5F03
:1052B00069706E65745F496E697469616C69736564
:1052C00028293A206F73616C2063616E74206769CE
:1052D000766520626C6F636B696E6773656D617074
:1052E000686F726500000000656F6D5F69706E65C4
:1052F000745F496E697469616C69736528293A2025
:105300006F73616C2063616E742067697665206DD0
:10531000747863616C6C657200000000656F6D5F8E
:1053200069706E65745F496E697469616C697365F3
:1053300028293A206F73616C2063616E742067695D
:105340007665206120646772616D736F636B65744D
:105350007265616479327478000000001C2B0308C8
:1053600069706E65742E70726F630000DD53020801
:1053700061EF020829F2020869706E65742E746983
:10538000636B0000E15302085DF2020861F202085B
:10539000BD3402086970616C5F7379735F73746107
:1053A00072742829206A7573742063616C6C65645B
:1053B000000000005F496E697469616C697365285B
:1053C00029206A7573742065786563757465642037
:1053D000666F722049503A202573000000F036BBFA
:1053E00000F034BB38B5FEF721FF01230822042169
:1053F000FEF726FF044600F0E5FE0D4B0D4A0E4970
:10540000206000F0EDFE06F043F96060FEF71CFC42
:1054100084460A4800906068002814BF01210021DA
:10542000074B08A26046FEF7CFFB204638BD0000C0
:1054300063F202088DF2020893F20208682B030857
:10544000D72B0308656F6D5F6D757465785F4E656A
:105450007728293A206F73616C5F6D757465785F8A
:105460006E657728292072657475726E73204E55AB
:105470004C4C0000002804BF6FF0010070474068EA
:1054800006F070B9002804BF6FF001007047406853
:1054900006F08AB902480068002818BF0048704723
:1054A000C08300202DE9F04F85B005460020334C25
:1054B000DDF83890064604902068984692468B4660
:1054C00000281EBF2D4805B0BDE8F08FFEF7BCFBDD
:1054D0002B4F0097002D14BF01210021294B2AA238
:1054E000FEF772FBFEF7B0FB00976968002918BF52
:1054F0000121244B2DA2FEF767FBFEF7A5FB0097C9
:10550000A968002918BF01211E4B31A2FEF75CFBE0
:105510003B48384B384A39498DE80F00394B3A4AF5
:105520005146584600F0F0FE206068686060A86848
:10553000C4F81090C4E90208686801F0C1FB01F0EA
:1055400011FC2868002818BF02F08AFA04A9A06894
:1055500005F05CFE049840B1FEF768FE0499012353
:105560008AB20821FEF76CFE06463146A06805F0B7
:10557000BBFC05B00148BDE8F08F0000C0830020EF
:10558000482B03082C2C0308656F6D5F7379735FDC
:10559000496E697469616C69736528293A204E55B2
:1055A0004C4C20737973636667000000656F6D5F14
:1055B0007379735F496E697469616C6973652829D1
:1055C0003A204E554C4C2068616C636667000000C1
:1055D000656F6D5F7379735F496E697469616C693A
:1055E000736528293A204E554C4C206F73616C63CB
:1055F00066670000417A020861B90208B9BA020878
:105600005DB9020825EA020899F2020838B50C468D
:105610000546FEF719FB08490091002D14BF012132
:105620000021064B06A2FEF7CFFA0D484461BDE803
:1056300038400C4806F0B0B9482B03082C2C03085E
:10564000656F6D5F7379735F537461727428293A63
:10565000204E554C4C2068616E646C650000000063
:10566000C083002099F402082DE9FF4F87B09346CC
:10567000DDE9157689460546DDF85C80FEF7E4FA3B
:10568000DFF864A2CDF800A01499002918BF012109
:10569000964B97A2FEF798FAFEF7D6FACDF800A03F
:1056A000BBF1000F14BF01210021904B97A2FEF720
:1056B0008BFAFEF7BBFD012324220421FEF7C0FD77
:1056C000044600F001FF2B46C4F82080964D974A0F
:1056D0000021DFF85C822060062B80F0C180DFE8CB
:1056E00003F003182E446FA9A174924BC4E905314D
:1056F000E1612174A160E160CDE90415CDE90021EB
:10570000029103918C4B149A0A9900F011FF00F05A
:10571000B0B80123A374894B6361C4E906612174A5
:10572000A160E160CDE90415CDE90021029103916A
:10573000814B149A0A9900F0FBFE00F09AB80223FC
:10574000A3747F4BE761C4E905362174A160E16071
:10575000CDE90415CDE9002102910391764B149A0D
:105760000A9900F0E5FE00F084B80320A0747548A3
:10577000C4E905060E46E161002F08BF0127F8B213
:10578000207405F091FEC4E90206FEF75DFACDF83B
:105790000080A168002918BF0121544B6AA2FEF7BE
:1057A00013FA7548CDE90206CDE904657348002374
:1057B000CDE900602068149A0A9900F0B9FE58E01B
:1057C0000420A0746E48C4E905060E46E161002F6E
:1057D00008BF0127F8B2207405F066FEA060207CA7
:1057E00005F062FEE060FEF72FFACDF80080A168B8
:1057F000002918BF01213D4B62A2FEF7E5F9FEF733
:1058000023FACDF80080E168002918BF0121374B49
:1058100068A2FEF7D9F9744874490096CDE90405E9
:10582000CDE90261019600232068149A0A9900F0DC
:105830007FFE1EE00522A2746D4A6261C4E9066122
:105840002174A160E160CDE90415009102910391FA
:1058500001910023149A0A9900F06AFE09E000BF42
:10586000FEF7F2F9214B63A20521CDF800A0FEF767
:10587000B7F9A9F10300F82838BF84F8119005D3CF
:10588000B9F1020F34BF0220FB2060740BF1070056
:10589000C0084FF6FF7101EAC003627C189838B166
:1058A000214606F069F92146606006F025F907E017
:1058B0002146606906F060F92146606006F01CF937
:1058C000FEF7C2F9CDF800806168002918BF0121F8
:1058D000064B51A2FEF778F95A480178491C01702D
:1058E0000BB02046BDE8F08F482B0308E02B0308DF
:1058F000656F6D5F7461736B5F4E657728293A2021
:105900004E554C4C2072756E5F666E00656F6D5F14
:105910007461736B5F4E657728293A203020737469
:1059200061636B73697A650043F3020869F40208E6
:10593000682B030875F40208B7F30208EDF20208B9
:10594000B1F20208C3F30208656F6D5F7461736B97
:105950005F4E657728293A206F73616C20676976FE
:105960006573204E554C4C206D2D6D6573736167CA
:10597000657175657565000057F40208A3F30208A8
:105980000DF30208656F6D5F7461736B5F4E657731
:1059900028293A206F73616C206769766573204E01
:1059A000554C4C2063622D6D65737361676571752D
:1059B00065756500656F6D5F7461736B5F4E6577CC
:1059C00028293A206F73616C206769766573204ED1
:1059D000554C4C2063622D617267756D656E7471F4
:1059E00075657565000000000BF4020859F30208A4
:1059F000E7F30208656F6D5F7461736B5F4E6577E7
:105A000028293A20756E737570706F727465642002
:105A10007479706500000000656F6D5F7461736B71
:105A20005F4E657728293A206F73616C206769762D
:105A30006573204E554C4C206F73616C7461736BB1
:105A4000000000002801002000F00BBE002808BF65
:105A500070474169084700F0BBBD00F0C9BD0000B8
:105A600070B5274D044686B0286800281EBF24481C
:105A700006B070BD002C08BF224CFEF7E5F8224EA0
:105A800000962179002918BF0121204B20A2FEF7A2
:105A90009BF8FEF7D9F800966188002918BF01210C
:105AA0001A4B27A2FEF790F8FEF7CEF80096217861
:105AB000002918BF0121154B2BA2FEF785F8FFF72F
:105AC00091FC0090324B334A3349344800F006FED3
:105AD0002860374802AE32A30068344A002186E8C5
