:020000040000fa
:08000000406d04000000000047
:020000040000fa
:10da8000afd3200000ff200000018800000000004c
:10da90000c000700a0f7270001002000110007007c
:10daa000000020000000e000020032000000020040
:10dab00000000000647d0200000000000040da0069
:10dac0000000fe004440a900000020000000e0002b
:10dad0000300320000002000a00188004440a8009c
:10dae0000000060091018800800078000000eb0033
:10daf00015003700e280400032a0b4009101ba0066
:10db0000e280400032a0b4009102ba00e2804000fe
:10db100032a0b4000002eb00472bde00f507b20094
:10db2000602ce10004003a000059eb008301e90099
:10db3000fdff3e00040037006128e10001003200d3
:10db40000082eb00040007001101ba000200e000af
:10db5000e8ff3a00000006003159ba008301e900ed
:10db60000c0032002159ba008301e900080032009c
:10db70000400e00003003a00e280400032a0b4005c
:10db8000f5ff370011d9ba008301e900faff3a0026
:10db90008100e800e180400032a0b40000000600ef
:10dba0003200f80091018800023b88000008bb00a9
:10dbb0000500fc0051052000313b8800a10a20002f
:10dbc000313b880061e7a800000000000000000071
:10dbd0003200f900000006000400a1000100370037
:10dbe0000400a0003200f800910188001100240018
:10dbf000013b8800f10f20003208bb000400a700a1
:10dc0000b20078000198bb008301e900faff3a00f6
:10dc1000680151000400a70068015100680050002d
:10dc20001208bb00e2ff3700f30f20003200f800bb
:10dc30009101880031002400013b88000208bb00ec
:10dc40000388bb00daff37003200f800003b880091
:10dc5000d7ff37003200f800910188000008bb00b0
:10dc6000410424006210e1000400320000022000a0
:10dc70000010e1000a003a0051042400013b880032
:10dc80000500fc0051052000313b8800a10a20005e
:10dc9000313b880061e7a8000000000000000000a0
:10dca0003200f900000006003200f8006004240091
:10dcb000003b8800f2ff37003200f8009101880035
:10dcc00041002400013b88000208bb00ecff370044
:10dcd0003200f8009101880051002400013b8800c7
:10dce000030120003218bb008301e900fdff3a0068
:10dcf000e3ff37003200f8009101880080027800cd
:10dd000062004000e08048003549ba003204e0007b
:10dd10000410a700100032008301e9000e00320059
:10dd20002549ba003204e0000410a7000a003200be
:10dd30008301e900080032000408a300eeff32006e
:10dd400015c9ba003204e0000410a7000200320036
:10dd50008301e900e8ff3a003200f9000000060004
:10dd60006022b800060220000000d0008180d200ae
:10dd70000482d2008582d2000000a000020252007c
:10dd800083825a00030031000202420083824a006b
:10dd90000000a1000603e900f3ff3a0000000600be
:10dda000889fbe008a9fbe00010578000100e00048
:10ddb0000400350008003c000000e00020003200b4
:10ddc0000500370060001000e080180002003b00f2
:10ddd00001f02c001a0037000004be006011b800ea
:10dde0006b0920000982cf00020039000882cf00b1
:10ddf0000441b000694252000e00320008003b00ae
:10de000082817100610164008904d1000884d3001b
:10de10008b05e8000442e800f9ff3a0005003700ee
:10de20000804440089844c008b05e9000442e900a1
:10de3000fbff3a00860007000af0a70001f0a000ef
:10de40004f05be004f04be000000060003f0a20014
:10de5000889fbe008a9fbe008c1f7800a20007002a
:10de6000a90033006450e1004f0032006420e1005b
:10de70005200320003826c0007003b000905d0000d
:10de80000306d000820f54000c065d00020039002a
:10de9000020032008901780003067800858255006f
:10dea00004003d000003fd008103fd008502ea003f
:10deb0008b854200840f720002003b00600010005e
:10dec000e08018006011b8000005eb007a28e1003e
:10ded0000a00390006007800c75ddd00f707b200d0
:10dee000878075002d003700828171000a0178005b
:10def000610560008180d1000080d3008502e900c7
:10df0000f9ff3b00060440008784480002003b0004
:10df100060041400e0841c000988a300070032009c
:10df20008a81710082817100610164008904d100dd
:10df30000884d3008b05e800170037000978a30098
:10df400013003a000b00e000130034008b05e900d9
:10df50000804440089844c000a4474000978a30032
:10df60000d003a000b00e000070034008b05e900cb
:10df70000804440089844c0001003a000b00200092
:10df80000978a300f7ff32000001eb000200370020
:10df9000828171000a0178002d0007000cf0a700b3
:10dfa00001f0a000610037006420e10002003a00a7
:10dfb000838f6c00610033000801be000200be00c8
:10dfc0005a0037000001eb005f0007000400320038
:10dfd0000200200003f8230001f0a7009bff0700c8
:10dfe000000006000001be007e0007000470a700cc
:10dff00003f0a10003f8a30013003a006509b10083
:10e0000010003200090035006928e10002003500e7
:10e010000100280000000500000040008180480049
:10e020008502e900fcff3a0000000600f88f42007c
:10e03000050035008100d1000080d3008502e80092
:10e04000fcff3a00000006008000eb000000050025
:10e0500081002000618055000b003d000b00200076
:10e0600061fe2f000100e1001d003400828171007b
:10e07000610164008904d1000884d3000000e80035
:10e08000faff3a0071002000610064000300700094
:10e09000020060000900320061044400e0844c008a
:10e0a0000988a500050032008b05e8006808e1003a
:10e0b00002003a008904d1000884d300f20f200046
:10e0c0000258e10005003d00c75ddd00f907b20020
:10e0d0008980750008007800000006000bf8270012
:10e0e0008b007800000005000004be003d00070022
:10e0f0000003be000405be000200be003900070098
:10e10000844f7500000006000200be006450e1006c
:10e11000050036006420e100020036000968a30013
:10e1200001003a000800be000160a0004f06780020
:10e130004f05be004f04be0000000600f0ff2f0098
:10e14000f1ff2700f9ff3700889fbe008a9fbe00bd
:10e150000003be002300070085057800828152007d
:10e16000020020006220e10004003a00f307b10041
:10e17000040035007718e100040035000600be00f9
:10e18000140037006000b8000f003700f50f2000c2
:10e19000faff2f008502d1000a85d3008301e90030
:10e1a000fcff3b008184620000046500890f74005d
:10e1b000f2ff32008582ea000a85ea00818462006b
:10e1c00000046500a2ff070007f0a70001f0a0000f
:10e1d0000081eb000200e0004f05be004f04be00ce
:10e1e00000000600c70ade00f107b200f50fb2001a
:10e1f00008003200e1cf4200020032000170a000ae
:10e2000024000500810f70000100320004080500a1
:10e2100044000500810f700002003a001400050060
:10e220008502e9000000400081c04800fcff3b007f
:10e230000170a00024000500e14f500007003200eb
:10e24000e24f5000070032008000eb000004e000c5
:10e2500009003a006ec3bf00030037005ec3bf0071
:10e26000010037004ec3bf000080fb004300de000a
:10e270000000a200e100600001007800000006003c
:10e28000401bde0007002000e1cf520003003200f7
:10e29000e2cf52000500320008003700801a8800e3
:10e2a000961a8800a21a880007003700001a880012
:10e2b000161a8800221a880003003700001b880005
:10e2c000161b8800221b88000001eb000a003700a3
:10e2d00060352000e1cf520004003200603620009b
:10e2e000e2cf520001003a00603420001171780042
:10e2f0000201e8008100e8000480fb00800f51006b
:10e30000f3ff3500e1cf52000d003200e2cf5200a2
:10e31000160032006f4062004300dd0041362000ed
:10e320009140780072c8b30082c0600080c0700065
:10e330000100780064e3b7006e63a80000000600e7
:10e340006f4062004300dd004135200091407800bd
:10e3500072c8b30082c0600080c070000100780005
:10e3600054e3b7005e63a800000006006f4062003f
:10e370004300dd00413420009140780072c8b300b2
:10e3800082c0600080c070000100780044e3b700e4
:10e390004e63a80000000600801c880000000600f4
:10e3a000901c8800a11c880000000600e14f50006e
:10e3b00003003200e24f5000030032000400370037
:10e3c000f11a880000000600711a8800000006009b
:10e3d000711b8800000006000004e0000400320009
:10e3e000e14f500002003a00f11b880000000600d7
:10e3f000711c8800000006009623ef008760a900ca
:10e40000c01c8800e7c16000c419dd00a1c0bf00c6
:10e41000f2c8b3000240600003407000a1e0b70002
:10e42000e8806000c308de00c308dd008fc0bf00c5
:10e430000034a100014070008fe0b700000006002a
:10e44000401ade000500200004037800e24f50006f
:10e450001300320005003c000004e0000900320017
:10e46000e14f50001e003a0009003700e44f500011
:10e47000130032000e003500e54f500018003a003e
:10e4800013003700011888001418880016003700a0
:10e49000411888005418880062188800000006009f
:10e4a0008118880094188800a218880000000600cf
:10e4b000c1188800d4188800e218880000000600ff
:10e4c000011988001419880022198800000006002c
:10e4d000411988005419880062198800000006005c
:10e4e000011888001618880022188800000006000d
:10e4f000401ade00050020000004e00006003200a3
:10e50000e14f500004003a00c1198800d419880076
:10e51000e21988000000060081198800941988001b
:10e52000a2198800000006009183a80000000600e0
:10e5300000088800000006000021ef001108880094
:10e5400020088800000006008460a900e741600000
:10e55000c419dd005109200091407800f2c8b300d1
:10e5600082c0600083c070008000fd0095e0b700ad
:10e570008000fd00680060004300de004300dd0015
:10e58000c1082000914078000134a10080c07000d3
:10e59000010078008ce0b700000006000008800051
:10e5a000000006008c60a90005e1a9008460a900b4
:10e5b000000006000004e000040032008000eb00d0
:10e5c000e14f500006003a00020037008ec3bf0042
:10e5d000010037007ec3bf000080fb00c700de00e3
:10e5e0000100780000000600800178000002eb00c6
:10e5f000090037000204e000030032006037200009
:10e60000e14f51000100320060382000e4497800f9
:10e610000402e8008301e8000180fb00800f520043
:10e62000f4ff350000000600203b8800113b880005
:10e6300000000600003b880050052000303b8800a9
:10e64000a00a2000303b880061e7a800000000001d
:10e650000000000061e7af00feff37000000060089
:10e66000900188008208bb0000000600900188002d
:10e670008308bb008288bb00000006009001880070
:10e680001100ba0000000600900188001100ba00d5
:10e690009180ba00000006000001040000000000a4
:10e6a000000006000200fa00000f78000080fa0067
:10e6b000000006000200fa000000eb00000f7800e6
:10e6c000080037001e007800c200dd0060802000d6
:10e6d000008140000080eb008080eb000089be00dc
:10e6e0001e0fe800f00120009e0f1000f5ff34001f
:10e6f0000080fa00000006000200fa00dea2a80076
:10e70000c640a800e0c2bf000080fb004500de005c
:10e7100061406000004f7800e0c2bf000080fb0055
:10e720004500de0061406000004f78001e04e000fc
:10e730000400320060c0b300d2e8b700c782a9006d
:10e740000300370070c0b300d2e8b700de82a90032
:10e750000080fa00000006000000fa00d2c8bf00e6
:10e76000e74f500002003a00e282a90001003700a2
:10e77000cb82a9000080fa00000006000000fa0029
:10e78000d2c8bf00e74f500012003a00e2c2bf00fb
:10e790000080fb004400de00614060000041780022
:10e7a000024078000080ea008180ea006140600059
:10e7b000614060004401dd00212e2000914078007e
:10e7c000f0ceb30000c0600002407000e2e2b7008b
:10e7d00011003700cbc2bf000080fb004400de0008
:10e7e0006140600000417800024078000080ea004b
:10e7f0008180ea0061406000614060004401dd000a
:10e80000b12c200091407800f0ceb30000c0600031
:10e8100002407000cbe2b7000080fa000000060062
:10e820000200fa0010002000000f780005003700f9
:10e83000d2ff070000502300c10020009f05070001
:10e840001e0fe800400120009e0f1000f8ff360068
:10e850000080fa00000006000600fa00000f7800b1
:10e8600011079800424798000040eb0072fe070035
:10e870000004e000fcff3200007c20001e0060006d
:10e88000c500dd00f00320001e0060004200dd0036
:10e8900000807000800078003100b300c08f2f002e
:10e8a000008060008042eb004e4290009e0090008d
:10e8b000821f20000300200071fe07000080fa0084
:10e8c000000006000600fa004047980051479800f3
:10e8d0000e80e800de409000014878008e80e8005d
:10e8e00010c0b30090409800a9ccbf000080fb008e
:10e8f000c400dd004e4090000080fb006f0060000f
:10e90000808070000070200000807000000f780090
:10e910008e80e80022c0b3001e007800ceff070002
:10e920000080fa00000006000600fa004047980048
:10e9300051479800306580000000e000140032006c
:10e940008e80e80070c0b300804878000e80e80038
:10e95000de40900011409800a9ccbf000080fb0071
:10e96000c400dd004e4090000080fb006f0060009e
:10e97000808070000070200000807000000f780020
:10e980008e80e80022c0b3001e007800b2ff0700ae
:10e990000080fa00000006000600fa0040479800d8
:10e9a000514798000040eb00004f78000500370009
:10e9b00072ff07001e4fe80000482800e101200018
:10e9c0003e0507005e4090009e4f1000f8ff3a00a1
:10e9d000240407000080fa00000006001000fa007e
:10e9e0001007980022079800330798001240800013
:10e9f000234080002e009000be00900000025100d5
:10ea0000818259001e009000000040006101b800a2
:10ea10000400be00d2fc0700600798007107980050
:10ea20006e009000fe009000e00f5000e08f580054
:10ea3000060035006e009000fe009000d8fc070034
:10ea40004007980051079800160037006e009000ac
:10ea5000610160006000b800030020000200700047
:10ea6000838070006e029000fe0290008501d1004c
:10ea70000481d3000200700083807000c8fc07008e
:10ea800040079800510798004e019000de01900069
:10ea90004e009000de009000edfc0700400798005b
:10eaa000510798004e009000de00900045fd0700e1
:10eab0000200200003f82300e5fc070049fd0700e1
:10eac000000f78001e007800000040008080e90000
:10ead0001e0090000088b9006101b8002e0090006f
:10eae000be0090000200400083804800f04588008e
:10eaf000014688001e009000000040000080e900f0
:10eb00006101b800f045800001468000020040002d
:10eb10008380480010468800214688002e0090001f
:10eb2000be009000e00f5000e08f58000a003a004d
:10eb30001240800023408000f045800001468000a4
:10eb40000000510081805900000040008180480091
:10eb5000304688000e0037002e019000be01900064
:10eb600000c02f00f1072000800f5100818f590055
:10eb700007003a001040800021408000000178002a
:10eb8000f0458000014680000000510030468800ba
:10eb90000080fa00000006000200fa000040800039
:10eba000000f78001e007800e20f50000b003200ca
:10ebb0001e007800e30f50000d0032001e007800a8
:10ebc000e10f5000010032000d0037006011b80065
:10ebd0000002200081ff07000900370002c02f005b
:10ebe000f3072000000120007cff0700040037002d
:10ebf00002002000830f20007000200077ff070034
:10ec00000080fa00000006000400fa0000408000c6
:10ec1000100798001e009000e20f50001100320013
:10ec20001e009000e30f5000170032001e009000fd
:10ec3000e10f5000010032001c0037003146800017
:10ec4000f0072000808f50000300360010002000e5
:10ec5000000f7800170037000000eb00000f78006d
:10ec60001400370030468000ff0f500003003600cc
:10ec700010002000000f78000e0037000000eb00ad
:10ec8000000f78000b00370030468000ed0f500079
:10ec90000300360010002000000f78000500370048
:10eca0000000eb00000f7800020037000080eb004e
:10ecb000000f78001e0078000080fa0000000600b7
:10ecc0000200fa00adfe070000408000000f78004f
:10ecd0001e007800e10f5000040032001e00780092
:10ece000e20f50000700320012003700f0458000ac
:10ecf000014680000302200062802000b8fb07006c
:10ed00000c003700e06480000000e00009003200e1
:10ed1000f04580000146800062802000ecfb070087
:10ed200061c7bf0001c8b300014060000004e000fb
:10ed3000fbff3a000080fa00000006001200fa0013
:10ed400085fe07000000eb00000f7800ef003700a1
:10ed50001e007800c300dd006088200000804000b5
:10ed60001001be0012079800230798002000200021
:10ed7000810f20001e029000ae029000800f520012
:10ed8000818f5a003c00320020002000810f2000bb
:10ed90001e019000ae019000800f5100818f59003c
:10eda00016003e0080002000010f20001e0290008f
:10edb000ae029000800f5200818f5a008e00320008
:10edc00000002000810f20001e019000ae01900085
:10edd000800f5100818f59001e003200600020001a
:10ede000010f20001e029000ae029000800f520022
:10edf000818f5a0077003200ae003700a00020005b
:10ee0000810f20001e019000ae019000800f510084
:10ee1000818f590066003200c0002000810f200061
:10ee20001e029000ae029000800f5200818f5a00a7
:10ee30007a00320040002000810f20001e01900067
:10ee4000ae019000800f5100818f590031003200d7
:10ee5000980037001e0078004300dd00e400400009
:10ee60006088200000814000e0702c00010020003c
:10ee70000089be008f0037001e0378001e00780056
:10ee80004300dd00e4004000608820000080400076
:10ee90001000be00f20328000300200000027800ea
:10eea000810278000200780083007800000162008f
:10eeb000018062006102b80034079800450798009d
:10eec0003e009000ce009000c000dd000000200059
:10eed00030079800410798003e009000ce00900057
:10eee0006112b80034079800450798003e01900071
:10eef000ce01900002007000838070004331dd007d
:10ef0000e401410062882000028141000089be00c6
:10ef1000680037001e0378001e0078004300dd0003
:10ef2000e400400060882000008040001000be0027
:10ef3000327b280003002000000278008102780064
:10ef40000200780083007800000162000180620006
:10ef50006102b80054079800650798005e009000b1
:10ef6000ee009000c000dd00000020005007980077
:10ef7000610798005e009000ee0090006112b800fa
:10ef800054079800650798005e019000ee0190001c
:10ef900002007000838070004331dd00e401410015
:10efa00062882000028141000089be0041003700d4
:10efb0001e0078004300dd00e4004000608820006f
:10efc0000081400070002000010020000089be0088
:10efd000380037001e0078004300dd00e4004000e8
:10efe0006088200000814000f01023000100200014
:10eff0000089be002f0037001e0078004300dd00ae
:10f00000e40040006088200000814000f0302300d0
:10f01000010020000089be00260037001e03780092
:10f020001e0078004300dd00e400400060882000fe
:10f03000008040001000be0032002c0003002000c1
:10f0400000027800810278000200780083007800d6
:10f0500000016200018062006102b800740798003c
:10f06000050f98007e0090008e089000c000dd0023
:10f070000000200070079800010f98007e009000ab
:10f080008e0890006112b80074079800050f980070
:10f090007e0190008e099000020070008380700055
:10f0a0004331dd00e401410062882000028141001b
:10f0b0000089be001e0078004300dd00e40040002f
:10f0c0006088200000804000100178001e00780059
:10f0d000c300dd00608820000080400090017800bf
:10f0e0001e0078004300dd008080e800608820007a
:10f0f00000804000100078008300780058fd070071
:10f10000800024004bfd07001e0fe8009e007800e1
:10f1100020658000808f50000dff39000080fa00cc
:10f12000000006000400fa006000b800008fbe0076
:10f1300007003700120424001e00be0098fa0700e2
:10f1400000042000010020001e0f40005e974800d0
:10f15000e0cf260001002000be0f1000ae8f180087
:10f16000f4ff3600e06480000000e000060032009a
:10f17000cdfa070061c7bf0001c8b30001406000bd
:10f180000004e000fbff3a000080fa0000000600e7
:10f190001600fa00000f98000e0890001000900072
:10f1a0006f4060000080fb000000e00021003400a0
:10f1b0000e089000c0409000614798006e4090009b
:10f1c0000080fb00100f98001e099000e30f510013
:10f1d000040132009e099000e38f51000a003c00b8
:10f1e0001e089000e10f5000440032009e0890007d
:10f1f000e18f5000a3013c001e0990000200e000d6
:10f20000150032000c0237009e099000e68f510075
:10f21000c3013200f00f20009e089000808f500044
:10f22000e00132001e099000e40f5100db003200c3
:10f23000010237000e089000100078004600de0042
:10f240006f40600071c0b300d3fd07008001eb0088
:10f25000230f9800000237000e0890001000900065
:10f260006f4060000080fb00e10f50001a00340086
:10f270000e089000100078004200de006f40600031
:10f280008080fb00a9ccbf000080fb00808f500075
:10f2900011003a000e089000504090000080fb00e2
:10f2a000e06488000e089000100078004600de0040
:10f2b0006f406000ee40900082fd070010002000cb
:10f2c000b064880010002000c06488001000200096
:10f2d000200f9800e00137000e0890001000780021
:10f2e0004600de006f40600011c0b300aafd0700b9
:10f2f0008000eb00210f9800d70137000e08900026
:10f30000100090006f4060000080fb00e60f50008e
:10f3100093003400c06480000000e00090003200e0
:10f320000e089000504090009eecb7000e08900030
:10f330006040900002e8b7000e0890007040900016
:10f3400003e8b7000e0890001048900004e8b700ea
:10f350000e0890002048900005e8b700104080009b
:10f36000214080008100d1000080d300104088003f
:10f37000214088000e089000004890000004e00042
:10f3800003003a000040eb009fecb700020037009a
:10f3900010c0b3009fecb700006580000000e000e3
:10f3a00010003a006000b800f0458800014688006f
:10f3b000f045800001468000e003b0000180b0000d
:10f3c0001046880021468800100020000040880078
:10f3d000b8fc07000000eb00304688000040eb005e
:10f3e000c8e8b7001240800023408000f04580004c
:10f3f00001468000800f5100818f590022003900a2
:10f40000124080002340800010468000214680008a
:10f41000800f5100818f59001b003e00004080008a
:10f42000e10f50000a003a001240800023408000a3
:10f43000f0458000014680000000510081805900a5
:10f440000000400081804800304688003f003700bf
:10f4500000408000e20f50000300320000408000b6
:10f46000e30f500039003a00104080002140800036
:10f4700000017800f0458000014680000000510046
:10f480003046880031003700304680000000e00040
:10f49000020032000afe070086fc070012408000ce
:10f4a00023408000e0ff270001002000800f510072
:10f4b000818f590003003e001000200000408800aa
:10f4c000210037001240800023408000f0bf2f0051
:10f4d000f1072000800f5100818f59000a0036008b
:10f4e0001240800023408000e0ff2f00f107200041
:10f4f000800f5100818f590003003e002000200042
:10f500000040880010003700124080002340800037
:10f51000f0ff2f00710f2000800f5100818f5900e4
:10f52000090036001240800023408000c000200007
:10f53000810f2000800f5100818f590002003e0092
:10f54000300020000040880093fd070010002000dc
:10f55000b064880012002000220f98003e0137009e
:10f56000c06480000000e000090032000e08900036
:10f57000100078004600de006f40600021c0b3003c
:10f5800005fd07008001eb00230f980032013700d2
:10f5900010002000200f98002f0137003046800017
:10f5a0000000e00001003200c5fd07000e089000d9
:10f5b000100078004600de006f406000ee409000d2
:10f5c000c0fc07000000eb00b0648800dbfd070012
:10f5d0000060fe0030fc070011002000210f9800a1
:10f5e0001d013700c06480000000e000a20032006e
:10f5f000100020001007980010408000214080007b
:10f60000e00f5000e08f580017003a0030468000ad
:10f610000000e00014003a0030468000c200dd0027
:10f62000608020000081400000d4260041002000be
:10f630000089be00304680006400400030468800eb
:10f64000c8c8bf0064404000c8e8b7001e00900072
:10f6500064004000100798009eccbf00644050003a
:10f660009eecb7004e003700c8c8bf00e34f500003
:10f6700003003e0000408000e10f5000090032000e
:10f68000c8c8bf00e14f50003c003e000040800071
:10f69000e20f50000300320000408000e30f5000f2
:10f6a00036003a0000408000e30f500028003a0086
:10f6b00020658000e60f5000090036000e0890001b
:10f6c000100078004600de006f40600051c0b300bb
:10f6d000b1fc07000001eb00220f9800de003700ac
:10f6e00022658000c8c8bf008081fb001e0090001a
:10f6f0008e08900064004000010040001042780035
:10f700004310dd0003004000e4004000608820005a
:10f710000080400004487800c8c8bf00e14f500096
:10f7200016003a0020658000c300dd0060882000dc
:10f730000080400012408000234080000288be000c
:10f74000206580000000e800206588000b0037007d
:10f75000324680001e0090008e0890006400400039
:10f7600001004000904078006080200000004100cf
:10f77000014878000200e800304688001e00900032
:10f780000000e80010079800c8c8bf000040e8006b
:10f79000c8e8b7009eccbf000040e9009eecb7006f
:10f7a000c8c8bf00e44f500008003a001040800075
:10f7b0002140800062004000e08048001040880046
:10f7c000214088000040eb00c8e8b7000efd0700ac
:10f7d000000f78001e00e0000f0032008081eb0077
:10f7e0009e8f110009003a000e089000100078006a
:10f7f0004600de006f40600061c0b30066fc070099
:10f800000000eb00200f9800930037002cfd07004c
:10f81000a8fb0700e0fc07000e0890001000900015
:10f820006f4060008080fb001e009000808f5000c1
:10f8300071ff3e009eccbf000004e0000c003a00c7
:10f84000006580000000e00003003a0035fe07007c
:10f8500010002000006588000e089000100078005d
:10f860004600de006f406000ee40900015fc07008f
:10f8700010002000b064880011002000210f9800c3
:10f88000750037000e089000100090006f40600077
:10f890000080fb00e40f500012003400c0648000c0
:10f8a0000000e0000f003200304680000000e00061
:10f8b0000100320002fd07000e08900010007800e1
:10f8c0004600de006f406000ee409000fdfb070048
:10f8d00010002000b064880012002000220f980061
:10f8e0005d003700c06480000000e00009003200c5
:10f8f0000e089000100078004600de006f406000a7
:10f9000031c0b30024fc07008001eb00230f9800f6
:10f910005100370010002000200f98004e003700e3
:10f920000e089000100090006f4060000080fb0007
:10f93000e10f5000120034000e0890001000780013
:10f940004600de006f406000ee409000ddfb0700e7
:10f950000e089000504090000004e00003003200c8
:10f960001000200030658800020037000000eb0026
:10f970003065880011002000210f98003600370004
:10f980000e089000100078004600de006f40600016
:10f9900061c0b30000fc07000001eb00220f9800db
:10f9a0002d003700a9ccbf000080fb00c400dd00a3
:10f9b0000e089000100078004600de006f406000e6
:10f9c0000080fb006f0060008080700000702000ed
:10f9d0000080700020079800e800470000c0eb009e
:10f9e00080487800218d2000914078006800470011
:10f9f00011409800e800470010c0b300a0409800f4
:10fa0000e800470040c0b300b040980040c0b300d9
:10fa100070479800e80047007e4190002e0090005b
:10fa20008dfb070010002000b06488001300200048
:10fa3000230f9800080037000e089000100078008f
:10fa40004600de006f40600041c0b300b6fb070017
:10fa500010002000200f98002e0890000080fa006f
:10fa6000000006000000fa003bfb07002000200019
:10fa7000810f200070468800814688005246800031
:10fa80007146800080468000f5fa0700800024005f
:10fa9000e8fa070040002000810f2000704688002f
:10faa0008146880062468000714680008046800062
:10fab000ebfa070080002400defa0700f6fa0700e0
:10fac0000080fa00000006002400fa002000200058
:10fad000810f2000704688008146880071468000b2
:10fae00080468000e5fa070050468800f0032000b9
:10faf000000f780071468000804680001e0178006b
:10fb0000d7fa070080002400cafa0700400020004e
:10fb1000810f200070468800814688007146800071
:10fb200080468000d5fa070060468800307a2800b9
:10fb3000000f780071468000804680001e0178002a
:10fb4000c7fa070080002400bafa0700eafa0700a3
:10fb500000c0200010fa070090c3bf000080fb0027
:10fb60004500de000080fb00e30f5000faff340088
:10fb7000014920000000eb0009fa07000040eb00fb
:10fb800060479800b10020006e40900007fa07001f
:10fb9000410020006e4090000ffa070031ff2f0057
:10fba0003008200014fa070000c02f00f1072000e1
:10fbb00010079800210798000002eb0003092000bd
:10fbc00082ca20001e009000ae00900049f8070095
:10fbd00013fb07000040eb0070479800a9ccbf0062
:10fbe0008080fb000070200080807000007c20007e
:10fbf000008060004201dd00a9ccbf008080fb00d6
:10fc00000070200080807000f00320000080600001
:10fc10004200dd00000071000000a00080007800bc
:10fc2000c0ff2100808060006011b8007e4090001d
:10fc300003fa07006011b800d1c321007e40900094
:10fc40002bfa070010c0b300704798006011b8008d
:10fc5000c1c321007e409000f9f907006011b8008f
:10fc6000d1c321007e40900021fa07002efa070040
:10fc700000802000c8f907000000eb002cfa070004
:10fc80006089290050079800de00900090fb2f004b
:10fc900029fa070070ff2f002bfa07001a0037001f
:10fca000a06480000000e000130032003bfa07006f
:10fcb00040079800ce0090005e009000808f5000ba
:10fcc000110039000000eb0019fa0700abfa070039
:10fcd000106580000000e900106588001065800054
:10fce0000000e00008003a000000eb00a06488007b
:10fcf0002cfa070004003700b06480000000e00028
:10fd000001003a0057ff07000040eb0029fa070006
:10fd10000004e00004003a0010c0b30025fa070018
:10fd20000004e000deff32000040eb0021fa070093
:10fd30000004e00022003200c06980007800b900b1
:10fd4000e4004000408d2000008040000041eb00b6
:10fd500081c0b30024fa0700c0698000021c800043
:10fd60007800b90080007800408d200000804000bd
:10fd700002087800c0698000221c80007800b90069
:10fd80008080e800408d200000804000020878005c
:10fd90008ee3a900c169800060022000808f5000be
:10fda00004003c00c06980000000e800c0698800d1
:10fdb00028003700800020003afa070025003700ad
:10fdc00010c0b300fbf907000004e000210032007e
:10fdd000c06980007800b900e4004000408d200038
:10fde0000080400012c0b30081c0b300fef90700dc
:10fdf000c0698000821b80007800b9008000780014
:10fe0000408d20000080400002087800c06980001a
:10fe1000a21b80007800b900e4004000408d200063
:10fe200000804000020878007ee3a900c1698000dc
:10fe300060022000808f500004003c00c0698000f8
:10fe40000000e800c0698800020037008000200040
:10fe500014fa0700c06980007800b90080007800bb
:10fe6000408d20007800500000804000ec004700ea
:10fe700017000900b05878008101b1008001b1007d
:10fe8000c06980000000e900c06988006c0047007c
:10fe9000bffc07000000e0009bff3200b064800060
:10fea0000000e00098ff3a00a06480000000e0003d
:10feb00095ff3a00ebfe070093ff3700f03fb100db
:10fec0000180b10006003500ee03090000000000cb
:10fed000403fb1000180b100fbff3d001000b000c9
:10fee000203fb00002003500008009000000000043
:04fef0000000060008
:020000040000fa
:0200000401f009
:04000000eeff00000f
:020000040000fa
:0200000401f009
:04000400ff7f00007a
:020000040000fa
:0200000401f009
:04000800efff000006
:020000040000fa
:0200000401f009
:04001400ffff0000ea
:020000040000fa
:10000800f87f0000f87f0000f87f0000f87f00000c
:10001800f87f0000f87f0000f87f0000f87f0000fc
:10002800f87f0000f87f0000f87f0000f87f0000ec
:10003800f87f0000f87f0000f87f0000f87f0000dc
:10004800f87f0000f87f0000f87f0000f87f0000cc
:10005800f87f0000f87f0000f87f0000f87f0000bc
:10006800f87f0000f87f0000f87f0000f87f0000ac
:10007800f87f0000f87f0000f87f0000f87f00009c
:10008800f87f0000f87f0000f87f0000f87f00008c
:10009800f87f0000f87f0000f87f0000f87f00007c
:1000a800f87f0000f87f0000f87f0000f87f00006c
:1000b800f87f0000f87f0000f87f0000f87f00005c
:1000c800f87f0000f87f0000f87f0000f87f00004c
:1000d800f87f0000f87f0000f87f0000f87f00003c
:1000e800f87f0000f87f0000f87f0000f87f00002c
:0800f800f87f0000f87f000012
:020000040000fa
:10010800f87f0000f87f0000f87f0000f87f00000b
:10011800f87f0000f87f0000f87f0000f87f0000fb
:10012800f87f0000f87f0000f87f0000f87f0000eb
:10013800f87f0000f87f0000f87f0000f87f0000db
:10014800f87f0000f87f0000f87f0000f87f0000cb
:10015800f87f0000f87f0000f87f0000f87f0000bb
:10016800f87f0000f87f0000f87f0000f87f0000ab
:10017800f87f0000f87f0000f87f0000f87f00009b
:10018800f87f0000f87f0000f87f0000f87f00008b
:10019800f87f0000f87f0000f87f0000f87f00007b
:1001a800f87f0000f87f0000f87f0000f87f00006b
:1001b800f87f0000f87f0000f87f0000f87f00005b
:1001c800f87f0000f87f0000f87f0000f87f00004b
:1001d800f87f0000f87f0000f87f0000f87f00003b
:1001e800f87f0000f87f0000f87f0000f87f00002b
:0801f800f87f0000f87f000011
:020000040000fa
:10fef400940c0000a60000000200000001000000b5
:10ff040000000000000000000000000000000a00e3
:10ff140000000000000000000000000000000000dd
:10ff240000000000000000000000000000000000cd
:10ff340000000000000000000000000000000000bd
:10ff440000000000000000000000000000000000ad
:10ff5400000000000000000000000000000000009d
:10ff6400000000000000000000000000000000008d
:10ff7400000000000000000000000000000000007d
:10ff8400000000000000000000000000000000006d
:10ff9400000000000000000000000000000000005d
:10ffa400000000000000000000000000000000004d
:10ffb400000000000000000000000000000000003d
:10ffc400000000000000000000000000000000002d
:10ffd4000000000000000000000000000008000015
:0cffe40094040000000000000000000079
:020000040000fa
:04fff0000000fe000f
:020000040000fa
:0200000400fffb
:10f8000006050000010400000000000000000000e8
:10f8100000000000000000000000000000000000e8
:10f8200000000000000000000000000000000000d8
:10f8300000000000000000000000000000000000c8
:10f8400000000000000000000000000000000000b8
:10f8500000000000000000000000000000000000a8
:10f860000000000000000000000000000000000098
:10f870000000000000000000000000000000000088
:10f880000000000000000000000000000000000078
:10f890000000000000000000000000000000000068
:10f8a0000000000000000000000000000000000058
:10f8b0000000000000000000000000000000000048
:10f8c0000000000000000000000000000000000038
:10f8d0000000000000000000000000000000000028
:10f8e0000000000000000000000000000000000018
:10f8f0000000000000000000000000000000000008
:10f9000000000000000000000000000000000000f7
:10f9100000000000000000000000000000000000e7
:020000040000fa
:0200000400fffb
:10f9200000000000000000000000000000000000d7
:10f9300000000000000000000000000000000000c7
:10f9400000000000000000000000000000000000b7
:10f9500000000000000000000000000000000000a7
:10f960000000000000000000000000000000000097
:10f970000000000000000000000000000000000087
:08f9800000000000000000007f
:00000001FF
