:020000040000fa
:080000000001040000000000f3
:020000040000fa
:100200004f8b20000eff20000e0188000000000030
:100210000c00070020ed2000010020001100070065
:10022000000020000000e000020032000000020098
:1002300000000000be080200000000000040da00dc
:100240000000fe004440a900201120000000e00052
:100250000300320000002000a00188004440a800f4
:100260000000060091018800800078000000eb008b
:1002700015003700e280400032a0b4009101ba00be
:10028000e280400032a0b4009102ba00e280400057
:1002900032a0b4000002eb00472bde00f507b200ed
:1002a000602ce10004003a000059eb008301e900f2
:1002b000fdff3e00040037006128e100010032002c
:1002c0000082eb00040007001101ba000200e00008
:1002d000e8ff3a00000006003159ba008301e90046
:1002e0000c0032002159ba008301e90008003200f5
:1002f0000400e00003003a00e280400032a0b400b5
:10030000f5ff370011d9ba008301e900faff3a007e
:100310008100e800e180400032a0b4000000060047
:100320000040da000000fe003200f8009101880071
:100330000008bb00410424006210e1000400320008
:10034000000220000010e1000a003a0051042400dd
:10035000013b88000500fc0051052000313b88006e
:10036000a10a2000313b880061e7a80000000000de
:10037000000000003200f900000006003200f80022
:1003800060042400003b8800f2ff37003200f800d0
:100390009101880041002400013b88000208bb0055
:1003a000ecff37003200f800910188005100240072
:1003b000013b8800030120003218bb008301e900e3
:1003c000fdff3a00e3ff37003200f800910188009a
:1003d0008002780062004000e08048003549ba00a1
:1003e0003204e0000410a700100032008301e9008d
:1003f0000e0032002549ba003204e0000410a700c4
:100400000a0032008301e900080032000408a3005a
:10041000eeff320015c9ba003204e0000410a70054
:10042000020032008301e900e8ff3a003200f900df
:10043000000006006022b800060220000000d00084
:100440008180d2000482d2008582d2000000a00008
:100450000202520083825a0003003100020242006d
:1004600083824a000000a1000603e900f3ff3a007e
:1004700000000600839f68000100e00002003d00cc
:1004800060001000e08018000300e00002003d0062
:1004900060011100e0811900e6ff07004f00e00055
:1004a00002003b0060001000e08018000000060021
:1004b000811f78000100e00002003d006000100094
:1004c000e08018000300e00002003d006001110020
:1004d000e0811900050007004f00e00002003b002a
:1004e00060001000e080180000000600d1ff070047
:1004f0000400be00000006008560a900e74160001e
:10050000c419dd009109200091407800f2c8b300c1
:1005100082c0600083c070008000fd0099e0b700d9
:100520008000fd00680060004300de004300dd0045
:10053000d1082000914078000134a10080c07000f3
:10054000010078008de0b700000006000008880078
:10055000000006003008880000000600889fbe00ea
:100560008a9fbe008c9fbe008e1f78008006780098
:100570008104780002077800010678008005eb000e
:10058000100037008e0f5400140031000804e800fa
:10059000ad0007000004e000faff320016c2bf0001
:1005a00066406000e64f500003003a00e010800013
:1005b000801c780002003700e0108000005e7800a8
:1005c0008b05e8000b8556008d8f55000200320028
:1005d0000004eb00eeff37000005eb000a00780096
:1005e0004f0778004f06be004f05be004f04be0007
:1005f00000000600800078000001780016c2bf00ed
:1006000066406000e64f500010003a0005003700d9
:1006100019c2bf000018a300fdff3a00d2108800e5
:100620008180e800110178000200e000f8ff3a0044
:100630000000060019c2bf000018a300fdff3a0029
:100640000100fb00d01088000201e8009240780011
:100650000104e000f7ff3a000000060019c2bf00e5
:100660000004a20061006000000006008c60a90088
:1006700005e1a9008460a9000000060017e2a900b6
:100680008f00a9008f20a9008700a9008720a9005a
:10069000000006008700a9008720a900e74160004c
:1006a000010a20009140780082cfb30082c0600030
:1006b00083c070008000fd00a0e0b7008000fd0056
:1006c00001c7b30081416000010a20009140780019
:1006d000f2c8b30082c0600083c070008000fd00db
:1006e000a0e0b7008000fd00680160004311de005b
:1006f000f1082000914078000104a10082c0700040
:100700008000fd008fe0b7008000fd000008b2000f
:100710004700de0000404000f108200091407800d2
:100720000114a10080c07000010078008fe0b700c4
:1007300000000600f2108800b0108800c110880088
:10074000000006003015880000000600a022a90065
:1007500000000600a0c2bf000004a200610060000b
:10076000000006000080fb0000004000012820007f
:10077000608078000000060084c0a900e7416000a6
:10078000710920009140780082cfb30082c06000e0
:1007900083c070008000fd0097e0b7008000fd007e
:1007a000680060004300de004600dd00c108200054
:1007b000914078000164a10080c0700001007800c1
:1007c0008ce0b700000006000621ef0061088800f9
:1007d000800888001061a9000000060084e0a900dc
:1007e000e7416000c419dd007109200091407800e4
:1007f000f2c8b30082c0600083c070008000fd00ba
:1008000097e0b7008000fd00680060004300de0054
:100810004700dd00c1082000914078000174a1006c
:1008200080c07000010078008ce0b7000000060076
:1008300050088800000006000a21ef0071088800b7
:10084000900888000000060018c2bf006100600028
:04085000000006009e
:020000040000fa
:1000080090010000500f0000560f00005c0f000028
:10001800620f0000900100009001000090010000b4
:100028009001000090010000900100003c050000d4
:1000380090010000900100006005000090010000a0
:100048009001000090010000900100009001000064
:100058009001000090010000900100009001000054
:100068009001000090010000900100009001000044
:100078009001000090010000900100009001000034
:100088008805000080050000900100009001000034
:100098009001000090010000900100009001000014
:1000a8009001000090010000900100009001000004
:1000b80090010000900100009001000090010000f4
:1000c80090010000900100009001000090010000e4
:1000d80090010000900100009001000090010000d4
:1000e80090010000900100009001000090010000c4
:0800f8009001000090010000de
:020000040000fa
:1001080090010000680f00006e0f0000740f0000df
:100118007a0f00009001000090010000900100009b
:100128009001000090010000900100003c050000d3
:10013800900100009001000060050000900100009f
:100148009001000090010000900100009001000063
:100158009001000090010000900100009001000053
:100168009001000090010000900100009001000043
:100178009001000090010000900100009001000033
:100188008805000080050000900100009001000033
:100198009001000090010000900100009001000013
:1001a8009001000090010000900100009001000003
:1001b80090010000900100009001000090010000f3
:1001c80090010000900100009001000090010000e3
:1001d80090010000900100009001000090010000d3
:1001e80090010000900100009001000090010000c3
:0801f8009001000090010000dd
:020000040000fa
:100854000100000000a000008c00000000680000ff
:1008640001000000534500005454000045440000ba
:100874000a00000053650000742000004243000099
:100884005320000056300000310a00000000000030
:100894002063000075720000726500006e74000031
:1008a400206f00006666000073650000742000007d
:1008b400202000000000000020760000616c000091
:1008c400756500002072000065610000642000006e
:1008d400617400002034000038560000000000005d
:1008e40020740000696d000065200000696e00003e
:1008f4007465000072760000616c00002020000026
:10090400202000000000000020660000696e000046
:10091400697300006865000064200000616e0000d7
:10092400642000007361000076650000642000000c
:10093400746f00002065000065700000726f000095
:100944006d00000000700000726500007373000009
:1009540020410000207400006f2000007365000037
:1009640074200000746800006500000070720000cc
:1009740065730000732000004d200000666f0000c6
:10098400722000004d4500004e550000202000005c
:100994000000000070720000657300007320000006
:1009a40056200000746f000020730000657400007e
:1009b400207400006865000000700000726500008b
:1009c4007373000020540000787800002074000045
:1009d4006f2000007365000074200000746800003c
:1009e400650000003a78000078200000667200007c
:1009f4006f6d000020300000207400006f200000a4
:100a040031350000000000007072000065730000c2
:100a14007320000053200000746f00002066000063
:100a2400696e00006973000068200000616e0000b8
:100a340064200000534100005645000000000000ff
:100a440065720000726f0000722000007265000081
:100a540061640000696e00006720000063680000a4
:100a640061720000616300007465000072000000a0
:040a7400000000007e
:020000040000fa
:100a78003600f800809fbe00829fbe00849fbe00a3
:100a8800869fbe000000fa0010c0b3002ce8b70033
:100a98000000eb00abfe07008460a9000080fa00ac
:100aa8004f03be004f02be004f01be004f00be0004
:100ab8003600f900004006003600f800809fbe00ae
:100ac800829fbe00849fbe00869fbe000000fa0081
:100ad8000000eb009dfe070084c0a9000080fa001a
:100ae8004f03be004f02be004f01be004f00be00c4
:100af8003600f900004006000000fa008720a9002f
:100b08000080fa00004006003600f800809fbe0012
:100b1800829fbe00849fbe00869fbe00889fbe0045
:100b28000c01fa000000eb00000f78000e80e800ce
:100b3800c14328000d00090031587800e000b100d9
:100b480070004700a14428001200090031587800bd
:100b58003001b100f30040000040eb00804878000d
:100b6800400220000e004000e14528001200090064
:100b7800315878003001b100f30040000040eb002c
:100b880080487800800320000e004000214728009c
:100b980012000900315878003001b100f30040001c
:100ba8000040eb0080487800c00420000e004000a0
:100bb8004143280007000900315878008000b1003f
:100bc800400520000e004000614828001d00090073
:100bd80031587800e001b100fe0040000040eb0011
:100be80080487800300720000e004000514a280055
:100bf80012000900315878003001b1006008200067
:100c08000e004000814b280012000900315878007e
:100c18003001b100f30040000040eb00804878004c
:100c2800a00920000e004000c14c28001200090055
:100c3800315878003001b100d00a20000e00400081
:100c4800f14d280014000900315878005001b10016
:100c5800200c20000e004000414f28001000090021
:100c6800315878001001b100f10040000040eb005d
:100c780080487800400d20000e0040006150280098
:100c88001a00090031587800b001b100fb0040009b
:100c98000040eb0080487800000f20000e00400064
:100ca8002152280017000900315878008001b1004e
:100cb800f80040000040eb00804878008700a90059
:100cc800f0004700a0c0b300a050980041022000e7
:100cd8008e804000a0c0b300a0509800f0004700ec
:100ce8000040eb00b0509800410220008e80400088
:100cf8000040eb00b0509800810320008e80400037
:100d08000040eb00b0509800310720008e80400072
:100d18000040eb00a0509800a10920008e80400000
:100d28000040eb00a0509800410d20008e8040004c
:100d3800a0c0b300a0589800410d20008e8040004c
:100d48000040eb00b0589800610820008e804000f9
:100d5800a0c0b300a0509800610820008e80400019
:100d68000040eb00b0509800d10a20008e8040006f
:100d78000040eb00c0509800010f20008e8040001a
:100d8800a0c0b300f0509800010f20008e804000f2
:100d98000040eb008058980000c3b300ace8b700ef
:100da800c18a2000d042800002052000e9fd07002a
:100db800000f7800d0418000e10f500040003a0059
:100dc8000000eb00d04188000000eb00e042880002
:100dd8001043800020438800c04180006103b800b0
:100de8003443800045438000860078000400780082
:100df800000cb80005b0b9000901780000014100f5
:100e080007a0b9000001410082047800b0418000c9
:100e18006101b8000800be0084fd07005043880047
:100e2800614388000e80e800f0fd0700600820009c
:100e38000e004000edfd0700300720000e004000c6
:100e4800eafd070070004700e8fd0700a009200040
:100e58000e004000e5fd0700400220000e004000a3
:100e6800e2fd0700d00a20000e004000dffd070069
:100e7800800320000e004000dcfd0700210c20004c
:100e88008e804000a0c0b30080509800210c200044
:100e98008e8040000040eb0090509800200c20000d
:100ea8000e004000d1fd0700400d20000e0040005c
:100eb800cefd0700e7fd07000004e000fdff3a0053
:100ec800acc8bf000000fb005007990030052000a7
:100ed800de009100808f5000840032003005200031
:100ee800de009100808f500009003c0010042000b3
:100ef800de009100808f50000e003200d0042000e8
:100f0800de009100808f50005b0032008b003700bc
:100f180040052000de009100808f5000370032002d
:100f280060052000de009100808f5000190032001b
:100f380082003700f000470000c2b300a0509800bc
:100f480021438000904180008080400000e02f0015
:100f5800008040009041880070004700a3fd070012
:100f6800c00420000e004000a0fd0700600820001b
:100f78000e0040009dfd0700400d20000e004000bf
:100f88009afd0700b3fd07000004e000fdff3a00ea
:100f980070003700410220008e80400000c2b3007c
:100fa800a0509800524380006343800000fd2b004e
:100fb800010020001dfd0700b0418800400220000c
:100fc8000e00400089fd0700c00420000e0040000c
:100fd80086fd0700600820000e00400083fd070022
:100fe800400d20000e00400080fd070099fd07001d
:100ff8000004e000fdff3a0056003700810320009e
:101008008e80400000c2b300a0509800210020004c
:10101800c08a20003f020700004388000143800087
:10102800001021000088b900804188008dfd07006c
:1010380080418000c6020700800320000e004000a7
:101048006afd0700c00420000e00400067fd07008d
:10105800600820000e00400064fd0700400d2000dd
:101068000e00400061fd07007afd07000004e00063
:10107800fdff3a00370037000e80e8005bfd0700ef
:10108800600820000e00400058fd070030072000cf
:101098000e00400055fd07007000470053fd070093
:1010a800a00920000e00400050fd0700400220006b
:1010b8000e0040004dfd0700d00a20000e00400041
:1010c8004afd0700800320000e00400047fd07008e
:1010d800200c20000e00400044fd0700400d2000b9
:1010e8000e00400041fd07001a00370010002000e4
:1010f800d0418800410520008e8040000040eb0070
:10110800e0589800400520000e00400037fd070019
:1011180090418000304188000043800040418800b1
:10112800b0418000204188002d02070049fd0700da
:101138000004e000fdff3a0006003700000f200021
:101148000e00400029fd070042fd07000004e000f2
:10115800fdff3a000080fa004f04be004f03be00b6
:101168004f02be004f01be004f00be003600f9001e
:10117800004006001000fa00889fbe000000eb0047
:10118800500798003bfd0700e0fa2f003ffd0700dd
:10119800f00020004007980020f82d003007980044
:1011a800d0752f00200798004e019000ae009000e7
:1011b8003e0090005dfd07001f030700a022a90064
:1011c8006021840071218400c0438800d1438800d5
:1011d800502184008000780000e120000180de00ba
:1011e800004388004f02070020418000b04188007a
:1011f800304180009041880041418000001021006a
:101208000088b900804188008041800050020700b2
:10121800ab0207000040eb00604f9800000220007e
:1012280060079800dca2a90000003700d0418000c8
:101238000000e000010032000040fe002cc8bf00a2
:10124800e14f5000f9ff3a00dca2a8000040eb0093
:101258002ce8b7000040eb00604f98000000eb005e
:10126800000f78000000eb001007980000fe2f0028
:1012780032fd0700a002a900a022a800a0002000bb
:10128800b10007002ffd070030fd07000004e00053
:10129800fdff3a000040eb0030fd070080007800b9
:1012a80090418000008050001043880010fe2f00fd
:1012b80022fd0700a002a900a022a80040012000ea
:1012c800a10007001ffd070020fd07000004e00043
:1012d800fdff3a000040eb0020fd07000100200060
:1012e8003043880041438800b04180006103b80062
:1012f800344380004543800086007800040078006d
:10130800000cb80005b0b9000901780000014100df
:1013180007a0b9000001410082047800c0418000a4
:101328006101b8000800be0040fc07003043880097
:101338004143880010438000a0418800a1418000fb
:1013480000e02f0000804000a0418800a0418000fc
:101358000080d10000004000a04188003043800098
:101368004143800080007800a0418000e800070029
:10137800c0438800d143880062218400732184001f
:10138800c0438000d1438000000051008180590093
:10139800e00f5000e08f58001700340062218400ed
:1013a80073218400c0438000d143800000025100b3
:1013b800818259008400780040062000000bb800a4
:1013c8006020b900070178000001410040062000b4
:1013d80000a8b9000001410082037800822184003e
:1013e800932184000600be0020fc0700804388008b
:1013f80091438800030037006000b80080438800ec
:1014080091438800104380006101b8003043800098
:1014180041438000020140008381480080438000ee
:10142800914380000200400083804800a043880068
:10143800b14388008243800093438000510020001c
:10144800c089200077000700114380004200200077
:101458000089200046000700304380004143800097
:1014680080007800420020006089200040000700ca
:10147800a2438000b343800051002000408a20002e
:1014880068000700d04180000000e0001f00320023
:10149800c083200055fc07000089200053fc07008a
:1014a8000084200051fc0700608920004ffc0700e1
:1014b800b08420004dfc0700c08920004bfc0700c9
:1014c8000085200049fc0700408a200047fc0700ef
:1014d8005085200045fc0700030037005e0090009f
:1014e8000000e800500798005afc07000004e000dc
:1014f80004003200de009000f07c2000808f500055
:10150800f6ff34000000eb0050079800e04280002e
:10151800ea0f500004003c00e04280000000e800b0
:10152800e042880006003700000000000000eb00e1
:10153800e04288000000000010002000d041880030
:10154800dca2a90039ff37000200fa00000f78007a
:101558000000000002003700000000001e0fe90034
:101568001e00e000fcff3c000080fa0000000600be
:101578000a00fa00200798003107980042079800ef
:101588000000eb00100798000000eb00100798001f
:10159800180037003e009000a2002000110009004a
:1015a8000280d8008000fd00000f78003e00900007
:1015b800a2002000110009000280d800300798001e
:1015c800ce0090001e00900000805000800078003f
:1015d8002e009000008040008000e9001e00780086
:1015e8000043b000804878001e0090000000e8002a
:1015f800100798009e0090004e009000808f5000c9
:10160800e4ff3900ce0090002e00900000804000da
:101618008000e8000040eb00804878000080fa0075
:10162800000006000c00fa00200798003207980016
:1016380043079800510798000000eb001007980036
:101648003e009000ce009000e00f5000e08f580060
:1016580004003400ae009000b0c2b30080487800a7
:1016680003003700ae009000d0c2b3008048780075
:101678000000eb0010079800190037003e009000aa
:10168800ce009000a20020000300200086fb070087
:10169800000f78003e009000ce009000a2002000cd
:1016a8000300200071fb07003007980041079800ed
:1016b800de0090001e00900000805000800078003e
:1016c8002e009000808040001e0078000043b0008b
:1016d800804878001e0090000000e800100798007d
:1016e8009e0090005e009000808f5000e3ff39005c
:1016f800de0090002e009000008040008080e8000e
:101708000040eb00804878000080fa0000000600e6
:101718002200fa00700f98000117980000002700b7
:10172800f1ff2f00500f9800610f9800808227006a
:10173800111d2000300f9800410f980060182700f5
:10174800e1ff2f00100f9800210f980080c8220099
:10175800914c200070079800010f98003034280041
:10176800f1ff2f00500798006107980080132800a8
:10177800611d200030079800410798006000b800fc
:1017880010079800210798000000eb00000f780070
:101798007e0890000000e00002003d000000eb0021
:1017a800700f9800010420007e089000008050000f
:1017b8007800b90042062000110009000200d80094
:1017c800000f7800d02f20009e0040000e109000df
:1017d800808f500014003c000e1090001e00500036
:1017e8006102b900840078005e089000000bb80020
:1017f8006e08900000a0b9000701780000014100c0
:101808005e0890000580b90000014100820378005d
:101818003e089000ce0890000600400087804800ef
:101828001007980021079800d02f20009e00400044
:101838000e109000808f500019003400202c2000da
:101848009e0040000e109000808f500014003c0055
:101858000e1090001e0050006102b900840078004c
:101868001e089000000bb8002e08900000a0b900d8
:1018780007017800000141001e0890000580b900aa
:1018880000014100820378007e0090008e089000dd
:10189800060040008780480010079800210798003c
:1018a800202c20009e0040000e109000808f5000d9
:1018b800140034000e1090001e0050006102b900a0
:1018c800840078005e009000000bb8006e00900065
:1018d80000a0b90007017800000141005e009000f7
:1018e8000580b90000014100820378003e009000a5
:1018f800ce0090000600400087804800100798003e
:10190800210798001e009000ae0090000080fa00a9
:10191800000006001200fa0070079800010f9800f6
:101928000000eb0010079800e400470010002000ba
:1019380080087800e4004700a0002000900098008c
:10194800e400470040062000a0009800e40047009b
:10195800803e2000b0009800e4004700007122009b
:10196800c00098000000eb00100798001500370031
:101978009e0090007e009000008040000000e8007b
:10198800104078008000fb0000fd2f000080400020
:10199800000178008e0890001e0090000080500022
:1019a8000000e900e4004700000040006080780083
:1019b8000090b9001e0f40001e0090000000e800d3
:1019c800100798009e0090000e089000808f50002d
:1019d800e7ff39001e0078000080fa0000000600ca
:1019e8000c00fa000000eb00300798000000eb0044
:1019f800100798000000eb00000f780000c02f00cf
:101a0800f107200040079800510798000000eb00fc
:101a180030079800120037004e009000de0090005a
:101a28004e019000de01900061014100e081490013
:101a380042079800530798002200200038fa070050
:101a480061c7bf0001c8b300014060000004e000a6
:101a5800fbff3a003e0090000000e80030079800c5
:101a6800be009000b0022000808f5000eaff3600d0
:101a780000c02f00f1072000400798005107980088
:101a880000802000200798000000eb003007980035
:101a98001b0037002e009000100178004e009000c7
:101aa800de00900037fa07004e009000de0090003c
:101ab80062004000e0804800400798005107980005
:101ac8002e0090000080e800200798001e0090007b
:101ad8000000e80010079800c0022000000f7800fe
:101ae80061c7bf0001c8b300014060000004e00006
:101af800fbff3a003e0090000000e8003007980025
:101b0800be009000b0022000808f5000e1ff360038
:101b18001e0090000000e800100798000080fa00fe
:101b2800000006000400fa0000c02f00f1072000a2
:101b3800008fbe000002eb00c302200002802000dc
:101b48001e00be001efa07000080fa000000060012
:101b58000e00fa00600798000000eb0020088800db
:101b68008460a9005109200091407800f0c8b300b2
:101b780000c0600001c4b3000140700095e0b700e8
:101b88008c60a8006e0090001008880041102000aa
:101b980091407800f0ccb30000c060000044a00081
:101ba80004e1b7000421a80042c0bf000080fb0088
:101bb8004500de000080fb0050079800900280007e
:101bc80010079800ff3ffc00210420009140780096
:101bd80000ceb30000c0700042e0b7001e009000c5
:101be8009002880020c0b300004f980060c4b30082
:101bf8007047980070c5b3006047980020742000b3
:101c080020079800ae0190007e419000ee409000c1
:101c18000e48900082497800814978008049780010
:101c280090028000000f7800ff3ffc005e009000eb
:101c380067406000c500dd0042c0bf007f40600013
:101c48000140700042e0b7001e0078009002880052
:101c580005e1a80000088000e10f5000fdff3600f4
:101c68000080fa00000006000200fa00000f780069
:101c780090ff2f00befa07000000eb0033fa0700c0
:101c88009e007800d0fa2f00cdfa07000080fa00f5
:101c9800000006000200fa00000f780090ff2f00f5
:101ca800ccfa07000000eb00dffa07009e0078007e
:101cb800d0fa2f00defa07000080fa0000000600c4
:101cc8000000fa000000eb00400e88000000eb0066
:101cd800500e88000000eb00200e88000000eb008a
:101ce800a00e88000000eb00000e8800dc42a9006e
:101cf800dc82a80010002000c0168800dca2a90021
:101d08000080fa00000006000000fa00dca2a8002b
:101d1800dc82a800005327000bfe0700dca2a90004
:101d2800dc82a9000053270007fe07000080fa00a4
:101d3800000006000000fa00dca2a80000532700fb
:101d480001fe0700dca2a90000532700fefd0700e2
:101d58000080fa00000006000000fa00dcc2bf00a4
:101d68000080fb004500de006140600000c0ea0022
:101d780061406000614060004501dd00c12d200028
:101d880091407800f0cdb30000c0600002407000c0
:0c1d9800dce2b7000080fa00000006004a
:020000040000fa
:101da400000800005e0000000200000000000000c7
:101db400000000000000000000000000000000001f
:101dc400000000000000000000000000000000000f
:101dd40000000000000000000000000000000000ff
:101de40000000000000000000002000000110700d5
:101df40000000000400042000001000020432000d9
:101e040000205600200020004443440043200000ea
:101e14002043480020002000434b2000000a00001b
:101e2400007c080008000000000000005e080000bc
:0c1e34005600000000000000000000004c
:020000040000fa
:101e40000800fa00a1e2a90070ff2f00aaf907001c
:101e500080ff2f003007980090a52e0020079800e3
:101e600000bc20001007980090c12500000f7800ea
:101e70003e009000401588002e009000201588003c
:101e80001e009000101588001e00780000158800c4
:101e90008560a900a1e2a8000080fa000000060009
:101ea0000000fa008020a900ffff37000000fa00c0
:101eb0008060a900ffff37000000fa008040a90001
:101ec000ffff37000000fa008080a900ffff370005
:101ed0000000fa008020a900ffff37000000fa0090
:101ee0008060a900ffff37000000fa008040a900d1
:101ef000ffff37000000fa008080a900ffff3700d5
:101f00000000fa00d8a2a900daa2a9000080fa0015
:101f1000000006000000fa00daa2a9004006200036
:101f20008bfd0700daa2a8004006200088fd07000c
:081f30000080fa000000060029
:020000040000fa
:0200000400fffb
:10f8000004050000010400004243000053200000f2
:10f81000204200006f6100007264000020200000a0
:10f8200000000000000000000000000000000000d8
:10f8300000000000000000000000000000000000c8
:10f840000000000000000000400000000000000078
:08f850000100000000000000af
:00000001FF
