:020000040800F2
:1000000090190020A9010008D94F0008EB3F000813
:10001000D54F0008A90300084F7500080000000034
:1000200000000000000000000000000071590008FE
:100030009D040008000000007D530008735900086B
:10004000C3010008C3010008C3010008C301000880
:10005000C3010008C3010008C3010008C301000870
:10006000C3010008C3010008C3010008C301000860
:10007000DD030008ED030008FD0300080D0400087F
:100080001D0400082D040008C3010008CD0300086A
:10009000AD030008BD030008C3010008C301000848
:1000A000C3010008C3010008C3010008C301000820
:1000B000C3010008C301000800000000C3010008DC
:1000C000C3010008C3010008C3010008D956000895
:1000D000C3010008C3010008C3010008C3010008F0
:1000E000C3010008C3010008000000000000000078
:1000F0000000000000000000000000000000000000
:1001000000000000C301000800000000C301000857
:10011000C301000800000000C95A000800000000E8
:100120003D0400084D040008C30100085D040008F8
:10013000C3010008C3010008C3010008000000005B
:10014000C3010008C3010008C30100089D74000832
:10015000C3010008C3010008C3010008C30100086F
:10016000C3010008C3010008C3010008000000002B
:1001700000000000C30100080000000000000000B3
:10018000C3010008C3010008C3010008C30100083F
:10019000C3010008DFF80CD000F03CF8004800472D
:1001A00079750008901900200648804706480047E6
:1001B000FEE7FEE7FEE7FEE7FEE7FEE7FEE7FEE717
:1001C000FEE7FEE7795A00089501000840EA0103BE
:1001D0009B0703D009E008C9121F08C0042AFAD2FD
:1001E00003E011F8013B00F8013B521EF9D27047C1
:1001F000D2B201E000F8012B491EFBD27047002269
:10020000F6E710B513460A4604461946FFF7F0FF15
:10021000204610BD064C074D06E0E06840F00103A3
:1002200094E8070098471034AC42F6D3FFF7B6FFC6
:10023000287600084876000870B58C1810F8015B25
:1002400015F0070301D110F8013B2A1106D110F86F
:10025000012B03E010F8016B01F8016B5B1EF9D173
:100260002B0705D40023521E0DD401F8013BFAE7F9
:1002700010F8013BCB1A921C03E013F8015B01F864
:10028000015B521EF9D5A142D8D3002070BD2DE9E3
:10029000F04FADF5257D0746884691469B460025E3
:1002A000F02169A8FFF7ABFF4FF4D2716846FFF762
:1002B000A6FFF022394669A8FFF788FF002444E032
:1002C00005F05AFD00251DE0B8F1000F0BD1042206
:1002D00002FB045269AB53F82210C5F10302D0B2FD
:1002E00005F064FD0CE0042000FB045069A951F8FE
:1002F000200028B1C5F10301C8B2414605F056FD02
:10030000681CC5B2042DDFDB05F08AFC8246C4EB15
:10031000C4016A4602EB81001C225146FFF756FFDA
:1003200000260EE0C4EBC400694601EB8000805D4E
:10033000C4F10E011C2202FB016109F80100701CCE
:10034000C6B21C2EEEDB601CC4B20F2CB8DB0DF560
:10035000257D00F000B830BCBDE8C08F10B5082086
:1003600000F002F810BD000010B504460448047007
:100370000123024603480178034801F06DFA10BDDD
:10038000D2050020D10500207809002010B50122F7
:100390009103044800F058FF0122D103014800F006
:1003A00053FF10BD0008004800BFFEE710B502482B
:1003B00000F080F910BD00005009002010B502487F
:1003C00000F078F910BD00005009002010B5024877
:1003D00000F070F910BD00005009002010B502486F
:1003E00000F0EAFA10BD0000100C002010B5024821
:1003F00000F0E2FA10BD0000C80B002010B5024862
:1004000000F0DAFA10BD0000800B002010B50248A1
:1004100000F0D2FA10BD0000380B002010B50248E1
:1004200000F0CAFA10BD0000A80A002010B502486A
:1004300000F0C2FA10BD0000F00A002010B502481A
:1004400000F0BAFA10BD0000580C002010B50248A8
:1004500000F0B2FA10BD0000A00C002010B5024858
:1004600000F0AAFA10BD0000B00D002030B590F8E1
:10047000444004F01C050124AC40056C6C60046829
:1004800063608468102C04D10468A2600468E16091
:1004900003E00468A1600468E26030BD70470000BA
:1004A00010B50446094801780948007805F02AFB90
:1004B0004FF4D273074A002107480068FFF7E7FEB0
:1004C0004FF4D271034805F04BFC10BDC605002067
:1004D000C8050020AC070020C005002070470000C0
:1004E0002DE9F04104460D4616461F4694F820803B
:1004F0000DB1012D00D104E040F2E4515FA007F0FE
:1005000039F8B8F1010F02D0B8F1020F7DD15DB911
:100510002068C06800F0030088B9606A40F40010E9
:1005200060620120BDE8F0812068006900F00300EE
:1005300028B9606A40F4001060620120F2E7206888
:1005400000F5D87000EB0510006800F00400B06002
:10055000B06840B9206800F5D87000EB051000685D
:10056000400D306007E0206800F5D87000EB051002
:100570000068C0087060206800F5D87000EB0510B6
:10058000006800F002004008F060206800F5D870B4
:1005900000EB0510406800F00F003061206800F5A6
:1005A000D87000EB0510406800F47F40000AB0618D
:1005B000206800F5D87000EB05104068000C7061F1
:1005C000206800F5D87000EB05108068387020684E
:1005D00000F5D87000EB0510806800F47F40000A39
:1005E0007870206800F5D87000EB0510806800F482
:1005F0007F00000CB870206800F5D87000EB051083
:100600008068000EF870206800E031E000F5D870D6
:1006100000EB0510C0683871206800F5D87000EB59
:100620000510C06800F47F40000A7871206800F56A
:10063000D87000EB0510C06800F47F00000CB871A2
:10064000206800F5D87000EB0510C068000EF87146
:1006500035B92068C06840F020002168C86005E016
:100660002068006940F0200021680861002059E7F7
:10067000606A40F480206062012053E72E2E2F44F0
:100680007269766572732F53544D33324C347878D7
:100690005F48414C5F4472697665722F5372632FD5
:1006A00073746D33326C3478785F68616C5F63614A
:1006B0006E2E63002DE9F05F044600252068466930
:1006C0002068D0F80490206887682068D0F80CA0D3
:1006D0002068D0F810B02068D0F8188006F001002B
:1006E000002855D007F00100C0B1012021688860C2
:1006F00007F0020018B1204600F02AF90EE007F0DA
:10070000040010B145F4006508E007F0080010B1DE
:1007100045F4805502E0204600F019F907F4807096
:10072000C8B14FF480702168886007F4007018B178
:10073000204600F00FF90EE007F4806010B145F498
:10074000005508E007F4006010B145F4804502E070
:10075000204600F0FEF807F48030C8B14FF4803036
:100760002168886007F4003018B1204600F0F4F8E2
:100770000EE007F4802010B145F4004508E007F4CE
:10078000002010B145F4803502E0204600F0E3F887
:1007900006F0080038B10AF0100020B145F40075E9
:1007A00010202168C86006F0040040B10AF008007B
:1007B00028B108202168C860204600F0A5F806F09E
:1007C000020038B12068C06800F0030010B1204674
:1007D00000F09CF806F0400038B10BF0100020B19A
:1007E00045F4806510202168086106F0200040B1C2
:1007F0000BF0080028B1082021680861204600F0AD
:10080000A3F806F0100038B12068006900F003007A
:1008100010B1204600F099F806F4003040B109F01C
:10082000100028B1102021684860204600F08EF8A2
:1008300006F4803040B109F0080028B10820216892
:100840004860204600F089F806F4004088B309F0BB
:10085000040078B306F4807020B108F0010008B1FC
:1008600045F0010506F4007020B108F0020008B15F
:1008700045F0020506F4806020B108F0040008B1DC
:1008800045F0040506F40060A0B108F0700088B1DE
:1008900008F07000402817D006DC10280BD0202864
:1008A0000CD0302819D10CE0502810D0602814D179
:1008B00010E01DE019E045F008050FE045F01005D7
:1008C0000CE045F0200509E045F0400506E045F064
:1008D000800503E045F4807500E000BF00BF20689C
:1008E000806920F0700021688861042021684860D8
:1008F0002DB1606A284360622046FFF7EFFD00F0EB
:1009000000B830BCBDE8C09F7047000010B5044679
:10091000054B064A00212046FFF7E2FD18B164218D
:1009200003A006F016FE10BDE905002024150020E6
:100930002E2E5C5372635C63616E5F7574696C69C3
:1009400074792E630000000070477047704770474D
:1009500070477047704770477047704770B50446DE
:10096000002594F82500022803D00420E063012527
:1009700020E02068006820F00E00216808602068F0
:10098000006820F001002168086094F8440000F03D
:100990001C0101208840216C4860012084F825005A
:1009A00000BF002084F8240000BFA06B10B12046D7
:1009B000A16B8847284670BD70B50446206C056859
:1009C0002068066894F8440000F01C010420884068
:1009D0002840E0B106F00400C8B12068006800F0CB
:1009E000200028B92068006820F004002168086011
:1009F00094F8440000F01C0104208840216C4860F9
:100A0000206B002856D02046216B884752E094F88E
:100A1000440000F01C0102208840284018B306F072
:100A2000020000B32068006800F0200040B9206890
:100A3000006820F00A0021680860012084F8250081
:100A400094F8440000F01C0102208840216C4860AA
:100A500000BF002084F8240000BFE06A50B32046A5
:100A6000E16A884726E094F8440000F01C01082061
:100A700088402840F0B106F00800D8B1206800682E
:100A800020F00E002168086094F8440000F01C017A
:100A900001208840216C48600120E06384F8250033
:100AA00000BF002084F8240000BF606B10B1204616
:100AB000616B884770BD000070B504460CB9012019
:100AC00070BD9F49206888423FD09D4914312068FD
:100AD00088423AD09A4928312068884235D09849CE
:100AE0003C312068884230D0954950312068884296
:100AF0002BD0934964312068884226D090497831C0
:100B00002068884221D08F49206888421DD08D49B5
:100B100014312068884218D08A49283120688842D8
:100B200013D088493C31206888420ED08549503125
:100B30002068884209D0834964312068884204D003
:100B4000804978312068884200D103E0B4217EA03A
:100B500006F010FDA06830B1A068102803D0A0688E
:100B6000B0F5804F00D103E0B52177A006F002FD7B
:100B7000E068402801D0E06800B903E0B62172A027
:100B800006F0F8FC2069802801D0206900B903E054
:100B9000B7216DA006F0EEFC606938B16069B0F570
:100BA000807F03D06069B0F5007F00D103E0B821F9
:100BB00065A006F0DFFCA06938B1A069B0F5806FD0
:100BC00003D0A069B0F5006F00D103E0B9215EA0A9
:100BD00006F0D0FCE06910B1E069202800D103E004
:100BE000BA2159A006F0C6FC206A58B1206AB0F5B7
:100BF000805F07D0206AB0F5005F03D0206AB0F5AF
:100C0000405F00D103E0BB214FA006F0B3FC606859
:100C1000A0B16068012811D0606802280ED0606819
:100C200003280BD06068042808D06068052805D028
:100C30006068062802D06068072800D103E0BD2163
:100C400041A006F097FC3F49206888420BD23C49FE
:100C50002068401A1421B0FBF1F08000606438482D
:100C6000083820640AE037492068401A1421B0FB94
:100C7000F1F080006064334808382064022084F872
:100C800025002068056847F6F0708543D4E9020125
:100C900008432169084361690843A1690843E16980
:100CA0000843216A0843054320680560A068B0F541
:100CB000804F3AD022490839206C88421BD1D0F8A5
:100CC000A80094F8441001F01C020F2191408843C1
:100CD0001B49A031086094F8441001F01C016068C1
:100CE000884017490839D1F8A81008431449083931
:100CF000C1F8A80019E01348A030006894F8441027
:100D000001F01C020F21914088430E49A031086078
:100D100094F8441001F01C01606888400949A03132
:100D2000096808430749A03108600020E0630120FA
:100D300084F82500002084F8240000BFC0E60000ED
:100D400008000240080402402E2E2F447269766586
:100D500072732F53544D33324C3478785F48414C82
:100D60005F4472697665722F5372632F73746D33AB
:100D7000326C3478785F68616C5F646D612E6300FB
:100D80002DE9F04104460E4617461D464FF0000877
:100D90001DB1B5F5803F00D204E040F2EF1124A070
:100DA00006F0E8FB00BF94F82400012802D10220DD
:100DB000BDE8F081012084F8240000BF94F82500EC
:100DC00001282CD1022084F825000020E06320684F
:100DD000006820F00100216808602B463A46314641
:100DE0002046FFF743FB206B30B12068006840F0DD
:100DF0000E00216808600BE02068006820F0040005
:100E0000216808602068006840F00A0021680860D6
:100E10002068006840F001002168086006E000BF1B
:100E2000002084F8240000BF4FF002084046BFE7CE
:100E30002E2E2F447269766572732F53544D3332C0
:100E40004C3478785F48414C5F4472697665722F04
:100E50005372632F73746D33326C3478785F6861CA
:100E60006C5F646D612E630070B5044600F028FA73
:100E700006462546681C00B16D1C00BF00F020FA34
:100E8000801BA842FAD370BD2DE9F84306460C46F4
:100E90000027B8460025B6F1904F0ED0B5488642DF
:100EA0000BD0B548864208D0B448864205D0B44835
:100EB000864202D0B348864200D103E0C421B2A0EA
:100EC00006F058FB208880B220B120686FF30F0035
:100ED00000B903E0C521ACA006F04CFB606848B344
:100EE0006068012826D06068112823D06068022835
:100EF00020D0606812281DD0B2496068884219D09D
:100F0000B1496068884215D0B0496068884211D004
:100F1000AF49606888420DD0AE496068884209D008
:100F2000AD496068884205D06068032802D06068D7
:100F30000B2800D103E0C62193A006F01BFBA0689C
:100F400028B1A068012802D0A068022800D103E0DF
:100F5000C7218DA006F00EFB04E10121B9402068F5
:100F600000EA0108B8F1000F7ED06068022802D0C4
:100F70006068122832D1B6F1904F0ED07D4886427B
:100F80000BD07D48864208D07C48864205D07C48FC
:100F9000864202D07B48864200D103E0D6217AA067
:100FA00006F0E8FA20690F2800D803E0D72176A0E0
:100FB00006F0E0FAF90806F1200050F82150780711
:100FC000C10E0F20884085437907C90E20698840EB
:100FD0000543F90806F1200040F8215035687900F2
:100FE000032088408543207900F003007900884081
:100FF000054335606068012808D06068022805D084
:101000006068112802D06068122823D1E06840B1DE
:10101000E068012805D0E068022802D0E0680328D3
:1010200000D103E0EB2158A006F0A4FAB5687900DE
:101030000320884085437900E06888400543B56017
:1010400075680120B84085432079C0F30010B8408E
:1010500005437560F5687900032088408543790071
:10106000A0688840054300E07BE0F560606800F020
:101070008050B0F1805F74D100BF5848006E40F0DE
:101080000100564908660846006E00F00100009015
:1010900000BF00BF4FEAB130B90850F82150B8077F
:1010A000010F0F2088408543B6F1904F01D10020F9
:1010B00014E03048864201D101200FE02E488642DC
:1010C00001D102200AE02D48864201D1032005E02B
:1010D0002B48864201D1042000E00720B907090F00
:1010E000884005433E48B90840F821503D4805680E
:1010F00025EA0805606800F48030B0F5803F01D132
:1011000045EA080537480560001D056825EA080519
:10111000606800F40030B0F5003F01D145EA0805F1
:101120003048001D0560001D056825EA0805606857
:1011300000F48010B0F5801F01D145EA0805294868
:1011400008300560001D056825EA0805606800F4A0
:101150000010B0F5001F01D145EA080521480C3008
:1011600005607F1C2068F84000287FF4F6AEBDE8DB
:10117000F88300000004004800080048000C004804
:1011800000100048001C00482E2E2F44726976651E
:1011900072732F53544D33324C3478785F48414C3E
:1011A0005F4472697665722F5372632F73746D3367
:1011B000326C3478785F68616C5F6770696F2E633A
:1011C000000000000000111000002110000031108C
:1011D0000000121000002210000032100010024027
:1011E000080001400004014070B505460C46A0B25D
:1011F00018B1200C000400B904E040F2DB1103A098
:1012000006F0B8F968696040686170BD2E2E2F4401
:101210007269766572732F53544D33324C3478783B
:101220005F48414C5F4472697665722F5372632F39
:1012300073746D33326C3478785F68616C5F67709B
:10124000696F2E630000000070B506460C46154617
:10125000A0B218B1200C000400B904E040F2C5119E
:1012600008A006F087F90DB1012D00D104E04FF47C
:10127000E37104A006F07EF90DB1B46100E0B46240
:1012800070BD00002E2E2F447269766572732F5345
:10129000544D33324C3478785F48414C5F44726926
:1012A0007665722F5372632F73746D33326C34789A
:1012B000785F68616C5F6770696F2E630000000083
:1012C00001480068704700000400002070B5044623
:1012D0000D462949206888420BD028492068884259
:1012E00007D027492068884203D0264920688842D1
:1012F00000D103E0742124A006F03CF915B1B5F546
:10130000805F00D103E075211FA006F033F994F847
:10131000410020282DD100BF94F84000012801D1C0
:10132000022070BD012084F8400000BF242084F812
:1013300041002068006820F00100216808602068F2
:10134000006820F480502168086020680068284305
:10135000216808602068006840F00100216808608A
:10136000202084F8410000BF002084F8400000BF26
:10137000D7E70220D5E700000054004000580040A5
:10138000005C0040008400402E2E2F447269766578
:1013900072732F53544D33324C3478785F48414C3C
:1013A0005F4472697665722F5372632F73746D3365
:1013B000326C3478785F68616C5F6932635F65783E
:1013C0002E63000070B504460D4626492068884209
:1013D0000BD025492068884207D0244920688842DC
:1013E00003D023492068884200D103E0A22121A034
:1013F00006F0C0F80F2D00D803E0A3211DA006F0D1
:10140000B9F894F8410020282AD100BF94F8400090
:10141000012801D1022070BD012084F8400000BFE6
:10142000242084F841002068006820F00100216831
:1014300008602068066826F4706646EA052620687B
:1014400006602068006840F00100216808602020E4
:1014500084F8410000BF002084F8400000BFDAE7B4
:101460000220D8E70054004000580040005C0040D3
:10147000008400402E2E2F447269766572732F53BC
:10148000544D33324C3478785F48414C5F44726934
:101490007665722F5372632F73746D33326C3478A8
:1014A000785F68616C5F6932635F65782E63000006
:1014B000704770477047000010B5044624B94FF4D8
:1014C00000706064012010BD6849206888420BD01C
:1014D00067492068884207D066492068884203D05F
:1014E00065492068884200D104E040F2F31163A00E
:1014F00006F040F8A068B0F5806F00D204E04FF429
:10150000FA715EA006F036F8E068012802D0E068C3
:10151000022800D104E040F2F51158A006F02AF8A4
:10152000206918B12069B0F5004F00D104E04FF4F4
:10153000FB7152A006F01EF86069FF2800D804E095
:1015400040F2F7114DA006F015F8A069A0B1A0690E
:10155000012811D0A06902280ED0A06903280BD061
:10156000A069042808D0A069052805D0A06906282C
:1015700002D0A069072800D104E04FF4FC713FA01D
:1015800005F0F8FFE06918B1E069B0F5002F00D16F
:1015900004E040F2F91139A005F0ECFF206A18B11F
:1015A000206AB0F5003F00D104E04FF4FD7133A094
:1015B00005F0E0FF94F8410028B9002084F84000CD
:1015C000204600F09FF9242084F84100206800683C
:1015D00020F0010021680860606820F070602168D8
:1015E00008612068806820F4004021688860E06815
:1015F000012805D1A06840F400402168886004E01B
:10160000A06840F4044021688860E068022802D1A4
:1016100080022168486020684068264908432168A4
:1016200048602068C06820F400402168C860D4E9A0
:1016300004010843A16940EA01202168C860D4E997
:1016400007010843216808602068006840F0010035
:101650002168086000206064202084F84100002098
:10166000206384F8420000BF2DE7000000540040D2
:1016700000580040005C0040008400402E2E2F44A3
:101680007269766572732F53544D33324C347878C7
:101690005F48414C5F4472697665722F5372632FC5
:1016A00073746D33326C3478785F68616C5F693263
:1016B000632E6300008000027047704710B5044637
:1016C00005492068884206D10823044A0448017865
:1016D000044800F009F810BD00540040D305002074
:1016E000D1050020780900202DE9F84304468946F9
:1016F0001746984694F84100202876D120688069E2
:10170000C0F3C03010B10220BDE8F88300BF94F8E8
:101710004000012801D10220F6E7012084F84000B2
:1017200000BF222084F84100102084F842000020ED
:1017300060646762A4F82A804148E06241486063BF
:10174000608DFF2804D9FF2020854FF0807503E0CD
:10175000608D20854FF00075208D002857D0E06BFC
:10176000A0B13948E16BC8623848E16B486300209A
:10177000E16B0863E16B8863238D226802F1240129
:101780003A46E06BFFF7FCFA064610E0202084F8AA
:101790004100002084F84200606C40F080006064EA
:1017A00000BF002084F8400000BF0120ACE7EEB984
:1017B0002748009094F828202B464946204603F0FD
:1017C00047FA608D218D401A608500BF002084F8A3
:1017D000400000BF1121204602F0A0FC20680068F4
:1017E00040F400402168086026E027E0202084F8CB
:1017F0004100002084F84200606C40F010006064FA
:1018000000BF002084F8400000BF01207CE71148A1
:1018100060630F48009094F828204FF00073494609
:10182000204603F015FA00BF002084F8400000BFF6
:101830000121204602F072FC002065E7022063E7E8
:101840000000FFFF1347000845400008294000083A
:1018500000240080734800082DE9F84304468846B8
:1018600016461F4694F84100202840D12068806920
:10187000C0F3C03010B10220BDE8F88300BF94F877
:101880004000012801D10220F6E7012084F8400041
:1018900000BF212084F84100102084F8420000207D
:1018A0006064666267851348E06213486063608D18
:1018B000FF2804D9FF2020854FF0807503E0608D5C
:1018C00020854FF000750D48009094F828202B4695
:1018D0004146204603F0BCF900BF002084F84000D8
:1018E00000BF0121204602F019FC0020C4E70220BD
:1018F000C2E700000000FFFF7348000800200080DE
:101900007047704710B586B00446C24920688842C7
:1019100058D14FF4C0600190122002900120039032
:10192000032004900420059001A94FF09040FFF798
:10193000ABFA00BFB848806D40F40010B649886526
:101940000846806D00F40010009000BF00BFB3484F
:10195000B3490860032048601021B148816000212C
:10196000C16080210161002141618161C161016229
:10197000FFF7A2F818B1F321AAA005F0EAFD00BF15
:10198000A748A063846200BFA4481430A949086036
:10199000032048600021A7488160C1608021016167
:1019A000002141618161C1610162FFF785F820B1C9
:1019B0004FF482719BA005F0CCFD00BF9D48E06311
:1019C000846225E19C492068884259D14FF44060E7
:1019D0000190122002900120039003200490042023
:1019E000059001A99548FFF74FFA00BF8A48806D1E
:1019F00040F48000884988650846806D00F48000C6
:101A0000009000BF00BF854814388D49086003204E
:101A1000486000218A488160C16080210161002105
:101A200041618161C1610162FFF746F820B14FF465
:101A300097717CA005F08DFD00BF8148E063846252
:101A400000BF764828387F4908600320486010218D
:101A50007C4881600021C1608021016100214161D9
:101A60008161C1610162FFF727F820B140F23F11A7
:101A70006CA005F06EFD00BF7248A0638462C7E0F1
:101A800071492068884267D180200190122002901D
:101A900001200390032004900420059001A94FF039
:101AA0009040FFF7F1F910200190122002900120E0
:101AB0000390032004900420059001A95F48FFF7DC
:101AC000E3F900BF5448806D40F400005249886536
:101AD0000846806D00F40000009000BF00BF4F4832
:101AE0003C385A490860032048600021574881600B
:101AF000C16080210161002141618161C161016298
:101B0000FEF7DAFF20B14FF4B87146A005F021FDD1
:101B100000BF4E48E063846200BF404850384C49E3
:101B20000860032048601021494881600021C1609D
:101B300080210161002141618161C1610162FEF783
:101B4000BBFF20B140F2811136A005F002FD00BFBD
:101B50003F48A06384625BE03E492068884257D1D9
:101B6000C0200190122002900120039003200490D5
:101B70000520059001A93148FFF786F900BF2648E6
:101B8000C06D40F002002449C8650846C06D00F0F1
:101B90000200009000BF00BF2F48304908600020BD
:101BA000486000212D488160C160802101610021D1
:101BB00041618161C1610162FEF77EFF20B140F2A7
:101BC000AB1118A005F0C5FC00BF2448E063846297
:101BD00000BF2148143022490860002048601021CD
:101BE0001F4881600021C1608021016100214161A5
:101BF0008161C1610162FEF75FFF20B14FF4DE71C8
:101C000008A005F0A6FC00BF1548A063846200BFD1
:101C100006B010BD00540040001002406C000240AD
:101C2000A80A00202E2E2F5372632F6932632E6371
:101C300000000000F00A00200058004000040048A6
:101C4000380B0020800B0020005C0040C80B0020F7
:101C5000100C00200084004008040240580C0020B2
:101C6000A00C00207047704702480068401C0149E2
:101C7000086070470400002010B5032000F006F94A
:101C8000002000F005F800F017F8002010BD00005B
:101C900070B50446074800684FF47A71B0FBF1F55F
:101CA000284602F032F800222146501E00F080F84B
:101CB000002070BD0000002008B500BF2148006E64
:101CC00040F001001F4908660846006E00F0010060
:101CD000009000BF00BF00BF0846806D40F08050FC
:101CE00088650846806D00F08050009000BF00BFFE
:101CF000032000F0CBF8002211466FF00B0000F03B
:101D000057F8002211466FF00A0000F051F8002247
:101D100011466FF0090000F04BF800221146501FE9
:101D200000F046F800221146101F00F041F8002292
:101D30001146901E00F03CF800221146501E00F0A3
:101D400037F808BD0010024010B50446002C00DB37
:101D500003E0E32107A005F00DFC00BF04F01F0124
:101D6000012088406109890001F1E021C1F80001EA
:101D700000BF10BD2E2E2F447269766572732F53EB
:101D8000544D33324C3478785F48414C5F4472692B
:101D90007665722F5372632F73746D33326C34789F
:101DA000785F68616C5F636F727465782E630000A2
:101DB0002DE9F05F80460C4615460027102D00D215
:101DC00003E0CF2120A005F0D5FB102C00D203E0CA
:101DD000D0211DA005F0CEFB03F000F907463946DF
:101DE00022462B4601F00700C0F1070ABAF1040FA2
:101DF00002D94FF0040A01E0C0F1070AD14600F110
:101E0000040ABAF1070F02D24FF0000A01E0A0F174
:101E1000030AD4464FF0010A0AFA09FAAAF1010AA4
:101E20000AEA020A0AFA0CFA4FF0010B0BFA0CFB51
:101E3000ABF1010B0BEA030B4AEA0B0631464046B5
:101E400003F0D4F800F01EB82E2E2F447269766588
:101E500072732F53544D33324C3478785F48414C71
:101E60005F4472697665722F5372632F73746D339A
:101E7000326C3478785F68616C5F636F7274657818
:101E80002E63000030BCBDE8C09F000010B50446C2
:101E9000072C07D0062C05D0052C03D0042C01D02C
:101EA000032C00D103E0B72109A005F063FB00BFBC
:101EB00004F00701154A10684FF6FF021040144A5B
:101EC000024342EA0120114A106000BF10BD000029
:101ED0002E2E2F447269766572732F53544D333210
:101EE0004C3478785F48414C5F4472697665722F54
:101EF0005372632F73746D33326C3478785F68611A
:101F00006C5F636F727465782E6300000CED00E007
:101F10000000FA0570B504460D4615B1012D1CD11F
:101F20000EE0A06938B103F02FFD0D48006820F0E5
:101F300006000B490860D4F8700404F078FA0CE04D
:101F4000D4F8700404F00AFBA06928B104480068C2
:101F500040F006000249086000BF00BF70BD0000ED
:101F600010ED00E070B504460D4604F1280101EBC8
:101F700045114A692946D4F8700404F0E0F870BDB0
:101F800070B504460D4604F50A7101EB45114A6926
:101F90002946D4F8700404F052F970BD70B50446B7
:101FA0000E4606F00F006168884201D9012070BD1D
:101FB00006F08000802808D106F00F0104F1280007
:101FC00000EB41150120687007E006F00F0104F5F1
:101FD0000A7000EB4115002068700020A87006F020
:101FE0000F00287000BF94F82804012801D10220B6
:101FF000DDE7012084F8280400BF2946206804F0AA
:10200000ABFF00BF002084F8280400BF00BFCEE76C
:102010002DE9F04705460E4690461F464FF0000951
:1020200006F08000802808D106F00F0105F1280095
:1020300000EB41140120607007E006F00F0105F588
:102040000A7000EB41140020607006F00F00207051
:10205000C4F81080E770607808B12078E081022F22
:1020600001D10020207100BF95F82804012802D179
:102070000220BDE8F087012085F8280400BF214632
:10208000286804F027FD00BF002085F8280400BF61
:102090004846EEE72DE9F04105460E4617469846BC
:1020A00006F00F0105F50A7000EB41146761C4F8F2
:1020B00018800020E061607006F00F00207006F0CC
:1020C0000F0020B92146286804F0DDFF03E0214617
:1020D000286804F0D8FF0020BDE8F08170B5044600
:1020E0000D4605F00F006168884201D9012070BDDE
:1020F00005F08000802808D105F00F0104F12800C8
:1021000000EB41160120707005E004F50A7000EB49
:102110004516002070700120B07005F00F0030707F
:1021200000BF94F82804012801D10220DFE7012034
:1021300084F8280400BF3146206804F076FF05F0DB
:102140000F0020B904F58661206804F002FF00BF8B
:10215000002084F8280400BF00BFC8E72DE9F04143
:1021600005460E461746984606F00F0105F1280071
:1021700000EB41146761C4F818800020E061012081
:10218000607006F00F00207006F00F0020B92146A5
:10219000286804F078FF03E02146286804F073FF04
:1021A0000020BDE8F08110B50446206805F07EF9F6
:1021B00000F40040B0F5004F02D1204602F02AFFA3
:1021C000206805F073F900F48060B0F5806F0ED1DF
:1021D0002068B0F8440020F480602168A1F8440031
:1021E000204600F0D6F80021204600F002F92068D1
:1021F00005F05CF900F48040B0F5804F07D120680D
:10220000B0F8440020F480402168A1F84400206820
:1022100005F04CF900F40050B0F5005F07D12068DC
:10222000B0F8440020F400502168A1F84400206870
:1022300005F03CF900F48050B0F5805F27D12068AC
:10224000B0F840004FF6FB7108402168A1F840004B
:102250002068B0F840004FF6F77108402168A1F8F7
:10226000400094F86004012806D1002084F860043E
:1022700000212046FFF74EFE204600F09FF8206820
:10228000B0F8440020F480502168A1F84400206890
:1022900005F00CF900F40060B0F5006F20D1206863
:1022A000B0F8400040F008002168A1F84000206824
:1022B000B0F8440020F400602168A1F844002068D0
:1022C000B0F8400040F004002168A1F84000206808
:1022D00005F0ECF8C0F3003010B9204600F0AEF87D
:1022E000206805F0E3F800F0800080282DD12068F8
:1022F000B0F8440020F080002168A1F8440094F870
:102300006004F8B92068B0F8400040F0040021688B
:10231000A1F840002068B0F8400040F008002168B3
:10232000A1F84000012084F860042068B0F854004F
:1023300000F0F0008008C4F8640401212046FFF793
:10234000E9FD02E0204600F079F8206805F0AEF8DB
:1023500000F40070B0F5007F0AD12068B0F84400A6
:1023600020F400702168A1F84400204600F03AF8FB
:10237000206805F09BF800F48070B0F5807F07D1ED
:102380002068B0F8440020F480702168A1F844006F
:1023900010BD70B504460125A068022801D100BF18
:1023A00001E0012500BF00BF2946D4F8700404F005
:1023B00056F8D4F8700404F00CF870BD10B504465B
:1023C000A06938B10648006820F00600044908609A
:1023D00003F0D5FAD4F8700404F029F810BD000019
:1023E00010ED00E010B50446D4F8700404F026F8AF
:1023F00010BD70B504460D4600BF94F828040128AE
:1024000001D1022070BD012084F8280400BF84F8A7
:1024100024502946206805F073F800BF002084F896
:10242000280400BF00BFEDE710B5044604F586613F
:10243000D4F8700404F039F810BD000010B504465B
:10244000D4F8700404F08AF8A06928B10348006841
:1024500040F006000149086010BD000010ED00E0EA
:1024600070B504460025B4F5007F02D0B4F5806F46
:1024700000D103E0B82120A005F07CF8B4F5007F7E
:1024800029D12C48006800F4C060B0F5007F31D03D
:102490002848006820F4C06040F4007025490860B6
:1024A000254800682549B0FBF1F0322100FB01F519
:1024B00000E06D1E35B11F48406900F48060B0F542
:1024C000806FF6D01B48406900F48060B0F5806FE3
:1024D00010D1032070BD1748006800F4C060B0F54B
:1024E000806F07D01348006820F4C06040F480601B
:1024F000104908600020EDE72E2E2F4472697665A2
:1025000072732F53544D33324C3478785F48414CBA
:102510005F4472697665722F5372632F73746D33E3
:10252000326C3478785F68616C5F7077725F657861
:102530002E630000007000400000002040420F00A9
:102540000248006800F4C06070470000007000405E
:102550002DE9F8430446002600270025A8462078E8
:1025600000F0010000285FD1207800F0020002286E
:102570005AD0207800F00400042855D0207800F0CC
:102580000800082850D0207800F0200020284BD0E8
:10259000207800F04000402846D0207800F08000ED
:1025A000802841D0208800F48070B0F5807F3BD037
:1025B000206800F48010B0F5801F35D0208800F42A
:1025C0000070B0F5007F2FD0208800F48060B0F557
:1025D000806F29D0208800F40060B0F5006F23D010
:1025E000208800F40050B0F5005F1DD0208800F472
:1025F0008040B0F5804F17D0206800F48030B0F5EF
:10260000803F11D0206800F40030B0F5003F0BD0BF
:10261000206800F48020B0F5802F05D0206800F4F9
:102620000020B0F5002F00D103E0D321FAA004F080
:10263000A1FF208800F40060B0F5006F35D1E06C98
:1026400038B1E06CB0F5000F03D0E06CB0F5400F8E
:1026500000D103E0D921F0A004F08CFFE06C68B158
:10266000B0F5000F03D0B0F5400F0ED10CE0F948E3
:10267000C06840F48030F749C86008E00021201DA0
:1026800002F07EFE054602E001E0012500BF00BF2A
:1026900055B9F0488830006820F44000E16C0843E8
:1026A000EC49C1F8880000E0A846206800F400303A
:1026B000B0F5003F73D14FF00009606E58B1606E05
:1026C000B0F5807F07D0606EB0F5007F03D0606EFC
:1026D000B0F5407F00D104E04FF4A571CEA004F026
:1026E00049FFDC48806D00F0805078B900BFD948C0
:1026F000806D40F08050D74988650846806D00F0B5
:102700008050009000BF00BF4FF00109D248006820
:1027100040F48070D0490860FEF7D2FD074606E01D
:10272000FEF7CEFDC01B022801D9032505E0CA48EB
:10273000006800F480700028F2D000BF85BBC54857
:102740009030006800F44076CEB1606EB04216D092
:10275000C0489030006820F44076BE48D0F8900021
:1027600040F48030BB49C1F890000846D0F8900092
:1027700020F48030C1F890000846C0F8906006F060
:102780000100B0B1FEF79CFD07460AE0FEF798FD98
:10279000C01B41F28831884203D9032508E021E0BB
:1027A00015E0AC489030006800F002000028EDD041
:1027B00000BF55B9A7489030006820F44070616EA2
:1027C0000843A449C1F8900002E0A84600E0A846EA
:1027D000B9F1010F05D19F48806D20F080509D49CF
:1027E000886500BF207800F00100D0B1206A40B1B8
:1027F000206A012805D0206A032802D0206A022816
:1028000000D104E040F29F1183A004F0B3FE914890
:102810008830006820F00300216A08438D49C1F820
:102820008800207800F0020002281AD1606A40B1C6
:10283000606A042805D0606A0C2802D0606A082803
:1028400000D104E040F2A91173A004F093FE814886
:102850008830006820F00C00616A08437D49C1F8A7
:102860008800207800F0040004281AD1A06A40B142
:10287000A06A102805D0A06A302802D0A06A2028BB
:1028800000D104E040F2B51163A004F073FE71487A
:102890008830006820F03000A16A08436D49C1F813
:1028A0008800207800F0080008281AD1E06A40B1BA
:1028B000E06A402805D0E06AC02802D0E06A80289B
:1028C00000D104E040F2C31153A004F053FE61486C
:1028D0008830006820F0C000E16A08435D49C1F813
:1028E0008800207800F0200020281DD1206B58B1EE
:1028F000206BB0F5806F07D0206BB0F5406F03D030
:10290000206BB0F5006F00D104E040F2DD1142A071
:1029100004F030FE4F488830006820F44060216B9E
:1029200008434C49C1F88800208800F40070B0F5D5
:10293000007F1DD1606C58B1606CB0F5802F07D05E
:10294000606CB0F5002F03D0606CB0F5402F00D163
:1029500004E04FF4F37130A004F00CFE3D488830E1
:10296000006820F44020616C08433A49C1F88800AF
:10297000208800F48060B0F5806F1DD1A06C58B144
:10298000A06CB0F5801F07D0A06CB0F5001F03D07D
:10299000A06CB0F5401F00D104E040F2ED111EA084
:1029A00004F0E8FD2B488830006820F44010A16C4A
:1029B00008432849C1F88800207800F040004028EA
:1029C00019D1606B38B1606BB0F5805F03D0606B7C
:1029D000B0F5005F00D104E040F2F5110EA004F064
:1029E000C9FD1C488830006820F44050616B0843E2
:1029F0001849C1F88800207800F0800080283DD177
:102A0000A06B38B1A06BB0F5804F03D0A06BB0F5D0
:102A1000004F23D128E000002E2E2F4472697665E6
:102A200072732F53544D33324C3478785F48414C95
:102A30005F4472697665722F5372632F73746D33BE
:102A4000326C3478785F68616C5F7263635F65785D
:102A50002E630000001002400070004040F201218F
:102A6000AFF24C0004F086FDA248006820F440401C
:102A7000A16B08439F498839C1F88800208800F479
:102A80008070B0F5807F1AD1E06B38B1E06BB0F5A3
:102A9000803F03D0E06BB0F5003F00D105E040F28D
:102AA0000D21AFF28C0004F065FD9248006820F41F
:102AB0004030E16B08438F498839C1F888002068AD
:102AC00000F48010B0F5801F19D1206C28B1206C63
:102AD000012802D0206C022800D105E040F2192123
:102AE000AFF2CC0004F046FD82481430006820F0BC
:102AF0000300216C08437F498839C1F89C00208875
:102B000000F40050B0F5005F34D1206D58B1206D55
:102B1000B0F1806F07D0206DB0F1006F03D0206D51
:102B2000B0F1406F00D105E040F22621AFF218105D
:102B300004F020FD6F48006820F04060216D0843DC
:102B40006C490860206DB0F1006F08D16948883881
:102B5000C06840F4801067498839C8600AE0206D79
:102B6000B0F1806F06D10121201D02F009FC05465D
:102B700005B1A846206800F40020B0F5002F34D13C
:102B8000606D58B1606DB0F1806F07D0606DB0F1CD
:102B9000006F03D0606DB0F1406F00D105E040F2EE
:102BA0004521AFF28C1004F0E5FC5248006820F09B
:102BB0004060616D08434F490860606DB0F1006F7F
:102BC00008D14C488838C06840F480104949883999
:102BD000C8600AE0606DB0F1806F06D10121201D50
:102BE00002F0CEFB054605B1A846206800F480201F
:102BF000B0F5802F34D1A06D58B1A06DB0F1806FC9
:102C000007D0A06DB0F1006F03D0A06DB0F1406FA0
:102C100000D105E040F26621AFF2042004F0AAFCE6
:102C20003448006820F04060A16D084331490860D5
:102C3000A06DB0F1006F08D12E488838C06840F40C
:102C400080102C498839C8600AE0A06DB0F1806F0F
:102C500006D10121201D02F093FB054605B1A846CF
:102C6000208800F48040B0F5804F23D1E06D38B16A
:102C7000E06DB0F1805F03D0E06DB0F1405F00D156
:102C800005E040F27F21AFF2702004F073FC194898
:102C9000006820F04050E16D084316490860E06D7F
:102CA000B0F1805F06D10221201D02F069FB0546CC
:102CB00005B1A846206800F48030B0F5803F16D1F9
:102CC000206E18B1206EB0F1004F00D105E040F247
:102CD000B621AFF2BC2004F04DFC0648006820F09D
:102CE0000040216E084303498839C1F888004046F6
:102CF000BDE8F8838810024070B504460D460CB953
:102D0000012070BD2068012803D320680F2800D857
:102D100004E04FF46F718DA004F02CFC3DB1012D47
:102D200005D0022D03D0032D01D0042D00D104E0E5
:102D300040F2BD3185A004F01DFC9248006800F00F
:102D40000700A8420ED28F48006820F007002843F1
:102D50008C4908600846006800F00700A84201D0CE
:102D60000120CEE7207800F00100002851D06068F3
:102D700040B16068012805D06068022802D0606810
:102D8000032800D104E04FF4757170A004F0F2FB49
:102D90006068032806D17C48006800F00070D8B94C
:102DA0000120AEE76068022806D17748006800F489
:102DB000003088B90120A4E7606830B97248006823
:102DC00000F0020040B901209BE76F48006800F462
:102DD000806008B9012094E76B48806820F0030008
:102DE0006168084368498860FEF76AFA064608E0A9
:102DF000FEF766FA801B41F28831884201D9032030
:102E00007FE76148806800F00C006168B0EB810FDB
:102E1000EED1207800F00200022827D1A068B8B1D6
:102E2000A068802814D0A068902811D0A068A0289D
:102E30000ED0A068B0280BD0A068C02808D0A06829
:102E4000D02805D0A068E02802D0A068F02800D1E2
:102E500004E040F22A413DA004F08CFB4A4880681F
:102E600020F0F000A16808434749886045480068A1
:102E700000F00700A8420ED94248006820F0070081
:102E80002843404908600846006800F00700A8424F
:102E900001D0012035E7207800F0040004281FD17C
:102EA000E06878B1E068B0F5806F0BD0E068B0F50D
:102EB000A06F07D0E068B0F5C06F03D0E068B0F550
:102EC000E06F00D104E040F2494120A004F052FB41
:102ED0002D48806820F4E060E16808432A49886052
:102EE000207800F00800082820D1206978B12069F6
:102EF000B0F5806F0BD02069B0F5A06F07D02069C6
:102F0000B0F5C06F03D02069B0F5E06F00D104E0E8
:102F10004FF48A610DA004F02DFB1B48806820F45B
:102F20006050216940EAC1001749886000F038F814
:102F300015498968C1F30311144A515CC84014490A
:102F400008600020FEF7A4FE0020DAE62E2E2F44B3
:102F50007269766572732F53544D33324C347878DE
:102F60005F48414C5F4472697665722F5372632FDC
:102F700073746D33326C3478785F68616C5F726340
:102F8000632E63000020024000100240E07500083C
:102F90000000002001480068704700000000002089
:102FA000F0B50021002300240225022200203B4E20
:102FB000B66806F00C065EB1384EB66806F00C0630
:102FC0000C2E1ED1354EF66806F00306012E18D1E0
:102FD000324E366806F008062EB9304E9436366802
:102FE000C6F3032103E02D4E3668C6F303112C4EC1
:102FF00056F82110294EB66806F00C0686B9084628
:103000000EE0264EB66806F00C06042E01D12548C7
:1030100006E0224EB66806F00C06082E00D12148C4
:103020001E4EB66806F00C060C2E36D11B4EF66806
:1030300006F00304194EF668C6F30216721C012C42
:1030400019D0022C02D0032C14D109E0154EB6FB86
:10305000F2F6124FFF68C7F3062706FB07F313E0EB
:10306000104EB6FBF2F60D4FFF68C7F3062706FBBE
:1030700007F309E000BFB1FBF2F6084FFF68C7F3A2
:10308000062706FB07F300BF00BF044EF668C6F331
:103090004166761C7500B3FBF5F0F0BD00100240F0
:1030A000F87500080024F400F8B504460CB90120B6
:1030B000F8BD2068E0B1207800F00100C0B92078A8
:1030C00000F00200022813D0207800F02000202811
:1030D0000ED0207800F01000102809D0207800F0E1
:1030E0000800082804D0207800F00400042800D14B
:1030F00004E040F29B11F9A004F03CFA207800F0C3
:10310000100010287ED1A06910B1A069012800D15B
:1031100004E040F2A111F1A004F02CFAE069FF28CC
:1031200000D804E04FF4D171ECA004F023FA206A37
:1031300000B3206A10281DD0206A20281AD0206AE7
:10314000302817D0206A402814D0206A502811D087
:10315000206A60280ED0206A70280BD0206A802850
:1031600008D0206A902805D0206AA02802D0206AC2
:10317000B02800D104E040F2A311D8A004F0FAF97D
:10318000E448806800F00C0000286AD1E14800683B
:1031900000F0020018B1A06908B9012088E7DD48F5
:1031A000216A006800F0080020B1DA48006800F0E9
:1031B000F00005E0D7489430006800F47060000922
:1031C000814220D9206A02F037FA08B101206FE766
:1031D00000BFD048006840F00800CE4908600846AB
:1031E000006820F0F000216A0843CA49086000BF67
:1031F0000846406820F47F40E16940EA0120C54963
:1032000048601FE078E000BFC248006840F0080056
:10321000C04908600846006820F0F000216A0843B1
:10322000BC49086000BF0846406820F47F40E1695F
:1032300040EA0120B7494860206A02F0FDF908B170
:10324000012035E7FFF7ACFEB2498968C1F30311ED
:10325000B14A515CC840B14908600020FEF718FD32
:103260004AE0A06980B3AB48006840F00100A9497A
:103270000860FEF725F8054606E0FEF721F8401B3A
:10328000022801D9032013E7A248006800F00200D9
:103290000028F2D000BF9F48006840F008009D4918
:1032A00008600846006820F0F000216A0843994948
:1032B000086000BF0846406820F47F40E16940EAAA
:1032C00001209449486017E0FFE79248006820F029
:1032D000010090490860FDF7F3FF054606E0FDF7A1
:1032E000EFFF401B022801D90320E1E6894800686E
:1032F00000F002000028F2D1207800F00100002840
:1033000078D0606838B16068B0F5803F03D06068FD
:10331000B0F5A02F00D104E040F206216FA004F028
:1033200029F97C48806800F00C0008280BD0794807
:10333000806800F00C000C280ED17648C06800F0C0
:103340000300032808D17348006800F4003088B3F4
:10335000606878BB0120ABE600BF6068B0F5803FD5
:1033600006D16C48006840F480306A4908601AE071
:103370006068B0F5A02F0BD16648006840F480204B
:10338000644908600846006840F4803008600AE03C
:103390006048006820F480305E4908600846006894
:1033A00020F48020086000BF606890B1FDF788FFBE
:1033B000054607E01EE0FDF783FF401B642801D9A6
:1033C000032075E65348006800F400300028F2D06E
:1033D00010E0FDF775FF054606E0FDF771FF401BA5
:1033E000642801D9032063E64A48006800F40030ED
:1033F0000028F2D1207800F00200022838D1E068DD
:1034000018B1E068B0F5807F00D104E040F23921C6
:1034100032A004F0AFF820697F2800D804E040F221
:103420003A212EA004F0A6F83A48806800F00C007B
:1034300004280BD03748806800F00C000C2818D105
:103440003448C06800F00300022812D131480068F7
:1034500000F4806018B1E06808B9012028E62D4822
:10346000406820F0FE40217C40EA01602949486024
:103470005CE0E06800B32748006840F480702549AC
:103480000860FDF71DFF054606E0FDF719FF401B2C
:10349000022801D903200BE61E48006800F4806072
:1034A0000028F2D01B48406820F0FE40217C40EA12
:1034B00001601849486039E01648006820F48070BF
:1034C00014490860FDF7FCFE054629E0FDF7F8FE0B
:1034D000401B022824D90320EAE500002E2E2F44A9
:1034E0007269766572732F53544D33324C34787849
:1034F0005F48414C5F4472697665722F5372632F47
:1035000073746D33326C3478785F68616C5F7263AA
:10351000632E630000100240E075000800000020E8
:10352000FD48006800F480600028CFD1207800F0CA
:103530000800082842D1606910B16069012800D1F3
:1035400005E040F27A21AFF26C0004F013F86069F4
:10355000D0B1F1489430006840F00100EE49C1F864
:103560009400FDF7ADFE054606E0FDF7A9FE401B01
:10357000022801D903209BE5E7489430006800F059
:1035800002000028F1D019E0E3489430006820F0F0
:103590000100E149C1F89400FDF792FE054606E0FE
:1035A000FDF78EFE401B022801D9032080E5DA4892
:1035B0009430006800F002000028F1D1207800F07B
:1035C0000400042875D10026A06828B1A06801284D
:1035D00002D0A068052800D105E040F2A621AFF294
:1035E000041003F0C7FFCC48806D00F0805070B924
:1035F00000BFC948806D40F08050C74988650846C3
:10360000806D00F08050009000BF00BF0126C348CD
:10361000006800F48070B0B9C048006840F4807061
:10362000BE490860FDF74CFE054606E0FDF748FE82
:10363000401B022801D903203AE5B848006800F48D
:1036400080700028F2D000BFA068012808D1B248DD
:103650009030006840F00100AF49C1F8900021E0CF
:10366000A06805280FD1AC489030006840F00400F5
:10367000A949C1F890000846D0F8900040F0010038
:10368000C1F890000EE0A4489030006820F00100DE
:10369000A149C1F890000846D0F8900020F004003D
:1036A000C1F8900000BFA068A8B1FDF709FE05466B
:1036B00009E02DE0FDF704FE401B41F2883188420D
:1036C00001D90320F4E494489030006800F002002F
:1036D0000028EFD013E0FDF7F3FD054608E0FDF705
:1036E000EFFD401B41F28831884201D90320DFE41D
:1036F00089489030006800F002000028EFD1012EC8
:1037000005D18548806D20F080508349886500BFD1
:10371000207800F02000202842D1606A10B1606A51
:10372000012800D105E040F2ED21AFF2502003F076
:1037300021FF606AD0B178489830006840F00100FD
:103740007549C1F89800FDF7BBFD054606E0FDF799
:10375000B7FD401B022801D90320A9E46E48983028
:10376000006800F002000028F1D019E06A489830A3
:10377000006820F001006849C1F89800FDF7A0FD3D
:10378000054606E0FDF79CFD401B022801D90320F9
:103790008EE461489830006800F002000028F1D102
:1037A000A06A28B1A06A012802D0A06A022800D12C
:1037B00005E040F21631AFF2DC2003F0DBFEA06A38
:1037C000002871D05448806800F00C000C286CD0A0
:1037D000A06A02286AD1E06A40B1E06A012805D0F7
:1037E000E06A022802D0E06A032800D105E04FF425
:1037F0004871AFF2183003F0BDFE206B012803D3EF
:10380000206B082800D805E040F22131AFF23430B7
:1038100003F0B0FE606B082803D3606B562800D815
:1038200005E040F22231AFF24C3003F0A3FEA06B72
:10383000022803D3A06B1F2800D805E040F22331F3
:10384000AFF2683003F096FEE06B022808D0E06B20
:10385000042805D0E06B062802D0E06B082800D1D0
:1038600005E04FF44971AFF28C3003F083FE206C19
:10387000022808D0206C042805D0206C062802D02D
:10388000206C082800D105E040F22531AFF2B430B9
:1038900003F070FE2048006820F080701E49086028
:1038A000FDF70EFD054609E072E06FE046E0FDF72A
:1038B00007FD401B022801D903206FE41648006869
:1038C00000F000700028F2D1206B401E0101606BF7
:1038D00041EA0020E16A0843A18F0122C2EB5101B5
:1038E00040EA41514020005DC2EB500041EA406196
:1038F0003820005D41EAC0600749C860084600689A
:1039000040F0807008600846C06840F08070C86071
:10391000FDF7D6FC05460AE00010024000700040AA
:10392000FDF7CEFC401B022801D9032036E41948DC
:10393000006800F000700028F2D029E01548006807
:1039400020F08070134908600846006800F00060AD
:1039500020B90846C06820F00300C8600D48C06860
:103960000D4908400B49C860FDF7AAFC054606E072
:10397000FDF7A6FC401B022801D903200EE40548F0
:10398000006800F000700028F2D101E0012005E499
:1039900000201CE400100240FFFFEEFE7047000014
:1039A000F8B50446206846682068856805F0400040
:1039B00048B905F0010030B106F0400018B12046CA
:1039C000E16C8847F8BD05F0020030B106F08000D8
:1039D00018B12046216D8847F4E705F4B07000283F
:1039E00077D006F02000002873D005F04000F0B139
:1039F00094F85D0003280ED0206E40F0040020668D
:103A000000BF002000902068C06800902068806897
:103A1000009000BF0BE000BF002000902068C0684D
:103A2000009020688068009000BF00BFCAE705F0E2
:103A3000200088B1206E40F00100206600BF002009
:103A400000902068806800902068006820F04000A6
:103A50002168086000BF00BF05F4807058B1206E77
:103A600040F00800206600BF0020009020688068B9
:103A7000009000BF00BF206E28B32068406820F08F
:103A8000E00021684860012084F85D0006F0020033
:103A9000022802D006F00100B8B12068406820F08A
:103AA000030021684860A06D28B10B48A16D8863B0
:103AB000A06DFCF753FF606D28B10748616D886306
:103AC000606DFCF74BFF03E003E02046FFF766FF65
:103AD00078E700BF76E70000E95600082DE9F041DD
:103AE00004460E4615460027606D00B104E040F222
:103AF00009714DA003F03EFDA06818B1A068B0F5B3
:103B0000004F00D104E040F20C7147A003F032FDF9
:103B100000BF94F85C00012802D10220BDE8F081CA
:103B2000012084F85C0000BF94F85D00012801D0FA
:103B3000022772E006B10DB901276EE0032084F878
:103B40005D0000202066A663A587E58720642065C8
:103B5000E064A4F84400A4F84600A068B0F5004F63
:103B600005D12068006840F48040216808603C4826
:103B7000616D08633B48616DC8623B48616D486395
:103B80000020616D88632068406820F480402168CF
:103B90004860E068B0F5E06F1DD8606D8069B0F5F1
:103BA000806F18D1E08F00F0010048B920684068AC
:103BB00020F4804021684860E08F4010E0870AE0F0
:103BC0002068406840F4804021684860E08F01210F
:103BD00001EB6000E087E38FD4F800C00CF10C0229
:103BE000A16B606DFDF7CCF82068006800F0400024
:103BF000402805D02068006840F040002168086037
:103C00002068406840F020002168486020684068D3
:103C100040F002002168486000BF00BF002084F827
:103C20005C0000BF384679E72E2E2F447269766516
:103C300072732F53544D33324C3478785F48414C73
:103C40005F4472697665722F5372632F73746D339C
:103C5000326C3478785F68616C5F7370692E6300D2
:103C60002757000835570008FF56000810B50446CE
:103C700001200349087001210248FDF7B5FA10BD83
:103C8000BD050020000400487047000010B5044640
:103C9000042C00D004B904E04FF4CA710BA003F067
:103CA00069FC042C08D14FF0E020006940F00400CA
:103CB0004FF0E021086107E04FF0E020006920F0BC
:103CC00004004FF0E021086110BD00002E2E2F44AB
:103CD0007269766572732F53544D33324C34787851
:103CE0005F48414C5F4472697665722F5372632F4F
:103CF00073746D33326C3478785F68616C5F636FB6
:103D0000727465782E630000704770B504462546CE
:103D1000681EB0F1807F01D301200FE0681E4FF0D4
:103D2000E02148610F214FF0FF3001F05FF90020E2
:103D30004FF0E021886107200861002070BD10B5B8
:103D4000FFF7E2FF10BD70477047704710B504469B
:103D50001C492068884213D02068B0F1804F0FD0F2
:103D60001949206888420BD018492068884207D03A
:103D700017492068884203D016492068884200D13C
:103D800004E04FF4E47114A003F0F4FB2068C06871
:103D900020F001002168C86000BF2068006A41F27D
:103DA0001111084050B92068006A8910084028B9EC
:103DB0002068006820F001002168086000BF002032
:103DC00010BD0000002C0140000400400010004025
:103DD00000400140004401402E2E2F447269766558
:103DE00072732F53544D33324C3478785F48414CC2
:103DF0005F4472697665722F5372632F73746D33EB
:103E0000326C3478785F68616C5F74696D2E630022
:103E1000704710B5044620680069C0F34000D8B16F
:103E20002068C068C0F34000B0B16FF002002168A4
:103E30000861012020772068806900F0030018B134
:103E40002046FFF7E5FF05E0204600F0BEF82046DB
:103E500000F0BCF80020207720680069C0F38000E3
:103E6000D8B12068C068C0F38000B0B16FF0040022
:103E700021680861022020772068806900F4407082
:103E800018B12046FFF7C4FF05E0204600F09DF87A
:103E9000204600F09BF80020207720680069C0F3DE
:103EA000C000D8B12068C068C0F3C000B0B16FF0E6
:103EB000080021680861042020772068C06900F0AC
:103EC000030018B12046FFF7A3FF05E0204600F0ED
:103ED0007CF8204600F07AF80020207720680069FE
:103EE000C0F30010D8B12068C068C0F30010B0B1B2
:103EF0006FF0100021680861082020772068C069F1
:103F000000F4407018B12046FFF782FF05E020461C
:103F100000F05BF8204600F059F800202077206878
:103F2000006900F0010058B12068C06800F001008D
:103F300030B16FF0010021680861204600F048F8B8
:103F400020680069C0F3C01058B12068C068C0F391
:103F5000C01030B16FF08000216808612046FFF783
:103F6000F3FE20680069C0F3002058B12068C068E3
:103F7000C0F3C01030B16FF4807021680861204632
:103F8000FFF7E1FE20680069C0F3801058B1206897
:103F9000C068C0F3801030B16FF040002168086144
:103FA000204600F021F820680069C0F3401058B1A5
:103FB0002068C068C0F3401030B16FF02000216865
:103FC00008612046FFF7C1FE10BD70477047000032
:103FD00010B5044603492068884202D10020FCF74E
:103FE0005FFA10BD00100040704700BFFEE770B5DB
:103FF0000546AC6A2068406840F40040216848608B
:104000000020A16B8863E16B886394F8410060280D
:1040100006D1202084F841002046FDF749FA02E04D
:104020002046FDF747FA70BD70B50546AC6A2068BA
:10403000406840F40040216848601021204600F0AC
:104040002DF970BD70B50546AC6A2068006820F493
:10405000004021680860608D20B91221204600F0E0
:104060005DF81DE0218D606A08446062608DFF2864
:1040700002D9FF20208501E0608D2085238D2668F0
:1040800006F12401626AE06BFCF77AFE20B1102190
:10409000204600F003F903E01221204600F03EF82C
:1040A00070BD10B50246002001F001034BB140F095
:1040B000420092F8413003F02803282B01D040F051
:1040C000B00001F00203022B09D140F0440092F845
:1040D000413003F02803282B01D040F0B00001F05C
:1040E0000403042B01D140F0B80001F01103112B9F
:1040F00001D140F0900001F01203122B01D140F0E9
:10410000200001F01203122B01D140F0400013688F
:104110001B6883431468236010BD000010B502467D
:1041200000201F4C536BA34203D01E4C536BA34281
:1041300018D101F00403042B01D140F0B80001F0C4
:104140001103112B01D140F0900001F01203122B4A
:1041500001D140F0200001F01203122B19D140F0E0
:10416000400016E001F00403042B01D140F0B80038
:1041700001F001030BB140F0F20001F00203022B49
:1041800001D140F0F40001F01203122B01D140F0F4
:10419000200013681B6803431468236010BD0000EF
:1041A00013470008FF49000801688969C1F340010D
:1041B00011B10021026891620168896901F0010171
:1041C00029B90168896941F001010268916170476C
:1041D0002DE9F0470446894694F8410000F0280094
:1041E000282850D120688069C0F300472068806982
:1041F00000F47E00050C20688068C0F30906206882
:10420000C06800F0FE08E06802282DD105F0060025
:10421000062101EAE611884216D13546A06C401C01
:10422000A064A06C022836D10020A0640820216878
:10423000C86100BF002084F8400000BF2A4639460C
:104240002046FDF736F926E0454604212046FFF7D3
:1042500028FF00BF002084F8400000BF2A463946EE
:104260002046FDF726F916E004212046FFF719FF46
:1042700000BF002084F8400000BF2A46394620468F
:10428000FDF717F907E008202168C86100BF00208A
:1042900084F8400000BFBDE8F087000070B5044618
:1042A0000D46002084F842004248E062002060850C
:1042B000606C2843606494F84100282807D094F883
:1042C0004100292803D094F841002A280BD103216A
:1042D0002046FFF7E6FE282084F8410000202063F6
:1042E000354860630DE007212046FFF7DAFE94F8B9
:1042F0004100602802D0202084F841000020206383
:1043000060632068006800F48040B0F5804F19D1E8
:104310002068006820F4804021680860A06B0028B5
:1043200047D02648A16B886300BF002084F8400076
:1043300000BFA06BFCF712FB00283AD0A06B816B8A
:10434000884736E02068006800F40040B0F5004F70
:1043500017D12068006820F4004021680860E06BF5
:1043600038B31648E16B886300BF002084F8400032
:1043700000BFE06BFCF7F2FAD8B1E06B816B8847C5
:1043800017E094F8410060280BD1202084F8410008
:1043900000BF002084F8400000BF2046FDF788F8E9
:1043A00007E000BF002084F8400000BF2046FDF772
:1043B00081F870BD0000FFFF0F4B0008EF3F0008C1
:1043C00070B504460D461848E062002020632020A6
:1043D00084F84100002084F84200606305F0040086
:1043E00090B12068406AC1B2626A501C606211706C
:1043F000208D48B1208D401E2085608D401E608537
:10440000606C40F00400606407212046FFF749FE1D
:1044100010202168C86100BF002084F8400000BF60
:104420002046FDF749F970BD0000FFFF70B5044656
:104430000D4620202168C861206840683349084043
:10444000216848600020206360633148E06205F025
:10445000100030B110202168C861606C40F0040089
:1044600060642046FFF7A0FE03212046FFF719FEF7
:10447000606C18B994F84100602804D1616C204642
:10448000FFF70CFF40E094F8410021281CD12020C8
:1044900084F8410094F8420040280AD1002084F8B2
:1044A000420000BF84F8400000BF2046FDF729FA13
:1044B0002AE0002084F8420000BF84F8400000BFDA
:1044C0002046FDF7FBF81FE094F8410022281BD19D
:1044D000202084F8410094F8420040280AD10020AE
:1044E00084F8420000BF84F8400000BF2046FDF77A
:1044F00007FA09E0002084F8420000BF84F8400079
:1045000000BF2046FDF7D9F870BD000000E800FEAE
:104510000000FFFF10B50446002084F8420094F824
:104520004100212813D1202084F84100112020636C
:104530000020606301212046FFF7B3FD00BF00208B
:1045400084F8400000BF2046FDF7B8F812E02020B4
:1045500084F841001220206300206063022120467D
:10456000FFF79FFD00BF002084F8400000BF2046F9
:10457000FDF7A3F810BD000070B504460D462020DD
:104580002168C86108202168C86107212046FFF71B
:1045900088FD2068406840F4004021684860206839
:1045A000406841490840216848602046FFF7FCFD0B
:1045B0002068006800F48040B0F5804F06D0206885
:1045C000006800F40040B0F5004F12D1E06B08B96C
:1045D000A06B70B12068006800F48040B0F5804F97
:1045E00003D1A06B0068406802E0E06B006840689F
:1045F000608505F0040070B12068406AC1B2626A4B
:10460000501C60621170208D28B1208D401E2085C5
:10461000608D401E6085608D18B1606C40F00400B4
:1046200060640020206384F842006063606C60B1C5
:10463000616C2046FFF732FE94F84100282831D102
:1046400029462046FFF7BCFE2CE0E06A10F5803FCB
:104650000DD01648E062202084F8410000BF002001
:1046600084F8400000BF2046FDF726F81AE094F8D1
:10467000410022280BD1202084F8410000BF0020F7
:1046800084F8400000BF2046FDF7ECFA0AE0202045
:1046900084F8410000BF002084F8400000BF20469D
:1046A000FDF7E1FA70BD000000E800FE0000FFFF2A
:1046B00010B50446002084F8420094F841002928EF
:1046C00011D1282084F841002120206301212046B7
:1046D000FFF7E7FC00BF002084F8400000BF204641
:1046E000FDF7C1FA14E094F841002A2810D12820DF
:1046F00084F841002220206302212046FFF7D1FCEC
:1047000000BF002084F8400000BF2046FDF7AAFA51
:1047100010BD2DE9F84304460D46164600BF94F837
:104720004000012802D10220BDE8F883012084F86E
:10473000400000BF05F0100088B106F0100070B115
:1047400010202168C861606C40F004006064122190
:104750002046FFF7E3FC2046FFF726FD82E005F048
:104760008000002851D006F0400000284DD020687D
:10477000006820F0400021680860608DA0B32068C8
:104780004068C0F30908608DFF2804D9FF20208508
:104790004FF0807709E0608D2085E06A10F5803F5A
:1047A00001D0E76A01E04FF000770020009094F814
:1047B00028203B464146204600F04AFA608D218D74
:1047C000401A608594F84100222806D120680068CC
:1047D00040F400402168086044E02068006840F42C
:1047E0008040216808603DE0FFE72068406800F0F5
:1047F0000070B0F1007F03D02046FFF78BFE31E060
:1048000040212046FFF74AFD2CE005F04000F8B1BA
:1048100006F04000E0B1608DA8B92068406800F063
:104820000070B0F1007F1DD0E06A10F5803F06D126
:104830002068406840F480402168486012E02046CB
:10484000FFF768FE0EE040212046FFF727FD09E054
:1048500005F0200030B106F0200018B129462046AE
:10486000FFF7E4FD00BF002084F8400000BF00BF58
:104870005AE7F8B504460D46164600BF94F84000C6
:10488000012801D10220F8BD012084F8400000BFBA
:1048900005F0100068B106F0100050B1102021683A
:1048A000C861606C40F0040060642046FFF77CFC47
:1048B00094E005F0040080B106F0040068B12068BF
:1048C000406AC1B2626A501C60621170208D401E45
:1048D0002085608D401E608580E005F0020078B183
:1048E00006F0020060B1616A481C606208782168C5
:1048F0008862208D401E2085608D401E60856DE0A1
:1049000005F08000002847D006F0400090B3608D8D
:1049100088B3208D78BB20684068C0F30907608D9C
:10492000FF280CD9FF2020850020009094F8282033
:104930004FF080733946204600F08AF94EE0608DD2
:104940002085E06A10F5803F09D000200090E36ADE
:1049500094F828203946204600F07AF93EE00020FD
:10496000009094F828204FF000733946204600F05C
:104970006FF933E010E0FFE72068406800F0007056
:10498000B0F1007F03D02046FFF7C4FD26E04021B0
:104990002046FFF783FC21E005F04000F0B106F06F
:1049A0004000D8B1608DA8B92068406800F0007060
:1049B000B0F1007F12D0E06A10F5803F06D1206888
:1049C000406840F480402168486007E02046FFF7D7
:1049D000A1FD03E040212046FFF760FC05F0200028
:1049E00030B106F0200018B129462046FFF71EFD21
:1049F00000BF002084F8400000BF00BF43E770B54F
:104A000004460D46164600BF94F84000012801D127
:104A1000022070BD012084F8400000BF05F01000A6
:104A2000002858D006F01000002854D020680068F4
:104A300000F48040B0F5804F06D02068006800F494
:104A40000040B0F5004F42D1E06B08B9A06B88B3CD
:104A50002068006800F48040B0F5804F03D1A06B5F
:104A60000068406802E0E06B0068406810BBE06AE4
:104A7000B0F1007F03D0E06AB0F1007F08D194F874
:104A80004100282804D129462046FFF799FC37E049
:104A9000E06A10F5803F0ED094F8410029280AD131
:104AA00010202168C8612046FFF77EFB2046FFF7F3
:104AB000FFFD25E003E010202168C86120E0102000
:104AC0002168C861606C40F00400606418E0102048
:104AD0002168C86114E005F0080038B106F008004C
:104AE00020B129462046FFF773FB09E005F02000BE
:104AF00030B106F0200018B129462046FFF73CFDF2
:104B000000BF002084F8400000BF00BF81E770B5FF
:104B100004460D46164600BF94F84000012801D116
:104B2000022070BD012084F8400000BF05F0100095
:104B300098B306F0100080B3608D30BBE06AB0F12E
:104B4000007F03D0E06AB0F1007F08D194F8410003
:104B5000282804D129462046FFF732FC66E0E06AA7
:104B600010F5803F0DD094F84100292809D110207C
:104B70002168C8612046FFF717FB2046FFF798FD24
:104B800054E010202168C86150E010202168C861FD
:104B9000606C40F00400606448E0FFE705F004004A
:104BA000D8B106F00400C0B1608D60B12068406AE1
:104BB000C1B2626A501C60621170208D401E208557
:104BC000608D401E6085608D30BBE06A10F5803FCF
:104BD0002CD02046FFF76CFD28E005F0080038B126
:104BE00006F0080020B129462046FFF7F1FA1DE043
:104BF00005F0020080B106F0020068B1608D60B17E
:104C0000616A481C6062087821688862608D401E75
:104C10006085208D401E208508E0E06AB0F1807F2D
:104C200001D0E06A10B92046FFF742FD05F02000F0
:104C300030B106F0200018B129462046FFF79CFC51
:104C400000BF002084F8400000BF00BF69E70000FB
:104C50002DE9F04104460F4690461E46069D264922
:104C6000206888420BD025492068884207D0244913
:104C70002068884203D023492068884200D104E09C
:104C800041F2967120A002F075FCB6F1807F03D04E
:104C9000B6F1007F00D006B904E041F297711AA086
:104CA00002F068FC2648854206D02648854203D09B
:104CB0002548854200D005B904E041F2987112A060
:104CC00002F058FC206840684FF4806101EA5551B9
:104CD00061F0FC2141F4C0418843C7F309014FF45E
:104CE0007F0202EA08421143314329430843216805
:104CF0004860BDE8F08100000054004000580040CA
:104D0000005C0040008400402E2E2F4472697665BE
:104D100072732F53544D33324C3478785F48414C82
:104D20005F4472697665722F5372632F73746D33AB
:104D3000326C3478785F68616C5F6932632E63002F
:104D400000400080002400800020008008B500BFE3
:104D50003148806C40F001002F4988640846806C1F
:104D600000F00100009000BF00BF00BF0846806C4B
:104D700040F0020088640846806C00F00200009059
:104D800000BF00BF002211460C20FDF711F80C20D7
:104D9000FCF7DAFF002211460D20FDF709F80D207F
:104DA000FCF7D2FF002211460E20FDF701F80E207D
:104DB000FCF7CAFF002211460F20FCF7F9FF0F2075
:104DC000FCF7C2FF002211461020FCF7F1FF102073
:104DD000FCF7BAFF002211461120FCF7E9FF112071
:104DE000FCF7B2FF002211463820FCF7E1FF382023
:104DF000FCF7AAFF002211463920FCF7D9FF392021
:104E0000FCF7A2FF002211463B20FCF7D1FF3B201C
:104E1000FCF79AFF08BD00000010024000B587B003
:104E200000BF4A48C06C40F004004849C8640846C6
:104E3000C06C00F00400019000BF00BF00BF084636
:104E4000C06C40F08000C8640846C06C00F0800070
:104E5000019000BF00BF00BF0846C06C40F00100D9
:104E6000C8640846C06C00F00100019000BF00BF9C
:104E700000BF0846C06C40F00200C8640846C06C21
:104E800000F00200019000BF00BF00224FF440413B
:104E90002F48FCF7D9F9002248F20C114FF090404E
:104EA000FCF7D2F9002203212A48FCF7CDF94FF490
:104EB00000500290284803900020049002A9244842
:104EC000FBF7E2FF4FF440400290012003900020E6
:104ED0000490059002A91E48FBF7D6FF48F20C107B
:104EE00002900120039000200490059002A94FF049
:104EF0009040FBF7C9FF032002900120039000209F
:104F00000490059002A91348FBF7BEFF042002900D
:104F1000114803900020049002A90E48FBF7B4FF4B
:104F20000820029000200390049002A90948FBF792
:104F3000ABFF08200290032003900020049002A9F8
:104F40000648FBF7A1FF07B000BD000000100240BB
:104F5000000800480004004800001110001C004830
:104F600010B51548154908601548486000211348D8
:104F700081600121C1600021016141618161C161E4
:104F80000162FCF799FA18B158210EA002F0E1FA7B
:104F900000210A48FCF79AF918B15F2109A002F034
:104FA000D8FA00210548FCF70DFA18B1662105A0D2
:104FB00002F0CFFA10BD0000005400407809002034
:104FC000912970002E2E2F5372632F6932632E6346
:104FD0000000000000BFFEE77047000002480068C4
:104FE000C0F30220704700000CED00E010B500286F
:104FF00007DA0A07140E054A00F00F031B1FD454EA
:1050000003E00A07130E024A135410BD18ED00E026
:1050100000E400E02DE9F0470546A5E12868B0F876
:10502000449009F00F06002E7DD109F0100098BBC6
:1050300000BF2968098848F60F7201EA0200296852
:10504000088000BF05F128042868B0F850102078C7
:1050500001EBC000801C296801F58061405AC0F353
:105060000900E061E1696069084460610021284647
:10507000FCF778FF95F824000028CED0A06900281E
:10508000CBD195F8240040F080002968A1F84C00AD
:10509000002085F8240067E1FFE705F50A74286819
:1050A000B0F8008008F4006018B32868B0F8501019
:1050B000207801EBC000801D296801F58061405A0D
:1050C000C0F30900E061A18B8BB2E28805F586612F
:1050D000286802F0EFF900BF2968098840F68F724E
:1050E00001EA02002968088000BF2846FDF79CF904
:1050F0003AE108F4004000288FD000BF29680988F1
:1051000040F68F7201EA02002968088000BF286813
:10511000B0F85010207801EBC000801D296801F51F
:105120008061405A00E05AE0C0F30900E061E069A4
:1051300060B1B4F81CC01FFA8CF3E288616928687A
:1051400002F0B8F9E169606908446061002128460D
:10515000FCF716FF00BF2A682968B1F850100A440E
:1051600002F20641084600BF236953B9038843F29F
:10517000FF3C03EA0C030380038843F400430380ED
:1051800019E023693E2B0DD200BF23695908237C07
:1051900003F0010303B1491C4FF6FF7303EA8123B7
:1051A000038008E000BF236959094FF4004343EA34
:1051B0008123038000BF00BF00BF00BF29680988AA
:1051C0004BF68F7201EA020080F4805080F40050A8
:1051D00040F4004141F080012A681180C4E0710070
:1051E000286830F8118008F4004000287ED000BF05
:1051F0007200296831F8121040F68F7201EA02003D
:105200007200296821F8120000BF05F50A7000EB52
:105210004614207BA8B92868B0F85010207801EB1C
:10522000C000801D296801F58061405AC0F309075C
:10523000002F4DD0E28861693B46286802F03AF9B8
:1052400046E021784900286830F8110000F48040D9
:10525000A0B12868B0F85010207801EBC000801C85
:10526000296801F58061405AC0F30907D7B1228946
:1052700061693B46286802F01DF913E02868B0F820
:105280005010207801EBC000801D296801F5806175
:10529000405AC0F309072FB1628961693B4628680B
:1052A00002F008F900BF00BF22785200296831F8E7
:1052B000121048F68F7201EA020040F4004141F0FA
:1052C000C00123785B002A6822F8131000BF00BFDA
:1052D000E0693844E061606938446061A06910B1F8
:1052E0002069B84206D92178284600E008E0FCF79A
:1052F00047FE05E021782846D4E90523FCF7CAFEDD
:1053000008F0800048B305F1280000EB461400BF08
:105310007200296831F8121048F60F7201EA020093
:105320007200296821F8120000BF2868B0F85010F8
:10533000207801EBC000801C296801F58061405A8B
:10534000C0F30900E061E169606908446061A06937
:1053500020B921782846FCF705FE05E0217828468B
:10536000D4E90523FCF7FAFE2868B0F8440000F4FD
:10537000004000287FF452AEBDE8F087704700007F
:105380002DE9F04104460E4600270025206840B173
:105390002068012805D02068022802D02068032850
:1053A00000D104E04FF43A618FA002F0E3F86068A6
:1053B000012803D36068082800D804E040F6A13132
:1053C00089A002F0D7F8A068082803D3A06856285F
:1053D00000D804E040F6A23183A002F0CBF8A06927
:1053E00000F48030B0F5803F0BD0A06900F480104D
:1053F000B0F5801F05D0A06900F08070B0F1807F0B
:1054000004D18849A069084000B904E040F6A331FE
:1054100075A002F0AFF88448C06800F0030090B1B6
:105420008148C06800F003002168884209D12068E3
:1054300038B17D48C068C0F30210401C61688842E2
:1054400033D0012531E02068012804D0022809D09A
:1054500003281AD10DE07448006800F0020000B97A
:10546000012514E07048006800F4806000B901254F
:105470000DE06D48006800F4003028B96A48006803
:1054800000F4802000B9012501E0012500BF00BF24
:105490005DB9D4E90010401E41EA00106249C968B4
:1054A00021F0730108436049C860002D7ED15E4839
:1054B000006820F080605C490860FBF701FF074648
:1054C00006E0FBF7FDFEC01B022801D9032505E01D
:1054D0005548006800F000600028F2D100BF002DA0
:1054E0007FD1C6B9E068022803D3E0681F2800D83E
:1054F00004E040F6F3313CA002F03CF8A068000262
:10550000217B40EAC16048490969484A1140084383
:105510004549086144E0012E21D12069022808D0C4
:105520002069042805D02069062802D020690828AF
:1055300000D104E040F617412BA002F01BF8A06850
:105540000002218A0122C2EB510140EA4150364952
:105550000969374A114008433349086120E060690E
:10556000022808D06069042805D06069062802D0A6
:105570006069082800D104E040F629411AA001F032
:10558000F9FFA0680002217D0122C2EB510140EA2F
:10559000416025490969274A1140084322490861A9
:1055A0002148006840F080601F4900E019E0086071
:1055B000FBF786FE074606E0FBF782FEC01B0228CB
:1055C00001D9032505E01848006800F000600028B4
:1055D000F2D000BF2DB914480069A16908431249EF
:1055E00008612846BDE8F0812E2E2F447269766549
:1055F00072732F53544D33324C3478785F48414C9A
:105600005F4472697665722F5372632F73746D33C2
:10561000326C3478785F68616C5F7263635F657861
:105620002E630000FFFFEEFE00100240FF80FF0728
:10563000FF809FFFFF80FFF9F8B504460026002594
:105640002348806D00F0805018B1FCF779FF0646C2
:1056500016E000BF1E48806D40F080501C498865F0
:105660000846806D00F08050009000BF00BFFCF73E
:1056700067FF06461648806D20F080501449886503
:10568000B6F5007F07D1802C10D9A02C01D90225B6
:105690000CE001250AE0802C01D9032506E0802CCE
:1056A00001D1022502E0702C00D1012509480068D3
:1056B00020F007002843074908600846006800F00A
:1056C0000700A84201D00120F8BD0020FCE700003F
:1056D000001002400020024010B50248FEF760F9B9
:1056E00010BD0000E80C002070B50546AC6A002033
:1056F000A4F84600E0872046FEF750F970BD70B56B
:105700000546AC6A2068406820F0030021684860C4
:10571000206E40F010002066012084F85D002046D5
:10572000FEF73CF970BD70B50446A56A2846FEF741
:10573000ABFA70BDF8B50546AC6A0026FBF7C0FDB4
:1057400006462868006800F0200020282DD0206838
:10575000406820F02000216848602068406820F000
:1057600002002168486032466421204600F022F899
:1057700018B1206E40F020002066A06850B900BF2C
:10578000002000902068C068009020688068009029
:1057900000BF00BF0020E087012084F85D00206E7C
:1057A00018B12046FEF7FAF8F8BD2046FEF75EFA7B
:1057B00000BFF9E7F8B504460E4615463346002209
:1057C0004FF4C0512046009500F026F828B1206E15
:1057D00040F0200020660320F8BD334600228021DF
:1057E0002046009500F070F828B1206E40F02000AF
:1057F00020660320F0E7334600224FF4C0612046C4
:10580000009500F009F828B1206E40F020002066D5
:105810000320E1E70020DFE72DE9F84304460E46C8
:1058200017461D46DDF8208047E0B6F5C06F05D16C
:1058300027B92068007B00909DF80000681CD8B351
:105840002DB1FBF73DFDA0EB0800A84235D3206841
:10585000406820F0E000216848606068B0F5827F11
:105860000DD1A068B0F5004F03D0A068B0F5806FEF
:1058700005D12068006820F0400021680860A06A17
:10588000B0F5005F0DD100BF2068006820F4005023
:10589000216808602068006840F4005021680860B2
:1058A00000BF012084F85D0000BF002084F85C0088
:1058B00000BF0320BDE8F883FFE720688068304020
:1058C000B842B2D10020F5E72DE9F04104460E467A
:1058D00017461D46DDF818803EE0681CD8B32DB190
:1058E000FBF7EEFCA0EB0800A84235D32068406827
:1058F00020F0E000216848606068B0F5827F0DD13B
:10590000A068B0F5004F03D0A068B0F5806F05D156
:105910002068006820F0400021680860A06AB0F5A7
:10592000005F0DD100BF2068006820F4005021689E
:1059300008602068006840F400502168086000BFDB
:10594000012084F85D0000BF002084F85C0000BFE7
:105950000320BDE8F081FFE7206880683040B04256
:1059600001D1012000E00020B842B6D10020F0E7CC
:10597000704710B5FCF778F9FEF7E1F910BD10B5E6
:1059800000F002F810BD000010B5B0B001201F906B
:10599000000420900220299003211FA8C162012148
:1059A00001630A214163072181630221C16301640C
:1059B000FDF77AFB18B1F3212AA001F0CAFD0F20F0
:1059C0001A9003201B9000201C901D901E90042113
:1059D0001AA8FDF791F920B140F2011121A001F0C0
:1059E000B8FD2448009000200D900E900F9010906C
:1059F0004FF08050179080101490032001900121E7
:105A000002910C2103910721049104210591069133
:105A10004FF0887107916846FCF79AFD20B14FF46A
:105A20008B7110A001F095FD4FF40070FCF718FD8C
:105A300020B140F21D110BA001F08BFDFDF7AAFA79
:105A40004FF47A71B0FBF1F42046FEF75EF90420C2
:105A5000FEF71CF900221146501EFCF7A9F930B0E0
:105A600010BD00002E2E2F5372632F6D61696E2EB4
:105A700063000000C06110001048006840F470002E
:105A80000E4908600E48006840F001000C490860AB
:105A900000208860084600680A49084008490860F4
:105AA0008814C8600846006820F480200860002040
:105AB0008861C803014980390860704788ED00E0BB
:105AC00000100240FFFFF6EA10B50248FEF7A1F908
:105AD00010BD0000380E0020C0EBC011642291FB05
