:020000040802F0
:10000000A0090120A1040208A9040208AB04020807
:10001000AD040208AF040208B104020800000000A9
:10002000000000000000000000000000890302083A
:10003000B504020800000000290402088D0402082B
:10004000BB040208BB040208BB040208BB0402088C
:10005000BB040208BB040208BB040208BB0402087C
:10006000BB040208BB040208BB040208BB0402086C
:10007000BB040208BB040208BB040208BB0402085C
:10008000BB040208BB040208BB040208BB0402084C
:10009000BB040208BB040208BB040208BB0402083C
:1000A000BB040208BB040208BB040208BB0402082C
:1000B000BB040208BB040208BB040208BB0402081C
:1000C000BB040208BB040208BB040208BB0402080C
:1000D000BB040208BB040208BB040208BB040208FC
:1000E000BB040208BB040208BB040208BB040208EC
:1000F000BB040208BB040208BB040208BB040208DC
:10010000BB040208BB040208BB040208BB040208CB
:10011000BB040208BB040208BB040208BB040208BB
:10012000BB040208BB040208BB040208BB040208AB
:10013000BB040208FD1D0208BB040208BB04020840
:10014000BB040208BB040208BB040208BB0402088B
:10015000BB040208BB040208BB040208BB0402087B
:10016000BB040208BB040208BB040208BB0402086B
:10017000BB040208BB040208BB040208BB0402085B
:10018000BB040208BB04020800F002F800F0ADF85E
:100190000AA090E8000C82448344AAF10107DA45E2
:1001A00001D100F0A2F8AFF2090EBAE80F0013F087
:1001B000010F18BFFB1A43F0010318477416010022
:1001C000941601000023002400250026103A28BFC1
:1001D00078C1FBD8520728BF30C148BF0B607047B9
:1001E000642901F0A782782901F0E082732901F0E7
:1001F0002A850020704710B510BD00007047704779
:1002000002020207DEC72C7A000002080000040088
:1002100000000020C0FF01000000000000000000FE
:1002200001454F4D654170706C4261736963000018
:1002300000010000000000004558540000000000CC
:100240004A756E20313520323031352031313A3423
:10025000323A3334000000000000000000000000CB
:10026000000000000000000000000000000000008E
:10027000000000000000000000000000000000007E
:100280000A444FF0000C10F8013B13F0070408BFBC
:1002900010F8014B1D1108BF10F8015B641E05D05A
:1002A00010F8016B641E01F8016BF9D113F0080F0F
:1002B0001EBF10F8014BAD1C0C1B09D16D1E58BFA1
:1002C00001F801CBFAD505E014F8016B01F8016BD8
:1002D0006D1EF9D59142D6D370471FB510F058FC6A
:1002E0009DE8030001F0A0FB1FBD01F0DFFC1146FB
:1002F000FFF7F3FF09F024FA01F0FDFC03B4FFF768
:100300007AFF03BC01F02AFD00487047003000006E
:100310000048704700B00000401EFDD1704700004B
:1003200080F309887047EFF309807047684680F3CF
:10033000098804480078C00714BF0220032080F316
:100340001488704700030020DFF818C0EFF305831E
:100350001B0618BF6047EFF31483DB0708BF604735
:1003600000DF7047A9B70208DFF818C0EFF3058374
:100370001B0618BF6047EFF31483DB0708BF604715
:1003800000DF704721B80208EFF30980816911F896
:10039000021C99BB90E80F1010B5E047BDE8104073
:1003A000EFF3098C8CE807001C4B93E806009142A0
:1003B00008BF704781B11EF0100F06BF2CED108AE8
:1003C0000120002081F838002CE9F00FC1F83CC072
:1003D0000CB40CF0A7FD0CBC1A60D2F83CC0BCE811
:1003E000F00F92F8380000281ABFBCEC108A6FF0AA
:1003F000120E6FF0020E8CF30988704710B5084A90
:100400001268914209D8074C54F8214090E80F1027
:10041000A047EFF3098C8CE80F0010BDF801002015
:10042000AC1D0208AC1D020810B50CF079FCBDE84B
:100430001040154B93E80600914208BF7047EFF358
:10044000098C1EF0100F06BF2CED108A0120002031
:1004500081F838002CE9F00FC1F83CC00CB40CF066
:1004600061FD0CBC1A60D2F83CC0BCE8F00F92F8F9
:10047000380000281ABFBCEC108A6FF0120E6FF023
:10048000020E8CF309887047F801002010B50CF0BB
:100490006DFDCCE710B509F069FF0CF067FDC6E70C
:1004A0000948804709480047FEE7FEE7FEE7FEE708
:1004B000FEE7FEE7FEE7FEE7FEE7FEE70448054944
:1004C000054A064B704700005524020889010208BE
:1004D000A0290020A0090120A0D90020A0D9002037
:1004E000F7B514466E46002914BF0125002588483B
:1004F0000078E8B100F07AFA2946304602F08AF92D
:10050000C5B2012C0DD183480099834CC0F8261048
:10051000014620684022001D01F0A0F9206800F08B
:100520003DFE00F06DFA012D02BF002003B0F0BDCA
:100530004FF0FF3003B0F0BD38B56C460090002995
:1005400014BF012500257248007860B100F04EFA12
:100550002946204602F05EF9C4B200F051FA012C9F
:1005600004BF002038BD4FF0FF3038BD2DE9F34700
:1005700067480D46E94600784FF0FF37F0B1674E07
:100580003088D8B100F032FA30880024002888BFC3
:10059000DFF88C810FD900BFC4EBC40008EB40002A
:1005A000042249460A3001F02DF960B1601CC4B242
:1005B00030888442F0D300F023FA11E002B04FF00B
:1005C000FF30BDE8F087C4EBC40008EB4000041D19
:1005D00000F016FA00271DB120682860A088A880C6
:1005E00002B03846BDE8F0872DE9F1434848E846B7
:1005F0004FF0FF360078E8B1484D2888D0B100F0C0
:10060000F5F928880024002888BF454F0FD900BF7E
:10061000C4EBC40007EB4000042241460A3001F05D
:10062000F1F858B1601CC4B228888442F0D300F0BD
:10063000E7F919E04FF0FF30BDE8F883C4EBC400E0
:1006400007EB4000041D00F0DBF906223549204687
:1006500001F0D8F858B106223349204601F0D2F80B
:10066000002818BF002602D03046BDE8F8834FF0BE
:10067000FF36F9E7002070470020704710B5254C81
:10068000FF21204601F01EFF28484FF4C1634FF0C0
:10069000080C0169C4F80610828A6281A3814FF4B4
:1006A0008073E381A4F810C04FF0060C84F812C0E8
:1006B0004FF0040C84F813C0A382C4F816106283B0
:1006C0008069E06104F1200001F0F8FE0020C4F828
:1006D0002600C4F82A00C4F82E00C4F83200C4F87A
:1006E00036000D4AC4F83A00E08704F14001116079
:1006F0002A220A80488010BD90F82010202984BF4B
:100700004FF0FF30704710B500F0F3FC002010BD33
:10071000B00100208C0A0020A80100201602002051
:10072000580D00200C11030812110308100B0020B3
:10073000B84A126F02B11047FEE770B50C46B8B167
:100740000546FFF797FF0646284600F091FC064451
:10075000284600F029FA0644284600F06CFA0644C0
:10076000284600F067FC3044002C18BF206070BDA4
:10077000E120A84AA8A1126F12B19047002070BDD5
:10078000FEE710B5A34C606F002808BF10BD80477E
:100790000028AB49086018BF10BDE020226FA9A156
:1007A00012B1BDE810401047FEE770B5A44D416F8F
:1007B00081B1816F974C00291FBFC16F0029D0F80C
:1007C000800000280DD0606F002818D08047286076
:1007D00080B114E000218167C167C0F880102960F2
:1007E0000DE0226FE320A7A11AB190474FF0FF3030
:1007F00070BDFEE7226FE02092A112B19047002069
:1008000070BDFEE710B5D821824801F0C8F88C49C8
:100810000020086010BD2DE9F0417E4C884605009F
:1008200007D02A6F2267287850B1E420A0A132B106
:100830002EE0226FE120ABA1002A29D1FEE7FEE7DE
:10084000B1480078012804D02846FFF755FF20B1B1
:100850001AE0E020ADA1DAB9FEE7D8216D4801F039
:100860009EF8774F002628463E6000F01EFC58B9DF
:10087000284600F09FF938B9284600F0E2F918B987
:10088000284600F0DDFB40B1AA49226FE3205AB1AF
:1008900090474FF0FF30BDE8F08141462846FFF712
:1008A000EBFE002875D100E0FEE72846FFF7E2FEE8
:1008B00020F0030080444146284600F0DBFB00287E
:1008C00067D1284600F0D4FB20F003008044414665
:1008D000284600F06BF900285BD1284600F064F947
:1008E00020F0030080444146284600F0A6F9002885
:1008F0004FD1284600F09FF920F0030000EB0801DB
:10090000284600F099FB002843D1284600F092FBCE
:10091000D82229463F4800F0E6FF3E4D2846FFF723
:10092000ADFE002835D1686F60B1A96F00291FBFE7
:10093000E96F0029D5F88010002909D08047386078
:1009400068B111E0AE67EE67C5F880603E600BE00D
:10095000226FE3204BA10AB190471AE0FEE7226F15
:10096000E02038A12AB19047284600F085FB80B9E5
:1009700000E0FEE7284600F01BF950B9284600F0D9
:100980005EF930B9284600F059FB002808BFBDE8E1
:10099000F0814FF0FF30BDE8F08170B504000D46E6
:1009A00016D0FFF767FE0646204600F061FB0644BE
:1009B000204600F0F9F80644204600F03CF90644D1
:1009C000204600F037FB3044002D18BF286070BD72
:1009D000E120104A10A1126F12B19047002070BDA3
:1009E000FEE718E7002070470020704714480068B1
:1009F000002808BF7047074AD2F88010926F10474E
:100A00000F480068002808BF70470249C96F0847AF
:100A100000687047100B00206970616C5F62617341
:100A2000655F6D656D6F72795F67657473697A650F
:100A30002829206E65656473206120636667000065
:100A4000AC0100206970616C5F626173655F686909
:100A5000645F7468726561647361666574795F6907
:100A60006E697428293A2063616E6E6F7420616C20
:100A70006C6F6361746520746865206D757465784A
:100A8000000000006970616C5F626173655F696E90
:100A9000697469616C6973652829206E6565647382
:100AA000206F73616C2066756E6374696F6E73007E
:100AB0006970616C5F626173655F696E69746961B9
:100AC0006C69736528293A20756E737570706F7242
:100AD000746564207463702F697020737461636B34
:100AE000000000006970616C5F626173655F696E30
:100AF000697469616C69736528293A206D6973733B
:100B0000696E672063666700B00100206970616CE0
:100B10005F626173655F696E697469616C69736551
:100B200028293A20616C726561647920737461725E
:100B3000746564005C17030831B524486C4600787E
:100B400038B1234890F82C0018B19DF80000EF2828
:100B500002D04FF0FF3038BDFFF748FF204608F0C5
:100B600045F9002814BF00244FF0FF34FFF748FF79
:100B7000204638BD31B515486C46007888B1144818
:100B800090F82C0068B1FFF731FF204608F056F9C5
:100B900000280CBF4FF0FF340024FFF731FF204640
:100BA00038BD4FF0FF3038BD00207047002070473F
:100BB0000020704790F82D10062984BF4FF0FF30B9
:100BC000704710B500F016FB002010BDB0010020EA
:100BD000100B0020224810B5406848B12148017828
:100BE00001290CD00121017008F092FB002010BDFA
:100BF0001DA1E120FFF79CFD4FF0FF3010BD24A1A7
:100C0000E020FFF795FD4FF0FF3010BD10B5FFF766
:100C1000EDFE08F0B3FDBDE81040FFF7F1BE10B5E2
:100C2000FFF7E4FE0FF0FAFBBDE81040FFF7E8BE67
:100C30000B48406870470020704700207047002034
:100C400070470189B1F5C05F84BF4FF0FF30704736
:100C500010B50021034A117000F024FB002010BDE4
:100C6000100B0020B00100206970616C5F73797314
:100C70005F737461727428293A206D697373696EA9
:100C80006720636F6E66696775726174696F6E0065
:100C90006970616C5F7379735F7374617274282912
:100CA0003A2063616E6E6F74207374617274206198
:100CB0006761696E0000000008B1062801D90020B4
:100CC0007047F0B515460A46E64900EB400085B08E
:100CD00001EBC000A0F1180450F8080C0A9F1E4652
:100CE00098B11046FFF794FE0346E06820B19842A1
:100CF00004BF2089A84208D10396ADF8087000957A
:100D0000D4E904C002AA2146E04705B00020F0BDA6
:100D10004107090EC0F3C00241EA0211C0F30012FC
:100D200010B541EAC201C0F3401041EA8004CE4848
:100D30000078002808BF10BDFFF758FECB4A0121FC
:100D400020460FF08FFBC0B1C64900EB400201EB1B
:100D5000C20404F8180C002024F8160C44F8140CF3
:100D600024F8100C44F80C0C44F8080C44F8040C5B
:100D7000FFF746FEA4F1180010BDFFF741FE00206A
:100D800010BD70B504001CBF2078002821D0FFF7EB
:100D90002DFE6088002518B120780FF045FB658096
:100DA00020780FF0C1FB06462078AE4900EB4000EA
:100DB00001EBC00000F8185C257065806560258136
:100DC000E56025616561FFF71BFE002E1CBF00205A
:100DD00070BD4FF0FF3070BD70B515460E46040073
:100DE0001DBF20780028002D4FF0FF3008BF70BDD8
:100DF000FFF7FCFD608820B120780FF015FB002084
:100E000060809849002000BF00EB400201EBC20265
:100E10005288AA4210D0401CC0B20628F4D32078D1
:100E200029460FF043FB10F0FF0F05D06580666088
:100E3000FFF7E6FD002070BDFFF7E2FD4FF0FF3049
:100E400070BD2DE9F04790460F46040019BF207889
:100E500000284FF0FF30BDE8F087FFF7C7FD60883E
:100E600050BB207800264546002818BF002D2DD005
:100E7000FFF7BCFD60884FF0000920B120780FF02B
:100E8000D3FAA4F802907749002000BF00EB40029B
:100E900001EBC2025288AA4216D0401CC0B20628FA
:100EA000F4D3207829460FF001FB10F0FF0F0BD090
:100EB00065806660FFF7A4FDA4F80880E760FFF78F
:100EC0009FFD0020BDE8F087FFF79AFDFFF798FD32
:100ED0004FF0FF30BDE8F08710B5040019BF20784F
:100EE00000284FF0FF3010BDFFF780FD002020816B
:100EF000E060FFF785FD002010BD2DE9FF4182B0C5
:100F000098460C46050004AF1CBF2878002828D05E
:100F10006888002818BF002C23D0606800281CBFF8
:100F2000208800281DD0FFF761FD20880FF092FA7D
:100F300006001BD02288616800F090FC2088009099
:100F400028783346424639460FF006FB00280CBF8E
:100F50004FF0FF340024FFF753FD06B02046BDE8F4
:100F6000F08106B04FF0FF30BDE8F081FFF748FD9B
:100F700006B04FF0FF30BDE8F0812DE9F04383B0BB
:100F80000C4605001CBF688800283CD0E868002893
:100F90001CBF2889002836D0FFF728FDE86801909B
:100FA0002878B5F808900DF104084FF0FF360028B6
:100FB0001CBF6888002820D0002C1FBF6068002854
:100FC0002088002819D0FFF711FD20880FF042FA81
:100FD000070010D02288616800F040FC2088009053
:100FE00028783B464A4641460FF0B6FA00280CBF27
:100FF0004FF0FF360026FFF703FDFFF701FD03B0BA
:101000003046BDE8F08303B04FF0FF30BDE8F08319
:10101000002812BF00294FF0FF30704770B5164608
:101020000D460446FFF7E2FCC4E90456FFF7E8FC6E
:10103000002070BD002070470020704700207047DE
:1010400010B5044690F83000062884BF4FF0FF30FA
:1010500010BD9021034800F0A2FC204600F087F963
:10106000002010BDE80B0020B0010020B90C0208E0
:10107000002070470020704710B5D0F88C10002970
:101080001CBFD0F89010002908D0D0F89410002987
:101090001FBFD0F898000028002010BD05A1E12056
:1010A000FFF746FB4FF0FF3010BD10B500F093F88E
:1010B000002010BD6970616C5F6574685F68696469
:1010C0005F696E697428293A206D697373696E6768
:1010D000206574682066756E6374696F6E730000B6
:1010E000A94890F82200012818BF7047002001F09D
:1010F000B3BC10B504464FF4E071A44800F04FFCB7
:10110000A34894F82010C180A249626AB2FBF1F2B0
:10111000028194F821200270A26AB2FBF1F14170C1
:10112000002010BD9848D0F89C00002808BF7047E8
:10113000004700291CBF0020704705F0E7B810B534
:10114000954A84B09069D2E90812CDE902128E4A1C
:101150000090907A8DF8000090480190904890F8A7
:1011600003C081884FEA1C230B4381784FEA0C6C43
:101170004CEA014C4478007843EA11414CEA042CD3
:1011800041EA14614CEA0000CDE90201D2F88C106A
:10119000684688477E49487104B010BD7A49D1F845
:1011A0009810084710B5784CD4F890008047D4F8D0
:1011B0008800002808BF10BDBDE81040004710B5EA
:1011C000714CD4F88400002818BF8047D4F89400EC
:1011D000BDE8104000476E4902694A61808A088371
:1011E00000207047684991F82C10012918BF7047FA
:1011F0000AF0E8B9654A0021664BC2F8C011C2F88E
:10120000C411C2F8C811C2F8CC11C2F8D011C2F88A
:10121000D411C2F8D811C2F8DC11C2F8E01142684A
:101220005B49B3FBF2F290F82D00488192B24CF684
:10123000CD405043800C887000207047062806D2AD
:10124000584901EB4011F030C0B2FFF771BA56A116
:10125000E020FFF76DBA10B508F08AF84A4C94F810
:101260002C00012808BF08F095F894F82F000128F9
:1012700008BF08F0B7F894F82200012818BF10BD85
:101280000020BDE8104001F0E7BB10B50BF034FFC3
:101290003D4890F82C00012818BF10BDBDE8104053
:1012A0000BF082BF2DE9F041384D00260446C5F809
:1012B000E461C5F8E861C5F8EC61C5F8F061C5F80E
:1012C000F461C5F8F861C5F8FC61C5F80062C5F8BD
:1012D0000462C5F80862C5F80C62C5F81062C5F86A
:1012E0001462C5F818624FF4C05105F50870C5F8CE
:1012F0001C6200F054FB05F5C0572548C7F828626A
:10130000C7F82C62C681A169C5F8E411E169C5F886
:10131000EC1105F5F271C0220A73A8234B738E738A
:101320004FF0FE0C81F80FC00A744B748E7481F874
:1013300013C00A714B71184A8E7181F807C0D2E947
:101340000012C7E988120121C17021890161114A87
:101350006168B2FBF1F181810020BDE8F0810A49AA
:1013600091F82F10012918BF70470AF06BB910B51A
:1013700004464821124800F012FB054894F830104A
:101380000171002010BD0000100B0020580D00203E
:101390001002002040420F004811030850110308BA
:1013A0002402002070110308756E6B6E6F776E203B
:1013B00073797374656D206572726F72000000003E
:1013C00088270020004870473C29002070B5A0FB0A
:1013D0000140B4F1805170F1000024BF002070BDC5
:1013E000204600F095FB05001CBF214600F0B5FA31
:1013F000284670BD70B516460D46041F002808BF6C
:1014000070BD002E1CBF05F10C00AFF300802B4611
:101410005868002818BFA04238BF0346F8D319689F
:10142000CA18A24218BF5C6003D122681C4611444E
:10143000196021680A19824218BF606004D14268AD
:101440006260006808442060002E1CBF05F10C009B
:10145000AFF3008070BD10B5044600F0CAFA016811
:101460002046BDE810400122C4E70B3020F0070001
:1014700070472DE9F0410F460546041F00F0B9FA08
:101480000668F7B1384615B3FFF7EFFFB8420546D7
:101490003CBF0020BDE8F08106F10C00AFF30080F6
:1014A0002268AA4238BF314615D3511B082931D3CF
:1014B0006019002240F8041B31462560FFF79AFFAF
:1014C00028E02846FFF7C7FF0020BDE8F081BDE80F
:1014D000F04100F01DBB4868002818BFA04238BF8B
:1014E0000146F8D3131983421BD103681A4495426D
:1014F00017D8531B082B0AD343686219536023681B
:1015000000681844401B106025604A6002E02260B9
:101510004068486006F10C00AFF30080201DBDE874
:10152000F08100223146281F00F0B1FA05000AD0F0
:101530002068211D021F284600F0D5F900223146FF
:10154000201DFFF757FF06F10C00AFF3008028467F
:10155000BDE8F08153EA020C00F069802DE9F04B00
:101560004FF00006002B1FBFB3FA83F503FA05F412
:1015700024FA05F65E4012BF1643B2FA82F502FA6B
:1015800005F4C5F120051EBF22FA05FC44EA0C044F
:10159000203556EA044C4FEA144418BF641C4FF03F
:1015A00000084FF00009904271EB030C39D3002979
:1015B00019BFB1FA81F701FA07F6B0FA80F700FA1D
:1015C00007F6C7F120071EBF20FA07FC46EA0C0603
:1015D0002037B6FBF4FCA7EB0507103F07F01F0B05
:1015E000CBF120060CFA0BFB2CFA06F644BFB346EF
:1015F0000026202FA4BF5E464FF0000B5BEA060CCE
:1016000008BF4FF0010B19EB0B09ABFB027C48EB59
:101610000608C01B06FB02CC0BFB03CC71EB0C01D4
:10162000C1E70B46024641464846BDE8F08B13B57C
:101630004FF000004FF00001AFF30080BDE81C4008
:10164000704700000FB41CB50C0007AA009001D031
:101650002044401E074B7B4469460190069800F0E9
:10166000C0FA002C03D06946002000F0CDFA1CBC63
:101670005DF814FBB90500002DE9F0410E46044663
:10168000002020622046E168884730B3252805D035
:10169000D4E901219047206A401CF2E7E168204626
:1016A00000278847050018D0A5F14100192802D865
:1016B00020354FF400673246294620462760FEF762
:1016C0008FFD40B1012804D0F61D26F0070608362C
:1016D000D8E7361DD6E72846DAE7206ABDE8F0816C
:1016E00070B50C460546012A05D02878800600D53D
:1016F000EA69002302E0012305E05B1C934202D269
:10170000E05C0028F9D1A869E618C01AA861286A27
:10171000184428622846AFF3008004E0D5E901218F
:1017200014F8010B9047B442F8D32846AFF3008079
:1017300070BD00002DE9F0410646002410687529AF
:10174000314616A510D0AFF30080002802DA4042DF
:1017500013A507E031688A0701D512A502E0490701
:1017600004D511A5012401E0AFF3008000210A2275
:1017700006F1240709E0B0FBF2FCB0FBF2F302FB38
:101780001C00303078541846491C0028F3D12346F9
:101790002A463046BDE8F04100F0C4B90000000020
:1017A0002D0000002B0000002000000070B5044652
:1017B0000D4621461068AFF300802188090502D547
:1017C0000F4A7A4402E00E4A7A440E32002104F1B4
:1017D000240305E000F00F060009965D5E54491CE5
:1017E0000028F7D120780023000704D5702D02D0FF
:1017F00009B1022311322046BDE8704000F092B9D1
:101800005CFD000040EA010310B59B070FD1042ADC
:101810000DD310C808C9121F9C42F8D020BA19BABB
:10182000884201D9012010BD4FF0FF3010BD1AB120
:10183000D30703D0521C07E0002010BD10F8013B75
:1018400011F8014B1B1B07D110F8013B11F8014B9C
:101850001B1B01D1921EF1D1184610BD032A40F284
:10186000308010F0030C00F0158011F8013BBCF142
:10187000020F624498BF11F801CB00F8013B38BF5A
:1018800011F8013BA2F1040298BF00F801CB38BF68
:1018900000F8013B11F0030300F02580083AC0F086
:1018A000088051F8043B083A51F804CBA0E808102E
:1018B000F5E7121D5CBF51F8043B40F8043BAFF361
:1018C0000080D20724BF11F8013B11F801CB48BFBB
:1018D00011F8012B24BF00F8013B00F801CB48BFF1
:1018E00000F8012B704710B5203AC0F00B80B1E82A
:1018F0001850203AA0E81850B1E81850A0E8185045
:10190000BFF4F5AF5FEA027C24BFB1E81850A0E84D
:10191000185044BF18C918C0BDE810405FEA827C67
:1019200024BF51F8043B40F8043B08BF7047D2077E
:1019300028BF31F8023B48BF11F8012B28BF20F81F
:10194000023B48BF00F8012B704702F0FF0343EA57
:10195000032242EA024200F002B84FF000020429DA
:10196000C0F0128010F0030C00F01B80CCF1040CCE
:10197000BCF1020F18BF00F8012BA8BF20F8022B02
:10198000A1EB0C0100F00DB85FEAC17C24BF00F8A8
:10199000012B00F8012B48BF00F8012B70474FF0D6
:1019A000000200B5134694469646203922BFA0E8AF
:1019B0000C50A0E80C50B1F12001BFF4F7AF0907BB
:1019C00028BFA0E80C5048BF0CC05DF804EB8900AC
:1019D00028BF40F8042B08BF704748BF20F8022BEF
:1019E00011F0804F18BF00F8012B70477047704707
:1019F000704710B5FFF7E6FC083010BD7047704720
:101A000038B504460A4600206946AFF30080002836
:101A100008BF38BD02460099204600F021F9012098
:101A200038BD012000F03BB9F8B5AFF300800546A2
:101A300000200C46102000BF0646A819A0420DD970
:101A4000324669460020AFF30080070008BF00F06F
:101A500026F90098A04218BF0546C419FFF7C9FF30
:101A600005600746F01D20F007004619284600F0E3
:101A7000EEF8B44208BFF8BDA21B31463868BDE895
:101A8000F84000F0EDB80B3020F0070070472DE96A
:101A9000F04117460E460446FFF7F5FFA042054603
:101AA00033D9002F1CBF06F10C00AFF30080304685
:101AB0007468F4B12168A94217D305F10802914274
:101AC0003CBF6168416007D3626861194A6022685F
:101AD000521B0A6041602560002F1CBF06F10C00FC
:101AE000AFF30080201DBDE8F08120466468002C23
:101AF000E0D129463046FFF783FF0028D7D1002FD9
:101B00001CBF06F10C00AFF300800020BDE8F0819F
:101B100010B50446FFF76DFF01682046BDE8104090
:101B20000122B4E72DE9F0470D4699469246044656
:101B300000F124080168880604D5E06921F010014D
:101B4000216000E00120A84201DD471B00E00027E2
:101B5000A1697A1902EB0900081AA0612078C00671
:101B600002D42046AFF30080002608E0D4E901212A
:101B70001AF806009047206A401C761C20624E45E9
:101B8000F4DB2078C0060AD52046AFF3008006E0DB
:101B9000D4E9012130209047206A401C2062381E81
:101BA000A7F10107F4DC07E0D4E9012118F80500EA
:101BB0009047206A401C2062281EA5F10105F3DC35
:101BC0002046AFF300802078000602D50220BDE851
:101BD000F0870120FBE7000001694A1C02610878D8
:101BE000704700B58FB0CDE901310021059105495D
:101BF0007944CDE9031011466846FFF73DFD0FB06B
:101C000000BD0000E5FFFFFF0A6802F8010B0A6053
:101C10007047D1E900239A4202D2531C0B60107026
:101C2000704710B5436913B1AFF3008001E0FFF7CF
:101C300057FD012010BD127800F124010A70002226
:101C40004A700122EDE711684FF0FF32E9E7002109
:101C50000160C0E901100C3000F060BC102070473A
:101C600030B404468C464368002B18BF634538BF28
:101C70001846F8D303681844604507D0C81C20F004
:101C8000070000F1040CACEB0100121A2146CCF85D
:101C9000002030BC00220CF10400FFF7ABBB10B5F4
:101CA00000F034F8BDE8104000F02BB87546FFF79F
:101CB00089FBAE4605006946534620F0070085467D
:101CC00018B020B5FEF7FAFBBDE820404FF0000643
:101CD0004FF000074FF000084FF0000B21F0070114
:101CE000AC46ACE8C009ACE8C009ACE8C009ACE857
:101CF000C0098D4670470446AFF300802046FEF7CA
:101D0000FDFA002801D000F029B8704710B501286D
:101D100005D0002103A000F028F8012010BD09A182
:101D2000F8E7000053494752544D454D3A204F754E
:101D300074206F662068656170206D656D6F7279C3
:101D4000000000003A2048656170206D656D6F727B
:101D50007920636F72727570746564000149182090
:101D6000ABBEFEE726000200704770B505460C4684
:101D70000A2000E06D1C00F011F835B12878002829
:101D8000F8D102E0641C00F009F814B120780028B2
:101D9000F8D1BDE870400A20AFF3008008B569466D
:101DA0008DF800000320ABBE08BD0000000000005D
:101DB00000B5002200F008F8C04380B2010241EAF9
:101DC000102080B200BD000005E000BF30F8023BEB
:101DD000891E5BBA1A440129F8DC11B1007802EBC4
:101DE000002290B200EB124000EB104080B270472E
:101DF000084400EB104080B2704700002DE9F04F1E
:101E000042484FF0000B93B046685F4649F21A080B
:101E1000357C4FF4407A4FF00049706900EB0510B3
:101E20000168C1F30D410C1F016811EA080F18BFCA
:101E3000012732D100683AEA000018BF02272CD1EE
:101E40003348001988BF032727D844F0004005F025
:101E50004DFE44F000410090002808BF04271CD02C
:101E60000820726900EB0510E31C105820F00302F3
:101E70000098001D9C0805D052F8043B40F8043B34
:101E8000641EF9D12348026812B10098001D9047E2
:101E9000009806F0A9F84FF0010B706900EB0510EF
:101EA000C0F8009077B1022F08BF4FF0FF343B46D7
:101EB00019A2402102A80094FFF7C4FB02A9F02058
:101EC00006F006FFF07A6D1C854208BF00253574C8
:101ED000706900EB0510006810F0004F9DD0194CA0
:101EE0006069194D10F0800F06D065610020A06078
:101EF00016A1F02006F0ECFE6561BBF1000F18BFE3
:101F000005F0C4FD13B0BDE8F08F000048020020CA
:101F100016FAFFFF440200204554485F49525148D9
:101F2000616E646C657228293A206572726F722046
:101F3000256420666F72206672616D655B25645D45
:101F40000000000000900240C08001004554485F3E
:101F500049525148616E646C657228293A20657255
:101F6000726F7220350000002DE9F001002201257A
:101F70005FF00306D1F800C005FA02F30CEA030C87
:101F80009C4533D107684FEA420C06FA0CF4A7438C
:101F900007600F79D0F8008007FA0CF747EA0807C6
:101FA00007600F79012F18BF022F14D18768A7434C
:101FB00087604F79D0F8088007FA0CF747EA0807DE
:101FC0008760476827EA0303436043688F79974037
:101FD000BFB23B434360C368A343C360CB7903FAFA
:101FE0000CF3D0F80CC043EA0C03C360521C102A57
:101FF000C0D3BDE8F00170474B07DB0E9A40C9081B
:1020000000EB8100016A4FF00F0C0CFA03F39943C7
:102010000162016A114301627047426951404161A6
:102020007047002A14BF018341837047002901884B
:1020300014BF41F4806121F4806101807047838A7C
:102040000022008B43EA004020F07F4031EA00008C
:1020500008BF012210467047C9438182704700299A
:10206000018814BF41F0010121F001010180704796
:102070000029018814BF41F4807121F4807101802E
:1020800070470029018814BF41F4007121F40071E8
:102090000180704782B00246002000920A0F21F0B2
:1020A0007F41019208BF090C009A14BF1432183204
:1020B000009212680A4218BF012002B07047818A5C
:1020C000008B41EA004020F07F40704770B5044625
:1020D000808884B00D4620F03F06684600F0B2F8D4
:1020E00029490298B0FBF1F189B246EA0102A280C7
:1020F000228822F001022280244B2A689A421DD8AD
:102100005200B0FBF2F080B2042838BF0420491C12
:102110002184A083208840F0010020802088A988A5
:102120006A8920F00A0020F480601143084320806F
:10213000A88929890843208104B070BDEB88A3F5E4
:102140003F4CBCF1FF0C19D002EBC20303EB0212AF
:10215000B0FBF2F080B240F480400205120D08BFDF
:1021600040F0010040F400404FF4967251434FF4A8
:102170007A72B1FBF2F1491C2184CAE702EB4202F8
:10218000B0FBF2F080B2E8E740420F00A086010009
:10219000002A14BF41F0010101F0FE0101827047E5
:1021A00001827047034940F0FD7040F08060086094
:1021B000704700000CED00E021F07F0121F060414C
:1021C000084301490860704708ED00E0044A00290F
:1021D000116814BF084321EA000010607047000036
:1021E00030380240044A0029116814BF084321EA2C
:1021F000000010607047000010380240044A0029B7
:10220000116814BF084321EA000010607047000005
:1022100040380240044A0029116814BF084321EAEB
:10222000000010607047000020380240044A002976
:10223000116814BF084321EA0000106070470000D5
:1022400044380240254A30B41168254B11F00C0186
:1022500006D0244C042908BF046002D008291ED0EF
:10226000036011680F2303EA11111F4B595CD0F86A
:1022700000C02CFA01F14160D2F800C0072404EA42
:102280009C2C13F80CC021FA0CFCC0F808C0126892
:1022900004EA52329A5CD140C16030BC70471349A5
:1022A000D1F800C0CCF38055D1F800C0002D0CF05F
:1022B0003F0C14BFB4FBFCF3B3FBFCF3D1F800C03C
:1022C0000968CCF3881C03FB0CF3C1F30141491CE2
:1022D0004900B3FBF1F10160C3E700000838024098
:1022E0000024F40080F0FA021C03002004380240AD
:1022F0000149C1F8DC0070470000274282B000228B
:10230000294901920092086840F48020086008681A
:1023100040F480300860086800F4003000900198B4
:10232000401C0190009818B90198B0F5A04FF2D167
:10233000086810F4003F02BF009202B0704701200D
:1023400000901A48026842F0805202601848026801
:1023500042F440420260174802680260026842F498
:1023600000420260026842F4A0520260031F124A57
:102370001A600A6842F080720A600A6812F0007FF0
:10238000FBD00E4A40F205711160016821F0030193
:102390000160016841F002010160016801F00C0177
:1023A0000829FAD102B07047003802404038024094
:1023B000007000400838024032544007003C0240A0
:1023C000010241EA102080B270470000DFF86CC0C3
:1023D00030B4DCF800001A4B10F00C01194806D09C
:1023E000194C042908BF046002D008290CD00360EE
:1023F000DCF80010154AC1F30311515C026822FA9F
:1024000001F1016030BC704711490A68C2F3805580
:102410000A68002D02F03F0214BFB4FBF2F2B3FBD6
:10242000F2F20B680968C3F388135A43C1F3014100
:10243000491C4900B2FBF1F10160D9E708380240BC
:102440000024F400B401002080F0FA0218110308FF
:1024500004380240134810B5016841F4700101606E
:102460001148016841F001010160104A002111602A
:10247000026822F4102222F080720260031D0C4ACE
:102480001A60026822F4802202600A48016006F0A5
:1024900067FCFFF733FF08494FF000600860FFF763
:1024A00095FF10BD88ED00E000380240083802407A
:1024B000103000240C38024008ED00E000210160DB
:1024C00081807047C9B241EA012141EA01410160BE
:1024D0008180704712F0004F1FBF22F00042D21DD2
:1024E00022F00703102202BFD21C22F003030C22A9
:1024F0001BB103EB020C8C4501D90120704702444B
:1025000001448360C0E90021C91AD01888429CBFE9
:1025100010600246F9D900201060704710B50446DB
:10252000204607F025FF10BD2DE9F0470027DFF812
:10253000909000280CDA2349D9F8002020F00040C0
:102540000968024401EB4101B2EB910F18D8012751
:1025500005460F3020F003060FB9FEF730FE1A4C87
:10256000D4E90002011B891AB1420CD2044600686A
:102570000028F5D127B9FEF715FE0020FEF75EFE14
:102580000020BDE8F08772B1101921680160206059
:1025900000F10808C0F80460D9F800103144C9F807
:1025A000001027B105E004F108086660F4E7FEF7C3
:1025B000F9FDA8F800500020A8F802004046E0E726
:1025C0001803002020020020780F00202DE9F0479A
:1025D0000746894690460026284C294D0BE0207876
:1025E00038B10422394604F10A0007F0E5F8012861
:1025F00035D00E34761C28888642F0DB21493846D7
:1026000006F0FAFFD0B91F4804220021001D07F090
:10261000F9F810B10020BDE8F0870026174C0AE059
:10262000207830B106224946201D07F0C5F8012860
:102630001AD00E34761C28888642F1DB404600F022
:1026400027F80028E7D00D49C0EBC00001EB40049B
:102650000E3C0422394604F10A0007F0BDF80622B8
:102660004946201D07F0B8F807480088E070074881
:102670000078A070032020700120CCE7580D0020C6
:10268000160200201C0D002018020020100200205D
:10269000F0B50546012116480E46164A03E00378B8
:1026A00053B10E30491C13889942F8DD1248104B83
:1026B0000488002001210DE0067045700846F0BD39
:1026C0005F78012F04D1DF78A74201D83C46084645
:1026D0000E33491C1788B942F2DD0028EFD0044AB6
:1026E000C0EBC00102EB410101F80E6D4D70F0BD71
:1026F000580D002016020020180200202DE9F04796
:1027000081460F4600253D4C3D4E0BE0207838B108
:102710000422494604F10A0007F04EF8012815D0BA
:102720000E346D1C30888542F0DB3649484606F091
:1027300063FFDFF8C880334D01284FF0040209D051
:102740000021281D07F05EF8E8BB1DE02078032873
:102750004ED350E04946281D07F02EF8012806D137
:1027600004220021281D07F04DF800B90027384643
:10277000FFF78EFF06003CD0C6EBC60108EB410414
:102780000E3C042249461DE000271C4C0BE020783B
:1027900038B10422291D04F10A0007F00DF80128C0
:1027A000D4D00E347F1C30888742F0DB0020FFF746
:1027B0006FFF06001DD0C6EBC60108EB41040E3CBE
:1027C0000422291D00E013E004F10A0007F004F8D8
:1027D00006220D49201D06F0FFFF0C480078A0706E
:1027E0000B480078E070304600F036F90220207087
:1027F0000020BDE8F0872046FBE70000580D0020D0
:10280000160200201C0D002098140308100200205E
:102810001102002070B50D46064604220E4906F04E
:10282000CBFF012814D0304606F0F8FE01280FD067
:1028300029463046FFF762FF040008D004223146E3
:1028400004F10A0006F0B8FF012802D002E00020DF
:1028500070BD6570012070BD941403082DE9F04728
:102860000026DFF8D480DFF8D490B246344F5DE024
:10287000B9F80050691C89B2A9F800103A88914251
:1028800001D3A9F800A02F49C5EBC50001EB400416
:102890002078C8B3E07820B1401E10F0FF00E0704F
:1028A00043D1607801280AD10422274904F10A00A3
:1028B00006F082FF012806D06078012818D010F0B9
:1028C000FF0F02D031E084F801A004221F4904F177
:1028D0000A0006F071FF012817D02078032818D0CD
:1028E000A07800B3401E10F0FF00A0701BD012E0D3
:1028F0002078032817D0A078A8B1401E10F0FF0060
:10290000A07010D0022005E00FE011480088E070B0
:102910000BE00420207098F80000E070681CBDE80F
:10292000F04700F099B884F800A0761C38888642F9
:102930009EDBBDE8F08700001102002000020020AD
:1029400016020020580D0020200D002094140308CA
:10295000180200202DE9F04106460025134C00F135
:102960000E08134F0DE0207848B1012807D004224B
:1029700004F10A01404606F01FFF012806D00E347C
:102980006D1C38888542EEDBBDE8F081062206F139
:102990000801201D06F020FF06480088E070064868
:1029A0000078A07003202070EEE70000580D002092
:1029B0001602002018020020100200202DE9F0412C
:1029C00005460E462A20FFF7AFFD044605F1080133
:1029D00006220F46001D06F0FFFE06221C4904F1E8
:1029E0000A0006F0F9FE4FF4C16020824FF48070B7
:1029F00060820820A0820620A0750420E07526834E
:102A000004F1240006223946064606F0E5FE05F1EB
:102A10000E0104F12A000422054606F0DDFE06221E
:102A20000B4904F11A0006F0D7FE0422094904F10B
:102A3000200006F0D1FE012231462846FFF7C6FDF0
:102A40002046FEF7ABFB2046BDE8F04103F0AABCF0
:102A5000240200201C0D002070B505462A20FFF737
:102A600063FD044606222349001D06F0B5FE06223A
:102A7000214904F10A0006F0AFFE4FF4C160208244
:102A80004FF4807161820820A0820620A075042086
:102A9000E07521830622184904F11A0006F09CFE15
:102AA0000422164904F1200006F096FE4FF00602BB
:102AB00065B1002104F1240006F09CFE1049C5EB2D
:102AC000C50001EB40010422091F06E0094904F199
:102AD000240006F081FE0949042204F12A0006F0D0
:102AE0007BFE2046FEF75AFB2046BDE8704003F00F
:102AF00059BC000098140308240200201C0D00207B
:102B0000580D002010B50748006890F8200000B963
:102B100010BD0448406803224168022007F092FE7D
:102B200000BFF5E7B0030020F0B50146012463259E
:102B300009B9A01EF0BD0020064650405E4030435B
:102B400002D142F2222200236FF07F4602EA060001
:102B50000026360646EA10264FF0020C4CEA0060CA
:102B6000C1E90006034888606FF07F40C86000201C
:102B7000E0E700000A00016310B5044620460DF0AE
:102B800023F910BD10B5044620460DF067F910BDBD
:102B900010B5044604B91C4C40221C491C480DF0D9
:102BA000AAF81A480CF086FF012809D040221949DA
:102BB00017480DF0D4F84022144915480DF09BF841
:102BC00020790DF086F838B1206810B12068804770
:102BD00002E04FF0FF3010BD0DF07CF938B12068F5
:102BE00010B12068804702E04FF0FF30F3E70DF0AE
:102BF00048F938B1206810B12068804702E04FF0F2
:102C0000FF30E8E70020E6E7A40F0308F404002003
:102C1000AC0F0308B40F03080020704770B50446DA
:102C20000D46294620460DF0BFF970BD014611B989
:102C30006FF0010070470020087000BFFAE730B560
:102C4000024602B111B96FF0010030BD91E83900C0
:102C500082E839000020F8E7FEB505460C46002062
:102C60000290461E284600F088F8012804D0022869
:102C700011D0032839D11EE00020019002AA01A939
:102C8000284600F050F8029820B1DDE9011003F069
:102C90001BFA06462AE00020019002AA01A9284654
:102CA00000F056F8029828B12246DDE9011003F041
:102CB000F7F906461AE000200190009002AB6A4640
:102CC00001A9284600F015F8019868B1029838B1BA
:102CD0002346DDE90021029803F0CCF9064603E023
:102CE0000026DDE90001884700E000BF00BF304654
:102CF000FEBD10B5044614B109B102B113B96FF0AD
:102D0000010010BD2078032805D00020086018605D
:102D10001060401EF5E760680860E0681860A06811
:102D200010600020EDE703460BB101B112B96FF05E
:102D3000010070471878012804D000200860106056
:102D4000401EF6E758680860986810600020F0E7B9
:102D500003460BB101B112B96FF00100704718784A
:102D6000022804D0002008601060401EF6E7586872
:102D70000860986810600020F0E7014609B900205B
:102D800070470878FCE770B5002400F04FFD054659
:102D900001231022042100F053FD0446002020707E
:102DA000204670BD10B5044614B96FF0010010BD87
:102DB000032020706160A260E3600020F7E7034613
:102DC00013B96FF0010070470120187059609A60C4
:102DD0000020F8E70348006808B102487047002067
:102DE000FCE7000068010020F8B504460D461148D4
:102DF0000068E0B900F0AAF906460F4800900CB14F
:102E0000012000E0002001460C4B0DA2304600F0EE
:102E100064F9294620460AF05BFA1348134B144A1A
:102E200014490090144802F0A3FC024908600148CC
:102E3000F8BD000068010020D00D0308710F0308E1
:102E4000656F5F61726D656E765F496E6974696109
:102E50006C69736528293A204E554C4C206D6F647F
:102E6000696E666F00000000C1D20208A5D3020897
:102E70002DD40208B1D20208A9D4020801460A469C
:102E80000AB9002070471068FCE701460A46121F85
:102E900010687047014609B9002070470889FCE7AF
:102EA00010B501460022002309B9002010BD088892
:102EB00008B90020FAE7CA684888CC8800FB0423D8
:102EC0001846F3E7014609B90120704708880A89C6
:102ED000904201D10120F8E70020F6E72DE9FE4FEE
:102EE00005460E461746984600240020029082466A
:102EF00081460120019000F099FC834601232022A5
:102F0000042100F09DFC0446002020806080A08009
:102F100000F01CF98346354800900DB1012000E017
:102F200000200146324B33A2584600F0D6F800F09C
:102F30000DF983462D4800900EB1012000E00020DD
:102F400001462B4B32A2584600F0C7F8E580658158
:102F500026812761C4F814800C98A0610D98E06167
:102F6000012D02D10120019019E0022D02D1022091
:102F7000019014E0042D03DC0420019060810EE038
:102F800008200190E81DC11700EB5171C1F3CF017A
:102F9000618160894FF6FF7101EAC000608100F035
:102FA00045FC834633462A46019900F049FCE0601F
:102FB000E06802904FF0000912E0029809FB050A50
:102FC0001FB141465046B84706E000BFE188504671
:102FD000FEF7C3FC00BF00BF09F101001FFA80F932
:102FE000B145EADB2046BDE8FE8F0000D00D0308A6
:102FF0008C0D0308656F5F64657175655F4E65775D
:1030000028293A2030206974656D5F73697A6500FC
:10301000656F5F64657175655F4E657728293A2035
:1030200030206361706163697479000070B5044693
:103030000025002604B970BD208800B9FBE7E568CB
:103040006088E18800FB0156E06918B13046E1690B
:10305000884702E000BF00BF00BF6088401C218994
:1030600090FBF1F201FB120060802088401E20805E
:1030700000BFE0E72DE9F04104460D460026002799
:1030800004B10DB9BDE8F08120892188884200D1C2
:10309000F8E7E668A088E18800FB0167A06920B135
:1030A00029463846A269904704E022462946384618
:1030B0000AF016FBA088401C218990FBF1F201FB6D
:1030C0001200A0802088401C208000BFDAE7014663
:1030D00009B9002070470888FCE72DE9F843054648
:1030E0000C4616461F46DDF820803CB93B4632466A
:1030F00004212846CDF8008000F002F8BDE8F883EE
:103100002DE9FC4782460C4615461E46DDF8288010
:103110000027002000900190019602F0E7FD814613
:1031200002F0EEFD07461FB902208DF8000004E012
:10313000384602F0E9FE8DF8000043466A4629460B
:1031400020460AF0D7FABDE8FC8700000048704727
:1031500048000020F8B507460C4615461E462B468B
:103160002246002138460096FFF7CAFFF8BD00004E
:10317000014601B9024903480A680260704700002D
:10318000A80D0308480000202DE9F04104460D4633
:1031900016464FF0FF3714B97800BDE8F08160683B
:1031A00028B92068FFF776FE288000270FE0314617
:1031B000606802F0E9FC40B92068FFF76BFE2880E8
:1031C000606802F0D3FC002701E06FF00207384688
:1031D000E3E72DE9F04104460D4616464FF0FF3770
:1031E00004B11DB96FF00100BDE8F081606850B90D
:1031F0002068FFF755FE2860286808B1002717E00F
:103200006FF0040714E03146606802F0BDFC68B955
:103210002068FFF745FE2860606802F0A7FC286878
:1032200008B1002704E06FF0040701E06FF0020727
:103230003846D9E72DE9FC5F05460E461746984605
:10324000DDE90C9A002400F0F1FA834601230822FC
:10325000042100F0F5FA0446FFF778FF834614488E
:1032600000900DB1012000E000200146114B12A298
:103270005846FFF732FFFFF769FF83460C4800907E
:103280000EB1012000E0002001460A4B11A2584671
:10329000FFF723FF43463A4631462846CDE9009AD8
:1032A000FFF71CFE20600E9860602046BDE8FC9F82
:1032B000D00D0308940D0308656F5F6669666F5F44
:1032C0004E657728293A2030206974656D5F7369EF
:1032D0007A650000656F5F6669666F5F4E65772887
:1032E000293A2030206361706163697479000000BD
:1032F0002DE9F04104460E4615464FF0FF3714B94C
:103300007800BDE8F081606860B92068FFF7DAFDF9
:1033100028B931462068FFF7ADFE002719E06FF0AD
:10332000050716E02946606802F02EFC78B920688F
:10333000FFF7C8FD28B931462068FFF79BFE00273C
:1033400001E06FF00507606802F010FC01E06FF02B
:1033500002073846D5E770B504460D464FF0FF36F4
:103360000CB9700070BD606820B92068FFF75EFE80
:1033700000260EE02946606802F006FC38B9206895
:10338000FFF754FE606802F0F1FB002601E06FF0E9
:1033900002063046E6E72DE9F04104460D461646A2
:1033A0004FF0FF3724B900202880801EBDE8F0814F
:1033B000606828B92068FFF78AFE288000270FE0A0
:1033C0003146606802F0E0FB40B92068FFF77FFEFD
:1033D0002880606802F0CAFB002701E06FF0020756
:1033E0003846E3E700487047E40000202DE9F0414B
:1033F00004462C4890F8580010B12A48BDE8F081E6
:1034000004B9294C208838B1606828B1A06818B187
:10341000E06808B1206908B90020EFE714222146CE
:103420002048FEF760FA1F4800218163C163002530
:1034300000BF1DE00120A84086B220883040B04285
:103440000FD100F0CBFE1749183141F8250015487F
:1034500000214268284690471248C168284688479C
:1034600004E000210F48183040F82510681CC5B250
:10347000082DDFDBFFF787FC0A49486102F0E8F816
:10348000074602F0EFF8064606493346002248692F
:103490000649FFF787FC0120024981F858000846D9
:1034A000ACE70000E4000020FC0E030839D7020856
:1034B0002DE9FE4306460C4617461D460EB9BDE8EB
:1034C000FE83FF2C03D0214850F8240000B9F6E712
:1034D0001E4951F8240000F06FFE012804D11B4959
:1034E00051F8240000F08EFF35B94FF0FF31174836
:1034F000203040F8241004E069001448203040F8DF
:1035000024101248183881682046884702F0A0F835
:10351000814602F0A7F880460C49183943462246F6
:1035200048690B49FFF73EFC0848183840690122FA
:103530007908CDE900120290044951F824000549A8
:103540000CC900F0B3FE00BFB9E70000FC0000208A
:1035500039D70208800D030870B504460D460026D1
:1035600004B105B970BD2946204600F04AF800B9FB
:10357000F8E720460AF053F9064676B12946204678
:103580000AF0DBF9294620460AF0B8F92089401EE6
:103590002081208908B90020606000BFE2E72DE9A2
:1035A000F04104460D4600262F46B04604B115B939
:1035B0000020BDE8F08120460AF031F906460FE010
:1035C000314620460AF02EF98046A2893946404607
:1035D000FEF718F900B905E030460AF02CF9064666
:1035E000002EEDD100BF3046E3E7014609B90120C6
:1035F000704748890A89904201D10120F8E70020EC
:10360000F6E770B506460C46002506B10CB9002059
:1036100070BD30460AF003F9054607E0AC4201D11F
:103620000120F5E728460AF006F90546002DF5D1F8
:103630000020EDE72DE9FC5F06460D46174698464B
:10364000DDF830A00024A14600F0F0F88346012305
:103650002422042100F0F4F8044600202060606079
:103660002081FFF773FD83462A4800900EB10120A8
:1036700000E000200146284B28A25846FFF72DFD08
:10368000FFF764FD8346234800900DB1012000E060
:1036900000200146204B28A25846FFF71EFD6581F9
:1036A000A6812761C4F81480C4F818A00D98E061C1
:1036B00060894FF6FF71884217D100F0B7F800908B
:1036C00000F056FA08B9012000E000208346FFF719
:1036D0003DFD01901F48104B1F4A5946009001982C
:1036E000FFF7FBFC0020206211E04FF000090CE026
:1036F00020460AF0A6F883465946206A0AF015F9D2
:10370000206209F101001FFA80F9A945F0DB20468B
:10371000BDE8FC9FD00D03089B0D0308656F5F6C2F
:103720006973745F4E657728293A20302069746583
:103730006D5F73697A650000656F5F6C6973745FB4
:103740004E657728293A203020636170616369747F
:1037500079000000E00D0308EC15030870B504467D
:103760000D46002604B105B970BD608921898842E3
:1037700000D1F9E720460AF0ADF806467EB12A46A8
:10378000314620460AF028F8208900B966603146A3
:1037900020680AF0CAF820602089401C208100BF00
:1037A000E2E70000F8B506460C4604B9F8BD0E483D
:1037B000007958B1FFF7CAFC05460C480C4B0DA226
:1037C000022100902846FFF79BFCEFE72046FFF719
:1037D0005CFB0549C96C081A0349C864084641697D
:1037E0002046884700BFE1E774000020E00D030891
:1037F000280E0308656F5F6D656D706F6F6C5F44B9
:10380000656C65746528293A206F6E6C7920772F76
:1038100020656F5F6D656D706F6F6C5F616C6C6F55
:10382000635F64796E616D6963000000034800782E
:10383000012801D1014870470020FCE774000020F6
:103840002DE9F04F87B006460F4614461D464FF04F
:1038500000080020069081464F4890F804A004B16B
:10386000E5B9002002900390049005900220029098
:103870000020ADF80E008DF80C008DF80D00FFF75C
:1038800065FC834602A8454B45A20221009058469C
:10389000FFF736FC002007B0BDE8F08FDEB900204E
:1038A0000290039004900590032002900020ADF850
:1038B0000E008DF80C008DF80D00FFF747FC8346D5
:1038C00002A8364B40A2002100905846FFF718FC92
:1038D0004FF0000A00BFBAF1000F06D0BAF1010F95
:1038E00025D0BAF1020F2AD10AE005FB04F02A4ADA
:1038F000D168884780464046FFF7C7FA81461EE0F8
:1039000096F83800384050B905FB04F0224AD168D7
:10391000884780464046FFF7B8FA814606E006AB86
:103920002A46214638460AF045F8804607E006ABAD
:103930002A46214638460AF03DF8804600BF00BFBF
:10394000B8F1000F1CD10020029003900490059064
:103950000420029005FB04F080B2ADF80E000020B8
:103960008DF80C008DF80D00FFF7F0FB834602A8E0
:103970000A4B22A2042100905846FFF7C1FB00BF6A
:103980000548006D0699014403480165C06C484430
:103990000149C86440467EE774000020280E0308F1
:1039A000656F5F6D656D706F6F6C5F4765744D65BA
:1039B0006D6F727928292069732061736B656420AB
:1039C0003020627974657300656F5F6D656D706F2F
:1039D0006F6C5F4765744D656D6F72792829206E35
:1039E0006F7420696E6974746564207573657320E3
:1039F00064796E20616C6C6F63000000656F5F6DB1
:103A0000656D706F6F6C5F4765744D656D6F727932
:103A10002829206E6F206D6F7265206D656D6F7245
:103A20007900000038B5054640480078012801D1EA
:103A30003E4838BD01203D4908700020C86400217F
:103A40003A48016505B93A4D3848D5E90012C0E950
:103A50000112287820B1012811D002284FD10FE09F
:103A6000686858B1686800683049C860686841682B
:103A70002E480161686881682C48416140E000BFC0
:103A8000686878B3294C1834202220466968FDF70D
:103A90002AFF206838B194F8200040F0010084F833
:103AA000200000216184A06838B194F8200040F023
:103AB000020084F820000021A184206938B194F824
:103AC000200040F0040084F820000021E184A06977
:103AD00038B194F8200040F0080084F8200000215C
:103AE00021850BE0FFE7FFF731FB04461148124B3D
:103AF00012A2042100902046FFF702FB00E000BF65
:103B000000BF0A48C06810B916480849C86007488D
:103B1000006910B91449054801610448406910B9A9
:103B2000124902484161014883E700007400002007
:103B3000200E0308D00D0308280E0308656F5F6D83
:103B4000656D706F6F6C5F496E697469616C6973E4
:103B50006528293A20706F6F6C73206E6565646507
:103B60006400000049F4020863F4020857F40208F4
:103B700001460148007970477400002003460BB1EC
:103B800001B112B96FF00100704718680860988899
:103B900010800020F8E7034613B96FF0010070476A
:103BA00019609A800020FAE730B50446039D04B1FD
:103BB00015B96FF0010030BDE079012802D04FF057
:103BC000FF30F8E72160A2800020A071238163818B
:103BD000A381E081256100BFEDE770B505460024B3
:103BE000FFF724FE0646012314220421FFF728FED6
:103BF000044600202060A080A07120816581A08102
:103C0000E08105B907E0FFF711FE064601232A46C9
:103C10001946FFF715FE20610DB9012000E00020D4
:103C2000E071204670BD02464FF0FF330AB95800DC
:103C300070475089884205DB118191810020D08135
:103C4000002308E050891081508990810020D081A4
:103C50000120907100231846EAE701460A46002039
:103C600010609080907110819081D08170472DE913
:103C7000F04105460E462C46374638682060B88825
:103C8000A08060893989884201DC012000E00020A1
:103C9000A071A07908B9388900E060892081208965
:103CA000A0810020E08161892069FDF756FE22890C
:103CB00039692069FDF7D2FD0020BDE8F0812DE9CA
:103CC000F04104460E46254600202860A880A871D1
:103CD0002881A881E8816E8106B907E0FFF7A6FD7B
:103CE0000746B3B201221146FFF7AAFD28610EB9BB
:103CF000012000E00020E8710020BDE8F08170B5EF
:103D00000024FFF793FD0546012318220421FFF745
:103D100097FD0446FFF737F8A060FFF734F8E0603E
:103D2000A068FEF783FFE068FEF780FFFF202070A9
:103D30000020608060602074032060740020A07404
:103D40006061204670BD70B505462846FFF796F8BD
:103D500004460CB9002070BD6068FCE770B50546EC
:103D60002846FFF78BF804460CB9FF2070BD207879
:103D7000FCE72DE9F05F81460E4617461D46DDE95A
:103D80000BABDDF828804846FFF778F804461CB9ED
:103D90006FF00100BDE8F09F267067800020606032
:103DA000207484F811A084F812B025B12946A068C7
:103DB000FEF745FF02E0A068FEF738FFB8F1000FFC
:103DC00004D04146E068FEF73AFF02E0E068FEF703
:103DD0002DFF0020DEE72DE9F04104460D46164692
:103DE0004FF0FF3714B97800BDE8F08115B94FF0F6
:103DF000FF30F9E701F0CAFD80463246294601F05E
:103E0000CFFD07463846EFE72DE9F84304460E4656
:103E1000174600200090451E14B9801EBDE8F883A7
:103E20002046FFF790FF2068407C012801D1801ECA
:103E3000F4E72068807C01280BD101F0A7FD8046C3
:103E40003A46214601F0BCFD054615B16FF002006F
:103E5000E4E76946E2686068FFF7BBF9054645B9E3
:103E600030460099FFF703FF034960680968FFF7D0
:103E700072FA2846D2E70000780D03082DE9FE4FBC
:103E800005460F4690461E46DDE90C9A0024FFF7D2
:103E9000CDFC8346012330220421FFF7D1FC0446E8
:103EA000FFF754F9834600200090A81908B10120BB
:103EB00000E000200146214B21A25846FFF70DF9F2
:103EC000FFF71DFF20600DB900200AE028482949AE
:103ED0003B46294ACDE90108009129461420FFF705
:103EE000A9F960600EB900200AE0214821494B463B
:103EF000214ACDE9010A009131461420FFF79AF9D1
:103F0000A0601E480068E06000F068F920611C4B6A
:103F10000FCB18340FC4283CFEF735FFA06201F028
:103F200097FB029001F09EFB83465B4622461549B3
:103F3000A06AFEF737FF2046BDE8FE8F500F03084A
:103F4000656F5F736F636B65746474675F4E6577ED
:103F50002829206E65656473206174206C65617327
:103F600074206F6E6520706B7420717565756500C7
:103F70005B3C02086F3C0208BF3C0208780D030856
:103F8000400F0308A1DB02082DE9FE4F04468946D5
:103F900015461E46DDF830A04FF0FF3B1CB96FF010
:103FA0000100BDE8FE8F012D01D0032D0CD1A068CA
:103FB00050B9FFF7CBF807460020304B30A2042160
:103FC00000903846FFF79CF8022D01D0032D0CD14C
:103FD000606850B9FFF7BAF807460020274B33A2B4
:103FE000042100903846FFF78BF8606860B9012E15
:103FF0000AD1FFF7ABF807460020204B364A0421D0
:1040000000903846FFF77CF8BAF1000F08D0DAE9E3
:104010000213DAE90020C4E90813C4E9062004E029
:104020002E4B0FCB04F118070FC72068007C10BB84
:104030000E988DE861004A46002120460D9BFFF74F
:1040400098FE01F0A3FC0746214601F091FC83464F
:10405000BBF1000F0FD12420005D01280BD10122FC
:10406000216AA06ACDE900120290D4E906733A46AB
:10407000206900F01BF9584693E70000500F030831
:10408000656F5F736F636B65746474675F4F7065B2
:104090006E2829206E6565647320616E206F7574CB
:1040A000707574207175657565000000656F5F73CC
:1040B0006F636B65746474675F4F70656E28292049
:1040C0006E6565647320616E20696E707574207111
:1040D0007565756500000000CC160308400F0308E5
:1040E0002DE9FE4304460E464FF0FF3514B9680033
:1040F000BDE8FE832046FFF726FE10B94FF0FF30E3
:10410000F6E72068407C022801D1C01EF0E7314666
:10411000D4E90202FFF7ECF805460DB12846E7E7BF
:104120001748D4E90632D0E9001059405040014305
:104130000AD1206A40B901F029FC07461022214625
:1041400001F002FC054618E02420005DA0B92069BA
:1041500000F032F8012801D1851E0EE00022216A0C
:10416000A06ACDE900120290D4E906733A462069AC
:1041700000F09CF8054600E000252846B8E700005E
:10418000800D030870B504460D464FF0FF3604B1AC
:1041900015B96FF0010070BD2068407C012803D183
:1041A00000202880401EF6E72946E2686068FFF795
:1041B000F2F806463046EEE701460020002211B133
:1041C0000B7E03F003020AB9002304E0012A01D1A7
:1041D000012300E00223184670470000F8B50024D0
:1041E0000025661EFFF722FB07460123302204212B
:1041F000FFF726FB04460021204600F031F901F0CC
:1042000083FF054655B9FEF7A1FF07460D480E4B43
:104210000EA2042100903846FEF772FF2146284680
:1042200001F07CFF064656B1FEF790FF07460548B1
:10423000054B12A2042100903846FEF761FF20468C
:10424000F8BD0000F00D0308380E0308656F5F74B9
:10425000696D65725F4E657728293A20656F765FD4
:1042600074696D65726D616E5F47657448616E64F7
:104270006C652829206661696C730000656F5F7446
:10428000696D65725F4E657728293A20656F765FA4
:1042900074696D65726D616E5F4F6E4E65775469BE
:1042A0006D65722829206661696C73002DE9FC5FD9
:1042B000044615461E46DDE90D890C9F6FF0050B7F
:1042C0004FF0000A01F020FF8246BAF1000F02D041
:1042D000B9F1000F0AD1FEF739FF01903248334B94
:1042E00033A2042100900198FEF70AFF374903C961
:1042F0006840714008430BD057B9FEF727FF019083
:1043000029482A4B32A2042100900198FEF7F8FEBA
:104310003B480168504601F027FF10F1030F02D11E
:104320005846BDE8FC9F2948D0E90010694070401C
:10433000014313D0B8F1000F10D101F0D7FC019068
:1043400001F0E6FCEB1946F10002C01A914105D3D9
:10435000504601F0F1FE4FF0FF30E2E72046FFF754
:104360002BFF01281AD0207E20F003002076B8F120
:10437000000F01D0012000E00020217E60F38201C7
:104380002176C4E90056A76099E80F001C340FC4D9
:104390002C3C2146504601F0A9FE8346504601F0D0
:1043A000CBFE5846BDE70000D00D0308380E0308C9
:1043B000656F5F74696D65725F53746172742829EB
:1043C0003A204E554C4C206172670000800D030866
:1043D000656F5F74696D65725F53746172742829CB
:1043E0003A203020636F756E74646F776E20772F7C
:1043F0002077726F6E67207374617274617400004D
:10440000780D030870B504466FF00506002501F02D
:104410007BFE054605B114B96FF0010070BD0F4871
:104420000168284601F0A0FE10F1030F01D13046CB
:10443000F4E72046FFF7C0FE012805D121462846B3
:1044400001F084FE064604E00021204600F038F822
:104450000026284601F070FE3046DFE7780D03089D
:1044600010B509B9002304E0012901D1012300E0BE
:1044700002231A4608B3114B18CBC0E900340023BD
:104480008360C360037E62F301030376037E23F03F
:1044900004030376037E23F0080308330376037EC8
:1044A00023F0F003037600230361002404614461D8
:1044B000C361036243628362037710BD800D03080A
:1044C00010B509B9002304E0012901D1012300E05E
:1044D00002231A46E0B1037E62F301030376037EF2
:1044E00023F004030376037E23F0080308330376E6
:1044F000037E23F0F0030376064B18CBC0E90034AB
:1045000000238360C360C3610362436283620377F5
:1045100010BD0000800D030810B54FF40070FFF7C8
:104520005CFB064908604FF4007104480068FFF71F
:104530007AFB034800F034F810BD00003000002082
:10454000B5DB020870B504460D461248007818B174
:104550001148006884420FD02A4621460F4800685F
:10456000FFF739FC28B90C4804600120094908709C
:1045700002E000200749087006480078012803D1AE
:10458000002002F049FC02E0002002F021FC01487A
:10459000007870BD20000020240000200C000020C6
:1045A00001490860704700001C00002030B58BB046
:1045B000FFF7B2FF0021084602F0CAFB00210120EC
:1045C00002F0C6FB0021022002F0C2FB0021032002
:1045D00002F0BEFB0021042002F0BAFBFFF7FEFD53
:1045E00022490860FEF7CFFB2149086000F0D4F8AB
:1045F000054600F0DBF80446234600221D491C480E
:104600000068FEF7CFFB1A48006801211A4ACDE97D
:104610000021029019480CC814480068FFF746FEB4
:104620001422174906A8FDF75EF906A8FEF7DEFE7C
:10463000FEF7D8FE04460023124A0521FEF738FF94
:1046400011A014490022144B1B68CDE90232CDE9B8
:10465000041012491346CDE900124FF400626421A0
:10466000052000F0EDFC0BB030BD00000000002084
:1046700004000020E9FA020820A10700800D0308C9
:10468000B40B030880841E00706572696F646963EF
:104690000000000003040308700D030881F5020800
:1046A00010B504460848046048F2352207480168FE
:1046B00005480068FFF76FFA03480168044800687E
:1046C000FFF70EFD10BD00001400002024000020A4
:1046D0000C00002010B586B00021FF2006F0AEFBD4
:1046E00018490860002018490870FEF72FFD04469D
:1046F000002000901348006808B1012000E000206D
:10470000014612A317A22046FEF7E7FC1AA01D4996
:1047100000221D4B1B68CDE90232CDE904100620B2
:104720001A491B4B4FF40062CDE9001064210120AF
:1047300000F086FC1749086008460068086006B06B
:1047400010BD000008000020200000206170706C87
:1047500062617369635F7370656369616C697365D6
:104760000000000073656D6170686F726520697389
:10477000204E554C4C000000756470736572766570
:10478000720000000F040308780D030871FB020893
:10479000D9FB0208180000200348406808B900202F
:1047A00070470148FCE70000D4000020014609B929
:1047B0000020704701484068FBE70000D40000205B
:1047C00030B587B004462A48406810B1284807B081
:1047D00030BD04B9274CFEF7B9FC054626480090C9
:1047E000207908B1012000E000200146234B24A2DB
:1047F0002846FEF772FCFEF7A9FC05461E4800900D
:10480000608808B1012000E0002001461B4B27A270
:104810002846FEF762FCFEF799FC05461648009014
:10482000207808B1012000E000200146134B2AA2A5
:104830002846FEF752FC32A033490022334B1B6856
:10484000CDE90232CDE9041020793149CDE90010DB
:10485000628821780023042000F0F2FB04494860BC
:10486000084641682B4800F003FF0148AFE700000D
:10487000D4000020900E0308D00D0308960E030804
:10488000656F6D5F63616C6C6261636B6D616E5FC0
:10489000496E697469616C69736528293A20302012
:1048A000717565756573697A65000000656F6D5F88
:1048B00063616C6C6261636B6D616E5F496E69749C
:1048C00069616C69736528293A20302073746163CB
:1048D0006B73697A65000000656F6D5F63616C6C76
:1048E0006261636B6D616E5F496E697469616C6969
:1048F000736528292030207072696F72697479009D
:1049000063626B6D616E0000EB030308780D0308B2
:10491000A5DC020879DC020810B5044614B96FF072
:10492000010010BD0249086800F0FEFFF9E7000031
:10493000B00300202DE9F04186B004460F4615462D
:104940001E468748006818B1854806B0BDE8F0816A
:1049500004B9844CFEF7FAFB8046834800900FB1FF
:10496000012000E000200146804B81A24046FEF776
:10497000B4FBFEF7EBFB80467B480090606808B113
:10498000012000E000200146784B82A24046FEF75D
:10499000A4FBFEF7DBFB804673480090608808B1FB
:1049A000012000E000200146704B85A24046FEF742
:1049B00094FBFEF7CBFB80466B480090207808B153
:1049C000012000E000200146684B87A24046FEF728
:1049D00084FB06B98E4EFEF7B9FB80466248009014
:1049E000707808B9307808B9012000E0002001464D
:1049F0005E4B88A24046FEF770FB93489349944A69
:104A0000CDE9002102903078924B934A002100F0CA
:104A1000EBFF534908600021022006F00FFA5049CD
:104A20004863FEF793FB80468C4800904C48406BEF
:104A300008B1012000E0002001464C4B88A240460E
:104A4000FEF74BFB06F0F0F845490861FEF77EFBE8
:104A50008046824800904248006908B1012000E089
:104A600000200146414B8DA24046FEF736FBFFF782
:104A7000B5FB3B498863FEF786F93949C86370780E
:104A8000B0B1707805F0DCFF35498864FEF75EFB55
:104A90008046724800903248806C08B1012000E0E6
:104AA00000200146314B8AA24046FEF716FB02E089
:104AB00000202B498864D822394629485030FCF719
:104AC00012FFB5B100210846D5E9003259405040E7
:104AD000014304D02249D5E90020C1E91820A86883
:104AE00010B11F48A9688166E86810B11C48E968E0
:104AF000C1660020FFF771F819490864844800680E
:104B00004864207A81F828010846FFF705FF81A153
:104B1000834A00236068CDE9033205910290814900
:104B2000CDE90013628821787F4B012000F088FADC
:104B30000B4948607DA1804A00230948406DCDE9BA
:104B40000332059102907D49CDE900136289617AB3
:104B5000052000F075FA024988600846F5E6000075
:104B6000B0030020100F0308D00D0308300F030816
:104B7000656F6D5F69706E65745F496E69746961B8
:104B80006C69736528293A204E554C4C2069706336
:104B900066670000656F6D5F69706E65745F496E72
:104BA000697469616C69736528293A2030207072D4
:104BB0006F636D617869646C6574696D6500000090
:104BC000656F6D5F69706E65745F496E6974696168
:104BD0006C69736528293A20302070726F63737492
:104BE00061636B73697A6500656F6D5F69706E658F
:104BF000745F496E697469616C69736528293A202C
:104C000070726F637072696F72697479000000006E
:104C10001C0F0308656F6D5F69706E65745F496E88
:104C2000697469616C69736528293A2030206D6167
:104C300078646174616772616D656E7175657565C3
:104C400064696E747800000089E00208C5DC02081F
:104C50004DDD0208D9DE020805DE0208F00D03086A
:104C6000656F6D5F69706E65745F496E69746961C7
:104C70006C69736528293A206F73616C2063616EDB
:104C800074206769766520626C6F636B696E677309
:104C9000656D6170686F726500000000656F6D5F23
:104CA00069706E65745F496E697469616C6973657A
:104CB00028293A206F73616C2063616E74206769E4
:104CC0007665206D747863616C6C6572000000001D
:104CD000656F6D5F69706E65745F496E6974696157
:104CE0006C69736528293A206F73616C2063616E6B
:104CF000742067697665206120646772616D736FE7
:104D0000636B6574726561647932747800000000C9
:104D1000780D030869706E65742E70726F63000001
:104D2000414D0208A1E6020811E7020869706E65AC
:104D3000742E7469636B00004D4D02081DE7020874
:104D400010B50446204600F0B1FB10BD10B5044676
:104D5000204600F0ABFB10BD70B5044604B970BD31
:104D6000606800B9FBE7606805F024FF206800F088
:104D70001DFF002020606060FEF758FD05462146BB
:104D8000FEF710FD00BFEAE738B50024FEF74EFD40
:104D90000546012308220421FEF752FD044600F0D7
:104DA00015FF20600D4B0E4A0E49206800F020FFD1
:104DB00005F03AFF6060FEF7C9F905460A48009021
:104DC000606808B1012000E000200146074B08A2FE
:104DD0002846FEF782F9204638BD000029E7020880
:104DE00039E7020847E70208F00D03087F0E0308C1
:104DF000656F6D5F6D757465785F4E657728293ACC
:104E0000206F73616C5F6D757465785F6E65772870
:104E1000292072657475726E73204E554C4C0000DB
:104E200010B5044614B96FF0010010BD204609F01A
:104E300083FCFAE770B504460D4614B96FF0010023
:104E400070BD2946204609F07EFCF9E7034800685A
:104E500008B9002070470148FCE7000088030020E3
:104E60002DE9F04786B004460D4616461F46DDF88C
:104E700038800020059081463848006818B13748CE
:104E800006B0BDE8F087FEF761F98246344800902D
:104E90000CB1012000E000200146324B32A2504606
:104EA000FEF71BF9FEF752F982462D480090606824
:104EB00008B1012000E0002001462A4B33A25046F1
:104EC000FEF70BF9FEF742F9824625480090A068EC
:104ED00008B1012000E000200146224B34A25046D8
:104EE000FEF7FBF83B483C493C4A3D4BCDE90032DC
:104EF000CDE902103B4B3C4A3146284600F01CFFEE
:104F00001649086060684860A06888600846C76005
:104F1000C0F81080606801F031FB01F081FB20686F
:104F200010B1206802F06CF80C49886805A905F0FA
:104F3000DFFB059850B1FEF779FC8246059882B2F6
:104F4000012308215046FEF77BFC8146034988680F
:104F5000494605F03BFA014892E70000880300202B
:104F6000D00D0308D40E0308656F6D5F7379735F0E
:104F7000496E697469616C69736528293A204E55D8
:104F80004C4C20737973636667000000656F6D5F3A
:104F90007379735F496E697469616C6973652829F7
:104FA0003A204E554C4C2068616C636667000000E7
:104FB000656F6D5F7379735F496E697469616C6960
:104FC000736528293A204E554C4C206F73616C63F1
:104FD00066670000E96F0208F9AE02081DB002081A
:104FE000F5AE0208ABDC020859E70208F8B5044642
:104FF0000D46FEF7ABF80646074800900CB10120BD
:1050000000E000200146054B05A23046FEF765F89A
:10501000284609F0A1FBF8BDD00D0308D40E030803
:10502000656F6D5F7379735F537461727428293A89
:10503000204E554C4C2068616E646C650000000089
:105040002DE9F04F87B080460E4615469A46DDE9B9
:1050500010B9129F0024FEF779F80690B748009027
:10506000BBF1000F01D0012000E000200146B44B4D
:10507000B4A20698FEF731F8FEF768F80690AF483C
:1050800000900DB1012000E000200146AC4BB4A21D
:105090000698FEF722F8FEF7C9FB0123242204211B
:1050A0000690FEF7CDFB044600F03CFF206013980D
:1050B0002062B8F1060F73D2DFE808F0031E3955FD
:1050C0008BD10020A074AD4860610020A061E06138
:1050D0002074A060E060AA48002102910391CDE90C
:1050E00004100846A749CDE90010A74B5A4651467F
:1050F000206800F049FFD7E00120A074A348606158
:10510000A7610020E0612074A060E0609C4800215D
:1051100002910391CDE9041008469A49CDE90010A7
:10512000994B5A465146206800F02EFFBCE0022001
:10513000A07497486061A761C4F81C900020207497
:10514000A060E0608E48002102910391CDE9041037
:1051500008468C49CDE900108B4B5A4651462068D1
:1051600000F012FFA0E00320A0748A486061A761EC
:105170000020E061B9F1000F01D1012000E04846B4
:105180002074207C05F05CFCA0600020E060FDF74E
:10519000DDFF069080480090A06810B1012001E07A
:1051A00076E000200146664B7CA20698FDF795FF4D
:1051B00073480021854BCDE90231CDE904108448C4
:1051C000CDE900100B465A465146206800F0DCFE3F
:1051D0006AE00420A0747F486061A7610020E0615C
:1051E000B9F1000F01D1012000E048462074207C75
:1051F00005F026FCA060207C05F022FCE060FDF7B5
:10520000A5FF069064480090A06808B1012000E066
:10521000002001464A4B70A20698FDF75EFFFDF79D
:1052200095FF06905C480090E06808B1012000E01E
:1052300000200146424B74A20698FDF74EFF5048ED
:105240007E497F4A0023CDE9023200930193CDE9E4
:1052500004105A465146206800F096FE24E00520CE
:10526000A07478486061A7610020E0612074A060AC
:10527000E0604348002102910391CDE904100091C0
:1052800001910B465A465146206800F07DFE0BE026
:10529000FDF75CFF06902948294B6BA20421009082
:1052A0000698FDF72DFF00BF00BFFB2E03DA022E8C
:1052B00001DD667405E0022E01DA022000E0FB2029
:1052C0006074E81DC11700EB5171C1F3CF054FF6B3
:1052D000FF7000EAC505149858B1627C2B46214640
:1052E000149805F0FBFE60602146606805F0B6FE8C
:1052F0000AE0627C2B462146606905F0EFFE6060A3
:105300002146606805F0AAFEFDF720FF06902248BE
:105310000090606808B1012000E000200146084BC1
:1053200052A20698FDF7D9FE5B480078401C5A4906
:105330000870204607B0BDE8F08F0000D00D0308CC
:10534000880E0308656F6D5F7461736B5F4E6577E0
:1053500028293A204E554C4C2072756E5F666E00BF
:10536000656F6D5F7461736B5F4E657728293A20B6
:105370003020737461636B73697A6500A5E9020874
:105380002BE8020891E90208ADE80208BBE7020831
:1053900075E70208C1E80208F00D0308656F6D5F4C
:1053A0007461736B5F4E657728293A206F73616C67
:1053B000206769766573204E554C4C206D2D6D65C8
:1053C0007373616765717565756500006BE9020847
:1053D0008DE80208E5E70208656F6D5F7461736B25
:1053E0005F4E657728293A206F73616C2067697674
:1053F0006573204E554C4C2063622D6D657373614F
:105400006765717565756500656F6D5F7461736B58
:105410005F4E657728293A206F73616C2067697643
:105420006573204E554C4C2063622D617267756D1B
:10543000656E747175657565000000001FE90208EE
:1054400043E80208F3E80208656F6D5F7461736BEF
:105450005F4E657728293A20756E737570706F728C
:10546000746564207479706500000000656F6D5F7D
:105470007461736B5F4E657728293A206F73616C96
:10548000206769766573204E554C4C206F73616CB4
:105490007461736B00000000D000002070B50446FA
:1054A0000D462946204600F00FFE70BD10B504469B
:1054B00014B120466169884710BD70B504460D4699
:1054C0002946204600F0B2FD70BD70B504460D4679
:1054D0002946204600F0BCFD70BD000030B587B005
:1054E00004462D48006810B12B4807B030BD04B900
:1054F0002A4CFDF72BFE054629480090207908B17B
:10550000012000E000200146264B27A22846FDF797
:10551000E4FDFDF71BFE054621480090608808B1B8
:10552000012000E0002001461E4B2BA22846FDF77B
:10553000D4FDFDF70BFE054619480090207808B110
:10554000012000E000200146164B2DA22846FDF761
:10555000C4FDFFF719FC0546334B344A344900902B
:10556000344800F00DFE0C49086033A03549002294
:10557000354B1B68CDE90232CDE90410207933495F
:10558000CDE900106288217800230320FFF758FD41
:10559000014948600846A8E7DC000020E20E030845
:1055A000D00D0308E80E0308656F6D5F74696D65C3
:1055B000726D616E5F496E697469616C69736528AB
:1055C000293A2030206D6573736167657175657563
:1055D0006573697A65000000656F6D5F74696D655C
:1055E000726D616E5F496E697469616C697365287B
:1055F000293A203020737461636B73697A65000007
:10560000656F6D5F74696D65726D616E5F496E691E
:105610007469616C69736528293A20302070726959
:105620006F72697479000000E5EB020855EA020820
:10563000E9EA020855EB020874696D65726D616EE6
:1056400000000000F7030308780D030825EC0208AA
:105650000348006808B9002070470148FCE70000D3
:10566000C8000020014609B9002070474868FCE7DF
:10567000F8B504460D461448006808B11248F8BD54
:10568000FDF764FD0646114800900CB1012000E0D2
:10569000002001460E4B0FA23046FDF71EFDFDF720
:1056A00055FD0646094800900DB1012000E000209C
:1056B0000146074B14A23046FDF70FFD0248046077
:1056C000456000BFDBE70000C8000020D00D0308E4
:1056D000490E0308656F765F63616C6C6261636B92
:1056E0006D616E5F6869645F496E697469616C6958
:1056F000736528293A204E554C4C206578656375B2
:1057000074655F666E000000656F765F63616C6C48
:105710006261636B6D616E5F6869645F496E697435
:1057200069616C69736528293A204E554C4C207488
:1057300061736B002DE9F04105460E462846FDF7E2
:105740009DFB070002D1801EBDE8F081BC68314698
:105750002846A047F8E770B505462846FDF78EFBBA
:10576000060001D1801E70BD34682846A047FAE7C4
:105770002DE9F84304460D4616461F46DDF8208005
:105780002D48006810B12C48BDE8F883FDF7DEFC19
:1057900081462A4800900CB1012000E0002001461B
:1057A000274B28A24846FDF798FCFDF7CFFC814621
:1057B000224800900DB1012000E000200146204B5E
:1057C0002CA24846FDF789FCFDF7C0FC81461B482A
:1057D00000900EB1012000E000200146184B31A2DC
:1057E0004846FDF77AFCFDF7B1FC8146134800906E
:1057F0000FB1012000E000200146114B34A24846C1
:10580000FDF76BFCFDF7A2FC81460C480090B8F157
:10581000000F01D0012000E000200146084B37A214
:105820004846FDF75AFC0448046045608660C7603E
:10583000C0F8108000BFA7E7E0040020D00D0308E7
:10584000900F0308656F765F656E765F6869645FC9
:10585000496E697469616C69736528293A204E55EF
:105860004C4C20736861726564646174615F737924
:105870006E630000656F765F656E765F6869645F72
:10588000496E697469616C69736528293A204E55BF
:105890004C4C2070726F635F6F66667365745F67F0
:1058A00065740000656F765F656E765F6869645F3A
:1058B000496E697469616C69736528293A204E558F
:1058C0004C4C2069706E65745F6765740000000061
:1058D000656F765F656E765F6869645F496E69744F
:1058E00069616C69736528293A204E554C4C2063D8
:1058F000616E6E65745F676574000000656F765F4A
:10590000656E765F6869645F496E697469616C6928
:10591000736528293A204E554C4C206570726F6390
:105920005F6765740000000010B5044614B96FF09D
:10593000010010BD012084F82000012221462046EC
:1059400000F002F80020F4E72DE9F04104460E468D
:1059500017461CB96FF00100BDE8F081A56815B9C4
:105960004FF0FF30F8E73A4631462046A847F3E7C4
:1059700070B504460D4604B115B96FF0010070BD55
:10598000266829462046B047F9E70000034800682A
:1059900008B9002070470148FCE7000044010020DE
:1059A0002DE9F04104460E4617461CB96FF0010080
:1059B000BDE8F081E5683A4631462046A847F7E75A
:1059C0002DE9F04104460E4617461CB96FF0010060
:1059D000BDE8F081256915B94FF0FF30F8E73A4688
:1059E00031462046A847F3E72DE9FC5F04460E4602
:1059F00015461F46DDE90D8ADDF830902D48006818
:105A000010B12C48BDE8FC9F3CB9FDF79FFB8346D5
:105A1000294B2A4A2AA1FDF79DFBFDF797FB8346F8
:105A2000254800900DB1012000E000200146234BE5
:105A30002EA25846FDF751FBFDF788FB83461E4812
:105A400000900DB1012000E0002001461B4B32A266
:105A50005846FDF742FBFDF779FB83461648009058
:105A6000B8F1000F01D0012000E000200146134BE7
:105A700034A25846FDF731FB0E4805604760C0F878
:105A80000890C0F80C80C0F810A00CB9002008E005
:105A90000020009003460246214601900420FDF7B5
:105AA000C9FD044988610846C661012081F82000CB
:105AB0000846A7E744010020D00D0308610F030842
:105AC000656F765F69706E65745F6869645F496E63
:105AD000697469616C69736528293A2030206D61A9
