:020000040000fa
:020000040002f8
:1098000000030000000000009c0200001e05000094
:10981000c0000000800000000000000000350000d3
:10982000c50000000000000000000000007d0000f6
:109830000000000000000000000000000000000028
:109840000000000000000000000000000000000018
:109850000000000000000000000000000000000008
:1098600000000000000000000000000000000000f8
:020000040000fa
:080000000002040000000000f2
:020000040000fa
:100400006fd32100ce6924000e0188000000000097
:100410000c00070000c72200010020001f00070099
:10042000000020000000e000020032000000020096
:1004300000000000ce170200000000000040da00bb
:100440000000fe004440a900001020000000e00071
:100450000300320000002000a00188004440a800f2
:1004600000000600f03fb1000180b1000600350039
:10047000ee03090000000000403fb1000180b10020
:10048000fbff3d001000b000203fb000020035002f
:1004900000800900000000000000060091018800b3
:1004a000800078000000eb0015003700e28040007b
:1004b00032a0b4009101ba00e280400032a0b40042
:1004c0009102ba00e280400032a0b4000002eb00ca
:1004d000472bde00f507b200602ce10004003a0073
:1004e0000059eb008301e900fdff3e0004003700e6
:1004f0006128e100010032000082eb0004000700e7
:100500001101ba000200e000e8ff3a000000060016
:100510003159ba008301e9000c0032002159ba00b8
:100520008301e900080032000400e00003003a0003
:10053000e280400032a0b400f5ff370011d9ba00c4
:100540008301e900faff3a008100e800e180400001
:1005500032a0b400000006002420040000000000c7
:100560003200f800910188008002780062004000ab
:10057000e08048003549ba003204e0000410a700ca
:10058000100032008301e9000e0032002549ba0054
:100590003204e0000410a7000a0032008301e900e1
:1005a000080032000408a300eeff320015c9ba00ab
:1005b0003204e0000410a700020032008301e900c9
:1005c000e8ff3a003200f900000006003200f800af
:1005d000023b8800910188000008bb000500fc0078
:1005e00051052000313b8800a10a2000313b8800e2
:1005f00061e7a80000000000000000003200f900e0
:10060000000006000400a100010037000400a00063
:100610003200f8009101880011002400013b88009d
:10062000f10f20003208bb000400a700b2007800e0
:100630000198bb008301e900faff3a00680151000c
:100640000400a70068015100680050001208bb00b8
:10065000e2ff3700f30f20003200f800910188001c
:1006600031002400013b88000208bb000388bb0066
:10067000daff37003200f800003b8800d7ff370070
:10068000889fbe008a9fbe00010578000100e0003f
:100690000400350008003c000000e00020003200ab
:1006a0000500370060001000e080180002003b00e9
:1006b00001f02c001a0037000004be006011b800e1
:1006c0006b0920000982cf00020039000882cf00a8
:1006d0000441b000694252000e00320008003b00a5
:1006e00082817100610164008904d1000884d30013
:1006f0008b05e8000442e800f9ff3a0005003700e6
:100700000804440089844c008b05e9000442e90098
:10071000fbff3a00d60007000af0a70001f0a00096
:100720004f05be004f04be0000000600889fbe00bb
:100730008a9fbe008c1f7800f3000700fa00330088
:1007400003866c006450e1002e0032006420e1005a
:10075000330032006150e1002f0032006120e100df
:100760003100320085855500eb07b00009002000fc
:1007700008042000050037000804440089844c0068
:100780000a0031000603430087834b000001530039
:1007900081815b00f8ff33000203be000800a00067
:1007a0000804440089844c00f6ff3900c639dd0096
:1007b0008301730001003200130020008904d1007e
:1007c0000884d3000998a300050032000800a700a0
:1007d0000300a0008904d1000884d3008b05e80041
:1007e0008904d1000884d3000001eb000281d2000b
:1007f0009f00070001f0a1000cf0a70001f0a0008d
:10080000d20037006420e100d40032000801be00ad
:100810000200be00f7ff37006120e100cf00320088
:100820006000b800f3ff37000000200001f8270047
:10083000f0ff37000001be00cb0007000470a700e6
:1008400003f0a10003f8a30013003a006509b1000a
:1008500010003200090035006928e100020035006f
:1008600001002800000005000000400081804800d1
:100870008502e900fcff3a0000000600f88f420004
:10088000050035008100d1000080d3008502e8001a
:10089000fcff3a00000006008000eb0000000500ad
:1008a000839f68000100e00002003d00600010002e
:1008b000e08018000300e00002003d00600111002c
:1008c000e0811900050007004f00e00002003b0036
:1008d00060001000e0801800000006006022b800f0
:1008e000060220000000d0008180d2000482d200e5
:1008f0008582d2000000a0000202520083825a00ca
:10090000030031000202420083824a000000a1007d
:100910000603e900f3ff3a0000000600889fbe00ce
:100920008a9fbe008c1f7800770007007e0033008e
:1009300003866c006450e100240032006420e10072
:10094000270032006150e100220032006120e10006
:10095000210032008b854200eb07b1000134b80062
:10096000003ab8000804420089844a00013ab800fd
:100970000030b8008880400009014a0004003300bc
:100980000000400081804800020149008b05e90019
:10099000c909dd008301700001003200130020004e
:1009a000c814de004814dd004709de001200b20062
:1009b000c808de00088470002d00070001f0a100c7
:1009c0000cf0a70001f0a000600037006120e100fa
:1009d000620032000801be000200be00f7ff3700cf
:1009e0006150e100fcff3a005c0037000001be00ee
:1009f0005d0007000470a70003f0a1006509b100c5
:100a0000160032000d0035006828e10006003500b0
:100a1000f0ff2f00f1ff27000300e00013003b0070
:100a2000010028000000050000004000818048000f
:100a30008502e900fcff3a0008003700f88f420009
:100a400002003c008000eb00000005008100d100a6
:100a50000080d3008502e800fcff3a000300e000bc
:100a600002003b0060001000e0801800000006005b
:100a700081002000618055000b003d000b0020002c
:100a800061fe2f000100e1001d0034008281710031
:100a9000610164008904d1000884d3000000e800eb
:100aa000faff3a007100200061006400030070004a
:100ab000020060000900320061044400e0844c0040
:100ac0000988a500050032008b05e8006808e100f0
:100ad00002003a008904d1000884d300f20f2000fc
:100ae0000258e10005003d00c75ddd00f907b200d6
:100af0008980750008007800000006000bf82700c8
:100b00008b007800000005000004be0016000700fe
:100b10000003be000405be000200be001200070074
:100b2000844f7500000006000200be006450e10022
:100b3000050036006420e100020036000968a300c9
:100b400001003a000800be000160a0004f067800d6
:100b50004f05be004f04be0000000600f0ff2f004e
:100b6000f1ff2700f9ff3700c70ade00f107b200e6
:100b7000f50fb20008003200e1cf4200020032005f
:100b80000170a00024000500810f700001003200f8
:100b90000408050044000500810f700002003a00bf
:100ba000140005008502e9000000400081c04800f3
:100bb000fcff3b000170a00024000500889fbe00e0
:100bc0008a9fbe004400f800080f20002802880019
:100bd0003400f800811f78002305900008f02f00f2
:100be0000a40e10004003200280280004800b300ff
:100bf00028028800aa01880003029000d304900014
:100c00000000e900008008001500000013049000b7
:100c100033059000c305900032037800b8027800d5
:100c20009a00ca00048008000a0000005210c400a4
:100c30009b80ca008707cd005290c4005290c50027
:100c4000ba87cd005390c4008607cd009a00ca0031
:100c50005290c500bb87cd000600ca000900c8003d
:100c60003100cd004f0078003400f9004400f90055
:100c70004f05be004f04be0000000600b00090000b
:100c8000400190000000900000800800010000007a
:100c90008018eb000019eb0000000600101288001d
:100ca0002112880002128800000006000008880057
:100cb000000006000021ef001108880020088800cd
:100cc0000000060030088800000006000621ef0042
:100cd00061088800800888001061a90000000600f3
:100ce00050088800000006000a21ef007108880003
:100cf0009008880000000600a00888000000060098
:100d00001421ef00d1088800f00888001e61a900b6
:100d1000000006009540a90041e2a9008540a90015
:100d2000000006008001eb000200370061f079004e
:100d30008301e800828f5100fcff3a0000000600aa
:100d40008001eb0002003700817178008301e80028
:0c0d5000828f5100fcff3a0000000600fa
:020000040000fa
:0200000401f009
:04000000ffff0000fe
:020000040000fa
:0200000401f009
:04000400ffff0000fa
:020000040000fa
:0200000401f009
:04000800ffff0000f6
:020000040000fa
:0200000401f009
:04000c0078ff000079
:020000040000fa
:0200000401f009
:0400100078ff000075
:020000040000fa
:0200000401f009
:040014007fff00006a
:020000040000fa
:0200000401f009
:04001800ffff0000e6
:020000040000fa
:0200000401f009
:04001c00ddff000004
:020000040000fa
:10000800ee060000064100000a4100000e41000013
:1000180012410000ee060000ee060000ee060000a9
:10002800ee060000ee060000ee060000fc1e0000d2
:100038001a130000ee060000ee060000264100003c
:10004800dc1a0000ee0600001c390000ee06000075
:10005800ee060000ee0600006a090000ee06000049
:10006800ee060000ee060000ee060000b41c0000dc
:10007800ee060000ee060000ee060000ee060000a8
:10008800cc0a0000ee060000ee060000ec36000088
:10009800ee060000ee060000ee060000ee06000088
:1000a800ee060000ee060000ee06000094090000cf
:1000b800ee060000ee060000ee060000ee06000068
:1000c800ee060000ee060000ee060000ee06000058
:1000d800ee060000ee060000ee060000ee06000048
:1000e800ee060000ee060000ee060000ee06000038
:1000f800ee060000ee060000ee060000ee06000028
:10010800ee060000ee060000ee060000ee06000017
:10011800ee060000ee060000ee0600008039000042
:10012800ee060000ee060000ee060000ee060000f7
:10013800ee060000ee060000ee060000ee060000e7
:10014800ee060000ee060000ee060000ee060000d7
:10015800ee060000ee060000ee060000ee060000c7
:10016800ee060000ee060000ee060000ee060000b7
:10017800ee060000ee060000ee060000ee060000a7
:10018800ee060000ee060000ee060000ee06000097
:10019800ee060000ee060000ee060000ee06000087
:1001a800ee060000ee060000ee060000ee06000077
:1001b800ee060000ee060000ee060000ee06000067
:1001c800ee060000ee060000ee060000ee06000057
:1001d800ee060000ee060000ee060000ee06000047
:1001e800ee060000ee060000ee060000ee06000037
:0801f800ee060000ee06000017
:020000040000fa
:10020800ee060000164100001a4100001e410000e1
:1002180022410000ee060000ee060000ee06000097
:10022800ee060000ee060000ee060000fc1e0000d0
:100238001a130000ee060000ee060000264100003a
:10024800dc1a0000ee0600001c390000ee06000073
:10025800ee060000ee0600006a090000ee06000047
:10026800ee060000ee060000ee060000b41c0000da
:10027800ee060000ee060000ee060000ee060000a6
:10028800cc0a0000ee060000ee060000ec36000086
:10029800ee060000ee060000ee060000ee06000086
:1002a800ee060000ee060000ee06000094090000cd
:1002b800ee060000ee060000ee060000ee06000066
:1002c800ee060000ee060000ee060000ee06000056
:1002d800ee060000ee060000ee060000ee06000046
:1002e800ee060000ee060000ee060000ee06000036
:1002f800ee060000ee060000ee060000ee06000026
:10030800ee060000ee060000ee060000ee06000015
:10031800ee060000ee060000ee0600008039000040
:10032800ee060000ee060000ee060000ee060000f5
:10033800ee060000ee060000ee060000ee060000e5
:10034800ee060000ee060000ee060000ee060000d5
:10035800ee060000ee060000ee060000ee060000c5
:10036800ee060000ee060000ee060000ee060000b5
:10037800ee060000ee060000ee060000ee060000a5
:10038800ee060000ee060000ee060000ee06000095
:10039800ee060000ee060000ee060000ee06000085
:1003a800ee060000ee060000ee060000ee06000075
:1003b800ee060000ee060000ee060000ee06000065
:1003c800ee060000ee060000ee060000ee06000055
:1003d800ee060000ee060000ee060000ee06000045
:1003e800ee060000ee060000ee060000ee06000035
:0803f800ee060000ee06000015
:020000040000fa
:100e000000000000480600008c0c0000c812000022
:100e1000f91800001a1f0000282500001f2b0000f1
:100e2000fc300000ba360000563c0000ce41000005
:100e30001d470000404c000033510000f5550000f4
:100e4000825a0000d75e0000f2620000cf66000008
:100e50006d6a0000ca6d0000e2700000b57300000a
:100e600041760000847800007d7a0000297c000033
:100e70008a7d00009d7e0000627f0000d87f000018
:100e8000ff7f0000d87f0000627f00009d7e000091
:100e90008a7d0000297c00007d7a000084780000b3
:100ea00041760000b5730000e2700000ca6d0000da
:100eb0006d6a0000cf660000f2620000d75e00009d
:100ec000825a0000f555000033510000404c0000ec
:100ed0001d470000ce410000563c0000ba3600001d
:100ee000fc3000001f2b0000282500001a1f000006
:100ef000f9180000c81200008c0c00004806000021
:100f000000000000b8f9000074f3000038ed0000a4
:100f100007e70000e6e00000d8da0000e1d40000b6
:100f200004cf000046c90000aac3000032be000082
:100f3000e3b80000c0b30000cdae00000baa000073
:100f40007ea5000029a100000e9d0000319900003f
:100f500093950000369200001e8f00004b8c00001d
:100f6000bf8900007c87000083850000d7830000d4
:100f700076820000638100009e80000028800000cf
:100f800001800000288000009e8000006381000036
:100f900076820000d7830000838500007c870000f4
:100fa000bf8900004b8c00001e8f000036920000ad
:100fb00093950000319900000e9d000029a10000ca
:100fc0007ea500000baa0000cdae0000c0b300005b
:100fd000e3b8000032be0000aac3000046c900000a
:100fe00004cf0000e1d40000d8da0000e6e0000001
:100ff00007e7000038ed000074f30000b8f90000c6
:020000040000fa
:101000000164a80001ccb300014078001064b7006f
:1010100010c4bf000140600010e4b70080c3b300fb
:101020001264b70012e4a80013c4bf0081cfb3005c
:10103000014060005040b30013e4b70012c4bf0089
:10104000014060000024a00012e4b70012c4a80010
:1010500000000600881f78008a9fbe000104780007
:101060000004a800000040000000400001432000f0
:1010700081024000e10f52000d003200f07f20009d
:101080000200600001002000e10f54001c0032004b
:101090004500dd00800a78000000eb009002980017
:1010a0000004a9004f05be004f04780000000600b0
:1010b0006115b8004098de00cf80de00630060005c
:1010c0006103b8004299de00cf91de00f07f20007e
:1010d0000200600001002000e10f54000d0032000a
:1010e0004500dd00860a40009a0298000004a9002d
:1010f0004f05be004f04780000000600ecff3700eb
:101100004500dd00e80a40000000eb009002980076
:10111000e3ff37004500dd0006004000e80a40001c
:101120009a029800f1ff3700889fbe008a9fbe0098
:10113000000378000204be000405be000004a800fd
:1011400000004000000040000244200082034000f4
:1011500042b0de00000040000242200002024000d7
:1011600043b0de00000040008241200082024000c7
:10117000e18f50001c0032004540dd00800b7800fc
:10118000f07f20000100200091039800e30063003d
:10119000c208dd00f00020000100dd000080ea0050
:1011a000140060008150dd00010a7000e700630058
:1011b00081804000300020000100dd000080ea0056
:1011c000150060008158dd00810a700010002000c9
:1011d0000600dd001424b7000004a9004f05be007e
:1011e0004f04be000000060042c9de00cf91de00c1
:1011f0004511dd0040c8de00cf80de0063006000e6
:1012000000014100e80b410098039800e3006300ef
:10121000c208dd00f00020000100dd000080ea00cf
:10122000140060008150dd00010a7000e7006300d7
:1012300081804000300020000100dd000080ea00d5
:10124000150060008158dd00810a70001000200048
:101250000600dd001424b7000004a9004f05be00fd
:101260004f04be0000000600dfff3700e023ef0060
:1012700000022200601c880020442000a01c88007e
:1012800070002000b01c880060042000701c8800e2
:1012900000782000801c88008de3a8000000060074
:1012a000e023ef0000022000c01c88000044200062
:1012b000001d880070002000101d88007b00400089
:1012c000d01c880000702000e01c880099e3a80072
:1012d0000000060085c0a900004006000004a80028
:1012e0000bc4bf000048a30002003a0070a0210018
:1012f0001024a1000bc4bf000038a30002003a0074
:1013000070a021001034a1000bc4bf000008a3008e
:1013100003003a0071a02100f0ccb30091486000b6
:101320000004a900000006003600f800809fbe00ff
:10133000829fbe00849fbe00869fbe00881f7800eb
:101340008860a9000004a8000bc4bf000058a300d7
:101350000200320010002000f0de88000bc4bf0045
:101360000004eb000048a3000500320070a021003b
:101370001024a00090a021001004a000180020005c
:101380000bc4bf000038a3000400320070a021008d
:101390001034a00090a021001014a0000bc4bf00c6
:1013a0000008a3000500320090a021001034a00026
:1013b00071a0210000c3b30091487000f00020002c
:1013c000502088000004a900f0de8000e10f5000ea
:1013d000120032000800e00007003a004f047800d5
:1013e0004f03be004f02be004f01be004f00be00c3
:1013f0003600f90000400600a51707004f047800ea
:101400004f03be004f02be004f01be004f00be00a2
:101410003600f90000400600f7ff37009c17070070
:101420000800e000edff3200f3ff3700881f78006e
:10143000800278000203be00814178000404780035
:10144000e00f5300e08f5b00240035004631de00e2
:101450004230dd0095407800e3ca6000954a700094
:101460007f4161001540900001ceb3000140600053
:101470000240700090429800554290006342620022
:10148000d44298000040eb00a04298003540900004
:1014900001cfb30001406000b04298001514a100d4
:1014a0001504a1000414a100d44298006fc161008a
:1014b0004540900001cfb300014060000240700041
:1014c000c0429800668042000381fb0088007800db
:1014d00014fe07004f04780000000600c230dd0053
:1014e000504290006340620001427000d442980074
:1014f0004a39dd004630de0000007100c638de00eb
:101500004801de00a04298006f4161003540900024
:1015100001cfb3000140600002407000b04298006b
:101520004238de00010020004601de004200dd00fe
:1015300095407800e3ca6000954a70007f416100e1
:101540001540900001ceb3000140600002407000e1
:10155000904298001514a0001504a0000414a100e6
:10156000d44298006fc161004540900001cfb300a4
:101570000140600002407000c04298006680420056
:101580000381fb0088007800e6fd07004f04780027
:1015900000000600d1ff37003600f800809fbe0033
:1015a000829fbe00849fbe00869fbe00889fbe00b3
:1015b0008a9fbe008c9fbe008e1f7800ea8747007e
:1015c0008700a9008006eb009ea021008d06e800a0
:1015d000e68f56004000320008c4bf00800078004b
:1015e000f103b200100020000106dd00022180009e
:1015f0000c006100590032004408dd000170240035
:101600000104400048409000ef046000e88f54005f
:10161000020034001e44a0008900200089027800e6
:101620001842780061406200360032005841900054
:101630000281fb004211de000281fb00030020005a
:1016400003f0a000284290000482fb003840900084
:101650006f0060004800dd00040070000100200001
:10166000460add00ca00de00810072004600dd008f
:1016700000017100818171001882fb004222de00ae
:10168000184090007f0060004600dd0004007000fc
:1016900001002000c200dd000000200000057100f4
:1016a00081857100e60044000501780068805700dc
:1016b0009cfd07000c80ea00002188005840900043
:1016c0000018a3001f0032001e24a0008d06e800b1
:1016d000e68f5600c0ff3a00af00b1004f07780018
:1016e0004f06be004f05be004f04be004f03be00b4
:1016f0004f02be004f01be004f00be003600f90091
:10170000004006009880fb00c208de0018409000f0
:101710007f0060004600dd00010070006105b80038
:10172000e600440005017800688057007dfd070051
:101730000c80ea0000218800584090000018a300a7
:10174000e1ff3a00e8815700094178000a00be0035
:10175000f4e88000040001009cff3700e58f56008c
:10176000ddff3a0070a021001004a000af00b1001e
:101770004f0778004f06be004f05be004f04be0065
:101780004f03be004f02be004f01be004f00be001f
:101790003600f90000400600daff3700889fbe00df
:1017a0008a9fbe008c9fbe00804678000204be0067
:1017b00001457800864578000004a8000086fb00fb
:1017c0000c0046000000400001432000810340005f
:1017d0000783e8000b04e000490032004219de00f4
:1017e000030020004511dd004048de00010020001c
:1017f0006300600000014100e80b4100080b780025
:101800000004a9000004a8000a84fb0008004400aa
:101810000000400001442000810340008784e8006c
:101820000b04e000320032004229de0003002000f9
:101830004511dd004028de0001002000630060004b
:1018400000014100e80b4100840c7800e34f550093
:101850001b003e0002422000834120006300640020
:101860004200dd00f10020008008dd000180ea0078
:101870001200600000897000e2cf560008003e00b0
:10188000e700640081804000300020000100dd009e
:101890000080ea00130060008160dd0081097000b3
:1018a000100020000800dd001424b7000004a90087
:1018b0004f06be004f05be004f04be0000000600ec
:1018c00064405500e34f5000110036006840550059
:1018d000e34f5000110036006c405500e34f5000bc
:1018e000deff3e0062422000a3412000dbff370004
:1018f0004520dd00800b7800800ceb00d3ff370023
:101900004510dd00e80b4000000beb00bcff37008a
:101910002242200083412000d0ff370042422000b5
:10192000a3412000cdff3700f0e8880001c4bf00cc
:1019300081cfb300014060000024a00001e4b700a3
:1019400002ceb30001c8b30000c4bf000240600073
:10195000814f5000fcff3a000164a80001ccb300a5
:10196000014078001064b70010c4bf00014060005f
:1019700010e4b70080c3b3001264b70012e4a800fb
:1019800013c4bf0081cfb300014060005040b300da
:1019900013e4b70012c4bf00014060000024a0009f
:1019a00012e4b70012c4a800f00020005020880004
:1019b0000004a9000000060001c4bf0081cfb300ed
:1019c0000140600001e4b70002ceb30000c4bf00d4
:1019d00002406000fdff3a0030e4a80031e4a800b6
:1019e00032e4a80033e4a80034e4a90035e4a900f7
:1019f00036e4a90037e4a90030c4bf00c1cfb3006a
:101a00000140600030e4b70031c4bf000140600015
:101a100031e4b70032c4bf000140600032e4b700d7
:101a200033c4bf000140600033e4b70006c4bf0008
:101a3000024060000024a00006e4b70007c4bf0015
:101a40007f4060000064a00007e4b7000ca4a80079
:101a50009860a8009700a800e023ef000002220091
:101a6000601c880020442000a01c88007100200019
:101a7000b11c880060042000701c880000782000e1
:101a8000801c88008de3a800e023ef000002200006
:101a9000c01c880000442000001d8800111d880023
:101aa00020022000d01c880000702000e01c88006c
:101ab00099e3a800000006000400fa00889fbe0019
:101ac0008a9fbe008c1f78000004be000205be0085
:101ad0003ce880000080eb00ef0f56004c003e0019
:101ae000f2ff2f00f3ff29000b80610080027800d5
:101af0000a0278000403be008980610008007800b3
:101b00000002be0039002000820f5300838f5b006b
:101b10001400320088d02100984178000381fb0036
:101b20004240a9003f003400a0d02100b00f530074
:101b3000a08f5b008e0032000000eb00e1d021009e
:101b40000000e800800f510036003200b10f530052
:101b5000b18f5b00faff3a00e10f40003100320024
:101b6000800478000c00e80030e888000004a80039
:101b70000c0046000000400001442000010340002a
:101b800042e0de00000040000142200081034000ee
:101b900043e0de00000040008141200001044000dd
:101ba000e00f5200e08f5a00530035004520dd0061
:101bb000000b7800f07f2000010020001103980046
:101bc000630066004200dd00f10020008008dd00b7
:101bd0000180ea0017006000810b7000e7006600da
:101be00081804000300020000100dd000080ea001c
:101bf000180060008148dd00010c7000100020001a
:101c00000c00dd001424b7000004a9000000eb0064
:101c10004f0678004f05be004f04be000080fa005a
:101c200000000600e0ff2f00e3cf5100f8ff320074
:101c30004210dd00a1d02100010040000688be0056
:101c40000340e800004c78000084fb00cf3bde003e
:101c5000f0ff21000b006000800078000a0078008f
:101c60000001be000004a80008004400000040007d
:101c70000143200001034000e00f5200e08f5a00b2
:101c800042003500f07f20000200600001002000cb
:101c9000e18f5300380032004500dd00000b780072
:101ca0000000eb00100398000004a90088047800ed
:101cb0000c00e80030e888000004a8000c00460092
:101cc00000004000014420000103400042e0de002b
:101cd00000004000014220008103400043e0de009c
:101ce000000040008141200001044000e00f52004c
:101cf000e08f5a00adff3d0042a9de00cf91de002b
:101d00004511dd0040a8de00cf80de0063006000ea
:101d100000014100680b4100140398006300660055
:101d20004200dd00f10020008008dd000180ea00b3
:101d300017006000810b7000e700660081804000a2
:101d4000300020000100dd000080ea001800600083
:101d50008148dd00010c7000100020000c00dd0047
:101d60001424b7000004a9000000eb00a8ff37000e
:101d70008004eb007bff37004500dd00680b40006e
:101d80000000eb0010039800c7ff37006110b80097
:101d900090bf9f00a1bf9f004098de00cf80de0073
:101da000630060006105b8004299de00cf91de005b
:101db000f07f20000200600001002000e18f53004e
:101dc000070032004500dd000a0b40009fb8970075
:101dd000110398000004a90088047800b4ff3700bc
:101de0004500dd000a004000680b40009fb89700e6
:101df00011039800f7ff3700889fbe000002be0065
:101e0000024478008304780030c4bf000038a30087
:101e10000300320031c4bf000038a300a8003a001c
:101e200030c4bf00e84360005100320031c4bf003d
:101e3000e8436000ad003a0003792400e00f52004f
:101e4000e08f5a00560135004621de004220dd00b9
:101e500093407800e3c96000934970007f416100be
:101e60001340900001ceb3000140600002407000ba
:101e7000904198005343900063436300d64198001b
:101e8000a74198003340900001cfb30001406000ab
:101e9000b04198001314a1001304a1000614a1007e
:101ea000d64198006f4164004340900001cfb300d9
:101eb0000140600002407000c04198000881fb00b2
:101ec000890078006079240096fb070080d121000a
:101ed0000008eb00b1e88000e28f500007003c00f2
:101ee000a2d1210023002000928f110003003c00aa
:101ef000c4d12100948f11006b013400e3c0600055
:101f000030c4bf00c2cfb300024060000140700087
:101f100030e4b700c1e88000e3c0600031c4bf0016
:101f2000024060000140700031e4b700d1e8800059
:101f3000e3c0600032c4bf00024060000140700096
:101f400032e4b700e1e88000e3c0600033c4bf00c2
:101f5000024060000140700033e4b7003164a80023
:101f60008000eb00010078004f04be000000060076
:101f700003782400e00f5200e08f5a002901350059
:101f80004621de004220dd0093407800e3c9600076
:101f9000934970007f4161001340900001ceb3006f
:101fa000014060000240700090419800534390004f
:101fb00063436300d6419800a741980033409000e6
:101fc00001cfb30001406000b04198001314a1009c
:101fd0001304a1000614a100d64198006f416400cb
:101fe0004340900001cfb300014060000240700008
:101ff000c04198000881fb008900780060782400c7
:1020000048fb070060d121000008eb00c3e8800016
:10201000e28f51000d003c00a2d1210020002000e1
:10202000920f100009003c00c4d12100940f100051
:1020300006003c008301e800c3e888001200e800c5
:10204000d0e888001400e800e0e88800b1e88000eb
:10205000e3c0600030c4bf00c2cfb30002406000e4
:102060000140700030e4b700e3c0610031c4bf003c
:10207000024060000140700031e4b700d1e8800008
:10208000e3c0600032c4bf00024060000140700045
:1020900032e4b700e1e88000e3c0600033c4bf0071
:1020a000024060000140700033e4b7003064a800d3
:1020b000000020004f04be0000000600acff370007
:1020c00032c4bf000038a30055ff320033c4bf0044
:1020d0008080eb000038a300a2ff3a0030c4bf00ac
:1020e000e843600051ff3a00a1ff370032c4bf004f
:1020f000e843600056003200037b2400e00f5200ea
:10210000e08f5a00090135004621de004220dd0043
:1021100093407800e3c96000934970007f416100fb
:102120001340900001ceb3000140600002407000f7
:10213000904198005343900063436300d641980058
:102140000040eb00a04198003340900001cfb30065
:1021500001406000b04198001314a1001304a100d5
:102160000614a100d64198006f41640043409000de
:1021700001cfb3000140600002407000c0419800f0
:102180000881fb0089007800607b2400e5fa0700e5
:10219000c4d12100000aeb00b1e88000e28f5000ba
:1021a0000e003c0080d1210022002000900f110081
:1021b0000a003c00a2d1210023002000928f1100d0
:1021c00006003c008100e800b1e888001000e8004b
:1021d000c0e888001200e800d0e88800e3c0600092
:1021e00030c4bf00c2cfb3000240600001407000a5
:1021f00030e4b700c1e88000e3c0600031c4bf0034
:10220000024060000140700031e4b700d1e8800076
:10221000e3c0600032c4bf000240600001407000b3
:1022200032e4b700e1e88000e3c0600033c4bf00df
:10223000024060000140700033e4b7003364a8003e
:10224000000020004f04be000000060048ff3700d9
:10225000037a2400e00f5200e08f5a00d4003500ca
:102260004621de004220dd0093407800e3c9600093
:10227000934970007f4161001340900001ceb3008c
:10228000014060000240700090419800534390006c
:1022900063436300d6419800a74198003340900003
:1022a00001cfb30001406000b04198001314a100b9
:1022b0001304a1000614a100d64198006f416400e8
:1022c0004340900001cfb300014060000240700025
:1022d000c04198000881fb0089007800607a2400e2
:1022e00090fa0700a2d121000009eb00b1e88000bc
:1022f000e28f50000d003c0080d121002200200020
:10230000900f110009003c00c4d12100940f11006e
:1023100006003c008100e800b1e888009001e80078
:10232000c3e888001400e800e0e88800e3c060002b
:1023300030c4bf00c2cfb300024060000140700053
:1023400030e4b700c1e88000e3c0600031c4bf00e2
:10235000024060000140700031e4b700d1e8800025
:10236000e3c0600032c4bf00024060000140700062
:1023700032e4b700e1e88000e3c0600033c4bf008e
:10238000024060000140700033e4b7003264a800ee
:10239000000020004f04be0000000600f4fe3700dd
:1023a000c220dd005343900063406300014370008e
:1023b000d64198004a29dd004620de000000710069
:1023c000c628de004801de00a04198006f41610090
:1023d0003340900001cfb300014060000240700024
:1023e000b04198004228de00010020004601de00d6
:1023f0004200dd0093407800e3c96000934970001b
:102400007f4161001340900001ceb30001406000a5
:1024100002407000904198001314a0001304a00023
:102420009efe3700c220dd005343900063406300ee
:1024300001437000d64198004a29dd004620de00a5
:1024400000007100c628de004801de00a0419800af
:102450006f4161003340900001cfb3000140600044
:1024600002407000b04198004228de0001002000c8
:102470004601de004200dd0093407800e3c96000c1
:10248000934970007f4161001340900001ceb3007a
:102490000140600002407000904198001314a000b9
:1024a0001304a000cbfe37008100e800b1e88800eb
:1024b0001200e800d0e888001400e800e0e8880096
:1024c000e3c0600030c4bf00c2cfb3000240600070
:1024d0000140700030e4b700c1e88000e3c0600054
:1024e00031c4bf00024060000140700031e4b70019
:1024f000d1e88000e3c0600032c4bf000240600049
:102500000140700032e4b700e1e88000e3c0600001
:1025100033c4bf00024060000140700033e4b700e4
:102520003164a8008000eb008efe3700c220dd0081
:10253000534390006340630001437000d64198000c
:102540004a29dd004620de0000007100c628de00ba
:102550004801de00a04198006f41610033409000c7
:1025600001cfb3000140600002407000b04198000c
:102570004228de00010020004601de004200dd00ae
:1025800093407800e3c96000934970007f41610087
:102590001340900001ceb300014060000240700083
:1025a000904198001314a0001304a000ecfe370023
:1025b000c220dd005343900063406300014370007c
:1025c000d64198004a29dd004620de000000710057
:1025d000c628de004801de00a04198006f4161007e
:1025e0003340900001cfb300014060000240700012
:1025f000b04198004228de00010020004601de00c4
:102600004200dd0093407800e3c960009349700008
:102610007f4161001340900001ceb3000140600093
:1026200002407000904198001314a0001304a00011
:1026300020ff37003600f800809fbe00829fbe005a
:10264000849fbe00869fbe00400f200020028800ad
:10265000140c070018160700c0a2210010407800d3
:102660000008a3004e00320021e0800020438000db
:10267000810f50000f00320021438800e38f50008b
:1026800039013200e9003400e58f50009e0132002c
:1026900064013500e68f500006003a00601d2000fe
:1026a00000438800801d200010438800a01d2000ea
:1026b000f042880040d180004683de00d007200031
:1026c000800f53009a003c0030f82f00800f530019
:1026d00097003500060178008002eb0031032000ee
:1026e00014032000c201e200a5003d00100e80008e
:1026f00000f0a100840f5000a1003e008100e9001d
:1027000015002000f7ff3a0080a021001074a000ff
:1027100061de8000e00f2000808f500003003e004b
:1027200060de80000000e80060de880011e08000cc
:102730001043800001084300f04280000108780047
:10274000004380000288500020de8000e10f50002e
:102750009700320050cf800000c5880062cf800013
:1027600002004000000141006a11b9004491de00fe
:10277000f2c4880040892100e50f07000000e00056
:1027800074003a008480a9004f03be004f02be00cf
:102790004f01be004f00be003600f90000400600a9
:1027a0000018a3006800320021e080002043800070
:1027b000810f5000ad003200214388000000eb0083
:1027c00090428800a0428800e38f5000060132004a
:1027d000f1003c00e18f50002d013200e28f5000eb
:1027e0003a013200e1428000d542800011007800b9
:1027f000c042880015007800b0428800c0428000c6
:10280000110040000080d100c042880087a2210052
:102810001700100034e78000240190000091b900f7
:10282000c418dd004c11de0002817000cc99de007e
:1028300002037800140178000091b9004818dd0007
:102840004811de0002017000c899de00a04280003d
:1028500002004000a0428800b4009000810f5000a8
:102860009e003c008100ea00810f50009b00350073
:102870004880de0000034300d0072000800f530093
:102880009d003c0030f82f00800f53009a00350067
:10289000b0428000150040000080d100b0428800a6
:1028a00017004000240190000091b900c418dd0019
:1028b0004c11de0002817000cc99de0082027800ab
:1028c000140178000091b9004818dd004811de00bd
:1028d00002017000c899de009042800002004000b2
:1028e00090428800b4009000810f50009b003c0093
:1028f0008100ea00810f5000980035004880de001a
:1029000000814200d0072000800f510003003c00ee
:1029100030f82f00800f51006fff3d00000178005c
:102920008002eb0031032000140320006dff37000c
:1029300000037800000178008002eb0031032000e2
:102940001403200067ff37000003eb000601780046
:1029500061ff370080a021001014a0004c12070076
:102960008480a9004f03be004f02be004f01be008d
:102970004f00be003600f9000040060088ff370017
:102980000500e00062ff3a0011e080001043800083
:1029900001084300f04280000108780000438000f5
:1029a0000288500020de8000e10f500069ff3a00ed
:1029b00070c4800010007800e0c3880060c480000c
:1029c00010007800f0c3880050c480001000780028
:1029d00000c4880040c480001000780010c4880043
:1029e0000000eb0020de8800040d070080c4880092
:1029f000d1c48000b1df880050cf800000c58800be
:102a000062cf800002004000000141006a11b9005d
:102a10004491de00f2c48800408921003c0f070089
:102a20000000e00057ff3200caff3700e18f50007e
:102a3000c1003200e28f50001eff3a00601d2000ee
:102a4000f0428800801d200010438800a01d200057
:102a50000043880040d180004683de00d00720007c
:102a6000800f5300b2ff3c0017ff3700e1428000a7
:102a7000d5428000c0428000110040000080d1009b
:102a8000c042880087a221001700100034e78000b0
:102a9000240190000091b900c418dd004c11de0043
:102aa00002817000cc99de000203780014017800e6
:102ab0000091b9004818dd004811de0002017000e5
:102ac000c899de00a042800002004000a0428800b9
:102ad000b4009000810f500062ff340001007800c4
:102ae000a14288004880de0000034300d007200098
:102af000800f530063ff340000037800b042800071
:102b0000150040000080d100b0428800170040004e
:102b1000240190000091b900c418dd004c11de00c2
:102b200002817000cc99de008202780014017800e6
:102b30000091b9004818dd004811de000201700064
:102b4000c899de0090428000020040009042880058
:102b5000b4009000810f500065ff34000100780040
:102b60009142880065ff3700601d200010438800f7
:102b7000801d2000f0428800a01d20000043880036
:102b800040d180004683de00d0072000800f530034
:102b900067ff3c00ccfe3700e58f50002d0032006f
:102ba00071003500e68f50000eff3a00c19e2100f3
:102bb000e1428800a59e2100d5428800601d2000ca
:102bc00000438800801d200010438800a01d2000c5
:102bd000f042880011007800c0428800150078009b
:102be000b042880005ff3700a19e2100e142880025
:102bf000e59e2100d5428800601d2000104388001a
:102c0000801d2000f0428800a01d200000438800a5
:102c100011007800c042880015007800b04288009a
:102c2000f6fe3700601d200000438800801d200054
:102c3000f0428800a01d20001043880040d1800091
:102c40004683de00d0072000800f530038ff3c0091
:102c50009dfe3700e19e2100e1428800c59e2100d3
:102c6000d5428800601d2000f0428800801d2000b1
:102c700000438800a01d2000104388001100780048
:102c8000c042880015007800b0428800dbfe3700a3
:102c9000a19e2100e1428800c59e2100d542880006
:102ca000601d200010438800801d20000043880024
:102cb000a01d2000f042880011007800c04288006a
:102cc00015007800b0428800ccfe3700c19e21007c
:102cd000e1428800e59e2100d5428800601d200069
:102ce000f0428800801d200010438800a01d2000b5
:102cf0000043880011007800c04288001500780069
:102d0000b0428800bdfe3700601d2000f042880000
:102d1000801d200000438800a01d20001043880073
:102d200040d180004683de00d0072000800f530092
:102d3000fffe3c0064fe3700601d20001043880049
:102d4000801d200000438800a01d2000f042880064
:102d500040d180004683de00d0072000800f530062
:102d6000f3fe3c0058fe3700e19e2100e14288005e
:102d7000a59e2100d5428800601d200000438800e8
:102d8000801d2000f0428800a01d20001043880014
:102d900011007800c042880015007800b042880019
:102da00096fe37000200fa000002eb00230020002c
:102db0000f81e90020002000f10f2000e8f5070056
:102dc00030002300ffb89700808f500002003200cf
:102dd00090a021001054a0000080fa00000006001e
:102de00080a021001034a1000000060080a0210076
:102df0001044a10000000600000006000000eb00e7
:102e000070de880090de8800a0de880030d1880067
:102e100040d1880050d18800000006000000060064
:102e2000b0dd80000040a000b0dd8800000006009a
:102e3000b0dd80000040a100b0dd88000000060089
:102e4000889fbe008040eb0060a021000148780010
:102e500070a021000148780080a02100014878007e
:102e600090a0210001487800c9a22100814c78007f
:102e7000d0a2210001487800e0a22100014878009a
:102e8000f0a2210001487800608620002100200087
:102e900001087800018020004143880001f02f00e4
:102ea00051438800616c240061438800c16b240099
:102eb000714388000004eb00884388006ff7070027
:102ec000408921009c0e0700c8c48800d8c488002f
:102ed000e8c48800db130700b20c0700d30b07001f
:102ee0003109070078df8800da140700c9010700fc
:102ef000d201070004020700470f07001904a000d1
:102f000078de880098de8800a8de880038d1880046
:102f100048d1880058d18800f20107002c0307002f
:102f20004f04be0000000600a41307009500a8008f
:102f3000ae0b07000000eb0070de880090de88001a
:102f4000a0de880030d1880040d1880050d18800b0
:102f50002b0f37000200fa000002eb0023002000d4
:102f60000f81e90020002000f10f20007cf5070010
:102f700030002300ffb89700808f5000020032001d
:102f800090a021001054a00081a0210070ceb300b9
:102f9000914860000080fa0000000600e8874700c2
:102fa000889fbe008a9fbe008c9fbe008e1f780047
:102fb000a701070067030700e60107009660a80065
:102fc0008f010700980107009460a800e311070033
:102fd0009aa0210089a02100abbd2100a8002000fb
:102fe000e8de880096ff07000002eb0023002000c7
:102ff0007481570020002000f10f200058f50700d1
:1030000030002300efb09700808f500001003200a5
:103010001a54a00070ceb300994c60008b100700ca
:103020000000e00002003200800deb00ecff3700f2
:10303000808deb00b0dd80000060a000b0dd880076
:10304000b0dd80000000a100b0dd8800b0dd8000b0
:103050000010a100b0dd8800b0dd80000020a100dc
:10306000b0dd8800e8de880072805700d2110700ca
:103070000000e00004003200e00020000100200019
:10308000f0b79f0081bf9f006fe89700ca0c070050
:1030900089bb21006ca021006da221008ea221001d
:1030a000b0dd80000060a100b0dd8800b0dd8000f0
:1030b0000000a000b0dd8800b0dd80000010a1009d
:1030c000b0dd8800b0dd80000020a100b0dd880008
:1030d000e0012000e0de8800c0dd80000000a100eb
:1030e000c0dd8800c0dd80000010a100c0dd8800c8
:1030f000c0dd80000030a100c0dd88009760a8001e
:103100009940780061c06000fdff32008bbb210058
:10311000b0dd80000060a100b0dd8800b0dd80007f
:103120000000a100b0dd8800b0dd80000010a0002c
:10313000b0dd8800b0dd80000020a100b0dd880097
:1031400060092000e0de8800b0dd80000040a000c3
:10315000b0dd8800c0dd80000010a000c0dd880068
:103160009940780068c0600003003a0099407800f8
:1031700062c06000faff3a009b40780062c06000c5
:10318000760032009c40780063c06000f4ff3a0093
:1031900010168000680460006e003a000138a30039
:1031a000efff3a00b0dd80000060a100b0dd8800d4
:1031b000b0dd80000000a100b0dd8800b0dd80003f
:1031c0000010a100b0dd8800b0dd80000020a0006c
:1031d000b0dd8800e8de88005409070073080700a6
:1031e0003009070014c680006120b80070dd880037
:1031f00081dd880070df800072dd800083dd80006b
:10320000cf80de00c000dd00000020000000410093
:103210008180490070dd880081dd880064dd8800e0
:1032200070dd800081dd800040dd880051dd880098
:1032300070dd800081dd800042dd800053dd800094
:103240000200500010cf880070dd800081dd80001a
:1032500040dd880051dd880068df8800680e0700c7
:1032600094e0a800d90a0700e1a22100914078006b
:1032700062c06000310032009500a900db12070037
:10328000111007008abb21007813070099407800cd
:1032900068c060004f0032009a40780062c0600051
:1032a000f9ff3a00c51207009500a800cf0a0700f1
:1032b0000000eb0070de880090de8800a0de880051
:1032c000800e7800000f780050d188004c0e070067
:1032d00060130700df0f0700b0dd80000060a10071
:1032e000b0dd8800b0dd80000000a000b0dd880007
:1032f000b0dd80000010a100b0dd8800b0dd8000ee
:103300000020a100b0dd8800e0012000e0de8800a0
:10331000c0dd80000000a100c0dd8800c0dd8000ad
:103320000010a100c0dd8800c0dd80000030a100d9
:10333000c0dd88009760a80071ff3700740807009f
:103340009500a900a9120700df0f07008abb210022
:10335000cdff37001d10070081ff3700c0dd800062
:103360000000a100c0dd88003a130700b90f070074
:10337000b0dd80000060a100b0dd8800b0dd80001d
:103380000000a000b0dd8800b0dd80000010a100ca
:10339000b0dd8800b0dd80000020a100b0dd880035
:1033a000e0012000e0de8800c0dd80000000a10018
:1033b000c0dd8800c0dd80000010a100c0dd8800f5
:1033c000c0dd80000030a100c0dd88009760a8004b
:1033d0004bff3700791207009500a800830a070009
:1033e00078de880098de8800a8de8800880e7800e5
:1033f000080f780058d18800010e07001513070048
:10340000940f0700b0dd80000060a100b0dd8800ef
:10341000b0dd80000000a100b0dd8800b0dd8000dc
:103420000010a000b0dd8800b0dd80000020a10009
:10343000b0dd880060092000e0de8800b0dd80009b
:103440000040a000b0dd8800c0dd80000010a000ba
:10345000c0dd880042ff3700903682000000e000a7
:1034600007003a00c0de8000e10f50000b00320080
:10347000c082a8001000200090368a0000000600dc
:10348000b0de8000e10f500009003200c082a800c9
:103490000000eb0090368a0000000600c082a90000
:1034a000c282a8001000200090368a0000000600aa
:1034b000c082a900c282a9000000eb0090368a00f9
:1034c00000000600c0368200d13682006102400052
:1034d000e0824800c4368a00d5368a00a0368200d1
:1034e000b136820061014000e0814800a2368a00c6
:1034f000b3368a00e0de80000000e00020003200e9
:10350000e10f400029003200e0de800001002000d1
:10351000800f5100818f590013003d00d0de8000e4
:103520000000e0001b003200e10f40001c003200f0
:10353000d0de800001002000800f5200818f5a00f1
:10354000080035006000b800c0368a00d1368a0015
:10355000b0de8000e10f50001100320010002000aa
:10356000b0de8800000006006000b800a0368a00c7
:10357000b1368a00c0de8000e10f50000b0032003f
:1035800010002000c0de8800d0de80000000e000d7
:10359000e5ff3a0010002000b0de880000000600c1
:1035a00060bd21000008eb000000060080bd210086
:1035b0000008eb00d9ff37003600f800809fbe00fe
:1035c000829fbe00849fbe00869fbe000000eb006d
:1035d000f0c4880000c58800408921004c0c070019
:1035e000300807008500a9004f03be004f02be004f
:1035f0004f01be004f00be003600f900004006003b
:103600000000eb00a9f5070081bb200090fa2f0015
:10361000a8f537000000eb00aaf5070011272000ed
:10362000d0fa2f00a9f537000000eb00acf5070039
:10363000713e2000d0f82f00abf537000000eb0002
:10364000adf50700d1072000d0fa2f00acf5370008
:1036500043c7bf000047b20003c3b300834f50000d
:103660001f003200e0012000303a880044c7bf004c
:10367000f043b20044e7b70044c7bf0001ceb30037
:103680000140600044e7b70032002000a10920009b
:103690008007200034742000004a7800014a780036
:1036a000024a78001200200071052000600420000a
:1036b00024742000004a7800014a7800024a780009
:1036c0008340780043c7bf000047b200814f5000dd
:1036d000fcff3a0042c7bf000058a300fdff3200c4
:1036e0000000060063a0a8008660a9000000060094
:1036f0008be0a9009be0a800000006009be0a90069
:103700008be0a900000006004580a90044a0a800a5
:1037100044e0a8004480a8004440a9004420a80038
:103720004400a900f1ff2700e1d188000000280033
:1037300000d2880021d28800703e200080d188000d
:1037400072005000c0d1880020012000d0d1880034
:10375000000006008000eb0021058800a5c0bf0026
:10376000f4c8b300044060000044a000a5e0b70026
:1037700031058800a6c0bf0082cfb30002406000c0
:103780006040b300a6e0b700a7c0bf0004406000df
:103790000043b300a7e0b70041058800a9c0bf00ff
:1037a000024060005040b300a9e0b700a8c0bf00cd
:1037b000044060000045b300a8e0b700a8c0bf0007
:1037c000024060005040b300a8e0b70051058800f7
:1037d000abc0bf00024060000024a000abe0b70017
:1037e000aac0bf00044060000046b300aae0b700d2
:1037f0006105880005c7b30005407800ad60b700db
:103800007105880081058800b0c0bf0002406000db
:103810000024a000b0e0b700b1c0bf0004406000c9
:1038200003c4b30003407000b1e0b7009105880005
:10383000a1058800b5c0bf0002406000b5e0b70038
:10384000b5c0bf000440600003407000b5e0b700a1
:10385000b1058800b6c0bf00024060005040b30010
:10386000b6e0b700d105880001068800110688007f
:1038700005407800c360b700210688003106880043
:103880004106880081e0a90000000600c082a9006e
:1038900000000600c4c6bf0001ceb30001406000b6
:1038a0000044a000c4e6b700b4c6bf0001406000f9
:1038b0000014a000b4e6b7000000060000000600f7
:1038c0009cc6bf0001ceb300014060005040b30071
:1038d0009ce6b7009dc6bf00014060006040b30099
:1038e0009de6b7009ec6bf00014060007040b30077
:1038f0009ee6b700000e20002c23b7000000060053
:1039000098c6bf0001ceb300014060000004a000d3
:1039100098e6b700000006002c03a9002c23a9009c
:103920002c43a90000000600c902a900c8c6bf00b8
:1039300001ceb30001406000c8e6b700c862a9002c
:10394000c3c6bf00014060000034a000c3e6b7005a
:10395000a8c6bf00014060009040b300a8e6b700d1
:1039600000000600000006003600f800809fbe0040
:10397000829fbe00849fbe00869fbe008660a90015
:10398000ca42e20010003500c262ab0006003a00f5
:103990004f03be004f02be004f01be004f00be00ed
:1039a0003600f90000400600880e07004f03be00f5
:1039b0004f02be004f01be004f00be003600f900ae
:1039c00000400600f8ff3700cc110700c262ab00d0
:1039d000efff3200f4ff37000804fa00889fbe00b2
:1039e0008a9fbe00f80f200041892100e0a021003d
:1039f00011486400a0c480004800de00f1a021004e
:103a0000804878006189210000a1210011486400ec
:103a1000b0c480004800de0011a121008048780079
:103a200000bf2f000f004000e40440000085e800c4
:103a3000e6054000890178000a01780080007800de
:103a40000b007800f20b070061bf2f006f80780039
:103a500021a12100804878004800de0031a121002a
:103a60008048780040a1210001bf2f00efc07800fe
:103a700008c8600050a1210011bf2f00efc07800de
:103a80000148780021bf2f006f80780061a12100dc
:103a9000804878004800de0071a12100804878004d
:103aa00041bf2f006f80780081a1210080487800fd
:103ab0004800de0091a1210080487800890178004b
:103ac0000a01780001bf2f008f8040000b007800b2
:103ad000ec0b070061bf2f006f807800a1a12100cf
:103ae000804878004800de00b1a1210080487800bd
:103af000c0a1210001bf2f00efc0780008c86000fe
:103b0000d0a1210011bf2f00efc07800014878003c
:103b100021bf2f006f807800e1a12100804878004c
:103b20004800de00f1a121008048780041bf2f004d
:103b30006f80780001a22100804878004800de00f4
:103b400011a2210080487800a3a021000001eb0011
:103b50000200780082007800634078000000fb00db
:103b6000808040000201e80002007800fa0f510056
:103b7000f9ff3a0040a2210001487800c808de00a1
:103b800050a221000148780008c02400190020003c
:103b9000220424000800be008cf2070080bf2f0022
:103ba00000814700a1a021001b00090031597800c5
:103bb000c201b100030420000800be0091f207001a
:103bc0004f05be004f04be000080fa000000060052
:103bd000889fbe008a9fbe008c9fbe008e1f78000b
:103be0000002eb00c3012000a2a0210000c02400bd
:103bf000110020005af20700e0a021009080fb0095
:103c0000f0a021001080fb004800dd0001007000e2
:103c1000a0c4880000a121009080fb0010a1210019
:103c20001080fb004800dd0001007000b0c4880077
:103c300080a121009082fb009ea121009e81fb00bb
:103c4000c819dd006da121001d80fb007ca12100b1
:103c50001c81fb004811dd00000171004ba1210017
:103c60001b80fb005aa121009a80fb00c808dd00e0
:103c70008080700029a121001982fb0038a1210059
:103c80001880fb004800dd00040070008581710091
:103c9000490b070080a121009082fb009e81fb0060
:103ca000c819dd001d80fb001c81fb004811dd00f0
:103cb000000171001b80fb009a80fb00c808dd003a
:103cc000808070001982fb001880fb004800dd0036
:103cd0000400700085817100420b070000a22100e2
:103ce0009082fb0010a221009081fb00c819dd002a
:103cf000e0a121009080fb00f0a121001081fb00d9
:103d00004811dd0001017100c0a121001082fb00fb
:103d1000d0a121009080fb00c808dd0084807000e5
:103d2000a0a121001082fb00b0a121001080fb00a7
:103d30004800dd000400700085817100460b07001b
:103d40004f0778004f06be004f05be004f04be006f
:103d5000000006000001eb00221688008080eb00c6
:103d6000011688006216880041168800c082a900ea
:103d7000103a80000060a100640420007305200058
:103d800025742000844a7800834a7800804a7800ad
:103d900061198800c4c6bf00ffc050000140600028
:103da0000044a000c4e6b700b4c6bf0001406000f4
:103db0000014a000b4e6b70098c6bf000140600040
:103dc0000004a00098e6b7002c03a9002c23a9004a
:103dd0002c43a900103a80000060a000217420004c
:103de000844878008348780080487800020388007f
:103df00012038800000006003600f800809fbe0015
:103e0000829fbe00849fbe00869fbe0033f50700e0
:103e1000c0368200d136820061024000e082480054
:103e2000c4368a00d5368a00a0368200b1368200b8
:103e300061014000e0814800a2368a00b3368a0062
:103e4000e0de80000000e00048003200e10f4000aa
:103e500060003200e0de800001002000800f510091
:103e6000818f59003b003d00d0de80000000e00063
:103e700043003200e10f400053003200d0de8000ea
:103e800001002000800f5200818f5a0048003d0041
:103e9000903682000000e0003e003a00c0de800064
:103ea000e10f500053003200c082a8001000200033
:103eb00090368a0070de80000000e0001e003200b4
:103ec000e2368200f336820061014100e081490060
:103ed000e2368a00f3368a0080de8000010020008e
:103ee000800f5100818f5900130035006000b80029
:103ef000e0368a00f1368a00c0a221001041780025
:103f00000228a3000500320091de800050d180001d
:103f1000810f50003c00320051d188000218a300ec
:103f200005003200a1de800040d18000810f5000ea
:103f30003800320041d188008460a9004f03be00e0
:103f40004f02be004f01be004f00be003600f90018
:103f5000004006006000b800a0368a00b1368a0032
:103f6000c0de8000e10f50001a0032001000200077
:103f7000c0de8800d0de80000000e000bdff3a0017
:103f800010002000b0de8800903682000000e000c3
:103f9000c2ff3200b0de8000e10f5000100032009e
:103fa000c082a8000000eb0090368a00c1ff3700f5
:103fb0006000b800c0368a00d1368a00b0de8000ca
:103fc000e10f5000eeff3a0060bd21000008eb0059
:103fd000afff370080bd21000008eb00a2ff3700d3
:103fe000c082a900c282a9000000eb0090368a00be
:103ff000b0ff3700c082a900c282a80010002000d4
:1040000090368a00abff37000100ea0050d18800eb
:10401000c2ff37000100ea0040d188008460a90097
:104020004f03be004f02be004f01be004f00be0056
:104030003600f90000400600c6ff370031d32100ea
:1040400080487800000006001200fa00889fbe0039
:104050008a9fbe008c9fbe000243780083047800d4
:1040600000027800027020000201600003002000be
:10407000c81add004811de0002817200c819de0096
:10408000040fb20005002000cc29dd004422de0030
:1040900004827100c42ade00044678006f4060008c
:1040a0008285fb00e14f5100380032001f003100d3
:1040b000194078000080fb000100200061005000e2
:1040c000e080580005072000850f5000e08f580061
:1040d000520036008001eb0093bf9f00aff19700c4
:1040e000678065004800dd0032d321009280fb002c
:1040f000c408dd00010070008c80fb00010070002e
:104100006102b9001fb897000000e0000200320011
:104110000304e00013003a004f06be004f05be0046
:104120004f04be000080fa0000000600e74f510077
:10413000e8ff3a0099407800edcf5000a9003e001a
:10414000eccf5000b80031000104e000e1ff3a007c
:104150000000fe001200200092bf9f008141780005
:10416000dfff370076815700834078000400780035
:104170004b0807004f06be004f05be004f04be00af
:104180000080fa0000000600e8ff3700ef4f500003
:10419000d0ff3a0033d321001380fb0080004000a1
:1041a0000680fb00808f5000caff3c000180e900c0
:1041b000090040009080fb00104090004800dd00a6
:1041c000010070008001ea0043d1880020a2210094
:1041d0009080fb0030a221001080fb004800dd0031
:1041e00001007000808f510093003c000000ea0045
:1041f000808f51009000350045d1800060a22100e1
:104200000008eb00a5de88004d0b07001000200021
:1042100090bf9f008041eb00b1ff370000600100bc
:10422000d50037002a023700aaff3700a9ff370060
:104230008b0037009c003700ab003700a5ff37002c
:10424000b500370011023700a2ff370076003700b3
:10425000750037009fff37009eff37009dff370036
:104260009cff37009bff37009aff370099ff37000c
:1042700098ff370097ff37006b0037006a00370060
:1042800094ff370093ff370092ff370091ff37000c
:10429000050237008fff37008eff37008dff370094
:1042a0008cff37008bff37008aff370089ff37000c
:1042b00088ff370087ff370086ff370085ff37000c
:1042c00084ff370083ff370082ff370081ff37000c
:1042d00080ff37007fff37007eff37007dff37000c
:1042e0007cff37007bff37001d01370079ff370067
:1042f00078ff370077ff370076ff370075ff37000c
:1043000074ff370073ff370072ff370071ff37000b
:1043100070ff37006fff37006eff37006dff37000b
:104320006cff37006bff37006aff37003e00370035
:104330003d00370067ff370066ff3700a3003700f6
:1043400064ff370063ff370062ff370061ff37000b
:1043500060ff37005fff37005eff37005dff37000b
:104360005cff37005bff37005aff370059ff37000b
:1043700058ff370057ff370056ff370055ff37000b
:1043800054ff370053ff3700a100370051ff3700bb
:1043900050ff37004fff37004eff37004dff37000b
:1043a0004cff37004bff37004aff370049ff37000b
:1043b000b0003700ce00370046ff370045ff37001a
:1043c000450137006301370042ff370041ff3700e6
:1043d0007c0137009b013700fe0037002c013700bd
:1043e000ea003700e1cf40003aff3a00e14f5300c6
:1043f00038ff3a0040d3210006487800a1ef9f0023
:1044000080c0b300b0ef9f00c6ef9f00d6ef9f00c3
:1044100020c0b300e0ef9f001100200091bf9f007b
:1044200053c0b3002eff37001500200095bf9f003a
:104430008041eb002aff370040d1880080027800dd
:1044400060a221000008eb00a5de8800bc0a07007e
:104450001000200090bf9f008041eb0020ff37003c
:10446000e14f53001bff3a0060bb21001040780071
:104470006140600017ff320020d321001004e000eb
:1044800014ff320040d321000048eb00c0dd800063
:104490000000a000c0dd88001100200091bf9f0037
:1044a0008041eb000eff3700e14f530009ff3a0057
:1044b00061bb21009142780064c0620003003a00b1
:1044c0009140780062c0600002ff3200c0dd8000d1
:1044d0000010a100c0dd88001000200090bf9f00e8
:1044e0008041eb00fefe3700e14f5300f9fe3a0039
:1044f0009f070700b0ef9f00e14f4000f5fe32003c
:1045000070c0b300a0ef9f001500200095bf9f0072
:1045100023c0b300f2fe3700e24f5300edfe3a0035
:1045200080bb21001040780068406000e9fe320046
:10453000c3a2210000c6b300134160008249780085
:1045400099409000e2cf50008f01320081013e007f
:104550000104e00092013200e1cf5000700132000e
:104560000204a000824978001200200092bf9f0040
:104570008041eb00dafe3700e14f5300d5fe3a00f0
:1045800060bb21001040780062406000d1fe320024
:1045900020d321001004e000cefe3200c1a2210091
:1045a00002c6b300114061000004a00080487800fa
:1045b000c0dd80000030a000c0dd880013002000b6
:1045c00093bf9f008041eb00c5fe3700e54f5300cd
:1045d000c0fe3a00a9409000c808dd0019409000d4
:1045e0000080fb00808070008180400020a22100bc
:1045f00001487800c808de0030a221000148780098
:104600001200200092bf9f008041eb00b4fe3700f3
:10461000a940900019409000e14f50003c01320049
:104620000041eb0020d3210002487800b0c5b30060
:10463000a0ef9f0088c0b300b8ef9f0011c0b30087
:10464000c1ef9f00d1ef9f0020c0b300e0ef9f00bb
:10465000f1ef9f0081f79f0092f79f000204e000b6
:10466000350132001300200093bf9f00884178007d
:104670009bfe3700e74f530096fe3a00294090001a
:10468000c800dd00194090000080fb0080867000ab
:1046900049409000c800dd00394090000080fb00d8
:1046a00000857000694490004844dd005940900046
:1046b0000080fb0000047400880178000001eb001a
:1046c0008a0078000d007800bb0807008801780098
:1046d0000001eb008a0078000d007800c108070097
:1046e0001000200090bf9f008041eb007cfe37004f
:1046f000e14f530077fe3a007a845700fc8457005c
:1047000078855700fe8157000801780089007800fd
:104710000a007800be08070060c6b300a0ef9f0043
:104720001a457800baef9f009fe89700c1ef9f00fd
:1047300099447800d9ef9f005fe19700e2ef9f0076
:1047400018447800f8ef9f00ffe1970083f79f007f
:104750001500200095bf9f0073c0b30060fe3700b6
:10476000e14f53005bfe3a0030c3b300a0ef9f005f
:1047700030d3210010407800b0ef9f0011002000de
:1047800091bf9f0023c0b30055fe3700e14f530097
:1047900050fe3a0010c7b300a0ef9f0040892100ef
:1047a00090427800b5ef9f0010409000c0ef9f004e
:1047b0006089210090407800d1ef9f001040900068
:1047c000e0ef9f001200200092bf9f0053c0b30093
:1047d00043fe3700e54f53003efe3a00194190007a
:1047e000f1c2b300814f51003afe3e0029409000d3
:1047f000814f500037fe3e0039409000814f5000fd
:1048000034fe3e0049409000814f500031fe3e0092
:1048100060bc21000248780072bc2100a9429000cf
:104820000549780083bc2100b94090008149780097
:1048300094bc2100c9449000094a78001080fb0014
:104840000000400061b421006080780070c48800de
:104850000580fb00000040006080780060c4880094
:104860001380fb00000040006080780050c4880086
:104870000980fb00000040006080780040c4880090
:104880001200200092bf9f008041eb0014fe370011
:10489000e54f53000ffe3a00a9409000c808dd0024
:1048a000194090000080fb0080807000a1c4880047
:1048b000c9409000c808dd00394090000080fb002e
:1048c00080807000b1c488001300200093bf9f0057
:1048d0008041eb0002fe3700e74f5300fdfd3a0038
:1048e000fc8157007a815700f88057007e8057007e
:1048f00064080700294090004800dd0099409000be
:104900008180fb000100700090b79f00c9409000bb
:10491000c808dd00394190000281fb0082807000f0
:10492000c1b79f00694190004811dd00d941900056
:104930008381fb0003017100b2b79f00afb1970004
:10494000450807001000200090bf9f008041eb0049
:10495000e3fd3700e14f5300defd3a007884570055
:10496000fa8457007c855700fe81570008017800c3
:10497000890078000a00780042080700a0c6b3004a
:10498000a0ef9f001a457800baef9f00dfe0970084
:10499000c1ef9f0099447800d9ef9f007fe1970015
:1049a000e2ef9f0018447800f8ef9f009fe997001e
:1049b00083f79f001500200095bf9f0073c0b300d0
:1049c000c7fd3700e54f5300c2fd3a00a9409000f3
:1049d000c808dd00194090000080fb0000817000d5
:1049e00020a221009080fb0030a221001080fb005b
:1049f0004800dd0001007000800f510004003c0001
:104a00000000ea00800f510001003500020078002c
:104a100040d18800a0de8800c9409000c808dd00b1
:104a2000394090000080fb008080700031d1880008
:104a3000430907001000200090bf9f008041eb0059
:104a4000a7fd3700e14f5300a2fd3a00e0c6b300d6
:104a5000a0ef9f0080a2210090407800b1ef9f005e
:104a600010409000c0ef9f0060a22100104178002c
:104a7000d2ef9f0010409000e0ef9f001300200055
:104a800093bf9f0053c0b30095fd3700e14f530023
:104a900090fd3a00d0fb07001300200093bf9f0059
:104aa0008041eb008efd3700a9409000c808dd0072
:104ab000194090000080fb008080700021c68800b3
:104ac0001500200095bf9f008041eb0084fd37005a
:104ad000e14f53007ffd3a0061bb21001141780096
:104ae0006440610003003a009140780062c06000b9
:104af00078fd3200c0dd80000010a100c0dd88001c
:104b00001300200093bf9f008041eb0074fd37002d
:104b1000e1cf5000c2fe3a0001417800c1fe3700eb
:104b20000234a000824978001000200090bf9f004e
:104b30008041eb006afd370060a021001074a000e6
:104b4000d30907001500200095bf9f008841780019
:104b500063fd3700e6cf50001e00320000c5b300f1
:104b600080cf500015003200e3cf50007cfe3a00a9
:104b70000244a000824978001100200091bf9f00ec
:104b80008041eb0056fd37000224a00082497800e6
:104b90001300200093bf9f008041eb0050fd3700c1
:104ba000c0dd80000030a100c0dd880015002000bd
:104bb00095bf9f008141780049fd37000204a000a5
:104bc000824978001100200091bf9f008041eb00d6
:104bd00043fd37000214a000824978001200200033
:104be00092bf9f008041eb003dfd37004086a8004a
:104bf0008000eb0040c6bf000068a3000c003a0034
:104c000000000000000000000000000000000000a4
:104c10000000000000000000000000000000000094
:104c20008100e800803e2000808f5000f1ff3a00b4
:104c30004086a90040c6bf0001cfb300014060001c
:104c40007040b30040e6b700d00120001032880069
:104c50000000eb0030c5880020c588000000060079
:104c6000e0072000303288004086a80000000600df
:104c7000e1c580000100ea00010070004f00de0085
:104c800061001000000006000200fa0000417800f8
:104c90000000eb0000000000000000000000000029
:104ca0000000e800e60f5000faff3a00cb02a9002e
:104cb00000ff2f00ffb8970080806000810178001e
:104cc0000300a0000300780000a0a100f0bf9f0037
:104cd00002007800f003b2004400dd00f1c02f00b4
:104ce000ffb997008181610080807100f1bf9f0052
:104cf000e44f510060003400f07f280080816000a4
:104d00000000250080807100f1bf9f000000280096
:104d100080807000f1bf9f009880a9000000000013
:104d200000000000000000000000000041128800a8
:104d300088c0bf00f11820000048a3000f003a000f
:104d40000000000000000000000000000000000063
:104d50000000000000000000000000000000000053
:104d6000000000000000000088c0bf000048a30051
:104d700002003a008100e900f1ff3a008880a900b2
:104d80000000000000000000000000000000000023
:104d9000000000004822ef0088c0bf00f11820008a
:104da0000048a3000f003a000000000000000000cf
:104db00000000000000000000000000000000000f3
:104dc00000000000000000000000000000000000e3
:104dd00088c0bf000048a30002003a008100e9003b
:104de000f1ff3a004822ef0088c0bf00f118200010
:104df0000048a3000f003a0000000000000000007f
:104e000000000000000000000000000000000000a2
:104e10000000000000000000000000000000000092
:104e200088c0bf000048a30002003a008100e900ea
:104e3000f1ff3a0000000000000000000000000048
:104e400000000000cb02a8000000eb000000000002
:104e500000000000000000000000e800e60f500025
:104e6000faff3a008880a9009880a8008036820066
:104e70000080fa0000000600f07f280080816000ba
:104e8000f3bf9f008300780000002800808070003e
:104e9000f1bf9f009880a900000000000000000002
:104ea00000000000000000004112880088c0bf0020
:104eb000f11820000048a300a1ff3200afff370027
:104ec0000200fa00004178008101780000ff2f0005
:104ed000ffb8970080806000010278000400a00005
:104ee0000400780000a0a100f0bf9f00020078003d
:104ef000f003b2004400dd00f1c02f007fba97003c
:104f00000102620080007200f1bf9f000000eb0010
:104f10000000000000000000000000000000e800a9
:104f2000e60f5000faff3a00cb02a900e44f51000f
:104f30005f003400f07f28007fba97000002620013
:104f40000000250080007200f1bf9f000100780082
:104f500000f0a100f0bf9f009880a90000000000b1
:104f60000000000000000000000000004012880067
:104f700088c0bf00f11820000048a3000f003a00cd
:104f80000000000000000000000000000000000021
:104f90000000000000000000000000000000000011
:104fa000000000000000000088c0bf000048a3000f
:104fb00002003a008100e900f1ff3a008880a90070
:104fc00000000000000000000000000000000000e1
:104fd000000000004312880088c0bf00f1182000c4
:104fe0000048a3000f003a0000000000000000008d
:104ff00000000000000000000000000000000000b1
:1050000000000000000000000000000000000000a0
:1050100088c0bf000048a30002003a008100e900f8
:10502000f1ff3a008880a9000000000000000000a5
:1050300000000000000000000000000048a2ef0097
:1050400088c0bf00f11820000048a3000f003a00fc
:105050000000000000000000000000000000000050
:105060000000000000000000000000000000000040
:10507000000000000000000088c0bf000048a3003e
:1050800002003a008100e900f1ff3a008880a9009f
:105090000000000000000000000000000000000010
:1050a000cb02a8009880a8000080fa00000006004b
:1050b000f07f28007fba970000026200f4bf9f00d3
:1050c0000400780000f0a100f0bf9f009880a900c4
:1050d00000000000000000000000000000000000d0
:1050e0004012880088c0bf00f11820000048a300cb
:1050f000a3ff3200b1ff37000800fa00881f7800d4
:105100000004eb008000eb00084078006cff070013
:105110000804e800f10f5400faff3a0001002c00e7
:10512000e1bf9f0060c0b30065ff07000080200062
:105130000020a000800078000100a000010078009d
:105140000030a000b0bf9f00d180200080c0b3001d
:105150005bff0700668057000008eb008000eb0053
:1051600070c0b30056ff0700688057008000eb0056
:10517000688870008100200090c0b30050ff0700d5
:105180000040eb00c0fe07000000eb004f04780079
:105190000080fa0000000600f2c580006101610095
:1051a0006a11b900818a21008280400000017800e4
:1051b00031197800311978003119780031197800e7
:1051c00011097800000006004046e20005003d009d
:1051d00000000000000000000000000000000000cf
:1051e000000000004466ef0040c6bf000068a30056
:1051f000fdff32004086a900000000000000000012
:1052000000000000303280000080fb00000006003b
:1052100000c680000000e00026003a00e0c58000e3
:105220000000e00023003a00cb02a90000000000cb
:10523000000000000000000010002000e0c5880011
:1052400040c2a90000d321009080fb0010d32100b0
:105250001080fb004800dd008100700041128800d2
:10526000e0072000303288004086a8004808de00b1
:105270004046e20005003d00000000000000000084
:1052800000000000000000000000000044e6b7003d
:105290004046e20005003d00000000000000000064
:1052a0000000000000000000000000000100780085
:1052b00044e6b70000000600881f7800cb02a80073
:1052c00010002000f0c58800c08b21000008eb0012
:1052d0004086a8008000eb0040c6bf000068a30025
:1052e0000c003a0000000000000000000000000078
:1052f00000000000000000000000000000000000ae
:10530000000000008100e800803e2000808f5000f7
:10531000f1ff3a004086a90040c6bf0001cfb300ac
:10532000014060007040b30040e6b700d0012000ab
:10533000103288000004eb0038c5880028c58800ba
:10534000f2fb2d00f1ff2700d06a2e0053ee07007c
:105350008880a9009880a800281d8800006d200082
:10536000401d880080242000601d8800781d880072
:10537000a0002000301d8800a5e3a8009880a800a8
:105380005dff07000004780062ee0700f2fb2d00cd
:10539000f1ff2700a06b2e0040ee07000800780008
:1053a0004f04780000000600000006000000060020
:1053b000000006005e0b070001002000c000dd00b9
:1053c000000020000081eb008081eb0043ed07002e
:1053d00090df88000000060020e980000100200026
:1053e000c000dd00000020000081eb008081eb00a8
:1053f0003aed070090df8800000006000400fa0084
:10540000170707000000e00002003a0080a021001a
:105410001054a000648057007e0707006000b800a9
:1054200090df88000080fa00000006001400fa00f7
:10543000881f78000efe07000000e00002003a001e
:1054400080a021001054a0006c8457000800780050
:1054500051ff0700768057001801be000298be0079
:105460004fb99700dfb997000298be00efb99700d7
:10547000030878001fb897000000e00009003a0018
:105480005fb0970000f0a100cf80de007cec070049
:105490000200200003782c0020ed070053ed0700e8
:1054a00090df88004f0478000080fa0000000600ba
:1054b000cac2bf004300de00b12c2000914078003a
:1054c000b22c20001241780061006000e180600091
:1054d000c208dd000100700062016100020070007e
:1054e00020e9880010e9880004003200e70f50002e
:1054f0000200320020e088000000060060a02100c9
:105500001044a0000000eb0020e088006007370096
:10551000e3a22100934078000001eb00c2c688009e
:10552000a0aa200020c688003100b3000104a10019
:105530008149780062dd88006000b80070dd880075
:1055400081dd880040dd880051dd88000000060014
:105550001400fa00881f78006c8457000800780057
:105560000dff0700768057001801be000298be00ac
:105570004fb99700dfb997000298be00efb99700c6
:10558000030878001fb897000000e00007003a0009
:105590006fb09700000040000080d10000e9880053
:1055a0004f0478000080fa000000060000e9800047
:1055b0004f0478000080fa0000000600fbff37006f
:1055c000e2a221009240780064c060000d003a0021
:1055d0000000eb00a0dd880090dd8800124078001c
:1055e0000020a00000497800b1e380000100e00045
:1055f0000a003a000020a1000044a0000049780001
:1056000000000600014078000020a000004978005a
:10561000b1e380000100e000f6ff32000100e90084
:10562000b0e3880090dd80000000e80090dd880095
:1056300000000600e2a221009240780068c06000ed
:105640000e003a000000eb00a0dd8800d0a320008f
:1056500090dd8800124078000030a00000497800fa
:10566000c1e380000100e0000a003a000030a10020
:105670000054a000004978000000060001407800b6
:105680000030a00000497800c1e380000100e00084
:10569000f6ff32000100e900c0e3880090dd8800d9
:1056a00000000600cac2bf004300de00b12c20008b
:1056b00091407800b22c2000124178006100600017
:1056c000e1806000c208dd0001007000620161003d
:1056d0000200700020e9880010e98800080032000c
:1056e000e70f50000600320020e0880090df8000c5
:1056f00021c680000100400010c68800000006009e
:1057000060a021001044a0000000eb0020e0880011
:10571000df06070090df800021c680000100400006
:1057200010c6880000000600f5ff370000000600e4
:10573000889fbe00e8a22100984078000148a3009d
:105740000e003a000128a300240032000120a0002e
:10575000014c7800b0e380000000e0001800320047
:105760000000e900b0e3880090dd80000000e80060
:1057700090dd88004f04be0000000600d2e38000e8
:10578000e3e380000000200011002000800f5100a2
:10579000818f59001a003200409e21001000e8005d
:1057a00020cf880061004100e0804900d0e38800fc
:1057b000e1e388004f04be0000000600efff370061
:1057c000010078000020a1000044a000004c7800f7
:1057d0004f04be0000000600e8ff37000000eb00a9
:1057e000a0dd880090dd88000120a000014c780039
:1057f000b0e380000000e000d9ff3a00f0ff37007e
:1058000000f0200020c68800c0c688008004eb009d
:1058100019cf88008f0a0700984078000158a3002c
:105820001d003a000138a300120032000130a00030
:10583000014c7800c0e380000000e0000600320068
:105840000000e900c0e3880090dd88004f04be003e
:1058500000000600c9ff3700010078000030a100f9
:105860000054a000004c78004f04be000000060069
:10587000c2ff3700a9dd8800d0a3200090dd88009a
:105880000130a000014c7800c0e380000000e0007f
:10589000ebff3a00f0ff3700290f880079df88001e
:1058a0004104070042040700c0c6800060dd880094
:1058b000cf80de0070dd880081dd880040dd88005b
:1058c00051dd8800184078000004a1000014a000f9
:1058d000004c78004f04be0000000600a7ff370010
:020000040000fa
:1058e000461b0000be00000002000000ea19ec00a8
:1058f00019ee1900f019f20019f41900f619f80060
:1059000019fa1900fc19fe0019321a00341a36006f
:105910001ad60100d801da0001e41900c218e60025
:1059200019e81900b01bae001be21900261a280066
:105930001a2a1a00d41bd2001b90180092182e00ad
:105940001a2c1a00061ab8001bb61b00f81bf6002a
:105950001b221d00f21ba6001ba61b00a61ba600f7
:105960001ba61b00a61ba6001ba61b000000000018
:105970000000000000000000000000003d0a0000e0
:105980000000000000000000000000000000000017
:105990000000000001000000020e100000000000e6
:1059a00000000000b0040000000000000000000043
:1059b00000000000000000000001000001000000e5
:1059c000000000000000010000c70000000001000e
:1059d000000000000000000000000000342e300035
:1059e00000322e003700f4000100000052080000d1
:1059f000f411000000000000000800003200000068
:105a0000020000009900eb00ffb6710099002c0025
:105a1000cd5d060011f65c00745d0600d9c87c00ff
:105a20001059e3009d787c001005c30000000000c1
:105a30000000000000000000000000000000000066
:105a40000000000000000000bc4600001400000040
