:020000040800F2
:1000000058C70020A9020008B1020008B302000886
:10001000B5020008B7020008B9020008000000009D
:10002000000000000000000000000000BB0200080B
:10003000BD02000800000000BF0200088D15000886
:100040002D190008C3020008C3020008C3020008FB
:10005000C3020008C3020008C3020008C30200086C
:10006000C3020008C3020008C3020008C30200085C
:10007000C3020008C3020008C3020008C30200084C
:10008000C3020008C3020008C3020008A70B00084F
:10009000210B0008C3020008A10B0008C3020008DE
:1000A000C302000891160008C3020008C30200083A
:1000B000A9160008BD160008D5160008C3020008DE
:1000C000C3020008C3020008C30200088D14000820
:1000D00093140008C3020008C3020008C30200080A
:1000E000C3020008C3020008C3020008C3020008DC
:1000F00035170008C3020008C3020008C302000845
:10010000C3020008C3020008ED1600089914000895
:10011000C3020008C3020008051700081D170008E5
:10012000C3020008C3020008C3020008C30200089B
:10013000C30200084D0E0008C3020008330C00087B
:10014000AD0B0008C30200082D0C0008C302000814
:10015000C3020008C3020008C3020008C30200086B
:10016000C3020008C3020008C3020008C30200085B
:10017000C3020008C3020008C3020008C30200084B
:10018000C3020008C302000800F002F800F068F89B
:100190000AA090E8000C82448344AAF10107DA45E2
:1001A00001D100F05DF8AFF2090EBAE80F0013F0CC
:1001B000010F18BFFB1A43F001031847C05000009D
:1001C000E0500000103A24BF78C878C1FAD852072E
:1001D00024BF30C830C144BF04680C6070470000C1
:1001E0000023002400250026103A28BF78C1FBD840
:1001F000520728BF30C148BF0B60704710B510BD13
:1002000002000203DE174D0200000008008000001B
:1002100000000020C0FF01000000000000000000FE
:1002200000654C6F61646572000000000000000012
:1002300000000000000000000000000000000000BE
:10024000642900F07B81732900F0B9830020704796
:100250001FB504F0EFFC9DE8030000F0BFFA1FBDDE
:1002600000F0DEFB1146FFF7F3FF03F04FFD00F057
:10027000FCFB03B4FFF7C2FF03BC00F029FC000045
:1002800000487047002000000048704700A00000B0
:1002900000487047002000000048704700A00000A0
:1002A000401EFDD1704700000948804709480047BB
:1002B000FEE7FEE7FEE7FEE7FEE7FEE7FEE7FEE716
:1002C000FEE7FEE704480549054A064B7047000073
:1002D00029160008890100085807002058C7002087
:1002E00058A7002058A7002070B5A0FB0140B4F12A
:1002F000805170F1000024BF002070BD204600F046
:100300009CFA05001CBF214600F0FFF9284670BD8D
:1003100070B50446051F00F045FA0068002C14BFB4
:10032000446870BD002C18BFA54284BF2046646895
:10033000F8D801680A18AA4218BF456003D12A6894
:1003400005461144016028684119A1421CBF6C6038
:1003500070BD6168696021680844286070BD53EA17
:10036000020C00F069802DE9F04B4FF00006002BE5
:100370001FBFB3FA83F503FA05F424FA05F65E40CD
:1003800012BF1643B2FA82F502FA05F4C5F1200550
:100390001EBF22FA05FC44EA0C04203556EA044C40
:1003A0004FEA144418BF641C4FF000084FF00009D6
:1003B000904271EB030C39D3002919BFB1FA81F7D0
:1003C00001FA07F6B0FA80F700FA07F6C7F120073E
:1003D0001EBF20FA07FC46EA0C062037B6FBF4FCE9
:1003E000A7EB0507103F07F01F0BCBF120060CFA17
:1003F0000BFB2CFA06F644BFB3460026202FA4BF01
:100400005E464FF0000B5BEA060C08BF4FF0010B95
:1004100019EB0B09ABFB027C48EB0608C01B06FB83
:1004200002CC0BFB03CC71EB0C01C1E70B4602467F
:1004300041464846BDE8F08B13B54FF000004FF041
:100440000001AFF30080BDE81C4070470FB41CB53D
:100450000C0007AA009001D02044401E074B7B44AB
:1004600069460190069800F078FA002C03D069469E
:10047000002000F085FA1CBC5DF814FB2905000083
:100480002DE9F04104460E46002020622046E16836
:10049000884738B3252806D0D4E901219047206A3F
:1004A000401C2062F2E7E1682046002788470500EB
:1004B00018D0A5F14100192802D820354FF4006763
:1004C0003246294620462760FFF7BAFE40B1012890
:1004D00004D0F61D26F007060836D7E7361DD5E707
:1004E0002846D9E7206ABDE8F08170B50C4605467C
:1004F000012A05D02878800600D5EA69002302E0A9
:10050000012305E05B1C934202D2E05C0028F9D194
:10051000A869E618C01AA861286A18442862284603
:10052000AFF3008004E0D5E9012114F8010B9047F6
:10053000B442F8D32846AFF3008070BD2DE9F041F6
:100540000646002410687529314616A511D0AFF370
:100550000080002803DAC0F1000013A507E031682D
:100560008A0701D511A502E0490704D510A5012489
:1005700001E0AFF3008000210A2306F1240707E021
:10058000B0FBF3F203FB1200303078541046491CE4
:100590000028F5D123462A463046BDE8F04100F058
:1005A0007BB90000000000002D0000002B000000BF
:1005B0002000000040EA010310B59B070FD1042A78
:1005C0000DD310C808C9121F9C42F8D020BA19BA1E
:1005D000884201D9012010BD4FF0FF3010BD1AB183
:1005E000D30703D0521C07E0002010BD10F8013BD8
:1005F00011F8014B1B1B07D110F8013B11F8014BFF
:100600001B1B01D1921EF1D1184610BD032A40F2E6
:10061000308010F0030C00F0158011F8013BBCF1A4
:10062000020F624498BF11F801CB00F8013B38BFBC
:1006300011F8013BA2F1040298BF00F801CB38BFCA
:1006400000F8013B11F0030300F02580083AC0F0E8
:10065000088051F8043B083A51F804CBA0E8081090
:10066000F5E7121D5CBF51F8043B40F8043BAFF3C3
:100670000080D20724BF11F8013B11F801CB48BF1D
:1006800011F8012B24BF00F8013B00F801CB48BF53
:1006900000F8012B704710B5203AC0F00B80B1E88C
:1006A0001850203AA0E81850B1E81850A0E81850A7
:1006B000BFF4F5AF5FEA027C24BFB1E81850A0E8B0
:1006C000185044BF18C918C0BDE810405FEA827CCA
:1006D00024BF51F8043B40F8043B08BF7047D207E1
:1006E00028BF31F8023B48BF11F8012B28BF20F882
:1006F000023B48BF00F8012B704702F0FF0343EABA
:10070000032242EA024200F002B84FF0000204293C
:10071000C0F0128010F0030C00F01B80CCF1040C30
:10072000BCF1020F18BF00F8012BA8BF20F8022B64
:10073000A1EB0C0100F00DB85FEAC17C24BF00F80A
:10074000012B00F8012B48BF00F8012B70474FF038
:10075000000200B5134694469646203922BFA0E811
:100760000C50A0E80C50B1F12001BFF4F7AF09071D
:1007700028BFA0E80C5048BF0CC05DF804EB89000E
:1007800028BF40F8042B08BF704748BF20F8022B51
:1007900011F0804F18BF00F8012B70477047704769
:1007A0007047000000487047FC0600207047704703
:1007B0007047704738B504460A4600206946AFF3D3
:1007C0000080002808BF38BD02460099204600F08E
:1007D00006F9012038BD012000F01BB9F8B5AFF3D0
:1007E0000080054600200C46102000BF0646A819D0
:1007F000A0420DD9324669460020AFF300800700C1
:1008000008BF00F006F90098A04218BF0546C419B9
:10081000FFF7C8FF05600746F01D20F007004619E6
:10082000284600F0D5F8B44208BFF8BDA21B3146F7
:100830003868BDE8F84000F0D2B870B50646FFF75A
:10084000B1FF056806F10B0020F00704B4429CBF1D
:10085000002070BD2B466A68BAB11068A04210D360
:1008600004F1080188423CBF5068586007D35168C2
:10087000101941601168091B016058601460101D57
:1008800070BD13465268002AE7D121462846FFF77B
:1008900091FF0028DED170BD2DE9F0470D46994645
:1008A0009246044600F124080168880604D5E069F0
:1008B00021F01001216000E00120A84202DDA0EB40
:1008C000050700E00027A16907EB050202EB09001C
:1008D000A1EB0000A0612078C00602D42046AFF34F
:1008E0000080002608E0D4E901211AF806009047AC
:1008F000206A401C761C20624E45F4DB2078C0063E
:100900000AD52046AFF3008006E0D4E9012130206B
:100910009047206A401C2062381EA7F10107F4DCD2
:1009200007E0D4E9012118F805009047206A401C2F
:100930002062281EA5F10105F3DC2046AFF30080FC
:100940002078000602D50220BDE8F0870120FBE7F1
:1009500001694A1C02610878704700B58FB0CDE983
:1009600001310021059105497944CDE90310114673
:100970006846FFF785FD0FB000BD0000E5FFFFFFF3
:100980000A6802F8010B0A607047D1E900239A4215
:1009900002D2531C0B601070704710B5436913B13D
:1009A000AFF3008001E0FFF7A0FD012010BD127839
:1009B00000F124010A7000224A700122EDE711685B
:1009C0004FF0FF32E9E7000000487047F4060020CE
:1009D00000210160C0E901107047102070470346F4
:1009E00040688C46002818BF814284BF0346406897
:1009F000F8D818681844884207D00CF1030020F09A
:100A00000700001D411A521A0146081D0A60FFF72F
:100A10007FBC10B500F034F8BDE8104000F02BB8F2
:100A20007546FFF7D1FFAE4605006946534620F0F4
:100A30000700854618B020B5FFF744FCBDE820400C
:100A40004FF000064FF000074FF000084FF0000B8A
:100A500021F00701AC46ACE8C009ACE8C009ACE83D
:100A6000C009ACE8C0098D4670470446AFF300806A
:100A70002046FFF7FEFB002801D000F029B87047A0
:100A800010B5012805D0002103A000F028F80120AE
:100A900010BD09A1F8E7000053494752544D454D98
:100AA0003A204F7574206F662068656170206D650F
:100AB0006D6F7279000000003A2048656170206D0A
:100AC000656D6F727920636F727275707465640002
:100AD00001491820ABBEFEE726000200704770B542
:100AE00005460C460A2000E06D1C00F011F835B1F7
:100AF00028780028F8D102E0641C00F009F814B14D
:100B000020780028F8D1BDE870400A20AFF30080BB
:100B100008B569468DF800000320ABBE08BD000093
:100B2000F0B589B0002600960196029603961A4801
:100B30001A4D4468E868A76A10F0100F1CBF3046D1
:100B400003F014FA384602F045FA012808D1384675
:100B500002F049FA012084F82E00304603F006FA2C
:100B6000284604AA002100F0B5F8049800909DF8EA
:100B70001A008DF80600DDF81B000290DDF81F005A
:100B800003906946384602F037FA616800291CBFB5
:100B9000A068884709B0F0BDE80600200064004066
:100BA000002003F0E3B9002003F01CBA70B58AB04E
:100BB00001200021009101910291039119491A4DE0
:100BC0008C68E968A66A11F0100F18BF03F0CEF91F
:100BD000304602F0FFF9012807D1304602F003FA4F
:100BE000012084F82E0003F0C1F9284604AA002150
:100BF00000F070F8049800909DF81A008DF8060037
:100C0000DDF81B000290DDF81F00039069463046B6
:100C100002F0F2F9616800291CBFA06888470AB099
:100C200070BD0000E806002000680040012003F0CD
:100C30009DB9012003F0D6B910B4082304224FF067
:100C4000100CB1F5007F40D021DC202902BF0361E8
:100C500010BC704710DC012901BF1D49816010BC28
:100C60007047042902BFC36010BC7047082908BF41
:100C7000C0F80CC010BC7047402902BFC0F810C0BB
:100C800010BC7047B1F5807F1FD010BC70470024A6
:100C9000B1F5004F08D00BDCB1F5806F15D0B1F580
:100CA000006F1CBF10BC70478461426010BC70476D
:100CB000B1F5803F02BF436010BC7047B1F5003F03
:100CC00008BFC0F804C010BC7047426010BC704739
:100CD0000101010000EB0113D3F8B0C11CF0040CBA
:100CE00082F808C0D3F8B0C107BF4FEA5C5CC2F815
:100CF00000C04FEADC0CC2F804C0D3F8B0C10CF05D
:100D0000020C82F809C0D3F8B4C10CF00F0C82F8C1
:100D10000AC0D3F8B4C14FEA1C2C82F813C0D3F830
:100D2000B8C182F80BC0D3F8B8C14FEA1C2C82F8C6
:100D30000CC0D3F8B8C14FEA1C4C82F80DC0D3F8F0
:100D4000B8C14FEA1C6C82F80EC0D3F8BCC182F85F
:100D50000FC0D3F8BCC14FEA1C2C82F810C0D3F8E6
:100D6000BCC14FEA1C4C82F811C0D3F8BC311B0E39
:100D7000937421B1016941F0200101617047C1689C
:100D800041F02001C160704710B402460020936812
:100D900013F0806F3FD000BF02EB0012D2F8803119
:100DA00003F00103C2F880310B7A002B42D0D2F855
:100DB00080C14C684CEA030391F809C04CEAC40CAA
:100DC00043EA0C03C2F880318B7A03F00F038B7275
:100DD000D2F8843123F00F03C2F88431D2F8843181
:100DE00091F80AC043EA0C03C2F88431CB7AD1F8F7
:100DF0000CC043EA0C23C2F88831CB7B096943EA73
:100E00000121C2F88C11D2F8801141F00101C2F821
:100E1000801110BC7047906810F0006F18BF01205F
:100E2000BAD1906810F0805F14BF02200420B3D1C3
:100E300010BC7047D2F8803191F809C043EA0C0326
:100E4000B1F800C043EA4C53BCE700002DE9F04F75
:100E500041484FF0000B93B046685F4649F21A08CC
:100E6000357C4FF4407A4FF00049706900EB051073
:100E70000168C1F30D410C1F016811EA080F18BF8A
:100E8000012734D100683AEA000018BF02272ED1AA
:100E900040F2EA50844288BF032728D844F000403B
:100EA00002F07CF844F000410090002808BF0427BD
:100EB0001DD00820726900EB0510105820F00302C5
:100EC0000098001DE31C9C0806D000BF52F8043BAC
:100ED00040F8043B641EF9D12048026812B1009822
:100EE000001D9047009802F05FF84FF0010B706909
:100EF00000EB0510C0F8009077B1022F08BF4FF04B
:100F0000FF343B4616A2402102A80094FFF79EFA48
:100F100002A9F02002F0B2FEF07A6D1C854208BFF3
:100F200000253574706900EB0510006810F0004F63
:100F30009BD01648416911F0800F154902D04161DC
:100F4000002282604161BBF1000F18BF02F01CF863
:100F500013B0BDE8F08F0000C0000020BC000020EE
:100F60004554485F49525148616E646C6572282946
:100F70003A206572726F7220256420666F72206657
:100F800072616D655B25645D0000000000900240A9
:100F9000C080010001490860704700000C3C02401D
:100FA00030B50546002451B1012908BF4FF48074C3
:100FB00005D002290CBF4FF400744FF4407400F0C8
:100FC00079F8092818BF30BD0F4B186820F440701D
:100FD0001860186820431860186820F0F80018603E
:100FE000186845F0020108431860186840F4803022
:100FF000186000F05FF8196821F0020119601968A3
:1010000021F0F801196030BD103C024030B50C46AB
:10101000054600F04FF8092818BF30BD0A4B186884
:1010200020F440701860186840F4807018601868E8
:1010300040F0010018602C8000F03CF8196821F0A5
:101040000101196030BD0000103C024030B50C4673
:10105000054600F02FF8092818BF30BD0A4B186864
:1010600020F440701860186840F400701860186828
:1010700040F0010018602C6000F01CF8196821F0A5
:101080000101196030BD0000103C024005480068B5
:1010900010F0004F08BF704703490448016004493D
:1010A00001607047103C024023016745043C024048
:1010B000AB89EFCD1A4909200A6812F4803F09D0A4
:1010C0000A68092012F4803FFAD10A6812F0100F62
:1010D00004D118E00A6812F0100F01D00620704702
:1010E0000A6812F4807F01D0022070470A6812F06B
:1010F000EF0F01D007207047096811F0020F08BFF9
:101100007047082070470A6812F4807FECD10A68A3
:1011100012F0EF0FEED1096811F0020FF1D1704714
:101120000C3C02402DE9F001002201255FF003068E
:10113000D1F800C005FA02F30CEA030C9C4533D148
:1011400007684FEA420C06FA0CF4A74307600F79D0
:10115000D0F8008007FA0CF747EA080707600F7914
:10116000012F18BF022F14D18768A74387604F79DA
:10117000D0F8088007FA0CF747EA08078760476845
:1011800027EA0303436043688F799740BFB23B432C
:101190004360C368A343C360CB7903FA0CF3D0F870
:1011A0000CC043EA0C03C360521C102AC0D3BDE834
:1011B000F00170474B07DB0E9A40C90800EB810035
:1011C000016A4FF00F0C0CFA03F399430162016AB4
:1011D0001143016270470246002012690A4218BF9B
:1011E000012070470246002052690A4218BF0120C0
:1011F0007047002A14BF018341837047002901888A
:1012000014BF41F4806121F4806101807047838ABA
:101210000022008B43EA004020F07F4031EA0000CA
:1012200008BF012210467047C943818270470029D8
:10123000018814BF41F0010121F0010101807047D4
:101240000029018814BF41F4807121F4807101806C
:1012500070470029018814BF41F4007121F4007126
:101260000180704700220B0F21F07F4112BF143024
:10127000090C18300068084218BF01221046704758
:10128000818A008B41EA004020F07F4070470000D7
:1012900070B50446808884B00D4620F03F0668464D
:1012A00000F09CF829490298B0FBF1F189B246EAB6
:1012B0000102A280228822F001022280244B2A68A7
:1012C0009A421DD85200B0FBF2F080B2042838BF19
:1012D0000420491C2184A083208840F00100208044
:1012E0002088A9886A8920F00A0020F480601143D0
:1012F00008432080A88929890843208104B070BD53
:10130000EB88A3F53F4CBCF1FF0C05D102EB420288
:10131000B0FBF2F080B208E002EBC20303EB021272
:10132000B0FBF2F080B240F480400205120D08BF1D
:1013300040F0010040F400404FF4967251434FF4E6
:101340007A72B1FBF2F1491C2184C4E740420F00DC
:10135000A0860100002A14BF41F0010101F0FE0146
:101360000182704701827047034940F0FD7040F0F0
:1013700080600860704700000CED00E0044A00291E
:10138000116814BF084321EA000010607047000094
:1013900030380240044A0029116814BF084321EA8A
:1013A000000010607047000040380240044A0029E5
:1013B000116814BF084321EA000010607047000064
:1013C00020380240044A0029116814BF084321EA6A
:1013D000000010607047000024380240264A30B4F4
:1013E0001168DFF898C011F00C0106D0244C0429D4
:1013F00008BF046003D0082921D0C0F800C01168DC
:10140000204B01F0F0010909595CD0F800C02CFA1A
:1014100001F14160D2F800C00CF4E05C4FEA9C2C72
:1014200013F80CC021FA0CFCC0F808C0126802F4D2
:101430006042520B9A5CD140C16030BC7047124987
:101440000B68C3F380550B68002D03F03F0314BFF6
:10145000B4FBF3F3BCFBF3F3D1F800C00968CCF3A1
:10146000881C03FB0CF3C1F30141491C4900B3FB89
:10147000F1F10160C3E70000083802400024F400E5
:1014800080F0FA027800002004380240002002F0C8
:10149000DFBC012002F0DCBC022002F0D9BC002934
:1014A000018814BF41F0400121F0400101807047E4
:1014B0000246002012890A4218BF0120704709091C
:1014C000012303FA01F1002A828889B214BF114373
:1014D00022EA0101818070478089704781817047CD
:1014E00024480021026842F480220260026842F42B
:1014F00080320260026801F1010112F4003F02D162
:10150000B1F5A04FF6D1016811F4003F08BF704754
:1015100019490A6842F080520A6018490A6842F480
:1015200040420A6016490A680A600A6842F40042AA
:101530000A600A6842F4A0520A600B1F114A1A603E
:10154000026842F080720260026812F0007FFBD0F5
:101550000D4A40F205701060086820F00300086032
:10156000086840F002000860086800F00C000828D5
:10157000FAD1704700380240403802400070004005
:101580000838024032544007003C024010B501F0D8
:10159000C3F9002808BF10BDBDE810400047000097
:1015A000DFF86CC030B4DCF800001A4B10F00C010E
:1015B000194806D0194C042908BF046002D0082934
:1015C0000CD00360DCF80010154AC1F30311515C24
:1015D000026822FA01F1016030BC704711490A68C3
:1015E000C2F380550A68002D02F03F0214BFB4FB1D
:1015F000F2F2B3FBF2F20B680968C3F388135A43A3
:10160000C1F30141491C4900B2FBF1F10160D9E786
:10161000083802400024F4005800002080F0FA024C
:10162000C84D000804380240134810B5016841F461
:10163000700101601148016841F001010160104A28
:1016400000211160026822F4102222F080720260F0
:10165000031D0C4A1A60026822F4802202600A48C4
:10166000016002F031FBFFF73BFF08494FF00060DB
:101670000860FFF795FF10BD88ED00E000380240DC
:1016800008380240103000240C38024008ED00E019
:1016900010B50121034800F059F8BDE810400020C2
:1016A00002F030BC0000014010B50121880700F0B5
:1016B0004DF8BDE81040012002F024BC10B5012116
:1016C000034800F043F8BDE81040022002F01ABCC5
:1016D0000004004010B50121034800F037F8BDE8D0
:1016E0001040032002F00EBC0008004010B501219C
:1016F000034800F02BF8BDE81040042002F002BCC3
:10170000000C004010B50121034800F01FF8BDE8AF
:101710001040052002F0F6BB0010004010B501217A
:10172000034800F013F8BDE81040062002F0EABBC1
:101730000014004010B50121034800F007F8BDE88F
:101740001040072002F0DEBB00040140C9430182C3
:1017500070470029018814BF41F0010121F0010107
:101760000180704710B5A0F18041B1F5803109D1F9
:1017700001210846FFF726FE0021BDE810400120A8
:10178000FFF720BEB0F1804F0ED0A0F18041B1F53F
:10179000806113D101210220FFF708FE0021BDE87E
:1017A00010400220FFF702BE01210846FFF7FEFDB0
:1017B0000021BDE810400120FFF7F8BDA0F18041F5
:1017C000B1F5006109D101210420FFF7EFFD0021EF
:1017D000BDE810400420FFF7E9BDA0F18041B1F55C
:1017E000406109D101210820FFF7E0FD0021BDE89B
:1017F00010400820FFF7DABDA0F18041B1F580511B
:1018000009D101211020FFF7D1FD0021BDE81040D2
:101810001020FFF7CBBDA0F18041B1F5A05109D157
:1018200001212020FFF7C2FD0021BDE8104020204B
:10183000FFF7BCBDA0F18041B1F5823109D1012192
:101840000220FFF7BFFD0021BDE810400220FFF796
:10185000B9BDA0F18041B1F5A0310AD10121080440
:10186000FFF7B0FDBDE8104000214FF48030FFF7D6
:10187000A9BDA0F18041B1F5A2310AD101214804EE
:10188000FFF7A0FDBDE8104000214FF40030FFF746
:1018900099BDA0F18041B1F5A4310AD1012188049C
:1018A000FFF790FDBDE8104000214FF48020FFF7C6
:1018B00089BDA0F18041B1F5C05109D1012140207D
:1018C000FFF774FD0021BDE810404020FFF76EBD1A
:1018D000A0F18041B1F5E05109D101218020FFF74D
:1018E00065FD0021BDE810408020FFF75FBDA0F13D
:1018F0008041B1F5005118BF10BD01210802FFF76A
:1019000055FDBDE8104000214FF48070FFF74EBD3B
:10191000002A828914BF114322EA010181817047A4
:101920000149002008607047082C0040064810B5A7
:101930008468FFF7F5FFA168002908BF10BDE068C3
:10194000BDE8104008470000B4060020C9B241EAD3
:10195000012141EA0141016041607047002804BF54
:101960004FF0FF30704752EA030108BF42F22222D3
:1019700022F07F42110A120642F00202C0E9002161
:10198000034981606FF07F41C16000207047000013
:101990000A00016302F08ABE10B5040008BF1D4CA6
:1019A00040221D491D4802F0FDFD1B481C4990F9CD
:1019B000002091F900309A4209D190F9012091F963
:1019C00001309A4203D18978807881420AD0144943
:1019D0004022A1F1080002F01BFE40220E490F48F0
:1019E00002F0E0FD207902F01DFD10B1206870B119
:1019F000804702F053FF10B1206840B1804702F0E9
:101A0000D1FE10B1206810B18047002010BD4FF00A
:101A1000FF3010BD684C0008C8000020704C000862
:101A2000784C000802F02ABD02F03EBD02F05ABD1B
:101A300002F070BD02F088BD0020704702F0C2BF06
:101A400002F0DABF02F0FABF03F07AB803F092B8FE
:101A500003F0B2B802F012BE02F018BE044902460A
:101A60000020496A002908BF704710460847000057
:101A7000D005002002480078012818BF00207047D8
:101A8000D005002007480021016041608160C160ED
:101A9000016141618161C161016241628162084607
:101AA00070470000D005002070B5224C2049A26983
:101AB000F0B12378012B2BD0016821624168A1612C
:101AC0008168E161C168002908BF1B496162016941
:101AD000002908BF1949A16290E80E100069E3606F
:101AE000C4E904C0C4E9011201202070002070BDC7
:101AF0000868E12512A6C005C00D02D1002A18BF52
:101B00009047226A1AB1314628469047FEE7FEE721
:101B10000868E02511A6C005C00D02D1002A18BF33
:101B20009047226A1AB1314628469047FEE7FEE701
:101B300004ED00E0D0050020273E0008233E000809
:101B400068616C5F626173655F696E6974282920E2
:101B50006E656564732063666700000068616C5F92
:101B6000626173655F696E6974282920616C7265B2
:101B70006164792063616C6C6564000070B5054632
:101B80000B480E4600680B4CC005C00D03D1A06980
:101B9000002818BF8047226A32B131462846904754
:101BA000F02D08BF70BDFEE7F02D08BF70BDFEE749
:101BB00004ED00E0D005002070B50B4D0B4C2878EB
:101BC00001280AD004F10801206800F059FC012026
:101BD00028700146206800F0E9FC0121206800F02F
:101BE000E5FC002070BD000054000020F04E00080D
:101BF00010B500F055FF00283BD100F053FF00283E
:101C000037D100F051FFA0BB00F050FF88BB00F0BF
:101C100056FF70BB00F030F858BB00F045FA40BBEF
:101C200000F024FC28BB00F001FD10BB00F0B8FE62
:101C3000F8B900F0C7FEE0B900F010FFC8B900F035
:101C400071FFB0B900F0BEF898B900F0C5F880B9DE
:101C500000F0CCF868B900F0D7F850B900F0DCF823
:101C600038B900F0DFF820B900F0E8F8002808BF24
:101C700010BD4FF0FF3010BD0348002101604160EE
:101C80008160084670470000780600202DE9F04189
:101C900004000AD01C4D287878B11CA1E020FFF781
:101CA0006DFF4FF0FF30BDE8F08120A1E120FFF78C
:101CB00065FF4FF0FF30BDE8F08194E8CF1105F1EA
:101CC000040EAEE8CF11FFF7DDFE00F077F800F06C
:101CD000D1FA00F08DFC00F0A5FDFFF789FF20464A
:101CE000FFF7E2FE04F1140000F06AF804F11500B9
:101CF00000F0C8FA04F1180000F0AAFD01202870D5
:101D00000020BDE8F08100009005002068616C5F54
:101D1000636F72655F696E6974282920616C7265F2
:101D20006164792063616C6C6564000068616C5F5C
:101D3000636F72655F696E69742829206E656564DA
:101D4000732063666700000010B5134CA0B02078C4
:101D5000012807D01149E020FFF710FF20B04FF015
:101D6000FF3010BD00F066FD01F0A6FF03460C48F1
:101D70008068984208D00BA280216846FEF766FB77
:101D80006946E020FFF7FAFE02202070FFF714FFFB
:101D900020B0002010BD000090050020D84D0008A4
:101DA000604E000877726F6E6720637075737065A0
:101DB00065643A20256420687A000000002070479E
:101DC000002070470348002101604160816008469F
:101DD000704700003C06002003480021016041607C
:101DE0008160084670470000C405002005480021B6
:101DF000016041608160C1600161416181610846AB
:101E0000704700004806002002480021C1600161BF
:101E1000084670478800002001490020088070476C
:101E20004C00002004480021016041608160C160D5
:101E30000161084670470000640600200248002146
:101E400001604160084670479C0000200C4BC0EBCD
:101E5000C00203EB8202121D002818BF01280DD119
:101E6000D2E90002431C18BF12F1010306D08142DF
:101E700024BF1044884284BF01207047002070476F
:101E8000284F000870B5214A4FF0010C0CFA00F5FC
:101E900013781D4204BF6FF00E0070BD1C4B93F809
:101EA00000C015EA0C0F01D0002070BD002908BF4A
:101EB0001849C0EBC00C02EB8C02141DD0B10128F4
:101EC000F2D1207A002100F0BBFB002818BF70BDC2
:101ED000E1680029E8D0606900281CBFA0690028DB
:101EE000E2D0206988470028DED1094801782943DB
:101EF0000170D9E7486830B1096821B1C3E9011020
:101F000000F0EEF9F1E74FF0FF3070BD284F000808
:101F1000C4050020284E00082DE9F04104461C4865
:101F2000884601210078A1401F4615464FF0FF3634
:101F300001421CBF002F002D15D041462046FFF75F
:101F400085FF80B108EB0500411E2046FFF77EFFAC
:101F500048B11049C4EBC40001EB8000001D34B14E
:101F6000012C0AD011E04FF0FF30BDE8F0813A4675
:101F70002946404600F092F906E0D0F814C000234C
:101F80003A4629464046E04706463046BDE8F081DD
:101F9000C4050020284F00082DE9F05F404E05469B
:101FA0008A4630780121A9401F4614464FF0FF3879
:101FB00001421CBF002F002C16D051462846FFF7C7
:101FC00045FF88B10AEB0409A9F101012846FFF792
:101FD0003DFF48B13349C5EBC50001EB8000001D52
:101FE00035B1012D50D057E04FF0FF30BDE8F09FE4
:101FF0005546504600F0EEF84FF00008284600F035
:102000000DF9284600F058F8E8B1A9F1010000F0F8
:1020100053F800281CBF7068002814D0284600F030
:10202000D9F88146284600F0F9F8A5EB090AA0EB9B
:102030000A050646A54288BF254607EB080B184847
:1020400081688E4202D94FF0FF3825E014483146AE
:102050004268484600F022F911482A46594640682D
:102060005044FEF7D3FA3146484600F039F80C48A0
:1020700031464268484600F039F9A844641B09EB30
:102080000605CBD1A04607E0D0F818C000233A4699
:1020900021465046E04780464046BDE8F09F00009C
:1020A000C4050020284F00080248002141608160DB
:1020B00008467047A4000020074AA0F10061914241
:1020C00007D30649084440F20F2181429CBF0020FB
:1020D0007047012070470000FFFF0F00008800E0FC
:1020E0002DE9F05F0546324FA0F10060DFF8C480B3
:1020F00040F20F29B84203D305EB0800814523D9EC
:1021000011B32D4C00204FF00B0B00BF04EB8002ED
:102110005268954204D3401CC0B20B28F6D35846EF
:10212000264A52F82000B5FBF0F300FB1350461886
:1021300018BFDFF88CA037D0A5F10060B84224BFEB
:1021400005EB0800484503D34FF0FF30BDE8F09F92
:102150001C48FEF71FFF28465FF0000104EB8102D8
:102160005268904204D3491CC9B20B29F6D3594690
:102170003AF811000221FEF713FF092804BF29468F
:102180000020E1D104EB80025268914204D3401C4C
:10219000C0B20B28F6D35846084951F82000054430
:1021A000B04201D8361AC7D10020BDE8F09F000028
:1021B000FFFF0F00008800E0F84F0008C84F00083C
:1021C00028500008F3000100014800687047000033
:1021D000904E00080E4AA0F10061914208D30D4ACA
:1021E000811840F20F22914224BF4FF0FF30704718
:1021F0000021094A02EB81035B68984204D3491C21
:10220000C9B20B29F6D30B2152F821007047000008
:10221000FFFF0F00008800E0F84F00080E4AA0F111
:102220000061914208D30D4A811840F20F22914279
:1022300024BF4FF0FF3070470021094A02EB8103B1
:102240005B68984204D3491CC9B20B29F6D30B2111
:10225000044850F821007047FFFF0F00008800E09D
:10226000F84F0008C84F0008014840687047000058
:10227000904E000802480021018008467047000087
:102280005C000020044801210278002A12BF4FF0B0
:10229000FF300170002070475C00002010B513462D
:1022A0000D4C0A46A0F1006C0146A44507D3DFF8A7
:1022B0002CC001EB0C0040F20F2C844508D9002AF9
:1022C00018BF002B04D01846FEF7A0F9002010BD5F
:1022D0004FF0FF3010BD0000FFFF0F00008800E04E
:1022E00010B5FEF7D3FE002010BD00002DE9F05F11
:1022F0000E46044600214C4BA4F1006C08461546DE
:102300009C4506D3DFF824C140F20F23A444634563
:1023100074D9002E18BF002A70D014F0030F16BF16
:1023200004F001030121002B68D116F0030F16BF42
:1023300006F001030120002B60D14FF6FF78012940
:1023400060D18F1E012804BF092026440DD0A0B102
:1023500058E02068401C44D12968481C16BF20461C
:102360000920FEF773FE241D2D1DA64202D909285F
:10237000EFD043E0092841D13CE0B6F102091DD07D
:1023800026469246092004EB090BB34510D90928CB
:1023900034D13068401C31D1DAF80010481C16BF27
:1023A00030460920FEF752FE361D0AF1040AECE71A
:1023B000092804BFA4EB09044D441FD11A4A2988F7
:1023C000A4F100632046934205D3184B40F20F223C
:1023D00003449A4205D910F0010F04BF0288424518
:1023E00002D03846BDE8F09F414503D0FEF70EFE0F
:1023F000092803D10020BDE8F09FFFE74FF0FF3030
:10240000BDE8F09F20884045F8D12988414516BF96
:1024100020460920FEF7FAFDA41CAD1C0928EDD1C9
:10242000B61EEFD1E6E70000FFFF0F00008800E0D6
:10243000C2B2FF2A18BF5FEA104110D00A4B33F82E
:10244000120008420BD062F3070C03EB4202604615
:10245000128B61F31F400A4203D000F091BE0320AB
:10246000704700F057BE0000FC05002010B5302179
:102470000248FEF74AF9002010BD0000FC050020CC
:102480002DE9F04188B00546002908BF434991F87D
:1024900000C0DFF80C812C0C00264FF0FF37EAB2A9
:1024A000BCF1020F44D04878FF2A18BF002C70D02E
:1024B000BCF1FF0F18BFFF286BD03A4931F812105A
:1024C000214202BF6FF00E0008B0BDE8F081344930
:1024D000EBB2BCF1010F49698DF80020324A02EBE2
:1024E000430503D0BCF1000F10D01AE0CDE9014143
:1024F00018F800008DF80900684600F0EBFD002890
:1025000047D1298B05F11800214309E0CDE90146A7
:10251000684600F0DFFDD8BB298B05F11800A14308
:10252000018028882043288008B03046BDE8F0812B
:1025300062F3070064F31F404A786CF307034C68AA
:1025400062F30F2324B38DF800006168000CCDE91D
:102550000101C3F3072000281CBF18F800008DF804
:102560000900684600F0B6FD9DF800008DF81000E7
:102570000198ADF81200A0680590E068401C03D0F7
:1025800004A906A800F08CFD08B03046BDE8F08133
:10259000FFE708B03846BDE8F08100004850000869
:1025A00040500008984E0008FC050020C3B2FF2BE5
:1025B00019BF5FEA104203294FF0FF30704710B592
:1025C0000A4830F8134014420DD000EB4300008B52
:1025D000104208D0604663F3070062F31F4000F02A
:1025E000DDFD002010BD4FF0FF3010BDFC050020C8
:1025F0000020704710B5FFF731FA040003D103A1A2
:10260000E220FFF7BBFA204610BD000068616C5F56
:10261000686561705F6E657728293A206E6F206863
:1026200065617020616E796D6F72650003480021ED
:10263000016041608160C160084670472C0600203F
:102640002DE9F0411E4A044602EB84050029686822
:1026500008BF1C490B786FF00E01012B11D01A4EE8
:102660004FF0010C0CFA04F733784FF000081F42CA
:1026700007D011780F421CBF4046BDE8F08158B921
:1026800002E00846BDE8F0810220FFF7B3FF002317
:1026900068600370686843700C480021066020463B
:1026A00000F096FD06480178394301706A68002100
:1026B00008461170696848704046BDE8F081000026
:1026C0002C06002058500008B04E00086000002082
:1026D00070B50F4C012202FA00F621780E4204BFB9
:1026E0004FF0FF3070BD04EBC0050A4955F8040FE8
:1026F000FFF7C6FE002818BF70BDA1782868FFF755
:1027000055FF0548018831430180002070BD00005D
:10271000804F0008504E00084C000020074901225D
:10272000824009880A4204BF4FF0FF3070470449D5
:1027300001EBC00089784068FFF738BF4C000020EB
:10274000804F000807490122824009880A4204BFDD
:102750004FF0FF307047044901EBC00049784068F2
:10276000FFF724BF4C000020804F000870B50D49D2
:102770000122824009880A4204BF4FF0FF3070BD39
:10278000094D05EBC00454F8040FFFF751FEA9787A
:1027900081420CBF6978C9B22068BDE87040FFF77C
:1027A00005BF00004C000020804F000870B50446B3
:1027B000FFF70AFD0546FFF757FDAC4224BF28444A
:1027C000A04207D9206805490840B0F1005F04BF66
:1027D000002070BD4FF0FF3070BD00000000FE2FE4
:1027E00001F0FCB970B50446FFF7EEFC0546FFF7B3
:1027F0003BFDAC4209D329182046A14205D9006807
:1028000007490840B0F1005F02D04FF0FF3070BDC3
:102810006068216881F3088880474FF0FF3070BD01
:102820000000FE2F024800210172C1600846704777
:10283000B405002010B5FFF71DF9002804BF4FF0C4
:10284000FF3010BD4FF44070FEF78EFD002010BD2C
:1028500010B5040008BF114CFDF712FD2168884235
:1028600006D00FA1E320FFF789F94FF0FF3010BD2C
:10287000FDF70AFD6168884206D014A1E320FFF746
:102880007DF94FF0FF3010BD1B48226802604160A7
:1028900000210172C160084610BD00001C4E0008F6
:1028A00068616C5F626173655F696E697469616CB0
:1028B00069736528293A20696E636F727265637463
:1028C00020737461636B2073697A650068616C5F63
:1028D000626173655F696E697469616C69736528AB
:1028E000293A20696E636F7272656374206865614E
:1028F000702073697A650000B405002040B200F0D2
:102900001F01012202FA01F140094FF0E02202EB1F
:102910008000C0F8801170470148C068704700000F
:10292000B40500202DE9F041064619480D46B0FBDC
:10293000F5F71446FFF79EF8002818BF002D22D0A7
:10294000002E18BFFF2C1ED012481449C660124832
:102950000068B0FBF7F0421EB2F1807F28BF012073
:1029600009D24FF0E0204261F0220A700022826119
:102970000722026100204FEA041210F0FF000A70E3
:1029800008BFBDE8F0814FF0FF30BDE8F0810000E6
:1029900040420F00B40500205800002023ED00E065
:1029A00007480021016041608160C16001614161AF
:1029B0008161C161016241628162C1620846704702
:1029C0008406002004480078012802D10449034805
:1029D0000860002070470000E44E0008A55AA55A80
:1029E000500000201A49097801291CBF00207047B7
:1029F00030B490F800C0184D0023164C2905BCF1E6
:102A0000000F13D0226812F0010F08D02A6812F0CC
:102A1000010F04D00A68002AFCD081F800C05A1CBB
:102A200010F801CF13B2BCF1000FEBD120680A22DD
:102A300010F0010F07D0286810F0010F03D00868CC
:102A40000028FCD00A70581C30BC00B2704700004F
:102A5000E44E0008800E00E0000E00E00020704709
:102A60000B484FF00002007810F0010F0BD009491D
:102A7000094BD1E900011B6818185141921E4240D0
:102A80000A4318BF70474FF0FF30014670470000FF
:102A9000E84E0008107AFF1F187AFF1F00207047C9
:102AA00000207047002070470020704700207047CA
:102AB0004178007881420CBF01200020704700203F
:102AC0007047417800291CBF491E4170704770B59E
:102AD000044640782278904204BF4FF0FF3070BD2A
:102AE00091B1D4F80CC0BCF1000F06D0A5780A460D
:102AF000002329466068E04706E0A378E278606832
:102B000013FB0200FDF782FD6078401C6070A07826
:102B1000401CC0B2A0702178884204BF0020A07081
:102B2000002070BD034800210160416081600846BB
:102B300070470000B4060020012202FA01F10840AB
:102B400018BF012070470278012303FA01F11143F5
:102B5000017070472DE9F0412D4E0500746808BFE3
:102B60002C4D3078012804BF0020BDE8F081287882
:102B7000FF281BD0687800F0C5FBB8B1002C04BF5B
:102B8000254C746029686868A160E060042794F8A7
:102B90000880FA02A021D5004FF0800CB8F1050F93
:102BA0001CD2DFE808F0070A0F0F14004FF0FF30C7
:102BB000BDE8F0812170678002E0217020216180F2
:102BC00062600EE02170A4F802C0656009E0217027
:102BD0004FF4807161804902616002E0217067807A
:102BE0006260A27A217802F0070241EA4201217074
:102BF000E17A032918BF00F09BFAE17A03291CBF90
:102C0000E06800F0CBFA012030700020BDE8F081D0
:102C1000B4000020E0510008C0060020F0B51E4EB0
:102C20000C4683B0716836781D469446002E2ED02F
:102C30000F7AFF2F18BFBCF1000F28D0002C1CBF4B
:102C40004E68864223D92718B74284BFBE1BA41BF7
:102C5000B0F5803F9CBF2618B6F5803F17D80226F6
:102C600066F3070260F31F42A0B2CDE900C091F8FD
:102C700000C0487A614600F0FFFB002D04BF03B09E
:102C8000F0BD002818BF00242C6003B0F0BD03B0D5
:102C90004FF0FF30F0BD0000B40000202DE9FF4FE1
:102CA000B74F8946044679683878A1B015468846FA
:102CB00000281CBF087AFF2800F0C280002D1EBF2C
:102CC000B9F1000F4868A0427ED909EB04018142A6
:102CD00084BF081AA9EB0009B4F5803F9CBF09EB3B
:102CE0000400B0F5803F6FD898F80B00032807D098
:102CF000012814BF01210021D8F80C0000F04EFA81
:102D00009F48A6B21FFA89FA446821466088B6FB3C
:102D1000F0F200FB1263C21A97B2BAFBF0F200FBAA
:102D200012ACCDF820C0002B7BD0002A00F0E2804E
:102D3000AAEB070292B2B2FBF0FB00FB1B2008904B
:102D4000AFB12782022060F30702B8B2CDE900508C
:102D500091F800C0487A66F31F42614600F0E6FD34
:102D60000020208201F0A6F9F01986B23D44ABF1B3
:102D700001001FFA80FABBF1000F38D06088208272
:102D800002217F4F61F30702218A7868CDE9005163
:102D9000017866F31F42407A00F0C8FD00202082CF
:102DA000D7F804B04FF496779BF800109BF8090011
:102DB00000F0B0FA80B13800A7F10107F4D1714BEF
:102DC0004021A3F1200200E03AE010A8FDF73EFB0D
:102DD00010A9E52000F052FF608881198EB20544E9
:102DE0005FEA0A00AAF101011FFA81FAC6D1089828
:102DF00090B120820221624861F30702218A406873
:102E0000CDE90051017866F31F42407A00F08EFD53
:102E10000020208201F04EF998F80B1000240329BD
:102E200000E012E01CBFD8F80C0000F0B7F92498BD
:102E3000002818BFC0F80090204625B0BDE8F08FEC
:102E400025B04FF0FF30BDE8F08F002A1CBF501EA8
:102E50001FFA80FB7DD0608820820221484F61F3F9
:102E60000702218A7868CDE90051017866F31F4294
:102E7000407A00F05BFD00202082D7F804A04FF4D8
:102E8000967700BF9AF800109AF8090000F042FA0D
:102E900070B13800A7F10107F4D13A4B4021A3F1FA
:102EA000200210A8FDF7D2FA10A9E52000F0E6FEF6
:102EB000608881198EB205445FEA0B00ABF1010115
:102EC0001FFA81FBC7D108980028A5D020820221D3
:102ED0002B4861F30702218A4068CDE9005101784F
:102EE00066F31F42407A00F021FD0020208201F0AD
:102EF000E1F891E7BA452CD92782022060F3070256
:102F0000B8B2CDE9005091F800C0487A66F31F428C
:102F1000614600F00BFD4FF0000BA4F810B001F07B
:102F2000C9F8AAEB0700208205EB070C0225F1196E
:102F3000134865F3070261F31F42218A4068CDE917
:102F400000C10178407A00F0F1FCA4F810B061E70C
:102F5000FFE7A4F810C0022060F307021FFA8CF00C
:102F6000CDE9005091F800C0487A66F31F426146EF
:102F700000F0DCFC0020208201F09CF84CE700000F
:102F8000B40000200852000803484068006A002886
:102F900008BF704700470000A800002001494968A9
:102FA00089690847A800002001494968C96908479C
:102FB000A80000204178002904BF00207047027853
:102FC00083781344591A8A4298BF891A406800EBE3
:102FD0000110704728B14178007881421CBF002061
:102FE00070470120704700281FBF41780029491E03
:102FF000417008BF70477047427803789A4204BF17
:103000004FF0FF3070478278436803EB0212D1E93A
:10301000003CC2E9003C01F1080302F10801D3E9D8
:103020000023C1E900234178491C41708178491C83
:10303000C9B281700278914204BF002181700020E2
:103040007047002818BF40787047000000281CBF58
:103050004288002A16D0A2F57F41FF391CBF00210B
:103060004FF0010C0ED000BF0CFA01F3934304D0D3
:10307000491CC9B21029F7D304E0FF2902D0037814
:10308000092B02D94FF0FF30704710B50279034881
:1030900050F82300FEF78EF8002010BD1C510008E8
:1030A000002912BF00284FF0FF3070470A780270E5
:1030B0004A8842800979017100207047002912BFB7
:1030C00000284FF0FF3070470A780270498841604D
:1030D00000207047002804BF4FF0FF30704770B5E4
:1030E00010F8044B0546092C84BF4FF0FF3070BD2B
:1030F0000648012150F82400FEF740F9044829460B
:1031000050F82400FEF70EF8002070BD4C51000866
:103110001C510008C2B2FF2A12BF5FEA104103200F
:103120007047024850F82200FEF755B81C510008BD
:1031300030B5114B83B0C4B2D3E918129B6ECDE900
:103140000012010C02934FF0FF308DF8004001ADEA
:103150000191092C84BF03B030BD0848012150F80B
:103160002400FEF70BF90448294650F82400FDF727
:10317000D9FF03B0002030BD1C5100084C5100089D
:10318000C2B2FF2A12BF5FEA104103207047024813
:1031900050F82200FEF726B81C51000800F0FF0C82
:1031A000BCF1FF0F19BF5FEA104303294FF0FF3056
:1031B00070470A1C18BF012210B50448194650F880
:1031C0002C00FEF716F8002010BD00001C5100086E
:1031D0002DE9F04F8BB004460D0008BF454D28780F
:1031E00001280CD0687850B9434E21464FF00008B2
:1031F000306820B10078FFF79FFC012804D00BB0A5
:103200006FF00E00BDE8F08F3C4821460078FFF7D4
:1032100093FC012802BF00200BB0BDE8F08F684688
:10322000344F0DF1180A0DF10C09D7E90C12BB6BE4
:10323000CDE900120293D7E90C12BB6B0593CDE9DF
:10324000031231680DF1200B01EB0411091DFFF78A
:1032500035FF306800EB041000F10C014846FFF721
:103260002DFF306800EB0410011D5046FFF718FFDA
:10327000306800EB041000F10C015846FFF710FF16
:103280006846FFF727FF06A8FFF7E0FE03A8FFF751
:1032900021FF08A8FFF7DAFE07F12400012150F80A
:1032A00024603046FEF776F801213046FEF77EF8BE
:1032B00000213046FEF77AF807F11800696850F8E7
:1032C000240061B908376946B7E84C108DE84C1006
:1032D000AA780B4B5A430092EA78ADF80820FDF724
:1032E000D7FF21460548FFF72EFC0BB04046BDE84E
:1032F000F08F00008851000860000020B00000201E
:10330000A0860100014602480078FFF715BC0000C6
:10331000B00000202DE9F0410C464049054690B030
:1033200008782946FFF708FC002811BF002C4FF051
:10333000FF3010B0BDE8F08124F0010738480021CB
:1033400050F825502846FDF772FF01212846FDF769
:103350006EFF01212846FDF773FFDFF8C8804FF4A8
:1033600080344FF0FF3641462846FDF750FF58B1F4
:10337000002239462846FDF7EDFF4FF48030A98A38
:1033800011F0020F13D10EE02000A4F10104EAD1E4
:1033900025A32D4A40216846FDF758F86946E520E7
:1033A00000F06CFC2AE00100A0F10100E7D128B395
:1033B00026492846FDF738FF01212846FDF749FF39
:1033C000298B4FF4803011F0020F07D00100A0F1DB
:1033D000010017D0298B11F0020FF7D12846FDF715
:1033E0004FFF00212846FDF722FF01212846FDF767
:1033F0001EFF01212846FDF701FF002610B03046D0
:10340000BDE8F08112A3104A40216846FDF71EF87E
:103410006946E52000F032FCF0E70000B000002033
:10342000A051000801000300735F686C5F6932639C
:103430005F69736465766963657265616479322872
:10344000293A657635000000C451000800040010D8
:10345000735F686C5F6932635F6973646576696323
:103460006572656164793228293A4932435F464C76
:1034700041475F42555359002DE9F04F91B08846BE
:10348000DDE91A67FC490446154608782146FFF72E
:1034900053FB002811BFB8F1000F4FF0FF3011B0FF
:1034A000BDE8F08F15F0FF0001D0032804D911B05A
:1034B0006FF00E00BDE8F08F002E02BF6FF001002C
:1034C00011B0BDE8F08F002F00F0A98128F00100B5
:1034D000CDE90006E94802974FF0FF3750F8246025
:1034E0004FF080744FF400313046FDF7BBFE88B1D9
:1034F0002000A4F10104F5D1E1A3E74A4021684688
:10350000FCF7A4FF6946E52000F0B8FB11B038468F
:10351000BDE8F08F15F0FF0F7ED04FF000090121BC
:103520003046DDF80080FDF78BFEDFF870A34FF426
:10353000803451463046FDF76AFEB8B14A464146EE
:103540003046FDF707FFDFF858934FF480384946BF
:103550003046FDF75CFE70B10020044682460490C0
:10356000E8B201281AD002281DD023E02000A4F1DF
:103570000104DED104E05FEA0804A8F10108E6D105
:10358000C8A3C54A40216846FCF760FF6946E520AC
:1035900000F074FB11B03846BDE8F08F0124280C10
:1035A0008DF8100006E00224280C010A8DF8101096
:1035B0008DF811005FEA04080DF1100918BFDFF85B
:1035C00004B318D044B1601EC4B2CA46A8F10100C9
:1035D00009F101091FFA80F89AF800103046FDF74A
:1035E000C1FE4FF4803559463046FDF710FE48B312
:1035F000B8F1000FE6D1002401213046FDF729FE85
:1036000031884FF4803011F4007F09D00100A0F11F
:10361000010029D0318800E029E011F4007FF5D1C4
:103620003046FDF72DFE14B3A7A39B4A4021684600
:10363000FCF70CFF6946E52000F020FB11B02046A6
:10364000BDE8F08F2800A5F10105CCD1A5A3924AD1
:1036500040216846FCF7FAFE6946E52000F00EFBC3
:1036600011B03846BDE8F08F4FF0FF34D8E7DDE900
:103670000141814A009B01290FD002294CD0B6F8A4
:1036800000C04FF6FF704CF4807CA6F800C0B6F87E
:1036900014C01CF0010F7DD095E031884FF6FF700B
:1036A00041F480713180B18A11F0010F07D101001E
:1036B000A0F101006FD0B18A11F0010FF7D043F0F3
:1036C0000100507050783082B18A4FF6FF7011F0CF
:1036D000020F07D10100A0F101005CD0B18A11F006
:1036E000020FF7D0308820F48060308072B6308BC3
:1036F000308840F40070308062B6B08A10F0400F1D
:10370000FBD0308A2070308810F4007FFBD13088E5
:1037100040F48060308082E0308840F40060308087
:1037200031884FF6FF7041F480713180B18A11F019
:10373000010F07D10100A0F101002CD0B18A11F0D6
:10374000010FF7D043F001014FF6FF70517051782F
:103750003182B18A11F0020F07D10100A0F10100FE
:103760007CD0B18A11F0020FF7D072B6308B30885E
:1037700020F48060308062B6B08A10F0040FFBD075
:1037800072B601213046FDF764FD308A207062B6C2
:10379000308A01E00DE061E06070308810F4007F55
:1037A000FBD1308840F480603080308820F40060A5
:1037B00034E05FEA000CA0F101004FD0B6F814C06D
:1037C0001CF0010FF5D043F001004FF6FF7C507064
:1037D00050783082B08A10F0020F08D15FEA0C00F6
:1037E000ACF1010C3AD0B08A10F0020FF6D0308B59
:1037F00069B1032917D0B08A10F0040FFBD0308ACA
:10380000491E04F8010B03290DD00029F1D130889D
:1038100010F4007FFBD1308840F48060308011B01C
:103820000020BDE8F08FB08A10F0040FFBD0308884
:1038300020F48060308072B6308A04F8010B308842
:1038400040F400703080308A04F8010B62B6B08A10
:1038500010F0400FFBD0308A2070D8E729A30E4A21
:1038600040216846FCF7F2FD6946E52000F006FAC3
:1038700011B03846BDE8F08FB0000020A05100081C
:10388000735F686C5F6932635F776169745F6966F3
:103890005F62757379282900C45100080100030094
:1038A00082000700735F686C5F6932635F747261E6
:1038B0006E73616374696F6E5F626567696E2829F4
:1038C0000000000084000700735F686C5F6932636A
:1038D0005F7472616E73616374696F6E5F656E644D
:1038E00028290000735F686C5F6932635F777269D3
:1038F00074655F646174615F706F6C6C696E67287A
:1039000029000000735F493243526F7574696E6518
:10391000735F4932435F4D61737465725F427566D0
:103920006665725265616428290000002DE9F04F38
:103930000D4691B086490446DDE91A76087891462D
:103940002146FFF7F9F8002811BF002D4FF0FF3096
:1039500011B0BDE8F08F19F0FF0001D0032804D9A1
:1039600011B06FF00E00BDE8F08F002F02BF6FF0B6
:10397000010011B0BDE8F08F002E00F0E580754821
:1039800025F001054FF0807850F82440CDF8044030
:103990004FF400312046FDF765FC98B15FEA08005E
:1039A000A8F10108F4D1441E6BA3714A4021684676
:1039B000FCF74CFD6946E52000F060F911B02046A7
:1039C000BDE8F08FDDF804804FF0000B0121404688
:1039D000FDF736FC4FF4803466494046FDF717FC8E
:1039E000C8B15A4629464046FDF7B4FC624D4FF433
:1039F000803429464046FDF70AFC88B10020804605
:103A000005460090019909F0FF00029101281BD0A2
:103A1000022820D028E02000A4F10104DCD103E03A
:103A20002000A4F10104E4D14FF0FF3453A3504A25
:103A300040216846FCF70AFD6946E52000F01EF9C2
:103A400011B02046BDE8F08F4FEA19404FF0010851
:103A50008DF8000008E04FEA1940010A8DF80010C7
:103A60004FF002088DF80100002F08BF002606EB7A
:103A700008001FFA80F9B9F1000FEA4618BFDFF815
:103A80001CB125D0B8F1000F0BD0A8F1010000F057
:103A9000FF085546A9F101000AF1010A1FFA80F951
:103AA00008E03EB13D467F1C701E86B2A9F10100C0
:103AB0001FFA80F929780298FDF754FC4FF48034FE
:103AC00059460298FDF7A3FB40B3B9F1000FD9D1D5
:103AD000019D002401212846FDF7BBFB28884FF4F7
:103AE000803110F4007F07D00800A1F1010128D037
:103AF000288810F4007FF7D12846FDF7C1FB1CB3DE
:103B000027A31B4A40216846FCF7A0FC6946E52034
:103B100000F0B4F811B02046BDE8F08F2000A4F109
:103B20000104CDD1441E25A3114A40216846FCF76B
:103B30008DFC6946E52000F0A1F811B02046BDE8F3
:103B4000F08F4FF0FF34D7E711B00020BDE8F08FC1
:103B5000B0000020A0510008735F686C5F69326399
:103B60005F776169745F69665F62757379282900A0
:103B7000C45100080100030082000700735F686CF5
:103B80005F6932635F7472616E73616374696F6ED3
:103B90005F626567696E28290000000084000700E5
:103BA000735F686C5F6932635F7472616E736163C7
:103BB00074696F6E5F656E6428290000735F686CBE
:103BC0005F6932635F77726974655F646174615FB6
:103BD000706F6C6C696E67282900000070B5044630
:103BE000154D164800262968006881420FD0002331
:103BF000032219462860FCF7B2FB090541EA10319F
:103C000000050F4A0023FCF7AAFBC5E90201D5E92C
:103C10000212A1FB040302FB043201FB0621000D8A
:103C200040EA013050EA115104BF002070BDFCF79A
:103C300037FB002070BD0000680000205800002005
:103C400040420F0040B200F01F01012202FA01F1D0
:103C500040094FF0E02202EB8000C0F8801170476D
:103C600040B200F01F01012202FA01F140094FF0B9
:103C7000E02202EB8000C0F80011704770B5C4B2BA
:103C80000B480E4600680B4DC005C00D03D1A86956
:103C9000002818BF80472A6A32B131462046904733
:103CA000F02C08BF70BDFEE7F02C08BF70BDFEE72A
:103CB00004ED00E0D005002000B585B06846FDF7B2
:103CC0008DFB009805B000BD70B5FDF769FC0D4D8A
:103CD00028680446FFF72CFA68680546FFF728FABB
:103CE00001212046FFF75AFA00212846FFF756FA2D
:103CF0000548FFF773FF2846BDE870400121FFF734
:103D00004DBA0000584E0008B0AD01003A480125F8
:103D100086B0017801290DD0057038480068FDF79C
:103D2000B5FFFEF711F80020FEF7B8FE00210120D4
:103D3000FEF7A8F8FF2432498DF804408DF81040B2
:103D4000D1E90001CDE90201FDF776FE88B902A8AC
:103D5000FDF722FE68B92B490020FDF779FE40B936
:103D6000FEF77EFE284AC2E90C011046FDF712FE5E
:103D700018B15021142000F06BFA04A8FDF764FE7E
:103D800000281CBF0120FDF761FE01A8FDF756FECB
:103D900000281CBF0120FDF753FE8DF8044001A848
:103DA000FDF742FE80B9FDF73DFE9DF804000128B5
:103DB00004BF0120FDF73AFE4FF0FF319DF80400EB
:103DC00000F09EF9FDF72EFE8DF800406846FDF7E5
:103DD0003BFE401C08BF8DF800504FF0FF319DF8AE
:103DE000000000F08DF94FF0FF31012000F088F95C
:103DF0001421502000F02CFA000000204800002080
:103E0000404C00080002000808000020FCF780BABF
:103E10000121FCF769BAFEF79DBEFEF7FFBEFEF773
:103E20003DBFFCF775BA0121FCF75EBA080018BF68
:103E3000FEF7D8FD00210220FEF74AFC034C204685
:103E4000FEF7CEFC0220FEF791FCF8E790D00300CD
:103E50002DE9F04105462948294E00EB850056F82A
:103E6000257044683846FDF737FB94F82410227A11
:103E7000C0B2914206D2226A505494F82400401CE9
:103E800084F8240094F82400217A884208BF56F868
:103E900025702CD180213846FDF70AFB0128F9D086
:103EA00000213846FDF7FBFA56F825000022602174
:103EB000FDF705FB002084F8390084F8240004F1A4
:103EC0002800FEF7F5FD012804BF04F12800FEF7E5
:103ED000F8FD04F12800216AFEF7F9FDD4E9051088
:103EE000002908BFBDE8F081BDE8F0410847E17A4C
:103EF0003846BDE8F041FDF7F1BA0000D8060020D1
:103F00005C5200082DE9F047164E044656F824503E
:103F1000687AE8B914482F4600EB0410D0F8048002
:103F200090F90C904046FDF71DFC00214046FDF73E
:103F300010FC387AFF2807D0002201214046FDF707
:103F4000E7FC4846FEF7DAFC56F824100320087513
:103F5000E968002908BFBDE8F0872869BDE8F04797
:103F600008470000840600205C50000870B51A491C
:103F7000002801EB80014C680CBF184D184DE16919
:103F800000291CBF206A8847002084F82D0084F88F
:103F90002E004FF400412846FCF74EFE4FF400611E
:103FA0002846FCF749FE4FF480612846FCF744FEA2
:103FB0004FF400712846FCF73FFE4FF4807128460D
:103FC000FCF73AFE08212846FCF736FE686840F008
:103FD0000400686070BD0000E80600200064004036
:103FE000006800402DE9F04385B04FF00008040060
:103FF0002D48CDF8008000EB8400CDF80480CDF88A
:104000000880CDF80C80CDF8108045680DF10A06C7
:104010006F6A0CBF13203F20FFF714FE85F82F8036
:104020003846FFF70EF800281CBFDFF88080DFF865
:10403000809024D03846FEF7BDFF0188002CC1F3E4
:104040000A010091817931708168CDF80B10C06848
:10405000CDF80F000CBF404648466946FCF794FE79
:1040600004280CD03846FEF7BEFF296900291CBF82
:10407000686988473846FEF7E4FF0028DAD13846F9
:10408000FEF7DFFF002804BF05B0BDE8F083002C79
:104090000CBF13203F20FFF7E3FD012085F82F0020
:1040A00005B0BDE8F0830000E80600200064004091
:1040B0000068004030B5104891B04FF496744568E0
:1040C0002978687AFFF726F9002804BF11B030BDBF
:1040D0002000A4F10104F3D1084B4021A3F12002F8
:1040E0006846FCF7B3F96946E520FFF7C7FD11B054
:1040F0004FF0FF3030BD0000B4000020085200082F
:10410000F0B585B04FF0FF360D4604460396FF2804
:1041100070D02CB103A9FDF795FC401C6CD074E065
:1041200000208DF808000A26012509270F224FF4E8
:104130007A714348FEF7F6FB00210846FEF7C8FAFD
:1041400000210120FEF7C4FA00210220FEF7C0FA88
:1041500000210320FEF7BCFA00210420FEF7B8FA84
:1041600000210520FEF7B4FA082202A96846FDF7EF
:1041700061FC344C28B99DF800509DF80170FDF7A2
:1041800057FC642015FB00F5761E0020FEF7DAFAD6
:104190000120FEF7D7FA0220FEF7D4FA0320FEF73B
:1041A000D1FA0420FEF7CEFA0520FEF7CBFA6068BC
:1041B00061680A1AAA42FBD30020FEF7AFFA012079
:1041C000FEF7ACFA0220FEF7A9FA0320FEF7A6FAE2
:1041D0000420FEF7A3FA0520FEF7A0FA642017FBDF
:1041E00000F061686268521A8242FBD3002E08BF59
:1041F0000A26C9E713E0FFE7012C08BF12481CD0CC
:10420000022C14BF0396114817D00398411C06D006
:10421000FDF720FC002804BF0398FDF71DFC681C77
:1042200004BF05B0F0BD2846FDF714FC002804BF0C
:104230002846FDF711FC05B0F0BD0390E5E700004E
:10424000254C000800000020008000080000020843
:10425000304C06460D46207801280ED001202070F3
:104260002D480068FDF712FDFDF76EFD0020FEF7FA
:1042700015FC00210120FDF705FE00210846FEF790
:1042800027FA00210120FEF723FA00210220FEF781
:104290001FFA00210320FEF71BFA00210420FEF77D
:1042A00017FA00210520FEF713FA0F224FF47A7156
:1042B0001A48FEF737FB0020FEF744FA0120FEF70C
:1042C00041FA0220FEF73EFA0320FEF73BFA0420F3
:1042D000FEF738FA0520FEF735FA62686068811A41
:1042E000B142FBD30020FEF719FA0120FEF716FABF
:1042F0000220FEF713FA0320FEF710FA0420FEF75F
:104300000DFA0520FEF70AFA62686068811AA94270
:10431000FBD3D0E70000002048000020254C000817
:10432000FEE750211420FFF793FF000070B505460B
:1043300008202874042000266874AE74EE74FF21EF
:1043400029753446697505F11C00FDF7FFFA711EE9
:1043500069622748A861EC8205EB8612701C9462A2
:10436000D462146354639463D46314645464946493
:10437000D464146554659465D4651466C6B25466F5
:10438000082EE9D35FF0000005EB8012401CC2F854
:104390002842C2F82C42C2F83042C2F83442C2F875
:1043A0003842C2F83C42C2F84042C2F84442C2F825
:1043B0004842C2F84C42C2F85042C2F85442C2F8D5
:1043C0005842C2F85C42C2F86042C0B2C2F86442CD
:1043D0000428D9D30749284600F01AF829462C703A
:1043E000BDE870404FF44A72034800F011B9000074
:1043F000404B4C00884D0008A04D000810B5083017
:104400000222FCF7D7F8002814BF0020012010BDBD
:104410000023036000F108024360D1E90001C2E912
:10442000000170472DE9F041114907460C4611483B
:104430000222FCF7BFF8104E002538B9B07AA178F7
:10444000884202BF002F0020BDE8F081002101203A
:10445000FDF718FD0848064900F1080205604560AF
:10446000D1E90001C2E9000135700020BDE8F0810A
:10447000B84C0008C8FF0120C0FF012009480849C6
:104480000023036000F108024360D1E90001C2E9A2
:10449000000104480374FF2141741846704700006E
:1044A000B84C0008C0FF012070B50B4C05460B4806
:1044B00021460222FCF77EF838B90948A278817AB1
:1044C000914204BF017C012902D04FF0FF3070BD42
:1044D000407C2870002070BDB84C0008C8FF012047
:1044E000C0FF01200A49094A4FF0000CC1F800C082
:1044F00001F10803C1F804C0D2E90012C3E90012B7
:10450000034901220A74487460467047B84C000899
:10451000C0FF01200B480A4A0021016000F1080396
:104520004160D2E90002C3E9000206488174C17407
:1045300041618161C16101624162084670470000CA
:10454000B84C0008C0FF01202DE9F041114D144680
:104550000E460746104829460222FCF72BF838B9C8
:104560000E4BA978987A884204BF987C012803D022
:104570004FF0FF30BDE8F081D87CA04238BFDC7C32
:104580003470224603F114013846FCF73FF800204E
:10459000BDE8F081B84C0008C8FF0120C0FF012031
:1045A000002070472DE9F0410F4616491646044693
:1045B0000D4615480222FBF7FDFFA8B91348A9785C
:1045C000807A884210D17CB12068B6EB900F0BD86E
:1045D00010F0030F08D000F00301012904D00321DB
:1045E00031EA000004D009E04FF0FF30BDE8F0816F
:1045F0003B46324601206168FDF78EFC0020BDE895
:10460000F0810000B84C0008C8FF0120C0FF012065
:104610002DE9F0410F461649164604460D46154849
:104620000222FBF7C7FFA8B91348A978807A88420D
:1046300010D17CB12068B6EB900F0BD810F0030FAF
:1046400008D000F0030101290ED0032131EA000057
:1046500004D009E04FF0FF30BDE8F0813B46324620
:1046600001206168FDF798FC0020BDE8F0810000A2
:10467000B84C0008C8FF0120C0FF012010B5FEF7AC
:1046800095F8002818BF4FF0FF3010BD10B5044654
:10469000FEF78CF800281CBF4FF0FF3010BD2046FD
:1046A000FEF7A0F84FF0FF3010BD00002DE9F041FB
:1046B0001A4E0446307820B9502231461848FFF788
:1046C00071FF01203070154D4022214606F1100087
:1046D000FBF770FFF0B194E8CF1105F1100EAEE8D2
:1046E000CF1104F1200090E80F10D4E90D67E46BBE
:1046F0006E648EE80F10C5E912740A492846FFF768
:1047000087FE00202870294650220548FFF780FFC9
:1047100000F00AF80020BDE8F08100000801002048
:10472000F84C0008484D00082DE9F041194D287853
:1047300028B94FF4887229461748FFF733FF01273D
:1047400005F8107B134CA4F15006307828B950229C
:10475000A4F150011148FFF725FF3770D6E9102367
:104760002846FDF7FBF80025256204F12800FF220A
:10477000E8216562FBF7C1FF09492046FFF748FEC3
:10478000214625704FF488720348FFF741FF284601
:10479000BDE8F08158010020004D0008F84C0008E9
:1047A000484D00082DE9F05FFFF7FAFE401C04BFFA
:1047B0004FF0FF30BDE8F09F0020FFF733FE50219F
:1047C0003148FBF7C4FF304C00262670207820B912
:1047D000502221462D48FFF7E5FE01252046257091
:1047E000DFF8AC80284C07464146FFF707FE01285A
:1047F00004D1B87A98F80210884224D0234A04F1F0
:10480000100E02F11001204691E88A1FAEE88A1FBF
:1048100002F13C07D2E90C1397E88007D2F838C0C0
:10482000D26CC4F838C0C0E90C1304F13C01A1E813
:1048300080071749E264FFF7EBFD214626705022FE
:104840001248FFF7E5FE4FF488711248FBF77FFF2F
:10485000104C2670207828B94FF4887221460E48F3
:10486000FFF7A0FE20462570094D2946FFF7C6FD3B
:10487000012803D1A07AA978884201D0FFF754FF1C
:104880000020BDE8F09F000008010020F84C00085F
:10489000484D000858010020004D000870B5FFF792
:1048A0007FFE401C04BF4FF0FF3070BD0020FFF7BB
:1048B000B9FD4FF44A711048FBF749FF0E4C002038
:1048C0002070207828B94FF44A7221460B48FFF730
:1048D00069FE012120462170094D074E2946FFF748
:1048E0008DFD012803D1A07AA978884202D03046F4
:1048F000FFF71CFD002070BD68020020A04D0008DD
:10490000884D00082DE9F0472C4C06460D462078CE
:104910002B4F30B94FF44A72214607F11800FFF7C8
:1049200041FE01202070254C082E07D235B195F9A3
:104930000100B04202D12878022803D04FF0FF30A6
:10494000BDE8F08704EB861095E84E1700F1280EBD
:10495000AEE84E1705F12001D5E90C6891E80E107C
:10496000D5E90E9500F1480AAAE80E10C0E918959D
:10497000C0E91668002504F11C00A846A574064687
:10498000FF21FCF7E3FF00BF04EB851090F828003F
:1049900020B1A07C8555A07C401CA074681CC5B2C9
:1049A000082DF1D3214684F800804FF44A7207F1B4
:1049B0001800FFF72DFE0020BDE8F08768020020F8
:1049C000884D000870B50A4C0546207828B94FF488
:1049D0004A7221460748FFF7E5FD01202070207D3F
:1049E0002870207DFF280CBF4FF0FF30002070BDE5
:1049F00068020020A04D000870B50E4C05462078D6
:104A00000D4E30B94FF44A72214606F11800FFF7F7
:104A1000C9FD01202070207D0649A84208D00D75EF
:104A2000002008704FF44A7206F11800FFF7F0FDFD
:104A3000002070BD68020020884D000870B5144C3D
:104A400006460D46207828B94FF44A72214611488F
:104A5000FFF7A8FD012020700D493046082E13D223
:104A6000A37C0022002B0FD904EB020C9CF81CC085
:104A7000844505D101EB8010006B2860002070BDDB
:104A8000521CD2B29342EFD84FF0FF3070BD0000FD
:104A900068020020A04D00082DE9F05F264C074673
:104AA0000D462078254E30B94FF44A72214606F162
:104AB0001800FFF777FD012020701F493846082FA6
:104AC00012D294F812C00022BCF1000F0CD9A31826
:104AD0001B7F83420CD1002235B195F90100B84209
:104AE00002D12878022808D04FF0FF30BDE8F09FAF
:104AF000521CD2B29445EAD8F6E701EB871095E84C
:104B0000981F00F1280EAEE8981F05F12804D5E99A
:104B1000083C94E89007ED6B4566C0E9123C5030C4
:104B2000A0E890070A704FF44A7206F11800FFF7E8
:104B30006FFD0020BDE8F09F68020020884D00084E
:104B400070B50A4C0546207828B94FF44A722146C0
:104B50000748FFF727FD01202070607D2870607DE9
:104B6000FF280CBF4FF0FF30002070BD680200200E
:104B7000A04D000870B50E4C054620780D4E30B99A
:104B80004FF44A72214606F11800FFF70BFD012091
:104B90002070607D0649A84208D04D75002008703D
:104BA0004FF44A7206F11800FFF732FD002070BD85
:104BB00068020020884D000870B5184C05460E4666
:104BC000207828B94FF44A7221461548FFF7EAFCCD
:104BD000012020701149082D1AD2A37C0022002B3D
:104BE00016D9A01890F81CC0AC450DD101EB85106A
:104BF000283040223146FBF7DDFC18B1314628460B
:104C0000FFF74AFF002070BD501CC2B29342E8D8A3
:104C100031462846FFF776FEF4E7000068020020E0
:104C2000A04D000802484168491C416070470000DF
:104C3000000000204FF04070E1EE100A70470000C5
:104C400023430008010000002D3E00080000000082
:104C500000000000113E00080D3E000800000000AA
:104C60000020000000A00000214300080000000018
:104C700003010000001F000004000300DDB716025E
:104C80000000100800000000C0FF012040000000EC
:104C90000320000000180000007368617253455241
:104CA00056000000000000000000000000000000AE
:104CB000000000000000000004100300DDB7160231
:104CC0000000000000000000C0FF012040000000C4
:104CD0000000000000000000007368616C42415356
:104CE000450000000000000000000000000000007F
:104CF000000000000000000043010000001C000054
:104D000043040000501C000001110000D0170100F6
:104D10000000000800001000000000200000020059
:104D200003800000000000000064756D6D790000D4
:104D30000000000000000000000000000000000073
:104D4000000000000000000004300300DDB7160280
:104D50000000000000000000000000000000000053
:104D6000030C0000001C0000007368616C494E4693
:104D70004F000000000000000000000000000000E4
:104D8000000000000000000004200300DDB7360230
:104D90000000000000000000000000000000000013
:104DA0000310000000180000007368616C5041524D
:104DB000540000000000000000000000000000009F
:104DC00000000000000000000000000000000000E3
:104DD000010203040607080968616C5F636F72656E
:104DE0005F696E69742829206E6F742063616C6C32
:104DF000656420796574206F722068616C5F636FF1
:104E000072655F7374617274282920616C726561C8
:104E100064792063616C6C65640000000000000030
:104E20000000000000000000000000000000000082
:104E3000FFFFFFFFFFFFFFFFFFFFFFFFFFFFFFFF82
:104E4000FFFFFFFFFFFFFFFFFFFFFFFFFFFFFFFF72
:104E50000101000000000000010004000700020042
:104E600001020300007A030A007A030A00BD01056B
:104E700080DE8002000500000024F40080F0FA02C9
:104E800019000000A8000000020000000700000058
:104E90000000000800001000FFFFFFFFFFFFFFFF02
:104EA000FFFFFFFFFFFFFFFFFFFF0000000000000C
:104EB00005000000010000010400000001000002E4
:104EC00004000000FF000000FFFFFFFFFF000000E4
:104ED000FFFFFFFF000000010400000002000002CD
:104EE00004000000010000000100000000000000BC
:104EF00004000200FFFFFFFF0101000000000000AE
:104F000001000040FFFFFFFF01000080FFFFFFFFE7
:104F1000010100000000000001010000000000008D
:104F2000030000010300000402000000000000086C
:104F30000000000000000000000000000000000071
:104F40000000000000000000000000000020000041
:104F500000000000173E0008204F00081B3E00081C
:104F60001F3E0008000000000000000000000000DC
:104F70000000000000000000000000000000000031
:104F80003F00010004000001FFFFFFFF04000004D8
:104F9000FFFFFFFF04000010FFFFFFFF0400008081
:104FA000FFFFFFFF03000008FFFFFFFF010080007D
:104FB000FFFFFFFFFF000000FFFFFFFFFF000000FB
:104FC000FFFFFFFF00000000004000000040000065
:104FD000004000000040000000000100000002004E
:104FE00000000200000002000000020000000200B9
:104FF000000002000000020000000008004000085D
:105000000080000800C0000800000108000002083D
:1050100000000408000006080000080800000A0854
:1050200000000C0800000E08000008001000180026
:105030002000280030003800400048005000580090
:105040000000010203000000010100000000000058
:105050000000000001000001000400000002000048
:1050600000000140010000001900000001010000E3
:1050700000000040010000001C00000001010000D1
:1050800000040040020000001D00000001010000BB
:1050900000080040040000001E00000001010000A4
:1050A000000C004008000000320000000101000078
:1050B0000010004010000000360000000101000058
:1050C0000014004020000000370000000002000033
:1050D00000040140020000002C000000FFFF00005F
:1050E000000000000000000037000000FFFF00008B
:1050F000000000000000000037000000FFFF00007B
:10510000000000000000000037000000FFFF00006A
:105110000000000000000000370000000000024016
:105120000004024000080240000C0240001002404F
:105130000014024000180240001C024000200240FF
:10514000000000000000000000000000010000005E
:105150000200000004000000080000001000000031
:10516000200000004000000080000000000100005E
:10517000000000000000000000000000FF00000030
:105180000000000001020001000004000000000017
:10519000801A06000000FFBF00000004004000006D
:1051A0000054004000580040005C00400000200017
:1051B0000000400000008000FF0000000000000030
:1051C000020201006932632074696D656F75742095
:1051D000696E2066756E6374696F6E2025730000BA
:1051E00000000003FF000000656570726F6D2074A1
:1051F000696D656F757420696E2066756E6374697C
:105200006F6E202573000000735F686C5F636869D0
:10521000705F78785F656570726F6D5F77616974D4
:10522000656570726F6D7374616E646279737461B9
:10523000746528290000000000050000000000003F
:105240000002010600000000040001000000000050
:1052500000000000000000000000000000300140DD
:1052600000380040003C0040000004010000020043
:105270000000000228000000070000009C52000807
:1052800000000020C8000000C401000864530008AA
:10529000C800002090C60000E001000800000000E7
:1052A0000000000001110100DBB74302000000080C
:1052B0000000100000000020000002000380000039
:1052C0000000000007656D733030340000000000FE
:1052D00000000000000000000000000000000000CE
:1052E00000000000484C000800000000A55AA55A24
:1052F00000000000007A030A000000000000000027
:105300000000000000000000000000000024F40085
:105310000000000000000000010203040102030479
:10532000060708090100000000000000000000005E
:10533000000000000000000000000000000000006D
:10534000000000000000000000000000000000005D
:10535000000000000000000000000000000000004D
:045360000000000049
:040000050800018965
:00000001FF
