:020000040800F2
:10800000607A012061A4000869A400086BA400083C
:108010006DA400086FA4000871A40008000000000F
:108020000000000000000000000000009D83000828
:1080300075A40008000000003D840008A184000829
:108040007BA400087BA400087BA400087BA4000894
:108050007BA400087BA400087BA400087BA4000884
:108060007BA400087BA400087BA400087BA4000874
:108070007BA400087BA400087BA400087BA4000864
:108080007BA400087BA400087BA4000887290108C2
:10809000012901087BA40008812901087BA40008AC
:1080A0007BA400087BA400087BA400087BA4000834
:1080B0007BA400087BA400087BA400087BA4000824
:1080C0007BA400087BA400087BA400087BA4000814
:1080D0007BA400087BA400087BA400087BA4000804
:1080E0007BA400087BA400087BA400087BA40008F4
:1080F0007BA400087BA400087BA400087BA40008E4
:108100007BA400087BA400087BA400087BA40008D3
:108110007BA400087BA400087BA400087BA40008C3
:108120007BA400087BA400087BA400087BA40008B3
:108130007BA40008E92E01087BA40008132A01088B
:108140008D2901087BA400080D2A01087BA40008E2
:108150007BA400087BA400087BA400087BA4000883
:108160007BA400087BA400087BA400087BA4000873
:108170007BA400087BA400087BA400087BA4000863
:108180007BA400087BA4000800F002F800F0B6F819
:108190000AA090E8000C82448344AAF10107DA4562
:1081A00001D100F0ABF8AFF2090EBAE80F0013F0FE
:1081B000010F18BFFB1A43F001031847F8660100CE
:1081C000186701000023002400250026103A28BF6C
:1081D00078C1FBD8520728BF30C148BF0B60704739
:1081E000642909F03B84782909F0748473290AF022
:1081F000BA800020704710B510BD0000704770476E
:1082000002010217E0B7EE3900800008008001008B
:1082100000000020C0FF010000000000000000007E
:108220000165557064617465720000000000000013
:108230000101000000010100455854000000000049
:108240004E6F7620313420323031362031383A3199
:10825000343A303700000000000000000000000049
:10826000000000000000000000000000000000000E
:1082700000000000000000000000000000000000FE
:108280000A444FF0000C10F8013B13F0070408BF3C
:1082900010F8014B1D1108BF10F8015B641E05D0DA
:1082A00010F8016B641E01F8016BF9D113F0080F8F
:1082B0001EBF10F8014BAD1C0C1B09D16D1E58BF21
:1082C00001F801CBFAD505E014F8016B01F8016B58
:1082D0006D1EF9D59142D6D370471FB515F0D2FA6D
:1082E0009DE8030009F030FF0AF0E3FA04000020E3
:1082F000002114F0D5FF401C60601FBD0AF06FFA2A
:108300001146FFF7EAFF00F0D6F90AF095FA03B438
:10831000FFF771FF03BC0AF0C5FA00000048704780
:10832000003000000048704700A00000401EFDD152
:108330007047000080F309887047EFF309807047A9
:10834000684680F3098804480078C00714BF0220FB
:10835000032080F31488704790030020DFF818C0D2
:10836000EFF305831B0618BF6047EFF31483DB07A9
:1083700008BF604700DF704771A40108DFF818C02C
:10838000EFF305831B0618BF6047EFF31483DB0789
:1083900008BF604700DF7047E9A40108EFF30980D8
:1083A000816911F8021C99BB90E80F1010B5E047E5
:1083B000BDE81040EFF3098C8CE807001C4B93E8F4
:1083C0000600914208BF704781B11EF0100F06BF32
:1083D0002CED108A0120002081F838002CE9F00FE4
:1083E000C1F83CC00CB413F061FC0CBC1A60D2F8AC
:1083F0003CC0BCE8F00F92F8380000281ABFBCEC73
:10840000108A6FF0120E6FF0020E8CF3098870471D
:1084100010B5084A1268914209D8074C54F8214017
:1084200090E80F10A047EFF3098C8CE80F0010BD07
:10843000A0020020FC280108FC28010810B513F058
:108440002FFBBDE81040154B93E80600914208BF92
:108450007047EFF3098C1EF0100F06BF2CED108A49
:108460000120002081F838002CE9F00FC1F83CC051
:108470000CB413F01BFC0CBC1A60D2F83CC0BCE876
:10848000F00F92F8380000281ABFBCEC108A6FF089
:10849000120E6FF0020E8CF309887047A0020020C4
:1084A00010B513F027FCCCE710B510F02BFD13F03E
:1084B00021FCC6E704F09DBF70B5B04C0B46217897
:1084C00011B1256AA8420CD0206200250146257012
:1084D000184606F076FC08B1257007E001202070F0
:1084E00001E0012902D100200CF0B8FD207870BD18
:1084F0007CB5012922D1A14C6568002D1ED0A04871
:10850000A1680268284606F0B2FC002816D1009047
:10851000ADF8040001AA6946A06803F0AFF9D4E9F8
:10852000020100F0FAF9014696480129026806D0D6
:10853000FA20424329460098FFF7BEFF7CBD4FF466
:108540007A70424329460098FFF7B6FF0128F5D11B
:108550002846E16806F049FC7CBDFEB506464FF4AE
:108560009665284603F0F8F8844CA060284603F08E
:10857000F3F8E06001F094FF606104F0C8FC074686
:1085800004F0C5FCCDE900570246022329461846EF
:1085900006F0F0FA606032460121606901F0B8FF30
:1085A000002061690346CDE900010290032240F6F4
:1085B0000551606806F076FB00F0D4FC71486168F4
:1085C000026803B040F6B830BDE8F04042436E4860
:1085D00072E72DE9F04188B06C484FF00008CDF803
:1085E0001880006807906A48644C4146056801207D
:1085F00005F11807E7610BF0EFFF0CF0AFFA00216F
:10860000644806F06BFE06F08AFE06F0FDFF06F0F9
:1086100086FE06A907F023F8002847D00026384632
:10862000E761C2788178CDE90012437802785AA1D7
:1086300065A000F0D3FD07AB32462946644805F03B
:10864000B3FE002108460CF0A5FC002101200CF02F
:10865000A1FC002102200CF09DFC002103200CF065
:1086600099FC002104200CF095FC002105200CF061
:1086700091FC58A1AFF2C312414B10201B68CDE909
:108680000421574901AA009182E80901C201554B12
:108690006521032004F07CFD206100F097FD00F0CF
:1086A000DFFC00F014F908B0BDE8F081069E06F189
:1086B0000800E061B5E708B54B4800902F48334A01
:1086C0004A4B121D4A49806905F072F805F0D4F84A
:1086D000484905F0D7F8002008BD2848416A491CE0
:1086E0004162FCE7F0B5064643A0A5B000680D4620
:1086F000249012B154681CB103E024AC002701E0BF
:1087000024AC177804F0F8F904F001FA3B4A00238E
:1087100009F0B0F84FF47A73B2FBF3F1B2FBF3FC5B
:1087200003FB1C229EB103F0CAFA314603F0C9FADA
:108730000097CDE90105234631A2802104A809F064
:1087400047F904A80CF0A0FD042E14D9FEE7234637
:108750003DB18DE8270031A2802104A809F038F945
:1087600006E08DE8070035A2802104A809F030F961
:1087700004A80CF089FD25B0F0BD00000000002029
:1087800054DB010850DB01080A00016818D9010810
:10879000DCD90108008200087374617274696E6725
:1087A000203A3A69706E6574207769746820495080
:1087B00020616464723A2025642E25642E25642E7F
:1087C00025640A0D000000004D41494E00000000E4
:1087D00098DD0108657468636F6D6D616E640000FB
:1087E000F18400085B85000828DD01087ADD0108B6
:1087F00064DD0108D3850008454F3F0040420F006B
:108800005B656F626A3A2025732C2074736B3A2083
:1088100025645D2025733A20257300005B54524186
:1088200043455D2028257320407325646D256475BC
:108830002564292D3E2025732E0000005B545241F3
:1088400043455D2028257320407325646D2564759C
:108850002564292D3E202E2E2E0000003EB5B24C60
:10886000E06810B903F0DDFDE060206910B901F0A7
:1088700017FE206104F0E1FE04F0EDFE0346002245
:10888000AA49206901F04EFEA948012122698DE81C
:108890000700A848D0E90023E06803F059FE3EBD78
:1088A00008B5FF208DF8000000F099F8684607F041
:1088B0007AF838B99DF80000012803D007F050F885
:1088C00007F064F89848406900F07CF808BD1CB5D2
:1088D000954C0020FF2100908DF80410607001A8D5
:1088E00007F03CF828B907F03DF89DF8040001288E
:1088F0000FD0684607F061F8009830B1411C08D0ED
:1089000000F071F800F03CF81CBD0020FFF7C8FF34
:108910001CBD606900F056F81CBD00F089B88248A3
:10892000C06803F0D1BD99E7002000F017B87E4879
:108930004078704710B501200CF0B4FB02200CF019
:10894000B1FBBDE8104003200CF0ACBB7649012020
:10895000887000F0B5B874488078704710B5012071
:108960000CF0A0FB02200CF09DFB03200CF09AFB06
:1089700004200CF097FBBDE8104005200CF092BBE2
:108980003EB5694CE06810B903F04BFDE06020692A
:1089900010B901F085FD206104F04FFE04F05BFE8C
:1089A000034600226149206901F0BCFD62480121B3
:1089B00022698DE807005F48D0E90023E06803F0F2
:1089C000C7FD3EBD10B5FFF749FF5749012048706C
:1089D00000200BF091FABDE810400BF0B5BA5248F8
:1089E000C06803F071BD3EB54F4C0546606810B9D4
:1089F00003F017FD6060A06810B901F051FDA060A0
:108A000004F01BFE04F027FE034600224B49A06839
:108A100001F088FDA06800210095CDE901104548CE
:108A2000D0E90023606803F093FD012020703EBD73
:108A3000F0B589B000250E4603950746ADF82050E5
:108A400008AA03A902F01AFF374C03986061207846
:108A5000012808D1606803F037FD2570FFF7BFFFDC
:108A60006069FFF7AFFF05AA06A9384602F050FF7C
:108A700004AA02A9304602F04BFF07A9304602F0D3
:108A80008AFF04A9BDF81C00CDE90001DDE902322E
:108A9000BDF81410069801F0D3FA012802D0002086
:108AA00009B0F0BDBDF810203046029902F0A4FED6
:108AB00040F605523046039902F0D8FE0120EFE758
:108AC0003EB5194CE06810B903F0ABFCE0602069DA
:108AD00010B901F0E5FC2061E06803F0F5FC01202D
:108AE0000CF098FA02200CF095FA03200CF092FAA0
:108AF00004200CF08FFA05200CF08CFA04F09DFD98
:108B000004F0A9FD034600220D49206901F00AFD89
:108B10000C48012122698DE807000648D0E90023AE
:108B2000E06803F015FD3EBD280000205D890008C7
:108B300040420F0058DB010820A10700A18800086F
:108B40003589000880841E00F748704703F082B81A
:108B500010B503F07FF80021017210BD10B503F0CD
:108B600060FCF24C2060202002F0F6FD60602020C6
:108B700002F0F2FDA06010BD10B588B000F0C8FA98
:108B800000F0EEFAEA4803AC10210268204601F03A
:108B9000B5FC00F0F8F900884FF47A7200215043D8
:108BA0008DE81300E348D0E90023E048006803F0B3
:108BB000CFFC08B010BD7CB50025DC4C0095ADF8AD
:108BC000045001AA6946A06802F0A2FE00982F2175
:108BD0000170022181704570C5700421A06802F007
:108BE00059FE00F084FA0546D3480068A84215D023
:108BF000D248D34E02684FF47A7042432846316817
:108C0000FFF75AFC012809D140F606522946A06810
:108C100002F02CFEA168306806F0E7F87CBD10B5C4
:108C2000FFF794FE00F0AFF904464079012805D122
:108C3000002000F069F9012000F066F9A079012810
:108C400001D1FFF7B8FF00F04CF900F039F9BDE8A9
:108C5000104000F023B970B588B0064600F093F9D3
:108C6000054600790024012824D1304602F0F2FFA5
:108C7000017A0122491C017240F20F708DF8044004
:108C8000A94900908DF805408DF80620091F02A81B
:108C900009F079F90022694610460BF01FFB00220B
:108CA000694601200BF01AFB04200CF0FBF90520AB
:108CB0000CF0F8F99E4804AE40210268304601F0FD
:108CC0001DFC688868B14FF47A7148438DE8510003
:108CD0009848D0E900239548006803F039FC08B0B3
:108CE00070BD4FF47A70F1E710B500F04CF904460E
:108CF0004079012805D1002000F006F9012000F09C
:108D000003F9A079012802D1BDE8104053E710BD56
:108D100070B588B0002405460094ADF8044001AA5F
:108D2000694602F0F5FD07AA06A9284602F0A6FD4D
:108D3000069800F0BEF9BDF804001828CFD10099BC
:108D400008781228CBD1487A0828C8D8087A012890
:108D500001D0012500E00025488902908DF80C40E3
:108D60008DF80D404A7A8DF80E2004A8103109F0D4
:108D70000AF900986D4E4468F2683AB1501C84427A
:108D800004D070A175A0521C00F028FAF4604DB117
:108D90005FF005000CF086F9002202A928460BF0CE
:108DA0009DFA9CE70420F5E710B56D485F4C02681A
:108DB00063486168006806F05AF810B96068FFF708
:108DC000A7FFBDE8104000F08CB8F0B589B00024D2
:108DD000564D06468DF81C400594ADF8184006AA7D
:108DE00005A9A86802F094FD07AA01A930460BF076
:108DF000B7F90746FFF7AFFD00283AD0002F38D16A
:108E00000598122101700121417044809EB3022116
:108E10000172019941819DF80A204272C46040F8B4
:108E2000104F03A9446009F0AEF81821ADF81810EE
:108E3000A86802F02FFD00F05AF904463E48006889
:108E4000A04216D03D483E4E02684FF47A7042432D
:108E500020463168FFF730FB01280AD100F04AF9BB
:108E600002462146A86802F001FDA968306805F0B5
:108E7000BCFF09B0F0BDFFE70121C9E710B5002034
:108E8000FFF7A3FFBDE8104000F01AB810B50120AD
:108E9000FFF79BFFBDE81040AFF3008008B500204E
:108EA0008DF80000694601200BF034FA9DF80000AF
:108EB000002804D01E480421006804F07EFA08BD92
:108EC00008B500208DF8000069460BF023FA9DF8E4
:108ED0000000002804D016480221006804F06DFA52
:108EE00008BD08B50020ADF80000154869460068C7
:108EF00005F0F3FFBDF80000002804D00C48012164
:108F0000006804F05AFA08BD10B586B00446002087
:108F10008DF8100004AA694620460BF021F90028BC
:108F2000F8D006B010BD00008CD901084000002028
:108F30005400002058DB010860DB010850DB010809
:108F4000580000204C4F535420455448202325649A
:108F50002066726F6D20686F73740000475457006D
:108F600054DB010810B5834C606948B18249096837
:108F700010F024FD0021606910F04EFD002010BDAE
:108F80004FF0FF3010BD7B481830704704F031BA05
:108F900070B5784D0C46080703D50021286902F00A
:108FA00017FEE00603D50121286902F011FE6006D4
:108FB00003D50221286902F00BFEE00703D5032147
:108FC000286902F005FEA00703D50421286902F0F4
:108FD000FFFD600705D52869BDE87040052102F056
:108FE000F7BD70BDF0B587B0064603F090FF0446AC
:108FF00003F08DFF02462020CDE900041023014636
:10900000184605F0B7FD5B4C40F606573A46A0609F
:109010005AA163A000F0E2F803AD324601212846D0
:1090200001F06CFA0020CDE900050346029003220E
:109030003946A06805F036FEFFF786FD02F097FD81
:10904000206102F0AFFD206902F004FE616801605A
:10905000A16841600021606910F0DEFC07B0F0BD3E
:1090600010B5444C86B02078002820D14E480168C5
:10907000A1614068E0610021022010F0EFFC4BA3E9
:10908000AFF2F70260614C480DF1080C0021006856
:109090008CE80F0020214948CDE900018A01484BA6
:1090A0006421012004F074F860600120207006B093
:1090B00010BD3049C860704710B501B93A492D4C10
:1090C0000A68A2614968E161224621785268012953
:1090D00005D0BDE810404021104604F06EB9E060B4
:1090E0000821104604F069F90220207010BD2148C3
:1090F000C068704740F60650704770471D4804210D
:10910000406804F05CB91B480221406804F057B97C
:1091100000B5184889B0417801291FD0012141705C
:10912000214920220831684608F02DFF07208DF8DC
:10913000020008208DF803002248029069460020B2
:109140000BF026F809208DF802000A208DF80300A4
:109150001D480290694601200BF01AF809B000BDC5
:1091600010B500200AF0E2FFBDE8104001200AF02F
:10917000DDBF0000500000207CDF01086F70656ECD
:10918000696E672061207478727820736F636B65F5
:1091900074206F6E20706F727420256400000000D0
:1091A00063616E4754570000A4D9010863616E677C
:1091B000617465776179000054DB0108918F0008C4
:1091C000E58F000807910008FD90000810B5022106
:1091D000012000F0FBFFFD49486010BD7047029878
:1091E000002101800846704730B587B00C46024622
:1091F0000023022101200C9D00F0F6FFA8B101A977
:10920000002006F002FC019A02AD0FCA85E80F00AB
:109210006078D4F8021040EA0120059002A90020ED
:1092200006F0F5FB002007B030BD00202880FAE7EB
:1092300070B586B00E4602460023022101200C9C28
:1092400000F0D2FF002130B37078B178F27841EAB3
:10925000002040EA122130791306020C0A4371798A
:1092600043EA004040EA0125B07942EA116405432F
:1092700004A9002006F0C9FB04980FC8CDE900013D
:10928000CDE9005469460020CDE9022306F0BFFB7A
:10929000002006B070BD21800846FAE770B50C4684
:1092A0000246002302210120069D00F09DFF30B1FF
:1092B000606800F1006006F063FB18B10BE000206D
:1092C000288070BD06F04EFB606800F1006006F07B
:1092D00053FB06F05BFB002070BD2DE9F8430E4602
:1092E00081460246002302210120DDF82880089CE7
:1092F00000F07AFF002560B10027A8F800507288BE
:1093000038463946202A12D008DC62B1082A13D127
:109310000BE02846A8F80050BDE8F883402A08D0A2
:10932000802A09D107E0012106E0032004E004209F
:1093300002E0052000E006204A46B9F1300F05D0D2
:10934000312A30D0B9F1320F31D10FE051B10320C1
:1093500006F059FB042006F056FB052006F053FBEF
:10936000062000E018B306F04EFB20E03221217009
:10937000052161700221A1708621E1707288A280AE
:10938000FF22A271A8F80010012780B1694600955C
:1093900006F03BFB009850B165707288A01D0099E3
:1093A00008F0ACFD03E010B1311D06F030FB38468B
:1093B000B2E710B50246002302210120049C00F010
:1093C00013FF30B1012006F0CBFA06F0DFFA0020DF
:1093D00010BD0020208010BD2DE9F0410246002381
:1093E00002210120089D00F0FFFE002678B1784F91
:1093F000002402200BF056FE384610F0B5FD641C28
:10940000E4B2102CF5D32E800020BDE8F081304668
:109410002E80FAE770B50D46024600230221012096
:10942000069E049C00F0E0FE0021D0B1A8884FF415
:109430008062904200D9104613222270617002218E
:10944000A170011DC9B2E170091D3180E0806988F9
:1094500082B2A18004F1080301200BF0F7F801208B
:1094600070BD0846318070BD10B58EB000200C90E4
:109470002021684608F0E3FD0CA9042006F0C5FA97
:10948000202268460C9908F039FD524CD4E90001BD
:10949000CDE908014FF4006108A806F07DFAD4E98F
:1094A0000201CDE90A010AA806F005FA044605F012
:1094B00036FF06F0A9F8012006F077FA012006F041
:1094C00078FA6946042006F0A2FA0EB0204610BDD4
:1094D0002DE9F0410D4607460246002302210120F6
:1094E000089E069C00F080FE01004FF0000010D0A6
:1094F00002210422122F0ED0722323706070A170FB
:10950000E0703280EA8892B1A98801200BF00AF855
:109510000FE0308079E73180122020706270FFF711
:10952000A3FF00B1042060700BE0042003E0FFF70C
:109530009BFF0028F9D16070A878012801D100F0C4
:1095400004FE012061E7F0B587B00C4607460246ED
:109550000023022101200E9E00F046FE0025D0B11E
:10956000207908B3FF281FD001A9002006F04DFA8A
:10957000019B0DF1080C0FCB8CE80F006078D4F83C
:10958000021040EA0120049002A9002006F03FFAF0
:10959000772F04D008E03580284607B0F0BDA079C9
:1095A000012801D100F0D1FD35800020F5E770B52C
:1095B0000246002302210120069C00F015FE002532
:1095C00050B100F0C2FD2580002070BD7000002069
:1095D00090D00300E0D9010828462580F5E770B552
:1095E0000C460246002302210120069D00F0FCFDEE
:1095F000002628B16078012805D0022803D008E0B1
:1096000030462E80E1E7012006F0D3F9607806F0BD
:10961000CCF92E800020D8E72DE9F04F91B00E460E
:109620001A9C1C990025207002226570A2700427E4
:10963000E570DFF840A4DFF840B40F804FF0010977
:10964000012804D0022874D0042865D1CFE0ABF8FB
:1096500002908BF801508BF80050CBF81050CBF8EB
:109660000C507178D846552904D05A2913D0AA290C
:109670007AD108E0552188F800104FF00061C8F851
:109680000C1009130FE0AA2188F800104FF4C03124
:10969000C8E903A109E05A2188F80010F749C8F881
:1096A0000C104FF4C021C8F81010024698F8003092
:1096B0000221012000F098FD00B3D8E90301014424
:1096C000504523D0ED4B994220D0DFF8A893EC4EC3
:1096D0006FEA090900EB090CB44517D301EB090C3B
:1096E000B44513D3504501D299420FD8012006F05A
:1096F00060F998F8000055280FD016E0C8F810500F
:10970000C8F80C5088F8005005205AE0C8F81050EE
:10971000C8F80C5088F8005026E0C8F80850FF221E
:10972000D848D8F8101008F060FCFFF7F8F8F3E01C
:10973000FFE7FFF7F9F83079D6F80180B6F805A011
:10974000F61D60F31F6800969BF800005E4658B156
:109750005A280BD0F16888450BD3326908EB0A030D
:109760008F18BB4205D207E06770D5E0F0688045EE
:1097700004D284F80190CFE0552802D07078A0B1CF
:1097800025E0A8EB01059542F3D2BE485246284495
:10979000009908F0B3FBB16805EB0A00884200D9D4
:1097A000B0607088401C7080B6E00BF055FDD6E9C3
:1097B00003010BF047F907460BF050FD1FB1357060
:1097C00002206070A8E03078707000280ED00BF096
:1097D00043FD51464046009A0BF0C6F905460BF092
:1097E0003DFD7088401C70806D1CC2D094E0FFF776
:1097F0009AF8B6F801105E469BF80000DFF8888200
:10980000DFF888B218B3728891427BD07178E9B3DF
:10981000552871D04021684608F011FC01980227B4
:109820006FF30B0000F2CF7020F4704000F5104091
:1098300020F4F81000F550208DF80070019010F021
:1098400079F930785A2810D0AA2832D052E07078AE
:1098500038B14146012006F0A4F85946022006F02E
:10986000A0F83561F56035707EE7DFF810924FF4AF
:10987000C02148460BF0E6F885A08DF80170CDF8C0
:1098800008900168CDF82110416800E034E0CDF87F
:1098900025100089ADF829006946022006F081F8FC
:1098A0004146012006F07DF8012006F082F80120F3
:1098B0001EE04FF4C031574650460BF0C3F874A079
:1098C0008DF8019002970168CDF821104168CDF81C
:1098D00025100089ADF829006946012006F061F8DD
:1098E0005946022006F05DF8022006F062F80220D8
:1098F00006F05BF810F012F93561F5603570032061
:109900005FE7FFE755280BD05A2820D0AA2819D0A6
:1099100067703561F560357011B00120BDE8F08FDA
:109920000BF09AFCD6E903010BF08CF8D6E90301A1
:10993000544A0BF019F90BF091FC552070705749FF
:10994000002001E04146012006F02BF8E1E75946EE
:109950000220F9E72DE9FC4198460C4607460246ED
:109960000023022101200A9E00F03EFC01004FF07E
:1099700000001CD00021054600900190202F0FD040
:109980006088ADF8000060788DF80400A088ADF81C
:109990000200A0798DF80500E0798DF8060069468F
:1099A0004046FFF789FB35800020BDE8FC81308010
:1099B000FBE72DE9F043134689B08946044638A2F7
:1099C00008F006F885B200208DF81C00089006907B
:1099D00005F06BFF074605F0B8FF06468078B978BA
:1099E000884203D1F078F978884237D060192D4A3F
:1099F000494607F0EDFF284485B270680DF108086C
:109A00004FEA906CC0F34453C0F30B02C0F304411F
:109A100088E80E10C0F30330F178CDE90010B37878
:109A2000601921A2494607F0D3FF284485B278681F
:109A3000860EC0F34453C0F30B02C0F3044188E820
:109A40004E00C0F30330F978CDE90010BB786019FF
:109A50001FA2494607F0BCFF284485B205F064FF09
:109A6000401C4BD007A908A805F0ABFF002862D026
:109A7000E8E00000008000087000002000000208FC
:109A8000FF7F0100DC0300200082000800020208C2
:109A9000657261736564557064000000000200081F
:109AA0002573000058E50108656570726F6D2076BA
:109AB000657273696F6E0925642E25642025642FF5
:109AC00025642F25642025643A252E32640D0A0072
:109AD00070726F636573732076657273696F6E0958
:109AE00025642E25642025642F25642F25642025D8
:109AF000643A252E32640D0A000000006019F3A2BA
:109B0000494607F065FF284485B26019F8A2494626
:109B100007F05EFF284485B26019FEA2494607F0AF
:109B200057FF284485B26019FDA2494607F050FF4F
:109B3000284485B286E0012704A805F034FF05A873
:109B400005F035FF002679E0089806A9805D05F04C
:109B500040FF60193346F3A2494607F039FF284415
:109B600085B2B74201D1F5A000E0E0A09DF8141045
:109B7000B14201D1F4A100E0DCA1CDE900109DF8D3
:109B80001000B04201D1F2A300E0D8A36019F2A204
:109B9000494607F01DFF2844069B85B26019F2A2D2
:109BA0004946213307F014FF284485B20698F1A2F4
:109BB000C178009183786019494607F009FF28446D
:109BC00085B20698406805F052FE03460698406844
:109BD000820EC0F34451C0F30B0CC0F30440CDE936
:109BE0000212CDE9000C6019E6A2494607F0F0FE2A
:109BF000284485B20698806800F50070804605F01C
:109C000040FE002804EB050020D0E5A2494607F0FD
:109C1000DFFE284485B20698E8A2C16801F2FF3150
:109C2000890A00918068E4490844830A601949461A
:109C300007F0CEFE2844761C85B2F6B29DF81C00D3
:109C4000864281D309B02846BDE8F08308F140037D
:109C5000E0A2494607F0BCFEDBE72DE9F0478CB0F7
:109C600001700025044645700220A070121FE270AA
:109C70004FF0640A06A92846069505F0C6FE05A819
:109C8000059505F0B8FE0598FF264178112976D094
:109C9000CEB2FF278DF81C708DF8207007A805F054
:109CA00086FE08A805F07FFE8DF8245009A903A8B8
:109CB000039505F086FECA48267167714068E0602A
:109CC0000698A846B9468188090AA1710179E1710F
:109CD00001680279090E41EA0221217201680279C4
:109CE000090C41EA02416172017902880B0643EADC
:109CF0001221A1720078E0729DF8240020749DF872
:109D00001C0060749DF82000A0740120E0740026FF
:109D10000398CDF8048001A9805D05F05AFE0398F0
:109D200004EB0615805D287585F8159001988078FC
:109D3000A8750198C078E87501984068A861E8693D
:109D40006FF30B0000F2CF7020F4704000F510406C
:109D500020F4F81000F5102020F0787000F19070D9
:109D600020F07C4000F11050E8610198876807F509
:109D70000077384605F085FD90B117E0FFE799A11F
:109D8000213008F083F948B1059898A1213008F0F6
:109D90007DF900287FF47DAF21267AE7202678E739
:109DA00005F11C0107F1400000F012FE0198761C3D
:109DB000F6B28068800A28840198C068800A6884A6
:109DC000032EA5D30AA90420CDF8288005F01DFE96
:109DD000202204F144000A9908F090F80CB0504693
:109DE000BDE8F0872DE9F0410E46DDE906478046E3
:109DF0000246002302210120089D00F0F5F9002110
:109E000070B1B8F1090F0FD0682279212046FFF711
:109E100024FF2880B07884F8640001280FD01BE06C
:109E200008462980BDE8F081092020706170BF1EBE
:109E3000B9B270A2A01CFFF7BCFD801C0BE0683F0C
:109E4000B9B270A204F16500FFF7B3FDE1780144F7
:109E5000E1702988084428800120E3E7F8B5064628
:109E60000246002302210120089D069C00F0BCF957
:109E700050B16748FF2E0AD0204664227F21FFF7A9
:109E8000ECFE28800120F8BD00202880F8BD0E21BE
:109E90002980FF21217081786170C078A0700A202C
:109EA000E0706946002005F0B0FD0098C168090E19
:109EB0002171C168090C61718189090AA171017B55
:109EC000E1718188090A21720179A3E02A2A2A20F6
:109ED000454550524F4D20464F524D415420495315
:109EE000204E4F542056414C49440D0A00000000BA
:109EF0002A2A2A2043414E4E4F5420474956452096
:109F0000504152544954494F4E20494E464F0D0A34
:109F1000000000002A2A2A20425945204259450DB6
:109F20000A0000002A2A2A20652D70726F6365736B
:109F30007320232564200D0A0000000052554E4E68
:109F4000494E472000000000535441525420000065
:109F5000444546200000000070726F707320257326
:109F600025732573200D0A006E616D652020257311
:109F70000D0A000076657273202025642E25640D7D
:109F80000A000000646174652020257320252E32AC
:109F9000642025642025643A252E32640D0A0000D1
:109FA0006275696C7420756E6B6E6F776E2064617C
:109FB00074650D0A00000000FF0300F8726F6D2049
:109FC0002020402B25644B422C20733D25644B42BE
:109FD0000D0A00006275696C742025730D0A00007B
:109FE00070000020656D7334726400006D6334701E
:109FF0006C7573006C65676163792050524F4353F1
:10A000000D0A00004D4F5245494E464F0D0A0000C3
:10A0100000820008617201680279090E41EA02219A
:10A02000A172017902680B0443EA1241E1720188CE
:10A030000279090A41EA026121730078607321E71D
:10A04000FEB505461646DDE908C72A780020424CD1
:10A05000132A5AD00DDC132A6FD2DFE802F06E3BD0
:10A060003D6E404245486C2D6E595C6E6E6E6E6959
:10A070004F00332A59D00CDC302A4FD004DC202A80
:10A0800021D02F2A59D11EE0312A49D0322A54D169
:10A0900049E0792A10D004DC722A2FD0772A4CD1DB
:10A0A00025E07F2A01D0FF2A47D1012902D07F2055
:10A0B0002A4C42E0FF20FBE7012902D07920284CFE
:10A0C0003BE00920FBE7012902D02F20254C34E09A
:10A0D0002020FBE7012000E00220234C2DE004209B
:10A0E000FBE70520214C28E00620214C25E005292E
:10A0F00002D077201F4C20E00720FBE7012902D087
:10A1000072201D4C19E01220FBE713201B4C14E0B9
:10A110000B201B4C11E00C201A4C0EE0302000E00C
:10A120003120194C09E03220FBE73320174C04E0C2
:10A130001120174C01E0174C0820CDE9003C0A46DD
:10A14000029733462946A047FEBD10B50BF084F8B0
:10A15000BDE810400BF08EB8DF9100085D9E00084E
:10A16000E59D00085599000819960008DF9500083C
:10A17000AF95000847950008D19400081594000891
:10A18000D9930008B3930008DB9200089D92000861
:10A1900031920008E99100085C49042801D308695C
:10A1A000704751F82000704770B5584D064600249E
:10A1B000304655F8241007F069FF28B1641CE4B25A
:10A1C000042CF5D3FF2070BD204670BDFF2803D0BE
:10A1D000042801D8022901D9002070474C4A02EB1B
:10A1E000011151F82000704730B51446FFF7EEFF1B
:10A1F00000214FF48022132C50D00DDC132C68D298
:10A20000DFE804F0673A3A673A474A2F6529674E14
:10A210005167676767623100332C47D00CDC302C04
:10A2200047D004DC202C19D02F2C52D14AE0312CFD
:10A2300042D0322C4DD142E0792C1AD004DC722C61
:10A240002CD0772C45D10CE07F2C0FD0FF2C40D1A7
:10A250004FF400313DE04FF480113AE04FF480318B
:10A2600037E0114635E04FF4002132E04FF0005165
:10A270002FE04FF080412CE0552B04D0AA2B04D0C6
:10A280005A2B04D025E0022123E0042121E00821FB
:10A290001FE04FF400711CE010211AE0802118E04B
:10A2A0004FF4001115E04FF4806112E04FF480018B
:10A2B0000FE04FF400510CE04FF4805109E04FF4EF
:10A2C000006106E0202104E04FF4004101E04FF47A
:10A2D0008041814301D0002030BD012030BD01000C
:10A2E0004FF0FF0007D0012907D0022901D0032930
:10A2F00000D10220704700207047012070470146BE
:10A30000FF20042900D20846704700008400002086
:10A31000F0D9010896B00346009110A2502101A87F
:10A3200007F056FB01A80AF0AFFF002101200AF058
:10A3300031FE104C104D2178491C2170207820707E
:10A3400028460AF02BFF01200AF0ACFEF3E709488B
:10A350004178491C41704178417070476661746171
:10A360006C206572726F72202325643A2025730A6F
:10A37000000000009800002090D0030007F0B6B95C
:10A3800007F007BA07F0F7B9A4B00D4600218DF821
:10A390008810144622A90FF0B4FC9DF88800CDE97E
:10A3A00000042B4616A2802102A807F011FB02A888
:10A3B0000AF06AFF01200AF02DFE02200AF02AFEB0
:10A3C00003200AF027FE04200AF024FE05200AF0EC
:10A3D00021FE134C05200AF065FE20460AF0DEFE41
:10A3E000F8E7FEE710B50F4C20780EF08DFD002148
:10A3F000217010BD0EF0E4BD0EF0D6BD0EF00EBE05
:10A400006572726F722025642066726F6D207461B0
:10A41000736B69642025643A2025730A0D000000DF
:10A42000A08601009A00002010B5044611B108462C
:10A430000AF02AFFF02C0BD0002102200AF0AAFD1E
:10A44000064C20460AF0AAFE02200AF02BFEF8E78E
:10A4500010BD0EF0D9BF0EF07BBF0000A08601003A
:10A460000948804709480047FEE7FEE7FEE7FEE7A8
:10A47000FEE7FEE7FEE7FEE7FEE7FEE704480549E4
:10A48000054A064B704700002537010889810008FE
:10A4900060AA0020607A0120604A0120604A012001
:10A4A00010B501F0F0FC01231022042101F095FD0C
:10A4B0000021017010BD10B504000BD000202060F9
:10A4C0006060A060E06001F0DEFC2146BDE8104065
:10A4D00001F033BE10BD18B100210170084670476D
:10A4E0006FF00100704710B528B121B11EC980E896
:10A4F0001E00002010BD6FF0010010BD28B1012327
:10A500000370C0E90112002070476FF0010070472E
:10A5100028B102230370C0E90112002070476FF0D8
:10A520000100704710B530B1032400F8044B80E8F7
:10A530000E00002010BD6FF0010010BD002800D0FB
:10A540000078704748B141B13AB10378012B07D088
:10A55000002008601060401E70476FF001007047D7
:10A5600043680B60806810600020704748B141B1BB
:10A570003AB10378022B07D0002008601060401E1B
:10A5800070476FF00100704743680B60806810608F
:10A590000020704710B558B151B14AB143B10478A9
:10A5A000032C08D00020086018601060401E10BD09
:10A5B0006FF0010010BD44680C60C16819608068CC
:10A5C0001060002010BD7FB50D46002106464C1ED0
:10A5D0000191FFF7B3FF012804D002280ED0032811
:10A5E0002ED118E0009101AA69463046FFF7AAFF74
:10A5F000019808B3009902F01CF91CE0009101AA2F
:10A6000069463046FFF7B2FF0198A8B12A46009983
:10A6100002F02DF90FE00391009101AB6A4603A906
:10A620003046FFF7B7FF039931B1019828B12B46A7
:10A63000009A02F03EF9044602E0002400988847A0
:10A6400004B0204670BD0000002800D000687047AC
:10A65000406870470068884201D1002070474FF081
:10A66000FF30704750F8040C704701228A400242C4
:10A6700001D00120704700207047027801238B40F1
:10A680001A4302707047027801238B409A4302708C
:10A690007047027801238B405A40027070470122B4
:10A6A0008A40024201D001207047002070470840D4
:10A6B00000D001207047028801238B401A4302809A
:10A6C000704702880A4302807047028801238B404A
:10A6D0009A430280704702888A430280704702884A
:10A6E00001238B405A400280704701228A40024277
:10A6F00001D00120704700207047012302688B4081
:10A700001A4302607047012302688B409A4302603B
:10A710007047012302688B405A400260704770B551
:10A7200004460D460120002107F01BF92040294076
:10A73000084301D0012070BD002070BD70B50446F3
:10A740000A46D4E900560120002107F00AF9054322
:10A750000E43C4E9005670BD70B504460A46D4E9FC
:10A7600000560120002107F0FCF8C24315408E433B
:10A77000C4E9005670BD70B504460A46D4E90056D7
:10A780000120002107F0EDF845404E40C4E9005695
:10A7900070BDD849085C7047D649C2B2000A8A5CCD
:10A7A000085C1044C0B2704710B5034680B2FFF792
:10A7B000F3FF0446180CFFF7EFFF2044C0B210BDB2
:10A7C00030B50C46FFF7F0FF05462046FFF7ECFFDB
:10A7D0002844C0B230BD30B500236FF000455C1E88
:10A7E0002D1A8B4101DA600807E04FF00043C31ACD
:10A7F00071F1FF3104DA4FF000401060204630BDA7
:10A800001060002030BD08B50020DFEDBB0A0090CD
:10A8100020EE200A10EE100A13F03AF86A46FFF70D
:10A82000DAFF009808BD00EE100AB8EEC00ADFEDAE
:10A83000B30A20EE200A7047C11700184941CAE741
:10A8400080FB01014FF40053C01841F10001800B5F
:10A8500040EA81408913BEE72DE9F0411546C6174D
:10A86000CB170A46002419431ED0002E05DA3146C4
:10A8700001240026404266EB0106002B05DABCB13C
:10A8800000240021524261EB0303B10341EA9041ED
:10A89000800307F079F81CB10022404262EB01010D
:10A8A0002A46BDE8F04196E74FF0FF30BDE8F08161
:10A8B0000124E6E718B1D0E90221104670470020D4
:10A8C000014670473EB515460C000CD0030EC0F390
:10A8D0000742C0F307218DE80E00C3B288A22946C3
:10A8E000204607F075F83EBD10B5029C01B1087016
:10A8F0000AB1010A11700BB1010C1970002C01D0C2
:10A90000000E207010BD2DE9FF4115460C0012D03D
:10A910007E4FC0F30331860E57F82110C0F3445325
:10A92000C0F304428DE84E00C0F30B0378A2294621
:10A93000204607F04DF8BDE8FF8170B5040088B0EF
:10A940000D464FF000002CD0069007900390049025
:10A95000059005AA04A903A88DE8070007AB06AA7D
:10A9600070A1204607F06AF90698B0F5006F17DA73
:10A97000664E012407A856F8241007F087FB20B183
:10A98000641CE4B20D2CF5D30AE04CB1039838B145
:10A990001F2805DC0498182802DC05983C2802DDF5
:10A9A000002008B070BD0699286861F30B0064F3BD
:10A9B0000F302860039961F314402860049961F313
:10A9C00059502860059961F39F6028600120E8E7ED
:10A9D00070B504008AB00D464FF000002FD00490EF
:10A9E0000790089005900690099009AB06AA05A962
:10A9F00007A88DE80F0004AB08AA4EA1204607F077
:10AA00001DF90798B0F5006F18DA404E012400BF19
:10AA100056F8241008A807F039FB20B1641CE4B2F2
:10AA20000D2CF5D30AE04CB1049838B11F2805DC91
:10AA30000598182802DC06983C2802DD00200AB0A0
:10AA400070BD0799286861F30B0064F30F3028602C
:10AA5000049961F314402860059961F35950286006
:10AA6000069961F39F6028600120E8E730B5002473
:10AA700014E000BF04EB440500EB85052D7A9542F8
:10AA80000AD1012B04EB440103D000EB81004068A4
:10AA900030BD50F8210030BD641CE4B28C42E9D3D3
:10AAA000002030BD2DE9F0479846DDF820901600D3
:10AAB0000F4605464FF0000410D00DE0B8F1010F2D
:10AAC00004EB44000DD005EB80004168304607F0F0
:10AAD000DDFA48B1641CE4B2BC42EFD34846BDE89D
:10AAE000F08755F82010F1E704EB440005EB8000F7
:10AAF000007AF4E764DB010800008046000080383B
:10AB000025642E25642E25642E2564009C000020DB
:10AB1000256420257320252E32642025643A25647F
:10AB20000000000025642025732025642025643A58
:10AB30002564000025732025642025642025643ABF
:10AB400025643A25640000002DE9F84F9B469146A4
:10AB5000884605460026012701F095F901232022A9
:10AB6000042101F03AFA00210180418004468180ED
:10AB700001F0A5F8DFF8C0A2CDF800A00DB10121C9
:10AB800000E00021AD4BAEA201F0D3F801F097F840
:10AB9000CDF800A05FEA080100D00121A74BAFA2C9
:10ABA00001F0C7F8E5806581A4F80880C4E9049B3A
:10ABB0000A98A0610B98E061012D10D0022D04D0FD
:10ABC000042D04D80427384608E0022707E00827A8
:10ABD000E81DC0084FF6FF7101EAC000608101F076
:10ABE00052F943462A46394601F0F7F90746E06034
:10ABF0000EE000BF06FB0570B9F1000F03D0594607
:10AC00004A46904702E0E18807F0F7F9761CB6B2B1
:10AC10004645EFD32046BDE8F88F2DE9F04104000A
:10AC20004FF000051AD02088002817D06688E76802
:10AC30000DE0E088E16906FB007001B18847761CF1
:10AC400020896D1CB6FBF0F100FB1166ADB22088C7
:10AC5000A842EED8002020806080A080BDE8F0816E
:10AC600010B5040010D0E06800280DD02046FFF792
:10AC7000D4FF2021204607F0E2F901F004F9214633
:10AC8000BDE8104001F059BA10BD002800D000897D
:10AC9000704718B101880089814201D101207047B5
:10ACA0000020704718B1008808B1002070470120CB
:10ACB000704710B504001BD0002919D020892288C4
:10ACC000904215D0A388E288E06803FB0200A369E4
:10ACD0000BB1984701E007F011F9A0882189401CC9
:10ACE000B0FBF1F201FB1200A0802088401C208004
:10ACF00010BD70B504001AD0002918D02089228810
:10AD0000904214D062880244521EB2FBF0F300FB62
:10AD10001325E288E068A36905FB02000BB19847A0
:10AD200001E007F0EBF865802088401C208070BDB2
:10AD3000002806D0018829B14288C168C08802FB7A
:10AD4000001070470020704710B5040015D020880F
:10AD5000002812D06188E288E06801FB0200E16906
:10AD600001B1884760882189401CB0FBF1F201FBEA
:10AD7000120060802088401E208010BD0021002825
:10AD80000DD0028862B1828801890A44521EB2FB4A
:10AD9000F1F301FB1321C268C08801FB002070475A
:10ADA0000846704770B5040015D02088002812D0DE
:10ADB000A18820890144491EB1FBF0F200FB121565
:10ADC000E188E06805FB0100E16901B18847A580E1
:10ADD0002088401E208070BD002800D00088704769
:10ADE0000022002803D003888B4201D81046704708
:10ADF000428811440289B1FBF2F302FB1311C268CD
:10AE0000C08889B201FB0020704710B50446C068B5
:10AE10006188E28801FB0200E16901B1884760882E
:10AE20002189401CB0FBF1F201FB120060802088F8
:10AE3000401E208010BD000088DC010864DC010891
:10AE4000656F5F64657175655F4E657728293A2087
:10AE500030206974656D5F73697A6500656F5F6442
:10AE6000657175655F4E657728293A2030206361EA
:10AE700070616369747900002DE9FF4F83B09B46D0
:10AE8000DDE910980E460746DDF848A000F0FBFF0C
:10AE900001230822042101F0A0F8044600F00FFF6E
:10AEA000A04D00950FB1012100E000219E4B9FA213
:10AEB00000F03FFF00F003FF00950EB1012100E01C
:10AEC0000021994BA0A200F034FFCDE900985B4629
:10AED00031463846059AFFF737FEC4E9000A07B045
:10AEE0002046BDE8F08F10B5040007D0606840B17F
:10AEF00001F0D6FB48B16FF0020010BD6FF0010009
:10AF000010BD2068FFF789FE05E02068FFF785FE89
:10AF1000606801F0D4FB002010BD70B504001BD0A8
:10AF20002068002818D08F4D606810B1296801F0A2
:10AF3000B7FB20462968FFF7D6FF00F0A4FF216881
:10AF400001F0FBF800202060606000F09CFF2146CB
:10AF5000BDE8704001F0F1B870BD70B50D46040059
:10AF600008D0606848B1114601F09AFB50B16FF00B
:10AF7000020070BD6FF0010070BD2068FFF785FE14
:10AF8000288006E02068FFF780FE2880606801F0D6
:10AF900096FB002070BD70B50D46040008D06068B7
:10AFA00050B1114601F07CFB58B16FF0020070BD4A
:10AFB00000200880801E70BD2068FFF70DFF2880EC
:10AFC00006E02068FFF708FF2880606801F077FB43
:10AFD000002070BD70B50E4604000AD060686FF0A6
:10AFE000050548B1114601F05BFB80B16D102846A4
:10AFF00070BD6FF0010070BD2068FFF74AFE0028A9
:10B00000F5D131462068FFF754FE0025EFE72068B0
:10B01000FFF73FFE20B931462068FFF74AFE0025C2
:10B02000606801F04CFBE2E770B50D4604000AD001
:10B030004DB160686FF0040640B1114601F030FB7D
:10B0400068B1701070BD6FF0010070BD2068FFF72F
:10B050006FFE28600BE0002070BD304670BD206898
:10B06000FFF766FE2860606801F029FB2868002869
:10B07000F3D0F0E710B5040007D0606840B101F0EC
:10B080000FFB48B16FF0020010BD6FF0010010BD62
:10B090002068FFF759FE05E02068FFF755FE60685D
:10B0A00001F00DFB002010BD70B50E4604000BD062
:10B0B00056B160686FF0040548B1114601F0F0FA2E
:10B0C000C8B16D10284670BD6FF0010070BD2068DA
:10B0D000FFF72EFE0100F5D020680025826912B12D
:10B0E0003046904703E0C288304606F007FF2068EC
:10B0F000FFF78BFEE6E72068FFF71AFE01000DD090
:10B1000020680025826912B13046904703E0C2886A
:10B11000304606F0F3FE2068FFF777FE606801F026
:10B12000CEFACFE788DC01086CDC0108656F5F664A
:10B1300069666F5F4E657728293A2030206974650B
:10B140006D5F73697A650000656F5F6669666F5F42
:10B150004E657728293A20302063617061636974F5
:10B160007900000054DB010870B5044600F08BFE46
:10B1700001230C22042100F030FFA1890546042997
:10B180000DD900F080FEA2890123042100F025FFE3
:10B19000A86022690AB1616906E0A18908E0226914
:10B1A00022B105F108006169904703E005F108004C
:10B1B00006F023FF284670BD2DE9F84F9A469346C6
:10B1C0000D460746002600F05EFE012324220421DE
:10B1D00000F003FFB046C0F80080C0F804800446C9
:10B1E000A0F8088000F06BFDDFF8E093CDF8009048
:10B1F0000FB1012100E00021F54BF6A200F099FD0E
:10B2000000F05DFDCDF800900DB1012100E00021BE
:10B21000EF4BF7A200F08DFD6581A781C4E904BA68
:10B220000A98A0610B98E061A5F57F40FF381DD119
:10B2300000F029FE00F057FF60B1002500F03FFD4F
:10B24000F2490091E24BF24A294600F072FDC4F83F
:10B2500020800DE00125F1E72046FFF785FF01463C
:10B26000206A00F01CFA761CB6B22062AE42F3D31C
:10B270002046BDE8F88F002800D0008970470028DC
:10B2800000D04089704718B1008908B1002070478C
:10B290000120704718B141890089814201D1012004
:10B2A00070470020704770B50E4604001AD0002E7B
:10B2B00018D060892189884214D0204600F00EFA07
:10B2C00005000FD001463246204600F0EFF92089F4
:10B2D00000B965602946206800F0E1F92060208906
:10B2E000401C208170BD002804D0016809B100F025
:10B2F000CEB90020704770B50E4605001CD0002E58
:10B300001AD068892989884216D0284600F0E6F9C3
:10B31000040011D001463246284600F0C7F92889BA
:10B3200000B92C6000216868C4E9000100B14460E4
:10B330006C602889401C288170BD002804D04168B9
:10B3400009B100F0A4B9002070472DE9F04117467B
:10B350000E46040022D0002E20D060892189884228
:10B360001CD0204600F0BAF9050017D001463A4635
:10B37000204600F09BF9208900B9656020682946C5
:10B38000864202D100F08BF904E03268C1E9002660
:10B390005160316020602089401C2081BDE8F0812F
:10B3A00010B109B100F073B900207047002800D037
:10B3B00000687047002802D0084600F0A2B9704724
:10B3C000002801D009B1086870470020704770B5A7
:10B3D00005000E4602D00EB12C680EE0002070BDB4
:10B3E0002146284600F053F9AA89314606F05AFD55
:10B3F00028B1204600F085F90446002CF0D1204603
:10B4000070BD2DE9F04115460F46060002D00DB182
:10B41000346811E00020C1E72146304600F037F9DA
:10B4200029460FB1B84702E0B28906F03BFD28B1CA
:10B43000204600F066F90446002CEDD12046ADE729
:10B440002DE9F04117460D460600A7D0002DA5D0E6
:10B45000346809E02146304600F019F93946A8471A
:10B46000204600F04EF90446002CF3D196E72DE972
:10B47000F04117460D46060090D0002B8ED0002DCF
:10B480008CD01C462146304600F001F93946A847C9
:10B49000204600F036F90400F4D17FE710B50C46E1
:10B4A00010B10CB1006807E0002010BD844201D14A
:10B4B000012010BD00F025F90028F7D110BD10B50E
:10B4C00080890C46042804D900F0DDFCA16800F056
:10B4D00034FE002020606060A06000F0D4FC2146B3
:10B4E000BDE8104000F029BE70B50D46044600F0DE
:10B4F000CEF8E16901B188476089A0F57F41FF3945
:10B5000005D02946206A00F0CAF8206270BD29469D
:10B510002046BDE87040D2E770B5040010D0206826
:10B5200005000DD000F0D2F8206029462046FFF734
:10B53000DBFF2089401E0004000C208100D16060E8
:10B5400070BD70B5040010D0606805000DD000F02B
:10B55000DCF8606029462046FFF7C6FF2089401EC0
:10B560000004000C208100D1206070BD70B50D4634
:10B57000040026D0002D24D0FFF790FF002820D013
:10B58000206800281DD0A84203D100F09FF8206059
:10B590000CE06068A84203D100F0B7F8606005E0F5
:10B5A000D5E900014160D5E900010860294620463F
:10B5B000FFF79AFF2089401E0004000C208100D173
:10B5C000606070BD10B504002AD026E088DC010858
:10B5D00073DC0108656F5F6C6973745F4E65772873
:10B5E000293A2030206974656D5F73697A650000BF
:10B5F000656F5F6C6973745F4E657728293A2030F8
:10B6000020636170616369747900000098DC01084F
:10B6100024E601082046FFF77FFF20680028F9D1C3
:10B6200010BDF8B5040031D000F02DFC00F05BFD3A
:10B6300080B1002500F043FB38490091384B39A216
:10B64000294600F076FB2046FFF7BCFF206A90B148
:10B6500000250DE00125EDE7206A06000BD000F083
:10B6600035F8206231462046FFF729FF6D1CADB248
:10B670006089A842F0D82421204606F0E0FC00F0C2
:10B6800002FC2146BDE8F84000F057BDF8BD8089B6
:10B69000042801D98868704701F10800704700222A
:10B6A000C1E9002000B101600846704770B514463A
:10B6B0000546FFF7ECFFAA69214612B1BDE87040CC
:10B6C0001047AA89BDE8704006F018BC002804D0D5
:10B6D0004068002801D000210160704770B5044621
:10B6E0004089A0F57F41FF3906D0206A0546FFF763
:10B6F000EDFF2062284670BD2046FFF735FD054668
:10B70000F8E7002800D040687047002804D000689F
:10B71000002801D0002141607047000098DC01083A
:10B7200073DC0108656F5F6C6973745F44656C65F9
:10B73000746528293A206F6E6C7920696620656FE0
:10B740005F6D656D706F6F6C5F616C6C6F635F6474
:10B75000796E616D6963000070B5054600F093FB7A
:10B7600001231422042100F038FC0446002020604C
:10B77000A080A07120816581A081E0815DB100F091
:10B7800082FB01232A46194600F027FC2061002095
:10B79000E071204670BD20610120F9E710B504007A
:10B7A00011D0E07920B900F06EFB216900F0C5FCF2
:10B7B0001421204606F043FC00F065FB2146BDE85D
:10B7C000104000F0BABC10BD30B5039C30B12CB1B4
:10B7D000C579012D05D04FF0FF3030BD6FF001006D
:10B7E00030BD0160828000218171038143818381AA
:10B7F000C1810461084630BD70B5040015464FF0A4
:10B80000FF300FD071B1E279002A0DD16289002694
:10B810002069AA4209D32A4606F070FB2581A5813A
:10B82000E6810AE06FF0010070BD06F067FB6089F9
:10B830002081A081E6810120A071002070BD70B53B
:10B840000E4604991546040005D021B1E07928B1CF
:10B850004FF0FF3070BD6FF0010070BD1A462046FA
:10B86000FFF7CAFF2660A580002070BD18B10160F7
:10B870008280002070476FF00100704738B131B10D
:10B880002AB103680B6080881080002070476FF039
:10B890000100704738B1428900238A4206D30181F2
:10B8A0008181C38107E06FF00100704702818281CE
:10B8B000C381012181710020704770B516460400D4
:10B8C0004FF0000502D009B1E07908B1002070BD49
:10B8D00020896289831993420AD82269104432462A
:10B8E00006F00CFB2089354628442081A0810DE01C
:10B8F00090420BD2121A95B2226910442A4606F0E1
:10B90000FDFA60892081A0810120A071284670BDC8
:10B9100048B141B13AB10389C38103690B60008921
:10B920001080002070476FF00100704730B5002391
:10B9300040B13AB131B1C4890589AC4204D100208B
:10B94000106012E0002030BD6318AB4206D80569D4
:10B950000B462C441460C289D11805E0291B8BB218
:10B960000169214411600189C181184630BD70B55B
:10B970000A4604000CD000252560A5806189206955
:10B9800006F033FB2581A581E581A571002070BDFE
:10B990006FF0010070BD20B119B14089088000200E
:10B9A00070476FF00100704770B50C4605000FD06E
:10B9B0006889298988420AD0A04200D904462869AA
:10B9C0000844611A06F011FB2C81AC81204670BD41
:10B9D000002070BD70B50D4609680160A98881809E
:10B9E000044640892989884201D8012000E00020CE
:10B9F000A07178B160892081A0810020E0816189F7
:10BA0000206906F0FAFA22892969206906F076FA97
:10BA1000002070BD2889EEE7DCE770B504464FF0E2
:10BA200000002060A080A0712081A0810D00E08135
:10BA300065810BD000F027FA0122ABB2114600F06D
:10BA4000CCFA20610020E071002070BD206101204F
:10BA5000F9E7002101608180817101818181C181CB
:10BA60000846704760B159B152B10023036083802A
:10BA70008371038142818381C3810161C3717047F6
:10BA8000002070470168CA7842710022027149693A
:10BA9000002900D0084770472DE9F84300260160CF
:10BAA00005460671C8786871FF200C463746A871B4
:10BAB00000F0E9F923780822042100F08EFA4FF013
:10BAC0000408A86010E0A86840F8367000F0DBF9C0
:10BAD0000122A378114600F080FA014608EBC60067
:10BAE000AA68761CF6B211502078B042EBD8002636
:10BAF00027E0E06800EBC60700F0E1F85C49009140
:10BB00003A7821788A4208D27A788A4205D2B9787E
:10BB1000A278914201D2012100E00021554B56A2AA
:10BB200000F007F93978A868BB7800EBC100012262
:10BB300001689A40114301604068B9784654761C08
:10BB4000F6B26078B042D4D8207930B100F09BF9D9
:10BB500022790123042100F040FAE8602868016995
:10BB600009B1284688472846BDE8F8438AE738B532
:10BB7000044600F0A4F83E4900910CB1012100E018
:10BB800000213C4B44A200F0D4F800F07CF90123E2
:10BB90001022042100F021FA05462146FFF77CFF20
:10BBA000284638BD10B510B1017919B10EE06FF01B
:10BBB000010010BD01210171FF21817101688A68B6
:10BBC000C97802EB0111896801B18847002010BDD6
:10BBD0002DE9F0410D46040007D020688078A84286
:10BBE00006D84FF0FF30BDE8F0816FF00100FAE7B2
:10BBF000207910B92046FFF7D5FF6179A0680123AD
:10BC000000EBC100AB4002681A4202D16FF00400A1
:10BC1000E9E7A57122684068D368405D03EBC0077F
:10BC2000906800EB0116797800EB0115AE4203D065
:10BC3000F16809B120468847796809B120468847EC
:10BC400078786071AE4203D0A96809B12046884770
:10BC50000020C8E7002800D0C068704708B14079CC
:10BC60007047FF20704708B180797047FF20704708
:10BC700088DC01087ADC0108735F656F5F736D5FB4
:10BC80005370656369616C69736528293A2077721E
:10BC90006F6E672063666700656F5F736D5F4E65EB
:10BCA0007728293A204E554C4C20636667000000E7
:10BCB00000B93C483C4900680860084670473A486B
:10BCC0007047394800EBC100001D704736480068D6
:10BCD000002800D00120704733480160704710B53C
:10BCE000314C24681CB1A446BDE8104060470428CC
:10BCF00004D900F001FF00F095FFFEE710BD7CB510
:10BD00000020069ECDE9000314460D4600F0F4FE27
:10BD100000F0F8FE58B100F0E2FD00BF8DF8000021
:10BD200033466A4621462846FFF7D9FF7CBD0220EC
:10BD3000F4E738B50029049C03D105210094FFF7EE
:10BD4000DEFF38BD08B5009313460A460121FFF710
:10BD5000D6FF08BD08B5009313460A460221FFF737
:10BD6000CEFF08BD08B5009313460A460321FFF72E
:10BD7000C6FF08BD1CB50020CDE900020C4600F04E
:10BD8000BBFE00F0BFFE50B100F0A9FD8DF8000031
:10BD900000236A4621461846FFF7A1FF1CBD02207A
:10BDA000F4E7000080DC0108DC00002005F0E3BCC3
:10BDB00005F0EFBC012105F099BCF8B5FE4D2978DE
:10BDC00001295ED0012129700026EE642E6500B99C
:10BDD000FA48D0E90012C5E90112017821B1012920
:10BDE0000DD0022941D10AE0416899B30968E960A0
:10BDF00041684968296140688068686135E0416848
:10BE000049B3ED4C20221834204606F0BCF82068D7
:10BE100030B194F8200040F0010084F820006684DE
:10BE2000A06830B194F8200040F0020084F82000AF
:10BE3000A684206930B194F8200040F0040084F812
:10BE40002000E684A06928B114F8200F40F0080013
:10BE50002070268109E0FFF732FFD949D74B0091C6
:10BE60000833D8A20521FFF74AFFE86808B9DF4880
:10BE7000E860286908B9DE482861686908B9DD48C2
:10BE80006861CD48F8BDCC480078012801D0002079
:10BE90007047C9487047C848436C13B14FF0FF3032
:10BEA0007047C0E91112002070472DE9F04FDFF80C
:10BEB000089387B00D468346BF4CD9E911019846D7
:10BEC00016460027183400F0EBFBBA46C01C1DD103
:10BED0000521CDF80CA0CDF810A0CDF814A002914A
:10BEE000D9F848104FF47A72B1FBF2F1ADF80E10A8
:10BEF0008DF80CA08DF80DA0FFF7E1FE02A9AF4B65
:10BF000000910833BCA20521FFF7F9FEBBF1090F30
:10BF100041D2DFE80BF030051240214040403000B4
:10BF2000628C06FB05F023681118994233D86368C8
:10BF300061849F18C8F800002DE0681C4008A28C9E
:10BF40007043A3681118B1EB530F24D8E368A184A0
:10BF500003EB420741001CE0E81C8008E28C7043C0
:10BF600023691118B1EB930F15D86369E18403EBD2
:10BF7000820781000DE0E81DC008228D7043A3698F
:10BF80001118B1EBD30F06D8E369218503EBC20783
:10BF9000C100C8F80010D9F8440000F090FBC7B900
:10BFA000CDF80CA07543ADF80E5004218DF80CA00F
:10BFB000CDF810A0CDF814A002918DF80DA0FFF7D8
:10BFC0007EFE02A97D4B0091083397A20521FFF761
:10BFD00096FE07B03846BDE8F08F2DE9F04786B0F1
:10BFE0004FF00009744E8A46CDF8049031799C4692
:10BFF0005FEA02084C464F460CD0BCF1000F09D056
:10C000000CFB08F5F8B1002938D001293ED00229EF
:10C0100046D12EE00394ADF80E4002208DF80C407E
:10C020000494059402908DF80D40FFF748FE02A994
:10C03000624B0091083386A20321FFF760FE0020C7
:10C0400006B0BDE8F0870394ADF80E4003208DF8EC
:10C050000C400494059402908DF80D40FFF72FFEDC
:10C0600002A9564B0091083383A20121FFF747FE36
:10C0700004E090F8380010EA0A0F07D1F16828466A
:10C0800088478146FEF7EEFA074606E001AB6246B6
:10C0900041465046FFF709FF8146B9F1000F14D120
:10C0A0000394ADF80E5004208DF80C4004940594D0
:10C0B00002908DF80D40FFF702FE02A93F4B009160
:10C0C00008337AA20521FFF71AFE306D0199084462
:10C0D0003065F06C3844F0644846B1E73648016D8D
:10C0E000C06C0844704734480079704770B5324CD2
:10C0F0000D4686B0E16828468847060014D10390B3
:10C10000ADF80E5004218DF80C00049002910590BA
:10C110008DF80D00FFF7D3FD02A9284B00910833DD
:10C120006CA20521FFF7EBFD3046FEF79BFAE16CB0
:10C130000844E06406B0304670BD38B50D000CD040
:10C140001D4C207950B1FFF7BAFD6A491B4B009195
:10C15000083369A20321FFF7D2FD38BD0846FEF778
:10C1600081FAE16C081AE064616901B02846BDE813
:10C1700030400847F0B587B016000F461BD00E4C74
:10C1800000252079B0B10395ADF80E5007208DF849
:10C190000C500495059502908DF80D50FFF78FFD1A
:10C1A00002A9064B0091083361A20521FFF7A7FD04
:10C1B0000020D1E0D5E0D1E010010020B8DC01087A
:10C1C00088DC0108656F5F6D656D706F6F6C5F492E
:10C1D0006E697469616C69736528293A20706F6FA4
:10C1E0006C73206E6565646564000000B5BD000871
:10C1F000B1BD0008ADBD0008735F656F5F6D656D13
:10C20000706F6F6C5F6765745F73746174696328C6
:10C21000293A206D757465785F74616B65282920F3
:10C22000746F757400000000735F656F5F6D656DFE
:10C23000706F6F6C5F6765745F7374617469632896
:10C24000293A206E6F206D6F7265206D656D00005C
:10C25000656F5F6D656D706F6F6C5F4765744D6581
:10C260006D6F727928292069732061736B65642072
:10C270003020627974657300656F5F6D656D706FF6
:10C280006F6C5F4765744D656D6F72792829206EFC
:10C290006F7420696E6974746564207573657320AA
:10C2A00064796E20616C6C6F63000000656F5F6D78
:10C2B000656D706F6F6C5F4765744D656D6F7279FA
:10C2C0002829206E6F206D6F7265206D656D6F720D
:10C2D00079000000656F5F6D656D706F6F6C5F4E0C
:10C2E00065772829206E6F206D6F7265206D656DF2
:10C2F0006F72790098DC0108656F5F6D656D706F16
:10C300006F6C5F44656C65746528293A206F6E6CAC
:10C310007920772F20656F5F6D656D706F6F6C5F33
:10C32000616C6C6F635F64796E616D6963000000BE
:10C33000656F5F6D656D706F6F6C5F5265616C6C82
:10C340006F6328292075736564207768656E206E99
:10C350006F6E2064796E000007B0F0BDFFF7EDFE50
:10C3600026E72FB10846FEF77DF9E16C081AE06474
:10C370002269314638469047070013D10395ADF83E
:10C380000E6004208DF80C500495059502908DF8F0
:10C390000D50FFF794FC02A90091064B06A205215F
:10C3A000FFF7ADFC3846FEF75DF9E16C0844E06448
:10C3B0003846FEE6C0DC0108656F5F6D656D706F25
:10C3C0006F6C5F5265616C6C6F632829206E6F2003
:10C3D0006D6F7265206D656D6F727900E9B101292D
:10C3E0001DD00223002817D09149D1E90021C0E9CE
:10C3F000002100218160C160027E63F3010222F00E
:10C40000F40242F0080202760161C16101624162F8
:10C410008162C0E90411017770470023E2E701233C
:10C42000E0E7F8B5FFF72FFD012330220421FFF7E5
:10C43000D4FD04460021FFF7D1FF00F06DFC7D4ED6
:10C44000050007D1FFF73BFC7B4B7CA20421009643
:10C45000FFF755FC2146284600F064FC38B1FFF791
:10C460002EFC754B81A204210096FFF748FC204664
:10C47000F8BDD1B101291AD00222002814D0017EC2
:10C4800062F3010121F0F40141F0080101766849ED
:10C49000D1E90021C0E9002100218160C160C161B2
:10C4A000016241628162017770470022E5E7012263
:10C4B000E3E738B1007E10F0030003D0012800D07C
:10C4C000022070470020704770B505466FF00506E2
:10C4D00000F022FC040016D0ADB17048016820467F
:10C4E00000F03CFCC01C11D02846FFF7E2FF0128F9
:10C4F0000ED000212846FFF7BCFF0025204600F0A3
:10C5000031FC284670BD6FF0010070BD304670BD33
:10C510002946204600F01BFC0546EFE710B5040055
:10C5200015D0207E000712D52046FFF7CDFF00F082
:10C53000F3FB214600F0FDFB3021204605F07FFD96
:10C54000FFF7A1FC2146BDE81040FFF7F6BD10BD86
:10C550002DE9F84F0646DDE90A7A6FF00500154629
:10C560001C46DDF83090009000F0D6FB5FEA000832
:10C570001CD0B9F1000F19D0DFF8B4B0DBE900012D
:10C5800068406140084300D0A7B144480168404674
:10C5900000F0E4FBC01C10D0DBE900016840614002
:10C5A00008431AD0BAF1000F09D016E06FF001006D
:10C5B000BDE8F88F4FF0FF30FAE70098F8E700F099
:10C5C0009BFA00F0A4FAEB1944F10002C01A914161
:10C5D00003D3404600F0C6FBECE73046FFF769FFA7
:10C5E00001281DD0307EBAF1000F20F00300307614
:10C5F00002D040F0040001E020F004003076B76083
:10C60000C6E9005499E80E00D9F80C0006F11C0A9E
:10C61000B0628AE80E003146404600F091FB00907F
:10C62000404600F09FFBC8E700200146704700002D
:10C6300058DB0108A8DC0108D0DC0108656F5F74D5
:10C64000696D65725F4E657728293A20656F765F60
:10C6500074696D65726D616E5F47657448616E6483
:10C660006C652829206661696C730000656F5F74D2
:10C67000696D65725F4E657728293A20656F765F30
:10C6800074696D65726D616E5F4F6E4E657754694A
:10C690006D65722829206661696C730054DB01089E
:10C6A00070B50C460546FDF7CFFF28B1026821465C
:10C6B0002846BDE8704010476FF0010070BD10B50E
:10C6C0000446FDF7C1FF20B141682046BDE8104097
:10C6D00008476FF0010010BD10B50446FDF7B4FF28
:10C6E000002804D081682046BDE81040084710BDEE
:10C6F00010B5FFF7C8FB01230C220421FFF76DFCE6
:10C70000002101604160816010BD10B504000AD0B5
:10C71000002020606060A060FFF7B5FB2146BDE807
:10C720001040FFF70ABD10BD2DE9F8431D4616461F
:10C730000F460446FFF7C3FADFF85080CDF80080BB
:10C740000FB1012100E00021114B12A2FFF7F1FA15
:10C75000FFF7B5FACDF800800EB1012100E000210D
:10C760000B4B16A2FFF7E5FAFFF7A9FACDF8008008
:10C770000DB1012100E00021054B1BA2FFF7D9FA02
:10C780002760C4E901650020BDE8F88388DC010862
:10C79000D8DC0108656F765F6D757465785F6869D0
:10C7A000645F536574565441424C4528293A204EE3
:10C7B000554C4C20765F74616B650000656F765F49
:10C7C0006D757465785F6869645F5365745654412C
:10C7D000424C4528293A204E554C4C20765F7265D4
:10C7E0006C65617365000000656F765F6D757465DB
:10C7F000785F6869645F536574565441424C4528BC
:10C80000293A204E554C4C20765F64656C65746502
:10C810000000000070B50C460546FDF715FF28B175
:10C82000826821462846BDE8704010476FF001003D
:10C8300070BD70B50C460546FDF706FF28B1C2680D
:10C8400021462846BDE8704010476FF0010070BDDA
:10C8500070B50C460546FDF7F7FE28B10269214682
:10C860002846BDE8704010476FF0010070BD70B5FC
:10C8700014460D460646FDF7E7FE30B143692246F1
:10C8800029463046BDE8704018476FF0010070BD82
:10C8900070B514460D460646FDF7D6FE30B18369E5
:10C8A000224629463046BDE8704018476FF0010027
:10C8B00070BD2DE9F0411C4615460E460746FDF7B2
:10C8C000C3FE40B1D0F81CC023462A463146384644
:10C8D000BDE8F04160476FF00100BDE8F08110B5A0
:10C8E0000446FDF7B1FE002804D0016A2046BDE8E9
:10C8F0001040084710BD002070474FF0FF307047D0
:10C900004FF0FF3070474FF0FF3070474FF0FF306F
:10C9100070474FF0FF3070474FF0FF30704770475F
:10C92000F0B5DDE90954DDE90776DDE905EC08B18C
:10C9300021B902E06FF00100F0BD2F49016002B99A
:10C940002D4A426003B92D4B8360BEF1000F01D127
:10C95000DFF8ACE0C0F80CE0BCF1000F01D1DFF86B
:10C96000A4C0C0F810C007B9274F476106B9274EC9
:10C97000866105B9264DC56104B9264C04620020C4
:10C98000F0BD10B586B0FFF77EFA01232422042102
:10C99000FFF723FB04461C480DF1080C1D4B1C4AF5
:10C9A0001A498CE80F0017491548134ACDE90001D0
:10C9B000124B11462046FFF7B3FF06B0204610BDCC
:10C9C00070B50C460546FDF73FFE002805D002680D
:10C9D00021462846BDE87040104770BD70B50C4632
:10C9E0000546FDF731FE002805D04268214628465D
:10C9F000BDE87040104770BD1FC9000819C9000884
:10CA000013C900080DC9000807C9000801C90008BA
:10CA1000FBC80008F7C800081C480068002800D0C0
:10CA20001A48704730B420B119B10468A44630BC2C
:10CA3000604730BC6FF001007047002800D04068AC
:10CA40007047F8B5114E05460C46306808B10F48DE
:10CA5000F8BDFFF734F90E4F00970DB1012100E04A
:10CA600000210C4B0CA2FFF764F9FFF728F900979F
:10CA70000CB1012100E00021064B14A2FFF759F987
:10CA8000C6E90054E3E701484160704764010020B3
:10CA900088DC0108E1DC0108656F765F63616C6C1E
:10CAA0006261636B6D616E5F6869645F496E697432
:10CAB00069616C69736528293A204E554C4C206594
:10CAC0007865637574655F666E000000656F765FFC
:10CAD00063616C6C6261636B6D616E5F6869645FFA
:10CAE000496E697469616C69736528293A204E55ED
:10CAF0004C4C207461736B004F480068002800D0D4
:10CB00004D487047002801D040680047704708B181
:10CB10008068004700200146704710B528B1C468FE
:10CB200010461946A047002010BD6FF0010010BD4F
:10CB300010B50C4628B100698047C4E90001002007
:10CB400010BD6FF0010010BD70472DE9FF4F81B09F
:10CB5000DFF8E4B0DDE90E89DDE91076DBF80000EE
:10CB60001C46154618B105B03348BDE8F08FFFF7F5
:10CB7000A6F8DFF8C8A0CDF800A00DB1012100E0B3
:10CB800000212F4B2FA2FFF7D4F8FFF798F8CDF82C
:10CB900000A00CB1012100E00021294B33A2FFF7D6
:10CBA000C8F8FFF78CF8CDF800A05FEA080100D0C4
:10CBB0000121234B38A2FFF7BCF8FFF780F8CDF82E
:10CBC00000A05FEA090100D001211D4B3CA2FFF744
:10CBD000B0F8FFF774F8CDF800A00FB1012100E024
:10CBE0000021174B40A2FFF7A4F80BF10402CBF889
:10CBF0001070CBF8005082E8100306B9454ECBF810
:10CC000014600298FFF754F80198FFF7D6F8AAE7E6
:10CC100010B520B1026808469047002010BD6FF0A3
:10CC2000010010BD10B518B140698047002010BD4B
:10CC30006FF0010010BD0000DC83002088DC0108DB
:10CC4000F7DC0108656F765F7379735F6869645F0D
:10CC5000496E697469616C69736528293A204E557B
:10CC60004C4C20737461727400000000656F765F35
:10CC70007379735F6869645F496E697469616C692F
:10CC8000736528293A204E554C4C206765746375AE
:10CC900072727461736B0000656F765F7379735F96
:10CCA0006869645F496E697469616C697365282994
:10CCB0003A204E554C4C2074696D656765740000D0
:10CCC000656F765F7379735F6869645F496E6974D5
:10CCD00069616C69736528293A204E554C4C207463
:10CCE000696D657365740000656F765F7379735F56
:10CCF0006869645F496E697469616C697365282944
:10CD00003A204E554C4C206E616E6F74696D6567AC
:10CD10006574000049CB00083A480068002800D03C
:10CD20003848704710B109B1026810476FF0010030
:10CD3000704710B109B1C26810476FF00100704729
:10CD400010B109B1426810476FF00100704710B18F
:10CD500009B1826810476FF00100704729480069E7
:10CD6000FFF79EBC27480069FFF7A9BC2DE9F84FE3
:10CD7000DFF890900746DDF828A0D9F800001C469F
:10CD800015460E4610B11F48BDE8F88FFEF797FF15
:10CD9000DFF87480CDF800800FB1012100E00021A0
:10CDA0001A4B1BA2FEF7C5FFFEF789FFCDF80080E6
:10CDB0000EB1012100E00021144B22A2FEF7B9FFC1
:10CDC000FEF77DFFCDF800800DB1012100E00021CC
:10CDD0000E4B29A2FEF7ADFFFEF771FFCDF80080E4
:10CDE0000CB1012100E00021084B2FA2FEF7A1FFAA
:10CDF000C9F80070C9F80C60C9E90154C9F810A05D
:10CE0000C1E70000F483002088DC010804DD01088C
:10CE1000656F765F74696D65726D616E5F68696478
:10CE20005F496E697469616C69736528293A204E9F
:10CE3000554C4C206F6E6E657774696D65725F66D8
:10CE40006E000000656F765F74696D65726D616E6E
:10CE50005F6869645F496E697469616C69736528AC
:10CE6000293A204E554C4C206F6E64656C74696D88
:10CE700065725F666E000000656F765F74696D6550
:10CE8000726D616E5F6869645F496E697469616C37
:10CE900069736528293A204E554C4C2061646474AE
:10CEA000696D65725F666E00656F765F74696D654A
:10CEB000726D616E5F6869645F496E697469616C07
:10CEC00069736528293A204E554C4C2072656D7463
:10CED000696D65725F666E0010B5040011D0606800
:10CEE00000280ED00CF076FC2068FFF70EFC002026
:10CEF00020606060FEF7C7FF2146BDE81040FFF7E5
:10CF00001CB910BD10B5FFF7E7FF002010BD38B504
:10CF1000FEF7B9FF012308220421FFF75EF804465B
:10CF2000FFF7E6FB154B164A16492060FFF7FCFB9E
:10CF30000CF08AFC6060FEF7C2FE054612480090C5
:10CF4000606808B1012100E00021104B10A22846C2
:10CF5000FEF7EFFE204638BD08B100F00CB86FF0C8
:10CF60000100704708B100F003B86FF0010070478E
:10CF700040680CF0D3BC40680CF0F2BC05CF000850
:10CF800071CF000877CF0008A8DC010817DD010881
:10CF9000656F6D5F6D757465785F4E657728293AAA
:10CFA000206F73616C5F6D757465785F6E6577284F
:10CFB000292072657475726E73204E554C4C0000BA
:10CFC00008B500218DF80010406869460CF099FE04
:10CFD0009DF8000008BD044685690068D0E9002678
:10CFE00012B100212046904728460CF079FF00BF7F
:10CFF0000CF08AFF29462046B047F9E72DE9F041B9
:10D00000044680681E46174688464FF0FF35A8B193
:10D01000E06898B101210CF09FFA60B1002332461C
:10D020003946E0680CF092FB002332464146A06886
:10D030000CF08CFB05462846BDE8F0816FF001003E
:10D04000FAE72DE9F0410446806816460F464FF096
:10D05000FF35A0B1E06890B101210CF07DFA60B11C
:10D06000012300223146E0680CF070FB012300220E
:10D070003946A0680CF06AFB05462846DCE76FF0ED
:10D080000100D9E7044686690068D0E9002712B19B
:10D0900000212046904700223146A0680CF0B2FAE9
:10D0A000054600223146E0680CF0ACFA05B1A8470D
:10D0B00029462046B847EEE7806810B100230CF0FF
:10D0C00045BB6FF001007047806818B10123002252
:10D0D0000CF03CBB6FF001007047044685690068A6
:10D0E000D0E9002612B100212046904700222946AF
:10D0F000A0680CF087FA01462046B047F6E70B46D9
:10D100004168002218460CF0CFB90B464168012255
:10D1100018460CF0C9B908B50446002000902068F4
:10D12000D4E90656D0E9002712B1002120469047E5
:10D130002B466A46002130460CF06AF9C01C01D02B
:10D14000009900E000212046B847F1E704468569D0
:10D150000068D0E9002612B10021204690472846F9
:10D160000CF086F901462046B047F8E770B5044652
:10D170000068D0E9002512B1002120469047002D1B
:10D1800005D02046AC46BDE870400021604770BD28
:10D190002DE9FF4F87B08A46DDE916658146159F68
:10D1A000FEF78DFDA84C0094149901B10121A74B05
:10D1B000A7A2FEF7BEFDFEF782FDA34900910999E3
:10D1C00001B10121A14BA9A2FEF7B3FDFEF75BFE61
:10D1D000012324220421FEF700FF0446FFF7D1FBC0
:10D1E0002562A94DA949DFF8A8B220604FF00008D8
:10D1F000B9F1060F6ED2DFE809F0030B262E518835
:10D2000084F81280A34AC4E90528C4F81C8006E00B
:10D210000122A274A04A04F1140383E8440184F8B3
:10D220001080C4F80880C4F80C80CDE90485CDE9ED
:10D2300000189A4BCDF80880CDF80C80149A0A9902
:10D24000FFF76EFB82E00222A274954A04F11403F8
:10D2500083E8C400E3E70320A074924804F11401BA
:10D2600081E8410107B90127F8B220740CF0F8F900
:10D27000C4E90208FEF723FDCDF800B0A16801B1B2
:10D280000121724B88A2FEF754FD9348CDE90208B4
:10D29000CDE904859148CDE9008033E00420A074F5
:10D2A0008F4804F1140181E8410107B90127F8B260
:10D2B00020740CF0D5F9A060207C0CF0D1F9E0606E
:10D2C000FEF7FDFCCDF800B0A1685E4601B101217A
:10D2D0005E4B00E031E083A2FEF72BFDFEF7EFFC92
:10D2E0000096E16801B10121584B8AA2FEF721FDA9
:10D2F000964A9549CDF80080CDE90282CDE9041522
:10D30000CDF804802068002398E70521A174904996
:10D3100004F1140282E8420184F81080C4F8088005
:10D32000C4F80C80CDE90485CDF80880CDF80C80D8
:10D33000CDF80080CDF80480E5E7FEF7C0FC424957
:10D340000091424B83A20521FEF7D9FCAAF103000C
:10D35000F82802D284F811A006E0BAF1020F01D237
:10D36000022000E0FB20607409984FF6FF71C01D99
:10D37000C00801EAC003627C189800B960692146C0
:10D380000CF0D6FC214660600CF092FCFEF797FC96
:10D39000CDF800B0616801B101212C4B76A2FEF7F7
:10D3A000C8FC80490878401C08700BB02046BDE8D6
:10D3B000F08F002800D0006A7047FFF73ABAFFF7F5
:10D3C00029BAFFF754BAFFF743BAFFF772BAFFF76B
:10D3D0005FBA18B1417440680CF09CBD6FF0010059
:10D3E000704718B1407C0870002070476FF0010052
:10D3F0007047002801D041690847704738B50C468E
:10D4000000236FF00101009338B1806828B16946AC
:10D410000CF0BAF80099216038BD084638BD38B51F
:10D42000144602004FF000000D46009007D06A46F7
:10D43000012128460BF0ECFF0099216038BD2060E7
:10D440006FF0010038BD000088DC010820DD010814
:10D45000656F6D5F7461736B5F4E657728293A2045
:10D460004E554C4C2072756E5F666E00656F6D5F39
:10D470007461736B5F4E657728293A20302073748E
:10D4800061636B73697A6500C1CF0008FFD0000843
:10D49000A8DC01086DD100084DD100080BD10008AF
:10D4A00017D10008DBD00008656F6D5F7461736B86
:10D4B0005F4E657728293A206F73616C2067697623
:10D4C0006573204E554C4C206D2D6D6573736167EF
:10D4D0006571756575650000B9D00008C9D0000890
:10D4E00085D00008656F6D5F7461736B5F4E657703
:10D4F00028293A206F73616C206769766573204E26
:10D50000554C4C2063622D6D657373616765717551
:10D5100065756500656F6D5F7461736B5F4E6577F0
:10D5200028293A206F73616C206769766573204EF5
:10D53000554C4C2063622D617267756D656E747118
:10D540007565756500000000FDCF000843D0000838
:10D55000D7CF0008656F6D5F7461736B5F4E657741
:10D5600028293A20756E737570706F727465642027
:10D570007479706500000000656F6D5F7461736B96
:10D580005F4E657728293A206F73616C2067697652
:10D590006573204E554C4C206F73616C7461736BD6
:10D5A000000000006C010020FFF723BF704770B53A
:10D5B0002F4E044686B0706810B106B02C4870BD7E
:10D5C00004B92C4CFEF77BFB2B4D0095217901B162
:10D5D0000121284B29A29B1DFEF7ABFBFEF76FFB39
:10D5E0000095618801B10121224B2FA29B1DFEF7FE
:10D5F000A0FBFEF764FB0095217801B101211D4BD2
:10D6000034A29B1DFEF795FB3CA3AFF263023D489D
:10D6100002AD0021006885E80F0021793A48CDE984
:10D6200000016288217800230420FFF7B1FD014644
:10D6300070603648FFF705FABFE70D4840680028DC
:10D6400000D00B48704718B10948006800F008B8CE
:10D650006FF001007047002801D00548406870470E
:10D6600018B103484068FFF724B96FF00100704714
:10D670007001002028DD010888DC0108656F6D5FFE
:10D6800063616C6C6261636B6D616E5F496E69743E
:10D6900069616C69736528293A2030207175657558
:10D6A0006573697A65000000656F6D5F63616C6C1E
:10D6B0006261636B6D616E5F496E697469616C690B
:10D6C000736528293A203020737461636B73697A1B
:10D6D00065000000656F6D5F63616C6C6261636B18
:10D6E0006D616E5F496E697469616C697365282943
:10D6F0002030207072696F726974790063626B6D9B
:10D70000616E000054DB0108ADD5000861D6000849
:10D7100010B500200CF0EEFA002803D0BDE8104050
:10D720000CF0BABA10BD10B598B068A26021684676
:10D7300004F04EF9FEF7C3FA6B4A6946FEF71AFB8E
:10D740006A4A6021684604F043F9FEF7B8FA664A6F
:10D750006946FEF70FFB664CE06800F032FA20697C
:10D76000FFF725FF63A26021684604F031F9FEF758
:10D77000A6FA5D4A6946FEF7FDFA606900B1804786
:10D7800068A26021684604F023F9FEF798FA564A29
:10D790006946FEF7EFFA70A26021684604F018F9B6
:10D7A000FEF78DFA504A6946FEF7E4FA18B010BD4C
:10D7B0002DE9F04F85B0054600204D4CDDF838903E
:10D7C000064604902068984692468B4618B105B0EC
:10D7D0004748BDE8F08FFEF772FA6E4F00970DB123
:10D7E000012100E00021404B6BA2FEF7A2FAFEF7F8
:10D7F00066FA0097696801B101213B4B6FA2FEF701
:10D8000098FAFEF75CFA0097A96801B10121364B3E
:10D8100073A2FEF78EFA7E487A4B7B4A7B498DE8ED
:10D820000F007C4B7C4A51465846FFF78EF920602A
:10D830006868606004F10802A86882E8010368680B
:10D8400006F0EAFD06F03AFE286808B107F014FD7C
:10D8500004A9A0680BF07EFD049840B1FEF713FB0D
:10D86000049901238AB20821FEF7B7FB0646314628
:10D87000A0680BF0DDFBAAE71D480068002800D077
:10D880001B48704738B50D460446FEF718FA414963
:10D8900000910CB1012100E00021134B5FA2FEF7C3
:10D8A00048FA2846BDE8384000F008B8104801683A
:10D8B00011B14068C0697047002070470C4910B52D
:10D8C00048615E480CF044F9002010BD4F53414CB4
:10D8D0003A3A74736B696E69743A206A757374208E
:10D8E00073746172746564006CDD010870E6010890
:10D8F000088400204F53414C3A3A74736B696E6947
:10D90000743A2063616C6C696E6720757365722D63
:10D91000646566696E65642066756E6374696F6EB2
:10D92000000000004F53414C3A3A74736B696E69C2
:10D93000743A206861732066696E69736865642053
:10D94000757365722D646566696E65642066756EB3
:10D950006374696F6E0000004F53414C3A3A747320
:10D960006B696E69743A2061626F757420746F2000
:10D9700073746F7020697473656C6620616E6420C7
:10D980007374617274207363686564756C696E6723
:10D990000000000088DC0108656F6D5F7379735FBC
:10D9A000496E697469616C69736528293A204E551E
:10D9B0004C4C20737973636667000000656F6D5F80
:10D9C0007379735F496E697469616C69736528293D
:10D9D0003A204E554C4C2068616C6366670000002D
:10D9E000656F6D5F7379735F496E697469616C69A6
:10D9F000736528293A204E554C4C206F73616C6337
:10DA00006667000059520108199B0108719C0108C2
:10DA1000159B010811D70008BDD80008656F6D5F20
:10DA20007379735F537461727428293A204E554C90
:10DA30004C2068616E646C650000000027D7000808
:10DA4000FFF7D7BC70B50C001BD0864D86492868FF
:10DA500009680069FFF780FA002812D1834801683D
:10DA600004F11C00FCF7AFFD207E400703D4022127
:10DA70002046FEF7FEFC28680069BDE87040FFF70D
:10DA800071BA70BD70B50D46040009D045B1764934
:10DA900020690968FFF760FA28B14FF0FF3070BDC8
:10DAA0006FF0010070BD002128690CF043FB0021DC
:10DAB0002846FEF7DEFC2069FFF754FA002070BD0F
:10DAC00010B5087F0C46012805D066484068BDE8BF
:10DAD0001040FFF778BC606A01224168206A0BF0B1
