:020000040800F2
:10800000F8E700204D8400085584000857840008D4
:10801000598400085B8400085D84000800000000AB
:108020000000000000000000000000003583000890
:108030006184000800000000D5830008398400082E
:108040004DAC000867840008678400086784000856
:108050006784000867840008678400086784000854
:108060006784000867840008678400086784000844
:108070006784000867840008678400086784000834
:10808000678400086784000867840008E39B000891
:108090005D9B000867840008DD9B0008678400087A
:1080A00067840008B1A90008678400086784000895
:1080B000C9A90008DDA90008F5A90008678400081F
:1080C000678400086784000867840008A9A700087F
:1080D000AFA7000867840008678400086784000869
:1080E00067840008678400086784000867840008C4
:1080F00055AA0008678400086784000867840008A0
:1081000067840008678400080DAA0008B5A7000866
:10811000678400086784000825AA00083DAA0008B3
:108120006784000867840008678400086784000883
:108130006784000825A10008678400086F9C000878
:10814000E99B000867840008699C000867840008B0
:108150006784000867840008678400086784000853
:108160006784000867840008678400086784000843
:108170006784000867840008678400086784000833
:10818000678400086784000800F002F800F07BF8BC
:108190000AA090E8000C82448344AAF10107DA4562
:1081A00001D100F070F8AFF2090EBAE80F0013F039
:1081B000010F18BFFB1A43F001031847E82801001C
:1081C000082901000A4410F8014B14F00F0508BFFC
:1081D00010F8015B240908BF10F8014B6D1E05D093
:1081E00010F8013B6D1E01F8013BF9D1641E03D06C
:1081F000641E01F8015BFBD19142E4D3704700009B
:1082000002010205DDB7B90100800008008001000D
:1082100000000020C0FF010000000000000000007E
:1082200001655570644757546F70656E000000001B
:10823000010100000001010000000000000000003A
:108240000023002400250026103A28BF78C1FBD85F
:10825000520728BF30C148BF0B607047642901F046
:108260009980782901F0D280732901F0C083002021
:1082700070471FB511F0C8FB9DE8030001F0A6FA96
:108280001FBD10B510BD01F0E6FB1146FFF7F1FF71
:1082900009F07EFF01F004FC03B4FFF7F2FF03BC1A
:1082A00001F032FC00487047002000000048704791
:1082B00000A0000000487047002000000048704700
:1082C00000A00000401EFDD17047000080F3098827
:1082D0007047EFF309807047684680F309880448C7
:1082E0000078C00714BF0220032080F31488704771
:1082F00090020020DFF818C0EFF305831B0618BFBB
:108300006047EFF31483DB0708BF604700DF704767
:108310002D3F0108DFF818C0EFF305831B0618BFD7
:108320006047EFF31483DB0708BF604700DF704747
:10833000A53F0108EFF30980816911F8021C99BB80
:1083400090E80F1010B5E047BDE81040EFF3098C3E
:108350008CE807001C4B93E80600914208BF704769
:1083600081B11EF0100F06BF2CED108A01200020F5
:1083700081F838002CE9F00FC1F83CC00CB40DF0C6
:1083800023F90CBC1A60D2F83CC0BCE8F00F92F89C
:10839000380000281ABFBCEC108A6FF0120E6FF084
:1083A000020E8CF30988704710B5084A1268914292
:1083B00009D8074C54F8214090E80F10A047EFF37C
:1083C000098C8CE80F0010BD98010020589B000814
:1083D000589B000810B50CF0F7FFBDE81040154B96
:1083E00093E80600914208BF7047EFF3098C1EF036
:1083F000100F06BF2CED108A0120002081F83800F4
:108400002CE9F00FC1F83CC00CB40DF0DDF80CBC49
:108410001A60D2F83CC0BCE8F00F92F8380000288F
:108420001ABFBCEC108A6FF0120E6FF0020E8CF3C4
:10843000098870479801002010B50DF0E9F8CCE7E5
:1084400010B50AF037FC0DF0E3F8C6E7094880479D
:1084500009480047FEE7FEE7FEE7FEE7FEE7FEE726
:10846000FEE7FEE7FEE7FEE704480549054A064B3E
:108470007047000049A9000889810008F8270020FA
:10848000F8E70020F8C70020F8C7002073B56D4654
:10849000002914BF012400241348007868B100F0BB
:1084A00084F92146284602F08DFDC4B200F087F918
:1084B000012C02BF002002B070BD4FF0FF3002B0AF
:1084C00070BD00207047002070470020704790F872
:1084D00020100C2984BF4FF0FF30704710B500F01A
:1084E000E8FC002010BD0000F4000020B94A126F23
:1084F00002B11047FEE770B50C46B8B10546FFF76C
:10850000E0FF0646284600F093FC0644284600F0AB
:108510002BFA0644284600F06EFA0644284600F07E
:1085200069FC3044002C18BF206070BDE120A94ACE
:10853000A9A1126F12B19047002070BDFEE710B5DF
:10854000A44C606F002808BF10BD80470028AC49CC
:10855000086018BF10BDE020226FAAA112B1BDE8CB
:1085600010401047FEE770B5A54D416F81B1816F96
:10857000984C00291FBFC16F0029D0F88000002847
:108580000DD0606F002818D08047286080B114E0BB
:1085900000218167C167C0F8801029600DE0226F5B
:1085A000E320A8A11AB190474FF0FF3070BDFEE75D
:1085B000226FE02093A112B19047002070BDFEE72A
:1085C00010B5D821834801F0BAF88D490020086021
:1085D00010BD2DE9F0417F4C8846050007D02A6F79
:1085E0002267287850B1E420A1A132B12EE0226F99
:1085F000E120ACA1002A29D1FEE7FEE7B2480078CD
:10860000012804D02846FFF762FF20B11AE0E020DD
:10861000AEA1DAB9FEE7D8216E4801F090F8784FA4
:10862000002628463E6000F020FC58B9284600F09D
:10863000A1F938B9284600F0E4F918B9284600F045
:10864000DFFB40B1AB49226FE3205AB190474FF0B6
:10865000FF30BDE8F08141462846FFF734FF00288F
:1086600076D100E0FEE72846FFF72BFF20F003005D
:1086700000EB08018846284600F0DCFB002867D1A3
:10868000284600F0D5FB20F00300804441462846F0
:1086900000F06CF900285BD1284600F065F920F065
:1086A000030080444146284600F0A7F900284FD136
:1086B000284600F0A0F920F0030000EB080128464E
:1086C00000F09AFB002843D1284600F093FBD82203
:1086D0002946404800F0D7FF3E4D2846FFF7F5FEFB
:1086E000002835D1686F60B1A96F00291FBFE96FFD
:1086F0000029D5F88010002909D08047386068B17A
:1087000011E0AE67EE67C5F880603E600BE0226F57
:10871000E3204CA10AB190471AE0FEE7226FE02067
:1087200038A12AB19047284600F086FB80B900E0C6
:10873000FEE7284600F01CF950B9284600F05FF922
:1087400030B9284600F05AFB002808BFBDE8F08188
:108750004FF0FF30BDE8F08170B504000D4616D033
:10876000FFF7AFFE0646204600F062FB06442046B7
:1087700000F0FAF80644204600F03DF90644204691
:1087800000F038FB3044002D18BF286070BDE12098
:10879000104A11A1126F12B19047002070BDFEE780
:1087A00017E7002070470020704715480068002830
:1087B00008BF7047074AD2F88010926F10471048E0
:1087C0000068002808BF70470249C96F0847006861
:1087D00070470000100900206970616C5F6261736E
:1087E000655F6D656D6F72795F67657473697A65D2
:1087F0002829206E65656473206120636667000028
:10880000F00000206970616C5F626173655F686988
:10881000645F7468726561647361666574795F69C9
:108820006E697428293A2063616E6E6F7420616CE2
:108830006C6F6361746520746865206D757465780C
:10884000000000006970616C5F626173655F696E52
:10885000697469616C6973652829206E6565647344
:10886000206F73616C2066756E6374696F6E730040
:108870006970616C5F626173655F696E697469617B
:108880006C69736528293A20756E737570706F7204
:10889000746564207463702F697020737461636BF6
:1088A000000000006970616C5F626173655F696EF2
:1088B000697469616C69736528293A206D697373FD
:1088C000696E672063666700F40000206970616C60
:1088D0005F626173655F696E697469616C69736514
:1088E00028293A20616C7265616479207374617221
:1088F0007465640080A1010831B524486C46007895
:1089000038B1234890F82C0018B19DF80000EF28EA
:1089100002D04FF0FF3038BDFFF747FF204608F088
:108920009FFF00280CBF4FF0FF340024FFF747FFE4
:10893000204638BD31B515486C46007888B11448DA
:1089400090F82C0068B1FFF730FF204608F0B0FF28
:1089500000280CBF4FF0FF340024FFF730FF204603
:1089600038BD4FF0FF3038BD002070470020704701
:108970000020704790F82D10062984BF4FF0FF307B
:10898000704710B500F015FB002010BDF40000206A
:1089900010090020224810B5406848B121480178EC
:1089A00001290CD00121017009F0EAF9002010BD65
:1089B0001DA1E120FFF79AFD4FF0FF3010BD24A16B
:1089C000E020FFF793FD4FF0FF3010BD10B5FFF72B
:1089D000ECFE09F0F9FBBDE81040FFF7F0BE10B562
:1089E000FFF7E3FE0FF076FFBDE81040FFF7E7BEAC
:1089F0000B484068704700207047002070470020F7
:108A000070470189B1F5C05F84BF4FF0FF307047F8
:108A100010B50021034A117000F023FB002010BDA7
:108A200010090020F40000206970616C5F73797395
:108A30005F737461727428293A206D697373696E6B
:108A40006720636F6E66696775726174696F6E0027
:108A50006970616C5F7379735F73746172742829D4
:108A60003A2063616E6E6F7420737461727420615A
:108A70006761696E0000000008B1062801D9002076
:108A80007047F0B515460A46E64900EB400085B050
:108A900001EBC000A0F1180450F8080C0A9F1E4614
:108AA00098B11046FFF793FE0346E06820B1984264
:108AB0000BD12089A84208D10396ADF80870009523
:108AC000D4E904C002AA2146E04705B00020F0BD69
:108AD0004107090EC0F3C00241EA0211C0F30012BF
:108AE00010B541EAC201C0F3401041EA8004CE480B
:108AF0000078002808BF10BDFFF757FECB4A0121C0
:108B000020460FF00BFFC0B1C64900EB400201EB5D
:108B1000C20404F8180C002024F8160C44F8140CB5
:108B200024F8100C44F80C0C44F8080C44F8040C1D
:108B3000FFF745FEA4F1180010BDFFF740FE00202E
:108B400010BD70B504001CBF2078002821D0FFF7AD
:108B50002CFE6088002518B120780FF0C1FE6580DA
:108B600020780FF03DFF06462078AE4900EB40002C
:108B700001EBC00000F8185C2570658065602581F8
:108B8000E56025616561FFF71AFE002E1CBF00201D
:108B900070BD4FF0FF3070BD70B515460E46040035
:108BA0001DBF20780028002D4FF0FF3008BF70BD9A
:108BB000FFF7FBFD608820B120780FF091FE0020C8
:108BC00060809849002000BF00EB400201EBC20228
:108BD0005288AA4210D0401CC0B20628F4D3207894
:108BE00029460FF0BFFE10F0FF0F05D065806660CC
:108BF000FFF7E5FD002070BDFFF7E1FD4FF0FF300E
:108C000070BD2DE9F04790460F46040019BF20784B
:108C100000284FF0FF30BDE8F087FFF7C6FD608801
:108C200050BB207800264546002818BF002D2DD0C7
:108C3000FFF7BBFD60884FF0000920B120780FF0EE
:108C40004FFEA4F802907749002000BF00EB4002DD
:108C500001EBC2025288AA4216D0401CC0B20628BC
:108C6000F4D3207829460FF07DFE10F0FF0F0BD0D3
:108C700065806660FFF7A3FDA4F80880E760FFF752
:108C80009EFD0020BDE8F087FFF799FDFFF797FDF7
:108C90004FF0FF30BDE8F08710B5040019BF207811
:108CA00000284FF0FF3010BDFFF77FFD002020812E
:108CB000E060FFF784FD002010BD2DE9FF4182B088
:108CC00098460C46050004AF1CBF2878002828D021
:108CD0006888002818BF002C23D0606800281CBFBB
:108CE000208800281DD0FFF760FD20880FF00EFEC1
:108CF00006001BD02288616800F080FC208800906C
:108D000028783346424639460FF082FE00280CBFD1
:108D10004FF0FF340024FFF752FD06B02046BDE8B7
:108D2000F08106B04FF0FF30BDE8F081FFF747FD5E
:108D300006B04FF0FF30BDE8F0812DE9F04383B07D
:108D40000C4605001CBF688800283CD0E868002855
:108D50001CBF2889002836D0FFF727FDE86801905E
:108D60002878B5F808800DF104094FF0FF36002887
:108D70001CBF6888002820D0002C1FBF6068002816
:108D80002088002819D0FFF710FD20880FF0BEFDC5
:108D9000070010D02288616800F030FC2088009025
:108DA00028783B46424649460FF032FE00280CBF69
:108DB0004FF0FF360026FFF702FDFFF700FD03B07E
:108DC0003046BDE8F08303B04FF0FF30BDE8F083DC
:108DD000002812BF00294FF0FF30704770B51646CB
:108DE0000D460446FFF7E1FCC4E90456FFF7E7FC33
:108DF000002070BD002070470020704700207047A1
:108E000010B5044690F83000062884BF4FF0FF30BC
:108E100010BD9021034800F092FC204600F080F93C
:108E2000002010BDE8090020F4000020798A000825
:108E3000002070470020704710B5D0F88C10002932
:108E40001CBFD0F89010002908D0D0F89410002949
:108E50001FBFD0F898000028002010BD05A1E12018
:108E6000FFF744FB4FF0FF3010BD10B500F092F853
:108E7000002010BD6970616C5F6574685F6869642B
:108E80005F696E697428293A206D697373696E672A
:108E9000206574682066756E6374696F6E73000078
:108EA000A54890F82200012818BF7047002002F062
:108EB000ABB910B50446A821A04800F040FCA0487A
:108EC00094F82010C1809F49626AB2FBF1F20281DE
:108ED00094F821200270A26AB2FBF1F141700020E7
:108EE00010BD9548D0F89C00002808BF7047004787
:108EF00000291CBF0020704704F0DABF10B5924A69
:108F000084B09069D2E90812CDE902128A4A009031
:108F1000907A8DF800008D4801908D4890F803C03C
:108F200081884FEA1C230B4381784FEA0C6C4CEA92
:108F3000014C4478007843EA11414CEA042C41EAA0
:108F400014614CEA0000CDE90201D2F88C106846A9
:108F500088477B49487104B010BD7749D1F8981013
:108F6000084710B5744CD4F890008047D4F88800B6
:108F7000002808BF10BDBDE81040004710B56E4C7A
:108F8000D4F88400002818BF8047D4F89400BDE8C6
:108F9000104000476A4902694A61808A08830020BC
:108FA0007047654991F82C10012918BF70470AF0E5
:108FB000CBBE62490022C1F8A820C1F8AC20C1F89C
:108FC000B020C1F8B420C1F8B820C1F8BC20C1F865
:108FD000C020C1F8C420C1F8C8205A4A4168B2FB79
:108FE000F1F190F82D20564889B242814CF6CD42DD
:108FF0005143890C817000207047062806D25549DC
:1090000001EB4011F030C0B2FFF770BA52A1E0207E
:10901000FFF76CBA10B508F0E3FE474C94F82C004B
:10902000012808BF08F0EEFE94F82F00012808BFC1
:1090300008F010FF94F82200012818BF10BD00208E
:10904000BDE8104002F0E0B810B50CF001FC3A4861
:1090500090F82C00012818BF10BDBDE810400CF09E
:109060004FBC70B5354D00260446C5F8CC60C5F838
:10907000D060C5F8D460C5F8D860C5F8DC60C5F824
:10908000E060C5F8E460C5F8E860C5F8EC60C5F8D4
:10909000F060C5F8F460C5F8F860C5F8FC60C5F884
:1090A00000614FF4C05105F58470C5F8046100F00B
:1090B00046FB05F5C05C05F1CC01CCF81061CCF89D
:1090C0001461A069C5F8CC00E069C5F8D400C020DF
:1090D0000873A8224A738E73FE23CB7308744A74F4
:1090E0008E74CB7408714A718E71CB711649154A12
:1090F000D1E90001CCE9420111480121C170218967
:1091000001616168B2FBF1F18181C681002070BD0F
:10911000094991F82F10012918BF70470AF054BE71
:1091200010B504464821124800F009FB044994F8A0
:1091300030000871002010BD10090020FC0B002039
:109140004801002040420F0088A4010890A40108B3
:109150005C010020B0A40108756E6B6E6F776E2005
:1091600073797374656D206572726F720000000010
:1091700014250020004870479827002070B5A0FBF8
:109180000140B4F1805170F1000024BF002070BD97
:10919000204600F08FFB05001CBF214600F0ADFA11
:1091A000284670BD70B516460D46041F002808BF3E
:1091B00070BD002E1CBF05F10C00AFF300802B46E4
:1091C0005868002818BF844288BF0346F8D8196839
:1091D000CA18A24218BF5C6003D122681C46114421
:1091E000196021680A19824218BF606004D1426880
:1091F0006260006808442060002E1CBF05F10C006E
:10920000AFF3008070BD10B5044600F0C2FA0168EB
:109210002046BDE810400122C4E753EA020C00F0EA
:1092200069802DE9F04B4FF00006002B1FBFB3FA09
:1092300083F503FA05F424FA05F65E4012BF1643DF
:10924000B2FA82F502FA05F4C5F120051EBF22FA32
:1092500005FC44EA0C04203556EA044C4FEA144459
:1092600018BF641C4FF000084FF00009904271EBEA
:10927000030C39D3002919BFB1FA81F701FA07F6B7
:10928000B0FA80F700FA07F6C7F120071EBF20FAF0
:1092900007FC46EA0C062037B6FBF4FCA7EB0507F3
:1092A000103F07F01F0BCBF120060CFA0BFB2CFA3A
:1092B00006F644BFB3460026202FA4BF5E464FF0FB
:1092C000000B5BEA060C08BF4FF0010B19EB0B0912
:1092D000ABFB027C48EB0608C01B06FB02CC0BFB79
:1092E00003CC71EB0C01C1E70B46024641464846F0
:1092F000BDE8F08B13B54FF000004FF00001AFF365
:109300000080BDE81C4070470FB47CB50C0009AA72
:10931000009001D02044401E084B7B4469460190D8
:10932000089800F032FB05461CB10020694600F0A9
:109330003FFB28467CBC5DF814FB00009D06000046
:1093400070B50C460546012A05D02878800600D560
:10935000EA69002302E0012305E05B1C934202D28C
:10936000E05C0028F9D1A869E618C01AA861286A4B
:10937000184428622846AFF3008004E0D5E90121B3
:1093800014F8010B9047B442F8D32846AFF300809D
:1093900070BD00002DE9F0410646002410687529D3
:1093A000314616A511D0AFF30080002803DAC0F1D2
:1093B000000013A507E031688A0701D511A502E076
:1093C000490704D510A5012401E0AFF30080002176
:1093D0000A2306F1240707E0B0FBF3F203FB1200B7
:1093E000303078541046491C0028F5D123462A46CF
:1093F0003046BDE8F04100F067BA00000000000010
:109400002D0000002B0000002000000070B5044675
:109410000D4621461068AFF300802188090502D56A
:10942000104A7A4402E00F4A7A440E32002104F1D5
:10943000240307E000F00F064FEA1010965D5E541B
:1094400001F101010028F5D103462078000704D579
:10945000702D02D009B1113202232046BDE87040C0
:1094600000F032BA441601002DE9F05F8946044647
:109470004FF0000ADFF828B1FB44C0F820A02046D6
:10948000E168884700287CD0252806D0D4E901214E
:109490009047206A401C2062F1E700255F46204685
:1094A000E16888472028064608DB312E06D207EB04
:1094B000060010F8200C08B10543F0E7A80701D515
:1094C00025F00405C4F81CA00027C4F818A02A2E13
:1094D00009D0304601F0F6FB38B304EB8708303E84
:1094E000C8F8186019E059F8041B204604EB8702FD
:1094F0009161E1688847012F064618D1E06900288C
:1095000020DA25F020051DE0D8F8180000EB8000D7
:1095100006EB40003038C8F818002046E16888475C
:10952000064601F0CFFB0028EED1012F0AD02E2EE7
:1095300008D12046E16888477F1C0646022F45F087
:109540002005C4DBA069002803DA404245F001058C
:10955000A061E80701D025F0100596B1A6F1410001
:10956000192802D8203645F400654A46314620467F
:1095700025604D46FEF772FE60B1012807D0ED1D53
:1095800000E009E025F0070000F1080977E705F1A0
:10959000040974E7304679E7206ABDE8F09F0000CF
:1095A0001616010040EA010310B59B070FD1042AEB
:1095B0000DD310C808C9121F9C42F8D020BA19BA9E
:1095C000884201D9012010BD4FF0FF3010BD1AB103
:1095D000D30703D0521C07E0002010BD10F8013B58
:1095E00011F8014B1B1B07D110F8013B11F8014B7F
:1095F0001B1B01D1921EF1D1184610BD032A40F267
:10960000308010F0030C00F0158011F8013BBCF124
:10961000020F624498BF11F801CB00F8013B38BF3C
:1096200011F8013BA2F1040298BF00F801CB38BF4A
:1096300000F8013B11F0030300F02580083AC0F068
:10964000088051F8043B083A51F804CBA0E8081010
:10965000F5E7121D5CBF51F8043B40F8043BAFF343
:109660000080D20724BF11F8013B11F801CB48BF9D
:1096700011F8012B24BF00F8013B00F801CB48BFD3
:1096800000F8012B704710B5203AC0F00B80B1E80C
:109690001850203AA0E81850B1E81850A0E8185027
:1096A000BFF4F5AF5FEA027C24BFB1E81850A0E830
:1096B000185044BF18C918C0BDE810405FEA827C4A
:1096C00024BF51F8043B40F8043B08BF7047D20761
:1096D00028BF31F8023B48BF11F8012B28BF20F802
:1096E000023B48BF00F8012B704702F0FF0343EA3A
:1096F000032242EA024200F002B84FF000020429BD
:10970000C0F0128010F0030C00F01B80CCF1040CB0
:10971000BCF1020F18BF00F8012BA8BF20F8022BE4
:10972000A1EB0C0100F00DB85FEAC17C24BF00F88A
:10973000012B00F8012B48BF00F8012B70474FF0B8
:10974000000200B5134694469646203922BFA0E891
:109750000C50A0E80C50B1F12001BFF4F7AF09079D
:1097600028BFA0E80C5048BF0CC05DF804EB89008E
:1097700028BF40F8042B08BF704748BF20F8022BD1
:1097800011F0804F18BF00F8012B704770477047E9
:10979000704710B5FFF7EEFC083010BD70477047FA
:1097A0007047704738B504460A4600206946AFF353
:1097B0000080002808BF38BD02460099204600F00E
:1097C00023F9012038BD012000F03EB9F8B5AFF310
:1097D0000080054600200C46102000BF0646A81950
:1097E000A0420DD9324669460020AFF30080070041
:1097F00008BF00F029F90098A04218BF0546C41917
:10980000FFF7C7FF05600746F01D20F00700461967
:10981000284600F0F0F8B44208BFF8BDA21B31465C
:109820003868BDE8F84000F0EFB80B3020F00700D2
:1098300070472DE9F04117460E460446FFF7F5FF45
:10984000A042054633D9002F1CBF06F10C00AFF330
:10985000008030467468F4B12168A94217D305F13D
:10986000080291423CBF6168416007D36268611998
:109870004A602268521B0A6041602560002F1CBFAD
:1098800006F10C00AFF30080201DBDE8F0812046FA
:109890006468002CE0D129463046FFF783FF00289A
:1098A000D7D1002F1CBF06F10C00AFF300800020C1
:1098B000BDE8F08110B50446FFF76BFF0168204654
:1098C000BDE810400122B4E72DE9F0470D46994666
:1098D0009246044600F124080168880604D5E06930
:1098E00021F01001216000E00120A84202DDA0EB80
:1098F000050700E00027A16907EB050202EB09005C
:10990000A1EB0000A0612078C00602D42046AFF38E
:109910000080002608E0D4E901211AF806009047EB
:10992000206A401C761C20624E45F4DB2078C0067D
:109930000AD52046AFF3008006E0D4E901213020AB
:109940009047206A401C2062381EA7F10107F4DC12
:1099500007E0D4E9012118F805009047206A401C6F
:109960002062281EA5F10105F3DC2046AFF300803C
:109970002078000602D50220BDE8F0870120FBE731
:1099800001694A1C02610878704700B58FB0CDE9C3
:1099900001310021059105497944CDE903101146B3
:1099A0006846FFF761FD0FB000BD0000E5FFFFFF57
:1099B0000A6802F8010B0A607047D1E900239A4255
:1099C00002D2531C0B601070704710B5436913B17D
:1099D000AFF3008001E0FFF7B3FC012010BD127867
:1099E00000F124010A7000224A700122EDE711689B
:1099F0004FF0FF32E9E700210160C0E901100C30AF
:109A000001F067B91020704730B404468C464368B3
:109A1000002B18BF9C4584BF18465B68F8D80368C4
:109A20001844604507D0C81C20F0070000F1040C62
:109A3000ACEB0100121A2146CCF8002030BC002209
:109A40000CF10400FFF7AEBB10B500F035F8BDE82F
:109A5000104000F02BB87546FFF78CFBAE460500B2
:109A60006946534620F00700854618B020B5FEF73A
:109A7000FBFCBDE820404FF000064FF000074FF020
:109A800000084FF0000B21F00701AC46ACE8C0091C
:109A9000ACE8C009ACE8C009ACE8C0098D46704725
:109AA0000446AFF300802046FEF7F6FB002801D005
:109AB00000F02AB87047000010B5012805D0002139
:109AC00003A000F028F8012010BD09A1F8E700006C
:109AD00053494752544D454D3A204F7574206F6697
:109AE0002068656170206D656D6F727900000000FF
:109AF0003A2048656170206D656D6F727920636FE3
:109B0000727275707465640001491820ABBEFEE77F
:109B100026000200704770B505460C460A2000E09A
:109B20006D1C00F011F835B128780028F8D102E05A
:109B3000641C00F009F814B120780028F8D1BDE8C1
:109B400070400A20AFF3008008B569468DF8000028
:109B50000320ABBE08BD000000000000F0B589B0D6
:109B6000002600960196029603961A481A4D4468FC
:109B7000E868A76A10F0100F1CBF30460DF0D8F946
:109B8000384606F0FDFE012808D1384606F094FF5D
:109B9000012084F82E0030460DF0CAF9284604AAA8
:109BA000002100F0B8F9049800909DF81A008DF893
:109BB0000600DDF81B000290DDF81F0003906946E7
:109BC000384606F082FF616800291CBFA0688847FC
:109BD00009B0F0BD142600200064004000200DF004
:109BE000A7B900200DF0E0B970B58AB001200021BE
:109BF000009101910291039119491A4D8C68E9680D
:109C0000A66A11F0100F18BF0DF092F9304606F059
:109C1000B7FE012807D1304606F04EFF012084F838
:109C20002E000DF085F9284604AA002100F073F9F2
:109C3000049800909DF81A008DF80600DDF81B00CE
:109C40000290DDF81F0003906946304606F03DFFA4
:109C5000616800291CBFA06888470AB070BD000079
:109C6000142600200068004001200DF061B9012099
:109C70000DF09AB910B4082304224FF0100CB1F57E
:109C8000007F40D021DC202902BF036110BC704757
:109C900010DC012901BF1D49816010BC70470429F7
:109CA00002BFC36010BC7047082908BFC0F80CC0D1
:109CB00010BC7047402902BFC0F810C010BC7047EC
:109CC000B1F5807F1FD010BC70470024B1F5004F64
:109CD00008D00BDCB1F5806F15D0B1F5006F1CBF5B
:109CE00010BC70478461426010BC7047B1F5803F82
:109CF00002BF436010BC7047B1F5003F08BFC0F819
:109D000004C010BC7047426010BC704701010100E4
:109D1000A0F1804110B5B1F5C8414FF0010109D162
:109D2000480600F0C5FCBDE8104000214FF000706F
:109D300000F0BEBC4FF0806000F0BAFCBDE81040FF
:109D400000214FF0806000F0B3BC0000F0B4817AD5
:109D50002C4B012202FA01F11A6842F001021A604A
:109D6000DFF8A4C0DCF800208A43CCF80020284C9F
:109D7000067B264A251D86B916688E4316604688DE
:109D8000C78846EA0746877A44F837600688878896
:109D900046EA0746877A45F83760067B012E0ED1E2
:109DA00016680E4316600268867A4FEA324244F81B
:109DB00036204268847A4FEA324245F83420C47A29
:109DC000144A002C14680CBF8C430C4314600489A3
:109DD000114A14B914688C4314600489012C02D10F
:109DE00014680C431460407B012804D1DCF80000A7
:109DF0000843CCF80000186820F001001860F0BC9F
:109E000070470000006600401C6600400C66004081
:109E1000406600400466004014660040002A426923
:109E200014BF114322EA0101416170470268002317
:109E300022F002020260026842F0010202604FF664
:109E4000FF7200BFD0F804C01CF0010F03D1934291
:109E500018BF5B1CF6D1436813F0010F59D08B7902
:109E6000012B03680CBF43F0800323F080030360E1
:109E7000CB79012B03680CBF43F0400323F0400370
:109E800003600B7A012B03680CBF43F0200323F01F
:109E9000200303604B7A012B03680CBF43F01003CF
:109EA00023F0100303608B7A012B03680CBF43F08F
:109EB000080323F008030360CB7A012B03680CBF6F
:109EC00043F0040323F0040303608B7891F803C08C
:109ED0009B0743EA0C6391F804C043EA0C4391F8F2
:109EE00005C0098843EA0C53491E1943C161016842
:109EF00021F0010101600021436813F0010F1CBF34
:109F00009142491CF8D1406810F0010F04BF0120B4
:109F100070470020704700EB0113D3F8B0C11CF06C
:109F2000040C82F808C0D3F8B0C107BF4FEA5C5CEC
:109F3000C2F800C04FEADC0CC2F804C0D3F8B0C1CC
:109F40000CF0020C82F809C0D3F8B4C10CF00F0C6D
:109F500082F80AC0D3F8B4C14FEA1C2C82F813C0AF
:109F6000D3F8B8C182F80BC0D3F8B8C14FEA1C2CA3
:109F700082F80CC0D3F8B8C14FEA1C4C82F80DC06F
:109F8000D3F8B8C14FEA1C6C82F80EC0D3F8BCC13C
:109F900082F80FC0D3F8BCC14FEA1C2C82F810C065
:109FA000D3F8BCC14FEA1C4C82F811C0D3F8BC31C5
:109FB0001B0E937421B1016941F0200101617047CA
:109FC000C16841F02001C1607047000009490A687A
:109FD00042F001020A600A6822F4877222F4785281
:109FE0000A600A6842EA00200860086820F0010060
:109FF000086070470066004000218171C1710172E4
:10A0000041728172C1728170C1700321017102219C
:10A01000417101210180704710B40246002093680D
:10A0200013F0806F3FD000BF02EB0012D2F88031F6
:10A0300003F00103C2F880310B7A002B42D0D2F832
:10A0400080C14C684CEA030391F809C04CEAC40C87
:10A0500043EA0C03C2F880318B7A03F00F038B7252
:10A06000D2F8843123F00F03C2F88431D2F884315E
:10A0700091F80AC043EA0C03C2F88431CB7AD1F8D4
:10A080000CC043EA0C23C2F88831CB7B096943EA50
:10A090000121C2F88C11D2F8801141F00101C2F8FF
:10A0A000801110BC7047906810F0006F18BF01203D
:10A0B000BAD1906810F0805F14BF02200420B3D1A1
:10A0C00010BC7047D2F8803191F809C043EA0C0304
:10A0D000B1F800C043EA4C53BCE700B5002200F0E1
:10A0E00007F8C04380B2010241EA102080B200BDEF
:10A0F00005E000BF30F8023B891E5BBA1A44012913
:10A10000F8DC11B1007802EB002290B200EB1240B3
:10A1100000EB104080B27047084400EB104080B262
:10A12000704700002DE9F04F41484FF0000B93B00D
:10A1300046685F4649F21A08357C4FF4407A4FF082
:10A140000049706900EB05100168C1F30D410C1F57
:10A15000016811EA080F18BF012734D100683AEAF4
:10A16000000018BF02272ED140F2EA50844288BF77
:10A17000032728D844F0004006F064F844F000417A
:10A180000090002808BF04271DD00820726900EB4A
:10A190000510105820F003020098001DE31C9C08D5
:10A1A00006D000BF52F8043B40F8043B641EF9D1CE
:10A1B0002048026812B10098001D9047009806F0F0
:10A1C000C1FA4FF0010B706900EB0510C0F8009068
:10A1D00077B1022F08BF4FF0FF343B4616A2402153
:10A1E00002A80094FFF790F802A9F02007F0CCFA3B
:10A1F000F07A6D1C854208BF00253574706900EB4C
:10A200000510006810F0004F9BD01648416911F00E
:10A21000800F154902D04161002282604161BBF18B
:10A22000000F18BF05F0E0FF13B0BDE8F08F00008D
:10A23000C4010020C00100204554485F49525148E4
:10A24000616E646C657228293A206572726F7220A3
:10A25000256420666F72206672616D655B25645DA2
:10A260000000000000900240C08001000149086029
:10A27000704700000C3C024030B50546002451B147
:10A28000012908BF4FF4807405D002290CBF4FF498
:10A2900000744FF4407400F079F8092818BF30BDFD
:10A2A0000F4B186820F4407018601868204318603D
:10A2B000186820F0F8001860186845F0020108439B
:10A2C0001860186840F48030186000F05FF8196872
:10A2D00021F002011960196821F0F801196030BD00
:10A2E000103C024030B50C46054600F04FF80928F6
:10A2F00018BF30BD0A4B186820F440701860186809
:10A3000040F480701860186840F0010018602C80DC
:10A3100000F03CF8196821F00101196030BD00001F
:10A32000103C024030B50C46054600F02FF80928D5
:10A3300018BF30BD0A4B186820F4407018601868C8
:10A3400040F400701860186840F0010018602C603C
:10A3500000F01CF8196821F00101196030BD0000FF
:10A36000103C02400548006810F0004F08BF7047DD
:10A37000034904480160044901607047103C0240F1
:10A3800023016745043C0240AB89EFCD1A490920FF
:10A390000A6812F4803F09D00A68092012F4803F4D
:10A3A000FAD10A6812F0100F04D118E00A6812F00E
:10A3B000100F01D0062070470A6812F4807F01D088
:10A3C000022070470A6812F0EF0F01D00720704793
:10A3D000096811F0020F08BF7047082070470A682B
:10A3E00012F4807FECD10A6812F0EF0FEED1096809
:10A3F00011F0020FF1D170470C3C02402DE9F00141
:10A40000002201255FF00306D1F800C005FA02F32F
:10A410000CEA030C9C4533D107684FEA420C06FA5C
:10A420000CF4A74307600F79D0F8008007FA0CF707
:10A4300047EA080707600F79012F18BF022F14D1D0
:10A440008768A74387604F79D0F8088007FA0CF730
:10A4500047EA08078760476827EA030343604368C1
:10A460008F799740BFB23B434360C368A343C36047
:10A47000CB7903FA0CF3D0F80CC043EA0C03C360A9
:10A48000521C102AC0D3BDE8F00170474B07DB0E09
:10A490009A40C90800EB8100016A4FF00F0C0CFADA
:10A4A00003F399430162016A114301627047024656
:10A4B000002012690A4218BF01207047024600209E
:10A4C00052690A4218BF01207047002A14BF018355
:10A4D000418370470029018814BF41F4806121F451
:10A4E000806101807047838A0022008B43EA00402C
:10A4F00020F07F4031EA000008BF0122104670477B
:10A50000C943818270470029018814BF41F00101CD
:10A5100021F00101018070470029018814BF41F436
:10A52000807121F48071018070470029018814BF77
:10A5300041F4007121F400710180704700220B0F7B
:10A5400021F07F4112BF1430090C18300068084216
:10A5500018BF012210467047818A008B41EA0040F3
:10A5600020F07F407047000070B50446808884B0BA
:10A570000D4620F03F06684600F0BEF829490298D3
:10A58000B0FBF1F189B246EA0102A280228822F0F2
:10A5900001022280244B2A689A421DD85200B0FB47
:10A5A000F2F080B2042838BF0420491C2184A08323
:10A5B000208840F0010020802088A9886A8920F046
:10A5C0000A0020F48060114308432080A88929896B
:10A5D0000843208104B070BDEB88A3F53F4CBCF16B
:10A5E000FF0C05D102EB4202B0FBF2F080B208E0B2
:10A5F00002EBC20303EB0212B0FBF2F080B240F4B4
:10A6000080400205120D08BF40F0010040F40040F8
:10A610004FF4967251434FF47A72B1FBF2F1491C38
:10A620002184C4E740420F00A0860100002A14BF25
:10A6300041F0010101F0FE01018270470182704783
:10A64000034940F0FD7040F08060086070470000F2
:10A650000CED00E021F07F0121F060410843014949
:10A660000860704708ED00E0044A0029116814BF33
:10A67000084321EA000010607047000030380240B3
:10A68000044A0029116814BF084321EA0000106041
:10A690007047000010380240044A0029116814BFB6
:10A6A000084321EA00001060704700004038024073
:10A6B000044A0029116814BF084321EA0000106011
:10A6C0007047000020380240044A0029116814BF76
:10A6D000084321EA0000106070470000443802403F
:10A6E000044A0029116814BF084321EA00001060E1
:10A6F0007047000024380240264A30B41168DFF861
:10A7000098C011F00C0106D0244C042908BF046045
:10A7100003D0082921D0C0F800C01168204B01F0F7
:10A72000F0010909595CD0F800C02CFA01F1416030
:10A73000D2F800C00CF4E05C4FEA9C2C13F80CC07B
:10A7400021FA0CFCC0F808C0126802F46042520BF7
:10A750009A5CD140C16030BC704712490B68C3F3AA
:10A7600080550B68002D03F03F0314BFB4FBF3F3D7
:10A77000BCFBF3F3D1F800C00968CCF3881C03FBE1
:10A780000CF3C1F30141491C4900B3FBF1F1016035
:10A79000C3E70000083802400024F40080F0FA0209
:10A7A0009C0200200438024000200CF029BB01204C
:10A7B0000CF026BB02200CF023BB0029018814BF3B
:10A7C00041F0400121F04001018070470246002025
:10A7D00012890A4218BF012070470909012303FAB0
:10A7E00001F1002A828889B214BF114322EA0101D3
:10A7F0008180704780897047818170470149086076
:10A8000070470000DC00274224480021026842F41F
:10A8100080220260026842F480320260026801F124
:10A82000010112F4003F02D1B1F5A04FF6D1016849
:10A8300011F4003F08BF704719490A6842F080527E
:10A840000A6018490A6842F440420A6016490A68D8
:10A850000A600A6842F400420A600A6842F4A052A0
:10A860000A600B1F114A1A60026842F0807202608F
:10A87000026812F0007FFBD00D4A40F205701060B4
:10A88000086820F003000860086840F002000860D3
:10A89000086800F00C000828FAD170470038024020
:10A8A00040380240007000400838024032544007EF
:10A8B000003C0240010241EA102080B270470000D3
:10A8C000DFF86CC030B4DCF800001A4B10F00C015B
:10A8D000194806D0194C042908BF046002D0082981
:10A8E0000CD00360DCF80010154AC1F30311515C71
:10A8F000026822FA01F1016030BC704711490A6810
:10A90000C2F380550A68002D02F03F0214BFB4FB69
:10A91000F2F2B3FBF2F20B680968C3F388135A43EF
:10A92000C1F30141491C4900B2FBF1F10160D9E7D3
:10A93000083802400024F400A401002080F0FA024C
:10A940003DA3010804380240134810B5016841F4E2
:10A95000700101601148016841F001010160104A75
:10A9600000211160026822F4102222F0807202603D
:10A97000031D0C4A1A60026822F4802202600A4811
:10A98000016006F027FFFFF73FFF08494FF0006026
:10A990000860FFF795FF10BD88ED00E00038024029
:10A9A00008380240103000240C38024008ED00E066
:10A9B00010B50121034800F059F8BDE8104000200F
:10A9C0000CF082BA0000014010B50121880700F0A8
:10A9D0004DF8BDE8104001200CF076BA10B5012109
:10A9E000034800F043F8BDE8104002200CF06CBAB8
:10A9F0000004004010B50121034800F037F8BDE81D
:10AA0000104003200CF060BA0008004010B501218E
:10AA1000034800F02BF8BDE8104004200CF054BAB5
:10AA2000000C004010B50121034800F01FF8BDE8FC
:10AA3000104005200CF048BA0010004010B501216C
:10AA4000034800F013F8BDE8104006200CF03CBAB3
:10AA50000014004010B50121034800F007F8BDE8DC
:10AA6000104007200CF030BA00040140C9430182B5
:10AA700070470029018814BF41F0010121F0010154
:10AA80000180704710B5A0F18041B1F5803109D146
:10AA900001210846FFF724FE0021BDE810400120F7
:10AAA000FFF71EBEB0F1804F0ED0A0F18041B1F58E
:10AAB000806113D101210220FFF7FAFD0021BDE8DA
:10AAC00010400220FFF7F4BD01210846FFF7F0FD1A
:10AAD0000021BDE810400120FFF7EABDA0F1804150
:10AAE000B1F5006109D101210420FFF7E1FD00214A
:10AAF000BDE810400420FFF7DBBDA0F18041B1F5B7
:10AB0000406109D101210820FFF7D2FD0021BDE8F5
:10AB100010400820FFF7CCBDA0F18041B1F5805175
:10AB200009D101211020FFF7C3FD0021BDE810402D
:10AB30001020FFF7BDBDA0F18041B1F5A05109D1B2
:10AB400001212020FFF7B4FD0021BDE810402020A6
:10AB5000FFF7AEBDA0F18041B1F5823109D10121ED
:10AB60000220FFF7BDFD0021BDE810400220FFF7E5
:10AB7000B7BDA0F18041B1F5A0310AD1012108048F
:10AB8000FFF7AEFDBDE8104000214FF48030FFF725
:10AB9000A7BDA0F18041B1F5A2310AD1012148043D
:10ABA000FFF79EFDBDE8104000214FF40030FFF795
:10ABB00097BDA0F18041B1F5A4310AD101218804EB
:10ABC000FFF78EFDBDE8104000214FF48020FFF715
:10ABD00087BDA0F18041B1F5C05109D101214020CC
:10ABE000FFF766FD0021BDE810404020FFF760BD83
:10ABF000A0F18041B1F5E05109D101218020FFF79A
:10AC000057FD0021BDE810408020FFF751BDA0F1A5
:10AC10008041B1F5005118BF10BD01210802FFF7B6
:10AC200047FDBDE8104000214FF48070FFF740BDA4
:10AC3000002A828914BF114322EA010181817047F1
:10AC40000149002008607047082C0040064810B5F4
:10AC50008468FFF7F5FFA168002908BF10BDE06810
:10AC6000BDE810400847000064270020C9B241EA4F
:10AC7000012141EA014101604160704712F0004F3B
:10AC80001FBF22F00042D21D22F00703102202BF94
:10AC9000D21C22F003030C221BB103EB020C8C45E7
:10ACA00001D901207047024401448360C0E90021BA
:10ACB000C91AD01888429CBF10600246F9D90020FA
:10ACC0001060704730380A2801D2012070470020F8
:10ACD000704707F0F1BF00002DE9F0470027DFF8CB
:10ACE000909000280CDA2349D9F8002020F0004089
:10ACF0000968024401EB4101B2EB910F18D801271A
:10AD000005460F3020F003060FB9FEF737F91A4C4D
:10AD1000D4E90002011B891AB1420CD20446006832
:10AD20000028F5D127B9FEF71CF90020FEF765F9D8
:10AD30000020BDE8F08772B1101921680160206021
:10AD400000F10808C0F80460D9F800103144C9F8CF
:10AD5000001027B105E004F108086660F4E7FEF78B
:10AD600000F9A8F800500020A8F802004046E0E7EB
:10AD7000EC01002058010020040D00202DE9F047CF
:10AD80000746894690460026284C294D0BE020783E
:10AD900038B10422394604F10A0007F033FA0128D9
:10ADA00035D00E34761C28888642F0DB214938469F
:10ADB00007F05AF9D0B91F4804220021001D07F0FE
:10ADC00047FA10B10020BDE8F0870026174C0AE0D2
:10ADD000207830B106224946201D07F013FA0128D9
:10ADE0001AD00E34761C28888642F1DB404600F0EB
:10ADF00027F80028E7D00D49C0EBC00001EB400464
:10AE00000E3C0422394604F10A0007F00BFA062230
:10AE10004946201D07F006FA07480088E0700748F9
:10AE20000078A070032020700120CCE7FC0B0020EC
:10AE30004E010020C00B00205001002048010020DE
:10AE4000F0B50546012116480E46164A03E0037880
:10AE500053B10E30491C13889942F8DD1248104B4B
:10AE60000488002001210DE0067045700846F0BD01
:10AE70005F78012F04D1DF78A74201D83C4608460D
:10AE80000E33491C1788B942F2DD0028EFD0044A7E
:10AE9000C0EBC00102EB410101F80E6D4D70F0BD39
:10AEA000FC0B00204E010020500100202DE9F0474E
:10AEB00081460F4600253D4C3D4E0BE0207838B1D1
:10AEC0000422494604F10A0007F09CF9012815D034
:10AED0000E346D1C30888542F0DB3649484607F059
:10AEE000C3F8DFF8C880334D01284FF0040209D0C1
:10AEF0000021281D07F0ACF9E8BB1DE020780328ED
:10AF00004ED350E04946281D07F07CF9012806D1B0
:10AF100004220021281D07F09BF900B900273846BC
:10AF2000FFF78EFF06003CD0C6EBC60108EB4104DC
:10AF30000E3C042249461DE000271C4C0BE0207803
:10AF400038B10422291D04F10A0007F05BF9012839
:10AF5000D4D00E347F1C30888742F0DB0020FFF70E
:10AF60006FFF06001DD0C6EBC60108EB41040E3C86
:10AF70000422291D00E013E004F10A0007F052F951
:10AF800006220D49201D07F04DF90C480078A070ED
:10AF90000B480078E070304600F036F9022020704F
:10AFA0000020BDE8F0872046FBE70000FC0B0020F6
:10AFB0004E010020C00B0020B0A80108480100206D
:10AFC0004901002070B50D46064604220E4907F0DF
:10AFD00019F9012814D0304607F058F801280FD08D
:10AFE00029463046FFF762FF040008D004223146AC
:10AFF00004F10A0007F006F9012802D002E000205F
:10B0000070BD6570012070BDACA801082DE9F04746
:10B010000026DFF8D480DFF8D490B246344F5DE0EC
:10B02000B9F80050691C89B2A9F800103A88914219
:10B0300001D3A9F800A02F49C5EBC50001EB4004DE
:10B040002078C8B3E07820B1401E10F0FF00E07017
:10B0500043D1607801280AD10422274904F10A006B
:10B0600007F0D0F8012806D06078012818D010F039
:10B07000FF0F02D031E084F801A004221F4904F13F
:10B080000A0007F0BFF8012817D02078032818D04D
:10B09000A07800B3401E10F0FF00A0701BD012E09B
:10B0A0002078032817D0A078A8B1401E10F0FF0028
:10B0B000A07010D0022005E00FE011480088E07079
:10B0C0000BE00420207098F80000E070681CBDE8D8
:10B0D000F04700F099B884F800A0761C38888642C2
:10B0E0009EDBBDE8F0870000490100203801002008
:10B0F0004E010020FC0B0020C40B0020ACA801086E
:10B10000500100202DE9F04106460025134C00F1C6
:10B110000E08134F0DE0207848B1012807D0042213
:10B1200004F10A01404607F06DF8012806D00E34FC
:10B130006D1C38888542EEDBBDE8F081062206F101
:10B140000801201D07F06EF806480088E0700648E8
:10B150000078A07003202070EEE70000FC0B0020B8
:10B160004E01002050010020480100202DE9F0414F
:10B1700005460E462A20FFF7AFFD044605F10801FB
:10B1800006220F46001D07F04DF806221C4904F167
:10B190000A0007F047F84FF4C16020824FF4807036
:10B1A00060820820A0820620A0750420E075268316
:10B1B00004F1240006223946064607F033F805F16B
:10B1C0000E0104F12A000422054607F02BF806229E
:10B1D0000B4904F11A0007F025F80422094904F18B
:10B1E000200007F01FF8012231462846FFF7C6FD70
:10B1F0002046FDF7B2FE2046BDE8F04103F066B8F8
:10B200005C010020C00B002070B505462A20FFF726
:10B2100063FD044606222349001D07F003F80622B9
:10B22000214904F10A0006F0FDFF4FF4C1602082BD
:10B230004FF4807161820820A0820620A07504204E
:10B24000E07521830622184904F11A0006F0EAFF8E
:10B250000422164904F1200006F0E4FF4FF0060234
:10B2600065B1002104F1240006F0EAFF1049C5EBA6
:10B27000C50001EB40010422091F06E0094904F161
:10B28000240006F0CFFF0949042204F12A0006F049
:10B29000C9FF2046FDF761FE2046BDE8704003F07F
:10B2A00015B80000B0A801085C010020C00B002008
:10B2B000FC0B002010B5002003F06AF9BDE8104037
:10B2C000012003F065B9000030B5164D89B0D5E90D
:10B2D0000001D5E90323D5F814C0AC69ED69CDF8B8
:10B2E00014C0CDE90001CDE9032307208DF8020049
:10B2F00008208DF80300CDE906450B480290694609
:10B30000002003F06FF909208DF802000A208DF863
:10B310000300064802906946012003F063F909B072
:10B3200030BD0000709B0108897101089971010806
:10B330000648016891F82010002908BF704740684E
:10B3400003224168022007F027BF000018030020F5
:10B35000002804BF4FF0FF30704752EA030108BFD6
:10B3600042F2222222F07F42110A120642F0020229
:10B37000C0E90021034981606FF07F41C160002076
:10B38000704700000A0001630CF0DABC0CF054BDF9
:10B390000CF07ABD0CF0C8BD10B5040008BF1D4C00
:10B3A00040221D491D480CF057FC1B481C4990F9D0
:10B3B000002091F900309A4209D190F9012091F9C9
:10B3C00001309A4203D18978807881420AD01449A9
:10B3D0004022A1F108000CF075FC40220E490F48F4
:10B3E0000CF03AFC20790CF08DFB10B1206870B1A4
:10B3F00080470CF06DFE10B1206840B180470CF022
:10B40000EBFD10B1206810B18047002010BD4FF057
:10B41000FF3010BD1CA001084404002024A0010836
:10B420002CA001080CF09ABB0CF0AEBB0CF0CABB10
:10B4300000207047004870472CA001080CF0DCBECB
:10B440000CF0F4BE0CF00CBF0CF02CBF0CF0ACBF39
:10B450000CF0C4BF0CF0E4BF0CF0FCBF10B54022F0
:10B460000D490E480CF0F8FB0B480D4990F90020EF
:10B4700091F900309A420BD190F9012091F90130F5
:10B480009A4205D189788078814204BF002010BD9E
:10B490004FF0FF3010BD00004404002024A001083C
:10B4A0002CA0010810B54022024903480CF0D4FB3F
:10B4B000004810BD4404002024A001080CF038BC52
:10B4C0000CF09ABB002804BF6FF001007047002108
:10B4D000017008467047002812BF00296FF0010074
:10B4E0007047D1E90023D1E902C1C0E902C1C0E936
:10B4F0000023002070470B4610B500214C1E8C46DF
:10B50000002831D00278012A04D0022A0CD0032A64
:10B5100015D029E00178012926D1D0E90110F8B130
:10B5200002F023FC04461FE0D0B1017802291BD1B0
:10B53000D0E90110A0B11A4602F005FC0FE0624606
:10B5400038B10178032904BFD0E90112D0F80CC04A
:10B550000AD129B15FEA0C0003D002F0DDFB0446FA
:10B5600002E0002410468847204610BD002818BF7E
:10B570000078704710B500F015FC0123102204215B
:10B5800000F01AFC0021017010BD002804BF6FF00C
:10B59000010070474FF0030C80F800C0C360C0E9A1
:10B5A000011200207047002804BF6FF001007047AF
:10B5B00001230370C0E9011200207047002804BF76
:10B5C0006FF00100704702230370C0E901120020F0
:10B5D0007047000002480068002818BF0048704704
:10B5E000D8000020F8B5224C05460F4620680028F8
:10B5F00039D100F089F9002D14BF012100211DA3CC
:10B60000214A00F03BF928786E78022803D1FF2EFA
:10B6100018BF656006D100F077F91CA31A4A032110
:10B6200000F050F9A7602675002E04BF00202061AD
:10B6300010D0012E08BF4FF4004016D0022E08BFD4
:10B640004FF4003011D000F05FF914A30E4A03212B
:10B6500000F038F916480090164B174A1749184859
:10B6600002F048F820600248F8BD2061F2E70000CF
:10B67000D80000206D6F64756C65696E666F206917
:10B6800073204E554C4C0000F49F010877726F6E8A
:10B6900067206D6F64696E666F000000756E73756C
:10B6A00070706F72746564206570726F6300000063
:10B6B0005D5B01086D5B0108C15B01084D5B010822
:10B6C0000D5C010800487047F89A0108002818BF6F
:10B6D00000687047002818BF0089704700210028C3
:10B6E00008BF70470288002A04BF08467047428896
:10B6F000C168C08802FB0010704728B1018800892A
:10B7000081421CBF00207047012070472DE9FF5F78
:10B710004FF0000906460D469246C8460127DDF85F
:10B720003CB000F03FFB01231822042100F044FB51
:10B730000021018041800446818000F0E5F8002E60
:10B7400014BF0121002120A3244A00F097F800F043
:10B75000DBF8002D14BF0121002121A31F4A00F0B6
:10B760008DF8E68025810E98C4E9040B012E03D0E4
:10B77000022E0CBF0227042700F014FB2B46324692
:10B78000394600F019FBE060BAF1000F13D007460C
:10B79000002D15D909FB06700399D04709F1010066
:10B7A000B0FBF5F105FB110908F101001FFA80F863
:10B7B0004545EFD804E02189E2885143FDF79DFF1C
:10B7C00004B02046BDE8F09F6974656D5F73697AC7
:10B7D00065206973207A65726F000000FC9C010887
:10B7E0006361706163697479206973207A65726F2F
:10B7F00000000000002808BF704710B5044600880C
:10B80000002808BF10BD6188E288E06801FB0200E3
:10B810006169002918BF884760882189401CB0FBF6
:10B82000F1F201FB120060802088401E208010BDD4
:10B83000002814BF0029704710B5044600892288EB
:10B84000904208BF10BDA388E288E06803FB0200B5
:10B8500023690BB1984701E0FDF7D0FEA08821894C
:10B86000401CB0FBF1F201FB1200A0802088401CBC
:10B87000208010BD002818BF00887047002918BF1D
:10B88000704770B5032615461C4602F0E3F802F037
:10B89000E9F800280CBF022002F08EF901460848A2
:10B8A0002A462346D0F800C0BCF1000F03D0304632
:10B8B000BDE87040604702F0CDF802F0DFF8FEE727
:10B8C0007000002070B51C4615460E4602F0C2F806
:10B8D00002F0C8F800280CBF022002F06DF9014602
:10B8E000084823462A46046824B13046A446BDE8E9
:10B8F00070406047022E98BF70BD02F0ABF802F0B6
:10B90000BDF8FEE77000002000487047700000207E
:10B9100070B500260D46144602F09CF802F0A2F81D
:10B9200000280CBF022002F047F9014606482A46CB
:10B930002346D0F800C0BCF1000F08BF70BD3046F0
:10B94000BDE870406047000070000020002808BF7C
:10B95000024803490068086008467047189D0108BE
:10B9600070000020002804BF6FF00100704770B520
:10B97000044640680D4680B1114602F01FF80028C9
:10B980001CBF6FF0020070BD2068FFF7A3FE288087
:10B99000606802F005F8002070BD2068FFF79AFE8D
:10B9A0002880F8E7002812BF00296FF001007047D7
:10B9B00070B5044640680D4688B1114601F0FEFF9F
:10B9C00000281CBF6FF0020070BD2068FFF786FEE4
:10B9D0002860606801F0E4FF286838B104E020685E
:10B9E000FFF77CFE286008B1002070BD6FF00400F6
:10B9F00070BD00002DE9F04F83B00546DDE90D87ED
:10BA00000E469A469346DDF8309000F0CBF90123BC
:10BA10000822042100F0D0F90446FFF775FF002D3D
:10BA200014BF012100210EA3124AFFF727FFFFF7E1
:10BA30006BFF002E14BF012100210FA30D4AFFF759
:10BA40001DFFCDE9009853465A4631462846FFF778
:10BA50005DFEC4E9000703B02046BDE8F08F00009A
:10BA60006974656D5F73697A65206973207A6572A0
:10BA70006F000000049D010863617061636974795F
:10BA8000206973207A65726F00000000002804BFEF
:10BA90006FF00100704770B5044640680D4648B12C
:10BAA000114601F08BFF002818BF6FF002050FD080
:10BAB000284670BD2068FFF720FE002818BF6FF0F1
:10BAC0000505F5D129462068FFF7B2FE0025EFE70E
:10BAD0002068FFF712FE002818BF6FF0050503D09D
:10BAE000606801F05DFFE3E729462068FFF7A0FEEC
:10BAF0000025F5E7002804BF6FF00100704710B57E
:10BB00000446406870B101F059FF00281CBF6FF077
:10BB1000020010BD2068FFF76DFE606801F040FF75
:10BB2000002010BD2068FFF765FEF9E770B50D46EF
:10BB3000040012D06068A0B1114601F03FFF002858
:10BB40001CBF6FF0020070BD2068FFF793FE2880D5
:10BB5000606801F025FF002070BD00200880801E75
:10BB600070BD2068FFF786FE2880F4E7002814BF28
:10BB70000029704770B5054600680C4601004FF07B
:10BB8000000608BF70BD224684420DD1002908BFBF
:10BB900070BD0CB30846A1420CD1406800280CBF10
:10BBA00030460660286017E000281CBF4068002867
:10BBB000E9D170BD68681146A04207D100281BBFBB
:10BBC0000068002830464660686005E020684968E3
:10BBD0004160D4E900010860A88904288CBFA068EE
:10BBE00004F108006969002918BF8847A869C4E9F9
:10BBF0000060002818BF0460AC612889401E000462
:10BC0000000C288108BF6E6070BD70B505000E463F
:10BC100012BF002E002070BD2C6874B1AA89042ABE
:10BC20008CBFA06804F108003146FDF7BBFC00287A
:10BC30001EBF002C6468002CF0D1204670BD28B1D6
:10BC40004189008981421CBF002070470120704754
:10BC50002DE9FF5F8146DDE90EB4884617464FF0B7
:10BC6000000A00F09FF801231C22042100F0A4F830
:10BC700000260660466005460681FFF745FEB9F1DD
:10BC8000000F14BF0121002123A3284AFFF7F6FD6E
:10BC9000FFF73AFEB8F1000F14BF0121002124A3E1
:10BCA000224AFFF7EBFDA5F80A80A5F80C90C5E93C
:10BCB00004B4B8F1000F24D900F074F801231C2259
:10BCC000042100F079F80446B9F1040F1DD900F001
:10BCD00069F801234A46042100F06EF8A060002FA5
:10BCE00018BF039900D0B847A869C4E900600028CC
:10BCF00018BF04600AF101001FFA80FAAC61C24566
:10BD0000DAD304B02846BDE8F09F002F1CBF04F131
:10BD100008000399E7D1E7E76974656D5F73697A95
:10BD200065206973207A65726F0000000B9D010821
:10BD30006361706163697479206973207A65726FD9
:10BD400000000000002814BF0029704770B50546A8
:10BD500040892A8990421ABFAC69002C70BD002628
:10BD6000606800280CBF30460660A861AA89042AD2
:10BD70008CBFA06804F108002B690BB1984701E063
:10BD8000FDF73CFC2889002808BF6C602868C4E9DE
:10BD90000060002818BF04602C602889401C28819E
:10BDA00070BD00000348807C01280CBF01480020C2
:10BDB00070470000740000202DE9F0418C4614000B
:10BDC0001D464FF0000618BF002D0ED0BCF1010F2C
:10BDD00026D04FF6FF71BCF1020F10D0BCF1040F5A
:10BDE00013D0BCF1080F16D01AE0FFF78DFD2BA37E
:10BDF000304A0121FFF766FD0020BDE8F081521CAA
:10BE0000C2F34E0201EA42040AE0D21CC2F38D02E0
:10BE100001EA820404E0D21DC2F3CC0201EAC204AA
:10BE2000254F40B13A7CFAB13946012A496821D000
:10BE3000022A15D023E0FFF767FD20A31D4A012148
:10BE4000FFF740FD796805FB04F0884706001DD127
:10BE5000FFF75AFD22A3174A0321FFF733FD15E030
:10BE6000407C10EA0C0F05D01A462146604609F0C6
:10BE70006DFF02E005FB04F08847060006D1FFF7DE
:10BE800043FD1EA30B4A0321FFF71CFDF86905FBC8
:10BE90000400F8613046BDE8F081000072657175FC
:10BEA0006573746564207A65726F206D656D6F725D
:10BEB00079000000449D0108740000206E6F74201A
:10BEC000696E697469616C69736564207965742E43
:10BED000207573696E672063616C6C6F632829003D
:10BEE0006E6F20616E796D6F7265206D656D6F721A
:10BEF000792066726F6D2068656170006E6F206DCD
:10BF0000656D6F727920616E796D6F7265206672F2
:10BF10006F6D2068656170002449254A8B7C002B79
:10BF200039D101238B744FF0000CC1F81CC00028DC
:10BF300037D0086003780B74D0F804C0BCF1000F50
:10BF40000CBF4A60C1F804C0012B24D083682BB118
:10BF50004B7C43F001034B7403898B8203693BB133
:10BF60004B7C43F002034B740369C3F34F03CB8252
:10BF700083693BB14B7C43F004034B748369C3F387
:10BF80008F030B83006A30B14B7CC0F3CF0043F0CA
:10BF900008034B7448834868002808BF4A60034878
:10BFA0007047044808600B744A60F4E7740000208E
:10BFB000A97101081C9D0108002819BF0029002A49
:10BFC0006FF00100704703680B60808810800020CC
:10BFD0007047002804BF6FF0010070470160828045
:10BFE00000207047002812BF00296FF00100704741
:10BFF000408908800020704710B40028DDF804C094
:10C0000011BFBCF1000F6FF0010010BC7047C47984
:10C01000012C1EBF4FF0FF3010BC704701608280C2
:10C0200000218171038143818381C181C0F810C0E7
:10C0300010BC0846704770B50546FFF7B3FE0123F4
:10C0400014220421FFF7B8FE044600202060A080DF
:10C05000A07120816581A081E081002D04BF206155
:10C06000012008D0FFF79EFE01232A461946FFF75C
:10C07000A3FE20610020E071204670BD002819BF9A
:10C080000029002A6FF0010070470389C38103690A
:10C090000B600089108000207047002812BF002923
:10C0A0006FF00100704770B50446C079154600284E
:10C0B0001CBF4FF0FF3070BD628900262069AA4284
:10C0C00006D32A46FDF79AFA2581A581E68107E085
:10C0D000FDF794FA60892081A081E6810120A0719A
:10C0E000002070BD002804BF6FF001007047428936
:10C0F0000023914203D801818181C38104E0028140
:10C100008281C3810121817100207047002101607B
:10C110008180817101818181C1810846704710B59C
:10C120000A6802608A88828042890B899A4294BF99
:10C13000012200228271002A0CBF0A8942890281F1
:10C1400082810022C281028909690069FDF756FADD
:10C15000002010BD70B504464FF000002060A080A4
:10C16000A0712081A081E0810D00618104BF206168
:10C17000012008D0FFF716FE0122ABB21146FFF7EF
:10C180001BFE20610020E071002070BD002818BF58
:10C19000C06870472DE9F0470546FFF7B5FB002D55
:10C1A00014BF0121002141A3434AFFF767FBFFF7BA
:10C1B000F9FD012310220421FFF7FEFD0026056092
:10C1C00004460671E8786071FF20B046A071FFF761
:10C1D000E9FD2B7808220421FFF7EEFDA060287806
:10C1E000002888BF042712D9A06840F83680FFF7DE
:10C1F000D9FD0122AB781146FFF7DEFDA16807EB00
:10C20000C6028850701CC6B22878B042ECD8687854
:10C210000027002888BF4FF0010928D9E86800EB03
:10C22000C706FFF771FB327829788A423CBF7278E3
:10C230008A4205D2B178AA78914238BF012100D351
:10C2400000211EA31C4AFFF719FB3178A068B278C1
:10C2500000EBC10009FA02F2016811430160406875
:10C26000B1784754781CC7B26878B842D6D82879D4
:10C2700030B1FFF797FD2A7901230421FFF79CFDD8
:10C28000E0602068016900291CBF204688472046DD
:10C290002168C978617184F804802168496900299E
:10C2A00018BF88472046BDE8F08700006366672016
:10C2B0006973204E554C4C00129D0108636667203F
:10C2C0006973206E6F7420636F727265637400000F
:10C2D000002804BF6FF0010070472DE9F0410446CB
:10C2E00000680D468078A8429CBF4FF0FF30BDE843
:10C2F000F0812079012660B92671FF21A1712168A2
:10C3000020468A68C97802EB01118968002918BFA4
:10C3100088476179A06806FA05F300EBC10002685E
:10C320001A4204BF6FF00400BDE8F081A5712268D5
:10C330004068D368405D03EBC007906800EB0116CE
:10C34000797800EB0115AE421FBFF1680029204645
:10C350008847796800291CBF204688477878607133
:10C36000AE421FBFA9680029204688470020BDE8CB
:10C37000F08110B5002804BF6FF0010010BD0179F5
:10C3800061B901210171FF21817101688A68C97851
:10C3900002EB01118968002918BF8847002010BDF1
:10C3A00010B5FFF7FFFC012318220421FFF704FD5D
:10C3B0000446FFF7DFF8A060FFF7DCF8E060A06854
:10C3C000FFF780F8E068FFF77DF8FF20207000217C
:10C3D00061806160217403206074A17420466161F2
:10C3E00010BD10B5FFF772F9002818BF406810BDE6
:10C3F00010B5FFF76BF900280CBFFF20007810BDC7
:10C400002DE9F0471D46DDE9086A17468846DDF844
:10C410002890FFF75BF9040004BF6FF00100BDE84E
:10C42000F08784F80080678000206060207484F8C2
:10C4300011A084F81290A0681DB12946FFF74BF8AF
:10C4400001E0FFF73FF8E0681EB13146FFF743F81F
:10C4500001E0FFF737F80020BDE8F087002804BFAF
:10C460006FF001007047002904BF4FF0FF307047A4
:10C4700070B515460C4601F0EFF92A462146BDE895
:10C48000704001F0F1B90000F8B504004FF0000071
:10C4900015460E46009004BF6FF00100F8BD20461F
:10C4A000FFF79FFF2068417C012904BF4FF0FF3058
:10C4B000F8BD807C01280AD101F0CEF92A46214638
:10C4C00001F0D9F900281CBF6FF00200F8BD6946E1
:10C4D000E2686068FFF766FA050008D13046009907
:10C4E000FFF71DFE034960680968FFF703FB284654
:10C4F000F8BD0000EC9C01082DE9FF4F83B0054614
:10C50000DDE910BA1E469146FFF74CFC01233022AC
:10C510000421FFF751FC0446FFF7F6F9A91918BFEB
:10C52000012124A3294AFFF7A9F9FFF739FF284F72
:10C53000DFF8A0802060002D08BF002009D0CDE9E1
:10C540000087CDF80890244A29461420049BFFF761
:10C5500051FA6060002E08BF002009D0CDE90087A5
:10C560005B461D4A31461420CDF808A0FFF742FA79
:10C57000A0601A480068E06000F048F9206118489F
:10C58000D0E90012D0E90230C4E90830C4E906124B
:10C59000FEF7F0FFA06201F049F801F04FF8034602
:10C5A00022461049A06AFEF7F0FF07B02046BDE81A
:10C5B000F08F00006174206C65617374206F6E658C
:10C5C00020706B742071756575650000889F010887
:10C5D0000DC100081FC1000855C10008EC9C0108EE
:10C5E000789F01082D5E01082DE9F04F83B01546B4
:10C5F000DDE90C8BDDF838901F468A4604004FF0C9
:10C60000FF3602BF6FF0010003B0BDE8F08F012DCF
:10C6100018BF032D08D1A06830B9FFF775F92BA317
:10C62000354A0021FFF72AF9022D18BF032D08D142
:10C63000606898B9FFF768F930A32F4A0021FFF727
:10C640001DF96068002808BF012F07D1FFF75CF9CA
:10C65000354B0021A3F11402FFF710F9B8F1000FD8
:10C6600006D0B8E80F0004F1180CACE80F0005E0A4
:10C670002E4B04F118080FCBA8E80F002068007CAF
:10C68000F8B9CDF80090CDE901575B46524600213C
:10C690002046FFF7B5FE01F0DFF8214601F0D3F8A0
:10C6A000060004BF94F8240001280AD1A26A206A77
:10C6B00001210292CDE90001D4E90623206900F0AE
:10C6C00017F903B03046BDE8F08F0000656F5F7367
:10C6D0006F636B65746474675F4F70656E282920A3
:10C6E0006E6565647320616E206F7574707574205B
:10C6F0007175657565000000889F0108656F5F733F
:10C700006F636B65746474675F4F70656E28292072
:10C710006E6565647320616E20696E70757420713A
:10C7200075657565000000009C9F0108789F0108F1
:10C73000002804BF6FF00100704730B583B00D468C
:10C740000446FFF74EFE00283BD02068407C0228BC
:10C7500037D0D4E902022946FFF798F900281CBF18
:10C7600003B030BDDFF864C0D4E90612DCE9003C58
:10C7700059408CEA0202114304BF216A002917D0F4
:10C7800094F8241000291CBF03B030BD206900F0CC
:10C7900031F8012815D0A26A206A00210292CDE961
:10C7A0000001D4E90623206900F0A2F803B030BDEF
:10C7B00001F052F803B02146BDE83040102201F0EC
:10C7C00036B803B04FF0FF3030BD0000F09C0108D8
:10C7D000002812BF00296FF0010070470268527CE8
:10C7E000012A03D0C2684068FFF7A0B90020088082
:10C7F000401E704738B1007E10F0030003D00128BE
:10C8000018BF0220704700207047000070B5FFF786
:10C81000C9FA012330220421FFF7CEFA040015D013
:10C82000174AD2E90012C0E9001200218160C160FC
:10C83000027E61F3010222F0FC0202760161C16115
:10C84000016241628162C0E90411217701F0A6FA18
:10C85000050006D1FFF758F80AA3154A0021FFF793
:10C860000DF82146284601F0A1FA30B1FFF74CF847
:10C8700010A30F4A0021FFF701F8204670BD000009
:10C88000F09C0108656F5F74696D65725F4E657736
:10C8900028292063616E6E6F742067657420746848
:10C8A000652074696D6572206D616E6167657200E7
:10C8B000A49D0108696E20656F5F74696D65725F84
:10C8C0004E65772829207468652074696D6572202B
:10C8D0006D616E616765722063616E6E6F74206951
:10C8E0006E6974207468652074696D65720000005B
:10C8F0002DE9F84F1546DDE90A791E4604466FF02A
:10C900000508DDF830A001F049FA0090002818BFB2
:10C91000BAF1000F06D1FEF7F7FF31A33D4A00211F
:10C92000FEF7ACFFDFF8F0B0DBE9000168407140D2
:10C93000084308D03FB9FEF7E7FF384B0021A3F1C9
:10C940000802FEF79BFF36480168009801F044FAA0
:10C95000C01C04BF4046BDE8F88FDBE90010694009
:10C960007040084314D0B9F1000F11D101F072F8F2
:10C9700001F07DF8EB1946F10002C01A71EB0200DC
:10C9800006D3009801F01AFA4FF0FF30BDE8F88F97
:10C990002CB1207E10F0030001D0012819D0207E98
:10C9A000B9F1000F20F00300207614BF40F004001E
:10C9B00020F004002076A760C4E90056BAE80F0012
:10C9C00004F11C08A8E80F002146009801F0DDF9E9
:10C9D0008046009801F0F2F94046BDE8F88F00006B
:10C9E000656F5F74696D65725F5374617274282935
:10C9F00020666F756E642061204E554C4C20706F20
:10CA0000696E74657220617320617267756D656E01
:10CA100074000000A49D0108F09C0108AC9D010871
:10CA2000EC9C010870B504466FF0050601F0B6F9FC
:10CA3000050012BF002C6FF0010070BD16480168A0
:10CA4000284601F0C9F9C01C04BF304670BD207EE5
:10CA500010F0030101D0012918D0002161F3010079
:10CA600020F0FC0020760D48D0E90010C4E9001049
:10CA70000020A060E060E06120626062A062207738
:10CA80000446284601F09AF9204670BD2146284602
:10CA900001F09AF90446F4E7EC9C0108F09C0108C7
:10CAA000002908BF002203D001290CBF0122022265
:10CAB000002808BF7047017E62F3010121F0FC01EC
:10CAC00001760749D1E90021C0E9002100218160F8
:10CAD000C160C161016241628162017770470000FB
:10CAE000F09C010802484068002818BF00487047C1
:10CAF000A000002000281CBF0148406870470000CB
:10CB0000A000002030B5224D044687B06868002898
:10CB10001EBF1F4807B030BD002C08BF1D4CFEF7DC
:10CB2000F3FE2179002918BF01211BA3214AFEF73A
:10CB3000A5FEFEF7E9FE6188002918BF01211EA3AA
:10CB40001C4AFEF79BFEFEF7DFFE2178002918BF86
:10CB5000012120A3174AFEF791FE28480DF1080C89
:10CB600023A30068244A0021ACE80F00217924485F
:10CB7000CDE90001628821780023042000F0BCFA8E
:10CB8000014668601F4800F05DFD07B0004830BDF9
:10CB9000A0000020429E010863626B6D616E6366B7
:10CBA000672D3E717565756573697A6520697320B7
:10CBB00030000000489E010863626B6D616E636621
:10CBC000672D3E737461636B73697A6520697320A6
:10CBD0003000000063626B6D616E6366672D3E70AE
:10CBE00072696F72697479206973203000000000E7
:10CBF00063626B6D616E0000C3880108EC9C0108E4
:10CC0000595E0108415E01082DE9F0416C4D044672
:10CC100086B028681E461746884600281EBF68480A
:10CC200006B0BDE8F081002C08BF664CFEF76CFE34
:10CC3000B8F1000F14BF0121002163A3664AFEF77B
:10CC40001DFEFEF761FE6168002918BF012163A384
:10CC5000614AFEF713FEFEF757FE6188002918BFF0
:10CC6000012166A35C4AFEF709FEFEF74DFE21781E
:10CC7000002918BF012169A3574AFEF7FFFD002EC6
:10CC800008BF6D4EFEF740FE7178002940F0968097
:10CC90003178002918BF002100F09080674BA3F184
:10CCA0003002FEF7EBFD6749654A67480292CDE91D
:10CCB00000013078654B664A002100F0E9FD2860EC
:10CCC0000021022006F0E4FC2862FEF71DFE296A1E
:10CCD000002918BF01215FA33F4AFEF7CFFD06F0F0
:10CCE000FDFBE860FEF710FEE968002918BF01218E
:10CCF0005EA3394AFEF7C2FDFFF788FD6862FEF7C2
:10CD000039FCA86270780026002808BF6E630CD03A
:10CD100006F028FB6863FEF7F7FD696B002918BF72
:10CD2000012158A32C4AFEF7A9FDD822414605F15E
:10CD30003800FCF7A8FC77B1D7E9000150EA0102FE
:10CD400018BFC5E91201B868002818BF2865F8683F
:10CD5000002818BF68650020FFF76DF9E8624F48AA
:10CD600000682863207A85F81001286800F04EFDDD
:10CD700060684BA14D4ACDE90206CDE904214C483B
:10CD8000CDE90006628821784A4B012000F0B4F911
:10CD90006860E86B48A14B4ACDE90206CDE9042161
:10CDA0004948CDE900066289617A0023052000F038
:10CDB000A3F9A86006B00248BDE8F08101216DE743
:10CDC00018030020EC9E0108697063666720697390
:10CDD000204E554C4C000000F89E010869706E65AD
:10CDE000746366672D3E70726F636D617869646C01
:10CDF0006574696D652069732030000069706E6527
:10CE0000746366672D3E70726F63737461636B73D6
:10CE1000697A6520697320300000000069706E65D2
:10CE2000746366672D3E70726F637072696F7269AA
:10CE30007479206973203000E99E0108289F010859
:10CE40009963010859600108C5600108456201083D
:10CE5000316101086F73616C2063616E6E6F7420C5
:10CE60006769766520612073656D00006F73616C82
:10CE70002063616E6E6F7420676976652061206D36
:10CE8000747800006F73616C2063616E6E6F742044
:10CE9000676976652061206D71000000EC9C0108D7
:10CEA00069706E65742E70726F630000CDCE0008DD
:10CEB0006D6401080D67010869706E65742E7469F0
:10CEC000636B0000D1CE00085D67010800F012BB63
:10CED00000F010BB10B5FEF765FF01230822042106
:10CEE000FEF76AFF044600F079FD0B4A0B4920600B
:10CEF00000F080FD06F0F2FA6060FEF705FD844662
:10CF00006068002814BF0121002105A30B4A604678
:10CF1000FEF7B4FC204610BD616701086767010891
:10CF20006F73616C2063616E6E6F742067697665E4
:10CF30002061206D7574657800000000309E010846
:10CF4000002804BF6FF001007047406806F000BB86
:10CF5000002804BF6FF001007047406806F01ABB5C
:10CF600002480068002818BF00487047F0020020FF
:10CF70002DE9F04786B005460020314CDDF83880B9
:10CF80000646049020681F4691468A4600281EBF28
:10CF90002B4806B0BDE8F087FEF7B6FC002D14BFA5
:10CFA0000121002127A32B4AFEF768FCFEF7ACFC09
:10CFB0006968002918BF012127A3264AFEF75EFCF5
:10CFC000FEF7A2FCA968002918BF012128A3214A65
:10CFD000FEF754FC2F482C4B2C4A2D498DE80F00AE
:10CFE0002D4B2E4A4946504600F052FD206068689D
:10CFF0006060A868C4F81080C4E90207686801F09E
:10D00000C7FB01F023FC2868002818BF02F00AFBC8
:10D0100004A9A06806F018F8049840B1FEF7C2FE13
:10D02000049901238AB20821FEF7C6FE064631465E
:10D03000A06805F06FFE06B00148BDE8F08700006B
:10D04000F0020020737973636667206973204E5580
:10D050004C4C0000609E01087379736366672D3E37
:10D0600068616C636667206973204E554C4C000004
:10D070007379736366672D3E6F73616C63666720B7
:10D080006973204E554C4C00E1F500084D370108FE
:10D09000A538010849370108416001086D6701089A
:10D0A00070B50C460546FEF72FFC002D14BF01217C
:10D0B000002105A30D4AFEF7E1FB0D484461BDE8E0
:10D0C00070400C4806F05EBB656F6D5F7379735FEF
:10D0D0005374617274282920757365732061204E22
:10D0E000554C4C2068616E646C650000609E0108C0
:10D0F000F0020020696901082DE9FF4F9DB000256D
:10D10000DDE92C7689469246DDF8B8B0DDF8AC80D2
:10D110008DF81C50FEF7F8FB2A99002918BF012151
:10D12000AEA3B34AFEF7AAFBFEF7EEFBBAF1000F7F
:10D1300014BF01210021AFA3AD4AFEF79FFBFEF70C
:10D1400031FE012324220421FEF736FE044600F0BE
:10D150003FFD266220601D9AAB4EAC49062A80F046
:10D16000E380DFE802F0031E3A5788C6A574A84A98
:10D17000C4E90525E5612574A560E560CDE904569F
:10D18000CDE9001502950395A24B2A9A209900F04B
:10D1900053FDA1A3A3A2092118A8FCF7B5F800F03C
:10D1A000CAB80122A274A04AE561C4E90527257422
:10D1B000A560E560CDE90456CDE90015029503951B
:10D1C000944B2A9A209900F037FD98A395A2092143
:10D1D00018A8FCF799F800F0AEB80222A274964A9B
:10D1E000C4F81C80C4E905272574A560E560CDE975
:10D1F0000456CDE9001502950395864B2A9A20998D
:10D2000000F01AFD89A387A2092118A8FCF77CF871
:10D2100000F091B80320A0748848E561C4E90507CF
:10D22000B8F1000F08BF4FF0010808F0FF002074AC
:10D2300006F098F8C4E90205FEF766FBA16800292C
:10D2400018BF01217EA36A4AFEF718FB8548CDE985
:10D250000205CDE9045684480023CDE9005020683A
:10D260002A9A209900F0E8FC80A36EA2092118A850
:10D27000FCF74AF85FE00420A0747F48E561C4E948
:10D280000507B8F1000F08BF4FF0010808F0FF00D4
:10D29000207406F067F8A060207C06F063F8E06078
:10D2A000FEF732FBA168002918BF012164A3504A90
:10D2B000FEF7E4FAFEF728FBE168002918BF012118
:10D2C0005FA34B4AFEF7DAFA6D496C48CDE902518B
:10D2D0000095CDE904060195002320682A9A20993B
:10D2E00000F0AAFC67A34FA2092118A8FCF70CF8CC
:10D2F00021E00521A1746649E561C4E9051725749B
:10D30000A560E560CDE904560295039500950023DC
:10D3100001952A9A209900F08FFC5EA341A2092171
:10D3200018A8FBF7F1FF06E0FEF7EEFA5CA3304A1F
:10D330000321FEF7C7FAA9F10300F82838BF84F8E3
:10D34000119005D3B9F1020F34BF0220FB206074A5
:10D350000AF10700C0084FF6FF71627C01EAC003C2
:10D36000BBF1000F08D02146584606F0FBFA2146D3
:10D37000606006F0B7FA07E02146606906F0F2FA4D
:10D380002146606006F0AEFAFEF7BEFA6168002939
:10D3900018BF012148A3164AFEF770FA4C4D07A9A1
:10D3A0002878401C2870606806F0C5FA9DF81C209B
:10D3B0002F9818A9CDE90002CDE902912B7845A25A
:10D3C0003F2108A8FBF7A0FFFEF79EFA08AA08492C
:10D3D000FEF79EFA21B02046BDE8F08F72756E5FB1
:10D3E000666E2829206973204E554C4C00000000C1
:10D3F000399E0108737461636B2073697A652069D3
:10D4000073207A65726F000015680108376901089A
:10D410004369010887680108757365722D64656644
:10D420000000000025730000BF6701086576742DB9
:10D430006472766E00000000856701089368010839
:10D440006F73616C2063616E6E6F742067697665BF
:10D450002061206D65737361676520717565756501
:10D460000000000025690108736801086D73672DCD
:10D470006472766E00000000DF670108DB68010857
:10D480002B680108616374762D6472766E0000006B
:10D49000B7680108706572696F6469630000000015
:10D4A000756E737570706F72746564207461736BE0
:10D4B00020747970650000006F73616C2063616E89
:10D4C0006E6F7420676976652061207461736B00EC
:10D4D0009C0000202325643A2025732C20696420B9
:10D4E00025642C2070722025642C202573000000F8
:10D4F00000F03BBC002808BF70474169084700F0B6
:10D50000EBBB00F0F9BB000030B5254D044687B0F9
:10D51000286800281EBF224807B030BD002C08BF75
:10D52000204CFEF7F1F92179002918BF01211EA333
:10D53000264AFEF7A3F9FEF7E7F96188002918BF2C
:10D54000012123A3214AFEF799F9FEF7DDF921789D
:10D55000002918BF012125A31C4AFEF78FF9FFF708
:10D56000B9FC0346284A2949294800F03BFC2860B9
:10D570002C480DF1080C27A30068294A0021ACE8CB
:10D580000F0021792848CDE9000162882178002325
:10D590000320FFF7B1FD686007B0014830BD00000F
:10D5A000A8000020CC9E0108746D726D616E6366E8
:10D5B000672D3E6D6573736167657175657565731C
:10D5C000697A65206973203000000000D29E01084E
:10D5D000746D726D616E6366672D3E737461636B0B
:10D5E00073697A652069732030000000746D726D74
:10D5F000616E6366672D3E7072696F72697479201F
:10D600006973203000000000FD6A0108056A010806
:10D61000C56A010874696D65726D616E0000000075
:10D62000C7880108EC9C0108416B010802480068AA
:10D63000002818BF0048704794000020002818BF39
:10D640004068704770B5104E05460C46306800289B
:10D650001CBF0D4870BDFEF757F9002D14BF012106
:10D6600000210AA30F4AFEF709F9FEF74DF9002C35
:10D6700014BF012100210CA30A4AFEF7FFF8C6E9F6
:10D680000054014870BD0000940000206578656377
:10D690007574655F666E2829206973204E554C4C61
:10D6A00000000000FA9D01087461736B206973200B
:10D6B0004E554C4C0000000070B50C460546FEF778
:10D6C00005F8002804BF6FF0010070BD2146826894
:10D6D0002846BDE87040104710B50446FDF7F6FF38
:10D6E000002804BF6FF0010010BD01682046BDE8AE
:10D6F000104008472DE9F047244C8046DDF8209083
:10D7000020681D4616460F4600281CBF1F48BDE86E
:10D71000F087FEF7F9F8B8F1000F14BF01210021DE
:10D720001BA3224AFEF7AAF8FEF7EEF8002F14BF5B
:10D73000012100211EA31D4AFEF7A0F8FEF7E4F820
:10D74000002E14BF0121002120A3184AFEF796F8ED
:10D75000FEF7DAF8002D14BF0121002120A3134A9F
:10D76000FEF78CF8FEF7D0F8B9F1000F14BF0121D5
:10D77000002121A30D4AFEF781F8C4F81090C4E9F6
:10D780000265C4E900870148BDE8F0873004002045
:10D79000736861726564646174615F73796E632834
:10D7A00029206973204E554C4C00000008A0010848
:10D7B00070726F635F6F66667365745F6765742808
:10D7C00029206973204E554C4C00000069706E652D
:10D7D000745F6765742829206973204E554C4C008E
:10D7E00063616E6E65745F676574282920697320B4
:10D7F0004E554C4C000000006570726F635F6765AA
:10D80000742829206973204E554C4C0010B500280F
:10D8100004BF6FF0010010BD012180F82010836863
:10D820000A46002B1CBF01469847002010BD002867
:10D8300004BF6FF0010070478368002B04BF4FF0F6
:10D84000FF3070471847002812BF00296FF0010011
:10D85000704702681047000002480068002818BF9F
:10D8600000487047B4000020002804BF6FF001009A
:10D870007047C3681847002804BF6FF00100704765
:10D880000369002B04BF4FF0FF30704718470000BA
:10D890002DE9F04F83B0274C0546DDE90D7A20686D
:10D8A000DDF830B098461646894600281EBF21484C
:10D8B00003B0BDE8F08F2DB9FEF726F81EA2284967
:10D8C000FEF726F8FEF720F8002E14BF01210021F4
:10D8D00024A3234AFDF7D2FFFEF716F8002E14BF4B
:10D8E0000121002124A31E4AFDF7C8FFFEF70CF812
:10D8F000002F14BF0121002124A3194AFDF7BEFF08
:10D90000C4F808B0C4E90068C4E9037A4FF0000025
:10D910003DB10090002301901A4629460420FEF7ED
:10D9200097F9C4E90609012084F8200003B00148F2
:10D93000BDE8F08FB40000202E2E2E205A45524F05
:10D9400020454F736F636B657444617461677261E6
:10D950006D2061726520696E6974746564000000F1
:10D96000DE9F01086174746163685F666E28292018
:10D970006973204E554C4C006465746163685F6642
:10D980006E2829206973204E554C4C006172705FDF
:10D99000666E2829206973204E554C4C000000000B
:10D9A00010B50446FDF792FE002804BF6FF0010099
:10D9B00010BD41682046BDE81040084770B50C46D0
:10D9C0000546FDF783FE002804BF6FF0010070BD1F
:10D9D000214602682846BDE87040104710B5FEF7A2
:10D9E000E1F9012308220421FEF7E6F90021016094
:10D9F000416010BD70B514460D460646FDF784FF24
:10DA0000002D14BF0121002108A30C4AFDF736FFA9
:10DA1000FDF77AFF002C14BF0121002108A3074A5B
:10DA2000FDF72CFFC6E90054002070BD765F746BD3
:10DA300065206973204E554C4C000000F19D010893
:10DA4000765F72656C65617365206973204E554C15
:10DA50004C00000002480068002818BF00487047CA
:10DA6000C8020020002808BF70474068004700280F
:10DA700002BF00200146704780680047002804BFAD
:10DA80006FF00100704710B540698047002010BD5D
:10DA90002DE9FF5F2B4CDDE91087DDE90EA9206839
:10DAA0001D4616468B4600281EBF264804B0BDE81A
:10DAB000F09FFDF729FF002E14BF0121002122A3B2
:10DAC000254AFDF7DBFEFDF71FFF002D14BF0121E6
:10DAD000002122A3204AFDF7D1FEFDF715FFBAF180
