:020000040800F2
:10800000F8790120A1840008A9840008AB84000845
:10801000AD840008AF840008B184000800000000AF
:10802000000000000000000000000000898300083C
:10803000B584000800000000298400088D84000831
:10804000BB840008BB840008BB840008BB84000814
:10805000BB840008BB840008BB840008BB84000804
:10806000BB840008BB840008BB840008BB840008F4
:10807000BB840008BB840008BB840008BB840008E4
:10808000BB840008BB840008BB840008639F000811
:10809000DD9E0008BB8400085D9F0008BB840008CB
:1080A000BB840008BB840008BB840008BB840008B4
:1080B000BB840008BB840008BB840008BB840008A4
:1080C000BB840008BB840008BB840008BB84000894
:1080D000BB840008BB840008BB840008BB84000884
:1080E000BB840008BB840008BB840008BB84000874
:1080F000BB840008BB840008BB840008BB84000864
:10810000BB840008BB840008BB840008BB84000853
:10811000BB840008BB840008BB840008BB84000843
:10812000BB840008BB840008BB840008BB84000833
:10813000BB840008C5A40008BB840008EF9F0008AA
:10814000699F0008BB840008E99F0008BB84000801
:10815000BB840008BB840008BB840008BB84000803
:10816000BB840008BB840008BB840008BB840008F3
:10817000BB840008BB840008BB840008BB840008E3
:10818000BB840008BB84000800F002F800F0ADF8E2
:108190000AA090E8000C82448344AAF10107DA4562
:1081A00001D100F0A2F8AFF2090EBAE80F0013F007
:1081B000010F18BFFB1A43F00103184734430100B5
:1081C000544301000023002400250026103A28BF54
:1081D00078C1FBD8520728BF30C148BF0B60704739
:1081E000642901F07582782901F0AE82732901F0CB
:1081F000C0850020704710B510BD00007047704763
:1082000002010210DF577A2D008000080080010073
:1082100000000020C0FF010000000000000000007E
:108220000165557064617465720000000000000013
:108230000101000000010100455854000000000049
:108240004D617920323620323031352031313A31AA
:10825000373A333600000000000000000000000044
:10826000000000000000000000000000000000000E
:1082700000000000000000000000000000000000FE
:108280000A444FF0000C10F8013B13F0070408BF3C
:1082900010F8014B1D1108BF10F8015B641E05D0DA
:1082A00010F8016B641E01F8016BF9D113F0080F8F
:1082B0001EBF10F8014BAD1C0C1B09D16D1E58BF21
:1082C00001F801CBFAD505E014F8016B01F8016B58
:1082D0006D1EF9D59142D6D370471FB513F0CEF974
:1082E0009DE8030001F036FC1FBD01F075FD11464D
:1082F000FFF7F3FF0AF02CFE01F093FD03B4FFF744
:108300007AFF03BC01F0C0FD004870470030000058
:108310000048704700A00000401EFDD170470000DB
:1083200080F309887047EFF309807047684680F34F
:10833000098804480078C00714BF0220032080F396
:108340001488704728030020DFF818C0EFF3058376
:108350001B0618BF6047EFF31483DB0708BF6047B5
:1083600000DF704719500108DFF818C0EFF30583EC
:108370001B0618BF6047EFF31483DB0708BF604795
:1083800000DF704791500108EFF30980816911F80F
:10839000021C99BB90E80F1010B5E047BDE81040F3
:1083A000EFF3098C8CE807001C4B93E80600914220
:1083B00008BF704781B11EF0100F06BF2CED108A68
:1083C0000120002081F838002CE9F00FC1F83CC0F2
:1083D0000CB40EF0F3F90CBC1A60D2F83CC0BCE847
:1083E000F00F92F8380000281ABFBCEC108A6FF02A
:1083F000120E6FF0020E8CF30988704710B5084A10
:108400001268914209D8074C54F8214090E80F10A7
:10841000A047EFF3098C8CE80F0010BD3802002054
:10842000D89E0008D89E000810B50EF0C5F8BDE82B
:108430001040154B93E80600914208BF7047EFF3D8
:10844000098C1EF0100F06BF2CED108A01200020B1
:1084500081F838002CE9F00FC1F83CC00CB40EF0E4
:10846000ADF90CBC1A60D2F83CC0BCE8F00F92F831
:10847000380000281ABFBCEC108A6FF0120E6FF0A3
:10848000020E8CF3098870473802002010B50EF0F8
:10849000B9F9CCE710B50BF08BFB0EF0B3F9C6E7DA
:1084A0000948804709480047FEE7FEE7FEE7FEE788
:1084B000FEE7FEE7FEE7FEE7FEE7FEE704480549C4
:1084C000054A064B7047000001AD0008898100088D
:1084D000F8A90020F8790120F8490120F849012085
:1084E000F7B514466E46002914BF012500258848BB
:1084F0000078E8B100F07AFA2946304602F0ECFD47
:10850000C5B2012C0DD183480099834CC0F82610C8
:10851000014620684022001D01F0F5F9206800F0B6
:108520003DFE00F06DFA012D02BF002003B0F0BD4A
:108530004FF0FF3003B0F0BD38B56C460090002915
:1085400014BF012500257248007860B100F04EFA92
:108550002946204602F0C0FDC4B200F051FA012CB9
:1085600004BF002038BD4FF0FF3038BD2DE9F34780
:1085700067480D46E94600784FF0FF37F0B1674E87
:108580003088D8B100F032FA30880024002888BF43
:10859000DFF88C810FD900BFC4EBC40008EB4000AA
:1085A000042249460A3001F082F960B1601CC4B26D
:1085B00030888442F0D300F023FA11E002B04FF08B
:1085C000FF30BDE8F087C4EBC40008EB4000041D99
:1085D00000F016FA00271DB120682860A088A88046
:1085E00002B03846BDE8F0872DE9F1434848E84637
:1085F0004FF0FF360078E8B1484D2888D0B100F040
:10860000F5F928880024002888BF454F0FD900BFFE
:10861000C4EBC40007EB4000042241460A3001F0DD
:1086200046F958B1601CC4B228888442F0D300F0E7
:10863000E7F919E04FF0FF30BDE8F883C4EBC40060
:1086400007EB4000041D00F0DBF906223549204607
:1086500001F02DF958B106223349204601F027F9DF
:10866000002818BF002602D03046BDE8F8834FF03E
:10867000FF36F9E7002070470020704710B5254C01
:10868000FF21204602F074FB28484FF4C1634FF0ED
:10869000080C0169C4F80610828A6281A3814FF434
:1086A0008073E381A4F810C04FF0060C84F812C068
:1086B0004FF0040C84F813C0A382C4F81610628330
:1086C0008069E06104F1200002F04EFB0020C4F854
:1086D0002600C4F82A00C4F82E00C4F83200C4F8FA
:1086E00036000D4AC4F83A00E08704F140011160F9
:1086F0002A220A80488010BD90F82010202984BFCB
:108700004FF0FF30704710B500F0F3FC002010BDB3
:1087100094010020D88900208C010020F201002063
:10872000588D002048BC01084EBC0108608A00201A
:10873000B84A126F02B11047FEE770B50C46B8B1E7
:108740000546FFF797FF0646284600F091FC0644D1
:10875000284600F029FA0644284600F06CFA064440
:10876000284600F067FC3044002C18BF206070BD24
:10877000E120A84AA8A1126F12B19047002070BD55
:10878000FEE710B5A34C606F002808BF10BD8047FE
:108790000028AB49086018BF10BDE020226FA9A1D6
:1087A00012B1BDE810401047FEE770B5A44D416F0F
:1087B00081B1816F974C00291FBFC16F0029D0F88C
:1087C000800000280DD0606F002818D080472860F6
:1087D00080B114E000218167C167C0F88010296072
:1087E0000DE0226FE320A7A11AB190474FF0FF30B0
:1087F00070BDFEE7226FE02092A112B190470020E9
:1088000070BDFEE710B5D821824801F01DF98C49F2
:108810000020086010BD2DE9F0417E4C884605001F
:1088200007D02A6F2267287850B1E420A0A132B186
:108830002EE0226FE120ABA1002A29D1FEE7FEE75E
:10884000B1480078012804D02846FFF755FF20B131
:108850001AE0E020ADA1DAB9FEE7D8216D4801F0B9
:10886000F3F8774F002628463E6000F01EFC58B90A
:10887000284600F09FF938B9284600F0E2F918B907
:10888000284600F0DDFB40B1AA49226FE3205AB12F
:1088900090474FF0FF30BDE8F08141462846FFF792
:1088A000EBFE002875D100E0FEE72846FFF7E2FE68
:1088B00020F0030080444146284600F0DBFB0028FE
:1088C00067D1284600F0D4FB20F0030080444146E5
:1088D000284600F06BF900285BD1284600F064F9C7
:1088E00020F0030080444146284600F0A6F9002805
:1088F0004FD1284600F09FF920F0030000EB08015B
:10890000284600F099FB002843D1284600F092FB4E
:10891000D82229463F4801F03BF83E4D2846FFF754
:10892000ADFE002835D1686F60B1A96F00291FBF67
:10893000E96F0029D5F88010002909D080473860F8
:1089400068B111E0AE67EE67C5F880603E600BE08D
:10895000226FE3204BA10AB190471AE0FEE7226F95
:10896000E02038A12AB19047284600F085FB80B965
:1089700000E0FEE7284600F01BF950B9284600F059
:108980005EF930B9284600F059FB002808BFBDE861
:10899000F0814FF0FF30BDE8F08170B504000D4666
:1089A00016D0FFF767FE0646204600F061FB06443E
:1089B000204600F0F9F80644204600F03CF9064451
:1089C000204600F037FB3044002D18BF286070BDF2
:1089D000E120104A10A1126F12B19047002070BD23
:1089E000FEE718E700207047002070471448006831
:1089F000002808BF7047074AD2F88010926F1047CE
:108A00000F480068002808BF70470249C96F08472F
:108A100000687047608A00206970616C5F626173F2
:108A2000655F6D656D6F72795F67657473697A658F
:108A30002829206E656564732061206366670000E5
:108A4000900100206970616C5F626173655F6869A5
:108A5000645F7468726561647361666574795F6987
:108A60006E697428293A2063616E6E6F7420616CA0
:108A70006C6F6361746520746865206D75746578CA
:108A8000000000006970616C5F626173655F696E10
:108A9000697469616C6973652829206E6565647302
:108AA000206F73616C2066756E6374696F6E7300FE
:108AB0006970616C5F626173655F696E6974696139
:108AC0006C69736528293A20756E737570706F72C2
:108AD000746564207463702F697020737461636BB4
:108AE000000000006970616C5F626173655F696EB0
:108AF000697469616C69736528293A206D697373BB
:108B0000696E672063666700940100206970616C7C
:108B10005F626173655F696E697469616C697365D1
:108B200028293A20616C72656164792073746172DE
:108B300074656400D0C3010831B524486C460078E0
:108B400038B1234890F82C0018B19DF80000EF28A8
:108B500002D04FF0FF3038BDFFF748FF204609F044
:108B600049FD002814BF00244FF0FF34FFF748FFF1
:108B7000204638BD31B515486C46007888B1144898
:108B800090F82C0068B1FFF731FF204609F05AFD3C
:108B900000280CBF4FF0FF340024FFF731FF2046C0
:108BA00038BD4FF0FF3038BD0020704700207047BF
:108BB0000020704790F82D10062984BF4FF0FF3039
:108BC000704710B500F016FB002010BD9401002086
:108BD000608A0020224810B5406848B121480178D9
:108BE00001290CD00121017009F09AFF002010BD6D
:108BF0001DA1E120FFF79CFD4FF0FF3010BD24A127
:108C0000E020FFF795FD4FF0FF3010BD10B5FFF7E6
:108C1000EDFE0AF0BBF9BDE81040FFF7F1BE10B55C
:108C2000FFF7E4FE11F0C0FCBDE81040FFF7E8BE1E
:108C30000B484068704700207047002070470020B4
:108C400070470189B1F5C05F84BF4FF0FF307047B6
:108C500010B50021034A117000F024FB002010BD64
:108C6000608A0020940100206970616C5F737973E1
:108C70005F737461727428293A206D697373696E29
:108C80006720636F6E66696775726174696F6E00E5
:108C90006970616C5F7379735F7374617274282992
:108CA0003A2063616E6E6F74207374617274206118
:108CB0006761696E0000000008B1062801D9002034
:108CC0007047F0B515460A46E64900EB400085B00E
:108CD00001EBC000A0F1180450F8080C0A9F1E46D2
:108CE00098B11046FFF794FE0346E06820B1984221
:108CF00004BF2089A84208D10396ADF808700095FA
:108D0000D4E904C002AA2146E04705B00020F0BD26
:108D10004107090EC0F3C00241EA0211C0F300127C
:108D200010B541EAC201C0F3401041EA8004CE48C8
:108D30000078002808BF10BDFFF758FECB4A01217C
:108D4000204611F055FCC0B1C64900EB400201EBD2
:108D5000C20404F8180C002024F8160C44F8140C73
:108D600024F8100C44F80C0C44F8080C44F8040CDB
:108D7000FFF746FEA4F1180010BDFFF741FE0020EA
:108D800010BD70B504001CBF2078002821D0FFF76B
:108D90002DFE6088002518B1207811F00BFC65804D
:108DA000207811F087FC06462078AE4900EB4000A1
:108DB00001EBC00000F8185C2570658065602581B6
:108DC000E56025616561FFF71BFE002E1CBF0020DA
:108DD00070BD4FF0FF3070BD70B515460E460400F3
:108DE0001DBF20780028002D4FF0FF3008BF70BD58
:108DF000FFF7FCFD608820B1207811F0DBFB00203C
:108E000060809849002000BF00EB400201EBC202E5
:108E10005288AA4210D0401CC0B20628F4D3207851
:108E2000294611F009FC10F0FF0F05D0658066603F
:108E3000FFF7E6FD002070BDFFF7E2FD4FF0FF30C9
:108E400070BD2DE9F04790460F46040019BF207809
:108E500000284FF0FF30BDE8F087FFF7C7FD6088BE
:108E600050BB207800264546002818BF002D2DD085
:108E7000FFF7BCFD60884FF0000920B1207811F0A9
:108E800099FBA4F802907749002000BF00EB400254
:108E900001EBC2025288AA4216D0401CC0B206287A
:108EA000F4D32078294611F0C7FB10F0FF0F0BD048
:108EB00065806660FFF7A4FDA4F80880E760FFF70F
:108EC0009FFD0020BDE8F087FFF79AFDFFF798FDB2
:108ED0004FF0FF30BDE8F08710B5040019BF2078CF
:108EE00000284FF0FF3010BDFFF780FD00202081EB
:108EF000E060FFF785FD002010BD2DE9FF4182B045
:108F000098460C46050004AF1CBF2878002828D0DE
:108F10006888002818BF002C23D0606800281CBF78
:108F2000208800281DD0FFF761FD208811F058FB34
:108F300006001BD02288616800F0E5FC20880090C4
:108F4000287833464246394611F0CCFB00280CBF46
:108F50004FF0FF340024FFF753FD06B02046BDE874
:108F6000F08106B04FF0FF30BDE8F081FFF748FD1B
:108F700006B04FF0FF30BDE8F0812DE9F04383B03B
:108F80000C4605001CBF688800283CD0E868002813
:108F90001CBF2889002836D0FFF728FDE86801901B
:108FA0002878B5F808900DF104084FF0FF36002836
:108FB0001CBF6888002820D0002C1FBF60680028D4
:108FC0002088002819D0FFF711FD208811F008FB38
:108FD000070010D02288616800F095FC208800907E
:108FE00028783B464A46414611F07CFB00280CBFDE
:108FF0004FF0FF360026FFF703FDFFF701FD03B03A
:109000003046BDE8F08303B04FF0FF30BDE8F08399
:10901000002812BF00294FF0FF30704770B5164688
:109020000D460446FFF7E2FCC4E90456FFF7E8FCEE
:10903000002070BD0020704700207047002070475E
:1090400010B5044690F83000062884BF4FF0FF307A
:1090500010BD9021034800F0F7FC204600F087F98E
:10906000002010BD388B002094010020B98C00082E
:10907000002070470020704710B5D0F88C100029F0
:109080001CBFD0F89010002908D0D0F89410002907
:109090001FBFD0F898000028002010BD05A1E120D6
:1090A000FFF746FB4FF0FF3010BD10B500F093F80E
:1090B000002010BD6970616C5F6574685F686964E9
:1090C0005F696E697428293A206D697373696E67E8
:1090D000206574682066756E6374696F6E73000036
:1090E000A94890F82200012818BF7047002002F01C
:1090F00015B910B504464FF4E071A44800F0A4FC83
:10910000A34894F82010C180A249626AB2FBF1F230
:10911000028194F821200270A26AB2FBF1F1417041
:10912000002010BD9848D0F89C00002808BF704768
:10913000004700291CBF0020704705F033BB10B565
:10914000954A84B09069D2E90812CDE902128E4A9C
:109150000090907A8DF8000090480190904890F827
:1091600003C081884FEA1C230B4381784FEA0C6CC3
:109170004CEA014C4478007843EA11414CEA042C53
:1091800041EA14614CEA0000CDE90201D2F88C10EA
:10919000684688477E49487104B010BD7A49D1F8C5
:1091A0009810084710B5784CD4F890008047D4F850
:1091B0008800002808BF10BDBDE81040004710B56A
:1091C000714CD4F88400002818BF8047D4F894006C
:1091D000BDE8104000476E4902694A61808A0883F1
:1091E00000207047684991F82C10012918BF70477A
:1091F0000BF020BE654A0021664BC2F8C011C2F8D0
:10920000C411C2F8C811C2F8CC11C2F8D011C2F80A
:10921000D411C2F8D811C2F8DC11C2F8E0114268CA
:109220005B49B3FBF2F290F82D00488192B24CF604
:10923000CD405043800C887000207047062806D22D
:10924000584901EB4011F030C0B2FFF771BA56A196
:10925000E020FFF76DBA10B509F092FC4A4C94F883
:109260002C00012808BF09F09DFC94F82F0001286C
:1092700008BF09F0BFFC94F82200012818BF10BDF8
:109280000020BDE8104002F049B810B50DF0DEFB3B
:109290003D4890F82C00012818BF10BDBDE81040D3
:1092A0000DF02CBC2DE9F041384D00260446C5F8E0
:1092B000E461C5F8E861C5F8EC61C5F8F061C5F88E
:1092C000F461C5F8F861C5F8FC61C5F80062C5F83D
:1092D0000462C5F80862C5F80C62C5F81062C5F8EA
:1092E0001462C5F818624FF4C05105F50870C5F84E
:1092F0001C6200F0A9FB05F5C0572548C7F8286295
:10930000C7F82C62C681A169C5F8E411E169C5F806
:10931000EC1105F5F271C0220A73A8234B738E730A
:109320004FF0FE0C81F80FC00A744B748E7481F8F4
:1093300013C00A714B71184A8E7181F807C0D2E9C7
:109340000012C7E988120121C17021890161114A07
:109350006168B2FBF1F181810020BDE8F0810A492A
:1093600091F82F10012918BF70470BF0A3BD10B55D
:1093700004464821124800F067FB054894F8301075
:109380000171002010BD0000608A0020588D00206F
:10939000EC01002040420F0088BD010890BD01088B
:1093A00000020020B0BD0108756E6B6E6F776E20F5
:1093B00073797374656D206572726F7200000000BE
:1093C00088A700200048704794A9002070B5A0FB32
:1093D0000140B4F1805170F1000024BF002070BD45
:1093E000204600F02BFC05001CBF214600F00AFBC4
:1093F000284670BD70B516460D46041F002808BFEC
:1094000070BD002E1CBF05F10C00AFF300802B4691
:109410005868002818BFA04238BF0346F8D319681F
:10942000CA18A24218BF5C6003D122681C461144CE
:10943000196021680A19824218BF606004D142682D
:109440006260006808442060002E1CBF05F10C001B
:10945000AFF3008070BD10B5044600F060FB0168FA
:109460002046BDE810400122C4E70B3020F0070081
:1094700070472DE9F0410F460546041F00F04FFBF1
:109480000668F7B1384615B3FFF7EFFFB842054657
:109490003CBF0020BDE8F08106F10C00AFF3008076
:1094A0002268AA4238BF314615D3511B082931D34F
:1094B0006019002240F8041B31462560FFF79AFF2F
:1094C00028E02846FFF7C7FF0020BDE8F081BDE88F
:1094D000F04100F0B3BB4868002818BFA04238BF75
:1094E0000146F8D3131983421BD103681A449542ED
:1094F00017D8531B082B0AD343686219536023689B
:1095000000681844401B106025604A6002E0226039
:109510004068486006F10C00AFF30080201DBDE8F4
:10952000F08100223146281F00F047FB05000AD0D9
:109530002068211D021F284600F02AFA0022314629
:10954000201DFFF757FF06F10C00AFF300802846FF
:10955000BDE8F08153EA020C00F069802DE9F04B80
:109560004FF00006002B1FBFB3FA83F503FA05F492
:1095700024FA05F65E4012BF1643B2FA82F502FAEB
:1095800005F4C5F120051EBF22FA05FC44EA0C04CF
:10959000203556EA044C4FEA144418BF641C4FF0BF
:1095A00000084FF00009904271EB030C39D30029F9
:1095B00019BFB1FA81F701FA07F6B0FA80F700FA9D
:1095C00007F6C7F120071EBF20FA07FC46EA0C0683
:1095D0002037B6FBF4FCA7EB0507103F07F01F0B85
:1095E000CBF120060CFA0BFB2CFA06F644BFB3466F
:1095F0000026202FA4BF5E464FF0000B5BEA060C4E
:1096000008BF4FF0010B19EB0B09ABFB027C48EBD9
:109610000608C01B06FB02CC0BFB03CC71EB0C0154
:10962000C1E70B46024641464846BDE8F08B13B5FC
:109630004FF000004FF00001AFF30080BDE81C4088
:10964000704700000FB47CB50C0009AA009001D04F
:109650002044401E084B7B4469460190089800F066
:1096600056FB05461CB10020694600F063FB284606
:109670007CBC5DF814FB0000E506000070B50C46EC
:109680000546012A05D02878800600D5EA6900231E
:1096900002E0012305E05B1C934202D2E05C00285B
:1096A000F9D1A869E618C01AA861286A1844286286
:1096B0002846AFF3008004E0D5E9012114F8010B3E
:1096C0009047B442F8D32846AFF3008070BD000045
:1096D0002DE9F0410646002410687529314616A58B
:1096E00010D0AFF30080002802DA404213A507E053
:1096F00031688A0701D512A502E0490704D511A5F2
:10970000012401E0AFF3008000210A2206F12407C2
:1097100009E0B0FBF2FCB0FBF2F302FB1C003030BE
:1097200078541846491C0028F3D123462A4630466F
:10973000BDE8F04100F08CBA000000002D000000F0
:109740002B0000002000000070B504460D462146A5
:109750001068AFF300802188090502D50F4A7A44CA
:1097600002E00E4A7A440E32002104F1240305E09F
:1097700000F00F060009965D5E54491C0028F7D1E1
:1097800020780023000704D5702D02D009B10223F0
:1097900011322046BDE8704000F05ABA9C2A010000
:1097A0002DE9F0474FF0000A89460446C0F820A092
:1097B0002046E1688847002876D0252806D0D4E9DD
:1097C00001219047206A401C2062F1E7E1682046B1
:1097D00000258847C4F81CA006460027C4F818A036
:1097E0002A2E09D0304601F0F7FA38B304EB870887
:1097F000303EC8F8186019E059F8041B204604EB05
:1098000087029161E1688847012F064618D1E06917
:10981000002820DA25F020051DE0D8F8180000EB1C
:10982000800006EB40003038C8F818002046E16898
:109830008847064601F0D0FA0028EED1012F0AD061
:109840002E2E08D12046E16888477F1C0646022F4D
:1098500045F02005C4DBA069002803DA404245F04A
:109860000105A061E80701D025F01005B6B1A6F109
:109870004100192802D8203645F400654A46314691
:10988000204625604D46FEF7ABFC58B1012806D0B6
:10989000ED1D25F0070000F1080989E704E005F156
:1098A000040985E730468AE7206ABDE8F08740EA88
:1098B000010310B59B070FD1042A0DD310C808C9A6
:1098C000121F9C42F8D020BA19BA884201D901204F
:1098D00010BD4FF0FF3010BD1AB1D30703D0521C9A
:1098E00007E0002010BD10F8013B11F8014B1B1BD5
:1098F00007D110F8013B11F8014B1B1B01D1921E3F
:10990000F1D1184610BD032A40F2308010F0030C4C
:1099100000F0158011F8013BBCF1020F624498BFC2
:1099200011F801CB00F8013B38BF11F8013BA2F15F
:10993000040298BF00F801CB38BF00F8013B11F0DA
:10994000030300F02580083AC0F0088051F8043B7A
:10995000083A51F804CBA0E80810F5E7121D5CBFE7
:1099600051F8043B40F8043BAFF30080D20724BF1A
:1099700011F8013B11F801CB48BF11F8012B24BFAE
:1099800000F8013B00F801CB48BF00F8012B7047FD
:1099900010B5203AC0F00B80B1E81850203AA0E88A
:1099A0001850B1E81850A0E81850BFF4F5AF5FEABE
:1099B000027C24BFB1E81850A0E8185044BF18C971
:1099C00018C0BDE810405FEA827C24BF51F8043B18
:1099D00040F8043B08BF7047D20728BF31F8023B6C
:1099E00048BF11F8012B28BF20F8023B48BF00F800
:1099F000012B704702F0FF0343EA032242EA0242CE
:109A000000F002B84FF000020429C0F0128010F0FC
:109A1000030C00F01B80CCF1040CBCF1020F18BF4A
:109A200000F8012BA8BF20F8022BA1EB0C0100F0DD
:109A30000DB85FEAC17C24BF00F8012B00F8012BB0
:109A400048BF00F8012B70474FF0000200B51346E5
:109A500094469646203922BFA0E80C50A0E80C504E
:109A6000B1F12001BFF4F7AF090728BFA0E80C50FF
:109A700048BF0CC05DF804EB890028BF40F8042BF8
:109A800008BF704748BF20F8022B11F0804F18BF65
:109A900000F8012B704700004FF0013C50F8042BF8
:109AA00051F8043B9A4221D1A2EB0C03934313EAF1
:109AB000CC1317D150F8042B51F8043B9A4215D11E
:109AC000A2EB0C03934313EACC130BD150F8042BF5
:109AD00051F8043B9A4209D1A2EB0C03934313EAD9
:109AE000CC13DBD04FF00000704700BFD01A01BA92
:109AF000B1FA81F101F0180122FA01F0CB40C1F175
:109B00002001DBB2C0B2C01A2CFA01F3D11A914382
:109B100011EAC311E6D1704770477047704710B51E
:109B2000FFF750FC083010BD7047704738B5044649
:109B30000A4600206946AFF30080002808BF38BD00
:109B400002460099204600F021F9012038BD01208D
:109B500000F03BB9F8B5AFF30080054600200C4695
:109B6000102000BF0646A819A0420DD9324669460A
:109B70000020AFF30080070008BF00F026F900982E
:109B8000A04218BF0546C419FFF7C9FF0560074684
:109B9000F01D20F007004619284600F0EEF8B44208
:109BA00008BFF8BDA21B31463868BDE8F84000F098
:109BB000EDB80B3020F0070070472DE9F041174653
:109BC0000E460446FFF7F5FFA042054633D9002FA5
:109BD0001CBF06F10C00AFF3008030467468F4B18E
:109BE0002168A94217D305F1080291423CBF616880
:109BF000416007D3626861194A602268521B0A609B
:109C000041602560002F1CBF06F10C00AFF30080FF
:109C1000201DBDE8F08120466468002CE0D1294673
:109C20003046FFF783FF0028D7D1002F1CBF06F175
:109C30000C00AFF300800020BDE8F08110B50446B1
:109C4000FFF76DFF01682046BDE810400122B4E730
:109C50002DE9F0470D4699469246044600F1240846
:109C60000168880604D5E06921F01001216000E058
:109C70000120A84201DD471B00E00027A1697A19F5
:109C800002EB0900081AA0612078C00602D4204621
:109C9000AFF30080002608E0D4E901211AF806009D
:109CA0009047206A401C761C20624E45F4DB2078E9
:109CB000C0060AD52046AFF3008006E0D4E90121B2
:109CC00030209047206A401C2062381EA7F101070F
:109CD000F4DC07E0D4E9012118F805009047206A78
:109CE000401C2062281EA5F10105F3DC2046AFF3DD
:109CF00000802078000602D50220BDE8F087012010
:109D0000FBE7000001694A1C02610878704700B552
:109D10008FB0CDE901310021059105497944CDE9A4
:109D2000031011466846FFF73BFD0FB000BD000071
:109D3000E5FFFFFF0A6802F8010B0A607047D1E9EE
:109D400000239A4202D2531C0B601070704710B56A
:109D5000436913B1AFF3008001E0FFF78FFC0120EE
:109D600010BD127800F124010A7000224A7001220D
:109D7000EDE711684FF0FF32E9E700210160C0E92B
:109D800001100C3001F02FB81020704730B4044699
:109D90008C464368002B18BF634538BF1846F8D37C
:109DA00003681844604507D0C81C20F0070000F184
:109DB000040CACEB0100121A2146CCF8002030BC98
:109DC00000220CF10400FFF715BB10B500F034F8C9
:109DD000BDE8104000F02BB87546FFF7F3FAAE4629
:109DE00005006946534620F00700854618B020B5A7
:109DF000FEF764FBBDE820404FF000064FF000077F
:109E00004FF000084FF0000B21F00701AC46ACE822
:109E1000C009ACE8C009ACE8C009ACE8C0098D468F
:109E200070470446AFF300802046FEF767FA00282B
:109E300001D000F029B8704710B5012805D00021E5
:109E400003A000F028F8012010BD09A1F8E70000E8
:109E500053494752544D454D3A204F7574206F6613
:109E60002068656170206D656D6F7279000000007B
:109E70003A2048656170206D656D6F727920636F5F
:109E8000727275707465640001491820ABBEFEE7FC
:109E900026000200704770B505460C460A2000E017
:109EA0006D1C00F011F835B128780028F8D102E0D7
:109EB000641C00F009F814B120780028F8D1BDE83E
:109EC00070400A20AFF3008008B569468DF80000A5
:109ED0000320ABBE08BD000000000000F0B589B053
:109EE000002600960196029603961A481A4D446879
:109EF000E868A76A10F0100F1CBF30460EF0C0FAD9
:109F0000384607F0CEFC012808D1384607F06AFD34
:109F1000012084F82E0030460EF0B2FA284604AA3A
:109F2000002100F0C8F9049800909DF81A008DF8FF
:109F30000600DDF81B000290DDF81F000390694663
:109F4000384607F056FD616800291CBFA0688847A5
:109F500009B0F0BD88A800200064004000200EF089
:109F60008FBA00200EF0C8BA70B58AB00120002167
:109F7000009101910291039119491A4D8C68E96889
:109F8000A66A11F0100F18BF0EF07AFA304607F0EB
:109F900088FC012807D1304607F024FD012084F811
:109FA0002E000EF06DFA284604AA002100F083F975
:109FB000049800909DF81A008DF80600DDF81B004B
:109FC0000290DDF81F0003906946304607F011FD4E
:109FD000616800291CBFA06888470AB070BD0000F6
:109FE00088A800200068004001200EF049BA012036
:109FF0000EF082BA10B4082304224FF0100CB1F511
:10A00000007F40D021DC202902BF036110BC7047D3
:10A0100010DC012901BF1D49816010BC7047042973
:10A0200002BFC36010BC7047082908BFC0F80CC04D
:10A0300010BC7047402902BFC0F810C010BC704768
:10A04000B1F5807F1FD010BC70470024B1F5004FE0
:10A0500008D00BDCB1F5806F15D0B1F5006F1CBFD7
:10A0600010BC70478461426010BC7047B1F5803FFE
:10A0700002BF436010BC7047B1F5003F08BFC0F895
:10A0800004C010BC7047426010BC70470101010061
:10A09000A0F1804110B5B1F5C8414FF0010109D0E0
:10A0A000880600F00DFDBDE8104000214FF08060F3
:10A0B00000F006BD4FF0007000F002FDBDE810405A
:10A0C00000214FF0007000F0FBBC000030B4817A3A
:10A0D000354B012202FA01F11A6842F001021A60BE
:10A0E000DFF8C8C0DCF800208A43CCF80020047BED
:10A0F0002F4AD4B914688C4314604488C58844EA54
:10A100000544857AED0005F1804505F5C045C5F8A3
:10A1100040460488858844EA0544857AED0005F1C7
:10A12000804505F5C045C5F84446047B012C18D18F
:10A1300014680C431460847A0268E40004F18044DB
:10A1400004F5C0444FEA3242C4F84026847A42689B
:10A15000E40004F1804404F5C0444FEA3242C4F8FC
:10A160004426C47A134A002C14680CBF8C430C4359
:10A1700014600489104A14B914688C43146004896B
:10A18000012C02D114680C431460407B012804D1D7
:10A19000DCF800000843CCF80000186820F001004B
:10A1A000186030BC70470000006600401C6600402C
:10A1B0000C6600400466004014660040002A4269B4
:10A1C00014BF114322EA0101416170470268002374
:10A1D00022F002020260026842F0010202604FF6C1
:10A1E000FF7200BFD0F804C01CF0010F03D19342EE
:10A1F00018BF5B1CF6D1436813F0010F59D08B795F
:10A20000012B03680CBF43F0800323F0800303603D
:10A21000CB79012B03680CBF43F0400323F04003CC
:10A2200003600B7A012B03680CBF43F0200323F07B
:10A23000200303604B7A012B03680CBF43F010032B
:10A2400023F0100303608B7A012B03680CBF43F0EB
:10A25000080323F008030360CB7A012B03680CBFCB
:10A2600043F0040323F0040303608B7891F803C0E8
:10A270009B0743EA0C6391F804C043EA0C4391F84E
:10A2800005C0098843EA0C53491E1943C16101689E
:10A2900021F0010101600021436813F0010F1CBF90
:10A2A0009142491CF8D1406810F0010F04BF012011
:10A2B00070470020704700EB0113D3F8B0C11CF0C9
:10A2C000040C82F808C0D3F8B0C107BF4FEA5C5C49
:10A2D000C2F800C04FEADC0CC2F804C0D3F8B0C129
:10A2E0000CF0020C82F809C0D3F8B4C10CF00F0CCA
:10A2F00082F80AC0D3F8B4C14FEA1C2C82F813C00C
:10A30000D3F8B8C182F80BC0D3F8B8C14FEA1C2CFF
:10A3100082F80CC0D3F8B8C14FEA1C4C82F80DC0CB
:10A32000D3F8B8C14FEA1C6C82F80EC0D3F8BCC198
:10A3300082F80FC0D3F8BCC14FEA1C2C82F810C0C1
:10A34000D3F8BCC14FEA1C4C82F811C0D3F8BC3121
:10A350001B0E937421B1016941F020010161704726
:10A36000C16841F02001C1607047000009490A68D6
:10A3700042F001020A600A6822F4877222F47852DD
:10A380000A600A6842EA00200860086820F00100BC
:10A39000086070470066004000218171C171017240
:10A3A00041728172C1728170C170032101710221F9
:10A3B000417101210180704710B40246002093686A
:10A3C00013F0806F3FD000BF02EB0012D2F8803153
:10A3D00003F00103C2F880310B7A002B42D0D2F88F
:10A3E00080C14C684CEA030391F809C04CEAC40CE4
:10A3F00043EA0C03C2F880318B7A03F00F038B72AF
:10A40000D2F8843123F00F03C2F88431D2F88431BA
:10A4100091F80AC043EA0C03C2F88431CB7AD1F830
:10A420000CC043EA0C23C2F88831CB7B096943EAAC
:10A430000121C2F88C11D2F8801141F00101C2F85B
:10A44000801110BC7047906810F0006F18BF012099
:10A45000BAD1906810F0805F14BF02200420B3D1FD
:10A4600010BC7047D2F8803191F809C043EA0C0360
:10A47000B1F800C043EA4C53BCE700B5002200F03D
:10A4800007F8C04380B2010241EA102080B200BD4B
:10A4900005E000BF30F8023B891E5BBA1A4401296F
:10A4A000F8DC11B1007802EB002290B200EB124010
:10A4B00000EB104080B27047084400EB104080B2BF
:10A4C000704700002DE9F04F42484FF0000B93B069
:10A4D00046685F4649F21A08357C4FF4407A4FF0DF
:10A4E0000049706900EB05100168C1F30D410C1FB4
:10A4F000016811EA080F18BF012732D100683AEA53
:10A50000000018BF02272CD13348001988BF032749
:10A5100027D844F0004006F0BBFD44F00041009015
:10A52000002808BF04271CD00820726900EB051022
:10A53000E31C105820F003020098001D9C0805D071
:10A5400052F8043B40F8043B641EF9D123480268EA
:10A5500012B10098001D9047009807F017F84FF0CF
:10A56000010B706900EB0510C0F8009077B1022F65
:10A5700008BF4FF0FF343B4619A2402102A80094C7
:10A58000FFF760F802A9F02007F096FFF07A6D1C43
:10A59000854208BF00253574706900EB051000681E
:10A5A00010F0004F9DD0194C6069194D10F0800FCC
:10A5B00006D065610020A06016A1F02007F07CFFA6
:10A5C0006561BBF1000F18BF06F032FD13B0BDE8A6
:10A5D000F08F00005C02002016FAFFFF58020020F6
:10A5E0004554485F49525148616E646C6572282930
:10A5F0003A206572726F7220256420666F72206641
:10A6000072616D655B25645D000000000090024092
:10A61000C08001004554485F49525148616E646CE6
:10A62000657228293A206572726F72203500000029
:10A6300001490860704700000C3C024030B50546F7
:10A64000002451B1012908BF4FF4807405D00229BC
:10A650000CBF4FF400744FF4407400F079F80928EF
:10A6600018BF30BD0F4B186820F440701860186890
:10A6700020431860186820F0F8001860186845F04A
:10A68000020108431860186840F48030186000F038
:10A690005FF8196821F002011960196821F0F801CA
:10A6A000196030BD103C024030B50C46054600F044
:10A6B0004FF8092818BF30BD0A4B186820F44070C5
:10A6C0001860186840F480701860186840F0010045
:10A6D00018602C8000F03CF8196821F00101196025
:10A6E00030BD0000103C024030B50C46054600F07D
:10A6F0002FF8092818BF30BD0A4B186820F44070A5
:10A700001860186840F400701860186840F0010084
:10A7100018602C6000F01CF8196821F00101196024
:10A7200030BD0000103C02400548006810F0004FAA
:10A7300008BF70470349044801600449016070473D
:10A74000103C024023016745043C0240AB89EFCD39
:10A7500081B009208DF8000001462648026812F4F5
:10A76000803F18BF012116D1026812F0100F18BFE8
:10A77000062110D1026812F4807F18BF02210AD18D
:10A78000026812F0EF0F18BF072104D1026812F01F
:10A79000020F18BF08218DF800109DF80010012944
:10A7A00023D10268092112F4803F18BF012116D17C
:10A7B000026812F0100F18BF062110D1026812F4BF
:10A7C000807F18BF02210AD1026812F0EF0F18BF74
:10A7D000072104D1026812F0020F18BF08218DF87A
:10A7E00000109DF800100129DBD09DF8000001B099
:10A7F000704700000C3C02402DE9F00100220125C9
:10A800005FF00306D1F800C005FA02F30CEA030C6E
:10A810009C4533D107684FEA420C06FA0CF4A74373
:10A8200007600F79D0F8008007FA0CF747EA0807AD
:10A8300007600F79012F18BF022F14D18768A74333
:10A8400087604F79D0F8088007FA0CF747EA0807C5
:10A850008760476827EA0303436043688F7997401E
:10A86000BFB23B434360C368A343C360CB7903FAE1
:10A870000CF3D0F80CC043EA0C03C360521C102A3E
:10A88000C0D3BDE8F00170474B07DB0E9A40C90802
:10A8900000EB8100016A4FF00F0C0CFA03F39943AF
:10A8A0000162016A11430162704702460020126989
:10A8B0000A4218BF012070470246002052690A422E
:10A8C00018BF012070474269514041617047002A1A
:10A8D00014BF0183418370470029018814BF41F4EC
:10A8E000806121F4806101807047838A0022008B9F
:10A8F00043EA004020F07F4031EA000008BF012217
:10A9000010467047C943818270470029018814BFEF
:10A9100041F0010121F00101018070470029018807
:10A9200014BF41F4807121F48071018070470029C7
:10A93000018814BF41F4007121F400710180704757
:10A9400082B00246002000920A0F21F07F4101925E
:10A9500008BF090C009A14BF143218320092126812
:10A960000A4218BF012002B07047818A008B41EA79
:10A97000004020F07F40704770B50446808884B066
:10A980000D4620F03F06684600F0B2F829490298CB
:10A99000B0FBF1F189B246EA0102A280228822F0DE
:10A9A00001022280244B2A689A421DD85200B0FB33
:10A9B000F2F080B2042838BF0420491C2184A0830F
:10A9C000208840F0010020802088A9886A8920F032
:10A9D0000A0020F48060114308432080A889298957
:10A9E0000843208104B070BDEB88A3F53F4CBCF157
:10A9F000FF0C19D002EBC20303EB0212B0FBF2F022
:10AA000080B240F480400205120D08BF40F0010002
:10AA100040F400404FF4967251434FF47A72B1FB08
:10AA2000F2F1491C2184CAE702EB4202B0FBF2F0CA
:10AA300080B2E8E740420F00A0860100002A14BF60
:10AA400041F0010101F0FE0101827047018270476F
:10AA5000034940F0FD7040F08060086070470000DE
:10AA60000CED00E021F07F0121F060410843014935
:10AA70000860704708ED00E0044A0029116814BF1F
:10AA8000084321EA0000106070470000303802409F
:10AA9000044A0029116814BF084321EA000010602D
:10AAA0007047000010380240044A0029116814BFA2
:10AAB000084321EA0000106070470000403802405F
:10AAC000044A0029116814BF084321EA00001060FD
:10AAD0007047000020380240044A0029116814BF62
:10AAE000084321EA0000106070470000443802402B
:10AAF000254A30B41168254B11F00C0106D0244CC6
:10AB0000042908BF046002D008291ED00360116820
:10AB10000F2303EA11111F4B595CD0F800C02CFA27
:10AB200001F14160D2F800C0072404EA9C2C13F81C
:10AB30000CC021FA0CFCC0F808C0126804EA5232BA
:10AB40009A5CD140C16030BC70471349D1F800C055
:10AB5000CCF38055D1F800C0002D0CF03F0C14BF91
:10AB6000B4FBFCF3B3FBFCF3D1F800C00968CCF3F1
:10AB7000881C03FB0CF3C1F30141491C4900B3FBE2
:10AB8000F1F10160C3E70000083802400024F4003E
:10AB900080F0FA0234030020043802400149C1F871
:10ABA000DC0070470000274282B000222949019250
:10ABB0000092086840F480200860086840F4803003
:10ABC0000860086800F4003000900198401C019073
:10ABD000009818B90198B0F5A04FF2D1086810F4A8
:10ABE000003F02BF009202B07047012000901A4857
:10ABF000026842F0805202601848026842F4404203
:10AC00000260174802680260026842F40042026073
:10AC1000026842F4A0520260031F124A1A600A68D6
:10AC200042F080720A600A6812F0007FFBD00E4A80
:10AC300040F205711160016821F0030101600168B3
:10AC400041F002010160016801F00C010829FAD10C
:10AC500002B07047003802404038024000700040A7
:10AC60000838024032544007003C0240010241EAE9
:10AC7000102080B270470000DFF86CC030B4DCF800
:10AC800000001A4B10F00C01194806D0194C042989
:10AC900008BF046002D008290CD00360DCF8001063
:10ACA000154AC1F30311515C026822FA01F10160F7
:10ACB00030BC704711490A68C2F380550A68002DFC
:10ACC00002F03F0214BFB4FBF2F2B3FBF2F20B68E6
:10ACD0000968C3F388135A43C1F30141491C490071
:10ACE000B2FBF1F10160D9E7083802400024F4001A
:10ACF000C001002080F0FA0258BC0108043802406C
:10AD0000134810B5016841F47001016011480168F1
:10AD100041F001010160104A00211160026822F433
:10AD2000102222F080720260031D0C4A1A60026831
:10AD300022F4802202600A48016007F015FCFFF748
:10AD400033FF08494FF000600860FFF795FF10BD22
:10AD500088ED00E00038024008380240103000243E
:10AD60000C38024008ED00E000210160818070474E
:10AD7000C9B241EA012141EA014101608180704785
:10AD8000C9B241EA012141EA0141016041607047D5
:10AD900012F0004F1FBF22F00042D21D22F0070325
:10ADA000102202BFD21C22F003030C221BB103EBC2
:10ADB000020C8C4501D90120704702440144836094
:10ADC000C0E90021C91AD01888429CBF1060024611
:10ADD000F9D900201060704730380A2801D20120CC
:10ADE00070470020704708F0E5BE00002DE9F047ED
:10ADF0000027DFF8909000280CDA2349D9F80020CA
:10AE000020F000400968024401EB4101B2EB910FD0
:10AE100018D8012705460F3020F003060FB9FEF7BA
:10AE2000CEF91A4CD4E90002011B891AB1420CD2A6
:10AE3000044600680028F5D127B9FEF7B3F90020D1
:10AE4000FEF7FCF90020BDE8F08772B11019216807
:10AE50000160206000F10808C0F80460D9F8001013
:10AE60003144C9F8001027B105E004F10808666014
:10AE7000F4E7FEF797F9A8F800500020A8F80200C0
:10AE80004046E0E784020020FC010020788F00208B
:10AE90002DE9F0470746894690460026284C294D63
:10AEA0000BE0207838B10422394604F10A0008F09A
:10AEB0008BF8012835D00E34761C28888642F0DBCA
:10AEC0002149384607F0A0FFD0B91F4804220021CD
:10AED000001D08F09FF810B10020BDE8F0870026A3
:10AEE000174C0AE0207830B106224946201D08F0B0
:10AEF0006BF801281AD00E34761C28888642F1DBC4
:10AF0000404600F027F80028E7D00D49C0EBC0000C
:10AF100001EB40040E3C0422394604F10A0008F01B
:10AF200063F806224946201D08F05EF807480088AD
:10AF3000E07007480078A070032020700120CCE763
:10AF4000588D0020F20100201C8D0020F40100200B
:10AF5000EC010020F0B50546012116480E46164AC0
:10AF600003E0037853B10E30491C13889942F8DD91
:10AF70001248104B0488002001210DE00670457036
:10AF80000846F0BD5F78012F04D1DF78A74201D8D1
:10AF90003C4608460E33491C1788B942F2DD0028AA
:10AFA000EFD0044AC0EBC00102EB410101F80E6D85
:10AFB0004D70F0BD588D0020F2010020F4010020FA
:10AFC0002DE9F04781460F4600253D4C3D4E0BE0F4
:10AFD000207838B10422494604F10A0007F0F4FF52
:10AFE000012815D00E346D1C30888542F0DB3649BF
:10AFF000484607F009FFDFF8C880334D01284FF0BD
:10B00000040209D00021281D08F004F8E8BB1DE067
:10B01000207803284ED350E04946281D07F0D4FF7E
:10B02000012806D104220021281D07F0F3FF00B9F2
:10B0300000273846FFF78EFF06003CD0C6EBC6015E
:10B0400008EB41040E3C042249461DE000271C4C3D
:10B050000BE0207838B10422291D04F10A0007F022
:10B06000B3FF0128D4D00E347F1C30888742F0DB38
:10B070000020FFF76FFF06001DD0C6EBC60108EBEE
:10B0800041040E3C0422291D00E013E004F10A00F3
:10B0900007F0AAFF06220D49201D07F0A5FF0C4866
:10B0A0000078A0700B480078E070304600F036F968
:10B0B000022020700020BDE8F0872046FBE700005A
:10B0C000588D0020F20100201C8D002074C1010861
:10B0D000EC010020ED01002070B50D46064604226B
:10B0E0000E4907F071FF012814D0304607F09EFE8C
:10B0F00001280FD029463046FFF762FF040008D030
:10B100000422314604F10A0007F05EFF012802D054
:10B1100002E0002070BD6570012070BD70C10108A3
:10B120002DE9F0470026DFF8D480DFF8D490B2464E
:10B13000344F5DE0B9F80050691C89B2A9F80010DD
:10B140003A88914201D3A9F800A02F49C5EBC50068
:10B1500001EB40042078C8B3E07820B1401E10F025
:10B16000FF00E07043D1607801280AD1042227490A
:10B1700004F10A0007F028FF012806D060780128B2
:10B1800018D010F0FF0F02D031E084F801A00422A3
:10B190001F4904F10A0007F017FF012817D0207893
:10B1A000032818D0A07800B3401E10F0FF00A07054
:10B1B0001BD012E02078032817D0A078A8B1401E39
:10B1C00010F0FF00A07010D0022005E00FE0114841
:10B1D0000088E0700BE00420207098F80000E07018
:10B1E000681CBDE8F04700F099B884F800A0761C10
:10B1F000388886429EDBBDE8F0870000ED01002024
:10B20000DC010020F2010020588D0020208D00205C
:10B2100070C10108F40100202DE9F0410646002527
:10B22000134C00F10E08134F0DE0207848B10128AF
:10B2300007D0042204F10A01404607F0C5FE0128A8
:10B2400006D00E346D1C38888542EEDBBDE8F081F7
:10B25000062206F10801201D07F0C6FE06480088F8
:10B26000E07006480078A07003202070EEE7000030
:10B27000588D0020F2010020F4010020EC01002094
:10B280002DE9F04105460E462A20FFF7AFFD0446A2
:10B2900005F1080106220F46001D07F0A5FE062253
:10B2A0001C4904F10A0007F09FFE4FF4C1602082A0
:10B2B0004FF4807060820820A0820620A0750420D0
:10B2C000E075268304F1240006223946064607F07D
:10B2D0008BFE05F10E0104F12A000422054607F059
:10B2E00083FE06220B4904F11A0007F07DFE0422BA
:10B2F000094904F1200007F077FE01223146284673
:10B30000FFF7C6FD2046FDF749FF2046BDE8F041A6
:10B3100003F06ABC000200201C8D002070B50546B9
:10B320002A20FFF763FD044606222349001D07F08B
:10B330005BFE0622214904F10A0007F055FE4FF496
:10B34000C16020824FF4807161820820A0820620B3
:10B35000A0750420E07521830622184904F11A0023
:10B3600007F042FE0422164904F1200007F03CFEDB
:10B370004FF0060265B1002104F1240007F042FEFF
:10B380001049C5EBC50001EB40010422091F06E08E
:10B39000094904F1240007F027FE0949042204F1B9
:10B3A0002A0007F021FE2046FDF7F8FE2046BDE802
:10B3B000704003F019BC000074C1010800020020B5
:10B3C0001C8D0020588D002010B5002003F05AFD80
:10B3D000BDE81040012003F055BD0000164841783B
:10B3E000012908BF704730B589B001214170134869
:10B3F0000DF10C0EF0E8031290E839108EE83910C8
:10B40000CDE9001207208DF8020008208DF8030016
:10B410000B4802906946002003F066FD09208DF874
:10B4200002000A208DF803000648029069460120B8
:10B4300003F05AFD09B030BD500000201CB70108D0
:10B44000898D0108998D01080648016891F820103E
:10B45000002908BF7047406803224168022008F0B5
:10B4600013BE0000C8830020C0F3033003490C283A
:10B470008CBF086851F82000704700005801002078
:10B48000002804BF4FF0FF30704752EA030108BFA5
:10B4900042F2222222F07F42110A120642F00202F8
:10B4A000C0E90021034981606FF07F41C160002045
:10B4B000704700000A000163002804BF4FF0FF300E
:10B4C000704710B5383004A1FEF7E6FA002818BF1F
:10B4D0004FF0FF3010BD0000455854000EF098BAF0
:10B4E0000EF00EBB0EF034BB0EF082BB10B50400A4
:10B4F00008BF1D4C40221D491D480EF003FA1B4891
:10B500001C4990F9002091F900309A4209D190F934
:10B51000012091F901309A4203D1897880788142E3
:10B520000AD014494022A1F108000EF027FA402267
:10B530000E490F480EF0E6F920790EF025F910B10A
:10B54000206870B180470EF017FC10B1206840B140
:10B5500080470EF0A5FB10B1206810B18047002095
:10B5600010BD4FF0FF3010BDE8BA01080C85002077
:10B57000F0BA0108F8BA01080EF038B90EF04CB96B
:10B580000EF068B90020704700487047F8BA01080B
:10B590000EF07ABC0EF094BC0EF0AEBC0EF0D0BC37
:10B5A0000EF048BD0EF062BD0EF084BD0EF09EBDE3
:10B5B00010B540220D490E480EF0A4F90B480D4974
:10B5C00090F9002091F900309A420BD190F90120B6
:10B5D00091F901309A4205D189788078814204BF7F
:10B5E000002010BD4FF0FF3010BD00000C85002082
:10B5F000F0BA0108F8BA010810B540220249034820
:10B600000EF080F9004810BD0C850020F0BA01084A
:10B610000EF0F6B90EF038B9002804BF6FF0010043
:10B6200070470021017008467047002812BF0029AA
:10B630006FF00100704791E80E1080E80E100020B6
:10B64000704710B50A464FF0FF3458B3017801290E
:10B6500007D002290FD0032904BF0178032913D092
:10B6600023E00178012920D1D0E90110D0B102F006
:10B67000A0FF044619E00178022916D1D0E9011093
:10B6800080B102F084FF0CE0D0F80CC04168806803
:10B6900041B1BCF1000F06D013460246604602F0ED
:10B6A0005FFF044601E000248847204610BD0028C3
:10B6B00018BF0078704710B500F0DCFC01231022A1
:10B6C000042100F0E1FC0021017010BD002804BF3E
:10B6D0006FF0010070474FF0030C80F800C0C360AA
:10B6E000C0E9011200207047002804BF6FF001007C
:10B6F000704701230370C0E9011200207047002841
:10B7000004BF6FF00100704702230370C0E901120B
:10B710000020704702480068002818BF00487047A2
:10B72000400100202DE9F843264C05460F462068CD
:10B73000002841D100F0CEF923490091002D14BF1B
:10B7400001210021214B22A200F084F928786E7893
:10B75000DFF8A480022803D1FF2E18BF656008D14E
:10B7600000F0B8F9194B25A20421CDF8008000F0B3
:10B770007DF9A7602675002E04BF0020206112D03D
:10B78000012E08BF4FF4004019D0022E08BF4FF41D
:10B79000003014D000F09EF90C4B22A20421CDF809
:10B7A000008000F063F929480090294B294A2A4972
:10B7B0002A4802F0BFFA20600248BDE8F883206101
:10B7C000F1E700004001002050B90108C0BA0108AB
:10B7D000656F5F61726D656E765F496E69746961F0
:10B7E0006C69736528293A204E554C4C206D6F6466
:10B7F000696E666F0000000070B90108735F656FC5
:10B800005F61726D656E765F7072657061726528DA
:10B81000293A2077726F6E67206D6F64696E666F6C
:10B8200000000000735F656F5F61726D656E765F2B
:10B830007072657061726528293A20756E73757033
:10B84000706F727465642070726F6300A56D01087B
:10B85000B56D0108356E0108956D0108A96E0108E6
:10B860000048704704B70108002818BF00687047F7
:10B8700050F8040C7047002818BF00897047002852
:10B8800008BF70470188002904BF00207047428824
:10B89000C168C08802FB0010704728B10188008988
:10B8A00081421CBF00207047012070472DE9FF4FE7
:10B8B00081B091460E46054600274FF00108DDF89D
:10B8C00038B000F0D7FB01232022042100F0DCFB7C
:10B8D0000021018041800446818000F0FBF8DFF800
:10B8E000ACA0CDF800A0002D14BF01210021284BF1
:10B8F00028A200F0AFF800F0EDF8CDF800A0002E7F
:10B9000014BF01210021224B29A200F0A3F8E580F9
:10B9100065812681C4F810900498C4E9050B0F983E
:10B92000E061012D13D0022D08BF4FF002080ED0A8
:10B93000042D9CBF4FF00408404607D9E81DC008FD
:10B940004FF6FF714FF0080801EAC000608100F077
:10B9500091FB33462A46414600F096FB8046E06064
:10B96000002E0ED907FB0580B9F1000F02D0049913
:10B97000C84702E0E188FEF745F8781C87B2B74275
:10B98000F0D305B02046BDE8F08F000050B90108A3
:10B990002CB90108656F5F64657175655F4E6577E9
:10B9A00028293A2030206974656D5F73697A6500D3
:10B9B000656F5F64657175655F4E657728293A200C
:10B9C000302063617061636974790000002808BFEA
:10B9D000704710B504460088002808BF10BD618874
:10B9E000E288E06801FB0200E169002918BF88478E
:10B9F00060882189401CB0FBF1F201FB12006080DD
:10BA00002088401E208010BD002814BF00297047E8
:10BA100010B5044600892288904208BF10BDA38853
:10BA2000E288E06803FB0200A3690BB1984701E0DC
:10BA3000FDF769FFA0882189401CB0FBF1F201FBF2
:10BA40001200A0802088401C208010BD002818BF54
:10BA500000887047002918BF704708B50421DDF839
:10BA600008C0CDF800C000F001F808BD70B582B084
:10BA70000020069ECDE9000314460D4602F0CEFBE1
:10BA800002F0D4FB00280CBF022002F0B9FC8DF8B4
:10BA90000000DFF82CC028462146DCF800C06A46CA
:10BAA0003346BCF1000F02D0E04702B070BD032D59
:10BAB0009CBF02B070BD02F0B1FB02F0C3FBFEE719
:10BAC0007C000020024800EBC100001D7047000010
:10BAD0007C000020004870477C00002008B50093DF
:10BAE00013460A460021FFF7C1FF08BD002808BF22
:10BAF00002480349006808600846704748B90108D1
:10BB00007C000020002804BF6FF00100704770B572
:10BB1000044640680D4680B1114602F0DBFA002869
:10BB20001CBF6FF0020070BD2068FFF7A4FE2880E4
:10BB3000606802F0C1FA002070BD2068FFF79BFE2C
:10BB40002880F8E7002812BF00296FF00100704735
:10BB500070B5044640680D4688B1114602F0BAFA45
:10BB600000281CBF6FF0020070BD2068FFF787FE41
:10BB70002860606802F0A0FA286838B104E0206804
:10BB8000FFF77DFE286008B1002070BD6FF0040053
:10BB900070BD00002DE9FF4F83B09B46DDE9119891
:10BBA0000E460746DDF840A000F064FA01230822A3
:10BBB000042100F069FA0446FFF78CFF114D00954F
:10BBC000002F14BF012100210F4B10A2FFF742FFED
:10BBD000FFF780FF0095002E14BF012100210A4BC2
:10BBE00011A2FFF737FFCDE900A95B463146384681
:10BBF000059AFFF75BFEC4E9000807B02046BDE8E0
:10BC0000F08F000050B9010834B90108656F5F6614
:10BC100069666F5F4E657728293A20302069746520
:10BC20006D5F73697A650000656F5F6669666F5F57
:10BC30004E657728293A203020636170616369740A
:10BC400079000000002804BF6FF00100704770B554
:10BC5000044640680D4648B1114602F03BFA002800
:10BC600018BF6FF002050FD0284670BD2068FFF79F
:10BC700014FE002818BF6FF00505F5D1294620688D
:10BC8000FFF7C2FE0025EFE72068FFF706FE002859
:10BC900018BF6FF0050503D0606802F00DFAE3E706
:10BCA00029462068FFF7B0FE0025F5E7002804BF0D
:10BCB0006FF00100704710B50446406870B102F0A3
:10BCC00009FA00281CBF6FF0020010BD2068FFF7C2
:10BCD0007DFE606802F0F0F9002010BD2068FFF7DB
:10BCE00075FEF9E770B50D46040012D06068A0B18A
:10BCF000114602F0EFF900281CBF6FF0020070BD82
:10BD00002068FFF7A3FE2880606802F0D5F90020C4
:10BD100070BD00200880801E70BD2068FFF796FE71
:10BD20002880F4E7002814BF0029704770B5054645
:10BD300000684FF00006020008BF70BD0B4691423C
:10BD40000DD1002808BF70BD09B3024688420CD14E
:10BD50005068002814BF06603046286017E0002AAB
:10BD60001CBF5268002AE9D170BD68681A46884233
:10BD700007D100281DBF0068002846603046686073
:10BD800005E0086852684260D1E900021060A889A5
:10BD90000C4604288CBFA06804F10800E96900295A
:10BDA00018BF88476889A0F57F41FF390ED0286AFF
:10BDB000C4E90060002818BF04602C622889401E76
:10BDC0000004000C288108BF6E6070BDA88904289B
:10BDD00004D900F04FF9A16800F00CF92660666004
:10BDE000A66000F047F9214600F004F9E6E770B5D7
:10BDF00005000E4612BF002E002070BD2C6874B1E5
:10BE0000AA89042A8CBFA06804F108003146FDF716
:10BE10004EFD00281EBF002C6468002CF0D1204687
:10BE200070BD28B14189008981421CBF0020704744
:10BE3000012070472DE9FF4F81B00E46DDE90EA9C4
:10BE40000546002700F016F901232422042100F002
:10BE50001BF9B846C0F80080C0F804800446A0F87A
:10BE60000880FFF737FEDFF8E4B0CDF800B0002D12
:10BE700014BF01210021364B36A2FFF7EBFDFFF77F
:10BE800029FECDF800B0002E14BF01210021304B57
:10BE900037A2FFF7DFFD6681A58103982061049832
:10BEA000C4F81C90C4E9050AA6F57F40FF381BD0F2
:10BEB000002E2CD900F0DEF801230C22042100F022
:10BEC000E3F8A1890546042929D900F0D3F8A2890D
:10BED0000123042100F0D8F8A8602269002A18BFC5
:10BEE000616918D0904725E000F0C4F800F01EFA10
:10BEF000002814BF00250125FFF7ECFD2349009120
:10BF0000134B234A2946FFF7A5FDC4F8208005B04E
:10BF10002046BDE8F08FA189FDF774FD0AE0226993
:10BF2000002A1CBF05F108006169DBD105F108009A
:10BF3000FDF78AFD206AC5E90080002818BF05606A
:10BF4000781C87B22562B742B4D3E0E750B9010844
:10BF50003BB90108656F5F6C6973745F4E65772844
:10BF6000293A2030206974656D5F73697A65000035
:10BF7000656F5F6C6973745F4E657728293A20306E
:10BF800020636170616369747900000060B9010821
:10BF900078C20108002814BF0029704770B5054613
:10BFA0000E4640892989884208BF70BD28460BF09B
:10BFB0007DF8040008BF70BD3146AA89042A94BFE9
:10BFC00004F10800A068AB690BB1984701E0FDF7E8
:10BFD0009AFC2889002808BF6C6000212868C4E901
:10BFE0000010002818BF04602C602889401C28819C
:10BFF00070BD0000002908BF704738B50C4C0D46D5
:10C00000207948B1FFF766FD0A4900910A4B0BA25F
:10C010000221FFF72BFD38BD0846FFF729FCE16C34
:10C02000081AE064616901B02846BDE8304008475D
:10C03000A800002060B9010898B90108656F5F6D1C
:10C04000656D706F6F6C5F44656C65746528293A27
:10C05000206F6E6C7920772F20656F5F6D656D7036
:10C060006F6F6C5F616C6C6F635F64796E616D693B
:10C07000630000000348007801280CBF014800203D
:10C0800070470000A80000202DE9F04786B04FF06F
:10C0900000073C4E8A46019731799C465FEA0209C7
:10C0A0003C46B84618BFBCF1000F09D00CFB09F59F
:10C0B000F0B1002936D001293CD002292DD041E031
:10C0C0000394ADF80E4002208DF80C4004940594C2
:10C0D00002908DF80D40FFF7FDFC02A900912A4B5C
:10C0E0002AA20221FFF7C2FC06B00020BDE8F087BB
:10C0F0000394ADF80E4003208DF80C400494059491
:10C1000002908DF80D40FFF7E5FC02A900911E4B4F
:10C1100028A20021FFF7AAFC04E090F8380010EAFA
:10C120000A0F07D1F168284688470746FFF7A0FBAA
:10C13000804606E001AB6246494650460AF0F6FFEB
:10C1400007469FB90394ADF80E5004208DF80C40BB
:10C150000494059402908DF80D40FFF7BBFC02A9F2
:10C160000091094B20A20421FFF780FC306D01995A
:10C1700008443065F06C4044F06406B03846BDE8D1
:10C18000F0870000A800002098B90108656F5F6D76
:10C19000656D706F6F6C5F4765744D656D6F72791B
:10C1A00028292069732061736B65642030206279CF
:10C1B00074657300656F5F6D656D706F6F6C5F4761
:10C1C00065744D656D6F72792829206E6F742069D2
:10C1D0006E697474656420757365732064796E206C
:10C1E000616C6C6F63000000656F5F6D656D706FF3
:10C1F0006F6C5F4765744D656D6F72792829206E8D
:10C200006F206D6F7265206D656D6F727900000033
:10C210002DE9F843344C2178012962D001212170A5
:10C220000021E1642165002808BF3048D0E90023DF
:10C23000C4E90123027822B1012A18BF022A0CD0D6
:10C2400040E0416800293DD00968E16041684968E3
:10C25000216140688068606134E042684AB392E8D6
:10C26000EC1304F1180080E8EC1332B190F82020B0
:10C2700042F0010280F820204184826832B190F8B7
:10C28000202042F0020280F820208184026932B12D
:10C2900090F8202042F0040280F82020C1848269B6
:10C2A00082B190F8202042F0080280F82020018519
:10C2B00008E0FFF70FFC0E4900910E4B0EA204217F
:10C2C000FFF7D4FBE068002804BF1548E060206950
:10C2D000002804BF134820616069002804BF124889
:10C2E00060610148BDE8F883A800002090B901080A
:10C2F00050B9010898B90108656F5F6D656D706F81
:10C300006F6C5F496E697469616C69736528293A5D
:10C3100020706F6F6C73206E65656465640000004B
:10C32000A98D0108B38D0108AF8D0108014800797E
:10C3300070470000A8000020002819BF0029002A2B
:10C340006FF00100704703680B6080881080002048
:10C350007047002804BF6FF00100704701608280C1
:10C3600000207047002812BF00296FF001007047BD
:10C37000408908800020704710B40028DDF804C010
:10C3800011BFBCF1000F6FF0010010BC7047C47901
:10C39000012C1EBF4FF0FF3010BC7047016082803F
:10C3A00000218171038143818381C181C0F810C064
:10C3B00010BC0846704770B50546FFF75BFE0123C9
:10C3C00014220421FFF760FE044600202060A080B4
:10C3D000A07120816581A081E081002D04BF2061D2
:10C3E000012008D0FFF746FE01232A461946FFF731
:10C3F0004BFE20610020E071204670BD002819BF6F
:10C400000029002A6FF0010070470389C381036986
:10C410000B600089108000207047002812BF00299F
:10C420006FF00100704770B50446C07915460028CA
:10C430001CBF4FF0FF3070BD628900262069AA4200
:10C4400006D32A46FDF75FFA2581A581E68107E03C
:10C45000FDF759FA60892081A081E6810120A07151
:10C46000002070BD002804BF6FF0010070474289B2
:10C4700000238A4203D301818181C38104E00281C8
:10C480008281C381012181710020704700210160F8
:10C490008180817101818181C1810846704770B5B9
:10C4A0000446086820608888A0800D466089098954
:10C4B000884294BF01200020A07100280CBF288969
:10C4C00060892081A0810020E08161892069FDF7D9
:10C4D00099FA228929692069FDF715FA002070BDB3
:10C4E00070B504464FF000002060A080A07120814C
:10C4F000A0810D00E081658104BF2061012008D08A
:10C50000FFF7B8FD0122ABB21146FFF7BDFD206178
:10C510000020E071002070BD002818BFC06870477F
:10C520002DE9F84F0546FFF7D5FADFF81C91CDF855
:10C530000090002D14BF01210021444B44A2FFF7BD
:10C5400089FAFFF797FD012310220421FFF79CFDD4
:10C550000026056004460671E8786071FF20B04649
:10C56000A071FFF787FD2B7808220421FFF78CFDCF
:10C57000A0602878002888BF042712D9A06840F856
:10C580003680FFF777FD0122AB781146FFF77CFD7F
:10C59000A16807EBC6028850701CC6B22878B0426A
:10C5A000ECD868780027002888BF4FF0010A2CD902
:10C5B000E86800EBC706FFF78DFACDF800908446D7
:10C5C0003178287881423CBF7178814205D2B078B9
:10C5D000A978884238BF012100D300211B4B22A239
:10C5E0006046FFF737FA3178A068B27800EBC100F7
:10C5F0000AFA02F20168114301604068B1784754B9
:10C60000781CC7B26878B842D2D8287930B1FFF721
:10C6100031FD2A7901230421FFF736FDE06020680F
:10C62000016900291CBF2046884720462168C97837
:10C63000617184F8048021684969002918BF88471E
:10C640002046BDE8F88F000050B9010842B9010842
:10C65000656F5F736D5F4E657728293A204E554CA4
:10C660004C20636667000000735F656F5F736D5FEA
:10C670005370656369616C69736528293A20777224
:10C680006F6E672063666700002804BF6FF00100CB
:10C6900070472DE9F041044600680D468078A842B5
:10C6A0009CBF4FF0FF30BDE8F0812079012660B9D2
:10C6B0002671FF21A171216820468A68C97802EBA2
:10C6C00001118968002918BF88476179A06806FAB6
:10C6D00005F300EBC10002681A4204BF6FF00400CA
:10C6E000BDE8F081A57122684068D368405D03EB26
:10C6F000C007906800EB0116797800EB0115AE4297
:10C700001FBFF168002920468847796800291CBFAF
:10C710002046884778786071AE421FBFA96800291B
:10C72000204688470020BDE8F08110B5002804BFEE
:10C730006FF0010010BD017961B901210171FF2184
:10C74000817101688A68C97802EB01118968002942
:10C7500018BF8847002010BD10B5FFF78BFC0123E0
:10C7600018220421FFF790FC0446FEF7A4FFA06006
:10C77000FEF7A1FFE060A068FEF74EFFE068FEF75D
:10C780004BFFFF2020700021618061602174032035
:10C790006074A1742046616110BD10B5FFF764F8A4
:10C7A000002818BF406810BD10B5FFF75DF80028DD
:10C7B0000CBFFF20007810BD2DE9F0471D46DDE9D4
:10C7C000086A17468846DDF82890FFF74DF8040000
:10C7D00004BF6FF00100BDE8F08784F80080678037
:10C7E00000206060207484F811A084F81290A06882
:10C7F0001DB12946FEF719FF01E0FEF70DFFE068C5
:10C800001EB13146FEF711FF01E0FEF705FF0020E3
:10C81000BDE8F087002804BF6FF0010070470029D1
:10C8200004BF4FF0FF30704770B515460C4601F05D
:10C8300073FB2A462146BDE8704001F075BB00003D
:10C84000F8B504004FF0000015460E46009004BFF6
:10C850006FF00100F8BD2046FFF79FFF2068417C84
:10C86000012904BF4FF0FF30F8BD807C01280AD1B8
:10C8700001F052FB2A46214601F05DFB00281CBF57
:10C880006FF00200F8BD6946E2686068FFF75AF988
:10C89000050008D130460099FFF701FE03496068A2
:10C8A0000968FFF703FA2846F8BD00001CB9010823
:10C8B0002DE9FF4F83B01D46DDE910BA91460646CB
:10C8C000FFF7D8FB012330220421FFF7DDFB0446EC
:10C8D000FFF700F900210091711918BF0121224BC7
:10C8E00022A2FFF7B7F8FFF737FF2C4FDFF8B08031
:10C8F0002060002E08BF002009D0CDE90087CDF8C8
:10C900000890284A31461420049BFFF743F96060E1
:10C91000002D08BF002009D0CDE900875B46214AE1
:10C9200029461420CDF808A0FFF734F9A0601E486E
:10C930000068E06000F056F920611C4804F1180519
:10C940000FC885E80F00FEF7B6FEA06201F06EF991
:10C9500001F074F9034622461549A06AFEF7B6FEB7
:10C9600007B02046BDE8F08F98BA0108656F5F7385
:10C970006F636B65746474675F4E65772829206EFA
:10C9800065656473206174206C65617374206F6EDB
:10C990006520706B74207175657565008DC4000825
:10C9A0009FC40008E1C400081CB9010888BA010846
:10C9B000B57201082DE9FF4F83B01F46DDE9109BDA
:10C9C000DDF848A0154604004FF0FF3602BF6FF0B7
:10C9D000010007B0BDE8F08F4FF00008012D12BF35
:10C9E000032DA068002808D1FFF774F82D4B2EA264
:10C9F0000421CDF80080FFF739F8022D18BF032D70
:10CA00000AD16068B0B9FFF765F8264B31A204215E
:10CA1000CDF80080FFF72AF86068002808BF012FD2
:10CA200008D1FFF757F81F4B354A0421CDF8008095
:10CA3000FFF71CF8B9F1000F06D099E80F0004F1D8
:10CA4000180888E80F0005E02E4B04F118080FCBFA
:10CA500088E80F002068007CF8B9CDF800A0CDE987
:10CA600001575B4600212046049AFFF7A5FE01F01E
:10CA700053FA214601F047FA060004BF94F8240057
:10CA800001280AD1A26A206A01210292CDE900019F
:10CA9000D4E90623206900F019F907B03046BDE853
:10CAA000F08F000098BA0108656F5F736F636B6564
:10CAB000746474675F4F70656E2829206E656564C5
:10CAC0007320616E206F7574707574207175657553
:10CAD00065000000656F5F736F636B6574647467F6
:10CAE0005F4F70656E2829206E6565647320616EE6
:10CAF00020696E70757420717565756500000000A1
:10CB000058C3010888BA0108002804BF6FF001006B
:10CB1000704730B583B00D460446FFF73EFE00284F
:10CB20003BD02068407C022837D0D4E90202294655
:10CB3000FFF788F800281CBF03B030BDDFF864C0E1
:10CB4000D4E90612DCE9003C59408CEA02021143A8
:10CB500004BF216A002917D094F8241000291CBFB3
:10CB600003B030BD206900F031F8012815D0A26A69
:10CB7000206A00210292CDE90001D4E90623206950
:10CB800000F0A4F803B030BD01F0C6F903B02146AF
:10CB9000BDE83040102201F0AAB903B04FF0FF30D9
:10CBA00030BD000020B90108002812BF00296FF035
:10CBB000010070470268527C012A03D0C2684068B5
:10CBC000FFF790B800200880401E7047002819BF6A
:10CBD000007E10F0030000207047012818BF0220DB
:10CBE00070470000F8B5FFF745FA01233022042111
:10CBF000FFF74AFA040017D01949D1E90021C0E92A
:10CC0000002100218160C160027E61F3010222F0F7
:10CC1000F40242F0080202760161C16101624162E0
:10CC20008162C0E90411217701F0DCFC0D4E0500A2
:10CC300007D1FEF74FFF0C4B0CA204210096FEF724
:10CC400015FF2146284601F0D5FC38B1FEF742FF1A
:10CC5000054B12A204210096FEF708FF2046F8BDFE
:10CC600020B9010870B90108A8B90108656F5F749F
:10CC7000696D65725F4E657728293A20656F765F2A
:10CC800074696D65726D616E5F47657448616E644D
:10CC90006C652829206661696C730000656F5F749C
:10CCA000696D65725F4E657728293A20656F765FFA
:10CCB00074696D65726D616E5F4F6E4E6577546914
:10CCC0006D65722829206661696C73002DE9F04F4B
:10CCD00083B00446DDE90C796FF0050015461E4669
:10CCE000DDF83880029001F07DFCDFF8E4A00190CF
:10CCF000002818BFB8F1000F08D1FEF7EBFE354B46
:10CD000035A20421CDF800A0FEF7B0FEDFF8E4B0B4
:10CD1000DBE9000168407140084309D047B9FEF7DC
:10CD2000D9FE2C4B34A20421CDF800A0FEF79EFEC4
:10CD30003D480168019801F073FC10F1030F02BF38
:10CD4000029803B0BDE8F08FDBE900016840714054
:10CD5000084315D0B9F1000F12D101F05FFA01F0CC
:10CD60006AFAEB1946F10002C01A71EB020007D310
:10CD7000019801F047FC03B04FF0FF30BDE8F08FA1
:10CD8000002C1CBF207E10F0030001D0012818D019
:10CD9000207EB9F1000F20F00300207614BF40F090
:10CDA000040020F004002076A760E4E8075698E825
:10CDB0000F0084E80F00A4F11C01019801F009FCA8
:10CDC0000290019801F01EFC029803B0BDE8F08FBC
:10CDD00050B90108A8B90108656F5F74696D657283
:10CDE0005F537461727428293A204E554C4C20616F
:10CDF0007267000020B90108656F5F74696D657224
:10CE00005F537461727428293A203020636F756E05
:10CE100074646F776E20772F2077726F6E67207340
:10CE200074617274617400001CB9010870B5044625
:10CE30006FF0050601F0D6FB050012BF002C6FF065
:10CE4000010070BD18480168284601F0E9FB10F1A7
:10CE5000030F04BF304670BD207E10F0030101D0E7
:10CE600001291AD0002161F3010020F0F40040F004
:10CE7000080020760D48D0E90010C4E90010002019
:10CE8000A060E060E06120626062A06220770446FA
:10CE9000284601F0B7FB204670BD2146284601F028
:10CEA000B7FB0446F4E700001CB9010820B90108EB
:10CEB000002908BF002203D001290CBF0122022251
:10CEC000002808BF7047017E62F3010121F0F401E0
:10CED00041F0080101760749D1E90021C0E90021AC
:10CEE00000218160C160C16101624162816201779C
:10CEF0007047000020B9010802484068002818BFA8
:10CF0000004870470801002000281CBF0148406805
:10CF1000704700000801002070B5244E044686B01A
:10CF2000706800281EBF214806B070BD002C08BFE5
:10CF30001F4CFEF7CFFD1F4D00952179002918BF2A
:10CF400001211D4B1DA2FEF785FDFEF7C3FD0095D7
:10CF50006188002918BF0121174B23A2FEF77AFD33
:10CF6000FEF7B8FD00952178002918BF0121124B6A
:10CF700028A2FEF76FFD344802AD30A30068314AA5
:10CF8000002185E80F0021793048CDE90001628851
:10CF900021780023042000F0A1FB014670602C489A
:10CFA00000F050FE06B0014870BD000008010020EE
:10CFB00000BA010850B9010806BA0108656F6D5F33
:10CFC00063616C6C6261636B6D616E5F496E697405
:10CFD00069616C69736528293A203020717565751F
:10CFE0006573697A65000000656F6D5F63616C6CE5
:10CFF0006261636B6D616E5F496E697469616C69D2
:10D00000736528293A203020737461636B73697AE1
:10D0100065000000656F6D5F63616C6C6261636BDE
:10D020006D616E5F496E697469616C697365282909
:10D030002030207072696F726974790063626B6D61
:10D04000616E000097A501081CB90108E172010892
:10D05000C972010870B50E4C0B46217819B1D4F88D
:10D0600020C060450DD0206200250146257018467D
:10D07000FFF7D0FB002806BF01202070257005D1E6
:10D0800001E0012902D1002002F088FE207870BD65
:10D09000000000202DE9F047754D044686B0286851
:10D0A0001F469046894600281EBF714806B0BDE85D
:10D0B000F087002C08BF6F4CFEF70CFD6E4E0096FB
:10D0C000B9F1000F14BF012100216C4B6CA2FEF7D7
:10D0D000C1FCFEF7FFFC00966168002918BF012122
:10D0E000664B70A2FEF7B6FCFEF7F4FC0096618872
:10D0F000002918BF0121614B75A2FEF7ABFCFEF7BA
:10D10000E9FC00962178002918BF01215B4B7AA227
:10D11000FEF7A0FC002F08BF814FFEF7DBFC009656
:10D120007978002940F0A1803978002918BF0021C2
:10D1300000F09B80514B7BA2FEF78CFC8749864A0E
:10D1400087480292CDE900013878864B864A002153
:10D1500000F0FEFE28600021022007F07DFA6863DF
:10D16000FEF7B8FCDFF804A2CDF800A0696B002937
:10D1700018BF0121414B7EA2FEF76CFC07F062F95B
:10D180002861FEF7A7FCCDF800A02969002918BF87
:10D1900001213A4B85A2FEF75DFCFFF723FDA86352
:10D1A000FEF789FAE86378780026002808BFAE64A5
:10D1B0000ED007F053F8A864FEF78CFCCDF800A061
:10D1C000A96C002918BF01212C4B85A2FEF742FC57
:10D1D000D822494605F15000FCF7DAFBB8F1000F00
:10D1E00010D0D8E9000150EA010218BFC5E91801C2
:10D1F000D8F80800002818BFA866D8F80C00002846
:10D2000018BFE8660020FFF7D6F828648448006855
:10D210006864207A85F82801286800F057FE606865
:10D2200080A1834ACDE90206CDE904218148CDE9F8
:10D23000000662882178804B012000F04FFA686078
:10D24000686D7EA1804ACDE90206CDE904217F48C0
:10D25000CDE900066289617A0023052000F03EFADC
:10D26000A86006B00248BDE8F087012162E700002F
:10D27000C883002070BA010850B901087CBA0108BF
:10D28000656F6D5F69706E65745F496E6974696121
:10D290006C69736528293A204E554C4C206970639F
:10D2A00066670000656F6D5F69706E65745F496EDB
:10D2B000697469616C69736528293A20302070723D
:10D2C0006F636D617869646C6574696D65000000F9
:10D2D000656F6D5F69706E65745F496E69746961D1
:10D2E0006C69736528293A20302070726F637374FB
:10D2F00061636B73697A6500656F6D5F69706E65F8
:10D30000745F496E697469616C69736528293A2094
:10D3100070726F637072696F7269747900000000D7
:10D320006DBA0108656F6D5F69706E65745F496EF7
:10D33000697469616C69736528293A2030206D61D0
:10D3400078646174616772616D656E71756575652C
:10D3500064696E7478000000D5780108F5740108DE
:10D360006D750108357701080D76010870B901085F
:10D37000656F6D5F69706E65745F496E6974696130
:10D380006C69736528293A206F73616C2063616E44
:10D3900074206769766520626C6F636B696E677372
:10D3A000656D6170686F726500000000656F6D5F8C
:10D3B00069706E65745F496E697469616C697365E3
:10D3C00028293A206F73616C2063616E742067694D
:10D3D0007665206D747863616C6C65720000000086
:10D3E000656F6D5F69706E65745F496E69746961C0
:10D3F0006C69736528293A206F73616C2063616ED4
:10D40000742067697665206120646772616D736F4F
:10D41000636B657472656164793274780000000032
:10D420001CB9010869706E65742E70726F6300001C
:10D4300051D40008197A0108E17C010869706E6511
:10D44000742E7469636B000055D40008317D0108A7
:10D4500000F036BB00F034BB38B5FEF70BFE0123FD
:10D4600008220421FEF710FE044600F053FE0D4B87
:10D470000D4A0E49206000F05BFE06F0E3FF60609D
:10D48000FEF728FB84460A4800906068002814BF15
:10D4900001210021074B08A26046FEF7DBFA204677
:10D4A00038BD0000357D01085F7D0108657D0108FC
:10D4B00070B90108EFB90108656F6D5F6D7574652E
:10D4C000785F4E657728293A206F73616C5F6D75C0
:10D4D0007465785F6E657728292072657475726E41
:10D4E00073204E554C4C0000002804BF6FF0010023
:10D4F0007047406807F010B8002804BF6FF00100C3
:10D500007047406807F02AB802480068002818BF32
:10D5100000487047A08300202DE9F04F85B00546F4
:10D520000020334CDDF83890064604902068984679
:10D5300092468B4600281EBF2D4805B0BDE8F08FEF
:10D54000FEF7C8FA2B4F0097002D14BF01210021D0
:10D55000294B2AA2FEF77EFAFEF7BCFA009769680B
:10D56000002918BF0121244B2DA2FEF773FAFEF704
:10D57000B1FA0097A968002918BF01211E4B31A2FA
:10D58000FEF768FA3B48384B384A39498DE80F00B6
:10D59000394B3A4A5146584600F05EFE20606868B2
:10D5A0006060A868C4F81090C4E90208686801F0D7
:10D5B000DFFD01F02FFE2868002818BF02F0E6FC0E
:10D5C00004A9A06806F0B6FC049840B1FEF752FD2D
:10D5D000049901238AB20821FEF756FD064631461A
:10D5E000A06806F015FB05B00148BDE8F08F00000B
:10D5F000A083002050B9010844BA0108656F6D5F2F
:10D600007379735F496E697469616C697365282900
:10D610003A204E554C4C20737973636667000000C6
:10D62000656F6D5F7379735F496E697469616C6969
:10D63000736528293A204E554C4C2068616C63660E
:10D6400067000000656F6D5F7379735F496E697481
:10D6500069616C69736528293A204E554C4C206FDE
:10D6600073616C63666700006DFF00081547010871
:10D670006D48010811470108DD7401086D7D01083E
:10D6800038B50C460546FEF725FA08490091002DED
:10D6900014BF01210021064B06A2FEF7DBF90D485D
:10D6A0004461BDE838400C4807F050B850B9010853
:10D6B00044BA0108656F6D5F7379735F537461726B
:10D6C0007428293A204E554C4C2068616E646C6574
:10D6D00000000000A0830020697F01082DE9FF4FB2
:10D6E00087B09346DDE9157689460546DDF85C800E
:10D6F000FEF7F0F9DFF864A2CDF800A01499002934
:10D7000018BF0121964B97A2FEF7A4F9FEF7E2F9A4
:10D71000CDF800A0BBF1000F14BF01210021904BF8
:10D7200097A2FEF797F9FEF7A5FC01232422042116
:10D73000FEF7AAFC044600F06FFE2B46C4F82080DA
:10D74000964D974A0021DFF85C822060062B80F01E
:10D75000C180DFE803F003182E446FA9A174924B37
:10D76000C4E90531E1612174A160E160CDE90415EE
:10D77000CDE90021029103918C4B149A0A9900F093
:10D780007FFE00F0B0B80123A374894B6361C4E944
:10D7900006612174A160E160CDE90415CDE90021A5
:10D7A00002910391814B149A0A9900F069FE00F0EE
:10D7B0009AB80223A3747F4BE761C4E9053621744C
:10D7C000A160E160CDE90415CDE90021029103914A
:10D7D000764B149A0A9900F053FE00F084B80320A7
:10D7E000A0747548C4E905060E46E161002F08BF24
:10D7F0000127F8B2207406F031FDC4E90206FEF7F5
:10D8000069F9CDF80080A168002918BF0121544BA7
:10D810006AA2FEF71FF97548CDE90206CDE9046555
:10D8200073480023CDE900602068149A0A9900F03B
:10D8300027FE58E00420A0746E48C4E905060E4691
:10D84000E161002F08BF0127F8B2207406F006FD41
:10D85000A060207C06F002FDE060FEF73BF9CDF809
:10D860000080A168002918BF01213D4B62A2FEF78C
:10D87000F1F8FEF72FF9CDF80080E168002918BF14
:10D880000121374B68A2FEF7E5F874487449009609
:10D89000CDE90405CDE90261019600232068149AC0
:10D8A0000A9900F0EDFD1EE00522A2746D4A626146
:10D8B000C4E906612174A160E160CDE9041500911D
:10D8C0000291039101910023149A0A9900F0D8FD66
:10D8D00009E000BFFEF7FEF8214B63A20421CDF85A
:10D8E00000A0FEF7C3F8A9F10300F82838BF84F8B8
:10D8F000119005D3B9F1020F34BF0220FB206074F0
:10D900000BF10700C0084FF6FF7101EAC003627C0B
:10D91000189838B1214607F009F82146606006F0F2
:10D92000C5FF07E02146606907F000F82146606006
:10D9300006F0BCFFFEF7CEF8CDF800806168002944
:10D9400018BF0121064B51A2FEF784F85A4801780E
:10D95000491C01700BB02046BDE8F08F50B901089A
:10D96000F8B90108656F6D5F7461736B5F4E657721
:10D9700028293A204E554C4C2072756E5F666E0019
:10D98000656F6D5F7461736B5F4E657728293A2010
:10D990003020737461636B73697A6500177E0108C8
:10D9A000397F010870B90108457F0108897E0108A7
:10D9B000C17D0108857D0108957E0108656F6D5F59
:10D9C0007461736B5F4E657728293A206F73616CC1
:10D9D000206769766573204E554C4C206D2D6D6522
:10D9E000737361676571756575650000277F010850
:10D9F000757E0108E17D0108656F6D5F7461736B71
:10DA00005F4E657728293A206F73616C20676976CD
:10DA10006573204E554C4C2063622D6D65737361A8
:10DA20006765717565756500656F6D5F7461736BB2
:10DA30005F4E657728293A206F73616C206769769D
:10DA40006573204E554C4C2063622D617267756D75
:10DA5000656E74717565756500000000DD7E0108F6
:10DA60002D7E0108B97E0108656F6D5F7461736B6F
:10DA70005F4E657728293A20756E737570706F72E6
:10DA8000746564207479706500000000656F6D5FD7
:10DA90007461736B5F4E657728293A206F73616CF0
:10DAA000206769766573204E554C4C206F73616C0E
:10DAB0007461736B000000000401002000F079BD68
:10DAC000002808BF70474169084700F029BD00F0F1
:10DAD00037BD000070B5274D044686B02868002881
