:020000040800F2
:10000000A0C60020D9020008E1020008E3020008AF
:10001000E5020008E7020008E9020008000000000D
:10002000000000000000000000000000EB020008DB
:10003000ED02000800000000EF020008D5100008E3
:10004000F3020008F3020008F3020008F3020008BC
:10005000F3020008F3020008F3020008F3020008AC
:10006000F3020008F3020008F3020008F30200089C
:10007000F3020008F3020008F3020008F30200088C
:10008000F3020008F3020008F3020008F30200087C
:10009000F3020008F3020008F3020008F30200086C
:1000A000F3020008F3020008F3020008F30200085C
:1000B000F3020008F3020008F3020008F30200084C
:1000C000F3020008F3020008F3020008F30200083C
:1000D000F3020008F3020008F3020008F30200082C
:1000E000F3020008F3020008F3020008F30200081C
:1000F000F3020008F3020008F3020008F30200080C
:10010000F3020008F3020008F3020008F3020008FB
:10011000F3020008F3020008F3020008F3020008EB
:10012000F3020008F3020008F3020008F3020008DB
:10013000F3020008550B0008F3020008F302000860
:10014000F3020008F3020008F3020008F3020008BB
:10015000F3020008F3020008F3020008F3020008AB
:10016000F3020008F3020008F3020008F30200089B
:10017000F3020008F3020008F3020008F30200088B
:10018000F3020008F302000800F002F800F088F81B
:100190000AA090E8000C82448344AAF10107DA45E2
:1001A00001D100F07DF8AFF2090EBAE80F0013F0AC
:1001B000010F18BFFB1A43F0010318471C3F000052
:1001C0003C3F0000103A24BF78C878C1FAD85207E3
:1001D00024BF30C830C144BF04680C6070470000C1
:1001E0000023002400250026103A28BF78C1FBD840
:1001F000520728BF30C148BF0B60704710B510BD13
:1002000002000215E0B7CE7900000008008000006F
:1002100000000020C0FF01000000000000000000FE
:1002200000654C6F61646572000000000000000012
:1002300000000000000000004558540000000000CD
:1002400046656220323820323031382031323A353A
:10025000373A3338000000000000000000000000C2
:10026000000000000000000000000000000000008E
:10027000000000000000000000000000000000007E
:10028000642900F07381732900F08D83002070478A
:100290001FB503F023FD9DE8030000F095FA1FBD94
:1002A00000F0D4FB1146FFF7F3FF02F001FC00F071
:1002B000F2FB03B4FFF7A2FF03BC00F023FC000035
:1002C00000487047002000000048704700A0000070
:1002D000401EFDD17047000009488047094800478B
:1002E000FEE7FEE7FEE7FEE7FEE7FEE7FEE7FEE7E6
:1002F000FEE7FEE704480549054A064B7047000043
:100300007111000889010008A0060020A0C6002085
:10031000A0A60020A0A6002070B5A0FB0140B4F16B
:10032000805170F1000024BF002070BD204600F015
:100330007AFA05001CBF214600F039FB284670BD43
:1003400070B50446051F00F023FA0068002C14BFA6
:10035000446870BD002C18BFAC423CBF20466468A6
:10036000F8D301680A18AA4218BF456003D12A6869
:1003700005461144016028684119A1421CBF6C6008
:1003800070BD6168696021680844286070BD53EAE7
:10039000020C00F069802DE9F04B4FF00006002BB5
:1003A0001FBFB3FA83F503FA05F424FA05F65E409D
:1003B00012BF1643B2FA82F502FA05F4C5F1200520
:1003C0001EBF22FA05FC44EA0C04203556EA044C10
:1003D0004FEA144418BF641C4FF000084FF00009A6
:1003E000904271EB030C39D3002919BFB1FA81F7A0
:1003F00001FA07F6B0FA80F700FA07F6C7F120070E
:100400001EBF20FA07FC46EA0C062037B6FBF4FCB8
:10041000A7EB0507103F07F01F0BCBF120060CFAE6
:100420000BFB2CFA06F644BFB3460026202FA4BFD0
:100430005E464FF0000B5BEA060C08BF4FF0010B65
:1004400019EB0B09ABFB027C48EB0608C01B06FB53
:1004500002CC0BFB03CC71EB0C01C1E70B4602464F
:1004600041464846BDE8F08B13B54FF000004FF011
:100470000001AFF30080BDE81C4070470FB41CB50D
:100480000C0007AA009001D02044401E074B7B447B
:1004900069460190069800F054FA002C03D0694692
:1004A000002000F061FA1CBC5DF814FBE1040000C0
:1004B0002DE9F0410E460446002020622046E16806
:1004C000884730B3252805D0D4E901219047206A18
:1004D000401CF2E7E168204600278847050018D055
:1004E000A5F14100192802D820354FF400673246A3
:1004F000294620462760FFF7C3FE40B1012804D0FB
:10050000F61D26F007060836D8E7361DD6E728463A
:10051000DAE7206ABDE8F08170B50C460546012A8D
:1005200005D02878800600D5EA69002302E001237F
:1005300005E05B1C934202D2E05C0028F9D1A86977
:10054000E618C01AA861286A184428622846AFF342
:10055000008004E0D5E9012114F8010B9047B44272
:10056000F8D32846AFF3008070BD00002DE9F041BC
:100570000646002410687529314616A510D0AFF341
:100580000080002802DA404213A507E031688A079C
:1005900001D512A502E0490704D511A5012401E007
:1005A000AFF3008000210A2206F1240709E0B0FB26
:1005B000F2FCB0FBF2F302FB1C003030785418461A
:1005C000491C0028F3D123462A463046BDE8F041B5
:1005D00000F058B9000000002D0000002B000000C2
:1005E0002000000040EA010310B59B070FD1042A48
:1005F0000DD310C808C9121F9C42F8D020BA19BAEE
:10060000884201D9012010BD4FF0FF3010BD1AB152
:10061000D30703D0521C07E0002010BD10F8013BA7
:1006200011F8014B1B1B07D110F8013B11F8014BCE
:100630001B1B01D1921EF1D1184610BD032A40F2B6
:10064000308010F0030C00F0158011F8013BBCF174
:10065000020F624498BF11F801CB00F8013B38BF8C
:1006600011F8013BA2F1040298BF00F801CB38BF9A
:1006700000F8013B11F0030300F02580083AC0F0B8
:10068000088051F8043B083A51F804CBA0E8081060
:10069000F5E7121D5CBF51F8043B40F8043BAFF393
:1006A0000080D20724BF11F8013B11F801CB48BFED
:1006B00011F8012B24BF00F8013B00F801CB48BF23
:1006C00000F8012B704710B5203AC0F00B80B1E85C
:1006D0001850203AA0E81850B1E81850A0E8185077
:1006E000BFF4F5AF5FEA027C24BFB1E81850A0E880
:1006F000185044BF18C918C0BDE810405FEA827C9A
:1007000024BF51F8043B40F8043B08BF7047D207B0
:1007100028BF31F8023B48BF11F8012B28BF20F851
:10072000023B48BF00F8012B704702F0FF0343EA89
:10073000032242EA024200F03CB94FF0000200B549
:10074000134694469646203922BFA0E80C50A0E8F4
:100750000C50B1F12001BFF4F7AF090728BFA0E8A2
:100760000C5048BF0CC05DF804EB890028BF40F86E
:10077000042B08BF704748BF20F8022B11F0804FB0
:1007800018BF00F8012B7047704770477047000092
:100790000048704744060020704770477047704714
:1007A00038B504460A4600206946AFF300800028A9
:1007B00008BF38BD02460099204600F026F9012006
:1007C00038BD012000F03BB9F8B5AFF30080054615
:1007D00000200C46102000BF0646A819A0420DD9E3
:1007E000324669460020AFF30080070008BF00F0E2
:1007F00026F90098A04218BF0546C419FFF7C8FFA4
:1008000005600746F01D20F007004619284600F055
:10081000F5F8B44208BFF8BDA21B31463868BDE800
:10082000F84000F0F2B870B50646FFF7B1FF056872
:1008300006F10B0020F00704B4429CBF002070BDFD
:100840002B466A68BAB11068A04210D304F10801BF
:1008500088423CBF5068586007D351681019416006
:100860001168091B016058601460101D70BD1346AB
:100870005268002AE7D121462846FFF791FF002859
:10088000DED170BD2DE9F0470D46994692460446EB
:1008900000F124080168880604D5E06921F0100100
:1008A000216000E00120A84201DD471B00E0002795
:1008B000A1697A1902EB0900081AA0612078C00624
:1008C00002D42046AFF30080002608E0D4E90121DD
:1008D0001AF806009047206A401C761C20624E459C
:1008E000F4DB2078C0060AD52046AFF3008006E08E
:1008F000D4E9012130209047206A401C2062381E34
:10090000A7F10107F4DC07E0D4E9012118F805009C
:100910009047206A401C2062281EA5F10105F3DCE7
:100920002046AFF300802078000602D50220BDE803
:10093000F0870120FBE7000001694A1C026108788A
:10094000704700B58FB0CDE901310021059105490F
:100950007944CDE9031011466846FFF7A9FD0FB0B1
:1009600000BD0000E5FFFFFF0A6802F8010B0A6006
:100970007047D1E900239A4202D2531C0B601070D9
:10098000704710B5436913B1AFF3008001E0FFF782
:10099000C3FD012010BD127800F124010A7000226D
:1009A0004A700122EDE711684FF0FF32E9E74FF09E
:1009B00000020429C0F0128010F0030C3FF4BFAE17
:1009C000CCF1040CBCF1020F18BF00F8012BA8BF3A
:1009D00020F8022BA1EB0C01FFF7B1BE5FEAC17C4E
:1009E00024BF00F8012B00F8012B48BF00F8012BB1
:1009F00070470000004870473C060020002101605D
:100A0000C0E90110704710207047034640688C46CB
:100A1000002818BF88423CBF03464068F8D31868D6
:100A20001844884207D00CF1030020F00700001D95
:100A3000411A521A0146081D0A60FFF781BC10B521
:100A400000F038F8BDE8104000F02EB87546FFF70A
:100A5000D1FFAE4605006946534620F007008546A3
:100A600018B020B5FFF746FCBDE820404FF0000667
:100A70004FF000074FF000084FF0000B21F0070186
:100A8000AC46ACE8C009ACE8C009ACE8C009ACE8C9
:100A9000C0098D46704710B50446AFF3008020466C
:100AA000BDE81040FFF705BC002801D000F02AB8CF
:100AB0007047000010B5012805D0002103A000F008
:100AC00028F8012010BD09A1F8E70000534947525A
:100AD000544D454D3A204F7574206F66206865610E
:100AE00070206D656D6F7279000000003A204865D6
:100AF0006170206D656D6F727920636F72727570B1
:100B00007465640001491820ABBEFEE726000200B0
:100B1000704770B505460C460A2000E06D1C00F0D9
:100B200011F835B128780028F8D102E0641C00F0F3
:100B300009F814B120780028F8D1BDE870400A20E7
:100B4000AFF3008008B569468DF800000320ABBE06
:100B500008BD00002DE9F04F43484FF0000B93B063
:100B600046685F4649F21A08357C4FF4407A4FF0E8
:100B70000049706900EB05100168C1F30D410C1FBD
:100B8000016811EA080F18BF012734D100683AEA5A
:100B9000000018BF02272ED140F2EA50844288BFDD
:100BA000032728D844F0004001F06AFA44F00041DD
:100BB0000090002808BF04271DD00820726900EBB0
:100BC0000510E31C105820F003020098001D9C083B
:100BD00006D000BF52F8043B40F8043B641EF9D134
:100BE0002248026812B10098001D9047009801F059
:100BF0004DFA4FF0010B706900EB0510C0F8009042
:100C000077B1022F08BF4FF0FF343B4618A24021B6
:100C100002A80094FFF732FC02A9F02001F0DEFEEA
:100C2000F07A6D1C854208BF00253574706900EBB1
:100C30000510006810F0004F9BD0184C6069184DEB
:100C400010F0800F06D065610020A06015A1F02093
:100C500001F0C4FE6561BBF1000F18BF01F006FA98
:100C600013B0BDE8F08F0000980000209000002035
:100C70004554485F49525148616E646C6572282939
:100C80003A206572726F7220256420666F7220664A
:100C900072616D655B25645D00000000009002409C
:100CA000C08001004554485F49525148616E646CF0
:100CB000657228293A206572726F72203500000033
:100CC0002DE9F001002201255FF00306D1F800C0F4
:100CD00005FA02F30CEA030C9C4537D107684FEA8A
:100CE000420C06FA0CF4A74307600F79D0F8008095
:100CF00007FA0CF747EA080707600F79012F18BFBA
:100D0000022F17D1876827EA040787604F79D0F848
:100D1000088007FA0CF747EA08078760476827EA60
:100D20000303436043688F7907FA02F7BFB243EACF
:100D300007034360C36823EA0403C360CB7903FA63
:100D40000CF3D0F80CC043EA0C03C36002F10102BB
:100D5000102ABBD3BDE8F00170474B07DB0E9A4069
:100D6000C90800EB8100016A4FF00F0C0CFA03F385
:100D700099430162016A114301627047426951401F
:100D800041617047002A14BF0183418370470029E5
:100D9000018814BF41F4806121F4806101807047B3
:100DA000838A0022008B43EA004020F07F4031EA32
:100DB000000008BF012210467047C9438182704776
:100DC0000029018814BF41F0010121F001010180D7
:100DD00070470029018814BF41F4807121F48071AB
:100DE000018070470029018814BF41F4007121F48B
:100DF00000710180704782B00246002000920A0F05
:100E000021F07F41019208BF090C009A14BF1432EF
:100E10001832009212680A4218BF012002B07047CF
:100E2000818A008B41EA004020F07F40704700003B
:100E300070B50446808884B00D4620F03F066846B1
:100E400000F090F829490298B0FBF1F189B246EA26
:100E50000102A280228822F001022280244B2A680B
:100E60009A421DD85200B0FBF2F080B2042838BF7D
:100E70000420491C2184A083208840F001002080A8
:100E80002088A9886A8920F00A0020F48060114334
:100E900008432080A88929890843208104B070BDB7
:100EA000EB88A3F53F4CBCF1FF0C19D002EBC20359
:100EB00003EB0212B0FBF2F080B240F48040020576
:100EC000120D08BF40F0010040F400404FF496724C
:100ED00051434FF47A72B1FBF2F1491C2184CAE705
:100EE00002EB4202B0FBF2F080B2E8E740420F00B2
:100EF000A0860100002A14BF41F0010101F0FE01AB
:100F00000182704701827047034940F0FD7040F054
:100F100080600860704700000CED00E0044A002982
:100F2000116814BF084321EA0000106070470000F8
:100F300030380240044A0029116814BF084321EAEE
:100F4000000010607047000040380240044A002949
:100F5000116814BF084321EA0000106070470000C8
:100F600020380240254A30B41168254B11F00C019D
:100F700006D0244C042908BF046002D008291ED0E2
:100F8000036011680F2303EA11111F4B595CD0F85D
:100F900000C02CFA01F14160D2F800C0072404EA35
:100FA0009C2C13F80CC021FA0CFCC0F808C0126885
:100FB00004EA52329A5CD140C16030BC7047134998
:100FC000D1F800C0CCF38055D1F800C0002D0CF052
:100FD0003F0C14BFB4FBFCF3B3FBFCF3D1F800C02F
:100FE0000968CCF3881C03FB0CF3C1F30141491CD5
:100FF0004900B3FBF1F10160C3E70000083802408B
:101000000024F40080F0FA0270000020043802404E
:1010100082B00022294901920092086840F48020A1
:101020000860086840F480300860086800F4003008
:1010300000900198401C0190009818B90198B0F5F3
:10104000A04FF2D1086810F4003F02BF009202B036
:101050007047012000901A48026842F080520260F6
:101060001848026842F44042026017480268026071
:10107000026842F400420260026842F4A052026038
:10108000031F124A1A600A6842F080720A600A68F6
:1010900012F0007FFBD00E4A40F20571116001682A
:1010A00021F003010160016841F002010160016863
:1010B00001F00C010829FAD102B070470038024053
:1010C0004038024000700040083802403254400767
:1010D000003C024010B500F07BFD002808BF10BDA9
:1010E000BDE8104000470000DFF86CC030B4DCF809
:1010F00000001A4B10F00C01194806D0194C0429B5
:1011000008BF046002D008290CD00360DCF800108E
:10111000154AC1F30311515C026822FA01F1016022
:1011200030BC704711490A68C2F380550A68002D27
:1011300002F03F0214BFB4FBF2F2B3FBF2F20B6811
:101140000968C3F388135A43C1F30141491C49009C
:10115000B2FBF1F10160D9E7083802400024F40045
:101160004C00002080F0FA02703E00080438024073
:10117000134810B5016841F470010160114801681D
:1011800041F001010160104A00211160026822F45F
:10119000102222F080720260031D0C4A1A6002685D
:1011A00022F4802202600A48016001F05FFCFFF730
:1011B0002FFF08494FF000600860FFF795FF10BD52
:1011C00088ED00E00038024008380240103000246A
:1011D0000C38024008ED00E0C9B241EA012141EAC1
:1011E0000141016041607047002804BF4FF0FF30AB
:1011F000704752EA030108BF42F2222222F07F42E6
:10120000110A120642F00202C0E90021034981607E
:101210006FF07F41C1600020704700000A00016349
:1012200002F0AABA10B5040008BF1D4C40221D49A7
:101230001D4802F00BFA1B481C4990F9002091F957
:1012400000309A4209D190F9012091F901309A4277
:1012500003D18978807881420AD014494022A1F1D3
:10126000080002F02FFA40220E490F4802F0EEF972
:10127000207902F0E9F810B1206870B1804702F0DF
:1012800067FB10B1206840B1804702F0F3FA10B15B
:10129000206810B18047002010BD4FF0FF3010BD16
:1012A000103D0008AC000020183D0008203D00085B
:1012B00002F000B902F014B902F032B902F048B9F4
:1012C00002F05CB902F07AB902F092B900207047DE
:1012D00002F0CABB02F0E4BB02F006BC02F07EBC26
:1012E00002F098BC02F0BABC02F02EBA02F034BA96
:1012F000044902460020496A002908BF7047104689
:1013000008470000B805002070B51F4CD8B12178FF
:10131000012928D0016821624168A1618168E161E9
:10132000C168002908BF194961620169002908BF25
:101330001749A16290E80F10251D85E80F100120C4
:101340002070002070BDE12612A500F037FC0128B6
:101350001EBFA06900288047226A1AB1294630467C
:101360009047FEE7FEE7E02611A500F027FC0128E4
:101370001EBFA06900288047226A1AB1294630465C
:101380009047FEE7FEE70000B8050020112C00089A
:101390000D2C000868616C5F626173655F696E693E
:1013A000742829206E6565647320636667000000F9
:1013B00068616C5F626173655F696E69742829207A
:1013C000616C72656164792063616C6C65640000B6
:1013D00002480078012818BF00207047B805002097
:1013E00070B50E46054600F0E9FB114C01281EBF02
:1013F000A06900288047226A7AB131462846904782
:10140000F02D00D0FEE700F0D9FB01281ABFE069FB
:10141000002870BDBDE870400047F02D00D0FEE709
:1014200000F0CCFB01281CBFE0690028F2D170BDA0
:10143000B8050020002070472DE9F04104000AD0D3
:10144000164D287878B116A1E020FFF7C9FF4FF0BC
:10145000FF30BDE8F0811AA1E120FFF7C1FF4FF096
:10146000FF30BDE8F08194E8CF1105F1040E8EE85D
:10147000CF112046FFF748FF04F1140000F0E6FA10
:1014800004F1150000F026F904F1180000F03CFB0F
:10149000012028700020BDE8F081000078050020C0
:1014A00068616C5F636F72655F696E69742829207B
:1014B000616C72656164792063616C6C65640000C5
:1014C00068616C5F636F72655F696E69742829205B
:1014D0006E6565647320636667000000084810B598
:1014E0000178012906D00749E020FFF779FF4FF086
:1014F000FF3010BD02210170FFF79CFF002010BDDE
:1015000078050020944000080D4BC0EBC00203EBAF
:101510008202121D012818BF02280ED1D2E9000252
:10152000B0F1FF3F18BFB2F1FF3F06D0814224BFA8
:101530001044884284BF012070470020704700009B
:10154000103F000870B50446010005D0194D286809
:1015500000F0A1FB012802D06FF00E0070BD16480C
:101560002146006800F097FB012820D0C4EBC4009E
:1015700005EB8000051D012C18BF022C17D1287A1D
:101580004FF0000100F048F9002818BF70BD2A692B
:10159000002A1FBF68690028A869002807D02046D4
:1015A000E968904718B92146034800F07BFB00200A
:1015B00070BD0000103F0008AC0500202DE9F84385
:1015C0008846044601461B481F4615464FF0FF3625
:1015D000006800F060FB01281AD1002F18BF002D11
:1015E00016D041462046FFF78FFF88B108EB050073
:1015F000411E2046FFF788FF50B10F49C4EBC400DD
:1016000001EB8000001D012C18BF022C04D00EE05D
:101610004FF0FF30BDE8F8834FF000010091D0F8A3
:1016200014C03B462A4641462046E047064630461F
:10163000BDE8F883AC050020103F00082DE9F84311
:101640008846044601461B481F4615464FF0FF36A4
:10165000006800F020FB01281AD1002F18BF002DD0
:1016600016D041462046FFF74FFF88B108EB050032
:10167000411E2046FFF748FF50B10F49C4EBC4009C
:1016800001EB8000001D012C18BF022C04D00EE0DD
:101690004FF0FF30BDE8F8834FF000010091D0F823
:1016A00018C03B462A4641462046E047064630469B
:1016B000BDE8F883AC050020103F00080148006831
:1016C00070470000B03E00080148406870470000C5
:1016D000B03E0008044801210278002A12BF4FF0F2
:1016E000FF30017000207047540000202DE9F047C2
:1016F00084B08146002908BF34490D78022D02BF0D
:101700004FF0FF3004B0BDE8F08709F0FF0691F814
:1017100001804FEA19444FF0FF3AFF2E18BF002C0A
:1017200022D0FF2D18BFB8F1FF0F1DD02848214649
:1017300030F8160000F0A2FA01281EBF6FF00E006C
:1017400004B0BDE8F0872349234A0027C869496AE5
:101750008DF8006009F0FF0302EB4306012D07D06E
:10176000C5B1032D1ED029E004B05046BDE8F08776
:10177000CDE90140194810F808008DF809006846C5
:1017800000F0D0FC0028EFD1214606F1180000F04F
:101790007EFA13E0CDE90147684600F0C3FC00285B
:1017A000E2D106E0CDE90141684600F0BBFC00282B
:1017B000DAD1214606F1180000F064FA21463046DD
:1017C00000F065FA04B03846BDE8F087C83F00086D
:1017D000B83E0008B83F0008E4050020C03F0008FC
:1017E00010B5FFF785FD040003D103A1E220FFF748
:1017F000F7FD204610BD000068616C5F6865617090
:101800005F6E657728293A206E6F206865617020C9
:10181000616E796D6F7265002DE9F047DFF8C88061
:10182000044608EB840682B077680D0008BF2F4D90
:1018300028786FF00E0A012808D0DFF8B49021460E
:1018400099F8000000F027FA012803D002B05046B2
:10185000BDE8F0872146D8F8000000F01CFA4FF0F0
:10186000FF3A4FF00008012801D067B114E00322CD
:10187000B91C2846FEF7B6FE002808BF4046E5D151
:1018800002B0BDE8F0870520FFF7AAFF00227060D4
:10189000074602707068427028887880A87838718E
:1018A00014486946C0F8009028788DF800008DF83B
:1018B000018068788DF802008DF803802046CDF80D
:1018C000048000F0ABFC0028C0D12146064800F09F
:1018D000E9F972680021084611707168487002B019
:1018E0004046BDE8F087000014060020E03F0008F5
:1018F000D03E0008580000202DE9F0411A4D044662
:101900000146286800F0C7F9002804BF4FF0FF30F7
:10191000BDE8F0812146154F386800F0BCF9012878
:101920001ED005EBC4061249B068FFF7DFFE0028A1
:1019300018BFBDE8F08121460C4800F0B3F90D480E
:1019400021464468386800F0A6F948B1307A7189B8
:1019500060F30704204661F31F40697900F044FCFE
:101960000020BDE8F0810000683F00085000002022
:10197000943E0008883E000870B504460D48214694
:1019800045680D48006800F086F9002804BF4FF054
:10199000FF3070BD094A02EBC401087A498960F33F
:1019A0000705284661F31F405179BDE8704000F0FB
:1019B0001BBC0000883E000850000020683F000863
:1019C00070B504460D48214605680D48006800F0D2
:1019D00062F9002804BF4FF0FF3070BD094A02EBE6
:1019E000C401087A498960F30705284661F31F405E
:1019F0001179BDE8704000F0F7BB0000883E000898
:101A000050000020683F000870B504460C4821468D
:101A100085680C48006800F03EF9002804BF4FF0CC
:101A2000FF3070BD084800EBC401087A498960F3B3
:101A300007052846BDE8704061F31F4000F0C2BBB7
:101A4000883E000850000020683F000800B597B0AD
:101A500002A8FFF787FA0F48029A8168914207D1DE
:101A6000C168059A914203D10069049988420DD05A
:101A7000DDE90410CDE9000107A2402106A8029B80
:101A8000FEF7FCFC06A9E020FFF7AAFC17B0002037
:101A900000BD00009C3E000868616C5F6D707520A1
:101AA00077726F6E67207370656564733A20637038
:101AB00075203D20256420687A2C2066627573208D
:101AC0003D20256420687A2C2073627573203D20A8
:101AD000256420687A00000070B50546FFF7EEFD2A
:101AE0000446FFF7F1FDA54224BF2044A8429CBF55
:101AF0004FF0FF3070BD2846BDE8704000F0B4BE26
:101B000000F0C6BE00F04EBF10B5040008BF134C75
:101B100000F094FF2168884206D011A1E320FFF76E
:101B20005FFC4FF0FF3010BD00F0EEFE61688842B0
:101B300006D016A1E320FFF753FC4FF0FF3010BD95
:101B40001D4822680260416000210172C1604FF4AB
:101B50004070FFF7D9F9002010BD0000803E00085A
:101B600068616C5F626173655F696E697469616CFD
:101B700069736528293A20696E636F7272656374B0
:101B800020737461636B2073697A650068616C5FB0
:101B9000626173655F696E697469616C69736528F8
:101BA000293A20696E636F7272656374206865619B
:101BB000702073697A6500009C0500200348006866
:101BC000C005C00D18BF01207047000004ED00E003
:101BD0000148C068704700009C0500202DE9F041D5
:101BE00006461B480D46B0FBF5F71446FFF7F0FB21
:101BF000002818BF002D26D0002E18BFFF2C22D0A1
:101C00001448C66014480068B0FBF7F0A0F1010169
:101C1000B1F1807F28BF01250BD24FF0E020416158
:101C20000E4AF02182F8141D002181610721016113
:101C300000254FF0FF30214600F068FE002D04BF64
:101C40000020BDE8F0814FF0FF30BDE8F0810000DA
:101C500040420F009C0500204C0000200FE000E0F7
:101C60000349097801291CBF0020704700F062BEBB
:101C7000043F000800F0E4BE00207047084018BF91
:101C800001207047028822EA010101807047028822
:101C9000114301807047012202FA01F1084018BF88
:101CA000012070470123026803FA01F1114301602A
:101CB000704700002DE9F0412C4E0500746808BF04
:101CC0002B4D3078012804BF0020BDE8F081287832
:101CD000FF2819D0687800F03BFBA8B1002C04BFA6
:101CE000244C746029686868A160E0600423277A46
:101CF000DA02A021D5004FF0800C052F1CD2DFE8BE
:101D000007F0070A0F0F14004FF0FF30BDE8F08115
:101D10002170638002E021702021618062600EE00A
:101D20002170A4F802C0656009E021704FF4807151
:101D300061804902616002E0217063806260A27A82
:101D4000217802F0070241EA42012170E17A032979
:101D500018BF00F007FAE17A03291CBFE06800F021
:101D600043FA012030700020BDE8F0818800002097
:101D70008C40000824060020F0B51E4E0C4683B0AF
:101D8000716836781D469446002E2ED00F7AFF2FAC
:101D900018BFBCF1000F28D0002C1CBF4E68864233
:101DA00023D92718B74284BFBE1BA41BB0F5803FC0
:101DB0009CBF2618B6F5803F17D8022666F30702A7
:101DC00060F31F42A0B2CDE900C091F800C0487A8C
:101DD000614600F083FB002D04BF03B0F0BD002876
:101DE00018BF00242C6003B0F0BD03B04FF0FF30EB
:101DF000F0BD0000880000202DE9FF4F9A4F0446F7
:101E000083B03878D7F804801546894600287DD0FD
:101E100098F808104046FF2918BF002D76D0B9F178
:101E2000000F1CBF4068A04270D909EB0401814239
:101E300084BF081AA9EB0009B4F5803F9CBF09EBE9
:101E40000400B0F5803F61D898F80B00032806D055
:101E5000411E18BF0121D8F80C0000F0C5F98248D6
:101E6000A6B21FFA89FB44686088B6FBF0F100FB5C
:101E70001162811ABBFBF0F38FB2BBFBF0F100FBE8
:101E800013BA002A73D0002970D0ABEB070189B2D6
:101E9000B1FBF0FAB1FBF0F200FB121002909FB11F
:101EA0002782022161F30702B9B2CDE9005166F33E
:101EB0001F422178607A00F04DFB0020208200F064
:101EC000C3FEF01986B23D44BAF1010087B224BFC7
:101ED000DFF894A14FF0020B1BD360882082218A87
:101EE000DAF80400CDE900516BF30702017866F3DC
:101EF0001F42407A00F02EFB0020208200F0A4FE5A
:101F0000608881198EB20544791E00E028E08FB206
:101F1000E3D2029890B120820221534861F3070274
:101F2000218A4068CDE90051017866F31F42407A6A
:101F300000F010FB0020208200F086FE98F80B10C5
:101F4000002403291CBFD8F80C0000F04DF90698B6
:101F5000002818BFC0F80090204607B0BDE8F08FF9
:101F600007B04FF0FF30BDE8F08F00E039E0002906
:101F700065D0481EDFF8F0B087B260882082022169
:101F800061F30702218ADBF80400CDE900510178F2
:101F900066F31F42407A00F0DDFA0020208200F054
:101FA00053FE608881198EB2791E05448FB2E4D247
:101FB000BAF1000FC2D0A4F810A0022161F3070209
:101FC0001FFA8AF1DBF80400CDE90051017866F3CD
:101FD0001F42407A00F0BEFA0020208200F034FE5A
:101FE000ACE7BB452BD92782022161F30702B9B2C6
:101FF000CDE9005166F31F422178607A00F0AAFA19
:102000004FF0000AA4F810A000F01EFEABEB070092
:10201000208205EB070C0225F019134965F307022E
:1020200060F31F42208A4968CDE900C091F800C0E2
:10203000487A614600F08EFAA4F810A07CE7A4F874
:1020400010A0022161F307021FFA8AF1CDE90051C5
:1020500066F31F422178607A00F07CFA002020822B
:1020600000F0F2FD6AE700008800002003484068A5
:102070008069002808BF704700470000A4000020C6
:102080000149496809690847A400002001494968D5
:1020900049690847A400002000281CBF4288002A84
:1020A00016D0A2F57F41FF391CBF00214FF0010C73
:1020B0000ED000BF0CFA01F3934304D0491CC9B2FF
:1020C0001029F7D304E0FF2902D00378092B02D9A5
:1020D0004FF0FF30704710B50279034850F82300E5
:1020E000FEF73BFE002010BDE43F0008002912BFB0
:1020F00000284FF0FF3070470A7802704A8842800B
:10210000097901714FF000007047002912BF0028C3
:102110004FF0FF3070470A780270498841604FF0F5
:1021200000007047002804BF4FF0FF30704770B5C3
:1021300010F8044B0546092C84BF4FF0FF3070BDEA
:102140000648012150F82400FEF7E8FE044829461D
:1021500050F82400FEF7B4FD002070BD14400008C4
:10216000E43F000830B5C4B283B0FF2C11BF5FEA72
:1021700010414FF0FF3003B030BD104B01AD092CC2
:10218000D3E918029B6ECDE9000202934FF0FF30B5
:102190008DF80040019184BF03B030BD0848012193
:1021A00050F82400FEF7BAFE0448294650F82400EF
:1021B000FEF786FD03B0002030BD0000E43F0008BC
:1021C00014400008C2B2FF2A12BF5FEA10414FF06C
:1021D000FF30704710B5034850F82200FEF7CEFDDF
:1021E000002010BDE43F000800F0FF0CBCF1FF0F21
:1021F00019BF5FEA104303294FF0FF3070470A1CF4
:1022000018BF012210B50448194650F82C00FEF7FB
:10221000B9FD002010BD0000E43F00082DE9F04F9B
:102220008BB00D00044608BF454D287801280CD01E
:10223000687850B9434E21464FF00008306820B10D
:102240000068FFF728FD012804D00BB06FF00E00E6
:10225000BDE8F08F3C4821460068FFF71CFD0128CF
:1022600002BF00200BB0BDE8F08F6846344F0DF17F
:10227000180A0DF10C09D7E90C12BB6BCDE900125D
:102280000293D7E90C12BB6B0593CDE903123168B9
:102290000DF1200B01EB0411091DFFF736FF30682B
:1022A00000EB041000F10C014846FFF72EFF3068E8
:1022B00000EB0410011D5046FFF718FF306800EBDB
:1022C000041000F10C015846FFF710FF6846FFF7B5
:1022D00029FF06A8FFF7E0FE03A8FFF723FF08A8E1
:1022E000FFF7DAFE07F12400012150F824603046A0
:1022F000FEF720FE01213046FEF728FE0021304681
:10230000FEF724FE07F11800696850F8240061B94F
:102310000837694697E84C108DE84C10AA780B4BAB
:102320005A430092EA78ADF80820FEF781FD214675
:102330000548FFF7B7FC0BB04046BDE8F08F000042
:10234000504000085800002084000020A0860100B2
:10235000014602480068FFF79EBC00008400002090
:102360002DE9F0430C4605460146454891B000680A
:10237000FFF791FC002811BF002C4FF0FF3011B087
:10238000BDE8F08324F001083E4850F825404FF0A6
:102390000005294620460095FEF712FD0121204642
:1023A000FEF70EFD01212046FEF713FDDFF8D89061
:1023B0004FF48037494620460097FEF7F1FC6E1E29
:1023C000A8B90098411E00910BD230A3374A402192
:1023D0006846FEF753F86946E52000F0FFFA3546F7
:1023E00049E049462046FEF7DBFC0028E9D0002200
:1023F00041462046FEF77EFD0097A08A10F0020FAE
:1024000003D10098411E0091F7D20098002808BF20
:10241000354630D026492046FEF7CFFC0121204624
:10242000FEF7E0FC0097208B10F0020F13D000980D
:10243000411E00910BD21FA31C4A40216846FEF7A3
:102440001DF86946E52000F0C9FA354613E0208BF7
:1024500010F0020FEBD12046FEF7E2FC00900021C5
:102460002046FEF7ADFC01212046FEF7A9FC012124
:102470002046FEF78CFC11B02846BDE8F083000032
:10248000840000206840000801000300735F686C4E
:102490005F6932635F6973646576696365726561FC
:1024A00064793228293A657635000000E42700086F
:1024B00000040010735F686C5F6932635F69736466
:1024C000657669636572656164793228293A4932B3
:1024D000435F464C41475F42555359002DE9F04355
:1024E0000D4683B0044601461948DDE90A76904658
:1024F00099460068FFF7CFFB002811BF002D4FF071
:10250000FF3003B0BDE8F08318F0FF0001D00328CE
:1025100004D903B06FF00E00BDE8F083002F02BFB6
:102520006FF0010003B0BDE8F083002E02BF002071
:1025300003B0BDE8F08325F00101CDE900764B46FC
:102540004246204600F0D2FB03B0BDE8F083000015
:10255000840000202DE9F04F0C4691B0054601465D
:102560009848DDE91A7690460068FFF794FB00284A
:1025700011BF002C4FF0FF3011B0BDE8F08F18F004
:10258000FF0001D0032804D911B06FF00E00BDE8A0
:10259000F08F002F02BF6FF0010011B0BDE8F08F87
:1025A000002E02BF002011B0BDE8F08F24F001041E
:1025B000854850F825504FF08070C1110290284690
:1025C000FEF719FCD0B10298411E02910FD24FF0D4
:1025D000FF347EA383A240216846FDF74FFF694682
:1025E000E52000F0FBF911B02046BDE8F08F4FF474
:1025F00000312846FEF7FFFB0028E4D14FF0000928
:10260000CDF8049001212846CDF80C90FEF7E1FBAF
:10261000DFF8ECB14FF4803A59462846CDF814A0C3
:10262000FEF7BEFB48B90598411E059117D35946E0
:102630002846FEF7B5FB0028F5D021462846019A2A
:10264000FEF758FC4FF480306E4905900391284600
:10265000FEF7A6FBC8B90598411E05910FD24FF0B1
:10266000FF3469A35FA240216846FDF707FF694672
:10267000E52000F0B3F911B02046BDE8F08F284600
:102680000399FEF78DFB0028E5D000208146044623
:102690000990059008F0FF00012802D0022807D019
:1026A0000FE04FEA18404FF001098DF8140008E0E0
:1026B0004FEA1840010A8DF814104FF002098DF806
:1026C0001500002F08BF002606EB09001FFA80F84E
:1026D000B8F1000F0DF1140A18BFDFF84CB140D06B
:1026E000B9F1000F0BD0A9F1010000F0FF09544629
:1026F000A8F101000AF1010A1FFA80F808E03EB1D2
:102700003C467F1C701E86B2A8F101001FFA80F8BB
:1027100021782846FEF7F6FB4FF4803009905946A1
:102720002846FEF73DFBC8B90998411E09910FD212
:102730004FF0FF343DA32BA240216846FDF79EFEDB
:102740006946E52000F04AF911B02046BDE8F08F57
:1027500059462846FEF724FB0028E5D0B8F1000FC3
:10276000BED10026344601212846FEF73BFB4FF43C
:1027700080300190288810F4007F0AD00198411E13
:10278000019102D24FF0FF3403E0288810F4007F5B
:10279000F4D12846FEF744FB0190002C02BF3046DE
:1027A00011B0BDE8F08F29A30EA240216846FDF7C5
:1027B00065FE6946E52000F011F911B02046BDE83C
:1027C000F08F00008400002068400008735F686C90
:1027D0005F6932635F776169745F69665F627573B1
:1027E000792829006932632074696D656F757420DA
:1027F000696E2066756E6374696F6E2025730000C4
:102800000100030082000700735F686C5F69326338
:102810005F7472616E73616374696F6E5F62656726
:10282000696E28290000000084000700735F686C4F
:102830005F6932635F77726974655F646174615F59
:10284000706F6C6C696E672829000000735F686C9C
:102850005F6932635F7472616E73616374696F6E16
:102860005F656E64282900000168084A1140B1F1D3
:10287000005F08D00068C0F30C40B0F5805F1CBF5B
:102880004FF0FF3070470020704700000000FE2F1F
:1028900070B50446194D1A4800262968006882B0B0
:1028A00081420FD00023032219462860FDF76FFDF7
:1028B000090541EA10310005124A0023FDF767FDC2
:1028C000C5E90201D5E90201A0FB042301FB0431A3
:1028D00000FB0610CDE900201146090D41EA003148
:1028E000000DCDE90010084304BF02B070BD0846DA
:1028F000FDF7EEFC02B0002070BD0000600000207B
:102900004C00002040420F00FDF7DEBCFF2908BF4D
:10291000704740B20907090E0028A2BF00F1E0206D
:1029200080F80014704700F00F0000F1E02080F8FC
:10293000141D7047002808BF704730B490F800C0DD
:10294000174D0023154C2905BCF1000F13D0226848
:1029500012F0010F1CBF2A6812F0010F04D00A68A0
:10296000002AFCD081F800C010F801CF03F1010368
:10297000BCF1000FEBD120684FF00A0210F0010FFC
:102980001CBF286810F0010F03D008680028FCD095
:102990000A7030BC03F1010070470000800E00E0B7
:1029A000000E00E001680C4A1140B1F1005F08D050
:1029B0000168C1F30C41B1F5805F1CBF4FF0FF30DF
:1029C000704708B541680091006880F3088888471F
:1029D0004FF0FF3008BD00000000FE2F30B421B3DF
:1029E000154D0C78DFF84CC02A0584B1DCF80030B6
:1029F00013F0010F1CBF2B6813F0010F03D01368F5
:102A0000002BFCD0147011F8014F002CEED1DCF833
:102A100000100A2311F0010F1CBF296811F0010FEB
:102A200003D011680029FCD01370F02804BF30BC1B
:102A30007047FEE7800E00E0000E00E0FDF740BCAE
:102A40000849094AD1E90001126810186FF0010223
:102A500041F1000142400A4304BF4FF0FF300146FC
:102A600070470000107AFF1F187AFF1F70B5FEF73D
:102A70003BFB0D4D28680446FFF774FB686805466C
:102A8000FFF770FB094E01212046FFF7ADFB002147
:102A90002846FFF7A9FB3046FFF7FAFE2846BDE8B7
:102AA00070400121FFF7A0BBB03F0008B0AD0100AE
:102AB0004348012586B0017801290DD005704148B1
:102AC0000068FEF7B9FCFEF709FD0020FFF7D4F817
:102AD00000210120FEF736FDFF243B498DF804401C
:102AE0008DF81040D1E90001CDE90201FEF7EEFBBF
:102AF00088B902A8FEF796FB68B934490020FEF7B2
:102B0000F1FB40B9FFF7B6F8314AC2E90C011046B3
:102B1000FEF786FB18B15021142000F0ABFB04A88F
:102B2000FEF7DCFB00281CBF0120FEF7D9FB01A843
:102B3000FEF7CEFB00281CBF0120FEF7CBFB8DF873
:102B4000044001A8FEF7B6FB80B9FEF7B1FB9DF883
:102B50000400012804BF0120FEF7AEFB4FF0FF3157
:102B60009DF8040000F0DCFAFEF7A2FB00200290C2
:102B700002A8FEF7A5FB48B9FEF7A0FB0298FEF7F6
:102B8000B3FB002804BF0298FEF7B0FB8DF80040AD
:102B90006846FEF7A3FBB0F1FF3F08BF8DF8005079
:102BA0004FF0FF319DF8000000F0BAFA4FF0FF310E
:102BB000012000F0B5FA1421502000F05BFB00006A
:102BC0000000002048000020E83C00080002000847
:102BD00008000020FDF7B4BB0121FDF79DBB0846AE
:102BE000FFF768B830B49C46144608462146029B5D
:102BF00030BC6246FFF7C0B830B49C461446084665
:102C00002146029B30BC6246FFF7F6B8FDF798BB41
:102C10000121FDF781BB000010B5044600291CBF4F
:102C20000846FFF71DF8F02C08BF10BD0021022058
:102C3000FEF762FE034C2046FEF762FF0220FEF71D
:102C4000E3FEF8E720A1070010B5134890B04468F0
:102C50004FF4967000902178607AFFF781FB00288E
:102C600017D00098411E00910DD20CA317A240214D
:102C70006846FDF703FC6946E520FFF7AFFE10B09C
:102C80004FF0FF3010BD2178607AFFF769FB002814
:102C9000E7D110B0002010BD88000020735F686C81
:102CA0005F636869705F78785F656570726F6D5F8C
:102CB00077616974656570726F6D7374616E64625B
:102CC000797374617465282900000000656570726D
:102CD0006F6D2074696D656F757420696E206675FF
:102CE0006E6374696F6E2025730000002DE9FF4F3D
:102CF000F74991B0174651F820404FF08070C1114C
:102D000000902046FEF777F84FF0FF36C8B10099E3
:102D10004A1E00920ED2EF4B402103F11802684682
:102D2000FDF7ACFB6946E520FFF758FE15B03046CD
:102D3000BDE8F08F4FF400312046FEF75CF8002824
:102D4000E5D117F0FF0F00F0BB804FF0000BD94624
:102D5000129D01212046CDF804B0FEF73AF8DFF8C5
:102D600078A34FF4803851462046CDF80080FEF716
:102D700017F848B90098411E009127D351462046C4
:102D8000FEF70EF80028F5D05A4629462046FEF7F1
:102D9000B1F8D2492046CDE90081FEF701F848B9E3
:102DA0000098411E009111D320460199FDF7F8FFCC
:102DB0000028F5D00025F8B2AA46CDF80490CDF849
:102DC0000090012811D0022814D01AE0C44B4021F1
:102DD000A3F124026846FDF751FB6946E520FFF7A1
:102DE000FDFD15B03046BDE8F08F0125380C8DF89B
:102DF000000006E00225380C010A8DF800108DF85D
:102E000001002F00E94618BFDFF8D8B22ED035B147
:102E1000681EC5B2CA46781E09F1010987B29AF840
:102E200000102046FEF76EF859462046CDF8048083
:102E3000FDF7B6FFC0B90198411E01910ED2AA4B11
:102E40004021A3F148026846FDF718FB6946E520DA
:102E5000FFF7C4FD15B03046BDE8F08F5946204657
:102E6000FDF79EFF0028E6D0002FD0D100250121DC
:102E70002046FDF7B7FFCDF80080208810F4007FD2
:102E80000AD00098411E009102D24FF0FF3503E0B6
:102E9000208810F4007FF4D12046FDF7C1FF009098
:102EA00075B1924B4021A3F168026846FDF7E6FA3E
:102EB0006946E520FFF792FD15B02846BDE8F08F82
:102EC000DDE91E510020129B894A00904FF6FF7CDD
:102ED000019001290CD002294AD0CDF804C02088E5
:102EE00040F480702080A08A10F0010F7ED095E021
:102EF000CDF804C0208840F480702080A08A10F0B3
:102F0000010F07D10198411E019170D3A08A10F0E2
:102F1000010FF7D043F00100107010782082CDF837
:102F200004C0A08A10F0020F07D10198411E019140
:102F30005DD3A08A10F0020FF7D0208820F48060C3
:102F4000208072B6208B0090208840F40070208092
:102F500062B6A08A10F0400FFBD0208A287020882B
:102F600010F4007FFBD1208840F48060208081E055
:102F7000208840F400602080CDF804C0208840F410
:102F800080702080A08A10F0010F07D10198411EA7
:102F900001912CD3A08A10F0010FF7D043F001006B
:102FA000CDF804C0107010782082A08A10F0020FB3
:102FB00007D10198411E01917BD3A08A10F0020F26
:102FC000F7D072B6208B0090208820F4806020809B
:102FD00062B6A08A10F0040FFBD072B60121204621
:102FE000FDF700FF208A287062B601E00EE060E085
:102FF000208A6870208810F4007FFBD1208840F47C
:1030000080602080208820F4006032E00198471E14
:1030100001974ED3A08A10F0010FF7D043F00100C2
:10302000CDF804C0107010782082A08A10F0020F32
:1030300007D10198421E01923BD3A08A10F0020FE3
:10304000F7D0208B009069B1032917D0A08A10F027
:10305000040FFBD0208A491E05F8010B03290DD06F
:103060000029F1D1208810F4007FFBD1208840F4A2
:103070008060208015B00020BDE8F08FA08A10F09D
:10308000040FFBD0208820F48060208072B6208A54
:1030900005F8010B208840F400702080208A05F894
:1030A000010B62B6A08A10F0400FFBD0208A287076
:1030B000D8E710A3194A40216846FDF7DFF96946B1
:1030C000E520FFF78BFC15B03046BDE8F08F00001F
:1030D00068400008CC2700080100030082000700B8
:1030E00008280008840007002C2800084C28000845
:1030F00080000020735F493243526F7574696E65BA
:10310000735F4932435F4D61737465725F427566E8
:10311000666572526561642829000000E427000892
:10312000F0B585B04FF0FF360D4604460396FF28F4
:1031300070D034B103A9FEF7CFF8B0F1FF3F6BD0E8
:1031400073E000208DF808000A25012709260F22C8
:103150004FF47A714348FEF741FD00210846FEF71F
:10316000CBFB00210120FEF7C7FB00210220FEF768
:10317000C3FB00210320FEF7BFFB00210420FEF764
:10318000BBFB00210520FEF7B7FB082202A9684619
:10319000FEF79AF828B99DF800709DF80160FEF7D7
:1031A00091F8314C642017FB00F716FB00F6002065
:1031B0006D1EFEF705FC0120FEF702FC0220FEF763
:1031C000FFFB0320FEF7FCFB0420FEF7F9FB0520C4
:1031D000FEF7F6FB606861680A1ABA42FBD300206A
:1031E000FEF7CAFB0120FEF7C7FB0220FEF7C4FB77
:1031F0000320FEF7C1FB0420FEF7BEFB0520FEF70F
:10320000BBFB606861680A1AB242FBD3002D08BF9D
:103210000A25CCE714E0FFE7012C08BF13481ED0B5
:10322000022C14BF0396124819D00398B0F1FF3F47
:1032300006D0FEF759F8002804BF0398FEF756F8A9
:10324000B5F1FF3F04BF05B0F0BD2846FEF74CF8CE
:10325000002804BF2846FEF749F805B0F0BD0390EA
:10326000E3E70000CD3C00080000002000800008DB
:1032700000000208304C06460D46207801280ED08A
:10328000012020702D480068FEF7D6F8FEF726F9D9
:103290000020FEF7F1FC00210120FEF753F9002188
:1032A0000846FEF729FB00210120FEF725FB00213F
:1032B0000220FEF721FB00210320FEF71DFB002169
:1032C0000420FEF719FB00210520FEF715FB0F2255
:1032D0004FF47A711A48FEF781FC0020FEF770FB6C
:1032E0000120FEF76DFB0220FEF76AFB0320FEF7CC
:1032F00067FB0420FEF764FB0520FEF761FB6268B4
:103300006068811AB142FBD30020FEF735FB012033
:10331000FEF732FB0220FEF72FFB0320FEF72CFB0B
:103320000420FEF729FB0520FEF726FB6268606893
:10333000811AA942FBD3D0E70000002048000020FA
:10334000CD3C0008FEE750211420FFF793FF00005A
:1033500070B5054608202874042000266874AE74F1
:10336000EE74FF2129753446697505F11C00FDF7DF
:1033700033FF711E69622748A861EC8205EB861253
:10338000701C9462D462146354639463D4631464B1
:1033900054649464D464146554659465D465146667
:1033A000C6B25466082EE9D35FF0000005EB801228
:1033B000401CC2F82842C2F82C42C2F83042C2F87F
:1033C0003442C2F83842C2F83C42C2F84042C2F825
:1033D0004442C2F84842C2F84C42C2F85042C2F8D5
:1033E0005442C2F85842C2F85C42C2F86042C0B2CD
:1033F000C2F864420428D9D30749284600F01AF8D5
:1034000029462C70BDE870404FF44A72034800F022
:1034100059B90000404B4C00303E0008483E0008BF
:1034200010B502220830FDF7DDF8002814BF002097
:10343000012010BD0023036000F108024360D1E9C0
:103440000001C2E900017047F8B5174907460C466C
:1034500016480222FDF7C6F8154E002530B9B07A9D
:10346000A178884202BF002F0020F8BD4FF0FF0076
:103470008DF800004FF000014FF00100FEF762F8F8
:103480008DF800009DF800008DF8000008480649FE
:1034900000F1080205604560D1E90001C2E90001C0
:1034A00035700020F8BD0000603D0008C8FF012015
:1034B000C0FF0120094808490023036000F1080209
:1034C0004360D1E90001C2E9000104480374FF210F
:1034D0004174184670470000603D0008C0FF01209D
:1034E00070B50C4C05460C4821460222FDF77AF8CF
:1034F00038B90A48A278817A914204BF017C012937
:1035000002D04FF0FF3070BD407C28704FF00000BB
:1035100070BD0000603D0008C8FF0120C0FF012011
:103520000A49094A4FF0000CC1F800C001F1080334
:10353000C1F804C0D2E90012C3E900120349012214
:103540000A74487460467047603D0008C0FF01205F
:103550000948084A0021016000F108034160D2E9EE
:103560000002C3E90002044880F8231041620846C3
:1035700070470000603D0008C0FF012070B50C4C92
:1035800005460C4821460222FDF72CF840B90A48AE
:10359000A278817A914204BF90F82310012902D0C9
:1035A0004FF0FF3070BD406A28604FF0000070BDE2
:1035B000603D0008C8FF0120C0FF01200B4810B586
:1035C000094A0021016000F108034160D2E90002CC
:1035D000C3E9000205488174C1740F211430FDF75E
:1035E000ACF8002010BD0000603D0008C0FF0120C5
:1035F0002DE9F041114D14460E4607461048294664
:103600000222FCF7EFFF38B90E4BA978987A88426E
:1036100004BF987C012803D04FF0FF30BDE8F08153
:10362000D87CA04238BFDC7C3470224603F1140100
:103630003846FDF703F80020BDE8F081603D000842
:10364000C8FF0120C0FF012000207047F8B50446E4
:10365000FF2016460F468DF80000174917480D4603
:103660000222FCF7BFFFB0B91548A978807A8842DA
:1036700011D184B12068B6EB900F0CD810F0030F75
:103680001CBF00F00301012905D04FF0030131EA0E
:10369000000003D00EE04FF0FF30F8BD3B4632464D
:1036A00001206168FDF78AFF8DF800009DF8000099
:1036B0008DF800000020F8BD603D0008C8FF012023
:1036C000C0FF01202DE9F8434FF0FF36174688462A
:1036D00004468DF80060194919480D460222FCF78E
:1036E00081FFC0B91748A978807A884213D194B174
:1036F0002068B7EB900F0ED810F0030F0BD000F03E
:103700000301012908BF8DF8006014D0032131EABC
:10371000000004D00FE04FF0FF30BDE8F8834346CF
:103720003A4601206168FDF789FF8DF800009DF899
:1037300000008DF800000020BDE8F883603D00081F
:10374000C8FF0120C0FF012010B5FEF7C5F9002811
:1037500018BF4FF0FF3010BD10B50446FEF7BCF99E
:1037600000281CBF4FF0FF3010BD2046FEF7CAF9FD
:103770004FF0FF3010BD00002DE9F041164D04461A
:10378000287820B9502229461448FFF75FFF01200E
:103790002870114D4022214605F11000FCF722FF50
:1037A000B8B1B4E8CF111035A5E8CF1194E8DF1017
:1037B00085E8DF10303D0A492846FFF73BFE002030
:1037C0002870294650220548FFF77CFF012000F0B1
:1037D00009F80020BDE8F081F0000020A03D0008BD
:1037E000F03D00082DE9F0411D4C0646207828B92F
:1037F0004FF4887221461B48FFF728FF01272770E6
:10380000174CA4F1500804F1100598F8000028B9ED
:103810005022A4F150011448FFF718FF88F80070F7
:103820001248D0E910232846FDF7DEFC002525626A
:103830006562012E05D004F12800FF22E821FCF783
:1038400074FF0B492046FFF7F5FD214625704FF424
:1038500088720448FFF736FF2846BDE8F081000073
:1038600040010020A83D0008A03D0008F000002015
:10387000F03D00082DE9F05FFFF7E6FEB0F1FF3FF5
:1038800008BFBDE8F09F0020FFF7DEFD50212A4869
:10389000FCF753FF284C00252570207820B95022D2
:1038A00021462648FFF7D2FE01262670224C244FDF
:1038B00020463946FFF7B4FD012803D1A07AB97834
:1038C000884216D01F4A04F11000B2E88A1FA0E80F
:1038D0008A1F92E88E1780E88E0719493038C4F89D
:1038E0004CC0FFF7A7FD2146257050221348FFF773
:1038F000E9FE4FF488711448FCF71FFF124C257045
:10390000207828B94FF4887221461048FFF79EFEB0
:1039100026700D4C0A4D20462946FFF781FD0128EF
:1039200003D1A07AA978884202D00120FFF75AFF7C
:103930000020BDE8F09F0000F0000020A03D00083E
:10394000F03D0008B03D000840010020A83D0008FF
:1039500070B5FFF779FEB0F1FF3F08BF70BD0020E2
:10396000FFF772FD4FF44A711048FCF7E6FE0F4C6A
:1039700000202070207828B94FF44A7221460C4864
:10398000FFF764FE01202070084C0A4D20462946AE
:10399000FFF746FD012803D1A07AA978884202D01A
:1039A0002046FFF7D5FC002070BD0000500200202B
:1039B000483E0008303E00082DE9F843284F0546F0
:1039C0000C463878274E30B94FF44A72394606F122
:1039D0001800FFF73BFE012038700097082D07D232
:1039E00034B194F90100A84204BF2078022803D022
:1039F0004FF0FF30BDE8F88307EB8510B4E8AE1355
:103A000000F12800A0E8AE1394E8BE1180E8BE11D2
:103A1000009C4FF0000704F11C00A77405464FF00E
:103A2000FF01FDF7D9FB00215FF0080004EB8112D4
:103A300092F8282022B1A27C5155A27C521CA2747B
:103A4000401E491C10F0FF00F0D100994FF44A725B
:103A500006F118000F70FFF735FE0020BDE8F8836F
:103A600050020020303E000838B50B4C0546207847
:103A700028B94FF44A7221460848FFF7E7FD0120B4
:103A800020700094207D28700098007DFF280CBFD6
:103A90004FF0FF30002038BD50020020483E0008A3
:103AA000F8B50F4C054620780E4E30B94FF44A72E7
:103AB000214606F11800FFF7C9FD0120207000948F
:103AC000207DA84209D02575009900204FF44A7244
:103AD000087006F11800FFF7F5FD0020F8BD0000A2
:103AE00050020020303E0008F8B5144E04460D4642
:103AF000307828B94FF44A7231461148FFF7A6FDD5
:103B00000120307033460096082C13D293F812C06F
:103B10000022BCF1000F0DD99818017FA14205D1F8
:103B200003EB8410006B28600020F8BD501CC2B26B
:103B30009445F1D84FF0FF30F8BD0000500200204E
:103B4000483E00082DE9F84F224F04460D463878CC
:103B5000214E30B94FF44A72394606F11800FFF78A
:103B600075FD012038703B460097082C12D2987CD6
:103B7000002200280ED9991891F81CC02146A445AE
:103B80000CD1002235B195F90100A04204BF28787C
:103B9000022809D04FF0FF30BDE8F88F02F1010193
:103BA000CAB29042E7D8F5E703EB8110B5E89A175F
:103BB0002830A0E89A1795E8BA1380E8BA1300995C
:103BC00006F118000A704FF44A72FFF77BFD0020DF
:103BD000BDE8F88F50020020303E000838B50B4C8D
:103BE0000546207828B94FF44A7221460848FFF765
:103BF0002DFD012020700094607D28700098407D8C
:103C0000FF280CBF4FF0FF30002038BD50020020CD
:103C1000483E0008F8B50F4C054620780E4E30B9E6
:103C20004FF44A72214606F11800FFF70FFD0120FC
:103C300020700094607DA84209D06575009900202D
:103C40004FF44A72087006F11800FFF73BFD0020A0
:103C5000F8BD000050020020303E0008F8B5194EB3
:103C600004460D46307828B94FF44A72314616485A
:103C7000FFF7ECFC01203070334620460096082CFC
:103C80001BD293F812C00022BCF1000F15D999186D
:103C9000097F81420DD103EB841040222946283050
:103CA000FCF7A0FC18B129462046FFF74BFF002087
:103CB000F8BD511CCAB29445E9D82946FFF77CFEED
:103CC000F5E7000050020020483E00080248416825
:103CD000491C416070470000000000204FF0407018
:103CE000E1EE100A704700004733000801000000B1
:103CF000192C00080000000000000000D92B00086B
:103D0000D52B0008000000000020000000A00000EB
:103D1000453300080000000003010000001F000000
:103D200004000300DDB716020000100800000000C8
:103D3000C0FF012040000000032000000018000028
:103D40000073686172534552560000000000000085
:103D50000000000000000000000000000000000063
:103D600004100300DDB71602000000000000000090
:103D7000C0FF012040000000000000000000000023
:103D8000007368616C424153450000000000000070
:103D90000000000000000000000000000000000023
:103DA00043010000001C000043040000501C000000
:103DB00001110000D01701000000000800001000F1
:103DC000000000200000020003800000000000004E
:103DD0000064756D6D7900000000000000000000B7
:103DE00000000000000000000000000000000000D3
:103DF00004300300DDB716020000000000000000E0
:103E00000000000000000000030C0000001C000087
:103E1000007368616C494E464F00000000000000CE
:103E20000000000000000000000000000000000092
:103E300004200300DDB7360200000000000000008F
:103E40000000000000000000031000000018000047
:103E5000007368616C504152540000000000000083
:103E60000000000000000000000000000000000052
:103E7000000000000000000001020304060708091A
:103E80000000000000000000FF000000FF00000034
:103E9000FF0000000101000000000000010102001D
:103EA000007A030A007A030A00BD010580DE800261
:103EB0000000000800001000FFFFFFFFFFFFFFFFF2
:103EC000FFFFFFFFFFFFFFFFFFFF000000000000FC
:103ED0000500000001004000040000000100800017
:103EE00004000000FF000000FFFFFFFFFF000000D4
:103EF000FFFFFFFF07008000040000000700000133
:103F000004000000010003000001030000040000A1
:103F10000200000000000008000000000000000097
:103F20000000000000000000000000000000000091
:103F3000000000000020000000000000063F000814
:103F4000DF2B0008E52B0008F92B0008000000001B
:103F50000000000000000000000000000000000061
:103F600000000000000000000F0000000001000041
:103F700007000400FFFFFFFF07000800FFFFFFFF2F
:103F800007001000FFFFFFFF07002000FFFFFFFFFB
:103F9000FF000000FFFFFFFFFF000000FFFFFFFF2B
:103FA000FF000000FFFFFFFFFF000000FFFFFFFF1B
:103FB0000200000102000002FF000000FF000000FC
:103FC00000000102030000000101000000000000E9
:103FD00000000000010000000000000003000000DD
:103FE00000040000000002400004024000080240FB
:103FF000000C024000100240001402400018024071
:10400000001C0240002002400000000000000000F0
:104010000000000001000000020000000400000099
:104020000800000010000000200000004000000018
:1040300080000000000100000000000000000000FF
:1040400000000000FF00000000000000010200016D
:104050000000040000000000801A06000000FFBFFE
:1040600000000004004000000054004000580040E0
:10407000005C0040000020000000400000008000C4
:10408000FF00000000000000020201000000000329
:10409000FF00000068616C5F636F72655F696E6945
:1040A000742829206E6F742063616C6C65642079BC
:1040B0006574206F722068616C5F636F72655F73F7
:1040C00074617274282920616C726561647920635F
:1040D000616C6C6564000000F8400008000000207E
:1040E000AC000000C4010008A4410008AC0000209E
:1040F000F4C50000E001000800000000000000001E
:1041000001220100E06786010000000800001000A5
:1041100000000020000002000380000000000000FA
:10412000076D6332706C75730000000000000000C2
:10413000000000000000000000000000000000007F
:10414000F03C0008007A030A0000000000000000B4
:10415000000000000000000000000000000000005F
:104160000024F4000000000000000000010203042D
:104170000102030406070809000000000000000017
:10418000000000000000000000000000000000002F
:10419000000000000000000000000000000000001F
:0441A000000000001B
:040000050800018965
:00000001FF
