:020000040000fa
:080000000001040000000000f3
:020000040000fa
:10000800ea3500005c3b0000603b0000643b0000f8
:10001800683b0000ea350000ea350000ea350000d8
:10002800ea350000ea350000ea350000bc050000aa
:10003800ea350000ea350000c8050000ea3500008e
:10004800ea350000ea350000ea350000fe3a000013
:10005800ea350000ea350000ea350000ea3500001c
:10006800ea350000ea350000ea350000ea3500000c
:10007800ea350000ea350000ea350000ea350000fc
:10008800ea350000ea350000ea35000030060000d5
:10009800ea350000ea350000ea350000ea350000dc
:1000a800ea350000ea350000ea350000ea350000cc
:1000b800ea350000ea350000ea350000ea350000bc
:1000c800ea350000ea350000ea350000ea350000ac
:1000d800ea350000ea350000ea350000ea3500009c
:1000e800ea350000ea350000ea350000ea3500008c
:0800f800ea350000ea350000c2
:020000040000fa
:10010800ea3500006c3b0000703b0000743b0000c7
:10011800783b0000ea350000ea350000ea350000c7
:10012800ea350000ea350000ea350000bc050000a9
:10013800ea350000ea350000c8050000ea3500008d
:10014800ea350000ea350000ea350000fe3a000012
:10015800ea350000ea350000ea350000ea3500001b
:10016800ea350000ea350000ea350000ea3500000b
:10017800ea350000ea350000ea350000ea350000fb
:10018800ea350000ea350000ea35000030060000d4
:10019800ea350000ea350000ea350000ea350000db
:1001a800ea350000ea350000ea350000ea350000cb
:1001b800ea350000ea350000ea350000ea350000bb
:1001c800ea350000ea350000ea350000ea350000ab
:1001d800ea350000ea350000ea350000ea3500009b
:1001e800ea350000ea350000ea350000ea3500008b
:0801f800ea350000ea350000c1
:020000040000fa
:100200002fb920000eff20000e0188000000000022
:100210000c000700609e2300010020001100070071
:10022000000020000000e000020032000000020098
:10023000000000009c120200000000000040da00f4
:100240000000fe004440a900c00920000000e000ba
:100250000300320000002000a00188004440a800f4
:100260000000060091018800800078000000eb008b
:1002700015003700e280400032a0b4009101ba00be
:10028000e280400032a0b4009102ba00e280400057
:1002900032a0b4000002eb00472bde00f507b200ed
:1002a000602ce10004003a000059eb008301e900f2
:1002b000fdff3e00040037006128e100010032002c
:1002c0000082eb00040007001101ba000200e00008
:1002d000e8ff3a00000006003159ba008301e90046
:1002e0000c0032002159ba008301e90008003200f5
:1002f0000400e00003003a00e280400032a0b400b5
:10030000f5ff370011d9ba008301e900faff3a007e
:100310008100e800e180400032a0b4000000060047
:1003200000000000000000000000000000000000cd
:1003300000000000000000009183a80000000600fb
:10034000901c8800a11c88000000060080407800f6
:10035000e1cf50000b003200e2cf50000e0032001f
:100360000040eb00e0cf500011003a00721b80000b
:100370006801610010c0b3000d0032000140780038
:1003800000000600f21a8000680161000140780058
:1003900005003a0006003700711a8000e88060000e
:1003a00010c0b300020032000040eb000000060065
:1003b00000000600e1cf520008003200e2cf5200f8
:1003c0000a003200001b8800131b8800221b8800d3
:1003d0000000eb000481fb0012003700801a880047
:1003e000931a8800a21a8800f9ff3700001a8800c3
:1003f000131a8800221a8800f5ff370063352000a1
:10040000e1cf52000400320063362000e2cf5200f8
:1004100001003a0063342000917178000000e80088
:100420008100e800820f5000f4ff35006f42620047
:10043000e1cf520003003200e2cf520013003a0035
:10044000090037006f0062004300dd00a41a80003d
:1004500071f82f000102620000027200a41a8800e5
:100460005e63a800000006006f0062004300dd002c
:10047000241a800071f82f0001026200000272004d
:10048000241a88004e63a800000006006f00620076
:100490004300dd00241b800071f82f000102620080
:1004a00000027200241b88006e63a8000000060092
:1004b0000002fb00cfa2de00e50f5200e08f5a00e1
:1004c0001b003e00046001001900370004003700e3
:1004d000070037000a0037000d0037001000370012
:1004e0004118880053188800621888000000060030
:1004f0008118880093188800a21888000000060060
:10050000c1188800d3188800e2188800000006008f
:1005100001198800131988002219880000000600bc
:1005200041198800531988006219880000000600ec
:10053000011888001318880022188800000006009f
:10054000e04f500006003200e14f500004003a0036
:10055000c1198800d3198800e2198800000006003c
:100560008119880093198800a219880000000600ec
:10057000801c880000000600e04f5000040032009c
:10058000e14f500002003a00f11b88000000060015
:10059000711c880000000600e14f5000030032008b
:1005a000e24f500005003a0002003700f11a8800bf
:1005b00000000600711a880000000600711b880008
:1005c000000006009623ef008760a900c01c880089
:1005d000678160004c11dd0003058000f0ff2800fa
:1005e000008061000200700000058800e880600063
:1005f000c308de00e1806000cb08dd0070048000ed
:1006000000b0a10001007000700488000000060026
:100610008460a900670160004c11dd00a304800024
:10062000f1ff28008180610082807000a1048800b1
:1006300068006000610480000130a10080807000cb
:10064000610488000000060084c0a9006701600002
:100650004811dd00b3048000f18f2f00818061001c
:1006600082807000b104880068006000c300de0072
:10067000e1806000c608dd00600480000060a10029
:100680000100700060048800000006000021ef00f7
:100690001108880020088800000006000621ef00ed
:1006a00061088800800888001061a9000000060029
:1006b00000088800000006003008880000000600de
:1006c0003200f800910188000008bb0041042400ba
:1006d0006210e10004003200000220000010e1007e
:1006e0000a003a0051042400013b88000500fc0088
:1006f00051052000313b8800a10a2000313b8800d1
:1007000061e7a80000000000000000003200f900ce
:10071000000006003200f80060042400003b88005e
:10072000f2ff37003200f8009101880041002400f8
:10073000013b88000208bb00ecff37003200f800e4
:100740009101880051002400013b88000301200032
:100750003218bb008301e900fdff3a00e3ff3700d8
:100760003200f800023b8800910188000008bb00bd
:100770000500fc0051052000313b8800a10a200043
:10078000313b880061e7a800000000000000000085
:100790003200f900000006000400a100010037004b
:1007a0000400a0003200f80091018800110024002c
:1007b000013b8800f10f20003208bb000400a700b5
:1007c000b20078000198bb008301e900faff3a000b
:1007d000680151000400a700680151006800500042
:1007e0001208bb00e2ff3700f30f20003200f800d0
:1007f0009101880031002400013b88000208bb0001
:100800000388bb00daff37003200f800003b8800a5
:10081000d7ff37003200f80091018800800278008d
:1008200062004000e08048003549ba003204e00030
:100830000410a700100032008301e9000e0032000e
:100840002549ba003204e0000410a7000a00320073
:100850008301e900080032000408a300eeff320023
:1008600015c9ba003204e0000410a70002003200eb
:100870008301e900e8ff3a003200f90000000600b9
:020000040000fa
:100880002c2d00002e2f000000360000000000007c
:1008900018360000000000003036000000000000a4
:1008a0004836000000000000603600000000000034
:1008b00078360000000000009036000000000000c4
:1008c000a836000000000000c03600000000000054
:1008d000d836000000000000f036000000000000e4
:1008e0000837000000000000203700000000000072
:1008f0003837000000000000503700000000000002
:100900006837000000000000803700000000000091
:1009100086370000000000008c3700000000000057
:10092000923700000000000098370000000000002f
:100930009e37000000000000a43700000000000007
:10094000aa37000000000000b037000000000000df
:10095000b637000000000000bc37000000000000b7
:10096000c237000000000000c8370000000000008f
:10097000ce37000000000000d43700000000000067
:10098000da370000000000004600000060000000b0
:100990005300000026000000260000004600000072
:1009a000000000002d0000004d000000a400000029
:0809b000000000004d000000f2
:020000040000fa
:1009b800881f78000004eb00881f78002792200029
:1009c80006fa2f000703430005fa2f00868242002b
:1009d80024802000c3c0b300b2002000c1c2b3000d
:1009e800084078002e100700881f7800a793200081
:1009f80006fa2f000703430005fa2f0086824200fb
:100a080004fa2f0005024200c3c0b300b200200060
:100a1800d1c2b3000840780021100700881f780071
:100a28002795200006fa2f000703430005fa2f0038
:100a38008682420004fa2f0005024200c3c0b300b8
:100a4800b2002000e1c2b30008407800141007008b
:100a5800881f7800a796200006fa2f000703430096
:100a680005fa2f008682420004fa2f000502420090
:100a7800c3c0b300b2002000f1c2b3000840780040
:100a880007100700e88757004f04780000000600a9
:100a9800881f78000004eb00881f78002792200048
:100aa80006fa2f000703430005fa2f00868242004a
:100ab8002480200023c0b300b2002000c1c2b300cc
:100ac80008407800f60f0700881f7800a7932000d9
:100ad80006fa2f000703430005fa2f00868242001a
:100ae80004fa2f000502420023c0b300b200200020
:100af800d1c2b30008407800e90f0700881f7800ca
:100b08002795200006fa2f000703430005fa2f0057
:100b18008682420004fa2f000502420023c0b30077
:100b2800b2002000e1c2b30008407800dc0f0700e3
:100b3800881f7800a796200006fa2f0007034300b5
:100b480005fa2f008682420004fa2f0005024200af
:100b580023c0b300b2002000f1c2b30008407800ff
:100b6800cf0f0700e88757004f0478000000060001
:100b7800801f780010c0b30000e8b7008460a900a7
:100b88004f007800004006003600f800809fbe0045
:100b9800829fbe00849fbe00869fbe00881f78008b
:100ba80010c0b30001e8b70058cbbf0022003200e4
:100bb800e05b80004800de006cebb700e05b800083
:100bc8006debb700f05b80004800de006eebb7000d
:100bd800f05b80006febb700005c80004800de002f
:100be80070ebb700005c800071ebb70018c0b30071
:100bf80008407800d3fd0700e04f5000fcff3200aa
:100c0800d25a80004210dd00c00fb200017c2000e3
:100c180081006100c508dd000100700015c0b30047
:100c280064c0b300c1b62000821f2000030020006a
:100c3800defd0700a022a80084c0a9004f047800a8
:100c48004f03be004f02be004f01be004f00be0062
:100c58003600f900004006003600f800809fbe000c
:100c6800829fbe00849fbe00869fbe009643ab0055
:100c780004003a009663ab0002003a009683ab008a
:100c8800010032004f1107009603ab0002003a0042
:100c98009623ab0001003200661107008760a900a7
:100ca8004f03be004f02be004f01be004f00be0002
:100cb8003600f90000400600881f78000004eb00a9
:100cc800881f78002792200006fa2f0007034300a8
:100cd80005fa2f00868242002480200013c0b3004a
:100ce800b2002000c1c2b300084078006c0f0700b2
:100cf800881f7800a793200006fa2f0007034300f7
:100d080005fa2f008682420004fa2f0005024200ed
:100d180013c0b300b2002000d1c2b300084078006d
:100d28005f0f0700881f78002795200006fa2f001c
:100d38000703430005fa2f008682420004fa2f00b9
:100d48000502420013c0b300b2002000e1c2b300a4
:100d580008407800520f0700881f7800a7962000e7
:100d680006fa2f000703430005fa2f008682420087
:100d780004fa2f000502420013c0b300b20020009d
:100d8800f1c2b30008407800450f0700e887570014
:100d98004f04780000000600881f78000004eb006c
:100da800881f78002792200006fa2f0007034300c7
:100db80005fa2f00868242002480200033c0b30049
:100dc800b2002000c1c2b30008407800340f070009
:100dd800881f7800a793200006fa2f000703430016
:100de80005fa2f008682420004fa2f00050242000d
:100df80033c0b300b2002000d1c2b300084078006d
:100e0800270f0700881f78002795200006fa2f0073
:100e18000703430005fa2f008682420004fa2f00d8
:100e28000502420033c0b300b2002000e1c2b300a3
:100e3800084078001a0f0700881f7800a79620003e
:100e480006fa2f000703430005fa2f0086824200a6
:100e580004fa2f000502420033c0b300b20020009c
:100e6800f1c2b300084078000d0f0700e88757006b
:100e78004f04780000000600000006002f04b000b0
:100e8800889fbe008a9fbe008c9fbe008e1f780080
:100e98000860230009002000120424000800be0096
:100ea8002dfe07000805be000a04b0000b80b00044
:100eb800120424000a00be0027fe07000a04b0003e
:100ec8000b80b000120424000a00be0022fe0700b6
:100ed8000a04b0000b80b000120424000a00be000f
:100ee8001dfe07000a04b0000b80b00012042400a5
:100ef8000a00be0018fe07000a00be000004b00089
:100f08000180b0001204240013fe07008c81200029
:100f18000d1820008c8646000000eb000b02200014
:100f28000007eb000c05780080004000dcb197005a
:100f380022fb2f000f01410003b178000000e800f8
:100f48008b0f50000b003a008b0178000800be00a0
:100f58000ffe07000804b0000980b0006cb09700cd
:100f6800909f9f007cb19700a29f9f0020002000c7
:100f780028003700800040006cb1970023fb2f0049
:100f88008f81410082b178000000e8008b0f50008b
:100f98000d003a008b01780022fb2f000f01410061
:100fa8000800be00fafd07000804b0000980b00080
:100fb800fcb19700939f9f000cb89700a09f9f00db
:100fc800200020002800370080004000fcb1970076
:100fd80022fb2f000f01410003b178000000e80058
:100fe8008b0f50000b003a008b0178000800be0000
:100ff800e7fd07000804b0000980b0000cb89700ae
:10100800909f9f001cb99700a29f9f00200020007e
:1010180028003700800040000ab9970023fb2f0002
:101028008f81410082b178000000e8008b0f5000ea
:101038000d003a008b01780022fb2f000f014100c0
:101048000800be00d2fd07000804b0000980b00007
:101058009ab99700939f9f002ab89700a09f9f0076
:101068002000200028003700800040009ab997002f
:1010780022fb2f000f01410003b178000000e800b7
:101088008b0f50000b003a008b0178000800be005f
:10109800bffd07000804b0000980b0002ab8970017
:1010a800909f9f003ab99700a29f9f0020002000c0
:1010b80028003700800040002ab9970023fb2f0042
:1010c8008f81410082b178000000e8008b0f50004a
:1010d8000d003a008b01780022fb2f000f01410020
:1010e8000800be00aafd07000804b0000980b0008f
:1010f800bab99700939f9f004ab89700a09f9f0096
:10110800200020002800370080004000bab997006e
:1011180022fb2f000f01410003b178000000e80016
:101128008b0f50000b003a008b0178000800be00be
:1011380097fd07000804b0000980b0004ab897007e
:10114800909f9f005ab99700a29f9f0020002000ff
:1011580028003700800040004ab9970023fb2f0081
:101168008f81410082b178000000e8008b0f5000a9
:101178000d003a008b01780022fb2f000f0141007f
:101188000800be0082fd07000804b0000980b00016
:10119800dab99700939f9f006ab89700a09f9f00b5
:1011a800200020002800370080004000dab99700ae
:1011b80022fb2f000f01410003b178000000e80076
:1011c8008b0f50000b003a008b0178000800be001e
:1011d8006ffd07000804b0000980b0006ab89700e6
:1011e800909f9f007ab99700a29f9f00200020003f
:1011f80026003700800040006ab9970023fb2f00c3
:101208008f81410082b178000000e8008b0f500008
:101218000d003a008b01780022fb2f000f014100de
:101228000800be005afd07000804b0000980b0009d
:10123800fab99700939f9f001a057800aa9f9f000c
:10124800200020001f00370080004000fab99700f6
:1012580022fb2f000f01410003b178000000e800d5
:101268008b0f500009003a008b0178000800be007f
:1012780047fd07000804b0000980b0001a0578008f
:101288009a9f9f00100020000e0037008000400049
:101298009a01780022fb2f000f01410003b178006a
:1012a8000000e8008b0f500006003a008b01780020
:1012b8000800be0036fd07000804b0000980b00031
:1012c8000e007800780646008d0f560015ff3a008c
:1012d8004f0778004f06be004f05be004f04be0002
:1012e8002f04b100000006004000fa00889fbe00ed
:1012f8008a9fbe00087823000900200012042400f9
:101308000800be0014fd07000805be000a04b0006e
:101318000b80b000120424000a00be000efd070076
:101328000a00be000004b0000180b00012042400ce
:1013380009fd070010408000c09f9f0021408000e9
:10134800d19f9f0032408000e29f9f00d3408000e1
:10135800f39f9f00e040800080a79f00f14080003d
:1013680091a79f0092418000a2a79f00a3418000ff
:10137800b3a79f00b0418000c0a79f009000200045
:10138800800040005342800082fb2f000f01410083
:1013980003b178000000e80080004000634280004c
:1013a80003b178008000e800ff0f50000e00320003
:1013b8000180400073428000033178000101e80099
:1013c800ff8f500013003a000302200082fb2f0019
:1013d8000f0141000800be00edfc07000a04be0032
:1013e8000000eb00b70237000302200082fb2f0049
:1013f8000f0141000800be00e5fc07000804b0002a
:101408000980b00070428000c09f9f00100020003b
:10141800ac023700020041001343800081fb2f001b
:101428008f804000833078000200e800ff0f5100f1
:1014380012003a00240037000200410033438000c4
:1014480081fb2f008f804000833078008200e80005
:10145800ff0f510028003a000302200082fb2f00f2
:101468000f0141000800be00c9fc07000804b000d5
:101478000980b0000000eb009902370080004000ae
:101488002343800082fb2f000f01410003b1780045
:101498000001e800ff0f5000e7ff3a0003022000b8
:1014a80082fb2f000f0141000800be00b8fc0700b6
:1014b8000804b0000980b00030438000c09f9f003e
:1014c80010002000860237000302200082fb2f0054
:1014d8000f0141000800be00adfc07000804b00081
:1014e8000980b00021438000c19f9f0032438000e3
:1014f800d29f9f002100200001804000d24380003d
:1015080083fb2f008f814100823178000100e800c1
:10151800ff8f500012003a002400370002004100fb
:10152800f143800083fb2f008f81410081317800d7
:101538008200e800ff0f510028003a000302200053
:1015480082fb2f000f0141000800be0090fc07003d
:101558000804b0000980b0000000eb006702370003
:1015680080004000e343800082fb2f000f01410010
:1015780003b178000001e800ff0f5000e7ff3a00d0
:101588000302200082fb2f000f0141000800be006b
:101598007ffc07000804b0000980b000f043800019
:1015a800c09f9f0010002000540237000302200053
:1015b80082fb2f000f0141000800be0074fc0700e9
:1015c8000804b0000980b000e1438000c19f9f007b
:1015d800f2438000d29f9f0021002000018040003c
:1015e8009244800083fb2f008f8141008231780074
:1015f8000100e800ff8f500012003a002400370075
:1016080002004100b144800083fb2f008f8141001c
:10161800813178008200e800ff0f510028003a006d
:101628000302200082fb2f000f0141000800be00ca
:1016380057fc07000804b0000980b0000000eb0068
:101648003502370080004000a344800082fb2f0051
:101658000f01410003b178000001e800ff0f5000be
:10166800e7ff3a000302200082fb2f000f01410030
:101678000800be0046fc07000804b0000980b0005e
:10168800b0448000c09f9f00100020002202370055
:101698000302200082fb2f000f0141000800be005a
:1016a8003bfc07000804b0000980b000a14480009a
:1016b800c19f9f00b2448000d29f9f00210020005c
:1016c800018040005245800083fb2f008f8141003c
:1016d800823178000100e800ff8f500012003a00c4
:1016e80024003700020041007145800083fb2f0071
:1016f8008f814100813178008200e800ff0f51009e
:1017080028003a000302200082fb2f000f0141004d
:101718000800be001efc07000804b0000980b000e5
:101728000000eb00030237008000400063458000a2
:1017380082fb2f000f01410003b178000001e8008f
:10174800ff0f5000e7ff3a000302200082fb2f0042
:101758000f0141000800be000dfc07000804b0009e
:101768000980b00070458000c09f9f0010002000d5
:10177800f00137000302200082fb2f000f01410017
:101788000800be0002fc07000804b0000980b00091
:1017980061458000c19f9f0072458000d29f9f00d5
:1017a80021002000018040001246800083fb2f00aa
:1017b8008f814100823178000100e800ff8f5000de
:1017c80012003a0024003700020041003146800030
:1017d80083fb2f008f814100813178008200e8006f
:1017e800ff0f510028003a000302200082fb2f005f
:1017f8000f0141000800be00e5fb07000804b00027
:101808000980b0000000eb00d101370080004000e3
:101818002346800082fb2f000f01410003b17800ae
:101828000001e800ff0f5000e7ff3a000302200024
:1018380082fb2f000f0141000800be00d4fb070007
:101848000804b0000980b00030468000c09f9f00a7
:1018580010002000be0137000302200082fb2f0089
:101868000f0141000800be00c9fb07000804b000d2
:101878000980b00021468000c19f9f003246800049
:10188800d29f9f002100200001804000d2468000a6
:1018980083fb2f008f814100823178000100e8002e
:1018a800ff8f500012003a00240037000200410068
:1018b800f146800083fb2f008f8141008131780041
:1018c8008200e800ff0f510028003a0003022000c0
:1018d80082fb2f000f0141000800be00acfb07008f
:1018e8000804b0000980b0000000eb009f01370039
:1018f80080004000e346800082fb2f000f0141007a
:1019080003b178000001e800ff0f5000e7ff3a003c
:101918000302200082fb2f000f0141000800be00d7
:101928009bfb07000804b0000980b000f046800067
:10193800c09f9f00100020008c0137000302200088
:1019480082fb2f000f0141000800be0090fb07003a
:101958000804b0000980b000e1468000c19f9f00e4
:10196800f2468000d29f9f002100200001804000a5
:101978009247800083fb2f008f81410082317800dd
:101988000100e800ff8f500012003a0024003700e1
:1019980002004100b147800083fb2f008f81410086
:1019a800813178008200e800ff0f510028003a00da
:1019b8000302200082fb2f000f0141000800be0037
:1019c80073fb07000804b0000980b0000000eb00ba
:1019d8006d01370080004000a347800082fb2f0084
:1019e8000f01410003b178000001e800ff0f50002b
:1019f800e7ff3a000302200082fb2f000f0141009d
:101a08000800be0062fb07000804b0000980b000af
:101a1800b0478000c09f9f00100020005a01370087
:101a28000302200082fb2f000f0141000800be00c6
:101a380057fb07000804b0000980b000a1478000e8
:101a4800c19f9f00b2478000d29f9f0021002000c5
:101a5800018040005248800083fb2f008f814100a5
:101a6800823178000100e800ff8f500012003a0030
:101a780024003700020041007148800083fb2f00da
:101a88008f814100813178008200e800ff0f51000a
:101a980028003a000302200082fb2f000f014100ba
:101aa8000800be003afb07000804b0000980b00037
:101ab8000000eb003b0137008000400063488000d5
:101ac80082fb2f000f01410003b178000001e800fc
:101ad800ff0f5000e7ff3a000302200082fb2f00af
:101ae8000f0141000800be0029fb07000804b000f0
:101af8000980b00070488000c09f9f00100020003f
:101b0800280137000302200082fb2f000f0141004b
:101b18000800be001efb07000804b0000980b000e2
:101b280061488000c19f9f0072488000d29f9f003b
:101b380021002000018040001249800083fb2f0013
:101b48008f814100823178000100e800ff8f50004a
:101b580012003a0024003700020041003149800099
:101b680083fb2f008f814100813178008200e800db
:101b7800ff0f510028003a000302200082fb2f00cb
:101b88000f0141000800be0001fb07000804b00077
:101b98000980b0000000eb00090137008000400018
:101ba8002349800082fb2f000f01410003b1780018
:101bb8000001e800ff0f5000e7ff3a000302200091
:101bc80082fb2f000f0141000800be00f0fa070059
:101bd8000804b0000980b00030498000c09f9f0011
:101be80010002000f60037000302200082fb2f00bf
:101bf8000f0141000800be00e5fa07000804b00024
:101c08000980b00021498000c19f9f0032498000af
:101c1800d29f9f002100200001804000d24980000f
:101c280083fb2f008f814100823178000100e8009a
:101c3800ff8f500012003a002400370002004100d4
:101c4800f149800083fb2f008f81410081317800aa
:101c58008200e800ff0f510028003a00030220002c
:101c680082fb2f000f0141000800be00c8fa0700e0
:101c78000804b0000980b0000000eb00d70037006e
:101c880080004000e349800082fb2f000f014100e3
:101c980003b178000001e800ff0f5000e7ff3a00a9
:101ca8000302200082fb2f000f0141000800be0044
:101cb800b7fa07000804b0000980b000f0498000b6
:101cc800c09f9f0010002000c400370003022000be
:101cd80082fb2f000f0141000800be00acfa07008c
:101ce8000804b0000980b000e1498000c19f9f004e
:101cf800f2498000d29f9f0021002000018040000f
:101d0800924a800083fb2f008f8141008231780046
:101d18000100e800ff8f500012003a00240037004d
:101d280002004100b14a800083fb2f008f814100ef
:101d3800813178008200e800ff0f510028003a0046
:101d48000302200082fb2f000f0141000800be00a3
:101d58008ffa07000804b0000980b0000000eb000b
:101d6800a500370080004000a34a800082fb2f00b6
:101d78000f01410003b178000001e800ff0f500097
:101d8800e7ff3a000302200082fb2f000f01410009
:101d98000800be007efa07000804b0000980b00001
:101da800b04a8000c09f9f001000200092003700ba
:101db8000302200082fb2f000f0141000800be0033
:101dc80073fa07000804b0000980b000a14a800037
:101dd800c19f9f00b24a8000d29f9f00210020002f
:101de80001804000524b800083fb2f008f8141000f
:101df800823178000100e800ff8f50000c003a00a3
:101e08000302200082fb2f000f0141000800be00e2
:101e18005ffa07000804b0000980b000634b800037
:101e2800c39f9f00704b8000d09f9f001c0037000d
:101e380080004000634b800082fb2f000f014100af
:101e480003b178008000e800ff0f500008003a0056
:101e5800030220000800be004dfa07000804b00085
:101e68000980b000704b8000c09f9f000c003700b5
:101e780001804000734b800082fb2f000f0141005e
:101e880003317800ff8f500005003a00030220005c
:101e98000800be003efa07000804b0000980b00040
:101ea8000302200082fb2f000f0141000800be0042
:101eb80037fa07004f05be004f04be000080fa0045
:101ec80000000600800040001343800082fb2f00c2
:101ed8000f01410003b178000000e80067fd3700fa
:101ee80080004000d343800082fb2f000f01410097
:101ef80003b178000000e80099fd37008000400039
:101f08009344800082fb2f000f01410003b1780049
:101f18000000e800cbfd37008000400053458000fa
:101f280082fb2f000f01410003b178000000e80098
:101f3800fdfd3700800040001346800082fb2f0023
:101f48000f01410003b178000000e8002ffe3700c0
:101f580080004000d346800082fb2f000f01410023
:101f680003b178000000e80061fe370080004000ff
:101f78009347800082fb2f000f01410003b17800d6
:101f88000000e80093fe37008000400053488000be
:101f980082fb2f000f01410003b178000000e80028
:101fa800c5fe3700800040001349800082fb2f00e7
:101fb8000f01410003b178000000e800f7fe370088
:101fc80080004000d349800082fb2f000f014100b0
:101fd80003b178000000e80029ff370080004000c6
:101fe800934a800082fb2f000f01410003b1780063
:101ff8000000e8005bff370080004000534b800082
:1020080082fb2f000f01410003b178000000e800b7
:1020180087ff37000800fa000181fb004210dd004d
:102028004348280080814100130078009300900005
:10203800a301800000f0a4008180d200a1018800e3
:1020480010007800a30188007812b90021802000d0
:10205800e1007a00810f50000b00390001005000a8
:1020680063b52000934178008381fb000300de0004
:10207800f10f2000e90f50000e003e00410f200034
:10208800808040000b0037000080500063b52000be
:10209800934178008381fb000300de0011002000db
:1020a800230f2000830f500002003e00410f200044
:1020b8008080500000302000704c880003cbbf00a7
:1020c8000080fb004400dd00000071008e29b7008d
:1020d80000c4b30080ff9f0091ff9f00704c8000f8
:1020e800e881570022c0b30011c0b300f50b070008
:1020f8000080fa00000006002000fa000181fb00c1
:102108004210dd0041482800008040001000be0059
:1021180053b52000934178008381fb00a60180001d
:102128000002780004f0a4008182d200a501880092
:1021380014027800a60188007813b90025802000d1
:10214800e5027b00850f52000c003100048252002a
:102158000322de00250f2000850f520004003e00f8
:102168008582e80084825200c5b79f000c003700c2
:1021780014002000c4b79f00090037000502520070
:102188000322de00e90f520003003e00440fb000b6
:10219800c4b79f0002003700f40f2000c4b79f00a7
:1021a80062024000e0824800a601800004f0a4001a
:1021b8008582d200a501880014027800a601880053
:1021c8007813b9000683e80025802000e5027b002b
:1021d800850f52000c003100048252000322de00f9
:1021e800250f2000850f520004003e008582e8007c
:1021f80004825200d4b79f000c003700140020005e
:10220800d4b79f0009003700050252000322de0000
:10221800e90f520003003e00440fb000d4b79f00fe
:1022280002003700f40f2000d4b79f00640040007c
:10223800e0804800a401800000f0a4008180d20062
:10224800a101880010007800a40188007812b90064
:102258006402420021802000e1007a00810f5000d2
:102268000a003900010050008301de00e98f5100a7
:1022780003003600f00f2000e0b79f000e00370083
:10228800430fb000e3b79f000b00370000805000f9
:102298008301de00200f2000808f510003003600ec
:1022a80010002000e0b79f0003003700400f200017
:1022b80083015000e3b79f0000302000704c880075
:1022c80003cbbf000080fb004400dd00000071006c
:1022d8008e29b70000c4b30080e79f000fe897007d
:1022e80090e79f002fe89700a0e79f004fe897002e
:1022f800b0e79f00704c800003fe2f008f814100e3
:1023080042c0b30011c0b3006e0b07000080fa0092
:10231800000006000800fa00889fbe008a9fbe00e1
:102328000a3020007a4c88000140780032c0b3009f
:102338000440bc00820578000b0078008e29b700a5
:102348000140780082c1b3000440bc0082047800d8
:102358002880200068807c0080f79f004800de000d
:1023680090f79f000980e80068007800a0f79f00b8
:102378004800de00b0f79f006480440068007800e1
:10238800c0f79f004800de00d0f79f006680440039
:1023980068007800e0f79f004800de00f0f79f0033
:1023a800704c8000f081570082c0b30011c0b300a8
:1023b800440b07007a4c88000b00e8008e29b70010
:1023c800688044006800780080f79f004800de00bd
:1023d80090f79f006a80440068007800a0f79f008b
:1023e8004800de00b0f79f006c8044006800780069
:1023f800c0f79f004800de00d0f79f006e804400c1
:1024080068007800e0f79f004800de00f0f79f00c2
:10241800704c8000f081570082c0b30011c0b30037
:10242800280b07007a4c88000b80e8008e29b7003b
:10243800708044006800780080f79f004800de0044
:1024480090f79f007280440068007800a0f79f0012
:102458004800de00b0f79f007480440068007800f0
:10246800c0f79f004800de00d0f79f00f6844400c4
:1024780068807c00e0f79f004800de00f0f79f00ce
:10248800704c8000f081570082c0b30011c0b300c7
:102498000c0b07004f05be004f04be000080fa0079
:1024a800000006000800fa00014078000080fb00e8
:1024b8000130200080804000714c88007800b9000d
:1024c80080007800208020006081780082ff9f00d3
:1024d8004811de0092ff9f000181e8006001790049
:1024e800a2ff9f004811de00b2ff9f0064814000f8
:1024f80060017900c2ff9f004811de00d2ff9f00f3
:10250800e680400060807800e0ff9f004800de0021
:10251800f0ff9f00704c8000e881570062c0b30054
:1025280011c0b300e70a07000080fa0000000600a7
:102538000f08b000889fbe008a9fbe008c9fbe0017
:102548008e1f78000004eb00a83f9f00b83f9f0053
:10255800c83f9f00d83f9f00e83f9f00f83f9f007b
:10256800fe13070003cbbf000080fb005059880012
:10257800805a80002714070008407800b704070035
:102588003a140700860a0700caf321008a4c88001b
:10259800c9702200994c8800a8472200a84c8800de
:1025a8000a0078008900780008017800aa1207005c
:1025b800ba4c8800c94c8800d84c88000a007800ba
:1025c80089007800080178001c13070058cbbf0069
:1025d8000a003200905a80001914070031b0200018
:1025e800914078008180fb00c408dd000050200085
:1025f80000807000d05a8800df1307005ccbbf0052
:1026080002003a005dcbbf0002003200905a800001
:102618000b140700f8432800640744002d802000ad
:102628000c1220000d0646000bfa2f008c85450081
:102638000afa2f000b05450079012000891f780050
:102648008c0378000b0378008a0278000d0278006a
:1026580013c0b30009017800d84078000040eb00af
:102668000f0907008f87e9008e0f5400f3ff3a0027
:1026780064cbbf000080fb0001002000e40f500085
:10268800e08f58006d003e00006001000400370034
:102698001d0037005000370068003700340037004d
:1026a8000004eb008ab620008044eb008a01780021
:1026b800725a800088007800094078003b0f0700b4
:1026c8000804e800e40f5400f8ff3a000068ef003f
:1026d8000000eb00f4f7070000c8bf00feff32005f
:1026e8000040eb00b2f807000068ef000000eb00c4
:1026f800edf7070000c8bf00feff32000040eb0006
:10270800def907004d0037000004eb008ab6200010
:102718008044eb008a017800725a800088007800b3
:1027280009407800681007000804e800e40f540026
:10273800f8ff3a000068ef000000eb00daf7070046
:1027480000c8bf00feff32000040eb0092f907000e
:102758000068ef000000eb00d3f7070000c8bf00d7
:10276800feff32000040eb00dffa070033003700bd
:102778000004eb008ab620008044eb008a01780050
:10278800725a80008800780009407800b810070065
:102798000804e800e40f5400f8ff3a000068ef006e
:1027a8000000eb00c0f7070000c8bf00feff3200c2
:1027b8000040eb00b6f807000068ef000000eb00ef
:1027c800b9f7070000c8bf00feff32000040eb0069
:1027d800c5fa0700190037000004eb008ab620008c
:1027e8008044eb008a017800725a800088007800e3
:1027f80009407800f80f07000804e800e40f5400c7
:10280800f8ff3a000068ef000000eb00a6f70700a9
:1028180000c8bf00feff32000040eb0026f90700a9
:102828000068ef000000eb009ff7070000c8bf003a
:10283800feff32000040eb00abfa0700e2a2a9005d
:102848008f60a8008c60a9008cc0a9000068ef0008
:1028580001c8bf000000eb00e0b79f005ccbbf00e1
:1028680004003a00d1b5200091407800e0cf500034
:102878006d0032001180200091407800e0cf5000b8
:10288800690032000168ef00e04f5000320032006a
:1028980082f72f000f01410061f72f008f80400061
:1028a80040f72f000f0040003b1207002f38970019
:1028b800c800de008000fd0074ebb7008000fd005a
:1028c80075ebb7003f389700c800de008000fd00b8
:1028d80076ebb7008000fd0077ebb7004f38970024
:1028e800c800de008000fd0078ebb7008000fd0026
:1028f80079ebb70028c0b3000840780091f60700cc
:10290800e04f5000fcff320000502000704c88005f
:1029180003cbbf000080fb004400dd008e29b70018
:10292800724c8000704c80004200dd00c00fb20085
:10293800017c200081006100c508dd0001007000f5
:1029480025c0b30064c0b30041b72000821f200037
:102958000300200095f607005dcbbf00320032006f
:10296800e2f72f000f014100c1f72f008f804000d0
:10297800a0f72f000f0040007e1207005f38970075
:10298800c800de008000fd006cebb7008000fd0091
:102998006debb7006f389700c800de008000fd00bf
:1029a8006eebb7008000fd006febb7007f38970033
:1029b800c800de008000fd0070ebb7008000fd005d
:1029c80071ebb70010502000704c880003cbbf009b
:1029d8000080fb004400dd008e29b70018c0b3005a
:1029e8000840780057f60700e04f5000fcff32001f
:1029f800724c8000704c80004200dd00c00fb200b5
:102a0800017c200081006100c508dd000100700024
:102a180015c0b30064c0b300c1b62000821f2000f7
:102a28000300200061f6070000c8bf00e14f500016
:102a380087033a000068ef00efb09700f48f50006a
:102a480009003a00e2a2ab0004003200e2a2a900a9
:102a58000001eb00e2b79f0003003700e2a2a800e4
:102a68008001eb00e3b79f006fb297000402e80013
:102a7800e4b79f002ccbbf00e14f500004003200a8
:102a880037023900e34f500071033a00d40237008f
:102a980064cbbf000080fb0001002000e40f500061
:102aa800e08f58006a033e00006001000400370010
:102ab80021013700f701370065033700510137005e
:102ac8000040eb00baf7070040442800f0b79f0029
:102ad800e180200081bf9f000006eb00acdf9f0073
:102ae8008c017800d3b79f00100020000c00dd0097
:102af800620bb6000601320004fa2f000f024200f2
:102b0800404c28000b000900301a78008401b100fd
:102b18000004eb00c89f9f00d89f9f00e89f9f007c
:102b2800f89f9f0088a79f0098a79f00a8a79f00cd
:102b3800b8a79f00c8a79f00d8a79f00e8a79f0035
:102b4800f8a79f0057cbbf008084fb0054cbbf0081
:102b58008085fb00f20f2000090051000b05dd0005
:102b68000b4fdd00ffb197001303be006c0043005c
:102b7800e0804b00a201800000f0a4008180d20018
:102b8800a101880010027800a2018800244c880066
:102b98000fb8970010007800304c8800760043008a
:102ba800e0804b00a201800000f0a4008180d200e8
:102bb800a101880090017800a2018800434c880098
:102bc8008fb89700d1009000c1b79f00514c880082
:102bd800edb520009d467800005b80000fb9970096
:102be80012017800a2b79f0094b79f00840051009b
:102bf800c288de00b1af9f0082005200c288de00aa
:102c0800a1af9f0083b79f004fb297008300520087
:102c1800c288de0091af9f0084805100c288de0028
:102c280081af9f000602be00f9af9f00ebaf9f0087
:102c38008c0078007809b900218020008284400047
:102c4800b8b79f008005eb000a05ea00ccaf9f00eb
:102c580000067800a20180000600780000f0a400b9
:102c68008780d200a101880010007800a2018800a6
:102c7800e00f5000060032008001eb00998f110030
:102c880003003a00656bec0010002000b0b79f000d
:102c9800e1cf560035003a00e00f5600030032003d
:102ca800e10f56002f003a0017003700afb0970029
:102cb8001fb19700828f50000800340003fa2f00dc
:102cc8008f81410063007c003fa997000090b90004
:102cd8004500de00604c88000800370003fa2f002a
:102ce8008f81410063007c002fa997000090b900f4
:102cf8004500de000000ea00604c88008c09f800fe
:102d0800280bf9001a003700cfb197000fb09700d1
:102d1800808f51000800340081fb2f008f80400015
:102d280061007c001fa997000090b9004500de00f3
:102d3800604c88000800370083fb2f008f8141001a
:102d480063007c000fa997000090b9004500de00e1
:102d58000000ea00604c88008c09f800280bf90094
:102d6800030037006b4c8800010037006b4c88006b
:102d7800b9017800a20180000400780000f0a400e6
:102d88008580d200a101880010007800a201880087
:102d980000805100614c8000010050008a0f5000f3
:102da80004003c00f10f200083f82f008f814100c0
:102db80081317c00800f570003003c0081f82f0010
:102dc8008f8040008b307c008a0f50000a0034004e
:102dd800800f570008003400efa997000380de0039
:102de800ffa89700008050008001780082f82f002b
:102df8000f01410003317c0062034300e0834b0074
:102e08000884e80062024200e0824a00f80f540099
:102e180090ff3a004fae97003fb29700e10f520083
:102e280008003a002fd897008080fb00c208de0017
:102e380083b62000725a80000040eb005b0d07004b
:102e48003300370001302000714c880003cbbf00ed
:102e58000080fb004400dd00dfb097000100700037
:102e68008e29b70000c4b30080479f000f49970020
:102e780092479f00af499700a3479f004f4a97008a
:102e8800b4479f006f489700c0479f008f50970036
:102e9800d1479f002f519700e2479f00cf519700dd
:102ea800f3479f00704c800003f82f008f8141008a
:102eb80082c0b30011c0b3008208070000ccb30081
:102ec80080479f006f52970094479f000f589700c4
:102ed800a0479f00af589700b1479f004f599700f0
:102ee800c2479f00ef599700d3479f00c49820001e
:102ef80014427800e4479f00704c800003f82f00cc
:102f08008f81410072c0b30011c0b3006d08070083
:102f18000c06e8007fb0970064004000f0b79f00ff
:102f28008fb89700f880400081bf9f00f00f5600cf
:102f3800eafe3a00460237000040eb0096f7070029
:102f48008040eb00014078006bfc070011c0b30023
:102f58000040eb0068fc070021c0b3000040eb0014
:102f680065fc070031c0b3000040eb0062fc0700bd
:102f780041c0b3000040eb005ffc070051c0b30044
:102f88000040eb005cfc070061c0b3000040eb00b0
:102f980059fc070071c0b3000040eb0056fc070065
:102fa80081c0b3000040eb0053fc070091c0b300a0
:102fb8000040eb0050fc0700a1c0b3000040eb004c
:102fc8004dfc0700b1c0b3000040eb004afc07000d
:102fd800c1c0b3000040eb0047fc0700d1c0b300fc
:102fe8000040eb0044fc0700e1c0b3000040eb00e8
:102ff80041fc0700f1c0b3000040eb003efc0700b5
:10300800130237000040eb00a1f607004c482800e7
:103018004e8020002d8020008005eb00abef9f0044
:1030280071b52000914078008180fb0054cbbf002f
:103038000080fb00f30f2000018151000011dd002a
:10304800000ddd000b027800f4b79f000c04780037
:103058001c0078009c009000a301800000f0a400f0
:103068008180d200a101880010007800a3018800a7
:103078008000eb0081bf9f00810f500005003200e7
:103088009d8f100003003a00656bec0013002000d0
:1030980083bf9f001803be00a301800006027800ca
:1030a80004f0a4008782d200a501880014027800e9
:1030b800a30188001d0212008202ea00f90f200015
:1030c800850f5200010034008004eb00840f550086
:1030d80001003c008004eb00850f52000a00340018
:1030e800840f55000800340073b520009341780020
:1030f8008384fb0043b52000934178008381fb0063
:1031080003a2de008484540062014300e0814b0086
:10311800a401800002f0a4008381d200a3018800ea
:1031280012017800a4018800e00f51000600320067
:103138000002eb009e0f120003003a00656bec00e2
:103148001000200080bf9f001800be0062004000f1
:10315800e0804800a301800000f0a4008180d20034
:10316800a101880010007800a30188009e011000ca
:10317800f80f2000838f520001003d000004eb008f
:10318800830f550001003c000004eb00838f5200c0
:103198000a003d00830f55000800340078b5200070
:1031a800184478000884fb0041b52000914078005d
:1031b8008180fb008199de00030454008fb89700da
:1031c800e18f500008003a002fe997008280fb0049
:1031d800c208de0083b62000725a80000040eb006f
:1031e800720c07002400370001302000714c880061
:1031f80003cbbf000080fb004400dd00ffb1970057
:10320800030070008e29b70001c4b30081479f00f6
:1032180099479f00a9479f00b9479f00c8479f004b
:10322800d8479f00e8479f00f8479f00704c8000f0
:1032380003f82f008f81410082c0b30011c0b30092
:10324800a007070001ccb30081479f0098479f0063
:10325800a9479f00b9479f00c9479f00d9479f00ca
:10326800704c800003f82f008f81410062c0b300ca
:1032780011c0b300930707008b05e80064064600f9
:1032880078074700f8864600f08f550063ff3a003c
:103298006f0137000040eb0087f607008040eb0025
:1032a800014078005bfb070011c0b3000040eb0051
:1032b80058fb070021c0b3000040eb0055fb070096
:1032c80031c0b3000040eb0052fb070041c0b3001f
:1032d8000040eb004ffb070051c0b3000040eb007b
:1032e8004cfb070061c0b3000040eb0049fb07003e
:1032f80071c0b3000040eb0046fb070081c0b3007b
:103308000040eb0043fb070091c0b3000040eb0016
:1033180040fb0700a1c0b3000040eb003dfb0700e5
:10332800b1c0b3000040eb003afb0700c1c0b300d6
:103338000040eb0037fb0700d1c0b3000040eb00b2
:1033480034fb0700e1c0b3000040eb0031fb07008d
:10335800f1c0b3000040eb002efb07003c01370032
:1033680064cbbf00e14f5000370032000300390042
:10337800e24f500036013a00660037000040eb008b
:103388008bf507008040eb0001407800e1fb070067
:1033980011c0b3000040eb00defb070021c0b30002
:1033a8000040eb00dbfb070031c0b3000040eb003e
:1033b800d8fb070041c0b3000040eb00d5fb070075
:1033c80051c0b3000040eb00d2fb070061c0b3005e
:1033d8000040eb00cffb070071c0b3000040eb00da
:1033e800ccfb070081c0b3000040eb00c9fb07001d
:1033f80091c0b3000040eb00c6fb0700a1c0b300ba
:103408000040eb00c3fb0700b1c0b3000040eb0075
:10341800c0fb0700c1c0b3000040eb00bdfb0700c4
:10342800d1c0b3000040eb00bafb0700e1c0b30015
:103438000040eb00b7fb0700f1c0b3000040eb0011
:10344800b4fb0700020137000040eb0052f607000a
:103458008040eb000140780012fc070011c0b30067
:103468000040eb000ffc070021c0b3000040eb0058
:103478000cfc070031c0b3000040eb0009fc07005a
:1034880041c0b3000040eb0006fc070051c0b30088
:103498000040eb0003fc070061c0b3000040eb00f4
:1034a80000fc070071c0b3000040eb00fdfb070003
:1034b80081c0b3000040eb00fafb070091c0b300e5
:1034c8000040eb00f7fb0700a1c0b3000040eb0091
:1034d800f4fb0700b1c0b3000040eb00f1fb0700ac
:1034e800c1c0b3000040eb00eefb0700d1c0b30041
:1034f8000040eb00ebfb0700e1c0b3000040eb002d
:10350800e8fb0700f1c0b3000040eb00e5fb070053
:10351800cf0037000040eb00e7f507008040eb00e4
:1035280001407800dffb070011c0b3000040eb004a
:10353800dcfb070021c0b3000040eb00d9fb07000b
:1035480031c0b3000040eb00d6fb070041c0b30018
:103558000040eb00d3fb070051c0b3000040eb0074
:10356800d0fb070061c0b3000040eb00cdfb0700b3
:1035780071c0b3000040eb00cafb070081c0b30074
:103588000040eb00c7fb070091c0b3000040eb0010
:10359800c4fb0700a1c0b3000040eb00c1fb07005b
:1035a800b1c0b3000040eb00befb0700c1c0b300d0
:1035b8000040eb00bbfb0700d1c0b3000040eb00ac
:1035c800b8fb0700e1c0b3000040eb00b5fb070003
:1035d800f1c0b3000040eb00b2fb07009c003700cd
:1035e8002dcbbf002cebb70064cbbf000080fb00e5
:1035f80001002000e40f5000e08f580094003e00c6
:10360800006001004c003700330037001a00370013
:103618008f0037000000370083b62000725a800000
:103628008000eb000040eb00110d070083b620007e
:10363800725a8000110020000040eb000c0d0700ba
:1036480083b62000725a8000210020000040eb0061
:10365800070d070083b62000725a80003100200051
:103668000040eb00020d07000068ef000000eb00cf
:103678000df407005f00370083b62000725a8000ff
:103688008000eb000040eb00530c070083b62000dd
:10369800725a8000110020000040eb004e0c070019
:1036a80083b62000725a8000210020000040eb0001
:1036b800490c070083b62000725a800031002000b0
:1036c8000040eb00440c07000068ef000000eb002e
:1036d800f5f307005300370083b62000725a8000c4
:1036e8008000eb000040eb00770c070083b6200059
:1036f800725a8000110020000040eb00720c070095
:1037080083b62000725a8000210020000040eb00a0
:103718006d0c070083b62000725a8000310020002b
:103728000040eb00680c07000068ef000000eb00a9
:10373800ddf307002300370083b62000725a8000ab
:103748008000eb000040eb00180b070083b6200058
:10375800725a8000110020000040eb00130b070094
:1037680083b62000725a8000210020000040eb0040
:103778000e0b070083b62000725a8000310020002b
:103788000040eb00090b07000068ef000000eb00a9
:10379800c5f3070000c8bf00feff32000040eb0081
:1037a80083f407000068ef000000eb00bef3070099
:1037b80000c8bf00feff32000040eb00aff5070075
:1037c8002300370000c8bf00feff32000040eb00b6
:1037d80071f507000068ef000000eb00b2f3070086
:1037e80000c8bf00feff32000040eb00bef6070035
:1037f8001700370000c8bf00feff32000040eb0092
:10380800a3f407000068ef000000eb00a6f3070030
:1038180000c8bf00feff32000040eb00b2f6070010
:103828000b00370000c8bf00feff32000040eb006d
:1038380021f507000068ef000000eb009af307008d
:1038480000c8bf00feff32000040eb00a6f60700ec
:1038580050598000bd07070000fc37008000eb00ce
:10386800210c8800510c8800110a8800310a880050
:10387800e04f500003003200e14f50000c003a00c6
:1038880006003700dec2a900d202a900d242a90070
:10389800d262a900d222a90000000600c702a9002e
:1038a800c6e2a900c6c2a900c6a2a900c682a9008c
:1038b80000000600881f7800e04f50000300320027
:1038c800e14f50002b003a0015003700d202a90042
:1038d800d242a900d262a900d222a900e0c2a8005f
:1038e8001000200064f50700e0c2a900f8002000dd
:1038f800a8168800100020005ff50700e0c2a800a5
:10390800a8168800100020005bf50700e0c2a90097
:10391800d422ef001000200057f5070015003700eb
:10392800c6e2a900c6c2a900c6a2a900c682a9000b
:10393800c902a800100020004ff50700c902a9001d
:10394800080f200048168800100020004af50700dc
:10395800c902a800481688001000200046f5070094
:10396800c902a900f0f02f00c822b60010002000fc
:1039780041f507004f04780000000600e04f5000b2
:1039880003003200e14f500004003a000200370003
:10399800dec2a90000000600c702a9000000060058
:1039a800e04f500003003200e14f500028003a0079
:1039b80016003700d202a800d242a800d262a8009e
:1039c800d222a800100020002bf50700e0c2a800b2
:1039d8001000200028f507001000200026f5070039
:1039e800d202a900d242a900d262a900d222a9001b
:1039f800d422ef00100020001ff50700e0c2a90044
:103a0800100020001cf5070000000600c6e2a9000f
:103a1800c6c2a900c6a2a900c682a900c902a900f7
:103a2800000f200040168800c902a80010002000de
:103a380011f50700f0f02f00c822b6001000200092
:103a48000df50700c902a900100020000af50700bb
:103a580000000600e04f500003003200e14f500024
:103a68001f003a000f003700d202a900d242a90075
:103a7800d262a900d222a900d422ef0010002000af
:103a8800fdf40700e0c2a80010002000faf40700c7
:103a9800d202a800d242a800d262a800d222a8006e
:103aa80000000600c6e2a900c6c2a900c6a2a90075
:103ab800c682a900f0f02f00c822b600100020002e
:103ac800edf40700c902a80010002000eaf407007e
:103ad800000f20004016880010002000e6f40700c0
:103ae80000000600881f780001447800e04f50006d
:103af80094003a00d202a900d242a900d262a900d9
:103b0800d222a900e0c2a900e04f5400020035000b
:103b1800d422ef0002003700f0002000a016880031
:103b28000000eb00d4f40700e0c2a8001000200059
:103b3800d1f40700e0c2a90010002000cef407006d
:103b480008444400e0c2a900e04f540002003500d8
:103b5800d422ef0002003700f0002000a0168800f1
:103b68000000eb00c4f40700e0c2a8001000200029
:103b7800c1f40700e0c2a90010002000bef407004d
:103b880008444400e0c2a900e04f54000200350098
:103b9800d422ef0002003700f0002000a0168800b1
:103ba8000000eb00b4f40700e0c2a80010002000f9
:103bb800b1f40700e0c2a90010002000aef407002d
:103bc80008444400e0c2a900e04f54000200350058
:103bd800d422ef0002003700f0002000a016880071
:103be8000000eb00a4f40700e0c2a80010002000c9
:103bf800a1f40700e0c2a900100020009ef407000d
:103c080008444400e0c2a900e04f54000200350017
:103c1800d422ef0002003700f0002000a016880030
:103c28000000eb0094f40700e0c2a8001000200098
:103c380091f40700e0c2a900100020008ef40700ec
:103c480008444400e0c2a900e04f540002003500d7
:103c5800d422ef0002003700f0002000a0168800f0
:103c68000000eb0084f40700e0c2a8001000200068
:103c780081f40700e0c2a900100020007ef40700cc
:103c880008444400e0c2a900e04f54000200350097
:103c9800d422ef0002003700f0002000a0168800b0
:103ca8000000eb0074f40700e0c2a8001000200038
:103cb80071f40700e0c2a900100020006ef40700ac
:103cc800e0c2a9000844440003003b00f0002000c3
:103cd800a016880001003700d422ef000000eb0096
:103ce80065f40700e0c2a8001000200062f4070095
:103cf800e0c2a900d202a800d242a800d262a8005d
:103d0800d222a800d422ef00d202a800d242a800f2
:103d1800d262a800d222a800e0c2a90010002000a8
:103d280055f40700e0c2a8001000200052f4070074
:103d3800e0c2a900d202a900d242a900d262a90019
:103d4800d222a9000040eb004f04780000000600d2
:103d5800889fbe008a9fbe008c9fbe008e1f780081
:103d68000044780081447800020578008345780093
:103d78000406be000840780000ff070008407800ed
:103d880007ff070089c044000840780055ff070076
:103d9800e04f50002d003a00c850de00084078007f
:103da80050ff0700e04f500024003a008a40780096
:103db800084078004bff0700e04f50001b003a0016
:103dc8001ac0b300e0cf5500150032008d06e90097
:103dd8008d8646008d0646008044eb000947780032
:103de8005d067800c860de00084078003dff0700e7
:103df800e04f500004003a008c40780008407800fa
:103e080038ff0700030037000840780011ff07005b
:103e18000e4578008944e80089cf5500f0ff3e0040
:103e2800084078000bff07000b00370008407800b7
:103e380008ff07000045eb0007003700084078003e
:103e480004ff07000045eb00030037000840780036
:103e580000ff07000045eb000a4078004f07780094
:103e68004f06be004f05be004f04be00000006000e
:103e7800889fbe008a1f780000447800814478003b
:103e8800024578000040eb00bcfe07000040eb0054
:103e9800c3fe0700884044000040eb0011ff070004
:103ea800e04f50000c003a00894078000dff0700f1
:103eb800e04f500005003a008a40780009ff0700eb
:103ec8000040eb00e3fe0700050037000040eb0070
:103ed800e0fe0700020037000040eb00ddfe0700af
:103ee8000040eb004f0578004f04be0000000600bc
:103ef800881f780001447800e04f5000030032002a
:103f0800e14f500077023a0026013700d202a8009c
:103f1800d242a800d262a800d222a800e0c2a9001a
:103f280010002000d4f30700e4b820001442780001
:103f380004424200f3b820009341780083c1410055
:103f480002b92000124178000241410011b9200055
:103f58009140780081c04000e0c2a800a01680000f
:103f680061406000044070008eebb700a01680002e
:103f78004200de0061406000034070008febb70034
:103f8800a01680004300de0061406000024070001f
:103f980090ebb700d402d50061406000014070008a
:103fa80091ebb700e0c2a90010002000b2f30700af
:103fb800e4b820001442780004424200f3b820001c
:103fc8009341780083c1410002b920001241780072
:103fd8000241410011b920009140780081c04000a1
:103fe800e0c2a800a0168000614060000440700094
:103ff8008eebb700a01680004200de006140600032
:10400800034070008febb700a01680004300de006d
:10401800614060000240700090ebb700d402d50008
:10402800614060000140700091ebb700e0c2a90058
:104038001000200090f30700e4b820001442780034
:1040480004424200f3b820009341780083c1410044
:1040580002b92000124178000241410011b9200044
:104068009140780081c04000e0c2a800a0168000fe
:1040780061406000044070008eebb700a01680001d
:104088004200de0061406000034070008febb70023
:10409800a01680004300de0061406000024070000e
:1040a80090ebb700d402d500614060000140700079
:1040b80091ebb700e0c2a900100020006ef30700e2
:1040c800e4b820001442780004424200f3b820000b
:1040d8009341780083c1410002b920001241780061
:1040e8000241410011b920009140780081c0400090
:1040f800e0c2a800a0168000614060000440700083
:104108008eebb700a01680004200de006140600020
:10411800034070008febb700a01680004300de005c
:10412800614060000240700090ebb700d402d500f7
:10413800614060000140700091ebb700e0c2a90047
:10414800100020004cf30700e4b820001442780067
:1041580004424200f3b820009341780083c1410033
:1041680002b92000124178000241410011b9200033
:104178009140780081c04000e0c2a800a0168000ed
:1041880061406000044070008eebb700a01680000c
:104198004200de0061406000034070008febb70012
:1041a800a01680004300de006140600002407000fd
:1041b80090ebb700d402d500614060000140700068
:1041c80091ebb700e0c2a900100020002af3070015
:1041d800e4b820001442780004424200f3b82000fa
:1041e8009341780083c1410002b920001241780050
:1041f8000241410011b920009140780081c040007f
:10420800e0c2a800a0168000614060000440700071
:104218008eebb700a01680004200de00614060000f
:10422800034070008febb700a01680004300de004b
:10423800614060000240700090ebb700d402d500e6
:10424800614060000140700091ebb700e0c2a90036
:104258001000200008f30700e4b82000144278009a
:1042680004424200f3b820009341780083c1410022
:1042780002b92000124178000241410011b9200022
:104288009140780081c04000e0c2a800a0168000dc
:1042980061406000044070008eebb700a0168000fb
:1042a8004200de0061406000034070008febb70001
:1042b800a01680004300de006140600002407000ec
:1042c80090ebb700d402d500614060000140700057
:1042d80091ebb700e0c2a90010002000e6f2070049
:1042e800e4b820001442780004424200f3b82000e9
:1042f8009341780083c1410002b92000124178003f
:104308000241410011b920009140780081c040006d
:10431800e0c2a800a0168000614060000440700060
:104328008eebb700a01680004200de0061406000fe
:10433800034070008febb700a01680004300de003a
:10434800614060000240700090ebb700d402d500d5
:10435800614060000140700091ebb700e0c2a90025
:10436800d202a900d242a900d262a900d222a90091
:10437800e14f540003003a00f0002000a016880026
:1043880001003700d422ef0010002000baf2070025
:10439800e0c2a80010002000b7f20700e0c2a900a0
:1043a80050013700c6e2a800c6c2a800c6a2a800ed
:1043b800c682a800c902a90010002000aef20700ba
:1043c800c902a800f3b820009341780083c14100d6
:1043d80002b92000124178000241410011b92000c1
:1043e8009140780081c04000441680004722de00da
:1043f800614262008ecbbf00004040000040720066
:104408008eebb700401680004600de006140600079
:10441800034070008febb700401680004500de00b7
:10442800614060000240700090ebb70040168000c9
:104438004400de00614060000140700091ebb7006d
:10444800100020008cf20700c902a900100020000b
:1044580089f207001000200087f20700c902a800af
:10446800f3b820009341780083c1410002b92000cd
:10447800124178000241410011b9200091407800b2
:1044880081c04000441680004722de00614262007d
:104498008ecbbf0000404000004072008eebb7009a
:1044a800401680004600de00614060000340700056
:1044b8008febb700401680004500de0061406000c9
:1044c8000240700090ebb700401680004400de0008
:1044d800614060000140700091ebb70010002000bf
:1044e80065f20700c902a9001000200062f2070067
:1044f8001000200060f20700c902a800f3b82000ed
:104508009341780083c1410002b92000124178002c
:104518000241410011b920009140780081c040005b
:10452800441680004722de00614262008ecbbf0045
:1045380000404000004072008eebb700401680003b
:104548004600de0061406000034070008febb7005a
:10455800401680004500de006140600002407000a7
:1045680090ebb700401680004400de006140600018
:104578000140700091ebb700100020003ef20700e8
:10458800c902a900100020003bf20700100020001b
:1045980039f20700c902a800f3b820009341780057
:1045a80083c1410002b92000124178000241410054
:1045b80011b920009140780081c040004416800065
:1045c8004722de00614262008ecbbf0000404000ff
:1045d800004072008eebb700401680004600de00f7
:1045e80061406000034070008febb7004016800008
:1045f8004500de00614060000240700090ebb700ab
:10460800401680004400de006140600001407000f8
:1046180091ebb7001000200017f20700c902a900ab
:104628001000200014f207001000200012f207000a
:10463800c902a800f3b820009341780083c1410063
:1046480002b92000124178000241410011b920004e
:104658009140780081c04000441680004722de0067
:10466800614262008ecbbf000040400000407200f3
:104678008eebb700401680004600de006140600007
:10468800034070008febb700401680004500de0045
:10469800614060000240700090ebb7004016800057
:1046a8004400de00614060000140700091ebb700fb
:1046b80010002000f0f10700c902a9001000200036
:1046c800edf1070010002000ebf10700c902a80077
:1046d800f3b820009341780083c1410002b920005b
:1046e800124178000241410011b920009140780040
:1046f80081c04000441680004722de00614262000b
:104708008ecbbf0000404000004072008eebb70027
:10471800401680004600de006140600003407000e3
:104728008febb700401680004500de006140600056
:104738000240700090ebb700401680004400de0095
:10474800614060000140700091ebb700100020004c
:10475800c9f10700c902a90010002000c6f107002e
:1047680010002000c4f10700c902a800f3b8200017
:104778009341780083c1410002b9200012417800ba
:104788000241410011b920009140780081c04000e9
:10479800441680004722de00614262008ecbbf00d3
:1047a80000404000004072008eebb70040168000c9
:1047b8004600de0061406000034070008febb700e8
:1047c800401680004500de00614060000240700035
:1047d80090ebb700401680004400de0061406000a6
:1047e8000140700091ebb70010002000a2f1070013
:1047f800c902a900100020009ff107001000200046
:104808009df10700c902a800f3b820009341780081
:1048180083c1410002b920001241780002414100e1
:1048280011b920009140780081c0400044168000f2
:104838004722de00614262008ecbbf00004040008c
:10484800004072008eebb700401680004600de0084
:1048580061406000034070008febb7004016800095
:104868004500de00614060000240700090ebb70038
:10487800401680004400de00614060000140700086
:1048880091ebb700100020007bf10700c902a900d6
:104898001000200078f10700c6e2a900c6c2a900ee
:1048a800c6a2a900c682a900e14f540003003a003d
:1048b800000f20004016880002003700f0f02f009b
:1048c800c822b600100020006bf10700c902a8003a
:1048d8001000200068f10700c902a900100020009c
:1048e80065f107004f04780000000600889fbe00ad
:1048f8008a9fbe008c9fbe008e1f780000447800ff
:104908008144780002057800834678000406780020
:104918000840780019fc07000840780020fc0700d0
:1049280089c04400084078006efc0700e04f500042
:1049380053003a008a4078000840780069fc070074
:10494800e04f50004a003a000840780014fc070085
:1049580089c044000104a0000840780061fc0700f9
:10496800e04f50003e003a00e1cf56000700320009
:104978000d87fb000e07e9008044eb00094578002d
:104988004240a9000e003c00210037008040eb00a7
:104998000840780056fd0700e9b8200099447800df
:1049a80011c0b3000840780051fd0700c84cdd0075
:1049b8008ecbbf000080fb00008e740024003700ff
:1049c8008a4078000840780049fd0700ebb82000cd
:1049d8009b4578008a4078000840780044fd07002d
:1049e8000980fb000000400000004600c85ddd00b3
:1049f800e1b82000914078008180fb0001887500b3
:104a08008944e8000980fb008e0f5000ecff350058
:104a18008040eb000840780035fd0700e9b8200029
:104a28009944780011c0b3000840780030fd0700b1
:104a38008d86fb008d06e9008d8646000d06460032
:104a4800c84cdd008ecbbf000080fb00008e7400d8
:104a580008407800fffb070010c0b3000b003700c8
:104a680008407800fbfb07000040eb000700370018
:104a780008407800f7fb07000040eb000300370010
:104a880008407800f3fb07000040eb004f07780070
:104a98004f06be004f05be004f04be0000000600d2
:104aa800ee874700889fbe008a9fbe008c9fbe008d
:104ab8008e1f780080f79f00014478000205780077
:104ac800e3e79f00f4b79f00e5b79f00d6b79f00c4
:104ad800c7b79f00a9fb07000ff09700b0fb0700be
:104ae800884044000ff09700fefb070080447800e0
:104af800e0cf5400bd003a00c850de000ff0970028
:104b0800f8fb070080447800e0cf5400b3003a0077
:104b18008a4078000ff09700f2fb0700e04f500042
:104b2800aa003a000ff097009dfb07008840440058
:104b38000104a0000ff09700eafb0700e04f5000c7
:104b48009e003a006fe09700e14f500006003200e7
:104b58008080fb008104e9000044eb004240a9008a
:104b68002e003c00610037008040eb000ff09700fa
:104b7800dffc0700ebb820009b457800fab820005e
:104b88001a45780009b920009944780018b920001e
:104b98001844780011c0b3000ff09700d4fc070048
:104ba800f3b820009341780002b920001241780040
:104bb80011b92000914078007faa970004004200b4
:104bc800c85ddd00e4b82000144278000482fb00d0
:104bd80004827500ffb29700843278004855dd00e2
:104be8008381fb00830175006fb297000332780060
:104bf800c84cdd000281fb0002817400dfb297001f
:104c0800823278004844dd008180fb008100740016
:104c18004fb1970001317800640037000907780028
:104c28000ff597008040eb000a407800b0fc0700c1
:104c3800e9b8200099447800fbb820009b4578002b
:104c48000db920009d4678001cb920001c4678004c
:104c58008040eb000a407800a5fc0700f6b8200069
:104c68001643780003b920009341780011b9200059
:104c7800914078008882fb007faa970084824200d6
:104c880085824200c84cdd00e7b8200097437800d1
:104c98008783fb00878374007fb0970007b07a0092
:104ca800c85bdd000683fb00068373006fb19700c5
:104cb80006b17a00486add008381fb008301720037
:104cc8005fb2970003b27a004861dd008180fb0083
:104cd800810071004fb0970001b07a000844e800e5
:104ce8008880fb008e8f5000ceff35008040eb009f
:104cf8000ff097007efc0700ecb820001c467800f7
:104d0800fbb820009b4578000ab920001a457800b6
:104d180019b920009944780011c0b3000ff097002a
:104d280073fc0700f8b820001844780002b9200086
:104d38001241780011b92000914078006fe2970085
:104d48008481fb000300e900ffaa970005004000ea
:104d5800000040004866dd00e3b820009341780079
:104d68008381fb0003067600ffb197008c31780041
:104d7800c85ddd000884fb00088475006fb29700e9
:104d8800083278004855dd000281fb0002017500f9
:104d9800dfb2970082327800c84cdd008180fb00ca
:104da800818074004fb19700013178000ff09700af
:104db80028fb070010c0b3000f0037000ff0970062
:104dc80024fb07000040eb000b0037000ff09700b2
:104dd80020fb07000040eb00070037000ff09700aa
:104de8001cfb07000040eb00030037000ff09700a2
:104df80018fb07000040eb004f0778004f06be0085
:104e08004f05be004f04be00ef00b10000000600d1
:104e1800889fbe008a1f780000447800814478008b
:104e2800020578000040eb00d4fa07000040eb00d0
:104e3800dbfa0700884044000040eb0029fb07002c
:104e4800e04f50001b003a008940780025fb07001e
:104e5800e04f500013003a00d1fa070088404400a0
:104e68000104a0000040eb001efb0700e04f5000cb
:104e780008003a0011c0b3001dfc07008ecbbf002c
:104e8800004d78000040eb00f2fa070010c0b300b4
:104e98000b0037000040eb00eefa07000040eb0083
:104ea800070037000040eb00eafa07000040eb007b
:104eb800030037000040eb00e6fa07000040eb0073
:104ec8004f0578004f04be0000000600881f7800d8
:104ed8008f60a90000c02000a3ed0700801c80009f
:104ee8004500de0067006000e30f5000fbff340060
:104ef80003cbbf000080fb0080007800010cb200eb
:104f08000190a000c208dd004200dd00f80f20007b
:104f180008006000808070006011b8000040eb005d
:104f280061ed070003cbbf000080fb0000017800a3
:104f3800020cb2000170200081007100c208dd007f
:104f48004200dd0008046000888070006011b8002d
:104f580020c0b30054ed07006011b800c1c32100a0
:104f680010c0b30050ed07006011b800d1c3210094
:104f78000040eb0070ed07006011b800d1c32100bc
:104f880010c0b3006ced0700e9ec070000802000ba
:104f980075ed07008f60a8004f0478000000060038
:104fa800881f78008f60a900a1ff2f0070002000e3
:104fb80082ed0700e6a9ef000000eb00e04c880056
:104fc80000588800515980009ee9b7009fe9b70052
:104fd800a0e9b700a1e9b700a2e9b700a3e9b700c3
:104fe800a4e9b700a5e9b700314d8800ace9b700de
:104ff800ade9b700aee9b700afe9b700b0e9b7006f
:10500800b1e9b700b2e9b700b3e9b700a14d88002c
:10501800bae9b700bbe9b700bce9b700bde9b7001a
:10502800bee9b700bfe9b700c0e9b700c1e9b700fa
:10503800114e8800c8e9b700c9e9b700cae9b70046
:10504800cbe9b700cce9b700cde9b700cee9b700a6
:10505800cfe9b700814e880000c0200042ed07006c
:10506800801c80004500de0067006000e30f5000f0
:10507800fbff3400014920000000eb00aeec070004
:1050880092ff0700310020000040eb0040ed0700d0
:10509800410020000040eb0035ed07000044eb0024
:1050a80008407800a7ec0700e04f5000fcff3200f2
:1050b800008020002ced07008f60a9004f047800c5
:1050c80000000600889fbe008a1f7800030578004c
:1050d8008f60a900344f8000f20f52001f003c007f
:1050e8000402e800344f88006e23b900019f2000b5
:1050f80080307b006480400002707b00e04f5100ec
:105108000b0032008a0178006e20b900759e2000dd
:10511800050040000241e9008280fb0081804100d7
:105128008100e80033687800818f5100fdff3a0064
:10513800e00f520006003a000044eb0008407800f7
:1051480080ec0700e04f5000fcff32009643a800b7
:105158008f60a8000040eb0017003700e6a9ef00b9
:1051680059598000c44cdd005070200080847400c0
:105178000044eb000840780072ec0700e04f500054
:10518800fcff32004248dd00400db200017c2000e7
:1051980081846400c54cdd00090070008042eb008a
:1051a800054278008a007800821f20000300200052
:1051b8007eec070000c0eb004f0578004f04be00ee
:1051c80000000600304f8000e10f4000130032005d
:1051d8006e00b9008000780068804000829e200040
:1051e800e20178006c824000828040004218dd00b5
:1051f800c00fb200057c200085816100c519dd0063
:10520800030070008042eb0062427a00821f200097
:105218000300200065ec0700e629ed00801c8000f3
:105228006e006000e80f500001003a009643a900a4
:10523800000006009603ab00030032009603a900a5
:105248000000eb0007003700b11c8000e28060001e
:105258000000eb00808f5000020032009623a90066
:1052680010002000e14c8000e38f500002003c0059
:105278008100e800e14c8800e14c80008100e900f1
:10528800e00f5000560032006e08b9008000780028
:10529800e09920006237200012f07800801b80001f
:1052a8004200de00f37f2000629a200001014100e5
:1052b80003096000a41b8000a09a200001004000a0
:1052c8006f486200f4992000821f7800723720002e
:1052d80012f278004f017800841b80004222de0021
:1052e80003096200a41b80006f486200049a200032
:1052f800821f78008237200012f278004f01780070
:10530800841b80004222de0003096200a41b800087
:105318006f486200149a2000821f7800923720009c
:1053280012f278004f017800841b80004222de00d0
:1053380003096200a41b80006f486200249a2000c1
:10534800821f7800a237200012f278004f017800ff
:10535800841b80004222de0003096200a41b800037
:105368006f486200349a2000821f7800b23720000c
:1053780012f278004f017800841b80004222de0080
:1053880003096200a41b80006f486200449a200051
:10539800821f7800c237200012f278004f0178008f
:1053a800841b80004222de0003096200a41b8000e7
:1053b8006f486200549a2000821f7800d23720007c
:1053c80012f278004f017800811b8000c208de00cd
:1053d80003896000a11b80006fc860004700370088
:1053e8006e08b90080007800e0992000623820003b
:1053f80012f07800001c80004200de00f37f2000dd
:10540800629a20000101410003096000241c800009
:10541800a09a2000010040006f486200f499200023
:105428007538200015f27800041c80004222de0046
:1054380003096200241c80006f486200049a20005f
:105448008538200015f27800041c80004222de0016
:1054580003096200241c80006f486200149a20002f
:105468009538200015f27800041c80004222de00e6
:1054780003096200241c80006f486200249a2000ff
:10548800a538200015f27800041c80004222de00b6
:1054980003096200241c80006f486200349a2000cf
:1054a800b538200015f27800041c80004222de0086
:1054b80003096200241c80006f486200449a20009f
:1054c800c538200015f27800041c80004222de0056
:1054d80003096200241c80006f486200549a20006f
:1054e800d538200015f27800011c8000c208de00c3
:1054f80003896000211c80006fc860008ee3a9004a
:105508007ee3a90000000600e04c800000000600d1
:105518008f60a900e04c8000e00f500002003400ca
:105528000000e900e04c88008f60a8000000060039
:105538000800fa00889fbe008a1f78000040eb0030
:1055480080ff9f0090ff9f0059598000c44cdd00e8
:105558000170200081847400c1c0b300a1f79f00ce
:10556800b0f79f002ecbbf00c0f79f002fcbbf0026
:10557800d0f79f0030cbbf00e0f79f0031cbbf00d2
:10558800f0f79f00ee81570062c0b30011c0b3006e
:1055980009007800cbfe070018c0b300b8f79f00d9
:1055a80032cbbf00c0f79f0033cbbf00d0f79f00be
:1055b80034cbbf00e0f79f0035cbbf00f0f79f006a
:1055c800ee81570062c0b300884078000900780077
:1055d800bcfe070020c0b300b0f79f0036cbbf0069
:1055e800c0f79f0037cbbf00d0f79f0038cbbf0074
:1055f800e0f79f0039cbbf00f0f79f00ee8157001e
:1056080062c0b3008840780009007800adfe07004a
:1056180030c0b300b0f79f003acbbf00c0f79f007f
:105628003bcbbf00d0f79f003ccbbf00e0f79f000b
:105638003dcbbf00f0f79f00ee81570062c0b3007a
:1056480088407800090078009efe070040c0b3003b
:10565800b0f79f003ecbbf00c0f79f003fcbbf0015
:10566800d0f79f0040cbbf00e0f79f0041cbbf00c1
:10567800f0f79f00ee81570062c0b30088407800c1
:10568800090078008ffe070050c0b300b0f79f00f4
:1056980042cbbf00c0f79f0043cbbf00d0f79f00ad
:1056a80044cbbf00e0f79f0045cbbf00f0f79f0059
:1056b800ee81570062c0b300884078000900780086
:1056c80080fe07006ac0b300baf79f0046cbbf0050
:1056d800c0f79f0047cbbf00d0f79f0048cbbf0063
:1056e800e0f79f0049cbbf00f0f79f00ee8157001d
:1056f8000a417800884078000900780071fe0700a8
:1057080070c0b300b0f79f004acbbf00c0f79f003e
:105718004bcbbf00d0f79f004ccbbf00e0f79f00fa
:105728004dcbbf00f0f79f00ee8157000a4178008b
:10573800884078000900780062fe07004f0578006d
:105748004f04be000080fa0000000600889fbe00db
:105758008a9fbe008c9fbe00087020005db02000ac
:10576800dcb22000090220008d844400ff8554002b
:10577800e7013700e34c80008301e9006e18b900a7
:1057880068004000e1992000e1007800088060008e
:10579800880f500004003a006f816000545980005f
:1057a800840f5100030032006f816000ef0f510039
:1057b80077003a008c60a9008cc0a9005659800077
:1057c8004431dd00000071004409de006f01610012
:1057d800020070006e1ab900e299200062417a0056
:1057e800ec4f51006100320005003e00e04f5100cf
:1057f80028003200e44f510065003a0017003700d6
:10580800ed4f510036003200e14f410060003a0090
:105818006e19b90082007800e39920008181410067
:1058280080c9eb0052c0b300f499200002f278005e
:1058380024c0b300059a200084f2780004c1b300a4
:105848008502e80084f278000502e80002f2780098
:1058580011c0b3001bfe07004d003700ef80600049
:10586800810f53004a003a006e19b900e3992000ed
:105878008281410041c0b3008149780011c0b30062
:10588800f49920000172790022c0b3000dfe0700d0
:105898003f003700ea9920006e19b90082014500df
:1058a8008049eb0011c0b3000a02e80001727900d8
:1058b80022c0b30003fe07009c09ed006e00b9008a
:1058c800680040006a0078006f006000515980004d
:1058d800810f50002e003a000000fe002c00370017
:1058e800ef806000810f530029003a006e18b9005c
:1058f800800178008300e800e099200081004000e2
:10590800914078008180fb00c208dd000381e80037
:105918006041790082f578006382410072b020000e
:1059280060427a0004f17800648241000201e800d4
:1059380060427a0004f17800e58141000201e80044
:10594800e0c1790003f17800e4c9bf00e74f5000d7
:1059580003003a00e469ef00d80607000c0037009e
:105968000040e800e4e9b70009003700ef80600074
:10597800810f530006003a000d0078008c00780073
:10598800d0687800890f5000fdff3a00e8fe070054
:10599800e24c80000201e9006e10b9006800400086
:1059a800e1992000e1007800f0702000808060001c
:1059b80003cbbf000080fb000090a000808f500048
:1059c80050013a006e10b900e39920006340780056
:1059d8000080fb00010020002003b1000180b1001d
:1059e800fd0f5000e08f580046013e0000600100a6
:1059f8001d003700430137004201370041013700dd
:105a0800400137003f0137003e0137003d013700b4
:105a18003c0137003b0137003a01370039013700b4
:105a280038013700370137003601370035013700b4
:105a380034013700330137003201370031013700b4
:105a4800300137002f0137002e0137002d013700b4
:105a58002c0137002b0137000c00370027013700d5
:105a6800ba003700ec0037006e11b900f099200039
:105a78006040790003ebb7000080fb0050598800b4
:105a88008e06070011fd07001e0137006e10b900d1
:105a9800f399200063407800ef4060008000fd002b
:105aa8002debb7008000fd000080fb004400de0005
