:020000040000fa
:020000040002f8
:1098000000030000000000009c020000d0070000e0
:10981000c0000000800000000000000000350000d3
:109820000000000000000000000000000000000038
:109830000200000000000000000000000100000025
:109840000000000000000000000000000000000018
:109850000000000000000000000000000000000008
:1098600000000000000000000000000000000000f8
:1098700000000000010000000000000001000000e6
:109880002a1700001516000000000000010000006b
:109890000004000001000000000000001bb70000f1
:1098a00000000000000000000000000000000000b8
:1098b00000000000000000000000000000000000a8
:1098c0000000000000000000000000000000000098
:1098d0000000000000000000000000000000000088
:020000040000fa
:080000000002040000000000f2
:020000040000fa
:100400008ff52100ce6924000e0188000000000055
:100410000c000700a0312300010020001f0007008e
:10042000000020000000e000020032000000020096
:10043000000000009c2a0200000000000040da00da
:100440000000fe004440a900c01020000000e000b1
:100450000300320000002000a00188004440a800f2
:1004600000000600f03fb1000180b1000600350039
:10047000ee03090000000000403fb1000180b10020
:10048000fbff3d001000b000203fb000020035002f
:1004900000800900000000000000060091018800b3
:1004a000800078000000eb0015003700e28040007b
:1004b00032a0b4009101ba00e280400032a0b40042
:1004c0009102ba00e280400032a0b4000002eb00ca
:1004d000472bde00f507b200602ce10004003a0073
:1004e0000059eb008301e900fdff3e0004003700e6
:1004f0006128e100010032000082eb0004000700e7
:100500001101ba000200e000e8ff3a000000060016
:100510003159ba008301e9000c0032002159ba00b8
:100520008301e900080032000400e00003003a0003
:10053000e280400032a0b400f5ff370011d9ba00c4
:100540008301e900faff3a008100e800e180400001
:1005500032a0b40000000600482d04000000000096
:100560003200f800910188008002780062004000ab
:10057000e08048003549ba003204e0000410a700ca
:10058000100032008301e9000e0032002549ba0054
:100590003204e0000410a7000a0032008301e900e1
:1005a000080032000408a300eeff320015c9ba00ab
:1005b0003204e0000410a700020032008301e900c9
:1005c000e8ff3a003200f900000006003200f800af
:1005d000023b8800910188000008bb000500fc0078
:1005e00051052000313b8800a10a2000313b8800e2
:1005f00061e7a80000000000000000003200f900e0
:10060000000006000400a100010037000400a00063
:100610003200f8009101880011002400013b88009d
:10062000f10f20003208bb000400a700b2007800e0
:100630000198bb008301e900faff3a00680151000c
:100640000400a70068015100680050001208bb00b8
:10065000e2ff3700f30f20003200f800910188001c
:1006600031002400013b88000208bb000388bb0066
:10067000daff37003200f800003b8800d7ff370070
:100680000a00fa0080017800e20f500028003e00c6
:10069000b0fa8000e10f50000800320080232000f3
:1006a0000000e00005003200042320002523200084
:1006b0004623200080017800040037000422200037
:1006c0002522200046222000832220001440900092
:1006d0000004e000040035008009eb0014409000a5
:1006e0000074a00010429800154090000028a3005c
:1006f00003003a00154090000024a00090429800aa
:100700008001eb0007003700154090000008a300af
:10071000fdff320063c078000000fb00000b780092
:100720008301e800828f5100f7ff3a00080037008c
:1007300030002000b0bf9f00c3bf9f00d1bf9f000b
:10074000e2bf9f006a80570000c0da006fb99700cf
:10075000020078000080fa0000000600889fbe00ba
:100760008a9fbe00010578000100e000040035000a
:1007700008003c000000e0002000320005003700c7
:1007800060001000e080180002003b0001f02c0027
:100790001a0037000004be006011b8006b09200089
:1007a0000982cf00020039000882cf000441b00066
:1007b000694252000e00320008003b008281710045
:1007c000610164008904d1000884d3008b05e8002e
:1007d0000442e800f9ff3a0005003700080444002d
:1007e00089844c008b05e9000442e900fbff3a00d4
:1007f000240107000af0a70001f0a0004f05be0089
:100800004f04be0000000600889fbe008a9fbe0005
:100810008c1f7800410107004801330003866c00fb
:100820006450e1002e0032006420e1003300320009
:100830006150e1002f0032006120e1003100320000
:1008400085855500eb07b000090020000804200052
:10085000050037000804440089844c000a00310078
:100860000603430087834b000001530081815b0036
:10087000f8ff33000203be000800a0000804440093
:1008800089844c00f6ff3900c639dd00830173000e
:1008900001003200130020008904d1000884d30035
:1008a0000998a300050032000800a7000300a0007b
:1008b0008904d1000884d3008b05e8008904d100a5
:1008c0000884d3000001eb000281d200ed00070094
:1008d00001f0a1000cf0a70001f0a00020013700fa
:1008e0006420e100220132000801be000200be00c7
:1008f000f7ff37006120e1001d0132006000b80001
:10090000f3ff37000000200001f82700f0ff370058
:100910000001be00190107000470a70003f0a10048
:1009200003f8a30013003a006509b100100032007b
:10093000090035006928e1000200350001002800a7
:100940000000050000004000818048008502e900a9
:10095000fcff3a0000000600f88f42000500350059
:100960008100d1000080d3008502e800fcff3a003e
:10097000000006008000eb0000000500839f680077
:100980000100e00002003d0060001000e08018005f
:100990000300e00002003d0060011100e081190049
:1009a0000b0107004f00e00002003b006000100058
:1009b000e080180000000600889fbe008a9fbe00ed
:1009c0008c1f7800d5000700dc00330003866c0024
:1009d0006450e100240032006420e100270032006e
:1009e0006150e100220032006120e100210032006c
:1009f0008b854200eb07b1000134b800003ab80023
:100a00000804420089844a00013ab8000030b80066
:100a10008880400009014a000400330000004000c3
:100a200081804800020149008b05e900c909dd0009
:100a3000830170000100320013002000c814de00a2
:100a40004814dd004709de001200b200c808de00cd
:100a5000088470008b00070001f0a1000cf0a700d3
:100a600001f0a000be0037006120e100c0003200ac
:100a70000801be000200be00f7ff37006150e10030
:100a8000fcff3a00ba0037000001be00bb000700bf
:100a90000470a70003f0a1006509b1001600320040
:100aa0000d0035006828e10006003500f0ff2f003a
:100ab000f1ff27000300e00013003b0001002800c5
:100ac0000000050000004000818048008502e90028
:100ad000fcff3a0008003700f88f420002003c009b
:100ae0008000eb00000005008100d1000080d300f1
:100af0008502e800fcff3a000300e00002003b0032
:100b000060001000e08018000000060003f0a20062
:100b1000889fbe008a9fbe008c1f78007f00070060
:100b2000860033006450e1004f0032006420e10091
:100b30005200320003826c0007003b000905d00020
:100b40000306d000820f54000c065d00020039003d
:100b50000200320089017800030678008582550082
:100b600004003d000003fd008103fd008502ea0052
:100b70008b854200840f720002003b006000100071
:100b8000e08018006011b8000005eb007a28e10051
:100b90000a00390006007800c75ddd00f707b200e3
:100ba000878075002d003700828171000a0178006e
:100bb000610560008180d1000080d3008502e900da
:100bc000f9ff3b00060440008784480002003b0018
:100bd00060041400e0841c000988a30007003200b0
:100be0008a81710082817100610164008904d100f1
:100bf0000884d3008b05e800170037000978a300ac
:100c000013003a000b00e000130034008b05e900ec
:100c10000804440089844c000a4474000978a30045
:100c20000d003a000b00e000070034008b05e900de
:100c30000804440089844c0001003a000b002000a5
:100c40000978a300f7ff32000001eb000200370033
:100c5000828171000a0178000a0007000cf0a700e9
:100c600001f0a0003e0037006420e10002003a00dd
:100c7000838f6c003e0033000801be000200be00fe
:100c80003700370081002000618055000b003d00d7
:100c90000b00200061fe2f000100e1001d00340068
:100ca00082817100610164008904d1000884d3004d
:100cb0000000e800faff3a007100200061006400c3
:100cc000030070000200600009003200610444006b
:100cd000e0844c000988a500050032008b05e8007f
:100ce0006808e10002003a008904d1000884d300ba
:100cf000f20f20000258e10005003d00c75ddd0055
:100d0000f907b2008980750008007800000006002d
:100d10000bf827008b007800000005000004be00df
:100d2000160007000003be000405be000200be005e
:100d300012000700844f7500000006000200be008c
:100d40006450e100050036006420e1000200360036
:100d50000968a30001003a000800be000160a0007d
:100d60004f0678004f05be004f04be00000006008d
:100d7000f0ff2f00f1ff2700f9ff3700c70ade0060
:100d8000f107b200f50fb20008003200e1cf4200d7
:100d9000020032000170a00024000500810f7000e5
:100da000010032000408050044000500810f7000b6
:100db00002003a00140005008502e900000040002e
:100dc00081c04800fcff3b000170a000240005002a
:100dd0006022b800060220000000d0008180d2000e
:100de0000482d2008582d2000000a00002025200dc
:100df00083825a00030031000202420083824a00cb
:100e00000000a1000603e900f3ff3a00000006001d
:100e1000881f7800000478005001be004000be002a
:100e20000400400085804800060149008781490090
:100e3000009cbe000294be000400e1000588e100b1
:100e40000690e1000798e1000200310068004400cc
:100e50001008e8004f04780000000600f4874700ff
:100e6000889fbe008a9fbe008c9fbe008e1f7800a8
:100e70000205be000004be00d4b79f00e5b79f0086
:100e8000f6b79f0087bf9f000000eb00c0b79f0030
:100e9000b0b79f00a0b79f0090b79f0080b79f009a
:100ea0000d042000bfb097004fb097000001400034
:100eb0000000e0000f003d004f08de000000710060
:100ec000c0b79f009e00070001003d0012002000f7
:100ed000a100070001003d0012002000a60007004d
:100ee000b1000700b60007000f004000c8ff070070
:100ef000220037004f08de0000067100ccb79f00cb
:100f00008f00070001003d00120020009200070042
:100f100001003d001200200097000700a20007001a
:100f20000fb297009fb297002fb39700bfb39700ff
:100f3000a90007000000520081805a0002015b00f6
:100f400083815b0080b79f0091b79f00a2b79f008d
:100f5000b3b79f000007eb009f0007000020e100ef
:100f600001a8e10002b0e10003b8e1000100310096
:100f70001e0020000e005600c0b79f004fb2970021
:100f80000400e000070035001000200001002000f0
:100f90006011b80008047000898470000a057100af
:100fa0008b8571008d06e900beff3a000400e00069
:100fb00003003d00820007000f00400094ff07007f
:100fc0004fa897000000e00004003a000fb497001b
:100fd0009fb497002fb59700bfb597009400070006
:100fe0004f0778004f06be004f05be004f04be00fd
:100ff0004f01b10000000600881f78001800200093
:10100000881f780095ff07008f87e9004f0478005c
:1010100000000600801feb0090ff07008f87e900ab
:1010200000000600889fbe008a9fbe008c1f7800cb
:101030006e00070007003d0073000700e00f5b0033
:10104000e08f5b0007003d00320007000006eb0068
:10105000040037003400070002003d002a000700aa
:101060001c00200072000700e3ff07000203be001f
:101070000002be000c00e000010032002200070068
:101080000400be000601be004f0678004f05be00fa
:101090004f04be0000000600889fbe008a9fbe006d
:1010a0008c1f78005100070005003d005600070026
:1010b000e00f5b00e08f5b0006003d00040037009e
:1010c0001900070003003d006000b8006011b8007f
:1010d0001000070056000700ceff07000203be0005
:1010e0000002be000c00e000010032000600070014
:1010f0000400be000601be004f0678004f05be008a
:101100004f04be00000006006000b8006011b80087
:101110000000370004025000858258000603590081
:1011200087835900000006000006eb00e00f520024
:10113000e08f5a00e00f5b00e08f5b0000000600cc
:101140000180400090b79f000001eb008fb0970036
:101150000100e000000006000200700090b79f0050
:101160000180400080b79f000001eb00ffa89700be
:101170000100e000000006000200700080b79f0040
:10118000018040006faa9700cf20de0001007000b0
:10119000f0af9f0004024200250007004f18de0058
:1011a0000002720000000600e4af9f000804440043
:1011b00089844c000a054d008b854d000000060017
:1011c0003fb29700cfb297005fb39700efb397009d
:1011d00000fe2f00000006003fb09700cfb0970040
:1011e0005fb19700efb19700000006000205be0056
:1011f0000004be00e00f5000e08f5800e00f5900df
:10120000e08f5900000006006000b8006011b800cf
:1012100008045000898458000a0559008b8559003c
:101220001c002000e00f5200e08f5a000000060072
:101230000800be000a01be0000000600889fbe0034
:101240008a9fbe008c9fbe008e1f78004400f8006d
:10125000080f2000280288003400f800811f780061
:101260000f0778002305900007f02f000a38e100ef
:1012700004003200270280004700b30027028800e4
:10128000aa01880003029000d30490000000e90046
:101290000080080015000000130490003305900042
:1012a000c3059000320378009a00ca00b8027800a3
:1012b000048008000a0000005210c4009b80ca008d
:1012c0008707cd005290c4005290c500ba87cd0068
:1012d0005390c4008607cd009a00ca005290c50002
:1012e000bb87cd000600ca000900c8003100cd0050
:1012f0008e0778004f0078003400f9004400f900b0
:101300004f0778004f06be004f05be004f04be00d9
:1013100000000600b0009000400190000000900026
:1013200000800800010000008018eb000019eb00ad
:1013300000000600800378000000eb000038e600a3
:1013400000000600889fbe008781cf00e280510028
:101350000139dd00000028008002510005027800fc
:10136000c12add000600240006a3b90005a4b900c7
:1013700000002f000981b90006034100878349005e
:1013800005ccb900008020000981b90006034100a6
:101390008783490005ccb90000b02f000981b9004e
:1013a000060341008783490005ccb90000382000be
:1013b0000981b900060341008783490005ccb900c3
:1013c00000d62f000981b900060341008783490038
:1013d00005ccb900002120000981b90006034100b5
:1013e0008783490005ccb90030e52f000981b90099
:1013f00006034100878349004f33de004138dd009a
:1014000000037300cfbbde0000002800060340008d
:10141000e0834b004109de00700011000233de0062
:101420000038dd000003730082bbde000100a30072
:101430000500390024a8250004b0b9004f00de00e3
:10144000c108dd0001037000060078004f04be00f3
:1014500000000600c0088800000006001012880086
:10146000211288000212880000000600000888008f
:10147000000006000021ef00110888002008880005
:1014800000000600500888000000060030088800b0
:10149000000006000621ef0061088800800888002f
:1014a0001061a900000006000a21ef007108880001
:1014b0009008880000000600a008880000000600d0
:1014c0001421ef00d1088800f00888001e61a900ef
:1014d000000006009780a90021e1a9008780a900eb
:1014e000000006001821ef00e108880000098800cc
:1014f000000006009540a90041e2a9008540a9002e
:10150000000006000c00fa00889fbe00000478006e
:10151000cfb09700f0ff2700d0bf9f008004eb0002
:1015200099bf9f0088bf9f00a8bf9f00200c20008c
:10153000b0bf9f00788157007080570022000700dd
:101540000fb89700094878000fb8970008045000ba
:10155000080078004f04be000080fa00000006007a
:101560008001780000017800010037000201e800e6
:101570001204e000fdff3a00314078000059780085
:101580000004e000fcff3a000300780000000600c1
:101590008001eb000200370061f079008301e80070
:1015a000828f5100fcff3a00000006008001eb0032
:1015b00002003700817178008301e800828f5100ba
:1015c000fcff3a0000000600fe874700889fbe002f
:1015d0008a9fbe008c9fbe008e1f7800f0b79f00d0
:1015e0000107780082bf9f000000eb00a0b79f00ba
:1015f0009f0237008006eb0050c2b30080cf50003e
:10160000090032000100fb00ffb09700a3020700b1
:10161000e10f400096023200afb097008100e80071
:10162000a1b79f00920237009e407800d0c2b3005d
:1016300080cf50000c00320007003c006d4050008d
:1016400080cf50000a0032006b40400080cf500035
:101650000e003a000800370000c3b30080cf5000ee
:101660000a003a00060037000d30a00005003700e0
:101670000d00a000030037000d10a000010037008e
:101680000d20a0000e07e800e7ff37000d18a300ab
:10169000010032000d00a1000d38a300010032004e
:1016a0000d20a1000100fb0002fd2f000200400000
:1016b000e90f50000e003e000002eb00c4b79f008f
:1016c00082017800cfb297006a28b9001e01fb00a2
:1016d0000001410003014100c2b79f005e00fb0012
:1016e00003004000e90f50000b003e00f5ff3700fb
:1016f0000006eb00ccb79f00a0c2b30080cf500023
:1017000005003a000fb89700c000780080bf9f0026
:10171000c1b79f000e07e8000001eb00b2b79f00c1
:10172000e0c2b3009e4f100018003a000de0a00088
:101730008e00e80064405000914f1000020032001b
:10174000010778000c0037000fba9700c402780038
:1017500084bf9f00b5b79f000e87e8000b003700dd
:101760003fb697006a60b9000000410003004000e6
:10177000b0b79f000e07e8001e01fb0003fd2f001d
:1017800003004100e90f5000f5ff3600be4078002d
:10179000e1d79f00c0c6b30080cf500022003200c6
:1017a0000f003c006940500080cf500077003200ad
:1017b00004003c000104e000310232006b405000a4
:1017c0000f00370040c6b30080cf500093003200b6
:1017d0006540400080cf50008b003a008f003700fa
:1017e00030c7b30080cf50001a00320007003c0021
:1017f0006440500080cf5000110032000040e800eb
:1018000080cf500080003a000f00370050c7b3006f
:1018100080cf5000800032006340400080cf5000f5
:1018200079003a0009003700000028000d48a300a5
:1018300001003a000001200080867600d3ff3700c7
:101840000d60a000750037000d50a0000d70a000c5
:10185000720037008fb897004100780081bf9f0069
:10186000000478000000e00001003a0088ec21004c
:101870008004eb00010037008104e8008900780053
:10188000088044001004e000fbff3a003fb19700dd
:101890000200e00003003200890f51000100310016
:1018a000820478000002eb00e4af9f00cfb2970003
:1018b000898f52000200360009805200e0af9f007d
:1018c0004368de00e10660001b003a000d06780068
:1018d00009003700ffb0970000022000ef01070069
:1018e000e10f4000030032002fb097000000e80035
:1018f000a0b79f000c06e800efa89700810f5600e4
:10190000f4ff3a000081eb00e2af9f000a003700cd
:10191000880078003100fb0001047800ffb09700d8
:10192000de010700e10f4000030032002fb29700f4
:101930000402e800a4b79f000900e90080047800d1
:10194000e10f4000f2ff3a000006eb000d00e0005e
:101950000a003a00c6013700ffb0970000022000dd
:10196000ce010700e10f400003003200afb2970044
:101970008502e800a5b79f000c06e8006fa8970055
:10198000800f5600f4ff3a00b90137008fb8970076
:101990004100780081bf9f00cf80de000101780008
:1019a000820178000205be000004be000203be00f2
:1019b0000002be004822de00482edd000402760050
:1019c000e4d79f000d48a3000a0032000404e000a1
:1019d00008003200e14f42000600320071fd2f0086
:1019e0000180470004487800184098002900200032
:1019f00002003700f0d79f001900200072fd2f0071
:101a000002844700a1ff370064fd2f0004844700d3
:101a1000190020009dff37000d0cb3000d00780069
:101a2000000cb20028003a000d00e00005003d0067
:101a30008fba97004505be004504be0085bf9f00d4
:101a4000140037000d48a3000b0032000fbe9700b2
:101a50004c00be008cbf9f004f89de00cf91de009e
:101a60000002be0002037800820378000605be0073
:101a70000404be00070037008fb8970041007800cb
:101a800081bf9f0000047800cfc4de000905780004
:101a90008a057800e00f5400e08f5c00e00f5d00e5
:101aa000e08f5d001f003d003d00b3006000b80006
:101ab0006011b80008045000898458000a055900d4
:101ac0008b855900170037000d00e00005003d0030
:101ad0000fb997004205be004204be0082bf9f00be
:101ae000100037000d48a300070032000fba97001e
:101af0004400be0084bf9f006011b8000205be0014
:101b00000004be00070037008fba97004500780038
:101b100085bf9f0000047800090020000a00200013
:101b20000b0020003fb697000c00e00007003a00d1
:101b3000e00f5400e08f5c00e00f5d00e08f5d007f
:101b400002003a0010002000b0b79f008d0078001e
:101b5000010cb200e1b79f0000042000808f50000c
:101b60003000320003003c000100e00008003200b9
:101b700040003700000820006fb19700800f51002f
:101b800014003200000c2000800f510039003a0090
:101b900014c0b300e5d521000b0037000400fb00a2
:101ba0004300dd00050040005001be004000be00c3
:101bb0000040e10001c8e10002d0e10003d8e100eb
:101bc0002b0039000442e800f44f5200f3ff3a00c2
:101bd0002700370000012000010020006011b8003c
:101be00014c0b3000040e10001c8e10002d0e100f0
:101bf00003d8e1001e003900450020000000d0009d
:101c00008180d2000281d2008381d2008502e90066
:101c1000faff3a000442e800f04f5200f1ff3a00a8
:101c20001300370080002000010020006011b80080
:101c300014c0b3000040e10001c8e10002d0e1009f
:101c400003d8e1000a0039003c0020000000d00069
:101c50008180d2000281d2008381d2000c06e9008b
:101c6000faff3a000442e800f54f5200f1ff3a0053
:101c7000e4d79f00efd097000100fb003fb1970031
:101c8000820f500002003d00e2d79f0004003700a1
:101c90003fb29700800f520001003d00b0b79f0097
:101ca000cfb297000500e0000400320063806600b8
:101cb000020032008502e900c5b79f000de8a300cd
:101cc0000b0032004fb697003fb09700800f5600d0
:101cd00003003c008000eb00c1b79f000400370008
:101ce0004fb197003fb2970004015100c2b79f0067
:101cf000efd297000500fb000006eb00dcaf9f0071
:101d0000cfb09700808f5000020034000080500058
:101d1000d0af9f000d28a30037003200e18066009d
:101d20000d18a3000c003200d00220000100e000da
:101d300001003a000080e900ffb09700d7000700db
:101d4000e10f40000e0032002fb197000201e800c1
:101d5000a2b79f000a0037000100e000080032002f
:101d6000ffb0970000022000cc000700e10f400008
:101d7000030032002fb297000402e800a4b79f00ce
:101d8000dfaa97000500e0000f0032000006eb001c
:101d9000ffb0970000032000c0000700e10f4000e3
:101da000030032002fb097000000e800a0b79f00aa
:101db0000c06e800dfa89700810f5600f4ff3a00f8
:101dc0000001eb00d2af9f003fb29700c320dd00bf
:101dd00060d521008080400091b79f004220dd0047
:101de0006400500080b79f006320b900f0af9f00ef
:101df0006306500084003700dfaa97000500e0006a
:101e000011003200688066000f003a00000678007a
:101e1000ffb0970000022000a0000700e10f400083
:101e2000030032002fb097000000e800a0b79f0029
:101e30000c06e800dfa89700810f5600f4ff3a0077
:101e40000001eb00d2af9f00e18066000d18a300f7
:101e50000c003200d00220000100e00001003a0036
:101e60000080e900ffb097008c000700e10f400000
:101e7000d5ff32002fb297000402e800a4b79f00fc
:101e8000d1ff37000100e000cfff3200ffb0970024
:101e90000002200081000700e10f4000caff32006d
:101ea000afb297008502e800a5b79f00c6ff3700d4
:101eb00000042000efb09700808f50003100320006
:101ec00003003c000100e000080032003e00370043
:101ed000000820006fb19700800f51001100320000
:101ee000000c2000800f510037003a001fb097000f
:101ef0003002be002003be000800be000a01be0082
:101f00003dfc0700a4002000050020006033b8005d
:101f100040fc070004c3b30004424000e4d79f0024
:101f200029003700f5ec2100d5b79f000d58a3001c
:101f300002003a0000ee2100d0b79f0014002000fc
:101f4000050020006033b8008fb097008100e900e1
:101f5000050033000402d0008582d2000683d2003f
:101f60008783d200f9ff37000800be000a01be00d7
:101f700021fc07006f0060005fb1970062407800ad
:101f80001000370014002000050020006033b80066
:101f90000c0078000000e900050033000402d000c6
:101fa0008582d2000683d2008783d200f9ff3700f2
:101fb0000800be000a01be000ffc07006740600079
:101fc0000043b000e0d79f00efd097000100fb0076
:101fd000ffb0970031000700e10f4000030032001e
:101fe0002fb197000201e800a2b79f001fb297002f
:101ff0006802520094b79f008fb29700e4825200ab
:1020000085b79f0063065600d0ff2f003fb19700b1
:102010000090b9007faa97000000420063005000c2
:10202000800f5600a2ff3a000d38a30010003200c6
:10203000dfaa97000500e0000d0034000006eb0069
:10204000ffb097000002200014000700e10f4000dd
:10205000030032002fb097000000e800a0b79f00f7
:102060000c06e800dfa89700810f5600f4ff3a0045
:10207000be407800e1d79f000104e0005dfd3a001a
:102080002fb097004f0778004f06be004f05be00e7
:102090004f04be00ef01b10000000600889fbe00a3
:1020a0000001780001047800b10090000118a3003d
:1020b0003d0032000198a30003003a001800900090
:1020c0000000e00038003a000190a00031049800c0
:1020d00082047800f90fb200180090000000e000c0
:1020e00002003a0028009000000c7800ea8f5400ab
:1020f00006003a00380090000078a30003003a0080
:1021000088007800d0002000e4ff070098009000cd
:1021100058009000808f50000b0032000100e80052
:10212000100498001800780009587800000c780016
:1021300011c0b300a0f4210001487800ea8f5400d8
:102140000600320019003700880078000940780046
:102150001900070080047800140037003800900050
:102160000088a3001100320018019000a800900020
:102170004800900042f9070098009000810f50003d
:1021800004003200380090000003b30030049800cf
:102190008084eb000000eb00100498002800900001
:1021a000000c7800010037008084eb000900780003
:1021b0004f04be00000006000200fa00889fbe0027
:1021c000a0ff9f0001047800b10090008104780016
:1021d0000904b200020032000000fb0036003700a4
:1021e0000118a30005003a000103b3003104980070
:1021f000190498000080eb002f0037005800900071
:102200000000e00006003a004800900012002000a4
:10221000e68057001af907001904980024003700d7
:10222000280090000000e00008003a0060f421005f
:1022300020049800000c7800200020005004980032
:10224000100498000130a00031049800180190009b
:10225000a80090004800900009f9070028009000ad
:10226000000c78000080eb00100498001800780043
:10227000aff8970001587800000c78002ff897000d
:10228000ea4f50000a003a00380090000088a3008e
:102290000700320018019000a8009000480090004c
:1022a000f7f8070019049800a8009000010c7800c6
:1022b000aff897000100fb004f04be000080fa0059
:0422c0000000060014
:020000040000fa
:0200000401f009
:04000000ffff0000fe
:020000040000fa
:0200000401f009
:04000400ffff0000fa
:020000040000fa
:0200000401f009
:04000800ffff0000f6
:020000040000fa
:0200000401f009
:04000c0078ff000079
:020000040000fa
:0200000401f009
:0400100078ff000075
:020000040000fa
:0200000401f009
:040014007fff00006a
:020000040000fa
:0200000401f009
:04001800ffff0000e6
:020000040000fa
:0200000401f009
:04001c00ddff000004
:020000040000fa
:100008006e4b00004e4b0000524b0000564b000058
:100018005a4b00006e4b00006e4b00006e4b000008
:100028006e4b00006e4b00006e4b0000d4250000a4
:10003800422800006e4b00006e4b0000ec110000df
:10004800d01e00006e4b0000d44500006e4b00002f
:100058006e4b00006e4b0000761400006e4b0000e3
:100068006e4b00006e4b00006e4b0000122100002a
:100078006e4b00006e4b00006e4b00006e4b000094
:10008800d81500006e4b00006e4b0000a443000022
:100098006e4b00006e4b00006e4b00006e4b000074
:1000a8006e4b00006e4b00006e4b0000a014000069
:1000b8006e4b00006e4b00006e4b00006e4b000054
:1000c8006e4b00006e4b00006e4b00006e4b000044
:1000d8006e4b00006e4b00006e4b00006e4b000034
:1000e8006e4b00006e4b00006e4b00006e4b000024
:1000f8006e4b00006e4b00006e4b00006e4b000014
:100108006e4b00006e4b00006e4b00006e4b000003
:100118006e4b00006e4b00006e4b00004047000025
:100128006e4b00006e4b00006e4b00006e4b0000e3
:100138006e4b00006e4b00006e4b00006e4b0000d3
:100148006e4b00006e4b00006e4b00006e4b0000c3
:100158006e4b00006e4b00006e4b00006e4b0000b3
:100168006e4b00006e4b00006e4b00006e4b0000a3
:100178006e4b00006e4b00006e4b00006e4b000093
:100188006e4b00006e4b00006e4b00006e4b000083
:100198006e4b00006e4b00006e4b00006e4b000073
:1001a8006e4b00006e4b00006e4b00006e4b000063
:1001b8006e4b00006e4b00006e4b00006e4b000053
:1001c8006e4b00006e4b00006e4b00006e4b000043
:1001d8006e4b00006e4b00006e4b00006e4b000033
:1001e8006e4b00006e4b00006e4b00006e4b000023
:0801f8006e4b00006e4b00008d
:020000040000fa
:100208006e4b00005e4b0000624b0000664b000026
:100218006a4b00006e4b00006e4b00006e4b0000f6
:100228006e4b00006e4b00006e4b0000d4250000a2
:10023800422800006e4b00006e4b0000ec110000dd
:10024800d01e00006e4b0000d44500006e4b00002d
:100258006e4b00006e4b0000761400006e4b0000e1
:100268006e4b00006e4b00006e4b00001221000028
:100278006e4b00006e4b00006e4b00006e4b000092
:10028800d81500006e4b00006e4b0000a443000020
:100298006e4b00006e4b00006e4b00006e4b000072
:1002a8006e4b00006e4b00006e4b0000a014000067
:1002b8006e4b00006e4b00006e4b00006e4b000052
:1002c8006e4b00006e4b00006e4b00006e4b000042
:1002d8006e4b00006e4b00006e4b00006e4b000032
:1002e8006e4b00006e4b00006e4b00006e4b000022
:1002f8006e4b00006e4b00006e4b00006e4b000012
:100308006e4b00006e4b00006e4b00006e4b000001
:100318006e4b00006e4b00006e4b00004047000023
:100328006e4b00006e4b00006e4b00006e4b0000e1
:100338006e4b00006e4b00006e4b00006e4b0000d1
:100348006e4b00006e4b00006e4b00006e4b0000c1
:100358006e4b00006e4b00006e4b00006e4b0000b1
:100368006e4b00006e4b00006e4b00006e4b0000a1
:100378006e4b00006e4b00006e4b00006e4b000091
:100388006e4b00006e4b00006e4b00006e4b000081
:100398006e4b00006e4b00006e4b00006e4b000071
:1003a8006e4b00006e4b00006e4b00006e4b000061
:1003b8006e4b00006e4b00006e4b00006e4b000051
:1003c8006e4b00006e4b00006e4b00006e4b000041
:1003d8006e4b00006e4b00006e4b00006e4b000031
:1003e8006e4b00006e4b00006e4b00006e4b000021
:0803f8006e4b00006e4b00008b
:020000040000fa
:1024000000000000480600008c0c0000c81200000c
:10241000f91800001a1f0000282500001f2b0000db
:10242000fc300000ba360000563c0000ce410000ef
:102430001d470000404c000033510000f5550000de
:10244000825a0000d75e0000f2620000cf660000f2
:102450006d6a0000ca6d0000e2700000b5730000f4
:1024600041760000847800007d7a0000297c00001d
:102470008a7d00009d7e0000627f0000d87f000002
:10248000ff7f0000d87f0000627f00009d7e00007b
:102490008a7d0000297c00007d7a0000847800009d
:1024a00041760000b5730000e2700000ca6d0000c4
:1024b0006d6a0000cf660000f2620000d75e000087
:1024c000825a0000f555000033510000404c0000d6
:1024d0001d470000ce410000563c0000ba36000007
:1024e000fc3000001f2b0000282500001a1f0000f0
:1024f000f9180000c81200008c0c0000480600000b
:1025000000000000b8f9000074f3000038ed00008e
:1025100007e70000e6e00000d8da0000e1d40000a0
:1025200004cf000046c90000aac3000032be00006c
:10253000e3b80000c0b30000cdae00000baa00005d
:102540007ea5000029a100000e9d00003199000029
:1025500093950000369200001e8f00004b8c000007
:10256000bf8900007c87000083850000d7830000be
:1025700076820000638100009e80000028800000b9
:1025800001800000288000009e8000006381000020
:1025900076820000d7830000838500007c870000de
:1025a000bf8900004b8c00001e8f00003692000097
:1025b00093950000319900000e9d000029a10000b4
:1025c0007ea500000baa0000cdae0000c0b3000045
:1025d000e3b8000032be0000aac3000046c90000f4
:1025e00004cf0000e1d40000d8da0000e6e00000eb
:1025f00007e7000038ed000074f30000b8f90000b0
:102600001400000084030000e803000025300000ef
:0826100032640000000000002c
:020000040000fa
:102618000164a80001ccb300014078001064b70041
:1026280010c4bf000140600010e4b70080c3b300cd
:102638001264b70012e4a80013c4bf0081cfb3002e
:10264800014060005040b30013e4b70012c4bf005b
:10265800014060000024a00012e4b70012c4a800e2
:1026680000000600881f78008a9fbe0001047800d9
:102678000004a800000040000000400001432000c2
:1026880081024000e10f52000d003200f07f20006f
:102698000200600001002000e10f54001c0032001d
:1026a8004500dd00800a78000000eb0090029800e9
:1026b8000004a9004f05be004f0478000000060082
:1026c8006115b8004098de00cf80de00630060002e
:1026d8006103b8004299de00cf91de00f07f200050
:1026e8000200600001002000e10f54000d003200dc
:1026f8004500dd00860a40009a0298000004a900ff
:102708004f05be004f04780000000600ecff3700bc
:102718004500dd00e80a40000000eb009002980048
:10272800e3ff37004500dd0006004000e80a4000ee
:102738009a029800f1ff3700889fbe008a9fbe006a
:10274800000378000204be000405be000004a800cf
:1027580000004000000040000244200082034000c6
:1027680042b0de00000040000242200002024000a9
:1027780043b0de0000004000824120008202400099
:10278800e18f50001c0032004540dd00800b7800ce
:10279800f07f20000100200091039800e30063000f
:1027a800c208dd00f00020000100dd000080ea0022
:1027b800140060008150dd00010a7000e70063002a
:1027c80081804000300020000100dd000080ea0028
:1027d800150060008158dd00810a7000100020009b
:1027e8000600dd001424b7000004a9004f05be0050
:1027f8004f04be000000060042c9de00cf91de0093
:102808004511dd0040c8de00cf80de0063006000b7
:1028180000014100e80b410098039800e3006300c1
:10282800c208dd00f00020000100dd000080ea00a1
:10283800140060008150dd00010a7000e7006300a9
:1028480081804000300020000100dd000080ea00a7
:10285800150060008158dd00810a7000100020001a
:102868000600dd001424b7000004a9004f05be00cf
:102878004f04be0000000600dfff3700e023ef0032
:1028880000022200601c880020442000a01c880050
:1028980070002000b01c880060042000701c8800b4
:1028a80000782000801c88008de3a8000000060046
:1028b800e023ef0000022000c01c88000044200034
:1028c800001d880070002000101d88007b0040005b
:1028d800d01c880000702000e01c880099e3a80044
:1028e8000000060085c0a900004006000004a800fa
:1028f8000bc4bf000048a30002003a00b0902100ba
:102908001024a1000bc4bf000038a30002003a0045
:10291800b09021001034a1000bc4bf000008a30030
:1029280003003a00b1902100f0ccb3009148600058
:102938000004a900000006003600f800809fbe00d1
:10294800829fbe00849fbe00869fbe00881f7800bd
:102958008860a9000004a8000bc4bf000058a300a9
:10296800020032001000200030ea88000bc4bf00cb
:102978000004eb000048a30005003200b0902100dd
:102988001024a000d09021001004a00018002000fe
:102998000bc4bf000038a30004003200b09021002f
:1029a8001034a000d09021001014a0000bc4bf0068
:1029b8000008a30005003200d09021001034a000c8
:1029c800b190210000c3b30091487000f0002000ce
:1029d800502088000004a90030ea8000e10f500070
:1029e800120032000800e00007003a004f047800a7
:1029f8004f03be004f02be004f01be004f00be0095
:102a08003600f90000400600ff1807004f04780060
:102a18004f03be004f02be004f01be004f00be0074
:102a28003600f90000400600f7ff3700f6180700e7
:102a38000800e000edff3200f3ff3700881f780040
:102a4800800278000203be00814178000404780007
:102a5800e00f5300e08f5b00240035004631de00b4
:102a68004230dd0095407800e3ca6000954a700066
:102a78007f4161001540900001ceb3000140600025
:102a880002407000904298005542900063426200f4
:102a9800d44298000040eb00a042980035409000d6
:102aa80001cfb30001406000b04298001514a100a6
:102ab8001504a1000414a100d44298006fc161005c
:102ac8004540900001cfb300014060000240700013
:102ad800c0429800668042000381fb0088007800ad
:102ae800a9fa07004f04780000000600c230dd0094
:102af800504290006340620001427000d442980046
:102b08004a39dd004630de0000007100c638de00bc
:102b18004801de00a04298006f41610035409000f6
:102b280001cfb3000140600002407000b04298003d
:102b38004238de00010020004601de004200dd00d0
:102b480095407800e3ca6000954a70007f416100b3
:102b58001540900001ceb3000140600002407000b3
:102b6800904298001514a0001504a0000414a100b8
:102b7800d44298006fc161004540900001cfb30076
:102b88000140600002407000c04298006680420028
:102b98000381fb00880078007bfa07004f04780067
:102ba80000000600d1ff37003600f800809fbe0005
:102bb800829fbe00849fbe00869fbe00889fbe0085
:102bc8008a9fbe008c9fbe008e1f7800ea87470050
:102bd8008700a9008006eb00de9021008d06e80042
:102be800e68f56004000320008c4bf00800078001d
:102bf800f103b200100020000106dd000221800070
:102c08000c006100590032004408dd000170240006
:102c18000104400048409000ef046000e88f540031
:102c2800020034001e44a0008900200089027800b8
:102c38001842780061406200360032005841900026
:102c48000281fb004211de000281fb00030020002c
:102c580003f0a000284290000482fb003840900056
:102c68006f0060004800dd000400700001002000d3
:102c7800460add00ca00de00810072004600dd0061
:102c880000017100818171001882fb004222de0080
:102c9800184090007f0060004600dd0004007000ce
:102ca80001002000c200dd000000200000057100c6
:102cb80081857100e60044000501780068805700ae
:102cc80031fa07000c80ea00002188005840900083
:102cd8000018a3001f0032001e24a0008d06e80083
:102ce800e68f5600c0ff3a00af00b1004f077800ea
:102cf8004f06be004f05be004f04be004f03be0086
:102d08004f02be004f01be004f00be003600f90062
:102d1800004006009880fb00c208de0018409000c2
:102d28007f0060004600dd00010070006105b8000a
:102d3800e6004400050178006880570012fa070091
:102d48000c80ea0000218800584090000018a30079
:102d5800e1ff3a00e8815700094178000a00be0007
:102d680084f98000040001009cff3700e58f5600bd
:102d7800ddff3a00b09021001004a000af00b100c0
:102d88004f0778004f06be004f05be004f04be0037
:102d98004f03be004f02be004f01be004f00be00f1
:102da8003600f90000400600daff3700889fbe00b1
:102db8008a9fbe008c9fbe00804678000204be0039
:102dc80001457800864578000004a8000086fb00cd
:102dd8000c00460000004000014320008103400031
:102de8000783e8000b04e000400032004219de00cf
:102df8004511dd004048de0001002000630060004e
:102e080000014100e80b4100080b78000004a9000c
:102e18000004a8000a84fb000800440000004000e9
:102e280001442000810340008784e8000b04e0008f
:102e38002a0032004229de00030020004511dd008f
:102e48004028de000100200063006000000141000e
:102e5800e80b4100840c78000242200083412000e6
:102e6800e34f55000400360064405500224220001c
:102e7800e34f500021003e00630064004200dd0083
:102e8800f10020008008dd000180ea0012006000e7
:102e980000897000e2cf560008003e00e700640099
:102ea80081804000300020000100dd000080ea0041
:102eb800130060008160dd008109700010002000af
:102ec8000800dd001424b7000004a9004f06be0066
:102ed8004f05be004f04be00000006004520dd007f
:102ee800800b7800800ceb00dbff37004510dd001d
:102ef800e80b4000000beb00c4ff370068405500aa
:102f080042422000a3412000e34f5000daff360080
:102f18006c40550062422000e34f5000d6ff360057
:102f28000001eb0082017800d3ff370080f98800a8
:102f380001c4bf0081cfb300014060000024a0009d
:102f480001e4b70002ceb30001c8b30000c4bf005b
:102f580002406000814f5000fcff3a000164a80065
:102f680001ccb300014078001064b70010c4bf0062
:102f78000140600010e4b70080c3b3001264b700da
:102f880012e4a80013c4bf0081cfb3000140600061
:102f98005040b30013e4b70012c4bf000140600002
:102fa8000024a00012e4b70012c4a800f00020001a
:102fb800502088000004a9000000060001c4bf00da
:102fc80081cfb3000140600001e4b70002ceb30036
:102fd80000c4bf0002406000fdff3a0030e4a800d2
:102fe80031e4a80032e4a80033e4a80034e4a900de
:102ff80035e4a90036e4a90037e4a90030c4bf00cd
:10300800c1cfb3000140600030e4b70031c4bf0055
:103018000140600031e4b70032c4bf0001406000e5
:1030280032e4b70033c4bf000140600033e4b700a6
:1030380006c4bf00024060000024a00006e4b700f8
:1030480007c4bf007f4060000064a00007e4b70029
:103058000ca4a8009860a8009700a800e023ef003f
:1030680000022200601c880020442000a01c880068
:1030780071002000b11c880060042000701c8800ca
:1030880000782000801c88008de3a800e023ef0072
:1030980000022000c01c880000442000001d880099
:1030a800111d880020022000d01c8800007020001c
:1030b800e01c880099e3a800000006000400fa005c
:1030c800889fbe008a9fbe008c1f78000004be0047
:1030d8000205be00ccf880000080eb00ef0f560020
:1030e8004c003e00f2ff2f00f3ff29000b80610027
:1030f800800278000a0278000403be00898061001b
:10310800080078000002be0039002000820f53003a
:10311800838f5b0014003200a8f1210098417800e9
:103128000381fb004240a9003f003400c0f12100a8
:10313800b00f5300a08f5b008e0032000000eb0040
:1031480001f221000000e800800f51003600320033
:10315800b10f5300b18f5b00faff3a00e10f400056
:1031680031003200800478000c00e800c0f88800c4
:103178000004a8000c0046000000400001442000a4
:103188000103400042e0de00000040000142200050
:103198008103400043e0de00000040008141200040
:1031a80001044000e00f5200e08f5a005300350040
:1031b8004520dd00000b7800f07f20000100200092
:1031c80011039800630066004200dd00f100200052
:1031d8008008dd000180ea0017006000810b7000a4
:1031e800e700660081804000300020000100dd001b
:1031f8000080ea00180060008148dd00010c7000c2
:10320800100020000c00dd001424b7000004a90001
:103218000000eb004f0678004f05be004f04be00cb
:103228000080fa0000000600e0ff2f00e3cf510005
:10323800f8ff32004210dd00c1f12100010040001a
:103248000688be000340e800004c78000084fb00bc
:10325800cf3bde00f0ff21000b006000800078000b
:103268000a0078000001be000004a800080044001d
:10327800000040000143200001034000e00f52001d
:10328800e08f5a0042003500f07f20000200600005
:1032980001002000e18f5300380032004500dd00b6
:1032a800000b78000000eb00100398000004a90050
:1032b800880478000c00e800c0f888000004a80022
:1032c8000c004600000040000144200001034000bb
:1032d80042e0de000000400001422000810340007f
:1032e80043e0de000000400081412000010440006e
:1032f800e00f5200e08f5a00adff3d0042a9de000a
:10330800cf91de004511dd0040a8de00cf80de0051
:103318006300600000014100680b4100140398003d
:10332800630066004200dd00f10020008008dd0037
:103338000180ea0017006000810b7000e70066005a
:1033480081804000300020000100dd000080ea009c
:10335800180060008148dd00010c7000100020009a
:103368000c00dd001424b7000004a9000000eb00e5
:10337800a8ff37008004eb007bff37004500dd0025
:10338800680b40000000eb0010039800c7ff3700ef
:103398006110b80090bf9f00a1bf9f004098de0059
:1033a800cf80de00630060006105b8004299de004e
:1033b800cf91de00f07f20000200600001002000b5
:1033c800e18f5300070032004500dd000a0b400082
:1033d8009fb89700110398000004a900880478009a
:1033e800b4ff37004500dd000a004000680b4000cc
:1033f8009fb8970011039800f7ff3700889fbe0019
:103408000002be00024478008304780030c4bf0084
:103418000038a3000300320031c4bf000038a30005
:10342800a8003a0030c4bf00e843600051003200f1
:1034380031c4bf00e8436000ad003a0003792400be
:10344800e00f5200e08f5a00560135004621de0099
:103458004220dd0093407800e3c960009349700082
:103468007f4161001340900001ceb300014060002d
:1034780002407000904198005343900063436300fa
:10348800d6419800a74198003340900001cfb3007f
:1034980001406000b04198001314a1001304a1007a
:1034a8000614a100d64198006f4164004340900083
:1034b80001cfb3000140600002407000c041980095
:1034c8000881fb0089007800607924002ef8070045
:1034d800a0f221000008eb0041f98000e28f5000c3
:1034e80007003c00c2f2210023002000928f110047
:1034f80003003c00e4f22100948f11006b013400ba
:10350800e3c0600030c4bf00c2cfb3000240600017
:103518000140700030e4b70051f98000e3c060005a
:1035280031c4bf00024060000140700031e4b700c0
:1035380061f98000e3c0600032c4bf00024060004f
:103548000140700032e4b70071f98000e3c0600008
:1035580033c4bf00024060000140700033e4b7008c
:103568003164a8008000eb00010078004f04be0021
:103578000000060003782400e00f5200e08f5a0094
:10358800290135004621de004220dd009340780005
:10359800e3c96000934970007f41610013409000c7
:1035a80001ceb300014060000240700090419800d5
:1035b8005343900063436300d6419800a7419800a5
:1035c8003340900001cfb30001406000b041980043
:1035d8001314a1001304a1000614a100d6419800f9
:1035e8006f4164004340900001cfb3000140600088
:1035f80002407000c04198000881fb0089007800f3
:1036080060782400e0f7070080f221000008eb0052
:1036180053f98000e28f51000d003c00c2f22100f6
:1036280020002000920f100009003c00e4f2210065
:10363800940f100006003c008301e80053f988004d
:103648001200e80060f988001400e80070f98800aa
:1036580041f98000e3c0600030c4bf00c2cfb300ae
:10366800024060000140700030e4b700e3c0610030
:1036780031c4bf00024060000140700031e4b7006f
:1036880061f98000e3c0600032c4bf0002406000fe
:103698000140700032e4b70071f98000e3c06000b7
:1036a80033c4bf00024060000140700033e4b7003b
:1036b8003064a800000020004f04be00000006008f
:1036c800acff370032c4bf000038a30055ff3200fa
:1036d80033c4bf008080eb000038a300a2ff3a008b
:1036e80030c4bf00e843600051ff3a00a1ff370033
:1036f80032c4bf00e843600056003200037b240058
:10370800e00f5200e08f5a00090135004621de0023
:103718004220dd0093407800e3c9600093497000bf
:103728007f4161001340900001ceb300014060006a
:103738000240700090419800534390006343630037
:10374800d64198000040eb00a0419800334090001b
:1037580001cfb30001406000b04198001314a100ec
:103768001304a1000614a100d64198006f4164001b
:103778004340900001cfb300014060000240700058
:10378800c04198000881fb0089007800607b240014
:103798007df70700e4f22100000aeb0041f9800000
:1037a800e28f50000e003c00a0f221002200200011
:1037b800900f11000a003c00c2f2210023002000f3
:1037c800928f110006003c008100e80041f9880052
:1037d8001000e80050f988001200e80060f988003d
:1037e800e3c0600030c4bf00c2cfb3000240600035
:1037f8000140700030e4b70051f98000e3c0600078
:1038080031c4bf00024060000140700031e4b700dd
:1038180061f98000e3c0600032c4bf00024060006c
:103828000140700032e4b70071f98000e3c0600025
:1038380033c4bf00024060000140700033e4b700a9
:103848003364a800000020004f04be0000000600fa
:1038580048ff3700037a2400e00f5200e08f5a0037
:10386800d40035004621de004220dd009340780078
:10387800e3c96000934970007f41610013409000e4
:1038880001ceb300014060000240700090419800f2
:103898005343900063436300d6419800a7419800c2
:1038a8003340900001cfb30001406000b041980060
:1038b8001314a1001304a1000614a100d641980016
:1038c8006f4164004340900001cfb30001406000a5
:1038d80002407000c04198000881fb008900780010
:1038e800607a240028f70700c2f221000009eb00e3
:1038f80041f98000e28f50000d003c00a0f2210049
:1039080022002000900f110009003c00e4f2210081
:10391800940f110006003c008100e80041f988007e
:103928009001e80053f988001400e80070f9880055
:10393800e3c0600030c4bf00c2cfb30002406000e3
:103948000140700030e4b70051f98000e3c0600026
:1039580031c4bf00024060000140700031e4b7008c
:1039680061f98000e3c0600032c4bf00024060001b
:103978000140700032e4b70071f98000e3c06000d4
:1039880033c4bf00024060000140700033e4b70058
:103998003264a800000020004f04be0000000600aa
:1039a800f4fe3700c220dd005343900063406300fb
:1039b80001437000d64198004a29dd004620de0008
:1039c80000007100c628de004801de00a041980012
:1039d8006f4161003340900001cfb30001406000a7
:1039e80002407000b04198004228de00010020002b
:1039f8004601de004200dd0093407800e3c9600024
:103a0800934970007f4161001340900001ceb300dc
:103a18000140600002407000904198001314a0001b
:103a28001304a0009efe3700c220dd00534390001f
:103a38006340630001437000d64198004a29dd00c5
:103a48004620de0000007100c628de004801de00c6
:103a5800a04198006f4161003340900001cfb3004e
:103a68000140600002407000b04198004228de002a
:103a7800010020004601de004200dd00934078008e
:103a8800e3c96000934970007f41610013409000d2
:103a980001ceb300014060000240700090419800e0
:103aa8001314a0001304a000cbfe37008100e80027
:103ab80041f988001200e80060f988001400e80065
:103ac80070f98800e3c0600030c4bf00c2cfb30003
:103ad800024060000140700030e4b70051f98000f6
:103ae800e3c0600031c4bf000240600001407000c4
:103af80031e4b70061f98000e3c0600032c4bf0060
:103b0800024060000140700032e4b70071f98000a3
:103b1800e3c0600033c4bf00024060000140700091
:103b280033e4b7003164a8008000eb008efe370054
:103b3800c220dd00534390006340630001437000de
:103b4800d64198004a29dd004620de0000007100b9
:103b5800c628de004801de00a04198006f416100e0
:103b68003340900001cfb300014060000240700074
:103b7800b04198004228de00010020004601de0026
:103b88004200dd0093407800e3c96000934970006b
:103b98007f4161001340900001ceb30001406000f6
:103ba80002407000904198001314a0001304a00074
:103bb800ecfe3700c220dd005343900063406300f1
:103bc80001437000d64198004a29dd004620de00f6
:103bd80000007100c628de004801de00a041980000
:103be8006f4161003340900001cfb3000140600095
:103bf80002407000b04198004228de000100200019
:103c08004601de004200dd0093407800e3c9600011
:103c1800934970007f4161001340900001ceb300ca
:103c28000140600002407000904198001314a00009
:103c38001304a00020ff3700903682000000e00047
:103c480007003a0000ea8000e10f50000b00320044
:103c5800c082a8001000200090368a0000000600ec
:103c6800f0e98000e10f500009003200c082a8008e
:103c78000000eb0090368a0000000600c082a90010
:103c8800c282a8001000200090368a0000000600ba
:103c9800c082a900c282a9000000eb0090368a0009
:103ca80000000600c0368200d13682006102400062
:103cb800e0824800c4368a00d5368a00a0368200e1
:103cc800b136820061014000e0814800a2368a00d6
:103cd800b3368a0020ea80000000e00020003200ad
:103ce800e10f40002900320020ea80000100200096
:103cf800800f5100818f590013003d0010ea8000a9
:103d08000000e0001b003200e10f40001c00320000
:103d180010ea800001002000800f5200818f5a00b5
:103d2800080035006000b800c0368a00d1368a0025
:103d3800f0e98000e10f500011003200100020006f
:103d4800f0e98800000006006000b800a0368a008c
:103d5800b1368a0000ea8000e10f50000b00320003
:103d68001000200000ea880010ea80000000e0004f
:103d7800e5ff3a0010002000f0e988000000060086
:103d8800e0d321000008eb000000060000d4210069
:103d98000008eb00d9ff37003600f800809fbe000e
:103da800829fbe00849fbe00869fbe000000eb007d
:103db80040c5880050c58800e0892100ae10070082
:103dc8001d040700070407008500a9004f03be0073
:103dd8004f02be004f01be004f00be003600f90082
:103de800004006000000eb009ef5070081bb2000a4
:103df80090fa2f009df537000000eb009ff50700b3
:103e08008500a9009500a800000006009500a900fb
:103e1800000006000000eb009af5070011272000bb
:103e2800d0fa2f0099f537000000eb0093f5070052
:103e3800017d2000d0f82f0099f537000000eb0035
:103e48009bf50700d1072000d0fa2f009af537001c
:103e5800881f78000000eb007cf5070092e88000de
:103e6800a3e88000e00f5100e08f59001e003500e4
:103e78000200be0037f20700d2cc2c00c30c24008d
:103e88005ff20700a0f207000084eb00e10f40009a
:103e9800e08f580004003e0018002000e00f50009a
:103ea800e08f580007003a0088f507008780a900ce
:103eb80088007800d0fb2f0088f507004f047800b1
:103ec800000006000004780080f507008780a9003c
:103ed80088007800d0fb2f0080f507004f04780099
:103ee80000000600f7ff37006100610001002000b4
:103ef8008301d1000281d30002007000838070002a
:103f080014f207000001be00fff20700daff3700d5
:103f180043c7bf000047b20003c3b300834f50003c
:103f28001f003200e0012000303a880044c7bf007b
:103f3800f043b20044e7b70044c7bf0001ceb30066
:103f48000140600044e7b70032002000a1092000ca
:103f58008007200034742000004a7800014a780065
:103f6800024a780012002000710520006004200039
:103f780024742000004a7800014a7800024a780038
:103f88008340780043c7bf000047b200814f50000c
:103f9800fcff3a0042c7bf000058a300fdff3200f3
:103fa8000000060063a0a8008660a90000000600c3
:103fb8008be0a9009be0a800000006004580a9004e
:103fc80044a0a80044e0a8004480a8004440a900f8
:103fd8004420a8004400a900f1ff2700a1cb8800d5
:103fe80000002800c0cb8800e1cb8800007d2000bd
:103ff80040cb8800807a200080cb88008002200097
:1040080090cb8800000006008000eb0021058800a6
:10401800a5c0bf00f4c8b300044060000044a0007d
:10402800a5e0b70031058800a6c0bf0082cfb30065
:10403800024060006040b300a6e0b700a7c0bf0020
:10404800044060000043b300a7e0b70041058800c2
:10405800a9c0bf00024060005040b300a9e0b7000b
:10406800a8c0bf00044060000045b300a8e0b70046
:10407800a8c0bf00024060005040b300a8e0b700ed
:1040880051058800abc0bf00024060000024a000ba
:10409800abe0b700aac0bf00044060000046b30010
:1040a800aae0b7006105880005c7b300054078009d
:1040b800ad60b7007105880081058800b0c0bf00f9
:1040c800024060000024a000b0e0b700b1c0bf000b
:1040d8000440600003c4b30003407000b1e0b700bf
:1040e80091058800a1058800b5c0bf0002406000a6
:1040f800b5e0b700b5c0bf000440600003407000e1
:10410800b5e0b700b1058800b6c0bf000240600046
:104118005040b300b6e0b700d1058800010688001a
:104128001106880005407800c360b70021068800a2
:10413800310688004106880081e0a90000000600d9
:10414800c082a90000000600c4c6bf0001ceb300ab
:10415800014060000044a000c4e6b700b4c6bf0038
:10416800014060000014a000b4e6b700000006009b
:10417800000006009cc6bf0001ceb30001406000ed
:104188005040b3009ce6b7009dc6bf0001406000e8
:104198006040b3009de6b7009ec6bf0001406000c6
:1041a8007040b3009ee6b700000e20002c23b70035
:1041b8000000060098c6bf0001ceb30001406000b1
:1041c8000004a00098e6b700000006002c03a90030
:1041d8002c23a9002c43a90000000600c902a9004d
:1041e800c8c6bf0001ceb30001406000c8e6b700f2
:1041f800c862a900c3c6bf00014060000034a00027
:10420800c3e6b700a8c6bf00014060009040b300f5
:10421800a8e6b70000000600000006003600f80017
:10422800809fbe00829fbe00849fbe00869fbe0006
:104238008660a900c262ab0006003a004f03be00c8
:104248004f02be004f01be004f00be003600f9000d
:10425800004006002a1307004f03be004f02be00ad
:104268004f01be004f00be003600f90000400600b6
:10427800f8ff3700889fbe008a1f7800c995210083
:104288001980fb00da9521001a84fb004844dd0000
:1042980000047400804ceb00004deb0042378200b4
:1042a800513782000000eb00e7140700884c7800c3
:1042b800c840de00014d7800800f54000200320033
:1042c800c09021001034a0004f0578004f04be00b4
:1042d800000006000804fa00889fbe008a9fbe00fe
:1042e8008c9fbe00809521000048eb00909521002e
:1042f8000048eb00f80f2000e189210020912100ff
:1043080011486400f0c480004800de0031912100ab
:1043180080487800018a21004091210011486400fa
:1043280000c580004800de005191210080487800d7
:10433800c0be2f000f004000e40440000085e800e4
:10434800e6054000890178000a01780080007800bd
:104358000b0078000810070021bf2f006f8078003d
:1043680061912100804878004800de0071912100a9
:104378008048780080912100c2be2f006f417900eb
:104388000848610090912100d1be2f00efc078004d
:1043980001487800e2be2f006f007900a19121004a
:1043a800804878004800de00b191210080487800fc
:1043b80001bf2f006f807800c191210080487800ec
:1043c8004800de00d19121008048780089017800fa
:1043d8000a017800c1be2f008f8040000b007800d2
:1043e8000210070022bf2f006f007900e191210021
:1043f800804878004800de00f1912100804878006c
:1044080000922100c1be2f00efc0780008c86000ec
:1044180010922100650151006f417900024878002f
:10442800e1be2f006f80780021922100804878003b
:104438004800de00319221008048780002bf2f003a
:104448006f00790041922100804878004800de0022
:10445800519221008048780041962100114178004e
:10446800614061000080fb000281fb00e200610006
:1044780001007000e400610001007000e8006100c4
:10448800010070007001610002007000619221005b
:1044980080487800709221000048eb0040e98000d5
:1044a80081922100804878004800de009192210026
:1044b8008048780050e98000a19221008048780067
:1044c8004800de00b19221008048780020e9800091
:1044d800c1922100804878004800de00d192210076
:1044e8008048780030e98000e19221008048780017
:1044f8004800de00f19221008048780090e88000b2
:1045080081942100804878004800de0091942100c1
:1045180080487800a0e88000a194210080487800b5
:104528004800de00b19421008048780080e88000cf
:10453800c1942100804878004800de00d194210011
:104548008048780000e98000cf80de008293210057
:1045580000497800c801de009293210003497800e1
:10456800a293210001497800c808de00b093210019
:1045780001487800f0e88000cf80de00c293210077
:1045880000497800c801de00d29321000349780071
:10459800e293210001497800c808de00f093210069
:1045a80001487800e0e88000cf80de000293210017
:1045b80000497800c801de00129321000349780001
:1045c8002293210001497800c808de0030932100b9
:1045d80001487800d0e88000cf80de0042932100b7
:1045e80000497800c801de00529321000349780091
:1045f8006293210001497800c808de007093210009
:1046080001487800c0e88000cf80de0002942100d5
:1046180000497800c801de0012942100034978009f
:104628002294210001497800c808de003094210056
:1046380001487800b0e88000cf80de004294210075
:1046480000497800c801de0052942100034978002f
:104658006294210001497800c808de0070942100a6
:1046680001487800e1d22100e09421001148780047
:10467800f1d22100f09421001148780001d32100e3
:10468800009521001148780011d3210010952100d0
:1046980011487800c8952100004ceb00d9952100fd
:1046a800804ceb0042378200513782000000eb005b
:1046b800e5130700004c78004800de00804c7800c5
:1046c80008c0240019002000220424000800be00ad
:1046d800bcef070040bf2f0080864700e190210013
:1046e8004f000900b15e78000d05b1000005eb0030
:1046f8002b0020000c082000110009000b05d80031
:1047080000017800020141000281460003042000f4
:104718000800be00b9ef07000a04b0000804b000a2
:104728000980b0008c0f5500f3ff3a004f06be0019
:104738004f05be004f04be000080fa0000000600ce
:10474800889fbe008a9fbe008c9fbe008e1f780087
:10475800209121009080fb00309121001080fb0007
:104768004800dd0001007000f0c48800409121007d
:104778009080fb00509121001080fb004800dd0074
:104788000100700000c58800c09121009082fb00e4
:10479800de9121009e81fb00c819dd00ad9121004a
:1047a8001d80fb00bc9121001c81fb004811dd002d
:1047b800000171008b9121001b80fb009a91210060
:1047c8009a80fb00c808dd00808070006991210094
:1047d8001982fb00789121001880fb004800dd0059
:1047e8000400700085817100cd0e0700c091210082
:1047f8009082fb009e81fb00c819dd001d80fb0034
:104808001c81fb004811dd00000171001b80fb00ca
:104818009a80fb00c808dd00808070001982fb00c8
:104828001880fb004800dd000400700085817100dd
:10483800c60e0700409221009082fb005092210092
:104848009081fb00c819dd00209221009080fb00b8
:10485800309221001081fb004811dd000101710038
:10486800009221001082fb00109221009080fb0032
:10487800c808dd0084807000e09121001082fb00f0
:10488800f09121001080fb004800dd00040070005a
:1048980085817100ca0e0700609221009080fb009c
:1048a800709221001081fb004811dd0001017100a8
:1048b8006140610043962100934078000104a10003
:1048c80080c070000200d1006140600000404000dc
:1048d8000114a10080c070004210de006140600039
:1048e8004200dd000124a10080c070004310de00fa
:1048f800614060004300dd000134a10080c0700009
:104908004411de00614161004411dd000144a10051
:1049180082c97000809221009080fb009092210053
:104928001080fb004800dd0001017000a09221000a
:104938009080fb00b09221001080fb004800dd0051
:104948008101700042e9880053e98800c092210083
:104958009080fb00d09221001080fb004800dd0011
:1049680001017000e09221009080fb00f09221008c
:104978001080fb004800dd008101700022e98800fa
:1049880033e98800809421009080fb0090942100f6
:104998001080fb004800dd0001017000a094210098
:1049a8009080fb00b09421001080fb004800dd00df
:1049b8008101700092e88800a3e88800c094210073
:1049c8009080fb00d09421001080fb004800dd009f
:1049d8000100700080e88800809321009080fb002f
:1049e800909321001080fb004800dd000101700059
:1049f80002e98800c09321009080fb00d093210039
:104a08001080fb004800dd0001017000f2e888001a
:104a1800009321009080fb00109321001080fb0080
:104a28004800dd0001017000e2e8880040932100a1
:104a38009080fb00509321001080fb004800dd00af
:104a480001017000d2e88800009421009080fb00ea
:104a5800109421001080fb004800dd000101700067
:104a6800c2e88800409421009080fb005094210007
:104a78001080fb004800dd0001017000b2e88800ea
:104a8800e1942100e0d2210011487800f19421003e
:104a9800f0d22100114878000195210000d32100af
:104aa800114878001195210010d321001148780091
:104ab8004f0778004f06be004f05be004f04be00ea
:104ac800000006000001eb00221688008080eb0041
:104ad800011688006216880041168800c082a90065
:104ae800103a80000060a1006404200073052000d3
:104af80025742000844a7800834a7800804a780028
:104b080061198800c4c6bf00ffc0500001406000a2
:104b18000044a000c4e6b700b4c6bf00014060006e
:104b28000014a000b4e6b70098c6bf0001406000ba
:104b38000004a00098e6b7002c03a9002c23a900c4
:104b48002c43a9009cc6bf00014060005040b30040
:104b58009ce6b7009dc6bf00014060006040b300fe
:104b68009de6b7009ec6bf00014060007040b300dc
:104b78009ee6b700000e20002c23b700103a8000f4
:104b88000060a000217420008448780083487800e1
:104b9800804878000203880012038800000006009d
:104ba8003600f800809fbe00829fbe00849fbe0032
:104bb800869fbe004df70700c0368200d1368200be
:104bc80061024000e0824800c4368a00d5368a0077
:104bd800a0368200b136820061014000e0814800c1
:104be800a2368a00b3368a0020ea80000000e0007e
:104bf80048003200e10f40006000320020ea8000e7
:104c080001002000800f5100818f59003b003d00ba
:104c180010ea80000000e00043003200e10f40008d
:104c28005300320010ea800001002000800f52007b
:104c3800818f5a0048003d00903682000000e00055
:104c48003e003a0000ea8000e10f500053003200b5
:104c5800c082a8001000200090368a00b0e98000c9
:104c68000000e0001e003200e2368200f3368200c7
:104c780061014100e0814900e2368a00f3368a008a
:104c8800c0e9800001002000800f5100818f590089
:104c9800130035006000b800e0368a00f1368a005b
:104ca80040962100104178000228a3000500320038
:104cb800d1e9800010cb8000810f50003c00320009
:104cc80011cb88000218a30005003200e1e980003a
:104cd80000cb8000810f50003800320001cb8800e3
:104ce8008460a9004f03be004f02be004f01be0002
:104cf8004f00be003600f900004006006000b80012
:104d0800a0368a00b1368a0000ea8000e10f500020
:104d18001a0032001000200000ea880010ea800023
:104d28000000e000bdff3a0010002000f0e9880014
:104d3800903682000000e000c2ff3200f0e98000f7
:104d4800e10f500010003200c082a8000000eb0004
:104d580090368a00c1ff37006000b800c0368a006c
:104d6800d1368a00f0e98000e10f5000eeff3a00ea
:104d7800e0d321000008eb00afff370000d421008a
:104d88000008eb00a2ff3700c082a900c282a90078
:104d98000000eb0090368a00b0ff3700c082a900ff
:104da800c282a8001000200090368a00abff3700ae
:104db8000100ea0010cb8800c2ff37000100ea00ba
:104dc80000cb88008460a9004f03be004f02be00dc
:104dd8004f01be004f00be003600f900004006003b
:104de800c6ff370060e980000000e00001003a00db
:104df80000000600c0c4800010007800b0c388001e
:104e0800b0c4800010007800c0c38800a0c480002f
:104e180010007800d0c3880090c48000100078008b
:104e2800e0c388000000eb0060e98800440a07003e
:104e3800d0c48800000006000000eb00c40f070083
:104e480000e7880010002000c10f0700f0e6880086
:104e58006102b900c0428000d142800000015200c6
:104e680081815a00c4428800d54288000030280059
:104e7800f1ff2f00800f5100818f590001003d0084
:104e8800e181410000d02700800f5100e08f5900d8
:104e980001003400e1815100a0e78000b1e7800003
:104ea8000200400083804800a0e78800b1e788003e
:104eb800b04280000000e800b0428800f40f5000c3
:104ec80001003200000006000000eb00b04288003c
:104ed800a0e78000b1e78000228520001200500082
:104ee80020c78800a0e78000b1e7800090428800d2
:104ef800a1428800000006002e0f0700befb370005
:104f0800c2fb07002b0f37000200fa000002eb007b
:104f1800230020000f81e90020002000f10f20006d
:104f28008ded070030002300ffb89700808f5000f8
:104f380002003200d09021001054a0000080fa0036
:104f48000000060000000600000006000000eb005c
:104f5800b0e98800d0e98800e0e98800f0ca880054
:104f680000cb880010cb8800000006000000eb0092
:104f780036f107008780a90000000600000006003f
:104f880020e880000040a00020e88800000006001b
:104f980020e880000040a10020e88800000006000a
:104fa800881f7800808620002100200001087800f2
:104fb800018020005143880001f02f0061438800e0
:104fc800616c240071438800c16b24008143880010
:104fd8000004eb0098438800ccf00700e08921002a
:104fe800af0c070018c5880028c5880038c5880098
:104ff800e0f40700bc0a0700dd090700640f07009a
:1050080088ea8800f4f4070082fb07008bfb07009e
:10501800eafb07005c0d0700409621001004a00081
:10502800b8e98800d8e98800e8e98800f8ca880063
:1050380008cb880018cb8800dafb070084fb070040
:105048004f04780000000600000006009bf40700eb
:10505800b7090700d70e070067fb07000000eb0041
:10506800b0e98800d0e98800e0e98800f0ca880043
:1050780000cb880010cb88003d0d37003600f800c3
:10508800809fbe00829fbe00849fbe00869fbe0098
:10509800400f2000200288000000eb002c0f0700c2
:1050a80000e7880010002000290f0700f0e68800bc
:1050b8006102b900c0428000d14280000001520064
:1050c80081815a00c4428800d542880000302800f7
:1050d800f1ff2f00800f5100818f590001003d0022
:1050e800e181410000d02700800f5100e08f590076
:1050f80001003400e1815100a0e78000b1e78000a1
:105108000200400083804800a0e78800b1e78800db
:10511800b04280000000e800b0428800f40f500060
:105128006c0032008a100700409621001040780079
:10513800614060005c00320031f280003043800042
:10514800810f50009600320031438800e38f5000f1
:10515800a20032008e003400e58f5000e3003200d8
:10516800af003500e68f50008d003a00a10e800098
:1051780000f023000080600006f0200001003a00e3
:1051880000037800e08e2100f04288000080eb00e8
:10519800e0428800601d200010438800801d200028
:1051a80020438800a01d20000043880000cb800019
:1051b8004582de0040382000800f52007e003c000f
:1051c800c0c72f00800f52007b0035008402780092
:1051d8008041eb002103200012032000c201e200fd
:1051e8007b003d00100e800000f0a100820f5000ef
:1051f80077003e008100e90013c0b300f7ff3a00d2
:10520800c09021001074a000a1e98000e00f2000e8
:10521800808f500003003e00a0e980000000e800f5
:10522800a0e9880020438000813e20000108420058
:105238000043800001087800104380000588500072
:105248000600e00001003200a60e8800f04280004f
:1052580010007800e24280000280b90050c5880042
:1052680040c58800e0892100830b07000000e000aa
:1052780043003a0060e980000000e00003003200cb
:1052880060e980000000e00025003a008480a90061
:105298004f03be004f02be004f01be004f00be00cc
:1052a8003600f90000400600a00e800001f023003f
:1052b8000100600013003a000003eb0006027800ca
:1052c800860278008041eb002103200012032000b1
:1052d800c2ff37000000eb00b0428800a0e7800062
:1052e800b1e78000228520001200500020c7880006
:1052f800a0e78000b1e7800090428800a1428800c2
:1053080088ff3700a00e8000810f5000eaff3200ae
:10531800010378000002eb0084027800acff37003c
:10532800c0c4800010007800b0c38800b0c48000fa
:1053380010007800c0c38800a0c480001000780066
:10534800d0c3880090c4800010007800e0c38800b3
:105358000000eb0060e98800f9080700d0c4880065
:105368008480a9004f03be004f02be004f01be005b
:105378004f00be003600f90000400600caff3700a3
:10538800c09021001014a0009f0e0700b9ff37003d
:10539800e18f500044003200e28f500031003200ab
:1053a8000003eb0000cb80004582de00403820007f
:1053b800800f520082ff34000002780080027800db
:1053c8008041eb00210320001203200083ff3700f7
:1053d8000304e00093ff32008bff3700a10e80002a
:1053e80000f02300008060000630230001003a002e
:1053f80000037800e08e2100f042880010002000b1
:10540800e0428800601d200020438800801d2000a5
:1054180000438800a01d20001043880063ff370068
:10542800a10e800000f023000080600006302300f9
:1054380001003a0000037800208f2100f042880024
:1054480010002000e0428800601d20001043880002
:10545800801d200000438800a01d200020438800f4
:1054680052ff3700a10e800000f02300008060008a
:1054780006c0230001003a0000037800208f2100b5
:10548800f04288000080eb00e0428800601d2000a8
:1054980000438800801d200020438800a01d2000b4
:1054a8001043880041ff3700a10e800000f0230060
:1054b8000080600006f0200001003a000003780038
:1054c800e08e2100f042880010002000e0428800b1
:1054d800601d200020438800801d200010438800a4
:1054e800a01d20000043880030ff3700a10e800077
:1054f80000f023000080600006c0230001003a008d
:1055080000037800208f2100f0428800100020005e
:10551800e0428800601d200000438800801d2000b4
:1055280010438800a01d2000204388001fff37007b
:10553800f6874700889fbe008a9fbe008c9fbe00ea
:105548008e1f780072fa07005efd07002bd4210039
:10555800808deb004dd42100aa0020002aea8800a3
:10556800a9fa07009660a8001efa07002efa07009d
:105578009460a8002988210020c3b300804c7800db
:10558800318821006440500080487800418821001b
:105598008048eb007e845700d0002000801f7800f0
:1055a80061302900811f780008007800d3ef0700d8
:1055b8008800780009007800e7ef0700ac90210028
:1055c800004eeb00b29021000049eb00c090210092
:1055d8000048eb00d19021008048eb004096210064
:1055e8000048eb00509621000048eb00609621002f
:1055f8000048eb00709621000048eb00e487570054
:105608000a04780028ea880065fe0700e20d070012
:105618000000e00002003200800deb00f9ff3700c7
:10562800808deb0020e880000060a00020e8880062
:1056380020e880000000a10020e8880020e8800021
:105648000010a10020e8880020e880000020a100c8
:1056580020e8880028ea8800e0fd2f000f004000bd
:105668004e0e07000000e00004003200e0002000b9
:1056780001002000f0af9f0081b79f006fd897000e
:10568800a709070068d021000e96210020e88000b5
:105698000060a10020e8880020e880000000a00049
:1056a80020e8880020e880000010a10020e8880099
:1056b80020e880000020a10020e88800e101200007
:1056c80021ea880030e880000000a10030e8880066
:1056d80030e880000010a10030e8880030e8800041
:1056e8000030a10030e888009760a80081047800a5
:1056f800184178006140610007003a00a60d0700d4
:105708000000e000faff3a0029ea88001841780012
:1057180061406100f9ff32006ad0210020e8800072
:105728000060a10020e8880020e880000000a100b7
:1057380020e8880020e880000010a00020e8880009
:1057480020e880000020a10020e8880060092000ef
:1057580020ea880020e880000040a00020e88800b7
:1057680030e880000010a00030e8880098407800f9
:1057780068c0600003003a00184178006240610088
:10578800faff3a009a40780062c060007a0032005e
:105798009c40780063c06000f4ff3a00c262ab002e
:1057a80073003a000138a300f0ff3a00a0902100ee
:1057b8009080fb00b29021001280fb004800dd00c1
:1057c800010070004f003a00c09021009080fb005b
:1057d800d29021001280fb004800dd00010070001b
:1057e80048003a0020e880000060a10020e8880016
:1057f80020e880000000a10020e8880020e8800060
:105808000010a10020e8880020e880000020a00007
:1058180020e88800800eeb000000eb0020c788001d
:10582800530b070094e0a800b9070700e0f9070048
:1058380076f90700df0c0700a5f20700800d0700c6
:1058480069d021008005eb004c0f070098407800d4
:1058580068c060006700320019417800624061004a
:10586800f9ff3a0095f20700b1070700d10c0700cd
:1058780061f907000000eb00b0e98800d0e9880072
:10588800e0e98800f0ca8800000f780010cb880093
:10589800370b0700330f07004b0d070020e8800087
:1058a8000060a10020e8880020e880000000a00037
:1058b80020e8880020e880000010a10020e8880087
:1058c80020e880000020a10020e88800e1012000f5
:1058d80021ea880030e880000000a10030e8880054
:1058e80030e880000010a10030e8880030e880002f
:1058f8000030a10030e888009760a8008104780093
:105908007bff3700400d070020e880000060a10001
:1059180020e8880020e880000000a10020e8880036
:1059280020e880000010a10020e8880020e880001e
:105938000020a00020e88800800eeb000000eb00ab
:1059480020c788000a0b070094e0a800700707002a
:1059580097f907002df90700960c07005cf207007d
:10596800370d070069d021008005eb00b6ff37002e
:10597800630d07007dff370030e880000000a100bc
:1059880030e88800f70e07000f0d070020e88000b8
:105998000060a10020e8880020e880000000a00046
:1059a80020e8880020e880000010a10020e8880096
:1059b80020e880000020a10020e88800e101200004
:1059c80021ea880030e880000000a10030e8880063
:1059d80030e880000010a10030e8880030e880003e
:1059e8000030a10030e888009760a80081047800a2
:1059f8003fff370031f207004d0707006d0c070025
:105a0800fdf80700bbe98800dbe98800ebe98800be
:105a1800fbca88000b0f78001bcb8800d40a07004c
:105a2800d00e0700e80c070020e880000060a10005
:105a380020e8880020e880000000a10020e8880015
:105a480020e880000010a00020e8880020e88000fe
:105a58000020a10020e888006009200020ea8800d2
:105a680020e880000040a00020e8880030e880009e
