:020000040000fa
:020000040002f8
:1098000000030000000000009c0200001e05000094
:10981000c0000000800000000000000000350000d3
:109820000000000000000000000000000000000038
:109830000200000000000000000000000100000025
:109840000000000000000000000000000000000018
:109850000000000000000000000000000000000008
:1098600000000000000000000000000000000000f8
:1098700000000000010000000000000001000000e6
:109880002a1700001516000000000000010000006b
:109890000004000001000000000000001bb70000f1
:1098a00000000000000000000000000000000000b8
:1098b00000000000000000000000000000000000a8
:1098c0000000000000000000000000000000000098
:1098d0000000000000000000000000000000000088
:1098e0000000000000000000000000000000000078
:1098f0000000000000000000000000000000000068
:109900000000000000000000000000000000000057
:109910000000000000000000000000000000000047
:109920000000000000000000000000000000000037
:109930000000000000000000000000000000000027
:109940000000000000000000000000000000000017
:109950000000000000000000000000000000000007
:1099600000000000000000000000000000000000f7
:1099700000000000000000000000000000000000e7
:1099800000000000000000000000000000000000d7
:1099900000000000000000000000000000000000c7
:1099a00000000000000000000000000000000000b7
:1099b00000000000000000000000000000000000a7
:1099c0000000000000000000000000000000000097
:1099d0000000000000000000000000000000000087
:1099e0000000000000000000000000000000000077
:1099f0000000000000000000000000000000000067
:109a00000000000000000000000000000000000056
:109a10000000000000000000000000000000000046
:109a20000000000000000000000000000000000036
:109a30000000000000000000000000000000000026
:109a40000000000000000000000000000000000016
:109a50000000000000000000000000000000000006
:109a600000000000000000000000000000000000f6
:109a7000000000000000000000000004000000b032
:109a8000a9060090004c0090004c0038008b003874
:109a9000008b0000d0900000300a000000000000a1
:109aa00000000000000000000000000000000000b6
:109ab00000000000000000000000000000000000a6
:109ac0000000000000000000000000000000000096
:109ad0000000000000000000000000000000000086
:020000040000fa
:080000000002040000000000f2
:020000040000fa
:100400000ff62100ce6924000e01880000000000d4
:100410000c000700a04d2300010020001f00070072
:10042000000020000000e000020032000000020096
:10043000000000005a2c0200000000000040da001a
:100440000000fe004440a900e01020000000e00091
:100450000300320000002000a00188004440a800f2
:1004600000000600f03fb1000180b1000600350039
:10047000ee03090000000000403fb1000180b10020
:10048000fbff3d001000b000203fb000020035002f
:1004900000800900000000000000060091018800b3
:1004a000800078000000eb0015003700e28040007b
:1004b00032a0b4009101ba00e280400032a0b40042
:1004c0009102ba00e280400032a0b4000002eb00ca
:1004d000472bde00f507b200602ce10004003a0073
:1004e0000059eb008301e900fdff3e0004003700e6
:1004f0006128e100010032000082eb0004000700e7
:100500001101ba000200e000e8ff3a000000060016
:100510003159ba008301e9000c0032002159ba00b8
:100520008301e900080032000400e00003003a0003
:10053000e280400032a0b400f5ff370011d9ba00c4
:100540008301e900faff3a008100e800e180400001
:1005500032a0b40000000600062f040000000000d6
:100560003200f800910188008002780062004000ab
:10057000e08048003549ba003204e0000410a700ca
:10058000100032008301e9000e0032002549ba0054
:100590003204e0000410a7000a0032008301e900e1
:1005a000080032000408a300eeff320015c9ba00ab
:1005b0003204e0000410a700020032008301e900c9
:1005c000e8ff3a003200f900000006003200f800af
:1005d000023b8800910188000008bb000500fc0078
:1005e00051052000313b8800a10a2000313b8800e2
:1005f00061e7a80000000000000000003200f900e0
:10060000000006000400a100010037000400a00063
:100610003200f8009101880011002400013b88009d
:10062000f10f20003208bb000400a700b2007800e0
:100630000198bb008301e900faff3a00680151000c
:100640000400a70068015100680050001208bb00b8
:10065000e2ff3700f30f20003200f800910188001c
:1006600031002400013b88000208bb000388bb0066
:10067000daff37003200f800003b8800d7ff370070
:100680000a00fa0080017800e20f500028003e00c6
:10069000f0fa8000e10f50000800320080232000b3
:1006a0000000e00005003200042320002523200084
:1006b0004623200080017800040037000422200037
:1006c0002522200046222000832220001440900092
:1006d0000004e000040035008009eb0014409000a5
:1006e0000074a00010429800154090000028a3005c
:1006f00003003a00154090000024a00090429800aa
:100700008001eb0007003700154090000008a300af
:10071000fdff320063c078000000fb00000b780092
:100720008301e800828f5100f7ff3a00080037008c
:1007300030002000b0bf9f00c3bf9f00d1bf9f000b
:10074000e2bf9f006a80570000c0da006fb99700cf
:10075000020078000080fa0000000600889fbe00ba
:100760008a9fbe00010578000100e000040035000a
:1007700008003c000000e0002000320005003700c7
:1007800060001000e080180002003b0001f02c0027
:100790001a0037000004be006011b8006b09200089
:1007a0000982cf00020039000882cf000441b00066
:1007b000694252000e00320008003b008281710045
:1007c000610164008904d1000884d3008b05e8002e
:1007d0000442e800f9ff3a0005003700080444002d
:1007e00089844c008b05e9000442e900fbff3a00d4
:1007f000240107000af0a70001f0a0004f05be0089
:100800004f04be0000000600889fbe008a9fbe0005
:100810008c1f7800410107004801330003866c00fb
:100820006450e1002e0032006420e1003300320009
:100830006150e1002f0032006120e1003100320000
:1008400085855500eb07b000090020000804200052
:10085000050037000804440089844c000a00310078
:100860000603430087834b000001530081815b0036
:10087000f8ff33000203be000800a0000804440093
:1008800089844c00f6ff3900c639dd00830173000e
:1008900001003200130020008904d1000884d30035
:1008a0000998a300050032000800a7000300a0007b
:1008b0008904d1000884d3008b05e8008904d100a5
:1008c0000884d3000001eb000281d200ed00070094
:1008d00001f0a1000cf0a70001f0a00020013700fa
:1008e0006420e100220132000801be000200be00c7
:1008f000f7ff37006120e1001d0132006000b80001
:10090000f3ff37000000200001f82700f0ff370058
:100910000001be00190107000470a70003f0a10048
:1009200003f8a30013003a006509b100100032007b
:10093000090035006928e1000200350001002800a7
:100940000000050000004000818048008502e900a9
:10095000fcff3a0000000600f88f42000500350059
:100960008100d1000080d3008502e800fcff3a003e
:10097000000006008000eb0000000500839f680077
:100980000100e00002003d0060001000e08018005f
:100990000300e00002003d0060011100e081190049
:1009a0000b0107004f00e00002003b006000100058
:1009b000e080180000000600889fbe008a9fbe00ed
:1009c0008c1f7800d5000700dc00330003866c0024
:1009d0006450e100240032006420e100270032006e
:1009e0006150e100220032006120e100210032006c
:1009f0008b854200eb07b1000134b800003ab80023
:100a00000804420089844a00013ab8000030b80066
:100a10008880400009014a000400330000004000c3
:100a200081804800020149008b05e900c909dd0009
:100a3000830170000100320013002000c814de00a2
:100a40004814dd004709de001200b200c808de00cd
:100a5000088470008b00070001f0a1000cf0a700d3
:100a600001f0a000be0037006120e100c0003200ac
:100a70000801be000200be00f7ff37006150e10030
:100a8000fcff3a00ba0037000001be00bb000700bf
:100a90000470a70003f0a1006509b1001600320040
:100aa0000d0035006828e10006003500f0ff2f003a
:100ab000f1ff27000300e00013003b0001002800c5
:100ac0000000050000004000818048008502e90028
:100ad000fcff3a0008003700f88f420002003c009b
:100ae0008000eb00000005008100d1000080d300f1
:100af0008502e800fcff3a000300e00002003b0032
:100b000060001000e08018000000060003f0a20062
:100b1000889fbe008a9fbe008c1f78007f00070060
:100b2000860033006450e1004f0032006420e10091
:100b30005200320003826c0007003b000905d00020
:100b40000306d000820f54000c065d00020039003d
:100b50000200320089017800030678008582550082
:100b600004003d000003fd008103fd008502ea0052
:100b70008b854200840f720002003b006000100071
:100b8000e08018006011b8000005eb007a28e10051
:100b90000a00390006007800c75ddd00f707b200e3
:100ba000878075002d003700828171000a0178006e
:100bb000610560008180d1000080d3008502e900da
:100bc000f9ff3b00060440008784480002003b0018
:100bd00060041400e0841c000988a30007003200b0
:100be0008a81710082817100610164008904d100f1
:100bf0000884d3008b05e800170037000978a300ac
:100c000013003a000b00e000130034008b05e900ec
:100c10000804440089844c000a4474000978a30045
:100c20000d003a000b00e000070034008b05e900de
:100c30000804440089844c0001003a000b002000a5
:100c40000978a300f7ff32000001eb000200370033
:100c5000828171000a0178000a0007000cf0a700e9
:100c600001f0a0003e0037006420e10002003a00dd
:100c7000838f6c003e0033000801be000200be00fe
:100c80003700370081002000618055000b003d00d7
:100c90000b00200061fe2f000100e1001d00340068
:100ca00082817100610164008904d1000884d3004d
:100cb0000000e800faff3a007100200061006400c3
:100cc000030070000200600009003200610444006b
:100cd000e0844c000988a500050032008b05e8007f
:100ce0006808e10002003a008904d1000884d300ba
:100cf000f20f20000258e10005003d00c75ddd0055
:100d0000f907b2008980750008007800000006002d
:100d10000bf827008b007800000005000004be00df
:100d2000160007000003be000405be000200be005e
:100d300012000700844f7500000006000200be008c
:100d40006450e100050036006420e1000200360036
:100d50000968a30001003a000800be000160a0007d
:100d60004f0678004f05be004f04be00000006008d
:100d7000f0ff2f00f1ff2700f9ff3700c70ade0060
:100d8000f107b200f50fb20008003200e1cf4200d7
:100d9000020032000170a00024000500810f7000e5
:100da000010032000408050044000500810f7000b6
:100db00002003a00140005008502e900000040002e
:100dc00081c04800fcff3b000170a000240005002a
:100dd0006022b800060220000000d0008180d2000e
:100de0000482d2008582d2000000a00002025200dc
:100df00083825a00030031000202420083824a00cb
:100e00000000a1000603e900f3ff3a00000006001d
:100e1000881f7800000478005001be004000be002a
:100e20000400400085804800060149008781490090
:100e3000009cbe000294be000400e1000588e100b1
:100e40000690e1000798e1000200310068004400cc
:100e50001008e8004f04780000000600f4874700ff
:100e6000889fbe008a9fbe008c9fbe008e1f7800a8
:100e70000205be000004be00d4b79f00e5b79f0086
:100e8000f6b79f0087bf9f000000eb00c0b79f0030
:100e9000b0b79f00a0b79f0090b79f0080b79f009a
:100ea0000d042000bfb097004fb097000001400034
:100eb0000000e0000f003d004f08de000000710060
:100ec000c0b79f009e00070001003d0012002000f7
:100ed000a100070001003d0012002000a60007004d
:100ee000b1000700b60007000f004000c8ff070070
:100ef000220037004f08de0000067100ccb79f00cb
:100f00008f00070001003d00120020009200070042
:100f100001003d001200200097000700a20007001a
:100f20000fb297009fb297002fb39700bfb39700ff
:100f3000a90007000000520081805a0002015b00f6
:100f400083815b0080b79f0091b79f00a2b79f008d
:100f5000b3b79f000007eb009f0007000020e100ef
:100f600001a8e10002b0e10003b8e1000100310096
:100f70001e0020000e005600c0b79f004fb2970021
:100f80000400e000070035001000200001002000f0
:100f90006011b80008047000898470000a057100af
:100fa0008b8571008d06e900beff3a000400e00069
:100fb00003003d00820007000f00400094ff07007f
:100fc0004fa897000000e00004003a000fb497001b
:100fd0009fb497002fb59700bfb597009400070006
:100fe0004f0778004f06be004f05be004f04be00fd
:100ff0004f01b10000000600881f78001800200093
:10100000881f780095ff07008f87e9004f0478005c
:1010100000000600801feb0090ff07008f87e900ab
:1010200000000600889fbe008a9fbe008c1f7800cb
:101030006e00070007003d0073000700e00f5b0033
:10104000e08f5b0007003d00320007000006eb0068
:10105000040037003400070002003d002a000700aa
:101060001c00200072000700e3ff07000203be001f
:101070000002be000c00e000010032002200070068
:101080000400be000601be004f0678004f05be00fa
:101090004f04be0000000600889fbe008a9fbe006d
:1010a0008c1f78005100070005003d005600070026
:1010b000e00f5b00e08f5b0006003d00040037009e
:1010c0001900070003003d006000b8006011b8007f
:1010d0001000070056000700ceff07000203be0005
:1010e0000002be000c00e000010032000600070014
:1010f0000400be000601be004f0678004f05be008a
:101100004f04be00000006006000b8006011b80087
:101110000000370004025000858258000603590081
:1011200087835900000006000006eb00e00f520024
:10113000e08f5a00e00f5b00e08f5b0000000600cc
:101140000180400090b79f000001eb008fb0970036
:101150000100e000000006000200700090b79f0050
:101160000180400080b79f000001eb00ffa89700be
:101170000100e000000006000200700080b79f0040
:10118000018040006faa9700cf20de0001007000b0
:10119000f0af9f0004024200250007004f18de0058
:1011a0000002720000000600e4af9f000804440043
:1011b00089844c000a054d008b854d000000060017
:1011c0003fb29700cfb297005fb39700efb397009d
:1011d00000fe2f00000006003fb09700cfb0970040
:1011e0005fb19700efb19700000006000205be0056
:1011f0000004be00e00f5000e08f5800e00f5900df
:10120000e08f5900000006006000b8006011b800cf
:1012100008045000898458000a0559008b8559003c
:101220001c002000e00f5200e08f5a000000060072
:101230000800be000a01be0000000600889fbe0034
:101240008a9fbe008c9fbe008e1f78004400f8006d
:10125000080f2000280288003400f800811f780061
:101260000f0778002305900007f02f000a38e100ef
:1012700004003200270280004700b30027028800e4
:10128000aa01880003029000d30490000000e90046
:101290000080080015000000130490003305900042
:1012a000c3059000320378009a00ca00b8027800a3
:1012b000048008000a0000005210c4009b80ca008d
:1012c0008707cd005290c4005290c500ba87cd0068
:1012d0005390c4008607cd009a00ca005290c50002
:1012e000bb87cd000600ca000900c8003100cd0050
:1012f0008e0778004f0078003400f9004400f900b0
:101300004f0778004f06be004f05be004f04be00d9
:1013100000000600b0009000400190000000900026
:1013200000800800010000008018eb000019eb00ad
:1013300000000600800378000000eb000038e600a3
:1013400000000600889fbe008781cf00e280510028
:101350000139dd00000028008002510005027800fc
:10136000c12add000600240006a3b90005a4b900c7
:1013700000002f000981b90006034100878349005e
:1013800005ccb900008020000981b90006034100a6
:101390008783490005ccb90000b02f000981b9004e
:1013a000060341008783490005ccb90000382000be
:1013b0000981b900060341008783490005ccb900c3
:1013c00000d62f000981b900060341008783490038
:1013d00005ccb900002120000981b90006034100b5
:1013e0008783490005ccb90030e52f000981b90099
:1013f00006034100878349004f33de004138dd009a
:1014000000037300cfbbde0000002800060340008d
:10141000e0834b004109de00700011000233de0062
:101420000038dd000003730082bbde000100a30072
:101430000500390024a8250004b0b9004f00de00e3
:10144000c108dd0001037000060078004f04be00f3
:1014500000000600c0088800000006001012880086
:10146000211288000212880000000600000888008f
:10147000000006000021ef00110888002008880005
:1014800000000600500888000000060030088800b0
:10149000000006000621ef0061088800800888002f
:1014a0001061a900000006000a21ef007108880001
:1014b0009008880000000600a008880000000600d0
:1014c0001421ef00d1088800f00888001e61a900ef
:1014d000000006009780a90021e1a9008780a900eb
:1014e000000006001821ef00e108880000098800cc
:1014f000000006009540a90041e2a9008540a9002e
:10150000000006000c00fa00889fbe00000478006e
:10151000cfb09700f0ff2700d0bf9f008004eb0002
:1015200099bf9f0088bf9f00a8bf9f00200c20008c
:10153000b0bf9f00788157007080570022000700dd
:101540000fb89700094878000fb8970008045000ba
:10155000080078004f04be000080fa00000006007a
:101560008001780000017800010037000201e800e6
:101570001204e000fdff3a00314078000059780085
:101580000004e000fcff3a000300780000000600c1
:101590008001eb000200370061f079008301e80070
:1015a000828f5100fcff3a00000006008001eb0032
:1015b00002003700817178008301e800828f5100ba
:1015c000fcff3a0000000600fe874700889fbe002f
:1015d0008a9fbe008c9fbe008e1f7800f0b79f00d0
:1015e0000107780082bf9f000000eb00a0b79f00ba
:1015f0009f0237008006eb0050c2b30080cf50003e
:10160000090032000100fb00ffb09700a3020700b1
:10161000e10f400096023200afb097008100e80071
:10162000a1b79f00920237009e407800d0c2b3005d
:1016300080cf50000c00320007003c006d4050008d
:1016400080cf50000a0032006b40400080cf500035
:101650000e003a000800370000c3b30080cf5000ee
:101660000a003a00060037000d30a00005003700e0
:101670000d00a000030037000d10a000010037008e
:101680000d20a0000e07e800e7ff37000d18a300ab
:10169000010032000d00a1000d38a300010032004e
:1016a0000d20a1000100fb0002fd2f000200400000
:1016b000e90f50000e003e000002eb00c4b79f008f
:1016c00082017800cfb297006a28b9001e01fb00a2
:1016d0000001410003014100c2b79f005e00fb0012
:1016e00003004000e90f50000b003e00f5ff3700fb
:1016f0000006eb00ccb79f00a0c2b30080cf500023
:1017000005003a000fb89700c000780080bf9f0026
:10171000c1b79f000e07e8000001eb00b2b79f00c1
:10172000e0c2b3009e4f100018003a000de0a00088
:101730008e00e80064405000914f1000020032001b
:10174000010778000c0037000fba9700c402780038
:1017500084bf9f00b5b79f000e87e8000b003700dd
:101760003fb697006a60b9000000410003004000e6
:10177000b0b79f000e07e8001e01fb0003fd2f001d
:1017800003004100e90f5000f5ff3600be4078002d
:10179000e1d79f00c0c6b30080cf500022003200c6
:1017a0000f003c006940500080cf500077003200ad
:1017b00004003c000104e000310232006b405000a4
:1017c0000f00370040c6b30080cf500093003200b6
:1017d0006540400080cf50008b003a008f003700fa
:1017e00030c7b30080cf50001a00320007003c0021
:1017f0006440500080cf5000110032000040e800eb
:1018000080cf500080003a000f00370050c7b3006f
:1018100080cf5000800032006340400080cf5000f5
:1018200079003a0009003700000028000d48a300a5
:1018300001003a000001200080867600d3ff3700c7
:101840000d60a000750037000d50a0000d70a000c5
:10185000720037008fb897004100780081bf9f0069
:10186000000478000000e00001003a0008ed2100cb
:101870008004eb00010037008104e8008900780053
:10188000088044001004e000fbff3a003fb19700dd
:101890000200e00003003200890f51000100310016
:1018a000820478000002eb00e4af9f00cfb2970003
:1018b000898f52000200360009805200e0af9f007d
:1018c0004368de00e10660001b003a000d06780068
:1018d00009003700ffb0970000022000ef01070069
:1018e000e10f4000030032002fb097000000e80035
:1018f000a0b79f000c06e800efa89700810f5600e4
:10190000f4ff3a000081eb00e2af9f000a003700cd
:10191000880078003100fb0001047800ffb09700d8
:10192000de010700e10f4000030032002fb29700f4
:101930000402e800a4b79f000900e90080047800d1
:10194000e10f4000f2ff3a000006eb000d00e0005e
:101950000a003a00c6013700ffb0970000022000dd
:10196000ce010700e10f400003003200afb2970044
:101970008502e800a5b79f000c06e8006fa8970055
:10198000800f5600f4ff3a00b90137008fb8970076
:101990004100780081bf9f00cf80de000101780008
:1019a000820178000205be000004be000203be00f2
:1019b0000002be004822de00482edd000402760050
:1019c000e4d79f000d48a3000a0032000404e000a1
:1019d00008003200e14f42000600320071fd2f0086
:1019e0000180470004487800184098002900200032
:1019f00002003700f0d79f001900200072fd2f0071
:101a000002844700a1ff370064fd2f0004844700d3
:101a1000190020009dff37000d0cb3000d00780069
:101a2000000cb20028003a000d00e00005003d0067
:101a30008fba97004505be004504be0085bf9f00d4
:101a4000140037000d48a3000b0032000fbe9700b2
:101a50004c00be008cbf9f004f89de00cf91de009e
:101a60000002be0002037800820378000605be0073
:101a70000404be00070037008fb8970041007800cb
:101a800081bf9f0000047800cfc4de000905780004
:101a90008a057800e00f5400e08f5c00e00f5d00e5
:101aa000e08f5d001f003d003d00b3006000b80006
:101ab0006011b80008045000898458000a055900d4
:101ac0008b855900170037000d00e00005003d0030
:101ad0000fb997004205be004204be0082bf9f00be
:101ae000100037000d48a300070032000fba97001e
:101af0004400be0084bf9f006011b8000205be0014
:101b00000004be00070037008fba97004500780038
:101b100085bf9f0000047800090020000a00200013
:101b20000b0020003fb697000c00e00007003a00d1
:101b3000e00f5400e08f5c00e00f5d00e08f5d007f
:101b400002003a0010002000b0b79f008d0078001e
:101b5000010cb200e1b79f0000042000808f50000c
:101b60003000320003003c000100e00008003200b9
:101b700040003700000820006fb19700800f51002f
:101b800014003200000c2000800f510039003a0090
:101b900014c0b30065d621000b0037000400fb0021
:101ba0004300dd00050040005001be004000be00c3
:101bb0000040e10001c8e10002d0e10003d8e100eb
:101bc0002b0039000442e800f44f5200f3ff3a00c2
:101bd0002700370000012000010020006011b8003c
:101be00014c0b3000040e10001c8e10002d0e100f0
:101bf00003d8e1001e003900450020000000d0009d
:101c00008180d2000281d2008381d2008502e90066
:101c1000faff3a000442e800f04f5200f1ff3a00a8
:101c20001300370080002000010020006011b80080
:101c300014c0b3000040e10001c8e10002d0e1009f
:101c400003d8e1000a0039003c0020000000d00069
:101c50008180d2000281d2008381d2000c06e9008b
:101c6000faff3a000442e800f54f5200f1ff3a0053
:101c7000e4d79f00efd097000100fb003fb1970031
:101c8000820f500002003d00e2d79f0004003700a1
:101c90003fb29700800f520001003d00b0b79f0097
:101ca000cfb297000500e0000400320063806600b8
:101cb000020032008502e900c5b79f000de8a300cd
:101cc0000b0032004fb697003fb09700800f5600d0
:101cd00003003c008000eb00c1b79f000400370008
:101ce0004fb197003fb2970004015100c2b79f0067
:101cf000efd297000500fb000006eb00dcaf9f0071
:101d0000cfb09700808f5000020034000080500058
:101d1000d0af9f000d28a30037003200e18066009d
:101d20000d18a3000c003200d00220000100e000da
:101d300001003a000080e900ffb09700d7000700db
:101d4000e10f40000e0032002fb197000201e800c1
:101d5000a2b79f000a0037000100e000080032002f
:101d6000ffb0970000022000cc000700e10f400008
:101d7000030032002fb297000402e800a4b79f00ce
:101d8000dfaa97000500e0000f0032000006eb001c
:101d9000ffb0970000032000c0000700e10f4000e3
:101da000030032002fb097000000e800a0b79f00aa
:101db0000c06e800dfa89700810f5600f4ff3a00f8
:101dc0000001eb00d2af9f003fb29700c320dd00bf
:101dd000e0d521008080400091b79f004220dd00c7
:101de0006400500080b79f006320b900f0af9f00ef
:101df0006306500084003700dfaa97000500e0006a
:101e000011003200688066000f003a00000678007a
:101e1000ffb0970000022000a0000700e10f400083
:101e2000030032002fb097000000e800a0b79f0029
:101e30000c06e800dfa89700810f5600f4ff3a0077
:101e40000001eb00d2af9f00e18066000d18a300f7
:101e50000c003200d00220000100e00001003a0036
:101e60000080e900ffb097008c000700e10f400000
:101e7000d5ff32002fb297000402e800a4b79f00fc
:101e8000d1ff37000100e000cfff3200ffb0970024
:101e90000002200081000700e10f4000caff32006d
:101ea000afb297008502e800a5b79f00c6ff3700d4
:101eb00000042000efb09700808f50003100320006
:101ec00003003c000100e000080032003e00370043
:101ed000000820006fb19700800f51001100320000
:101ee000000c2000800f510037003a001fb097000f
:101ef0003002be002003be000800be000a01be0082
:101f00003dfc0700a4002000050020006033b8005d
:101f100040fc070004c3b30004424000e4d79f0024
:101f20002900370075ed2100d5b79f000d58a3009b
:101f300002003a0080ee2100d0b79f00140020007c
:101f4000050020006033b8008fb097008100e900e1
:101f5000050033000402d0008582d2000683d2003f
:101f60008783d200f9ff37000800be000a01be00d7
:101f700021fc07006f0060005fb1970062407800ad
:101f80001000370014002000050020006033b80066
:101f90000c0078000000e900050033000402d000c6
:101fa0008582d2000683d2008783d200f9ff3700f2
:101fb0000800be000a01be000ffc07006740600079
:101fc0000043b000e0d79f00efd097000100fb0076
:101fd000ffb0970031000700e10f4000030032001e
:101fe0002fb197000201e800a2b79f001fb297002f
:101ff0006802520094b79f008fb29700e4825200ab
:1020000085b79f0063065600d0ff2f003fb19700b1
:102010000090b9007faa97000000420063005000c2
:10202000800f5600a2ff3a000d38a30010003200c6
:10203000dfaa97000500e0000d0034000006eb0069
:10204000ffb097000002200014000700e10f4000dd
:10205000030032002fb097000000e800a0b79f00f7
:102060000c06e800dfa89700810f5600f4ff3a0045
:10207000be407800e1d79f000104e0005dfd3a001a
:102080002fb097004f0778004f06be004f05be00e7
:102090004f04be00ef01b10000000600889fbe00a3
:1020a0000001780001047800b10090000118a3003d
:1020b0003d0032000198a30003003a001800900090
:1020c0000000e00038003a000190a00031049800c0
:1020d00082047800f90fb200180090000000e000c0
:1020e00002003a0028009000000c7800ea8f5400ab
:1020f00006003a00380090000078a30003003a0080
:1021000088007800d0002000e4ff070098009000cd
:1021100058009000808f50000b0032000100e80052
:10212000100498001800780009587800000c780016
:1021300011c0b30020f5210001487800ea8f540057
:102140000600320019003700880078000940780046
:102150001900070080047800140037003800900050
:102160000088a3001100320018019000a800900020
:102170004800900042f9070098009000810f50003d
:1021800004003200380090000003b30030049800cf
:102190008084eb000000eb00100498002800900001
:1021a000000c7800010037008084eb000900780003
:1021b0004f04be00000006000200fa00889fbe0027
:1021c000a0ff9f0001047800b10090008104780016
:1021d0000904b200020032000000fb0036003700a4
:1021e0000118a30005003a000103b3003104980070
:1021f000190498000080eb002f0037005800900071
:102200000000e00006003a004800900012002000a4
:10221000e68057001af907001904980024003700d7
:10222000280090000000e00008003a00e0f42100df
:1022300020049800000c7800200020005004980032
:10224000100498000130a00031049800180190009b
:10225000a80090004800900009f9070028009000ad
:10226000000c78000080eb00100498001800780043
:10227000aff8970001587800000c78002ff897000d
:10228000ea4f50000a003a00380090000088a3008e
:102290000700320018019000a8009000480090004c
:1022a000f7f8070019049800a8009000010c7800c6
:1022b000aff897000100fb004f04be000080fa0059
:0422c0000000060014
:020000040000fa
:0200000401f009
:04000000ffff0000fe
:020000040000fa
:0200000401f009
:04000400ffff0000fa
:020000040000fa
:0200000401f009
:04000800ffff0000f6
:020000040000fa
:0200000401f009
:04000c0078ff000079
:020000040000fa
:0200000401f009
:0400100078ff000075
:020000040000fa
:0200000401f009
:040014007fff00006a
:020000040000fa
:0200000401f009
:04001800ffff0000e6
:020000040000fa
:0200000401f009
:04001c00ddff000004
:020000040000fa
:10000800324d0000124d0000164d00001a4d000040
:100018001e4d0000324d0000324d0000324d0000f0
:10002800324d0000324d0000324d0000d625000050
:1000380046280000324d0000324d0000ec1100004f
:10004800d21e0000324d000094470000324d0000df
:10005800324d0000324d000078140000324d00008f
:10006800324d0000324d0000324d000014210000d6
:10007800324d0000324d0000324d0000324d00007c
:10008800da150000324d0000324d000064450000d2
:10009800324d0000324d0000324d0000324d00005c
:1000a800324d0000324d0000324d0000a214000015
:1000b800324d0000324d0000324d0000324d00003c
:1000c800324d0000324d0000324d0000324d00002c
:1000d800324d0000324d0000324d0000324d00001c
:1000e800324d0000324d0000324d0000324d00000c
:1000f800324d0000324d0000324d0000324d0000fc
:10010800324d0000324d0000324d0000324d0000eb
:10011800324d0000324d0000324d0000f84800001a
:10012800324d0000324d0000324d0000324d0000cb
:10013800324d0000324d0000324d0000324d0000bb
:10014800324d0000324d0000324d0000324d0000ab
:10015800324d0000324d0000324d0000324d00009b
:10016800324d0000324d0000324d0000324d00008b
:10017800324d0000324d0000324d0000324d00007b
:10018800324d0000324d0000324d0000324d00006b
:10019800324d0000324d0000324d0000324d00005b
:1001a800324d0000324d0000324d0000324d00004b
:1001b800324d0000324d0000324d0000324d00003b
:1001c800324d0000324d0000324d0000324d00002b
:1001d800324d0000324d0000324d0000324d00001b
:1001e800324d0000324d0000324d0000324d00000b
:0801f800324d0000324d000001
:020000040000fa
:10020800324d0000224d0000264d00002a4d00000e
:100218002e4d0000324d0000324d0000324d0000de
:10022800324d0000324d0000324d0000d62500004e
:1002380046280000324d0000324d0000ec1100004d
:10024800d21e0000324d000094470000324d0000dd
:10025800324d0000324d000078140000324d00008d
:10026800324d0000324d0000324d000014210000d4
:10027800324d0000324d0000324d0000324d00007a
:10028800da150000324d0000324d000064450000d0
:10029800324d0000324d0000324d0000324d00005a
:1002a800324d0000324d0000324d0000a214000013
:1002b800324d0000324d0000324d0000324d00003a
:1002c800324d0000324d0000324d0000324d00002a
:1002d800324d0000324d0000324d0000324d00001a
:1002e800324d0000324d0000324d0000324d00000a
:1002f800324d0000324d0000324d0000324d0000fa
:10030800324d0000324d0000324d0000324d0000e9
:10031800324d0000324d0000324d0000f848000018
:10032800324d0000324d0000324d0000324d0000c9
:10033800324d0000324d0000324d0000324d0000b9
:10034800324d0000324d0000324d0000324d0000a9
:10035800324d0000324d0000324d0000324d000099
:10036800324d0000324d0000324d0000324d000089
:10037800324d0000324d0000324d0000324d000079
:10038800324d0000324d0000324d0000324d000069
:10039800324d0000324d0000324d0000324d000059
:1003a800324d0000324d0000324d0000324d000049
:1003b800324d0000324d0000324d0000324d000039
:1003c800324d0000324d0000324d0000324d000029
:1003d800324d0000324d0000324d0000324d000019
:1003e800324d0000324d0000324d0000324d000009
:0803f800324d0000324d0000ff
:020000040000fa
:1024000000000000480600008c0c0000c81200000c
:10241000f91800001a1f0000282500001f2b0000db
:10242000fc300000ba360000563c0000ce410000ef
:102430001d470000404c000033510000f5550000de
:10244000825a0000d75e0000f2620000cf660000f2
:102450006d6a0000ca6d0000e2700000b5730000f4
:1024600041760000847800007d7a0000297c00001d
:102470008a7d00009d7e0000627f0000d87f000002
:10248000ff7f0000d87f0000627f00009d7e00007b
:102490008a7d0000297c00007d7a0000847800009d
:1024a00041760000b5730000e2700000ca6d0000c4
:1024b0006d6a0000cf660000f2620000d75e000087
:1024c000825a0000f555000033510000404c0000d6
:1024d0001d470000ce410000563c0000ba36000007
:1024e000fc3000001f2b0000282500001a1f0000f0
:1024f000f9180000c81200008c0c0000480600000b
:1025000000000000b8f9000074f3000038ed00008e
:1025100007e70000e6e00000d8da0000e1d40000a0
:1025200004cf000046c90000aac3000032be00006c
:10253000e3b80000c0b30000cdae00000baa00005d
:102540007ea5000029a100000e9d00003199000029
:1025500093950000369200001e8f00004b8c000007
:10256000bf8900007c87000083850000d7830000be
:1025700076820000638100009e80000028800000b9
:1025800001800000288000009e8000006381000020
:1025900076820000d7830000838500007c870000de
:1025a000bf8900004b8c00001e8f00003692000097
:1025b00093950000319900000e9d000029a10000b4
:1025c0007ea500000baa0000cdae0000c0b3000045
:1025d000e3b8000032be0000aac3000046c90000f4
:1025e00004cf0000e1d40000d8da0000e6e00000eb
:1025f00007e7000038ed000074f30000b8f90000b0
:10260000280000007d000000f401000025300000db
:0c2610003264000000000000c81e000042
:020000040000fa
:10261c000164a80001ccb300014078001064b7003d
:10262c0010c4bf000140600010e4b70080c3b300c9
:10263c001264b70012e4a80013c4bf0081cfb3002a
:10264c00014060005040b30013e4b70012c4bf0057
:10265c00014060000024a00012e4b70012c4a800de
:10266c0000000600881f78008a9fbe0001047800d5
:10267c000004a800000040000000400001432000be
:10268c0081024000e10f52000d003200f07f20006b
:10269c000200600001002000e10f54001c00320019
:1026ac004500dd00800a78000000eb0090029800e5
:1026bc000004a9004f05be004f047800000006007e
:1026cc006115b8004098de00cf80de00630060002a
:1026dc006103b8004299de00cf91de00f07f20004c
:1026ec000200600001002000e10f54000d003200d8
:1026fc004500dd00860a40009a0298000004a900fb
:10270c004f05be004f04780000000600ecff3700b8
:10271c004500dd00e80a40000000eb009002980044
:10272c00e3ff37004500dd0006004000e80a4000ea
:10273c009a029800f1ff3700889fbe008a9fbe0066
:10274c00000378000204be000405be000004a800cb
:10275c0000004000000040000244200082034000c2
:10276c0042b0de00000040000242200002024000a5
:10277c0043b0de0000004000824120008202400095
:10278c00e18f50001c0032004540dd00800b7800ca
:10279c00f07f20000100200091039800e30063000b
:1027ac00c208dd00f00020000100dd000080ea001e
:1027bc00140060008150dd00010a7000e700630026
:1027cc0081804000300020000100dd000080ea0024
:1027dc00150060008158dd00810a70001000200097
:1027ec000600dd001424b7000004a9004f05be004c
:1027fc004f04be000000060042c9de00cf91de008f
:10280c004511dd0040c8de00cf80de0063006000b3
:10281c0000014100e80b410098039800e3006300bd
:10282c00c208dd00f00020000100dd000080ea009d
:10283c00140060008150dd00010a7000e7006300a5
:10284c0081804000300020000100dd000080ea00a3
:10285c00150060008158dd00810a70001000200016
:10286c000600dd001424b7000004a9004f05be00cb
:10287c004f04be0000000600dfff3700e023ef002e
:10288c0000022200601c880020442000a01c88004c
:10289c0070002000b01c880060042000701c8800b0
:1028ac0000782000801c88008de3a8000000060042
:1028bc00e023ef0000022000c01c88000044200030
:1028cc00001d880070002000101d88007b00400057
:1028dc00d01c880000702000e01c880099e3a80040
:1028ec000000060085c0a900004006000004a800f6
:1028fc000bc4bf000048a30002003a003091210035
:10290c001024a1000bc4bf000038a30002003a0041
:10291c00309121001034a1000bc4bf000008a300ab
:10292c0003003a0031912100f0ccb30091486000d3
:10293c000004a900000006003600f800809fbe00cd
:10294c00829fbe00849fbe00869fbe00881f7800b9
:10295c008860a9000004a8000bc4bf000058a300a5
:10296c00020032001000200070ea88000bc4bf0087
:10297c000004eb000048a300050032003091210058
:10298c001024a000509121001004a0001800200079
:10299c000bc4bf000038a3000400320030912100aa
:1029ac001034a000509121001014a0000bc4bf00e3
:1029bc000008a30005003200509121001034a00043
:1029cc003191210000c3b30091487000f000200049
:1029dc00502088000004a90070ea8000e10f50002c
:1029ec00120032000800e00007003a004f047800a3
:1029fc004f03be004f02be004f01be004f00be0091
:102a0c003600f90000400600da1907004f04780080
:102a1c004f03be004f02be004f01be004f00be0070
:102a2c003600f90000400600f7ff3700d119070007
:102a3c000800e000edff3200f3ff3700881f78003c
:102a4c00800278000203be00814178000404780003
:102a5c00e00f5300e08f5b00240035004631de00b0
:102a6c004230dd0095407800e3ca6000954a700062
:102a7c007f4161001540900001ceb3000140600021
:102a8c0002407000904298005542900063426200f0
:102a9c00d44298000040eb00a042980035409000d2
:102aac0001cfb30001406000b04298001514a100a2
:102abc001504a1000414a100d44298006fc1610058
:102acc004540900001cfb30001406000024070000f
:102adc00c0429800668042000381fb0088007800a9
:102aec00a8fa07004f04780000000600c230dd0091
:102afc00504290006340620001427000d442980042
:102b0c004a39dd004630de0000007100c638de00b8
:102b1c004801de00a04298006f41610035409000f2
:102b2c0001cfb3000140600002407000b042980039
:102b3c004238de00010020004601de004200dd00cc
:102b4c0095407800e3ca6000954a70007f416100af
:102b5c001540900001ceb3000140600002407000af
:102b6c00904298001514a0001504a0000414a100b4
:102b7c00d44298006fc161004540900001cfb30072
:102b8c000140600002407000c04298006680420024
:102b9c000381fb00880078007afa07004f04780064
:102bac0000000600d1ff37003600f800809fbe0001
:102bbc00829fbe00849fbe00869fbe00889fbe0081
:102bcc008a9fbe008c9fbe008e1f7800ea8747004c
:102bdc008700a9008006eb005e9121008d06e800bd
:102bec00e68f56004000320008c4bf008000780019
:102bfc00f103b200100020000106dd00022180006c
:102c0c000c006100590032004408dd000170240002
:102c1c000104400048409000ef046000e88f54002d
:102c2c00020034001e44a0008900200089027800b4
:102c3c001842780061406200360032005841900022
:102c4c000281fb004211de000281fb000300200028
:102c5c0003f0a000284290000482fb003840900052
:102c6c006f0060004800dd000400700001002000cf
:102c7c00460add00ca00de00810072004600dd005d
:102c8c0000017100818171001882fb004222de007c
:102c9c00184090007f0060004600dd0004007000ca
:102cac0001002000c200dd000000200000057100c2
:102cbc0081857100e60044000501780068805700aa
:102ccc0030fa07000c80ea00002188005840900080
:102cdc000018a3001f0032001e24a0008d06e8007f
:102cec00e68f5600c0ff3a00af00b1004f077800e6
:102cfc004f06be004f05be004f04be004f03be0082
:102d0c004f02be004f01be004f00be003600f9005e
:102d1c00004006009880fb00c208de0018409000be
:102d2c007f0060004600dd00010070006105b80006
:102d3c00e6004400050178006880570011fa07008e
:102d4c000c80ea0000218800584090000018a30075
:102d5c00e1ff3a00e8815700094178000a00be0003
:102d6c00c4f98000040001009cff3700e58f560079
:102d7c00ddff3a00309121001004a000af00b1003b
:102d8c004f0778004f06be004f05be004f04be0033
:102d9c004f03be004f02be004f01be004f00be00ed
:102dac003600f90000400600daff3700889fbe00ad
:102dbc008a9fbe008c9fbe00804678000204be0035
:102dcc0001457800864578000004a8000086fb00c9
:102ddc000c0046000000400001432000810340002d
:102dec000783e8000b04e000400032004219de00cb
:102dfc004511dd004048de0001002000630060004a
:102e0c0000014100e80b4100080b78000004a90008
:102e1c000004a8000a84fb000800440000004000e5
:102e2c0001442000810340008784e8000b04e0008b
:102e3c002a0032004229de00030020004511dd008b
:102e4c004028de000100200063006000000141000a
:102e5c00e80b4100840c78000242200083412000e2
:102e6c00e34f550004003600644055002242200018
:102e7c00e34f500021003e00630064004200dd007f
:102e8c00f10020008008dd000180ea0012006000e3
:102e9c0000897000e2cf560008003e00e700640095
:102eac0081804000300020000100dd000080ea003d
:102ebc00130060008160dd008109700010002000ab
:102ecc000800dd001424b7000004a9004f06be0062
:102edc004f05be004f04be00000006004520dd007b
:102eec00800b7800800ceb00dbff37004510dd0019
:102efc00e80b4000000beb00c4ff370068405500a6
:102f0c0042422000a3412000e34f5000daff36007c
:102f1c006c40550062422000e34f5000d6ff360053
:102f2c000001eb0082017800d3ff3700c0f9880064
:102f3c0001c4bf0081cfb300014060000024a00099
:102f4c0001e4b70002ceb30001c8b30000c4bf0057
:102f5c0002406000814f5000fcff3a000164a80061
:102f6c0001ccb300014078001064b70010c4bf005e
:102f7c000140600010e4b70080c3b3001264b700d6
:102f8c0012e4a80013c4bf0081cfb300014060005d
:102f9c005040b30013e4b70012c4bf0001406000fe
:102fac000024a00012e4b70012c4a800f000200016
:102fbc00502088000004a9000000060001c4bf00d6
:102fcc0081cfb3000140600001e4b70002ceb30032
:102fdc0000c4bf0002406000fdff3a0030e4a800ce
:102fec0031e4a80032e4a80033e4a80034e4a900da
:102ffc0035e4a90036e4a90037e4a90030c4bf00c9
:10300c00c1cfb3000140600030e4b70031c4bf0051
:10301c000140600031e4b70032c4bf0001406000e1
:10302c0032e4b70033c4bf000140600033e4b700a2
:10303c0006c4bf00024060000024a00006e4b700f4
:10304c0007c4bf007f4060000064a00007e4b70025
:10305c000ca4a8009860a8009700a800e023ef003b
:10306c0000022200601c880020442000a01c880064
:10307c0071002000b11c880060042000701c8800c6
:10308c0000782000801c88008de3a800e023ef006e
:10309c0000022000c01c880000442000001d880095
:1030ac00111d880020022000d01c88000070200018
:1030bc00e01c880099e3a800000006000400fa0058
:1030cc00889fbe008a9fbe008c1f78000004be0043
:1030dc000205be000cf980000080eb00ef0f5600db
:1030ec004c003e00f2ff2f00f3ff29000b80610023
:1030fc00800278000a0278000403be008980610017
:10310c00080078000002be0039002000820f530036
:10311c00838f5b001400320028f221009841780064
:10312c000381fb004240a9003f00340040f2210023
:10313c00b00f5300a08f5b008e0032000000eb003c
:10314c0081f221000000e800800f510036003200af
:10315c00b10f5300b18f5b00faff3a00e10f400052
:10316c0031003200800478000c00e80000f988007f
:10317c000004a8000c0046000000400001442000a0
:10318c000103400042e0de0000004000014220004c
:10319c008103400043e0de0000004000814120003c
:1031ac0001044000e00f5200e08f5a00530035003c
:1031bc004520dd00000b7800f07f2000010020008e
:1031cc0011039800630066004200dd00f10020004e
:1031dc008008dd000180ea0017006000810b7000a0
:1031ec00e700660081804000300020000100dd0017
:1031fc000080ea00180060008148dd00010c7000be
:10320c00100020000c00dd001424b7000004a900fd
:10321c000000eb004f0678004f05be004f04be00c7
:10322c000080fa0000000600e0ff2f00e3cf510001
:10323c00f8ff32004210dd0041f221000100400095
:10324c000688be000340e800004c78000084fb00b8
:10325c00cf3bde00f0ff21000b0060008000780007
:10326c000a0078000001be000004a8000800440019
:10327c00000040000143200001034000e00f520019
:10328c00e08f5a0042003500f07f20000200600001
:10329c0001002000e18f5300380032004500dd00b2
:1032ac00000b78000000eb00100398000004a9004c
:1032bc00880478000c00e80000f988000004a800dd
:1032cc000c004600000040000144200001034000b7
:1032dc0042e0de000000400001422000810340007b
:1032ec0043e0de000000400081412000010440006a
:1032fc00e00f5200e08f5a00adff3d0042a9de0006
:10330c00cf91de004511dd0040a8de00cf80de004d
:10331c006300600000014100680b41001403980039
:10332c00630066004200dd00f10020008008dd0033
:10333c000180ea0017006000810b7000e700660056
:10334c0081804000300020000100dd000080ea0098
:10335c00180060008148dd00010c70001000200096
:10336c000c00dd001424b7000004a9000000eb00e1
:10337c00a8ff37008004eb007bff37004500dd0021
:10338c00680b40000000eb0010039800c7ff3700eb
:10339c006110b80090bf9f00a1bf9f004098de0055
:1033ac00cf80de00630060006105b8004299de004a
:1033bc00cf91de00f07f20000200600001002000b1
:1033cc00e18f5300070032004500dd000a0b40007e
:1033dc009fb89700110398000004a9008804780096
:1033ec00b4ff37004500dd000a004000680b4000c8
:1033fc009fb8970011039800f7ff3700889fbe0015
:10340c000002be00024478008304780030c4bf0080
:10341c000038a3000300320031c4bf000038a30001
:10342c00a8003a0030c4bf00e843600051003200ed
:10343c0031c4bf00e8436000ad003a0003792400ba
:10344c00e00f5200e08f5a00560135004621de0095
:10345c004220dd0093407800e3c96000934970007e
:10346c007f4161001340900001ceb3000140600029
:10347c0002407000904198005343900063436300f6
:10348c00d6419800a74198003340900001cfb3007b
:10349c0001406000b04198001314a1001304a10076
:1034ac000614a100d64198006f416400434090007f
:1034bc0001cfb3000140600002407000c041980091
:1034cc000881fb0089007800607924002df8070042
:1034dc0020f321000008eb0081f98000e28f5000fe
:1034ec0007003c0042f3210023002000928f1100c2
:1034fc0003003c0064f32100948f11006b01340035
:10350c00e3c0600030c4bf00c2cfb3000240600013
:10351c000140700030e4b70091f98000e3c0600016
:10352c0031c4bf00024060000140700031e4b700bc
:10353c00a1f98000e3c0600032c4bf00024060000b
:10354c000140700032e4b700b1f98000e3c06000c4
:10355c0033c4bf00024060000140700033e4b70088
:10356c003164a8008000eb00010078004f04be001d
:10357c000000060003782400e00f5200e08f5a0090
:10358c00290135004621de004220dd009340780001
:10359c00e3c96000934970007f41610013409000c3
:1035ac0001ceb300014060000240700090419800d1
:1035bc005343900063436300d6419800a7419800a1
:1035cc003340900001cfb30001406000b04198003f
:1035dc001314a1001304a1000614a100d6419800f5
:1035ec006f4164004340900001cfb3000140600084
:1035fc0002407000c04198000881fb0089007800ef
:10360c0060782400dff7070000f321000008eb00ce
:10361c0093f98000e28f51000d003c0042f3210031
:10362c0020002000920f100009003c0064f32100e0
:10363c00940f100006003c008301e80093f9880009
:10364c001200e800a0f988001400e800b0f9880026
:10365c0081f98000e3c0600030c4bf00c2cfb3006a
:10366c00024060000140700030e4b700e3c061002c
:10367c0031c4bf00024060000140700031e4b7006b
:10368c00a1f98000e3c0600032c4bf0002406000ba
:10369c000140700032e4b700b1f98000e3c0600073
:1036ac0033c4bf00024060000140700033e4b70037
:1036bc003064a800000020004f04be00000006008b
:1036cc00acff370032c4bf000038a30055ff3200f6
:1036dc0033c4bf008080eb000038a300a2ff3a0087
:1036ec0030c4bf00e843600051ff3a00a1ff37002f
:1036fc0032c4bf00e843600056003200037b240054
:10370c00e00f5200e08f5a00090135004621de001f
:10371c004220dd0093407800e3c9600093497000bb
:10372c007f4161001340900001ceb3000140600066
:10373c000240700090419800534390006343630033
:10374c00d64198000040eb00a04198003340900017
:10375c0001cfb30001406000b04198001314a100e8
:10376c001304a1000614a100d64198006f41640017
:10377c004340900001cfb300014060000240700054
:10378c00c04198000881fb0089007800607b240010
:10379c007cf7070064f32100000aeb0081f980003c
:1037ac00e28f50000e003c0020f32100220020008c
:1037bc00900f11000a003c0042f32100230020006e
:1037cc00928f110006003c008100e80081f988000e
:1037dc001000e80090f988001200e800a0f98800b9
:1037ec00e3c0600030c4bf00c2cfb3000240600031
:1037fc000140700030e4b70091f98000e3c0600034
:10380c0031c4bf00024060000140700031e4b700d9
:10381c00a1f98000e3c0600032c4bf000240600028
:10382c000140700032e4b700b1f98000e3c06000e1
:10383c0033c4bf00024060000140700033e4b700a5
:10384c003364a800000020004f04be0000000600f6
:10385c0048ff3700037a2400e00f5200e08f5a0033
:10386c00d40035004621de004220dd009340780074
:10387c00e3c96000934970007f41610013409000e0
:10388c0001ceb300014060000240700090419800ee
:10389c005343900063436300d6419800a7419800be
:1038ac003340900001cfb30001406000b04198005c
:1038bc001314a1001304a1000614a100d641980012
:1038cc006f4164004340900001cfb30001406000a1
:1038dc0002407000c04198000881fb00890078000c
:1038ec00607a240027f7070042f321000009eb005f
:1038fc0081f98000e28f50000d003c0020f3210084
:10390c0022002000900f110009003c0064f32100fc
:10391c00940f110006003c008100e80081f988003a
:10392c009001e80093f988001400e800b0f98800d1
:10393c00e3c0600030c4bf00c2cfb30002406000df
:10394c000140700030e4b70091f98000e3c06000e2
:10395c0031c4bf00024060000140700031e4b70088
:10396c00a1f98000e3c0600032c4bf0002406000d7
:10397c000140700032e4b700b1f98000e3c0600090
:10398c0033c4bf00024060000140700033e4b70054
:10399c003264a800000020004f04be0000000600a6
:1039ac00f4fe3700c220dd005343900063406300f7
:1039bc0001437000d64198004a29dd004620de0004
:1039cc0000007100c628de004801de00a04198000e
:1039dc006f4161003340900001cfb30001406000a3
:1039ec0002407000b04198004228de000100200027
:1039fc004601de004200dd0093407800e3c9600020
:103a0c00934970007f4161001340900001ceb300d8
:103a1c000140600002407000904198001314a00017
:103a2c001304a0009efe3700c220dd00534390001b
:103a3c006340630001437000d64198004a29dd00c1
:103a4c004620de0000007100c628de004801de00c2
:103a5c00a04198006f4161003340900001cfb3004a
:103a6c000140600002407000b04198004228de0026
:103a7c00010020004601de004200dd00934078008a
:103a8c00e3c96000934970007f41610013409000ce
:103a9c0001ceb300014060000240700090419800dc
:103aac001314a0001304a000cbfe37008100e80023
:103abc0081f988001200e800a0f988001400e800e1
:103acc00b0f98800e3c0600030c4bf00c2cfb300bf
:103adc00024060000140700030e4b70091f98000b2
:103aec00e3c0600031c4bf000240600001407000c0
:103afc0031e4b700a1f98000e3c0600032c4bf001c
:103b0c00024060000140700032e4b700b1f980005f
:103b1c00e3c0600033c4bf0002406000014070008d
:103b2c0033e4b7003164a8008000eb008efe370050
:103b3c00c220dd00534390006340630001437000da
:103b4c00d64198004a29dd004620de0000007100b5
:103b5c00c628de004801de00a04198006f416100dc
:103b6c003340900001cfb300014060000240700070
:103b7c00b04198004228de00010020004601de0022
:103b8c004200dd0093407800e3c960009349700067
:103b9c007f4161001340900001ceb30001406000f2
:103bac0002407000904198001314a0001304a00070
:103bbc00ecfe3700c220dd005343900063406300ed
:103bcc0001437000d64198004a29dd004620de00f2
:103bdc0000007100c628de004801de00a0419800fc
:103bec006f4161003340900001cfb3000140600091
:103bfc0002407000b04198004228de000100200015
:103c0c004601de004200dd0093407800e3c960000d
:103c1c00934970007f4161001340900001ceb300c6
:103c2c000140600002407000904198001314a00005
:103c3c001304a00020ff3700903682000000e00043
:103c4c0007003a0040ea8000e10f50000b00320000
:103c5c00c082a8001000200090368a0000000600e8
:103c6c0030ea8000e10f500009003200c082a80049
:103c7c000000eb0090368a0000000600c082a9000c
:103c8c00c282a8001000200090368a0000000600b6
:103c9c00c082a900c282a9000000eb0090368a0005
:103cac0000000600c0368200d1368200610240005e
:103cbc00e0824800c4368a00d5368a00a0368200dd
:103ccc00b136820061014000e0814800a2368a00d2
:103cdc00b3368a0060ea80000000e0002000320069
:103cec00e10f40002900320060ea80000100200052
:103cfc00800f5100818f590013003d0050ea800065
:103d0c000000e0001b003200e10f40001c003200fc
:103d1c0050ea800001002000800f5200818f5a0071
:103d2c00080035006000b800c0368a00d1368a0021
:103d3c0030ea8000e10f500011003200100020002a
:103d4c0030ea8800000006006000b800a0368a0047
:103d5c00b1368a0040ea8000e10f50000b003200bf
:103d6c001000200040ea880050ea80000000e000cb
:103d7c00e5ff3a001000200030ea88000000060041
:103d8c0060d421000008eb000000060080d4210064
:103d9c000008eb00d9ff37003600f800809fbe000a
:103dac00829fbe00849fbe00869fbe000000eb0079
:103dbc0080c5880090c58800608a21008d1107009d
:103dcc001d040700070407008500a9004f03be006f
:103ddc004f02be004f01be004f00be003600f9007e
:103dec00004006000000eb009df5070081bb2000a1
:103dfc0090fa2f009cf537000000eb009ef50700b1
:103e0c008500a9009500a800000006009500a900f7
:103e1c00000006000000eb0099f5070011272000b8
:103e2c00d0fa2f0098f537000000eb0092f5070050
:103e3c00813e2000d0f82f0098f537000000eb00f1
:103e4c009af50700d1072000d0fa2f0099f537001a
:103e5c00881f78000000eb007bf50700d2e880009b
:103e6c00e3e88000e00f5100e08f59001e003500a0
:103e7c000200be0036f20700d2cc2c00c30c24008a
:103e8c005ef207009ff207000084eb00e10f400098
:103e9c00e08f580004003e0018002000e00f500096
:103eac00e08f580007003a0087f507008780a900cb
:103ebc0088007800d0fb2f0087f507004f047800ae
:103ecc0000000600000478007ff507008780a90039
:103edc0088007800d0fb2f007ff507004f04780096
:103eec0000000600f7ff37006100610001002000b0
:103efc008301d1000281d300020070008380700026
:103f0c0013f207000001be00fef20700daff3700d3
:103f1c0043c7bf000047b20003c3b300834f500038
:103f2c001f003200e0012000303a880044c7bf0077
:103f3c00f043b20044e7b70044c7bf0001ceb30062
:103f4c000140600044e7b70032002000a1092000c6
:103f5c008007200034742000004a7800014a780061
:103f6c00024a780012002000710520006004200035
:103f7c0024742000004a7800014a7800024a780034
:103f8c008340780043c7bf000047b200814f500008
:103f9c00fcff3a0042c7bf000058a300fdff3200ef
:103fac000000060063a0a8008660a90000000600bf
:103fbc008be0a9009be0a800000006004580a9004a
:103fcc0044a0a80044e0a8004480a8004440a900f4
:103fdc004420a8004400a900f1ff2700e1cb880091
:103fec000000280000cc880021cc8800803e2000f6
:103ffc0080cb880074005000c0cb880040012000aa
:10400c00d0cb8800000006008000eb002105880062
:10401c00a5c0bf00f4c8b300044060000044a00079
:10402c00a5e0b70031058800a6c0bf0082cfb30061
:10403c00024060006040b300a6e0b700a7c0bf001c
:10404c00044060000043b300a7e0b70041058800be
:10405c00a9c0bf00024060005040b300a9e0b70007
:10406c00a8c0bf00044060000045b300a8e0b70042
:10407c00a8c0bf00024060005040b300a8e0b700e9
:10408c0051058800abc0bf00024060000024a000b6
:10409c00abe0b700aac0bf00044060000046b3000c
:1040ac00aae0b7006105880005c7b3000540780099
:1040bc00ad60b7007105880081058800b0c0bf00f5
:1040cc00024060000024a000b0e0b700b1c0bf0007
:1040dc000440600003c4b30003407000b1e0b700bb
:1040ec0091058800a1058800b5c0bf0002406000a2
:1040fc00b5e0b700b5c0bf000440600003407000dd
:10410c00b5e0b700b1058800b6c0bf000240600042
:10411c005040b300b6e0b700d10588000106880016
:10412c001106880005407800c360b700210688009e
:10413c00310688004106880081e0a90000000600d5
:10414c00c082a90000000600c4c6bf0001ceb300a7
:10415c00014060000044a000c4e6b700b4c6bf0034
:10416c00014060000014a000b4e6b7000000060097
:10417c00000006009cc6bf0001ceb30001406000e9
:10418c005040b3009ce6b7009dc6bf0001406000e4
:10419c006040b3009de6b7009ec6bf0001406000c2
:1041ac007040b3009ee6b700000e20002c23b70031
:1041bc000000060098c6bf0001ceb30001406000ad
:1041cc000004a00098e6b700000006002c03a9002c
:1041dc002c23a9002c43a90000000600c902a90049
:1041ec00c8c6bf0001ceb30001406000c8e6b700ee
:1041fc00c862a900c3c6bf00014060000034a00023
:10420c00c3e6b700a8c6bf00014060009040b300f1
:10421c00a8e6b70000000600000006003600f80013
:10422c00809fbe00829fbe00849fbe00869fbe0002
:10423c008660a900c262ab0006003a004f03be00c4
:10424c004f02be004f01be004f00be003600f90009
:10425c0000400600051407004f03be004f02be00cd
:10426c004f01be004f00be003600f90000400600b2
:10427c00f8ff3700889fbe008a1f780049962100fe
:10428c001980fb005a9621001a84fb004844dd007b
:10429c0000047400804ceb00004deb0042378200b0
:1042ac00513782000000eb00c8150700884c7800dd
:1042bc00c840de00014d7800800f5400020032002f
:1042cc00409121001034a0004f0578004f04be002f
:1042dc00000006000804fa00889fbe008a9fbe00fa
:1042ec008c9fbe00009621000048eb001096210028
:1042fc000048eb00f80f2000618a2100a0912100fa
:10430c001148640030c580004800de00b1912100e6
:10431c0080487800818a2100c091210011486400f6
:10432c0040c580004800de00d19121008048780013
:10433c00c0be2f000f004000e40440000085e800e0
:10434c00e6054000890178000a01780080007800b9
:10435c000b007800e710070021bf2f006f8078005a
:10436c00e1912100804878004800de00f1912100a5
:10437c008048780000922100c2be2f006f41790066
:10438c000848610010922100d1be2f00efc07800c8
:10439c0001487800e2be2f006f00790021922100c5
:1043ac00804878004800de00319221008048780077
:1043bc0001bf2f006f807800419221008048780067
:1043cc004800de0051922100804878008901780075
:1043dc000a017800c1be2f008f8040000b007800ce
:1043ec00e110070022bf2f006f00790061922100bd
:1043fc00804878004800de007192210080487800e7
:10440c0080922100c1be2f00efc0780008c8600068
:10441c0090922100650151006f41790002487800ab
:10442c00e1be2f006f807800a192210080487800b7
:10443c004800de00b19221008048780002bf2f00b6
:10444c006f007900c1922100804878004800de009e
:10445c00d192210080487800c1962100114178004a
:10446c00614061000080fb000281fb00e200610002
:10447c0001007000e400610001007000e8006100c0
:10448c00010070007001610002007000e1922100d7
:10449c0080487800f09221000048eb0080e9800011
:1044ac0001932100804878004800de001193210020
:1044bc008048780090e980002193210080487800a2
:1044cc004800de00319321008048780060e98000cc
:1044dc0041932100804878004800de005193210070
:1044ec008048780070e98000619321008048780052
:1044fc004800de007193210080487800d0e88000ed
:10450c0001952100804878004800de0011952100bb
:10451c0080487800e0e880002195210080487800f0
:10452c004800de003195210080487800c0e880000a
:10453c0041952100804878004800de00519521000b
:10454c008048780040e98000cf80de000294210092
:10455c0000497800c801de0012942100034978005c
:10456c002294210001497800c808de003094210013
:10457c000148780030e98000cf80de0042942100b1
:10458c0000497800c801de005294210003497800ec
:10459c006294210001497800c808de007094210063
:1045ac000148780020e98000cf80de008293210052
:1045bc0000497800c801de0092932100034978007d
:1045cc00a293210001497800c808de00b0932100b5
:1045dc000148780010e98000cf80de00c2932100f2
:1045ec0000497800c801de00d2932100034978000d
:1045fc00e293210001497800c808de00f093210005
:10460c000148780000e98000cf80de008294210010
:10461c0000497800c801de0092942100034978001b
:10462c00a294210001497800c808de00b094210052
:10463c0001487800f0e88000cf80de00c2942100b1
:10464c0000497800c801de00d294210003497800ab
:10465c00e294210001497800c808de00f0942100a2
:10466c000148780061d32100609521001148780041
:10467c0071d32100709521001148780081d321005d
:10468c00809521001148780091d32100909521004c
:10469c001148780048962100004ceb0059962100f7
:1046ac00804ceb0042378200513782000000eb0057
:1046bc00c6140700004c78004800de00804c7800df
:1046cc0008c0240019002000220424000800be00a9
:1046dc00bbef070040bf2f0080864700619121008f
:1046ec004f000900b15e78000d05b1000005eb002c
:1046fc002b0020000c082000110009000b05d8002d
:10470c0000017800020141000281460003042000f0
:10471c000800be00b8ef07000a04b0000804b0009f
:10472c000980b0008c0f5500f3ff3a004f06be0015
:10473c004f05be004f04be000080fa0000000600ca
:10474c00889fbe008a9fbe008c9fbe008e1f780083
:10475c00a09121009080fb00b09121001080fb0003
:10476c004800dd000100700030c58800c0912100b8
:10477c009080fb00d09121001080fb004800dd00f0
:10478c000100700040c58800409221009082fb001f
:10479c005e9221009e81fb00c819dd002d92210044
:1047ac001d80fb003c9221001c81fb004811dd00a8
:1047bc00000171000b9221001b80fb001a9221005a
:1047cc009a80fb00c808dd0080807000e991210010
:1047dc001982fb00f89121001880fb004800dd00d5
:1047ec000400700085817100ac0f0700409221001d
:1047fc009082fb009e81fb00c819dd001d80fb0030
:10480c001c81fb004811dd00000171001b80fb00c6
:10481c009a80fb00c808dd00808070001982fb00c4
:10482c001880fb004800dd000400700085817100d9
:10483c00a50f0700c09221009082fb00d0922100ae
:10484c009081fb00c819dd00a09221009080fb0034
:10485c00b09221001081fb004811dd0001017100b4
:10486c00809221001082fb00909221009080fb002e
:10487c00c808dd0084807000609221001082fb006b
:10488c00709221001080fb004800dd0004007000d5
:10489c0085817100a90f0700e09221009080fb0038
:1048ac00f09221001081fb004811dd000101710024
:1048bc0061406100c3962100934078000104a1007f
:1048cc0080c070000200d1006140600000404000d8
:1048dc000114a10080c070004210de006140600035
:1048ec004200dd000124a10080c070004310de00f6
:1048fc00614060004300dd000134a10080c0700005
:10490c004411de00614161004411dd000144a1004d
:10491c0082c97000009321009080fb00109321004d
:10492c001080fb004800dd00010170002093210085
:10493c009080fb00309321001080fb004800dd00cc
:10494c008101700082e9880093e98800409321007e
:10495c009080fb00509321001080fb004800dd008c
:10496c0001017000609321009080fb007093210086
:10497c001080fb004800dd008101700062e98800b6
:10498c0073e98800009521009080fb0010952100b0
:10499c001080fb004800dd00010170002095210013
:1049ac009080fb00309521001080fb004800dd005a
:1049bc0081017000d2e88800e3e88800409521006e
:1049cc009080fb00509521001080fb004800dd001a
:1049dc0001007000c0e88800009421009080fb006a
:1049ec00109421001080fb004800dd0001017000d4
:1049fc0042e98800409421009080fb0050942100f3
:104a0c001080fb004800dd000101700032e98800d5
:104a1c00809321009080fb00909321001080fb007c
:104a2c004800dd000101700022e98800c0932100dc
:104a3c009080fb00d09321001080fb004800dd002b
:104a4c000101700012e98800809421009080fb0025
:104a5c00909421001080fb004800dd0001017000e3
:104a6c0002e98800c09421009080fb00d0942100c2
:104a7c001080fb004800dd0001017000f2e88800a6
:104a8c006195210060d321001148780071952100b7
:104a9c0070d32100114878008195210080d321002a
:104aac00114878009195210090d32100114878008d
:104abc004f0778004f06be004f05be004f04be00e6
:104acc00000006000001eb00221688008080eb003d
:104adc00011688006216880041168800c082a90061
:104aec00103a80000060a1006404200073052000cf
:104afc0025742000844a7800834a7800804a780024
:104b0c0061198800c4c6bf00ffc05000014060009e
:104b1c000044a000c4e6b700b4c6bf00014060006a
:104b2c000014a000b4e6b70098c6bf0001406000b6
:104b3c000004a00098e6b7002c03a9002c23a900c0
:104b4c002c43a9009cc6bf00014060005040b3003c
:104b5c009ce6b7009dc6bf00014060006040b300fa
:104b6c009de6b7009ec6bf00014060007040b300d8
:104b7c009ee6b700000e20002c23b700103a8000f0
:104b8c000060a000217420008448780083487800dd
:104b9c008048780002038800120388000000060099
:104bac003600f800809fbe00829fbe00849fbe002e
:104bbc00869fbe004df70700c0368200d1368200ba
:104bcc0061024000e0824800c4368a00d5368a0073
:104bdc00a0368200b136820061014000e0814800bd
:104bec00a2368a00b3368a0060ea80000000e0003a
:104bfc0048003200e10f40006000320060ea8000a3
:104c0c0001002000800f5100818f59003b003d00b6
:104c1c0050ea80000000e00043003200e10f400049
:104c2c005300320050ea800001002000800f520037
:104c3c00818f5a0048003d00903682000000e00051
:104c4c003e003a0040ea8000e10f50005300320071
:104c5c00c082a8001000200090368a00f0e9800085
:104c6c000000e0001e003200e2368200f3368200c3
:104c7c0061014100e0814900e2368a00f3368a0086
:104c8c0000ea800001002000800f5100818f590044
:104c9c00130035006000b800e0368a00f1368a0057
:104cac00c0962100104178000228a30005003200b4
:104cbc0011ea800050cb8000810f50003c00320084
:104ccc0051cb88000218a3000500320021ea8000b5
:104cdc0040cb8000810f50003800320041cb88005f
:104cec008460a9004f03be004f02be004f01be00fe
:104cfc004f00be003600f900004006006000b8000e
:104d0c00a0368a00b1368a0040ea8000e10f5000dc
:104d1c001a0032001000200040ea880050ea80009f
:104d2c000000e000bdff3a001000200030ea8800cf
:104d3c00903682000000e000c2ff320030ea8000b2
:104d4c00e10f500010003200c082a8000000eb0000
:104d5c0090368a00c1ff37006000b800c0368a0068
:104d6c00d1368a0030ea8000e10f5000eeff3a00a5
:104d7c0060d421000008eb00afff370080d4210085
:104d8c000008eb00a2ff3700c082a900c282a90074
:104d9c000000eb0090368a00b0ff3700c082a900fb
:104dac00c282a8001000200090368a00abff3700aa
:104dbc000100ea0050cb8800c2ff37000100ea0076
:104dcc0040cb88008460a9004f03be004f02be0098
:104ddc004f01be004f00be003600f9000040060037
:104dec00c6ff3700a0e980000000e00001003a0097
:104dfc000000060000c5800010007800f0c3880099
:104e0c00f0c480001000780000c48800e0c480006a
:104e1c001000780010c48800d0c480001000780006
:104e2c0020c488000000eb00a0e98800230b0700d9
:104e3c0010c58800000006000000eb00a110070060
:104e4c0040e78800100020009e10070030e7880023
:104e5c006102b900c0428000d142800000015200c2
:104e6c0081815a00c4428800d54288000030280055
:104e7c00f1ff2f00800f5100818f590001003d0080
:104e8c00e181410000d02700800f5100e08f5900d4
:104e9c0001003400e1815100e0e78000f1e780007f
:104eac000200400083804800e0e78800f1e78800ba
:104ebc00b04280000000e800b0428800810220006f
:104ecc00810f500001003200000006000000eb00d2
:104edc00b0428800e0e78000f1e7800022852000e6
:104eec001200500060c78800e0e78000f1e7800006
:104efc0090428800a1428800000006000c100700b8
:104f0c00bdfb3700c1fb0700091037000200fa0097
:104f1c000002eb00230020000f81e900200020009c
:104f2c00f10f20008bed070030002300ffb8970035
:104f3c00808f500002003200509121001054a000cc
:104f4c000080fa00000006000000060000000600c9
:104f5c000000eb00f0e9880010ea880020ea8800e5
:104f6c0030cb880040cb880050cb88000000060076
:104f7c000000eb0034f107008780a9000000060058
:104f8c000000060060e880000040a00060e8880097
:104f9c000000060060e880000040a10060e8880086
:104fac0000000600881f78000087200021002000e8
:104fbc0001087800018020009143880001f02f0047
:104fcc00a1438800616c2400b1438800c16b2400ac
:104fdc00c14388000004eb00d8438800caf00700e6
:104fec00608a21008d0d070058c5880068c58800af
:104ffc0078c58800def407009a0b0700bb0a07008f
:10500c003e100700c8ea8800f2f4070081fb070095
:10501c008afb0700e9fb07003a0e0700c096210047
:10502c001004a000f8e9880018ea880028ea880033
:10503c0038cb880048cb880058cb8800d9fb0700b8
:10504c0083fb07004f0478000000060000000600f8
:10505c0099f40700950a0700b50f070066fb0700d7
:10506c000000eb00f0e9880010ea880020ea8800d4
:10507c0030cb880040cb880050cb88001b0e37000b
:10508c003600f800809fbe00829fbe00849fbe0049
:10509c00869fbe00400f2000200288000000eb001d
:1050ac000810070040e788001000200005100700da
:1050bc0030e788006102b900c0428000d142800014
:1050cc000001520081815a00c4428800d5428800f8
:1050dc0000302800f1ff2f00800f5100818f590004
:1050ec0001003d00e181410000d02700800f5100fc
:1050fc00e08f590001003400e1815100e0e78000ad
:10510c00f1e780000200400083804800e0e788005f
:10511c00f1e78800b04280000000e800b04288004f
:10512c0081022000810f5000ba0032006311070089
:10513c00c0962100104078000008a30051003200f6
:10514c0071f2800070438000810f50000f0032001c
:10515c0071438800e38f500044013200f4003400a6
:10516c00e58f5000a90132006f013500e68f500029
:10517c0006003a00601d200050438800801d20006e
:10518c0060438800a01d20004043880040cb800075
:10519c004683de00d0072000800f5300a9003c009e
:1051ac0030f82f00800f5300a60035000601780060
:1051bc008042eb002103200014032000c201e20016
:1051cc00c5003d00100e800000f0a100840f5000bf
:1051dc00c1003e008100e90015c0b300f7ff3a00a2
:1051ec00409121001074a000e1e98000e00f200044
:1051fc00808f500003003e00e0e980000000e800d2
:10520c00e0e9880060438000411f20000108430052
:10521c004043800001087800504380000288500011
:10522c00b2c7800092c58800c0c780000001410051
:10523c00020040006a00b9004480de0080c588008e
:10524c00608a21006b0c07000000e0009e003a0011
:10525c00a0e980000000e00003003200a0e980001b
:10526c000000e00080003a008480a9004f03be00db
:10527c004f02be004f01be004f00be003600f900c9
:10528c00004006000018a3007400320071f2800088
:10529c0070438000810f5000b500320071438800cc
:1052ac000000eb00e0428800f0428800e38f5000e1
:1052bc000e013200f9003c00e18f50003501320044
:1052cc00e28f5000420132003143800025438000c0
:1052dc001100780010438800150078000043880006
:1052ec0010438000110040000080d1001043880062
:1052fc00879621001700100084f58000240190008f
:10530c000091b900c418dd004c11de000281700060
:10531c00cc99de0002037800140178000091b900ea
:10532c004818dd004811de0002017000c899de004b
:10533c00f042800002004000f0428800b40090006f
:10534c00810f5000a6003c008100ea00810f500044
:10535c00a30035004880de0000034300d007200086
:10536c00800f5300a5003c0030f82f00800f530035
:10537c00a200350000438000150040000080d100e1
:10538c000043880017004000240190000091b900f0
:10539c00c418dd004c11de0002817000cc99de00d7
:1053ac0082027800140178000091b9004818dd00e1
:1053bc004811de0002017000c899de00e042800056
:1053cc0002004000e0428800b4009000810f5000c1
:1053dc00a3003c008100ea00810f5000a0003500c2
:1053ec004880de0000814200d0072000800f510071
:1053fc0003003c0030f82f00800f51006cff3d0083
:10540c00000178008042eb002103200014032000ef
:10541c006aff37000000eb00b0428800e0e7800034
:10542c00f1e78000228520001200500060c7880040
:10543c00e0e78000f1e7800090428800a1428800fc
:10544c003aff370000037800000178008042eb003f
:10545c00210320001403200058ff37000003eb0049
:10546c000601780052ff370000c58000100078005c
:10547c00f0c38800f0c480001000780000c48800dd
:10548c00e0c480001000780010c48800d0c48000f4
:10549c001000780020c488000000eb00a0e9880010
:1054ac008609070010c588008480a9004f03be0040
:1054bc004f02be004f01be004f00be003600f90087
:1054cc00004006006fff3700409121001014a0002f
:1054dc00280f07005eff37000504e00042ff3a008a
:1054ec0060438000411f20000108430040438000be
:1054fc00010878005043800002885000b2c7800039
:10550c0092c58800c0c78000000141000200400025
:10551c006a00b9004480de0080c58800608a2100e2
:10552c00b40b07000000e00049ff3200e6ff370033
:10553c00e18f5000c1003200e28f500013ff3a009f
:10554c00601d200040438800801d200060438800bf
:10555c00a01d20005043880040cb80004683de0015
:10556c00d0072000800f5300b6ff3c000cff370023
:10557c00314380002543800010438000110040001f
:10558c000080d1001043880087962100170010007e
:10559c0084f58000240190000091b900c418dd004e
:1055ac004c11de0002817000cc99de000203780001
:1055bc00140178000091b9004818dd004811de0094
:1055cc0002017000c899de00f04280000200400029
:1055dc00f0428800b4009000810f50005aff340054
:1055ec0001007800f14288004880de00000343008f
:1055fc00d0072000800f53005bff340000037800bd
:10560c0000438000150040000080d100004388005a
:10561c0017004000240190000091b900c418dd006f
:10562c004c11de0002817000cc99de008202780001
:10563c00140178000091b9004818dd004811de0013
:10564c0002017000c899de00e042800002004000b8
:10565c00e0428800b4009000810f50005dff3400e0
:10566c0001007800e14288005dff3700601d2000da
:10567c0060438800801d200040438800a01d20004e
:10568c005043880040cb80004683de00d0072000ca
:10569c00800f53006bff3c00c1fe3700e58f5000bc
:1056ac002d00320071003500e68f500006ff3a00e5
:1056bc00818f210031438800658f210025438800ac
:1056cc00601d200050438800801d2000604388002e
:1056dc00a01d200040438800110078001043880072
:1056ec001500780000438800fdfe3700618f210013
:1056fc0031438800a58f210025438800601d2000c0
:10570c0060438800801d200040438800a01d2000bd
:10571c005043880011007800104388001500780071
:10572c0000438800eefe3700601d200050438800c7
:10573c00801d200040438800a01d2000604388008d
:10574c0040cb80004683de00d0072000800f530042
:10575c003cff3c0092fe3700a18f210031438800b2
:10576c00858f210025438800601d20004043880060
:10577c00801d200050438800a01d2000604388003d
:10578c001100780010438800150078000043880051
:10579c00d3fe3700618f210031438800858f2100b3
:1057ac0025438800601d200060438800801d200078
:1057bc0050438800a01d2000404388001100780051
:1057cc00104388001500780000438800c4fe3700a1
:1057dc00818f210031438800a58f2100254388004b
:1057ec00601d200040438800801d2000604388001d
:1057fc00a01d200050438800110078001043880041
:10580c001500780000438800b5fe3700601d2000ad
:10581c0040438800801d200050438800a01d2000bc
:10582c006043880040cb80004683de00d007200018
:10583c00800f530003ff3c0059fe3700601d200011
:10584c0060438800801d200050438800a01d20006c
:10585c004043880040cb80004683de00d007200008
:10586c00800f5300f7fe3c004dfe3700a18f210046
