:020000040800F2
:10800000607A0120CD840008D5840008D784000858
:10801000D9840008DB840008DD840008000000002B
:108020000000000000000000000000009D83000828
:10803000E18400080000000055840008B9840008AD
:10804000E7840008E7840008E7840008E784000864
:10805000E7840008E7840008E7840008E784000854
:10806000E7840008E7840008E7840008E784000844
:10807000E7840008E7840008E7840008E784000834
:10808000E7840008E7840008E784000847A70008A1
:10809000C1A60008E784000841A70008E78400089B
:1080A000E7840008E7840008E7840008E784000804
:1080B000E7840008E7840008E7840008E7840008F4
:1080C000E7840008E7840008E7840008E7840008E4
:1080D000E7840008E7840008E7840008E7840008D4
:1080E000E7840008E7840008E7840008E7840008C4
:1080F000E7840008E7840008E7840008E7840008B4
:10810000E7840008E7840008E7840008E7840008A3
:10811000E7840008E7840008E7840008E784000893
:10812000E7840008E7840008E7840008E784000883
:10813000E7840008B1AC0008E7840008D3A7000872
:108140004DA70008E7840008CDA70008E7840008D1
:10815000E7840008E7840008E7840008E784000853
:10816000E7840008E7840008E7840008E784000843
:10817000E7840008E7840008E7840008E784000833
:10818000E7840008E784000800F002F800F0B6F881
:108190000AA090E8000C82448344AAF10107DA4562
:1081A00001D100F0ABF8AFF2090EBAE80F0013F0FE
:1081B000010F18BFFB1A43F001031847C86F0100F5
:1081C000E86F01000023002400250026103A28BF94
:1081D00078C1FBD8520728BF30C148BF0B60704739
:1081E000642901F01B83782901F05483732901F07D
:1081F0009A870020704710B510BD00007047704787
:1082000002010217E0B7EE3900800008008001008B
:1082100000000020C0FF010000000000000000007E
:108220000165557064617465720000000000000013
:108230000101000000010100455854000000000049
:1082400046656220323820323031382031313A33BD
:10825000363A30300000000000000000000000004E
:10826000000000000000000000000000000000000E
:1082700000000000000000000000000000000000FE
:108280000A444FF0000C10F8013B13F0070408BF3C
:1082900010F8014B1D1108BF10F8015B641E05D0DA
:1082A00010F8016B641E01F8016BF9D113F0080F8F
:1082B0001EBF10F8014BAD1C0C1B09D16D1E58BF21
:1082C00001F801CBFAD505E014F8016B01F8016B58
:1082D0006D1EF9D59142D6D370471FB515F06CFFCE
:1082E0009DE8030001F010FE02F0C3F90400002035
:1082F000002115F0B5FC401C60601FBD02F04FF975
:108300001146FFF7EAFF0BF03FFE02F075F903B4E8
:10831000FFF771FF03BC02F0A5F9000000487047A9
:10832000003000000048704700A00000401EFDD152
:108330007047000080F309887047EFF309807047A9
:10834000684680F3098804480078C00714BF0220FB
:10835000032080F31488704798030020DFF818C0CA
:10836000EFF305831B0618BF6047EFF31483DB07A9
:1083700008BF604700DF704745600108DFF818C09C
:10838000EFF305831B0618BF6047EFF31483DB0789
:1083900008BF604700DF7047BD600108EFF3098048
:1083A000816911F8021CE1BB90E80F1010B5E0479D
:1083B000BDE81040EFF3098C8CE80700214B93E8EF
:1083C0000600914208BF704741B91EF0100F16D148
:1083D0001D49086820F00100086010E01EF0100F31
:1083E00006BF2CED108A0120002081F838002CE90E
:1083F000F00FC1F83CC00CB40FF06CFC0CBC1A6060
:10840000D2F83CC0BCE8F00F92F8380000280EBF4C
:108410006FF0020E6FF0120EBCEC108A8CF309881C
:10842000704710B5094A1268914209D8084C54F8AF
:10843000214090E80F10A047EFF3098C8CE80F0063
:1084400010BD0000A802002034EF00E0BCA6000828
:10845000BCA6000810B50FF049FABDE81040154B56
:1084600093E80600914208BF7047EFF3098C1EF0B5
:10847000100F06BF2CED108A0120002081F8380073
:108480002CE9F00FC1F83CC00CB40FF023FC0CBC7D
:108490001A60D2F83CC0BCE8F00F92F8380000280F
:1084A0000EBF6FF0020E6FF0120EBCEC108A8CF350
:1084B00009887047A802002010B50FF02FFCCCE708
:1084C00010B50CF0BDFB0FF029FCC6E7094880474A
:1084D00009480047FEE7FEE7FEE7FEE7FEE7FEE7A6
:1084E000FEE7FEE7FEE7FEE704480549054A064BBE
:1084F00070470000F9B400088981000860AA0020D4
:10850000607A0120604A0120604A01202DE9F7438A
:108510000C4615466E460CB1012000E00020804656
:1085200000278848007810B9781EBDE8FE8300F067
:10853000AAFA4146304603F0BBF9C7B2012D0ED16D
:1085400081483168C0F82610402201467F48006803
:10855000001D01F0B3FB7D48006800F0AAFE00F0AA
:108560009EFA012F01D10020DFE74FF0FF30DCE75A
:1085700070B504460D46002229462046FFF7C6FF87
:1085800070BD2DE9F3470D466E460027B8464FF003
:10859000FF396C48007810B9781EBDE8FC876C483C
:1085A000008810B94FF0FF30F7E700F06CFA0024B4
:1085B00016E0C4EBC401674A02EB410101F10A0075
:1085C0000422314601F04EFB40B90127C4EBC40040
:1085D000604901EB400000F1040805E0601CC4B2F2
:1085E0005B4800888442E4DB00BF00F058FA012FAA
:1085F00008D14FF000092DB1D8F800002860B8F874
:108600000400A8804846C8E72DE9F1436D460026DE
:1086100000274FF0FF384B48007810B9701EBDE8B6
:10862000F8834B48008810B94FF0FF30F7E700F0AF
:108630002AFA002415E0C4EBC401464A02EB4101CA
:1086400001F10A000422294601F00CFB38B9012689
:10865000C4EBC4003F4901EB4000071D05E0601C6E
:10866000C4B23B4800888442E5DB00BF00F017FA43
:10867000012E10D106223849384601F0F3FA28B10C
:1086800006223649384601F0EDFA10B94FF0FF38AE
:1086900001E04FF000084046C1E701460020704766
:1086A00002460020704710B50446FF2206212648E6
:1086B00001F07BFB24482A490A69C0F80620898A10
:1086C00041814FF4C160204988814FF48070C88196
:1086D00008200882062088740420C87480018882DB
:1086E00008461F490A69C0F81620898A41831C4937
:1086F0008969C161002101628184C0F826101621B8
:108700002A3001F05AFB1748104908602A200968EE
:10871000088000200D490968488010BD70477047E7
:1087200010B5044694F82000202802DD4FF0FF30F9
:1087300010BDFFF7F4FFFFF7F1FF204600F034FD16
:108740000020F5E700020020408A0020F801002008
:1087500058020020908D0020A8E80108AEE801082A
:10876000C88A0020808A002001460020704770B52A
:10877000054600242846FFF790FF04442846FFF7EB
:10878000F3FF0444284600F0C5FC0444284600F0EA
:1087900067FA0444284600F0BAFA0444284600F078
:1087A00090FC0444204670BD70B504460D46C24896
:1087B000006F28B1C0482946026F2046904701E06B
:1087C00000BFFEE770BD70B505460C4600262DB90A
:1087D000BAA1E120FFF7E8FF002070BD2846FFF7AF
:1087E000C6FF064604B126603046F6E710B5B2482B
:1087F000406F58B1B049486F8047BA490860084691
:10880000006818B9B8A1E020FFF7CEFF10BD10B581
:108810000446606F40B90021A167E16780200151E3
:108820000020B04908600FE0A06F20B1E06F10B1E8
:108830008020005930B9BCA1E320FFF7B5FF4FF00D
:10884000FF3010BDFFF7D2FF0020FAE710B5044655
:108850002046FFF728FF10B14FF0FF3010BD204633
:10886000FFF7D5FF10B14FF0FF30F7E7204600F0DB
:1088700057FC10B14FF0FF30F0E7204600F0F6F95A
:1088800010B14FF0FF30E9E7204600F046FA10B192
:108890004FF0FF30E2E7204600F019FC10B14FF036
:1088A000FF30DBE70020D9E702460020704770B5B3
:1088B00005460C4621462846FFF7F2FE10B14FF060
:1088C000FF3070BD2846FFF7E8FE800804EB800407
:1088D00021462846FFF7E8FF10B14FF0FF30F0E7E0
:1088E0002846FFF741FF800804EB80042146284614
:1088F00000F013FC10B14FF0FF30E2E7284600F023
:1089000009FC800804EB80042146284600F0ABF9FE
:1089100010B14FF0FF30D4E7284600F0A1F98008ED
:1089200004EB80042146284600F0F4F910B14FF022
:10893000FF30C6E7284600F0EAF9800804EB80041F
:108940002146284600F0C0FB10B14FF0FF30B8E7D9
:10895000284600F0B6FB800804EB80040020B0E756
:10896000704710B5D821544801F049FA00205D49FC
:10897000086010BD10B50446FFF7F3FFFFF7F0FFE6
:10898000002010BD10B504462046FFF7C9FE10B107
:108990004FF0FF3010BD2046FFF7ECFF10B14FF055
:1089A000FF30F7E7204600F0D4FB10B14FF0FF3066
:1089B000F0E7204600F05FF910B14FF0FF30E9E733
:1089C000204600F0B2F910B14FF0FF30E2E7204648
:1089D00000F087FB10B14FF0FF30DBE70020D9E754
:1089E00070B504460D4634B95AA1E120FFF7DCFE0C
:1089F0004FF0FF3070BD3049206F0867207830B1EC
:108A00005DA1E420FFF7D0FE4FF0FF30F2E76748AA
:108A10000078012806D166A1E020FFF7C5FE4FF0DF
:108A2000FF30E7E72046FFF7ADFF30B16A49E320AA
:108A3000FFF7BAFE4FF0FF30DCE729462046FFF78C
:108A400036FF10B14FF0FF30D4E7D82221461A4844
:108A500001F079F91848FFF7F9FE10B14FF0FF3037
:108A6000C8E70020C6E770B504460D4629462046F3
:108A7000FFF7A9FE70BD70B504460D462946204695
:108A8000FFF7AEFF70BD10B51648006830B10A4858
:108A9000D0F88010826F13480068904710BD10B561
:108AA0001048006820B10448C16F0E48006888472C
:108AB00010BD014608687047C88A00206970616C63
:108AC0005F626173655F6D656D6F72795F67657415
:108AD00073697A652829206E656564732061206357
:108AE00066670000FC0100206970616C5F62617361
:108AF000655F6869645F7468726561647361666507
:108B000074795F696E697428293A2063616E6E6FAB
:108B10007420616C6C6F6361746520746865206D8E
:108B200075746578000000006970616C5F62617344
:108B3000655F696E697469616C6973652829206E67
:108B400065656473206F73616C2066756E6374690C
:108B50006F6E73006970616C5F626173655F696EEF
:108B6000697469616C69736528293A206D6973734A
:108B7000696E6720636667006970616C5F6261732C
:108B8000655F696E697469616C69736528293A204B
:108B9000756E737570706F72746564207463702F76
:108BA000697020737461636B000000000002002094
:108BB0006970616C5F626173655F696E6974696138
:108BC0006C69736528293A20616C7265616479204B
:108BD000737461727465640064F0010831B56C46A9
:108BE0002E48007810B94FF0FF3038BD2C4890F86F
:108BF0002C0010B94FF0FF30F7E72078EF2802D0B3
:108C00004FF0FF30F1E7FFF73EFF20460AF0C4FCCB
:108C100010B94FF0FF3000E000200546FFF73FFF9E
:108C20002846E2E731B56C461C48007810B94FF091
:108C3000FF3038BD1A4890F82C0010B94FF0FF30C3
:108C4000F7E7FFF720FF20460AF0CEFC10B94FF0FF
:108C5000FF3000E000200546FFF721FF2846E8E747
:108C60000146002070470246002070470146002060
:108C700070477047704710B5044694F82D000628D9
:108C800002DD4FF0FF3010BDFFF7F4FFFFF7F1FFFB
:108C9000204600F048FB0020F5E70000000200201D
:108CA000C88A002010B52A48406830B929A1E120BF
:108CB000FFF77AFD4FF0FF3010BD304800780128F3
:108CC00006D12FA1E020FFF76FFD4FF0FF30F3E753
:108CD00001202A4908700AF03BFF0020ECE710B59C
:108CE000FFF7D1FE0BF06EF9FFF7D9FE10BD10B5FE
:108CF000FFF7C9FE14F09EFDFFF7D1FE10BD14482A
:108D0000406808B90020704711484068FBE70146F9
:108D1000002070470246002070470146002070473F
:108D20007047002015490870704710B50446208927
:108D3000B0F5C05F02DD4FF0FF3010BDFFF7F1FF6F
:108D4000FFF7EEFF204600F03AFB0020F5E70000B9
:108D5000C88A00206970616C5F7379735F73746196
:108D6000727428293A206D697373696E6720636F86
:108D70006E66696775726174696F6E00000200202B
:108D80006970616C5F7379735F73746172742829A1
:108D90003A2063616E6E6F74207374617274206127
:108DA0006761696E000000002DE9FE4F05468846A8
:108DB00017469946DDF830A00DB1062D02DD0020E2
:108DC000BDE8FE8F681E00EB4000CF4901EBC004F8
:108DD0002069B0B14046FFF76CFE0646E06828B156
:108DE000E068B0420DD12089B8420AD1CDF8089090
:108DF000ADF804A00097334601AA2146D4E904C087
:108E0000E0470020DCE731B500249DF80000400772
:108E1000000E9DF80010C1F3C00140EA01109DF85A
:108E20000010C1F3001140EAC1009DF80010C1F329
:108E3000401140EA8105B548007808B9002038BDE6
:108E4000FFF721FEB24A0121284614F017FD04461F
:108E50001CB9FFF724FE0020F1E7601E00EB400084
:108E6000A94901F830400021601E00EB4000A64AED
:108E700002EBC0004180601E00EB400002EBC0002E
:108E80004160601E00EB400002EBC0000181601EEB
:108E900000EB400002EBC000C160601E00EB400030
:108EA00002EBC0000161601E00EB400002EBC0005D
:108EB0004161FFF7F4FD601E00EB4000924901EBB9
:108EC000C000BCE770B504460CB1207810B94FF073
:108ED000FF3070BDFFF7D7FD608820B1207814F017
:108EE000AFFC00206080207814F02AFD05460021A8
:108EF0002078401E00EB4000834A02F8301000202A
:108F00002070608060602081E06020616061FFF718
:108F1000C6FD15B94FF0FF30DBE70020D9E72DE99A
:108F2000F04104460F46154614B1207800B11DB932
:108F30004FF0FF30BDE8F081FFF7A5FD608820B15C
:108F4000207814F07DFC0020608000260EE006EB07
:108F500046006D4901EBC0004088A84204D1FFF7EC
:108F60009EFD4FF0FF30E5E7701CC6B2062EEEDB2B
:108F70002078294614F0A6FCC6B226B9FFF78FFD6B
:108F80004FF0FF30D6E765806760FFF788FD00206F
:108F9000D0E770B504460D4616460CB1207810B9DE
:108FA0004FF0FF3070BDFFF76EFD608860B932464C
:108FB00000212046FFF7B3FFB0F1FF3F04D1FFF7D8
:108FC0006EFD4FF0FF30EDE72681E560FFF767FDAE
:108FD0000020E7E710B504460CB1207810B94FF037
:108FE000FF3010BDFFF74FFD00202081E060FFF74C
:108FF00056FD0020F5E72DE9FF4381B005460C46FC
:109000001F4600260DF10C0845B1287830B168885C
:1090100020B11CB1606808B1208820B94FF0FF3042
:1090200005B0BDE8F083FFF72EFD208814F01EFC8C
:10903000064626B9FFF733FD4FF0FF30F0E72288F0
:109040003046616800F03AFE208800902878334668
:109050003A46414614F08CFC10B94FF0FF3000E066
:1090600000208146FFF71BFD4846D9E770B504464E
:109070000D462CB1608818B1E06808B1208910B99C
:109080004FF0FF3070BDFFF7FEFC238929462046D4
:10909000E268FFF7B0FF0646FFF701FD3046F1E753
:1090A00070B504460D46164604B115B94FF0FF30B1
:1090B00070BDFFF7E8FC25616661FFF7F0FC00205A
:1090C000F6E701460020704702460020704701463F
:1090D00000207047704710B590210B4800F08FFEBC
:1090E00010BD10B5044694F83000062802DD4FF09C
:1090F000FF3010BDFFF7EFFFFFF7ECFF204600F059
:10910000BAF90020F5E70000A08B00200002002043
:10911000A98D0008014600207047024600207047D4
:1091200010B504468C20005940B19020005928B158
:109130009420005910B19820005930B90AA1E120BB
:10914000FFF732FB4FF0FF3010BD0020FCE7704707
:10915000704710B50446FFF7FBFFFFF7F8FF204606
:1091600000F0CBF8002010BD6970616C5F65746819
:109170005F6869645F696E697428293A206D697354
:1091800073696E67206574682066756E6374696FB5
:109190006E73000010B5BF4890F82200012802D17C
:1091A000002002F0A7FC10BD10B504464FF4E0719A
:1091B000B94800F024FE0020B8490880B84908806A
:1091C000B8490870B849087094F82000B34908807D
:1091D000B649606AB0FBF1F0B149088094F821000B
:1091E000B0490870B149A06AB0FBF1F0AE4908700F
:1091F000002010BD10B5A748D0F89C0018B1A549B3
:10920000D1F89C00804710BD70B505460C461CB9CE
:10921000284606F025FB70BD0020FCE77FB5A44B77
:109220000FCB8DE80F009B48807A8DF80000A14895
:109230000190A148407900221346124343EA0023DB
:109240009D480079114603439B48C4780022124090
:10925000100640EA142041EA0461034396488478EA
:1092600000221240100440EA14401A4641EA044326
:1092700042EA00019048447800221240100240EA7D
:1092800014600A4643EA042102438B480078002315
:109290001B4001431A43CDE902127E48D0F88C10DE
:1092A0006846884785490870084690F900000870AC
:1092B0007FBD10B504467748D0F8981020468847FF
:1092C00010BD10B57349D1F8900080477148D0F8AF
:1092D000880018B16F49D1F88800804710BD10B5DB
:1092E0006C48D0F8840018B16A49D1F884008047EE
:1092F0006849D1F89400804710BD01466E480022AD
:10930000026082800A6902608A8A82800020704737
:1093100010B504465F4890F82C00012802D1204681
:109320000CF09EFD10BD10B504462421644800F0E9
:1093300066FD002063490880634908705B4A6168E4
:10934000B2FBF1F188B294F82D105E4A118005212C
:1093500090FBF1F15C4A1170002010BD10B504467D
:10936000062C08DA594A02EB441104F1F002D0B29B
:10937000FFF71AFA03E056A1E020FFF715FA10BD37
:1093800010B50AF015FC434890F82C00012801D1D3
:109390000AF020FC3F4890F82F00012801D10AF084
:1093A00041FCFFF7F7FE10BD10B50EF033FD394854
:1093B00090F82C00012801D10EF084FD10BD10B5ED
:1093C00004463C21484800F01AFD4FF4C05147487C
:1093D00000F015FD46480021016041608160C160D8
:1093E00000204449087044490860444908804449C1
:1093F00008803D48A1690160E1698160C0203A4967
:109400000873A8213848417300218173FE21C1737C
:10941000C02035490874A821334841740021817463
:10942000FE21C174C02030490871A8212E48417125
:1094300000218171FE21C1712D48324A06CA06C041
:1094400001202C49087020892B4908601749606861
:10945000B1FBF0F02949088000202949088010BD9F
:1094600010B504460B4890F82F00012802D1204681
:109470000CF036FD10BD10B504464821224800F01E
:10948000BEFC00202149087094F8300008700020CC
:1094900010BD0000C88A0020908D002058020020D6
:1094A0005A0200205C0200205D02002040420F00B2
:1094B000D8E90108C0E901085E020020710200201D
:1094C000508F00206402002066020020E8E90108B5
:1094D000756E6B6E6F776E2073797374656D206532
:1094E00072726F7200000000748F0020B08F002035
:1094F000B0A7002067020020680200206C02002054
:109500006E020020CCE90108C0A7002070020020F4
:1095100000487047FCA9002070B5A0FB0140B4F1E1
:10952000805170F1000024BF002070BD204600F083
:109530005FFD05001CBF214600F03FFC284670BDC2
:1095400070B516460D46041F002808BF70BD002EDA
:109550001CBF05F10C00AFF300802B4658680028B3
:1095600018BFA04238BF0346F8D31968CA18A242F0
:1095700018BF5C6003D122681C4611441960216841
:109580000A19824218BF606004D1426862600068B4
:1095900008442060002E1CBF05F10C00AFF30080D2
:1095A00070BD10B5044600F094FC01682046BDE88B
:1095B00010400122C4E70B3020F0070070472DE96E
:1095C000F0410F460546041F00F083FC0668F7B122
:1095D000384615B3FFF7EFFFB84205463CBF002001
:1095E000BDE8F08106F10C00AFF300802268AA42CA
:1095F00038BF314615D3511B082931D360190022D9
:1096000040F8041B31462560FFF79AFF28E0284602
:10961000FFF7C7FF0020BDE8F081BDE8F04100F092
:10962000E7BC4868002818BFA04238BF0146F8D3FD
:10963000131983421BD103681A44954217D8531B50
:10964000082B0AD3436862195360236800681844E2
:10965000401B106025604A6002E02260406848605C
:1096600006F10C00AFF30080201DBDE8F081002260
:109670003146281F00F07BFC05000AD02068211D20
:10968000021F284600F05FFB00223146201DFFF735
:1096900057FF06F10C00AFF300802846BDE8F081CB
:1096A00053EA020C00F069802DE9F04B4FF0000600
:1096B000002B1FBFB3FA83F503FA05F424FA05F66D
:1096C0005E4012BF1643B2FA82F502FA05F4C5F104
:1096D00020051EBF22FA05FC44EA0C04203556EA98
:1096E000044C4FEA144418BF641C4FF000084FF0BC
:1096F0000009904271EB030C39D3002919BFB1FA6C
:1097000081F701FA07F6B0FA80F700FA07F6C7F119
:1097100020071EBF20FA07FC46EA0C062037B6FBDE
:10972000F4FCA7EB0507103F07F01F0BCBF1200659
:109730000CFA0BFB2CFA06F644BFB3460026202F8A
:10974000A4BF5E464FF0000B5BEA060C08BF4FF06B
:10975000010B19EB0B09ABFB027C48EB0608C01BA5
:1097600006FB02CC0BFB03CC71EB0C01C1E70B46F3
:10977000024641464846BDE8F08B13B54FF0000065
:109780004FF00001AFF30080BDE81C4070470000BF
:109790000FB47CB50C0009AA009001D02044401EF3
:1097A000084B7B4469460190089800F08AFC054606
:1097B0001CB10020694600F097FC28467CBC5DF88F
:1097C00014FB00004D09000070B50C460546012A47
:1097D00005D02878800600D5EA69002302E001233D
:1097E00005E05B1C934202D2E05C0028F9D1A86935
:1097F000E618C01AA861286A184428622846AFF300
:10980000008004E0D5E9012114F8010B9047B4422F
:10981000F8D32846AFF3008070BD00002DE9F04179
:109820000646002410687529314616A510D0AFF3FE
:109830000080002802DA404213A507E031688A0759
:1098400001D512A502E0490704D511A5012401E0C4
:10985000AFF3008000210A2206F1240709E0B0FBE3
:10986000F2FCB0FBF2F302FB1C00303078541846D7
:10987000491C0028F3D123462A463046BDE8F04172
:1098800000F0C0BB000000002D0000002B00000015
:109890002000000070B504460D4621461068AFF365
:1098A00000802188090502D50F4A7A4402E00E4A59
:1098B0007A440E32002104F1240305E000F00F0683
:1098C0000009965D5E54491C0028F7D120780023DA
:1098D000000704D5702D02D009B1022311322046B1
:1098E000BDE8704000F08EBB985501002DE9F047AF
:1098F0004FF0000A89460446C0F820A02046E168DF
:109900008847002876D0252806D0D4E90121904741
:10991000206A401C2062F1E7E16820460025884764
:10992000C4F81CA006460027C4F818A02A2E09D0A7
:10993000304601F039FE38B304EB8708303EC8F8F2
:10994000186019E059F8041B204604EB8702916166
:10995000E1688847012F064618D1E069002820DA1F
:1099600025F020051DE0D8F8180000EB800006EB7C
:1099700040003038C8F818002046E168884706469D
:1099800001F012FE0028EED1012F0AD02E2E08D1B0
:109990002046E16888477F1C0646022F45F02005D7
:1099A000C4DBA069002803DA404245F00105A0614C
:1099B000E80701D025F01005B6B1A6F1410019283D
:1099C00002D8203645F400654A46314620462560D7
:1099D0004D46FEF705FC58B1012806D0ED1D25F0D7
:1099E000070000F1080989E704E005F1040985E7AB
:1099F00030468AE7206ABDE8F08700000FB400B562
:109A00008DB010A9099000910B904FF0FF300A9093
:109A100000200C90064878440690064878446A4630
:109A200007900F9909A800F097FB0DB05DF814FBA3
:109A30005F070000770700002DE9FF5F1D464FF02C
:109A4000FF3B91464FF000085F46D5E90146A96902
:109A500001987F1C8847296A824688470028F6D1EA
:109A6000BAF1FF3F0CD0002E24F4C06419DD60066B
:109A700014D5BAF12B0F09D0BAF12D0F0ED103E096
:109A8000584604B0BDE8F09F44F48064A969019889
:109A90007F1C8847761E8246002E02DDBAF1300F09
:109AA00003D0B9F1000F26D032E0A969761E0198E3
:109AB0007F1C44F400748847002E824605DDBAF10D
:109AC000780F06D0BAF1580F03D0B9F1000F10D0BB
:109AD0001EE0B9F1000F02D0B9F1100F18D1A96939
:109AE000761E01987F1C24F400748847824610205B
:109AF00002E0082000E00A20814609E0A96908FB8D
:109B00000908761E01987F1C44F400748847824639
:109B1000002E05DD4946504600F009FB0028EDDA2D
:109B2000E96901988847A00502D46FF00100A8E711
:109B3000E00725D1600613D5600502D5C8F1000005
:109B400000E0404629680A1D2A600968220501D5FF
:109B5000087015E0220701D5088011E008600FE0C9
:109B60002868011D29600068210502D580F8008061
:109B700006E0210702D5A0F8008001E0C0F80080CF
:109B800038467EE72DE9FF5F4FF0000899461446FE
:109B900046469169D2E901A7DDF838B001988847B7
:109BA000054659EA0B0005D009E0A1690198761C29
:109BB00088470546216A284688470028F5D1681C51
:109BC00003D05FEACA7005D015E04FF0FF3004B053
:109BD000BDE8F09F2068011D2160D0F800800AE0F8
:109BE0005FEACA7001D108F8015BA169761C01988F
:109BF0007F1E88470546002F1ADD681C18D0B9F172
:109C0000000F0DD0E81705EBD060421120F01F00C7
:109C100059F822102A1A012090400142E0D107E0B1
:109C2000BBF1000FDCD12846216A88470028D7D035
:109C3000E16901988847BBF1000F07D1002E05DDCF
:109C40005FEACA7002D1002188F80010A068B8420B
:109C500003DDBBF1000F03D017B16FF00100B6E7D1
:109C60003046B4E740EA010310B59B070FD1042A40
:109C70000DD310C808C9121F9C42F8D020BA19BAD7
:109C8000884201D9012010BD4FF0FF3010BD1AB13C
:109C9000D30703D0521C07E0002010BD10F8013B91
:109CA00011F8014B1B1B07D110F8013B11F8014BB8
:109CB0001B1B01D1921EF1D1184610BD032A40F2A0
:109CC000308010F0030C00F0158011F8013BBCF15E
:109CD000020F624498BF11F801CB00F8013B38BF76
:109CE00011F8013BA2F1040298BF00F801CB38BF84
:109CF00000F8013B11F0030300F02580083AC0F0A2
:109D0000088051F8043B083A51F804CBA0E8081049
:109D1000F5E7121D5CBF51F8043B40F8043BAFF37C
:109D20000080D20724BF11F8013B11F801CB48BFD6
:109D300011F8012B24BF00F8013B00F801CB48BF0C
:109D400000F8012B704710B5203AC0F00B80B1E845
:109D50001850203AA0E81850B1E81850A0E8185060
:109D6000BFF4F5AF5FEA027C24BFB1E81850A0E869
:109D7000185044BF18C918C0BDE810405FEA827C83
:109D800024BF51F8043B40F8043B08BF7047D2079A
:109D900028BF31F8023B48BF11F8012B28BF20F83B
:109DA000023B48BF00F8012B704702F0FF0343EA73
:109DB000032242EA024200F002B84FF000020429F6
:109DC000C0F0128010F0030C00F01B80CCF1040CEA
:109DD000BCF1020F18BF00F8012BA8BF20F8022B1E
:109DE000A1EB0C0100F00DB85FEAC17C24BF00F8C4
:109DF000012B00F8012B48BF00F8012B70474FF0F2
:109E0000000200B5134694469646203922BFA0E8CA
:109E10000C50A0E80C50B1F12001BFF4F7AF0907D6
:109E200028BFA0E80C5048BF0CC05DF804EB8900C7
:109E300028BF40F8042B08BF704748BF20F8022B0A
:109E400011F0804F18BF00F8012B70474FF0013C14
:109E500050F8042B51F8043B9A4221D1A2EB0C0399
:109E6000934313EACC1317D150F8042B51F8043B59
:109E70009A4215D1A2EB0C03934313EACC130BD1F6
:109E800050F8042B51F8043B9A4209D1A2EB0C0381
:109E9000934313EACC13DBD04FF00000704700BFB0
:109EA000D01A01BAB1FA81F101F0180122FA01F0D9
:109EB000CB40C1F12001DBB2C0B2C01A2CFA01F3D1
:109EC000D11A914311EAC311E6D170477047704728
:109ED000704710B5FFF71CFB083010BD7047704786
:109EE00038B504460A4600206946AFF300800028D2
:109EF00008BF38BD02460099204600F066F90120EF
:109F000038BD012000F044BBF8B5AFF30080054632
:109F100000200C46102000BF0646A819A0420DD90B
:109F2000324669460020AFF30080070008BF00F00A
:109F30002FFB0098A04218BF0546C419FFF7C9FFC0
:109F400005600746F01D20F007004619284600F07E
:109F500033F9B44208BFF8BDA21B31463868BDE8EA
:109F6000F84000F032B90B3020F0070070472DE9BF
:109F7000F04117460E460446FFF7F5FFA04205469E
:109F800033D9002F1CBF06F10C00AFF30080304620
:109F90007468F4B12168A94217D305F1080291420F
:109FA0003CBF6168416007D3626861194A602268FA
:109FB000521B0A6041602560002F1CBF06F10C0097
:109FC000AFF30080201DBDE8F08120466468002CBE
:109FD000E0D129463046FFF783FF0028D7D1002F74
:109FE0001CBF06F10C00AFF300800020BDE8F0813B
:109FF00010B50446FFF76DFF01682046BDE810402C
:10A000000122B4E72DE9F0470D46994692460446F1
:10A0100000F124080168880604D5E06921F01001E8
:10A02000216000E00120A84201DD471B00E000277D
:10A03000A1697A1902EB0900081AA0612078C0060C
:10A0400002D42046AFF30080002608E0D4E90121C5
:10A050001AF806009047206A401C761C20624E4584
:10A06000F4DB2078C0060AD52046AFF3008006E076
:10A07000D4E9012130209047206A401C2062381E1C
:10A08000A7F10107F4DC07E0D4E9012118F8050085
:10A090009047206A401C2062281EA5F10105F3DCD0
:10A0A0002046AFF300802078000602D50220BDE8EC
:10A0B000F0870120FBE7000001694A1C0261087873
:10A0C000704700B58FB0CDE90131002105910549F8
:10A0D0007944CDE9031011466846FFF707FC0FB03D
:10A0E00000BD0000E5FFFFFF0A6802F8010B0A60EF
:10A0F0007047D1E900239A4202D2531C0B601070C2
:10A10000704710B5436913B1AFF3008001E0FFF76A
:10A110005BFB012010BD127800F124010A700022BF
:10A120004A700122EDE711684FF0FF32E9E73A2863
:10A1300000D2303820F02002412A01D3A2F13700AA
:10A14000884201D34FF0FF3070470000026811448D
:10A150001378016018467047D16005497944516110
:10A1600004497944116200211161114600F056B88A
:10A17000EDFFFFFFA3000000426842B1016811F843
:10A18000013B23B1521EC0E900121846704701215D
:10A19000C160881E704742685AB1C368016843B9FC
:10A1A00083688B4205D0491E521CC0E90012002072
:10A1B00070474FF0FF30704700210160C0E9011087
:10A1C0000C3001F0F8B91020704730B404468C46CA
:10A1D0004368002B18BF634538BF1846F8D303689F
:10A1E0001844604507D0C81C20F0070000F1040C9B
:10A1F000ACEB0100121A2146CCF8002030BC002242
:10A200000CF10400FFF79CB910B5044600F0ECF91E
:10A210000068005D00F0010010BD00002DE9F34F63
:10A220004FF0000A0C4656468DB001200C9001F10B
:10A230000C000B9062690B9801219047051E2DD0F0
:10A24000252D2CD0216A8847C0B162690B98012165
:10A250009047216A88470028F7D16269411E0B9810
:10A26000904700E0761CA1690D988847216A8847CD
:10A270000028F7D1E1690D988847DBE7A1690D98BF
:10A280008847A842074601D1761CD3E7E1690D98BB
:10A2900088477F1C02D1BAF1000F6FD06BE1626971
:10A2A0000B9800273D46394690472A2804D1626919
:10A2B0000B98012190470125DFF8D08262690B9845
:10A2C00001219047A0F130010A290AD24745E5DC77
:10A2D00007EB870100EB4107303FDFD445F0100565
:10A2E000ECE7E90601D46FF000476C280AD04C284F
:10A2F00014D0682815D06A280DD074281CD07A286C
:10A300001AD01DE062690B98012190476C2802D099
:10A3100045F0040514E045F002050DE045F0200588
:10A320000AE062690B9801219047682802D045F045
:10A33000080505E045F4006562690B980121904726
:10A34000C4E9015765283DD019DC58287AD00CDCC7
:10A35000452837D004DC252826D041289ED131E07D
:10A3600046282FD0472899D12CE05B2877D0612848
:10A3700028D063287CD0642823D15AE0F6E06F28E7
:10A3800048D008DC66281DD067281BD0692821D05A
:10A390006E2816D127E0702845D0732868D075281C
:10A3A00047D078280DD14DE0A1690D988847252820
:10A3B00005463FF469AFE1690D9888476D1C3FF48D
:10A3C0006AAFD8E00D9923466A466FF00100AFF3FB
:10A3D0000080C5E045F0400023464FF00002606079
:10A3E000A80736D43EE0E8077FF447AF2068011D98
:10A3F00021600068290501D506701BE7290701D5F2
:10A40000068017E7A90703D5F117C0E9006111E736
:10A4100006600FE745F0400023464FF008026060F9
:10A42000A80716D41EE040F60E0125EA0100606080
:10A4300016E045F0400023464FF00A026060A8078E
:10A4400007D40FE045F040006060A80708D5234618
:10A4500010220D996FF00100AFF3008080E007E05B
:10A46000102223460D996FF00100FFF7E5FA77E01F
:10A470004FF0000963284F46C8464B46CB4602D0F2
:10A480005B2806D038E0E80601D40120A06001274F
:10A4900032E06269D4F80CB00B98012190475E2835
:10A4A00007D14FF0010949466269D4F80CB00B9806
:10A4B0009047216939B900210A4603AB43F82120AE
:10A4C000491C0829FADBD8B3216949B308F101080E
:10A4D00062690B98012190475D28F4D1B9F1000F12
:10A4E00009D0002003A951F82020D24341F82020B0
:10A4F000401C0828F7DB03AB2069002820794FEACD
:10A5000040701ED05B462246CDF80080CDE9019711
:10A510000D9900286FF0010020DAAFF300801FE0F2
:10A52000C11703AA00EBD1614B1121F01F0102EB0F
:10A530008302411A13680120884003431360C7E770
:10A5400019E00D99224600286FF00100009702DA09
:10A55000AFF3008004E0FFF715FB01E0AFF30080EC
:10A5600000280ADA401C06D10C9820B14FF0FF30C9
:10A570000FB0BDE8F08F5046FAE7E90701D10AF1C4
:10A58000010A064400200C9054E60000CCCCCC0C10
:10A5900010B500F03FF8BDE8104000F036B8754641
:10A5A000FEF7B6FFAE4605006946534620F00700A9
:10A5B000854618B020B5FDF797FFBDE820404FF065
:10A5C00000064FF000074FF000084FF0000B21F09D
:10A5D0000701AC46ACE8C009ACE8C009ACE8C0096A
:10A5E000ACE8C0098D46704710B500F042F8001D78
:10A5F00010BD00BF6D36010010B50446AFF30080FA
:10A600002046BDE81040FDF782BE002801D000F0D2
:10A6100029B8704710B5012805D0002103A000F02B
:10A620002DF8012010BD09A1F8E700005349475259
:10A63000544D454D3A204F7574206F662068656112
:10A6400070206D656D6F7279000000003A204865DA
:10A650006170206D656D6F727920636F72727570B5
:10A660007465640001491820ABBEFEE726000200B5
:10A67000704710B5FEF74CFF203010BD70B5054691
:10A680000C460A2000E06D1C00F011F835B1287866
:10A690000028F8D102E0641C00F009F814B1207819
:10A6A0000028F8D1BDE870400A20AFF3008008B55B
:10A6B00069468DF800000320ABBE08BD0000000015
:10A6C000F0B589B0002600960196029603961A48C6
:10A6D0001A4D4468E868A76A10F0100F1CBF304696
:10A6E00010F002F8384608F092F8012808D13846F0
:10A6F00008F02EF9012084F82E0030460FF0F4FF08
:10A70000284604AA002100F0CDF9049800909DF895
:10A710001A008DF80600DDF81B000290DDF81F001E
:10A7200003906946384608F01AF9616800291CBF91
:10A73000A068884709B0F0BDF0A800200064004080
:10A7400000200FF0D1BF002010F00AB870B58AB019
:10A7500001200021009101910291039119491A4DA4
:10A760008C68E968A66A11F0100F18BF0FF0BCFFE3
:10A77000304608F04CF8012807D1304608F0E8F8D8
:10A78000012084F82E000FF0AFFF284604AA002114
:10A7900000F088F9049800909DF81A008DF80600E2
:10A7A000DDF81B000290DDF81F000390694630467B
:10A7B00008F0D5F8616800291CBFA06888470AB076
:10A7C00070BD0000F0A800200068004001200FF0DC
:10A7D0008BBF01200FF0C4BF10B4082304224FF038
:10A7E000100CB1F5007F40D021DC202902BF0361AD
:10A7F00010BC704710DC012901BF1D49816010BCED
:10A800007047042902BFC36010BC7047082908BF05
:10A81000C0F80CC010BC7047402902BFC0F810C07F
:10A8200010BC7047B1F5807F1FD010BC704700246A
:10A83000B1F5004F08D00BDCB1F5806F15D0B1F544
:10A84000006F1CBF10BC70478461426010BC704731
:10A85000B1F5803F02BF436010BC7047B1F5003FC7
:10A8600008BFC0F804C010BC7047426010BC7047FD
:10A8700001010100A0F1804110B5B1F5C8414FF0D0
:10A88000010109D0880600F017FDBDE81040002145
:10A890004FF0806000F010BD4FF0007000F00CFD34
:10A8A000BDE8104000214FF0007000F005BD000031
:10A8B00030B4817A354B012202FA01F11A6842F074
:10A8C00001021A60DFF8C8C0DCF800208A43CCF827
:10A8D0000020047B2F4AD4B914688C431460448848
:10A8E000C58844EA0544857AED0005F1804505F503
:10A8F000C045C5F840460488858844EA0544857A01
:10A90000ED0005F1804505F5C045C5F84446047BDA
:10A91000012C18D114680C431460847A0268E40096
:10A9200004F1804404F5C0444FEA3242C4F84026A2
:10A93000847A4268E40004F1804404F5C0444FEA9C
:10A940003242C4F84426C47A134A002C14680CBF5F
:10A950008C430C4314600489104A14B914688C4366
:10A9600014600489012C02D114680C431460407BEC
:10A97000012804D1DCF800000843CCF80000186876
:10A9800020F00100186030BC7047000000660040F5
:10A990001C6600400C6600400466004014660040DF
:10A9A000002A426914BF114322EA01014161704744
:10A9B0000268002322F002020260026842F00102F3
:10A9C00002604FF6FF7200BFD0F804C01CF0010F08
:10A9D00003D1934218BF5B1CF6D1436813F0010FFB
:10A9E0005DD08B79012B03680CBF43F0800323F00B
:10A9F00080030360CB79012B03680CBF43F0400355
:10AA000023F0400303600B7A012B03680CBF43F073
:10AA1000200323F0200303604B7A012B03680CBF53
:10AA200043F0100323F0100303608B7A012B0368BB
:10AA30000CBF43F0080323F008030360CB7A012B1B
:10AA400003680CBF43F0040323F0040303608B7816
:10AA500091F803C04FEA837343EA0C6391F804C092
:10AA600043EA0C4391F805C0098843EA0C53A1F16D
:10AA7000010143EA0101C161016821F001010160A6
:10AA80004FF00001436813F0010F1CBF9142491CB5
:10AA9000F8D1406810F0010F04BF012070474FF05B
:10AAA0000000704700EB0113D3F8B0C11CF0040C98
:10AAB00082F808C0D3F8B0C107BF4FEA5C5CC2F8A7
:10AAC00000C04FEADC0CC2F804C0D3F8B0C10CF0EF
:10AAD000020C82F809C0D3F8B4C10CF00F0C82F854
:10AAE0000AC0D3F8B4C14FEA1C2C82F813C0D3F8C3
:10AAF000B8C182F80BC0D3F8B8C14FEA1C2C82F859
:10AB00000CC0D3F8B8C14FEA1C4C82F80DC0D3F882
:10AB1000B8C14FEA1C6C82F80EC0D3F8BCC182F8F1
:10AB20000FC0D3F8BCC14FEA1C2C82F810C0D3F878
:10AB3000BCC14FEA1C4C82F811C0D3F8BC311B0ECB
:10AB4000937421B1016941F0200101617047C1682E
:10AB500041F02001C160704709490A6842F00102D2
:10AB60000A600A6822F4877222F478520A600A683E
:10AB700042EA00200860086820F001000860704781
:10AB80000066004000218171C171017241728172C1
:10AB9000C1728170C17003210171022141710121D3
:10ABA0000180704710B402460020936813F0806F54
:10ABB0003FD000BF02EB0012D2F8803103F0010356
:10ABC000C2F880310B7A002B42D0D2F880C14C6899
:10ABD0004CEA030391F809C04CEAC40C43EA0C03A5
:10ABE000C2F880318B7A03F00F038B72D2F8843174
:10ABF00023F00F03C2F88431D2F8843191F80AC0EF
:10AC000043EA0C03C2F88431CB7AD1F80CC043EA92
:10AC10000C23C2F88831CB7B096943EA0121C2F8D1
:10AC20008C11D2F8801141F00101C2F8801110BCE2
:10AC30007047906810F0006F18BF0120BAD190687B
:10AC400010F0805F14BF02200420B3D110BC704705
:10AC5000D2F8803191F809C043EA0C03B1F800C082
:10AC600043EA4C53BCE700B5002200F007F8C043AC
:10AC700080B2010241EA102080B200BD05E000BFB1
:10AC800030F8023B891E5BBA1A440129F8DC11B185
:10AC9000007802EB002290B200EB124000EB104073
:10ACA00080B27047084400EB104080B2704700004B
:10ACB0002DE9F04F43484FF0000B93B046685F46D4
:10ACC00049F21A08357C4FF4407A4FF00049706918
:10ACD00000EB05100168C1F30D410C1F016811EA7A
:10ACE000080F18BF012734D100683AEA000018BFE6
:10ACF00002272ED140F2EA50844288BF032728D889
:10AD000044F0004007F06EF944F000410090002844
:10AD100008BF04271DD00820726900EB0510E31C52
:10AD2000105820F003020098001D9C0806D000BFB8
:10AD300052F8043B40F8043B641EF9D122480268F3
:10AD400012B10098001D9047009807F0D1FB4FF01A
:10AD5000010B706900EB0510C0F8009077B1022F6D
:10AD600008BF4FF0FF343B4618A2402102A80094D0
:10AD7000FEF70EFD02A9F02008F070FBF07A6D1CC2
:10AD8000854208BF00253574706900EB0510006826
:10AD900010F0004F9BD0184C6069184D10F0800FD8
:10ADA00006D065610020A06015A1F02008F056FBD8
:10ADB0006561BBF1000F18BF07F0E4F813B0BDE800
:10ADC000F08F0000D0020020C80200204554485FE8
:10ADD00049525148616E646C657228293A20657247
:10ADE000726F7220256420666F72206672616D65D5
:10ADF0005B25645D0000000000900240C0800100FF
:10AE00004554485F49525148616E646C6572282907
:10AE10003A206572726F72203500000001490860A7
:10AE2000704700000C3C024030B50546002451B18B
:10AE3000012908BF4FF4807405D002290CBF4FF4DC
:10AE400000744FF4407400F079F8092818BF30BD41
:10AE50000F4B186820F44070186018682043186081
:10AE6000186820F0F8001860186845F002010843DF
:10AE70001860186840F48030186000F05FF81968B6
:10AE800021F002011960196821F0F801196030BD44
:10AE9000103C024030B50C46054600F04FF809283A
:10AEA00018BF30BD0A4B186820F44070186018684D
:10AEB00040F480701860186840F0010018602C8021
:10AEC00000F03CF8196821F00101196030BD000064
:10AED000103C024030B50C46054600F02FF809281A
:10AEE00018BF30BD0A4B186820F44070186018680D
:10AEF00040F400701860186840F0010018602C6081
:10AF000000F01CF8196821F00101196030BD000043
:10AF1000103C02400548006810F0004F08BF704721
:10AF2000034904480160044901607047103C024035
:10AF300023016745043C0240AB89EFCD81B0092075
:10AF40008DF8000001462648026812F4803F18BFC1
:10AF5000012116D1026812F0100F18BF062110D17E
:10AF6000026812F4807F18BF02210AD1026812F031
:10AF7000EF0F18BF072104D1026812F0020F18BFAB
:10AF800008218DF800109DF80010012923D10268D6
:10AF9000092112F4803F18BF012116D1026812F076
:10AFA000100F18BF062110D1026812F4807F18BF5D
:10AFB00002210AD1026812F0EF0F18BF072104D155
:10AFC000026812F0020F18BF08218DF800109DF8DA
:10AFD00000100129DBD09DF8000001B0704700008F
:10AFE0000C3C02402DE9F001002201255FF0030630
:10AFF000D1F800C005FA02F30CEA030C9C4537D1E6
:10B0000007684FEA420C06FA0CF4A74307600F7971
:10B01000D0F8008007FA0CF747EA080707600F79B5
:10B02000012F18BF022F17D1876827EA040787600E
:10B030004F79D0F8088007FA0CF747EA08078760CD
:10B04000476827EA0303436043688F7907FA02F7EA
:10B05000BFB243EA07034360C36823EA0403C36043
:10B06000CB7903FA0CF3D0F80CC043EA0C03C360AD
:10B0700002F10102102ABBD3BDE8F00170474B0773
:10B08000DB0E9A40C90800EB8100016A4FF00F0CFB
:10B090000CFA03F399430162016A1143016270479C
:10B0A0000246002012690A4218BF0120704702467A
:10B0B000002052690A4218BF01207047426951407E
:10B0C00041617047002A14BF018341837047002902
:10B0D000018814BF41F4806121F4806101807047D0
:10B0E000838A0022008B43EA004020F07F4031EA4F
:10B0F000000008BF012210467047C9438182704793
:10B100000029018814BF41F0010121F001010180F3
:10B1100070470029018814BF41F4807121F48071C7
:10B12000018070470029018814BF41F4007121F4A7
:10B1300000710180704782B00246002000920A0F21
:10B1400021F07F41019208BF090C009A14BF14320C
:10B150001832009212680A4218BF012002B07047EC
:10B16000818A008B41EA004020F07F407047000058
:10B1700070B50446808884B00D4620F03F066846CE
:10B1800000F0B2F829490298B0FBF1F189B246EA21
:10B190000102A280228822F001022280244B2A6828
:10B1A0009A421DD85200B0FBF2F080B2042838BF9A
:10B1B0000420491C2184A083208840F001002080C5
:10B1C0002088A9886A8920F00A0020F48060114351
:10B1D00008432080A88929890843208104B070BDD4
:10B1E000EB88A3F53F4CBCF1FF0C19D002EBC20376
:10B1F00003EB0212B0FBF2F080B240F48040020593
:10B20000120D08BF40F0010040F400404FF4967268
:10B2100051434FF47A72B1FBF2F1491C2184CAE721
:10B2200002EB4202B0FBF2F080B2E8E740420F00CE
:10B23000A0860100002A14BF41F0010101F0FE01C7
:10B240000182704701827047034940F0FD7040F071
:10B2500080600860704700000CED00E021F07F0185
:10B2600021F06041084301490860704708ED00E0A3
:10B27000044A0029116814BF084321EA0000106045
:10B280007047000030380240044A0029116814BF9A
:10B29000084321EA000010607047000010380240A7
:10B2A000044A0029116814BF084321EA0000106015
:10B2B0007047000040380240044A0029116814BF5A
:10B2C000084321EA00001060704700002038024067
:10B2D000044A0029116814BF084321EA00001060E5
:10B2E0007047000044380240254A30B41168254BAD
:10B2F00011F00C0106D0244C042908BF046002D0D0
:10B3000008291ED0036011680F2303EA11111F4B97
:10B31000595CD0F800C02CFA01F14160D2F800C0AD
:10B32000072404EA9C2C13F80CC021FA0CFCC0F88A
:10B3300008C0126804EA52329A5CD140C16030BC45
:10B3400070471349D1F800C0CCF38055D1F800C044
:10B35000002D0CF03F0C14BFB4FBFCF3B3FBFCF36B
:10B36000D1F800C00968CCF3881C03FB0CF3C1F3CF
:10B370000141491C4900B3FBF1F10160C3E7000042
:10B38000083802400024F40080F0FA02A4030020F0
:10B39000043802400149C1F8DC0070470000274230
:10B3A00082B00022294901920092086840F480206E
:10B3B0000860086840F480300860086800F40030D5
:10B3C00000900198401C0190009818B90198B0F5C0
:10B3D000A04FF2D1086810F4003F02BF009202B003
:10B3E0007047012000901A48026842F080520260C3
:10B3F0001848026842F4404202601748026802603E
:10B40000026842F400420260026842F4A052026004
:10B41000031F124A1A600A6842F080720A600A68C2
:10B4200012F0007FFBD00E4A40F2057111600168F6
:10B4300021F003010160016841F00201016001682F
:10B4400001F00C010829FAD102B07047003802401F
:10B450004038024000700040083802403254400733
:10B46000003C0240010241EA102080B27047000017
:10B47000DFF86CC030B4DCF800001A4B10F00C019F
:10B48000194806D0194C042908BF046002D00829C5
:10B490000CD00360DCF80010154AC1F30311515CB5
:10B4A000026822FA01F1016030BC704711490A6854
:10B4B000C2F380550A68002D02F03F0214BFB4FBAE
:10B4C000F2F2B3FBF2F20B680968C3F388135A4334
:10B4D000C1F30141491C4900B2FBF1F10160D9E718
:10B4E000083802400024F4002C02002080F0FA0208
:10B4F000B8E8010804380240134810B5016841F467
:10B50000700101601148016841F001010160104AB9
:10B5100000211160026822F4102222F08072026081
:10B52000031D0C4A1A60026822F4802202600A4855
:10B53000016007F0EBFFFFF733FF08494FF00060B1
:10B540000860FFF795FF10BD88ED00E0003802406D
:10B5500008380240103000240C38024008ED00E0AA
:10B5600012F0004F1FBF22F00042D21D22F007034D
:10B57000102202BFD21C22F003030C221BB103EBEA
:10B58000020C8C4501D901207047024401448360BC
:10B59000C0E90021C91AD01888429CBF1060024639
:10B5A000F9D900201060704730380A2801D20120F4
:10B5B00070470020704710B50446204609F042FB52
:10B5C00010BD00002DE9F0470027DFF8909000281B
:10B5D0000CDA2349D9F8002020F000400968024421
:10B5E00001EB4101B2EB910F18D8012705460F304E
:10B5F00020F003060FB9FDF772FE1A4CD4E90002E1
:10B60000011B891AB1420CD2044600680028F5D10A
:10B6100027B9FDF756FE0020FDF7A0FE0020BDE88B
:10B62000F08772B1101921680160206000F10808EC
:10B63000C0F80460D9F800103144C9F8001027B1EF
:10B6400005E004F108086660F4E7FDF73AFEA8F8A3
:10B6500000500020A8F802004046E0E7F402002075
:10B6600068020020B08F00202DE9F0470746894688
:10B6700090460026284C294D0BE0207838B1042252
:10B68000394604F10A0008F0BBFC012835D00E341D
:10B69000761C28888642F0DB2149384608F0CCFB2E
:10B6A000D0B91F4804220021001D08F0CFFC10B1C2
:10B6B0000020BDE8F0870026174C0AE0207830B162
:10B6C00006224946201D08F09BFC01281AD00E34A2
:10B6D000761C28888642F1DB404600F027F80028D7
:10B6E000E7D00D49C0EBC00001EB40040E3C042242
:10B6F000394604F10A0008F093FC06224946201D51
:10B7000008F08EFC07480088E07007480078A070B9
:10B71000032020700120CCE7908D002058020020EB
:10B72000548D00205A0200205C020020F0B505462E
:10B73000012116480E46164A03E0037853B10E3035
:10B74000491C13889942F8DD1248104B04880020E8
:10B7500001210DE0067045700846F0BD5F78012FAD
:10B7600004D1DF78A74201D83C4608460E33491C75
:10B770001788B942F2DD0028EFD0044AC0EBC001BF
:10B7800002EB410101F80E6D4D70F0BD908D00206F
:10B79000580200205A0200202DE9F04781460F464A
:10B7A00000253D4C3D4E0BE0207838B1042249463F
:10B7B00004F10A0008F024FC012815D00E346D1C99
:10B7C00030888542F0DB3649484608F035FBDFF823
:10B7D000C880334D01284FF0040209D00021281DF4
:10B7E00008F034FCE8BB1DE0207803284ED350E07D
:10B7F0004946281D08F004FC012806D10422002136
:10B80000281D08F023FC00B900273846FFF78EFFFB
:10B8100006003CD0C6EBC60108EB41040E3C0422F6
:10B8200049461DE000271C4C0BE0207838B104226B
:10B83000291D04F10A0008F0E3FB0128D4D00E34DE
:10B840007F1C30888742F0DB0020FFF76FFF060087
:10B850001DD0C6EBC60108EB41040E3C0422291D95
:10B8600000E013E004F10A0008F0DAFB06220D49BB
:10B87000201D08F0D5FB0C480078A0700B4800781C
:10B88000E070304600F036F9022020700020BDE85C
:10B89000F0872046FBE70000908D00205802002032
:10B8A000548D0020BCED01085C0200205D020020E8
:10B8B00070B50D46064604220E4908F0A1FB01288A
:10B8C00014D0304608F0CAFA01280FD02946304675
:10B8D000FFF762FF040008D00422314604F10A0099
:10B8E00008F08EFB012802D002E0002070BD6570D8
:10B8F000012070BDB8ED01082DE9F0470026DFF802
:10B90000D480DFF8D490B246344F5DE0B9F80050EF
:10B91000691C89B2A9F800103A88914201D3A9F8AC
:10B9200000A02F49C5EBC50001EB40042078C8B347
:10B93000E07820B1401E10F0FF00E07043D1607845
:10B9400001280AD10422274904F10A0008F058FB13
:10B95000012806D06078012818D010F0FF0F02D01F
:10B9600031E084F801A004221F4904F10A0008F024
:10B9700047FB012817D02078032818D0A07800B3FF
:10B98000401E10F0FF00A0701BD012E020780328AA
:10B9900017D0A078A8B1401E10F0FF00A07010D002
:10B9A000022005E00FE011480088E0700BE0042061
:10B9B000207098F80000E070681CBDE8F04700F0C7
:10B9C00099B884F800A0761C388886429EDBBDE8D2
:10B9D000F08700005D02002048020020580200208D
:10B9E000908D0020588D0020B8ED01085A020020EB
:10B9F0002DE9F04106460025134C00F10E08134FC7
:10BA00000DE0207848B1012807D0042204F10A0192
:10BA1000404608F0F5FA012806D00E346D1C38882F
:10BA20008542EEDBBDE8F081062206F10801201D0B
:10BA300008F0F6FA06480088E07006480078A07022
:10BA400003202070EEE70000908D002058020020B7
:10BA50005A0200205C0200202DE9F04105460E4606
:10BA60002A20FFF7AFFD044605F1080106220F4624
:10BA7000001D08F0D5FA06221C4904F10A0008F05E
:10BA8000CFFA4FF4C16020824FF4807060820820AA
:10BA9000A0820620A0750420E075268304F124000E
:10BAA00006223946064608F0BBFA05F10E0104F1FC
:10BAB0002A000422054608F0B3FA06220B4904F1D5
:10BAC0001A0008F0ADFA0422094904F1200008F038
:10BAD000A7FA012231462846FFF7C6FD2046FDF7AA
:10BAE000E8FB2046BDE8F04104F002B85E02002009
:10BAF000548D002070B505462A20FFF763FD0446EB
:10BB000006222349001D08F08BFA0622214904F180
:10BB10000A0008F085FA4FF4C16020824FF480716A
:10BB200061820820A0820620A0750420E075218390
:10BB30000622184904F11A0008F072FA0422164984
:10BB400004F1200008F06CFA4FF0060265B1002104
:10BB500004F1240008F072FA1049C5EBC50001EBAE
:10BB600040010422091F06E0094904F1240008F0FD
:10BB700057FA0949042204F12A0008F051FA204634
:10BB8000FDF797FB2046BDE8704003F0B1BF000011
:10BB9000BCED01085E020020548D0020908D002035
:10BBA00010B5002004F0F2F8012004F0EFF810BD09
:10BBB00000B589B013480078012801D109B000BD53
:10BBC00001201049087020220F4901A8FEF7BBF898
:10BBD00007208DF8060008208DF807000B48039019
:10BBE00001A9002004F004F909208DF806000A20BC
:10BBF0008DF807000648039001A9012004F0F8F829
:10BC000000BFDBE77800002058E20108F9AF010827
:10BC10000DB001087CB50020019000906A4601A992
:10BC20001948006801F00DFA019C2F2020700220B5
:10BC3000A07000206070E07004211348006801F0DB
:10BC40003FFA03F075FE054610480068A84219D077
:10BC50000F4800684FF47A7100FB01F20D4801684B
:10BC6000284601F0E5FF01280CD140F6065229468E
:10BC70000548006801F093F9034801680548006829
:10BC800001F02EFD7CBD00005000002040E40108C2
:10BC90001CE401085C00002010B50748006890F81B
:10BCA000200000B910BD044840680322416802200A
:10BCB00009F032FA00BFF5E73884002001B500989A
:10BCC000C0F303300C2802DD0448006808BD00986A
:10BCD000C0F30330014951F82000F7E7C401002008
:10BCE000F0B501460124632509B9A01EF0BD00206E
:10BCF000064650405E40304302D142F222220023E9
:10BD00006FF07F4602EA06000026360646EA102655
:10BD10004FF0020C4CEA0060C1E90006034888605D
:10BD20006FF07F40C8600020E0E700000A00016378
:10BD300010B5044614B94FF0FF3010BD05A104F151
:10BD40003800FEF783F808B90020F6E74FF0FF301F
:10BD5000F3E700004558540010B50446204611F0A2
:10BD60008AF810BD10B50446204611F097F810BDB2
:10BD700010B50446204611F0DFF810BD10B504469A
:10BD8000204611F0EDF810BD70B504460D46294669
:10BD9000204611F039F970BD70B504460D462946AC
:10BDA000204611F073F970BD10B5044604B91C4C5F
:10BDB00040221C491C4810F0E2FF1A480FF08AFE8E
:10BDC000012809D040221949174811F00CF84022E7
:10BDD0001449154810F0D3FF207910F049FF38B10D
:10BDE000206810B12068804702E04FF0FF3010BD9E
:10BDF00011F0D0F938B1206810B12068804702E016
:10BE00004FF0FF30F3E711F09BF938B1206810B123
:10BE10002068804702E04FF0FF30E8E70020E6E7C7
:10BE200044E70108748500204CE7010854E7010845
:10BE300010B510F02DFF10BD10B50446204610F0CF
:10BE400035FF10BD10B50446204610F047FF10BD69
:10BE500010B50446204610F04FFF10BD002070477B
:10BE60000048704754E7010870B504460D4629465E
:10BE7000204611F0D1F970BD10B50446204611F0EE
:10BE8000D9F910BD10B50446204611F0E4F910BDF3
:10BE900070B504460D462946204611F0ECF970BDF8
:10BEA00010B50446204611F025FA10BD10B5044621
:10BEB000204611F030FA10BD10B50446204611F0AE
:10BEC0003AFA10BD70B504460D462946204611F0D9
:10BED00042FA70BD10B540220649074810F04FFFE6
:10BEE00004480FF0F7FD012801D1002010BD4FF0EC
:10BEF000FF30FBE7748500204CE7010810B54022B5
:10BF00000249034810F03BFF004810BD7485002033
:10BF10004CE7010810B50446204610F099FF10BD0B
:10BF200010B510F0A0FF10BD70B504460D462946AF
:10BF3000204610F0F1FE70BD014611B96FF001000E
:10BF400070470020087000BFFAE730B5024602B122
:10BF500011B96FF0010030BD91E8390082E8390075
:10BF60000020F8E7FEB505460C4600200290461E6C
:10BF7000284600F088F8012804D0022811D00328B0
:10BF800039D11EE00020019002AA01A9284600F044
:10BF900050F8029820B1DDE9011003F03DFB0646A0
:10BFA0002AE00020019002AA01A9284600F056F8D4
:10BFB000029828B12246DDE9011003F019FB06467C
:10BFC0001AE000200190009002AB6A4601A92846C1
:10BFD00000F015F8019868B1029838B12346DDE900
:10BFE0000021029803F0EEFA064603E00026DDE9A0
:10BFF0000001884700E000BF00BF3046FEBD10B51D
:10C00000044614B109B102B113B96FF0010010BDBB
:10C010002078032805D00020086018601060401EBA
:10C02000F5E760680860E0681860A06810600020AC
:10C03000EDE703460BB101B112B96FF00100704793
:10C040001878012804D0002008601060401EF6E730
:10C0500058680860986810600020F0E703460BB14C
:10C0600001B112B96FF0010070471878022804D0AE
:10C07000002008601060401EF6E758680860986865
:10C0800010600020F0E7014609B9002070470878E9
:10C09000FCE7014609B90020704700220878012812
:10C0A00004D0022808D003280ED109E0486810B156
:10C0B000886800B1012209E0886800B1012205E02A
:10C0C000486800B1012201E0002200BF00BF104615
:10C0D000E2E770B5002400F069FD05460123102257
:10C0E000042100F06DFD044600202070204670BD44
:10C0F00010B5044614B96FF0010010BD0320207084
:10C100006160A260E3600020F7E7034613B96FF0B7
:10C11000010070470120187059609A600020F8E70C
:10C12000034613B96FF00100704702201870596080
:10C130009A600020F8E700000348006808B1024850
:10C1400070470020FCE70000AC010020F8B5044671
:10C150000D4611480068E0B900F050FA06460F4855
:10C1600000900CB1012000E0002001460C4B0DA214
:10C17000304600F002FA294620460CF041FB1348F5
:10C18000134B144A14490090144802F09BFD0249D5
:10C1900008600148F8BD0000AC01002088E50108F6
:10C1A0001EE70108656F5F61726D656E765F496EAF
:10C1B000697469616C69736528293A204E554C4C45
:10C1C000206D6F64696E666F00000000F1870108E2
:10C1D000D58801085D890108E1870108D98901082E
:10C1E0000048704734E201082DE9F0418AB0064664
:10C1F0000C464FF0000800270025002E5BD00020E1
:10C2000009900890079006900590049004A805A94D
:10C2100006AA09ABCDE90032CDE9021007AB08AAA6
:10C2200026A13046FDF7EAFB0998B0F5006F03DB65
:10C2300000200AB0BDE8F08101250AE0244850F84A
:10C24000251008A8FDF702FE08B92F4603E0681C78
:10C25000C5B20D2DF2DB00BF0FB90020E9E707984A
:10C2600010B107981F2801DD0020E2E70698182882
:10C2700001DD0020DDE705983C2801DD0020D8E73E
:10C280000999206861F30B002060206867F30F3084
:10C2900020600799206861F31440206006992068A7
:10C2A00061F3595020600599206861F39F60206018
:10C2B0004FF0010800BF4046BBE700002573202572
:10C2C000642025642025643A25643A256400000032
:10C2D000A0000020024602EA0100884201D10120AC
:10C2E00070470020FCE701460A460AB90020704763
:10C2F0001068FCE7FEB504460D4616466DB1200EEB
:10C30000C4F30741C4F30722E3B2CDE90021029050
:10C3100002A231462846FDF73BFAFEBD25642E25D4
:10C32000642E25642E25640001460A46121F1068FB
:10C330007047014609B9002070470889FCE710B52D
:10C3400001460022002309B9002010BD088808B961
:10C350000020FAE7CA684888CC8800FB0423184606
:10C36000F3E7014609B90120704708880A8990421D
:10C3700001D10120F8E70020F6E700002DE9FE4F8B
:10C3800005460E4617469846002400200290824635
:10C3900081460120019000F009FC83460123202200
:10C3A000042100F00DFC0446002020806080A08065
:10C3B00000F024F98346354800900DB1012000E0DB
:10C3C00000200146324B33A2584600F0D6F800F068
:10C3D00015F983462D4800900EB1012000E00020A1
:10C3E00001462B4B32A2584600F0C7F8E580658124
:10C3F00026812761C4F814800C98A0610D98E06133
:10C40000012D02D10120019019E0022D02D102205C
:10C41000019014E0042D03DC0420019060810EE003
:10C4200008200190E81DC11700EB5171C1F3CF0145
:10C43000618160894FF6FF7101EAC000608100F000
:10C44000B5FB834633462A46019900F0B9FBE0600C
:10C45000E06802904FF0000912E0029809FB050A1B
:10C460001FB141465046B84706E000BFE18850463C
:10C47000FDF7A3FC00BF00BF09F101001FFA80F91E
:10C48000B145EADB2046BDE8FE8F000088E50108E3
:10C4900044E50108656F5F64657175655F4E65779A
:10C4A00028293A2030206974656D5F73697A6500C8
:10C4B000656F5F64657175655F4E657728293A2001
:10C4C00030206361706163697479000070B504465F
:10C4D0000025002604B970BD208800B9FBE7E56897
:10C4E0006088E18800FB0156E06918B13046E169D7
:10C4F000884702E000BF00BF00BF6088401C218960
:10C5000090FBF1F201FB120060802088401E208029
:10C5100000BFE0E72DE9F04104460D460026002764
:10C5200004B10DB9BDE8F08120892188884200D18D
:10C53000F8E7E668A088E18800FB0167A06920B100
:10C5400029463846A269904704E0224629463846E3
:10C550000CF05EFBA088401C218990FBF1F201FBEE
:10C560001200A0802088401C208000BFDAE701462E
:10C5700009B9002070470888FCE72DE9F843054613
:10C580000C4616461F46DDF820803CB93B46324635
:10C5900005212846CDF8008000F002F8BDE8F883B8
:10C5A0002DE9FC4782460C4615461E46DDF82880DC
:10C5B0000027002000900190019602F041FE814684
:10C5C00002F048FE07461FB902208DF8000004E083
:10C5D000384602F043FF8DF8000043466A4629467C
:10C5E00020460CF01FFBBDE8FC8700000246024815
:10C5F00000EBC10070470000E400002000487047D5
:10C60000E0000020F8B507460C4615461E462B46AE
:10C610002246012138460096FFF7C2FFF8BD000010
:10C62000014601B9024903480A68026070470000E8
:10C6300060E50108E00000202DE9FC4180460E463F
:10C6400014460025002000900190019402F0F8FDAE
:10C65000074602F0FFFD05461DB902208DF80000D7
:10C6600004E0284602F0FAFE8DF8000000236A4636
:10C67000314618460CF0D6FABDE8FC812DE9F041B0
:10C6800004460D4616464FF0FF3714B97800BDE852
:10C69000F081606828B92068FFF74BFE28800027EA
:10C6A0000FE03146606802F019FD40B92068FFF7DD
:10C6B00040FE2880606802F003FD002701E06FF073
:10C6C00002073846E3E72DE9F04104460D461646D9
:10C6D0004FF0FF3704B11DB96FF00100BDE8F081E4
:10C6E000606850B92068FFF72AFE2860286808B102
:10C6F000002717E06FF0040714E03146606802F08D
:10C70000EDFC68B92068FFF71AFE2860606802F047
:10C71000D7FC286808B1002704E06FF0040701E0A7
:10C720006FF002073846D9E72DE9FC5F05460E4653
:10C7300017469846DDE90C9A002400F037FA834644
:10C7400001230822042100F03BFA0446FFF756FFBC
:10C750008346144800900DB1012000E000200146FE
:10C76000114B12A25846FFF708FFFFF747FF834619
:10C770000C4800900EB1012000E0002001460A4B59
:10C7800011A25846FFF7F9FE43463A46314628467D
:10C79000CDE9009AFFF7F2FD20600E986060204618
:10C7A000BDE8FC9F88E501084CE50108656F5F6600
:10C7B00069666F5F4E657728293A20302069746575
:10C7C0006D5F73697A650000656F5F6669666F5FAC
:10C7D0004E657728293A203020636170616369745F
:10C7E000790000002DE9F04104460E4615464FF051
:10C7F000FF3714B97800BDE8F081606860B920683F
:10C80000FFF7AFFD28B931462068FFF783FE002708
:10C8100019E06FF0050716E02946606802F05EFC3B
:10C8200078B92068FFF79DFD28B931462068FFF7E9
:10C8300071FE002701E06FF00507606802F040FC20
:10C8400001E06FF002073846D5E770B504460D46A3
:10C850004FF0FF360CB9700070BD606820B92068D9
:10C86000FFF734FE00260EE02946606802F036FC31
:10C8700038B92068FFF72AFE606802F021FC002624
:10C8800001E06FF002063046E6E72DE9F04104468C
:10C890000D4616464FF0FF3724B900202880801E31
:10C8A000BDE8F081606828B92068FFF760FE288045
:10C8B00000270FE03146606802F010FC40B92068A4
:10C8C000FFF755FE2880606802F0FAFB002701E0C0
:10C8D0006FF002073846E3E770B504460D460026C0
:10C8E00004B105B970BD2946204600F04AF800B9E8
:10C8F000F8E720460CF0EDF9064676B129462046C9
:10C900000CF075FA294620460CF052FA2089401E98
:10C910002081208908B90020606000BFE2E72DE98E
:10C92000F04104460D4600262F46B04604B115B925
:10C930000020BDE8F08120460CF0CBF906460FE060
:10C94000314620460CF0C8F98046A2893946404657
:10C95000FDF788F900B905E030460CF0C6F9064647
:10C96000002EEDD100BF3046E3E7014609B90120B2
:10C97000704748890A89904201D10120F8E70020D8
:10C98000F6E770B506460C46002506B10CB9002046
:10C9900070BD30460CF09DF9054607E0AC4201D170
:10C9A0000120F5E728460CF0A0F90546002DF5D149
:10C9B0000020EDE72DE9FC5F06460D461746984638
:10C9C000DDF830A00024A14600F0F0F883460123F2
:10C9D0002422042100F0F4F8044600202060606066
:10C9E0002081FFF70BFE83462A4800900EB10120FC
:10C9F00000E000200146284B28A25846FFF7BDFD65
:10CA0000FFF7FCFD8346234800900DB1012000E0B4
:10CA100000200146204B28A25846FFF7AEFD658155
:10CA2000A6812761C4F81480C4F818A00D98E061AD
:10CA300060894FF6FF71884217D100F0B7F8009077
:10CA400000F09AFA08B9012000E000208346FFF7C1
:10CA5000D5FD01901F48104B1F4A59460090019880
:10CA6000FFF78BFD0020206211E04FF000090CE081
:10CA700020460CF040F983465946206A0CF0AFF985
:10CA8000206209F101001FFA80F9A945F0DB204678
:10CA9000BDE8FC9F88E5010853E50108656F5F6C00
:10CAA0006973745F4E657728293A20302069746570
:10CAB0006D5F73697A650000656F5F6C6973745FA1
:10CAC0004E657728293A203020636170616369746C
:10CAD0007900000098E50108F4EE010870B50446FD
:10CAE0000D46002604B105B970BD608921898842D0
:10CAF00000D1F9E720460CF047F906467EB12A46F8
:10CB0000314620460CF0C2F8208900B966603146F3
:10CB100020680CF064F920602089401C208100BF4F
:10CB2000E2E70000F8B506460C4604B9F8BD0E4829
:10CB3000007958B1FFF762FD05460C480C4B0DA279
:10CB4000032100902846FFF72BFDEFE72046FFF773
:10CB5000EBFB0549C96C081A0349C86408464169DA
:10CB60002046884700BFE1E71401002098E501084E
:10CB7000E0E50108656F5F6D656D706F6F6C5F4418
:10CB8000656C65746528293A206F6E6C7920772F63
:10CB900020656F5F6D656D706F6F6C5F616C6C6F42
:10CBA000635F64796E616D6963000000034800781B
:10CBB000012801D1014870470020FCE71401002042
:10CBC0002DE9F04F87B006460F4614461D464FF03C
:10CBD00000080020069081464F4890F804A004B158
:10CBE000E5B9002002900390049005900220029085
:10CBF0000020ADF80E008DF80C008DF80D00FFF749
:10CC0000FDFC834602A8454B45A2032100905846EF
:10CC1000FFF7C6FC002007B0BDE8F08FDEB90020AA
:10CC20000290039004900590032002900020ADF83C
:10CC30000E008DF80C008DF80D00FFF7DFFC834629
:10CC400002A8364B40A2012100905846FFF7A8FCED
:10CC50004FF0000A00BFBAF1000F06D0BAF1010F81
:10CC600025D0BAF1020F2AD10AE005FB04F02A4AC6
:10CC7000D168884780464046FFF756FB81461EE054
:10CC800096F83800384050B905FB04F0224AD168C4
:10CC9000884780464046FFF747FB814606E006ABE3
:10CCA0002A46214638460CF0DFF8804607E006ABFE
:10CCB0002A46214638460CF0D7F8804600BF00BF10
:10CCC000B8F1000F1CD10020029003900490059051
:10CCD0000420029005FB04F080B2ADF80E000020A5
:10CCE0008DF80C008DF80D00FFF788FC834602A834
:10CCF0000A4B22A2052100905846FFF751FC00BFC5
:10CD00000548006D0699014403480165C06C48441C
:10CD10000149C86440467EE714010020E0E50108AF
:10CD2000656F5F6D656D706F6F6C5F4765744D65A6
:10CD30006D6F727928292069732061736B65642097
:10CD40003020627974657300656F5F6D656D706F1B
:10CD50006F6C5F4765744D656D6F72792829206E21
:10CD60006F7420696E6974746564207573657320CF
:10CD700064796E20616C6C6F63000000656F5F6D9D
:10CD8000656D706F6F6C5F4765744D656D6F72791F
:10CD90002829206E6F206D6F7265206D656D6F7232
:10CDA0007900000038B5054640480078012801D1D7
:10CDB0003E4838BD01203D4908700020C86400216C
:10CDC0003A48016505B93A4D3848D5E90012C0E93D
:10CDD0000112287820B1012811D002284FD10FE08C
:10CDE000686858B16868006A3049C8606868416A14
:10CDF0002E4801616868816A2C48416140E000BFAB
:10CE0000686878B3294C1834202220466968FCF7FA
:10CE10009AFF206838B194F8200040F0010084F8AF
:10CE2000200000216184A06838B194F8200040F00F
:10CE3000020084F820000021A184206938B194F810
:10CE4000200040F0040084F820000021E184A06963
:10CE500038B194F8200040F0080084F82000002148
:10CE600021850BE0FFE7FFF7C9FB04461148124B91
:10CE700012A2052100902046FFF792FB00E000BFC0
:10CE800000BF0A48C06810B916480849C86007487A
:10CE9000006910B91449054801610448406910B996
:10CEA000124902484161014883E700001401002053
:10CEB000D8E5010888E50108E0E50108656F5F6DC8
:10CEC000656D706F6F6C5F496E697469616C6973D1
:10CED0006528293A20706F6F6C73206E65656465F4
:10CEE0006400000059B2010873B2010867B201087A
:10CEF000F0B587B007460C461548C16820468847FC
:10CF00000546D5B9002002900390049005900420B6
:10CF10000290A0B2ADF80E0000208DF80C008DF844
:10CF20000D00FFF76BFB064602A80A4B0AA205217B
:10CF300000903046FFF734FB00BF2846FFF7F4F9B6
:10CF40000349C96C08440249C864284607B0F0BDCB
:10CF500014010020E0E50108656F5F6D656D706F7D
:10CF60006F6C5F4E65772829206E6F206D6F72653C
:10CF7000206D656D6F727900014601480079704738
:10CF80001401002003460BB101B112B96FF001008A
:10CF9000704718680860988810800020F8E70346FA
:10CFA00013B96FF00100704719609A800020FAE70A
:10CFB000024602B111B96FF0010070475089088034
:10CFC0000020FAE730B50446039D04B115B96FF0AF
:10CFD000010030BDE079012802D04FF0FF30F8E7C2
:10CFE0002160A2800020A07123816381A381E08160
:10CFF000256100BFEDE770B505460024FFF7D6FDBB
:10D000000646012314220421FFF7DAFD044600201E
:10D010002060A080A07120816581A081E08105B998
:10D0200007E0FFF7C3FD064601232A461946FFF72E
:10D03000C7FD20610DB9012000E00020E07120460D
:10D0400070BD03460BB101B112B96FF0010070471A
:10D050001889D88118690860188910800020F6E7BF
:10D060002DE9F04104460E4615464FF0FF3704B156
:10D070001EB96FF00100BDE8F081E07910B14FF00A
:10D08000FF30F8E76089A8420ADB2A46314620696A
:10D09000FCF714FE2581A5810020E08100270DE02A
:10D0A000628931462069FCF709FE60892081608928
:10D0B000A0810020E0810120A07100273846DAE736
:10D0C00002464FF0FF330AB9580070475089884232
:10D0D00005DB118191810020D081002308E0508977
:10D0E0001081508990810020D0810120907100230F
:10D0F0001846EAE701460A460020106090809071C9
:10D1000010819081D08170472DE9F04105460E468F
:10D110002C46374638682060B888A08060893989F5
:10D12000884201DC012000E00020A071A07908B94C
:10D13000388900E0608920812089A0810020E08179
:10D1400061892069FCF739FE228939692069FCF779
:10D15000B5FD0020BDE8F0812DE9F04104460E4602
:10D16000254600202860A880A8712881A881E88130
:10D170006E8106B907E0FFF719FD0746B3B2012239
:10D180001146FFF71DFD28610EB9012000E00020C7
:10D19000E8710020BDE8F081014609B90020704720
:10D1A000C868FCE7F8B504460025FFF727FA0646ED
:10D1B0000D4800900CB1012000E0002001460B4B0F
:10D1C0000BA23046FFF7D9F9FFF7F0FC0646012322
:10D1D00010220421FFF7F4FC0546214628460BF0F7
:10D1E00039FF2846F8BD000088E501085AE5010826
:10D1F000656F5F736D5F4E657728293A204E554CF9
:10D200004C206366670000002DE9F04704460D4698
:10D210004FF0000900260027B04614B9B01EBDE843
:10D22000F08720688078A84202DC4FF0FF30F6E7F4
:10D23000207910B9204600F049F86179A06800EB28
:10D24000C1090120A840D9F80010014011B96FF0C0
:10D250000400E4E7A5712068C068D9F80410495DAE
:10D2600000EBC10820688068617900EB0116206836
:10D27000806898F8011000EB0117BE4204D0F068F6
:10D2800010B12046F1688847D8F8040018B120464C
:10D29000D8F80410884798F801006071BE4204D0A5
:10D2A000B86810B12046B96888470020B7E710B5C4
:10D2B00004462068C07860710020207120684069B1
:10D2C00018B1206841692046884710BD70B50446F2
:10D2D00000250CB9A81E70BD207970B901202071FD
:10D2E000FF20A071206880682168C97800EB0115D3
:10D2F000A86810B12046A96888470020EBE770B500
:10D300000024FFF753FC0546012318220421FFF7F0
:10D3100057FC0446FEF7DDFEA060FEF7DAFEE06093
:10D32000A068FEF709FEE068FEF706FEFF20207009
:10D330000020608060602074032060740020A0746E
:10D340006061204670BD70B505462846FEF7CBFFEC
:10D3500004460CB9002070BD6068FCE770B5054656
:10D360002846FEF7C0FF04460CB9FF2070BD2078A8
:10D37000FCE72DE9F05F81460E4617461D46DDE9C4
:10D380000BABDDF828804846FEF7ADFF04461CB91C
:10D390006FF00100BDE8F09F26706780002060609C
:10D3A000207484F811A084F812B025B12946A06831
:10D3B000FEF7CBFD02E0A068FEF7BEFDB8F1000F5E
:10D3C00004D04146E068FEF7C0FD02E0E068FEF7E9
:10D3D000B3FD0020DEE72DE9F04104460D46164678
:10D3E0004FF0FF3714B97800BDE8F08115B94FF060
:10D3F000FF30F9E701F074FD80463246294601F01E
:10D4000079FD07463846EFE72DE9F84304460E4616
:10D41000174600200090451E14B9801EBDE8F88311
:10D420002046FFF790FF2068407C012801D1801E34
:10D43000F4E72068807C01280BD101F051FD804683
:10D440003A46214601F066FD054615B16FF002002F
:10D45000E4E76946E2686068FFF735F9054645B9D3
:10D4600030460099FFF750FE034960680968FFF7EE
:10D47000ECF92846D2E7000030E401082DE9FE4F20
:10D4800005460F4690461E46DDE90C9A0024FFF73C
:10D490008DFB8346012330220421FFF791FB0446D4
:10D4A000FFF7ACF8834600200090A81908B10120CE
:10D4B00000E000200146214B21A25846FFF75DF80D
:10D4C000FFF71DFF20600DB900200AE02848294918
:10D4D0003B46294ACDE90108009129461420FFF76F
:10D4E00023F960600EB900200AE0214821494B462B
:10D4F000214ACDE9010A009131461420FFF714F9C1
:10D50000A0601E480068E06000F068F920611C4BD4
:10D510000FCB18340FC4283CFEF7DBFDA06201F0EE
:10D5200041FB029001F048FB83465B4622461549C9
:10D53000A06AFEF7DDFD2046BDE8FE8F00E701088A
:10D54000656F5F736F636B65746474675F4E657757
:10D550002829206E65656473206174206C65617391
:10D5600074206F6E6520706B742071756575650031
:10D57000F5D0000809D1000859D1000830E40108AD
:10D58000F0E60108759101082DE9FE4F0446894631
:10D5900015461E46DDF830A04FF0FF3B1CB96FF07A
:10D5A0000100BDE8FE8F012D01D0032D0CD1A06834
:10D5B00050B9FFF723F807460020304B30A2052171
:10D5C00000903846FEF7ECFF022D01D0032D0CD160
:10D5D000606850B9FFF712F807460020274B33A2C6
:10D5E000052100903846FEF7DBFF606860B9012E28
:10D5F0000AD1FFF703F807460020204B364A0521E1
:10D6000000903846FEF7CCFFBAF1000F08D0DAE9F7
:10D610000213DAE90020C4E90813C4E9062004E093
:10D620002E4B0FCB04F118070FC72068007C10BBEE
:10D630000E988DE861004A46002120460D9BFFF7B9
:10D6400098FE01F04DFC0746214601F03BFC834665
:10D65000BBF1000F0FD12420005D01280BD1012266
:10D66000216AA06ACDE900120290D4E906733A4615
:10D67000206900F01BF9584693E7000000E7010815
:10D68000656F5F736F636B65746474675F4F70651C
:10D690006E2829206E6565647320616E206F757435
:10D6A000707574207175657565000000656F5F7336
:10D6B0006F636B65746474675F4F70656E282920B3
:10D6C0006E6565647320616E20696E70757420717B
:10D6D00075657565000000001CF00108F0E60108A2
:10D6E0002DE9FE4304460E464FF0FF3514B968009D
:10D6F000BDE8FE832046FFF726FE10B94FF0FF304D
:10D70000F6E72068407C022801D1C01EF0E73146D0
:10D71000D4E90202FFF766F805460DB12846E7E7AF
:10D720001748D4E90632D0E900105940504001436F
:10D730000AD1206A40B901F0D3FB074610222146E6
:10D7400001F0ACFB054618E02420005DA0B920697B
:10D7500000F032F8012801D1851E0EE00022216A76
:10D76000A06ACDE900120290D4E906733A46206916
:10D7700000F09CF8054600E000252846B8E70000C8
:10D7800038E4010870B504460D464FF0FF3604B189
:10D7900015B96FF0010070BD2068407C012803D1ED
:10D7A00000202880401EF6E72946E2686068FFF7FF
:10D7B0006CF806463046EEE701460020002211B123
:10D7C0000B7E03F003020AB9002304E0012A01D111
:10D7D000012300E00223184670470000F8B500243A
:10D7E0000025661EFFF7E2F90746012330220421D7
:10D7F000FFF7E6F904460021204600F0FDF801F0AD
:10D800002BFF054655B9FEF7F9FE07460D480E4BAE
:10D810000EA2042100903846FEF7C2FE214628469B
:10D8200001F024FF064656B1FEF7E8FE074605481C
:10D83000054B12A2042100903846FEF7B1FE2046A7
:10D84000F8BD0000A8E50108F0E50108656F5F7408
:10D85000696D65725F4E657728293A20656F765F3E
:10D8600074696D65726D616E5F47657448616E6461
:10D870006C652829206661696C730000656F5F74B0
:10D88000696D65725F4E657728293A20656F765F0E
:10D8900074696D65726D616E5F4F6E4E6577546928
:10D8A0006D65722829206661696C73002DE9F84F57
:10D8B000044615461E46DDE90B980A9F6FF0050BDE
:10D8C0004FF0000A01F0C8FE8246BAF1000F02D004
:10D8D000B8F1000F03D16FF00100BDE8F88F4046AA
:10D8E000FEF7D7FB10B94FF0FF30F6E7294903C91F
:10D8F00068407140084303D017B94FF0FF30ECE7A0
:10D9000025480168504601F0D7FE10F1030F01D100
:10D910005846E2E71F4903C968407140084313D0E5
:10D92000B9F1000F10D101F08BFC009001F09AFCCE
:10D93000EB1946F10002C01A914105D3504601F09F
:10D94000A3FE4FF0FF30C8E72046FFF735FF012860
:10D950001AD0207E20F003002076B9F1000F01D00C
:10D96000012000E00020217E60F382012176C4E9DD
:10D970000056A76098E80F001C340FC42C3C2146C9
:10D98000504601F05BFE8346504601F07DFE58464E
:10D99000A3E7000038E4010830E4010870B504464C
:10D9A0006FF00506002501F057FE054605B114B9D4
:10D9B0006FF0010070BD0F480168284601F07CFE41
:10D9C00010F1030F01D13046F4E72046FFF7F4FED3
:10D9D000012805D12146284601F060FE064604E0F4
:10D9E0000021204600F038F80026284601F04CFEC1
:10D9F0003046DFE730E4010810B509B9002304E040
:10DA0000012901D1012300E002231A4608B3114B7A
:10DA100018CBC0E9003400238360C360037E62F347
:10DA200001030376037E23F004030376037E23F0D1
:10DA3000080308330376037E23F0F0030376002304
:10DA40000361002404614461C36103624362836231
:10DA5000037710BD38E4010810B509B9002304E0CC
:10DA6000012901D1012300E002231A46E0B1037E1F
:10DA700062F301030376037E23F004030376037E3F
:10DA800023F0080308330376037E23F0F0030376C4
:10DA9000064B18CBC0E9003400238360C360C36128
:10DAA000036243628362037710BD000038E401081B
:10DAB0000348406808B9002070470148FCE70000AF
:10DAC00074010020014609B90020704701484068F0
:10DAD000FBE700007401002030B587B004462A48F7
